{
  "contractName": "CryptozCard",
  "abi": [
    {
      "constant": true,
      "inputs": [
        {
          "name": "_interfaceId",
          "type": "bytes4"
        }
      ],
      "name": "supportsInterface",
      "outputs": [
        {
          "name": "",
          "type": "bool"
        }
      ],
      "payable": false,
      "stateMutability": "view",
      "type": "function"
    },
    {
      "constant": true,
      "inputs": [
        {
          "name": "_tokenId",
          "type": "uint256"
        }
      ],
      "name": "getApproved",
      "outputs": [
        {
          "name": "",
          "type": "address"
        }
      ],
      "payable": false,
      "stateMutability": "view",
      "type": "function"
    },
    {
      "constant": false,
      "inputs": [
        {
          "name": "_to",
          "type": "address"
        },
        {
          "name": "_tokenId",
          "type": "uint256"
        }
      ],
      "name": "approve",
      "outputs": [],
      "payable": false,
      "stateMutability": "nonpayable",
      "type": "function"
    },
    {
      "constant": true,
      "inputs": [],
      "name": "InterfaceId_ERC165",
      "outputs": [
        {
          "name": "",
          "type": "bytes4"
        }
      ],
      "payable": false,
      "stateMutability": "view",
      "type": "function"
    },
    {
      "constant": false,
      "inputs": [],
      "name": "withdraw",
      "outputs": [],
      "payable": false,
      "stateMutability": "nonpayable",
      "type": "function"
    },
    {
      "constant": false,
      "inputs": [
        {
          "name": "_from",
          "type": "address"
        },
        {
          "name": "_to",
          "type": "address"
        },
        {
          "name": "_tokenId",
          "type": "uint256"
        }
      ],
      "name": "safeTransferFrom",
      "outputs": [],
      "payable": false,
      "stateMutability": "nonpayable",
      "type": "function"
    },
    {
      "constant": true,
      "inputs": [
        {
          "name": "",
          "type": "uint32"
        }
      ],
      "name": "allCardTypes",
      "outputs": [
        {
          "name": "cardTypeId",
          "type": "uint32"
        },
        {
          "name": "name",
          "type": "string"
        },
        {
          "name": "set",
          "type": "string"
        },
        {
          "name": "weiCost",
          "type": "uint256"
        },
        {
          "name": "buyCzxp",
          "type": "uint256"
        },
        {
          "name": "transferCzxp",
          "type": "uint256"
        },
        {
          "name": "sacrificeCzxp",
          "type": "uint256"
        },
        {
          "name": "unlockCzxp",
          "type": "uint256"
        },
        {
          "name": "cardLevel",
          "type": "uint8"
        }
      ],
      "payable": false,
      "stateMutability": "view",
      "type": "function"
    },
    {
      "constant": true,
      "inputs": [
        {
          "name": "",
          "type": "uint256"
        }
      ],
      "name": "tokensByRarity",
      "outputs": [
        {
          "name": "",
          "type": "uint256"
        }
      ],
      "payable": false,
      "stateMutability": "view",
      "type": "function"
    },
    {
      "constant": true,
      "inputs": [
        {
          "name": "_tokenId",
          "type": "uint256"
        }
      ],
      "name": "exists",
      "outputs": [
        {
          "name": "",
          "type": "bool"
        }
      ],
      "payable": false,
      "stateMutability": "view",
      "type": "function"
    },
    {
      "constant": true,
      "inputs": [
        {
          "name": "_tokenId",
          "type": "uint256"
        }
      ],
      "name": "ownerOf",
      "outputs": [
        {
          "name": "",
          "type": "address"
        }
      ],
      "payable": false,
      "stateMutability": "view",
      "type": "function"
    },
    {
      "constant": true,
      "inputs": [
        {
          "name": "_owner",
          "type": "address"
        }
      ],
      "name": "balanceOf",
      "outputs": [
        {
          "name": "",
          "type": "uint256"
        }
      ],
      "payable": false,
      "stateMutability": "view",
      "type": "function"
    },
    {
      "constant": false,
      "inputs": [],
      "name": "renounceOwnership",
      "outputs": [],
      "payable": false,
      "stateMutability": "nonpayable",
      "type": "function"
    },
    {
      "constant": true,
      "inputs": [],
      "name": "getTotalTypes",
      "outputs": [
        {
          "name": "",
          "type": "uint256"
        }
      ],
      "payable": false,
      "stateMutability": "view",
      "type": "function"
    },
    {
      "constant": true,
      "inputs": [
        {
          "name": "",
          "type": "address"
        },
        {
          "name": "",
          "type": "uint256"
        }
      ],
      "name": "cardTypesOwned",
      "outputs": [
        {
          "name": "",
          "type": "bool"
        }
      ],
      "payable": false,
      "stateMutability": "view",
      "type": "function"
    },
    {
      "constant": true,
      "inputs": [
        {
          "name": "",
          "type": "uint256"
        }
      ],
      "name": "rarity",
      "outputs": [
        {
          "name": "",
          "type": "uint8"
        }
      ],
      "payable": false,
      "stateMutability": "view",
      "type": "function"
    },
    {
      "constant": true,
      "inputs": [],
      "name": "owner",
      "outputs": [
        {
          "name": "",
          "type": "address"
        }
      ],
      "payable": false,
      "stateMutability": "view",
      "type": "function"
    },
    {
      "constant": true,
      "inputs": [
        {
          "name": "",
          "type": "uint256"
        }
      ],
      "name": "cardTypesIds",
      "outputs": [
        {
          "name": "",
          "type": "uint256"
        }
      ],
      "payable": false,
      "stateMutability": "view",
      "type": "function"
    },
    {
      "constant": false,
      "inputs": [
        {
          "name": "_to",
          "type": "address"
        },
        {
          "name": "_approved",
          "type": "bool"
        }
      ],
      "name": "setApprovalForAll",
      "outputs": [],
      "payable": false,
      "stateMutability": "nonpayable",
      "type": "function"
    },
    {
      "constant": true,
      "inputs": [
        {
          "name": "",
          "type": "uint256"
        }
      ],
      "name": "cardTypeToEdition",
      "outputs": [
        {
          "name": "",
          "type": "uint256"
        }
      ],
      "payable": false,
      "stateMutability": "view",
      "type": "function"
    },
    {
      "constant": false,
      "inputs": [
        {
          "name": "_from",
          "type": "address"
        },
        {
          "name": "_to",
          "type": "address"
        },
        {
          "name": "_tokenId",
          "type": "uint256"
        },
        {
          "name": "_data",
          "type": "bytes"
        }
      ],
      "name": "safeTransferFrom",
      "outputs": [],
      "payable": false,
      "stateMutability": "nonpayable",
      "type": "function"
    },
    {
      "constant": true,
      "inputs": [
        {
          "name": "_owner",
          "type": "address"
        },
        {
          "name": "_operator",
          "type": "address"
        }
      ],
      "name": "isApprovedForAll",
      "outputs": [
        {
          "name": "",
          "type": "bool"
        }
      ],
      "payable": false,
      "stateMutability": "view",
      "type": "function"
    },
    {
      "constant": false,
      "inputs": [
        {
          "name": "_newOwner",
          "type": "address"
        }
      ],
      "name": "transferOwnership",
      "outputs": [],
      "payable": false,
      "stateMutability": "nonpayable",
      "type": "function"
    },
    {
      "payable": false,
      "stateMutability": "nonpayable",
      "type": "fallback"
    },
    {
      "anonymous": false,
      "inputs": [
        {
          "indexed": true,
          "name": "owner",
          "type": "address"
        },
        {
          "indexed": true,
          "name": "cardTokenId",
          "type": "uint256"
        },
        {
          "indexed": false,
          "name": "editionNumber",
          "type": "uint256"
        },
        {
          "indexed": true,
          "name": "cardTypeId",
          "type": "uint256"
        },
        {
          "indexed": false,
          "name": "CzxpGained",
          "type": "uint256"
        }
      ],
      "name": "LogCardCreated",
      "type": "event"
    },
    {
      "anonymous": false,
      "inputs": [
        {
          "indexed": true,
          "name": "owner",
          "type": "address"
        },
        {
          "indexed": true,
          "name": "cardTokenId",
          "type": "uint256"
        },
        {
          "indexed": true,
          "name": "cardTypeId",
          "type": "uint256"
        },
        {
          "indexed": false,
          "name": "CzxpGained",
          "type": "uint256"
        }
      ],
      "name": "SacrificeCardEvent",
      "type": "event"
    },
    {
      "anonymous": false,
      "inputs": [
        {
          "indexed": true,
          "name": "_from",
          "type": "address"
        },
        {
          "indexed": true,
          "name": "_to",
          "type": "address"
        },
        {
          "indexed": true,
          "name": "_tokenId",
          "type": "uint256"
        }
      ],
      "name": "Transfer",
      "type": "event"
    },
    {
      "anonymous": false,
      "inputs": [
        {
          "indexed": true,
          "name": "_owner",
          "type": "address"
        },
        {
          "indexed": true,
          "name": "_approved",
          "type": "address"
        },
        {
          "indexed": true,
          "name": "_tokenId",
          "type": "uint256"
        }
      ],
      "name": "Approval",
      "type": "event"
    },
    {
      "anonymous": false,
      "inputs": [
        {
          "indexed": true,
          "name": "_owner",
          "type": "address"
        },
        {
          "indexed": true,
          "name": "_operator",
          "type": "address"
        },
        {
          "indexed": false,
          "name": "_approved",
          "type": "bool"
        }
      ],
      "name": "ApprovalForAll",
      "type": "event"
    },
    {
      "anonymous": false,
      "inputs": [
        {
          "indexed": true,
          "name": "beneficiary",
          "type": "address"
        },
        {
          "indexed": false,
          "name": "czxpAmount",
          "type": "uint256"
        }
      ],
      "name": "CZXPGained",
      "type": "event"
    },
    {
      "anonymous": false,
      "inputs": [
        {
          "indexed": true,
          "name": "previousOwner",
          "type": "address"
        }
      ],
      "name": "OwnershipRenounced",
      "type": "event"
    },
    {
      "anonymous": false,
      "inputs": [
        {
          "indexed": true,
          "name": "previousOwner",
          "type": "address"
        },
        {
          "indexed": true,
          "name": "newOwner",
          "type": "address"
        }
      ],
      "name": "OwnershipTransferred",
      "type": "event"
    },
    {
      "constant": true,
      "inputs": [],
      "name": "name",
      "outputs": [
        {
          "name": "_name",
          "type": "string"
        }
      ],
      "payable": false,
      "stateMutability": "view",
      "type": "function"
    },
    {
      "constant": true,
      "inputs": [],
      "name": "symbol",
      "outputs": [
        {
          "name": "_symbol",
          "type": "string"
        }
      ],
      "payable": false,
      "stateMutability": "view",
      "type": "function"
    },
    {
      "constant": true,
      "inputs": [
        {
          "name": "_tokenId",
          "type": "uint256"
        }
      ],
      "name": "tokenURI",
      "outputs": [
        {
          "name": "",
          "type": "string"
        }
      ],
      "payable": false,
      "stateMutability": "view",
      "type": "function"
    },
    {
      "constant": true,
      "inputs": [
        {
          "name": "_owner",
          "type": "address"
        },
        {
          "name": "_index",
          "type": "uint256"
        }
      ],
      "name": "tokenOfOwnerByIndex",
      "outputs": [
        {
          "name": "",
          "type": "uint256"
        }
      ],
      "payable": false,
      "stateMutability": "view",
      "type": "function"
    },
    {
      "constant": true,
      "inputs": [],
      "name": "totalSupply",
      "outputs": [
        {
          "name": "",
          "type": "uint256"
        }
      ],
      "payable": false,
      "stateMutability": "view",
      "type": "function"
    },
    {
      "constant": true,
      "inputs": [
        {
          "name": "_index",
          "type": "uint256"
        }
      ],
      "name": "tokenByIndex",
      "outputs": [
        {
          "name": "",
          "type": "uint256"
        }
      ],
      "payable": false,
      "stateMutability": "view",
      "type": "function"
    },
    {
      "constant": false,
      "inputs": [
        {
          "name": "_from",
          "type": "address"
        },
        {
          "name": "_to",
          "type": "address"
        },
        {
          "name": "_tokenId",
          "type": "uint256"
        }
      ],
      "name": "transferFrom",
      "outputs": [],
      "payable": false,
      "stateMutability": "nonpayable",
      "type": "function"
    },
    {
      "constant": true,
      "inputs": [
        {
          "name": "_owner",
          "type": "address"
        }
      ],
      "name": "tokensOfOwner",
      "outputs": [
        {
          "name": "ownerTokens",
          "type": "uint256[]"
        }
      ],
      "payable": false,
      "stateMutability": "view",
      "type": "function"
    },
    {
      "constant": true,
      "inputs": [],
      "name": "getTokensByRarity",
      "outputs": [
        {
          "name": "",
          "type": "uint256"
        },
        {
          "name": "",
          "type": "uint256"
        },
        {
          "name": "",
          "type": "uint256"
        },
        {
          "name": "",
          "type": "uint256"
        },
        {
          "name": "",
          "type": "uint256"
        },
        {
          "name": "",
          "type": "uint256"
        }
      ],
      "payable": false,
      "stateMutability": "view",
      "type": "function"
    },
    {
      "constant": true,
      "inputs": [
        {
          "name": "_tokenId",
          "type": "uint256"
        }
      ],
      "name": "getCardByTokenId",
      "outputs": [
        {
          "name": "",
          "type": "uint32"
        },
        {
          "name": "",
          "type": "uint256"
        },
        {
          "name": "",
          "type": "uint256"
        }
      ],
      "payable": false,
      "stateMutability": "view",
      "type": "function"
    }
  ],
  "bytecode": "0x60806040526040805190810160405280601b81526020017f68747470733a2f2f63727970746f7a2e63617264732f646174612f000000000081525060019080519060200190620000519291906200039a565b506040805190810160405280600d81526020017f43727970746f7a20436172647300000000000000000000000000000000000000815250601190805190602001906200009f9291906200039a565b506040805190810160405280600781526020017f43727970746f7a0000000000000000000000000000000000000000000000000081525060129080519060200190620000ed9291906200039a565b5060e060405190810160405280600060ff168152602001600060ff168152602001600060ff168152602001600060ff168152602001600060ff168152602001600060ff168152602001600060ff1681525060189060076200015092919062000421565b50336000806101000a81548173ffffffffffffffffffffffffffffffffffffffff021916908373ffffffffffffffffffffffffffffffffffffffff1602179055506001600b60006301ffc9a77c0100000000000000000000000000000000000000000000000000000000027bffffffffffffffffffffffffffffffffffffffffffffffffffffffff19167bffffffffffffffffffffffffffffffffffffffffffffffffffffffff1916815260200190815260200160002060006101000a81548160ff0219169083151502179055506200025b6301ffc9a77c010000000000000000000000000000000000000000000000000000000002620002db640100000000026401000000009004565b620002986380ac58cd7c010000000000000000000000000000000000000000000000000000000002620002db640100000000026401000000009004565b620002d5634f558e797c010000000000000000000000000000000000000000000000000000000002620002db640100000000026401000000009004565b62000493565b63ffffffff7c010000000000000000000000000000000000000000000000000000000002817bffffffffffffffffffffffffffffffffffffffffffffffffffffffff1916141515156200032d57600080fd5b6001600c6000837bffffffffffffffffffffffffffffffffffffffffffffffffffffffff19167bffffffffffffffffffffffffffffffffffffffffffffffffffffffff1916815260200190815260200160002060006101000a81548160ff02191690831515021790555050565b828054600181600116156101000203166002900490600052602060002090601f016020900481019282601f10620003dd57805160ff19168380011785556200040e565b828001600101855582156200040e579182015b828111156200040d578251825591602001919060010190620003f0565b5b5090506200041d91906200046b565b5090565b826007810192821562000458579160200282015b8281111562000457578251829060ff1690559160200191906001019062000435565b5b5090506200046791906200046b565b5090565b6200049091905b808211156200048c57600081600090555060010162000472565b5090565b90565b61291280620004a36000396000f300608060405260043610610196576000357c0100000000000000000000000000000000000000000000000000000000900463ffffffff16806301ffc9a7146101a857806306fdde031461020c578063081812fc1461029c578063095ea7b31461030957806318160ddd1461035657806319fa8f501461038157806323b872dd146103ea5780632f745c59146104575780633ccfd60b146104b857806342842e0e146104cf57806342ed1d291461053c5780634d3e2e5e146106975780634f558e79146106d85780634f6ccce71461071d5780636352211e1461075e57806370a08231146107cb578063715018a6146108225780637a9d06df146108395780637f2764551461089457806381cbd203146108bf5780638462151c146109245780638b58c569146109bc5780638da5cb5b14610a03578063918923c414610a5a57806395d89b4114610a9b578063a22cb46514610b2b578063afa6154114610b7a578063b4a1676914610bc8578063b88d4fde14610c09578063c87b56dd14610cbc578063e985e9c514610d62578063f2fde38b14610ddd575b3480156101a257600080fd5b50600080fd5b3480156101b457600080fd5b506101f260048036038101908080357bffffffffffffffffffffffffffffffffffffffffffffffffffffffff19169060200190929190505050610e20565b604051808215151515815260200191505060405180910390f35b34801561021857600080fd5b50610221610e88565b6040518080602001828103825283818151815260200191508051906020019080838360005b83811015610261578082015181840152602081019050610246565b50505050905090810190601f16801561028e5780820380516001836020036101000a031916815260200191505b509250505060405180910390f35b3480156102a857600080fd5b506102c760048036038101908080359060200190929190505050610f2a565b604051808273ffffffffffffffffffffffffffffffffffffffff1673ffffffffffffffffffffffffffffffffffffffff16815260200191505060405180910390f35b34801561031557600080fd5b50610354600480360381019080803573ffffffffffffffffffffffffffffffffffffffff16906020019092919080359060200190929190505050610f67565b005b34801561036257600080fd5b5061036b6110ac565b6040518082815260200191505060405180910390f35b34801561038d57600080fd5b506103966110b9565b60405180827bffffffffffffffffffffffffffffffffffffffffffffffffffffffff19167bffffffffffffffffffffffffffffffffffffffffffffffffffffffff1916815260200191505060405180910390f35b3480156103f657600080fd5b50610455600480360381019080803573ffffffffffffffffffffffffffffffffffffffff169060200190929190803573ffffffffffffffffffffffffffffffffffffffff169060200190929190803590602001909291905050506110e0565b005b34801561046357600080fd5b506104a2600480360381019080803573ffffffffffffffffffffffffffffffffffffffff1690602001909291908035906020019092919050505061120b565b6040518082815260200191505060405180910390f35b3480156104c457600080fd5b506104cd611282565b005b3480156104db57600080fd5b5061053a600480360381019080803573ffffffffffffffffffffffffffffffffffffffff169060200190929190803573ffffffffffffffffffffffffffffffffffffffff1690602001909291908035906020019092919050505061133d565b005b34801561054857600080fd5b5061056d600480360381019080803563ffffffff16906020019092919050505061135e565b604051808a63ffffffff1663ffffffff16815260200180602001806020018981526020018881526020018781526020018681526020018581526020018460ff1660ff16815260200183810383528b818151815260200191508051906020019080838360005b838110156105ed5780820151818401526020810190506105d2565b50505050905090810190601f16801561061a5780820380516001836020036101000a031916815260200191505b5083810382528a818151815260200191508051906020019080838360005b83811015610653578082015181840152602081019050610638565b50505050905090810190601f1680156106805780820380516001836020036101000a031916815260200191505b509b50505050505050505050505060405180910390f35b3480156106a357600080fd5b506106c2600480360381019080803590602001909291905050506114f9565b6040518082815260200191505060405180910390f35b3480156106e457600080fd5b5061070360048036038101908080359060200190929190505050611513565b604051808215151515815260200191505060405180910390f35b34801561072957600080fd5b5061074860048036038101908080359060200190929190505050611585565b6040518082815260200191505060405180910390f35b34801561076a57600080fd5b50610789600480360381019080803590602001909291905050506115bd565b604051808273ffffffffffffffffffffffffffffffffffffffff1673ffffffffffffffffffffffffffffffffffffffff16815260200191505060405180910390f35b3480156107d757600080fd5b5061080c600480360381019080803573ffffffffffffffffffffffffffffffffffffffff16906020019092919050505061163b565b6040518082815260200191505060405180910390f35b34801561082e57600080fd5b506108376116bf565b005b34801561084557600080fd5b50610864600480360381019080803590602001909291905050506117c1565b604051808463ffffffff1663ffffffff168152602001838152602001828152602001935050505060405180910390f35b3480156108a057600080fd5b506108a961185a565b6040518082815260200191505060405180910390f35b3480156108cb57600080fd5b5061090a600480360381019080803573ffffffffffffffffffffffffffffffffffffffff16906020019092919080359060200190929190505050611867565b604051808215151515815260200191505060405180910390f35b34801561093057600080fd5b50610965600480360381019080803573ffffffffffffffffffffffffffffffffffffffff169060200190929190505050611896565b6040518080602001828103825283818151815260200191508051906020019060200280838360005b838110156109a857808201518184015260208101905061098d565b505050509050019250505060405180910390f35b3480156109c857600080fd5b506109e7600480360381019080803590602001909291905050506119e3565b604051808260ff1660ff16815260200191505060405180910390f35b348015610a0f57600080fd5b50610a18611a03565b604051808273ffffffffffffffffffffffffffffffffffffffff1673ffffffffffffffffffffffffffffffffffffffff16815260200191505060405180910390f35b348015610a6657600080fd5b50610a8560048036038101908080359060200190929190505050611a28565b6040518082815260200191505060405180910390f35b348015610aa757600080fd5b50610ab0611a4b565b6040518080602001828103825283818151815260200191508051906020019080838360005b83811015610af0578082015181840152602081019050610ad5565b50505050905090810190601f168015610b1d5780820380516001836020036101000a031916815260200191505b509250505060405180910390f35b348015610b3757600080fd5b50610b78600480360381019080803573ffffffffffffffffffffffffffffffffffffffff169060200190929190803515159060200190929190505050611aed565b005b348015610b8657600080fd5b50610b8f611c29565b60405180878152602001868152602001858152602001848152602001838152602001828152602001965050505050505060405180910390f35b348015610bd457600080fd5b50610bf360048036038101908080359060200190929190505050611cb2565b6040518082815260200191505060405180910390f35b348015610c1557600080fd5b50610cba600480360381019080803573ffffffffffffffffffffffffffffffffffffffff169060200190929190803573ffffffffffffffffffffffffffffffffffffffff16906020019092919080359060200190929190803590602001908201803590602001908080601f0160208091040260200160405190810160405280939291908181526020018383808284378201915050505050509192919290505050611cca565b005b348015610cc857600080fd5b50610ce760048036038101908080359060200190929190505050611cf2565b6040518080602001828103825283818151815260200191508051906020019080838360005b83811015610d27578082015181840152602081019050610d0c565b50505050905090810190601f168015610d545780820380516001836020036101000a031916815260200191505b509250505060405180910390f35b348015610d6e57600080fd5b50610dc3600480360381019080803573ffffffffffffffffffffffffffffffffffffffff169060200190929190803573ffffffffffffffffffffffffffffffffffffffff169060200190929190505050611dbb565b604051808215151515815260200191505060405180910390f35b348015610de957600080fd5b50610e1e600480360381019080803573ffffffffffffffffffffffffffffffffffffffff169060200190929190505050611e4f565b005b6000600c6000837bffffffffffffffffffffffffffffffffffffffffffffffffffffffff19167bffffffffffffffffffffffffffffffffffffffffffffffffffffffff1916815260200190815260200160002060009054906101000a900460ff169050919050565b606060118054600181600116156101000203166002900480601f016020809104026020016040519081016040528092919081815260200182805460018160011615610100020316600290048015610f205780601f10610ef557610100808354040283529160200191610f20565b820191906000526020600020905b815481529060010190602001808311610f0357829003601f168201915b5050505050905090565b6000600e600083815260200190815260200160002060009054906101000a900473ffffffffffffffffffffffffffffffffffffffff169050919050565b6000610f72826115bd565b90508073ffffffffffffffffffffffffffffffffffffffff168373ffffffffffffffffffffffffffffffffffffffff1614151515610faf57600080fd5b8073ffffffffffffffffffffffffffffffffffffffff163373ffffffffffffffffffffffffffffffffffffffff161480610fef5750610fee8133611dbb565b5b1515610ffa57600080fd5b82600e600084815260200190815260200160002060006101000a81548173ffffffffffffffffffffffffffffffffffffffff021916908373ffffffffffffffffffffffffffffffffffffffff160217905550818373ffffffffffffffffffffffffffffffffffffffff168273ffffffffffffffffffffffffffffffffffffffff167f8c5be1e5ebec7d5bd14f71427d1e84f3dd0314c0f7b2291e5b200ac8c7c3b92560405160405180910390a4505050565b6000601580549050905090565b6301ffc9a77c01000000000000000000000000000000000000000000000000000000000281565b600073ffffffffffffffffffffffffffffffffffffffff168373ffffffffffffffffffffffffffffffffffffffff161415151561111c57600080fd5b600073ffffffffffffffffffffffffffffffffffffffff168273ffffffffffffffffffffffffffffffffffffffff161415151561115857600080fd5b6111628382611eb6565b61116c8382611fb9565b61117682826121d1565b6111aa600160068381548110151561118a57fe5b9060005260206000209060030201600201546122a890919063ffffffff16565b50808273ffffffffffffffffffffffffffffffffffffffff168473ffffffffffffffffffffffffffffffffffffffff167fddf252ad1be2c89b69c2b068fc378daa952ba7f163c4a11628f55a4df523b3ef60405160405180910390a4505050565b60006112168361163b565b8210151561122357600080fd5b601360008473ffffffffffffffffffffffffffffffffffffffff1673ffffffffffffffffffffffffffffffffffffffff1681526020019081526020016000208281548110151561126f57fe5b9060005260206000200154905092915050565b6000809054906101000a900473ffffffffffffffffffffffffffffffffffffffff1673ffffffffffffffffffffffffffffffffffffffff163373ffffffffffffffffffffffffffffffffffffffff161415156112dd57600080fd5b3373ffffffffffffffffffffffffffffffffffffffff166108fc3073ffffffffffffffffffffffffffffffffffffffff16319081150290604051600060405180830381858888f1935050505015801561133a573d6000803e3d6000fd5b50565b6113598383836020604051908101604052806000815250611cca565b505050565b60076020528060005260406000206000915090508060000160009054906101000a900463ffffffff1690806001018054600181600116156101000203166002900480601f0160208091040260200160405190810160405280929190818152602001828054600181600116156101000203166002900480156114205780601f106113f557610100808354040283529160200191611420565b820191906000526020600020905b81548152906001019060200180831161140357829003601f168201915b505050505090806002018054600181600116156101000203166002900480601f0160208091040260200160405190810160405280929190818152602001828054600181600116156101000203166002900480156114be5780601f10611493576101008083540402835291602001916114be565b820191906000526020600020905b8154815290600101906020018083116114a157829003601f168201915b5050505050908060030154908060040154908060050154908060060154908060070154908060080160009054906101000a900460ff16905089565b60188160078110151561150857fe5b016000915090505481565b600080600d600084815260200190815260200160002060009054906101000a900473ffffffffffffffffffffffffffffffffffffffff169050600073ffffffffffffffffffffffffffffffffffffffff168173ffffffffffffffffffffffffffffffffffffffff161415915050919050565b600061158f6110ac565b8210151561159c57600080fd5b6015828154811015156115ab57fe5b90600052602060002001549050919050565b600080600d600084815260200190815260200160002060009054906101000a900473ffffffffffffffffffffffffffffffffffffffff169050600073ffffffffffffffffffffffffffffffffffffffff168173ffffffffffffffffffffffffffffffffffffffff161415151561163257600080fd5b80915050919050565b60008073ffffffffffffffffffffffffffffffffffffffff168273ffffffffffffffffffffffffffffffffffffffff161415151561167857600080fd5b600f60008373ffffffffffffffffffffffffffffffffffffffff1673ffffffffffffffffffffffffffffffffffffffff168152602001908152602001600020549050919050565b6000809054906101000a900473ffffffffffffffffffffffffffffffffffffffff1673ffffffffffffffffffffffffffffffffffffffff163373ffffffffffffffffffffffffffffffffffffffff1614151561171a57600080fd5b6000809054906101000a900473ffffffffffffffffffffffffffffffffffffffff1673ffffffffffffffffffffffffffffffffffffffff167ff8df31144d9c2f0f6b59d69b8b98abd5459d07f2742c4df920b25aae33c6482060405160405180910390a260008060006101000a81548173ffffffffffffffffffffffffffffffffffffffff021916908373ffffffffffffffffffffffffffffffffffffffff160217905550565b60008060006117cf84611513565b15156117da57600080fd5b6006848154811015156117e957fe5b906000526020600020906003020160000160009054906101000a900463ffffffff1660068581548110151561181a57fe5b90600052602060002090600302016001015460068681548110151561183b57fe5b9060005260206000209060030201600201549250925092509193909250565b6000600880549050905090565b601f6020528160005260406000206020528060005260406000206000915091509054906101000a900460ff1681565b60606000606060008060006118aa8761163b565b945060008514156118ed5760006040519080825280602002602001820160405280156118e55781602001602082028038833980820191505090505b5095506119d9565b8460405190808252806020026020018201604052801561191c5781602001602082028038833980820191505090505b5093506119276110ac565b925060009150600190505b82811115156119d5578673ffffffffffffffffffffffffffffffffffffffff16600d600083815260200190815260200160002060009054906101000a900473ffffffffffffffffffffffffffffffffffffffff1673ffffffffffffffffffffffffffffffffffffffff1614156119c8578084838151811015156119b157fe5b906020019060200201818152505081806001019250505b8080600101915050611932565b8395505b5050505050919050565b60046020528060005260406000206000915054906101000a900460ff1681565b6000809054906101000a900473ffffffffffffffffffffffffffffffffffffffff1681565b600881815481101515611a3757fe5b906000526020600020016000915090505481565b606060128054600181600116156101000203166002900480601f016020809104026020016040519081016040528092919081815260200182805460018160011615610100020316600290048015611ae35780601f10611ab857610100808354040283529160200191611ae3565b820191906000526020600020905b815481529060010190602001808311611ac657829003601f168201915b5050505050905090565b3373ffffffffffffffffffffffffffffffffffffffff168273ffffffffffffffffffffffffffffffffffffffff1614151515611b2857600080fd5b80601060003373ffffffffffffffffffffffffffffffffffffffff1673ffffffffffffffffffffffffffffffffffffffff16815260200190815260200160002060008473ffffffffffffffffffffffffffffffffffffffff1673ffffffffffffffffffffffffffffffffffffffff16815260200190815260200160002060006101000a81548160ff0219169083151502179055508173ffffffffffffffffffffffffffffffffffffffff163373ffffffffffffffffffffffffffffffffffffffff167f17307eab39ab6107e8899845ad3d59bd9653f200f220920489ca2b5937696c3183604051808215151515815260200191505060405180910390a35050565b60008060008060008060186001600781101515611c4257fe5b015460186002600781101515611c5457fe5b015460186003600781101515611c6657fe5b015460186004600781101515611c7857fe5b015460186005600781101515611c8a57fe5b015460186006600781101515611c9c57fe5b0154955095509550955095509550909192939495565b60096020528060005260406000206000915090505481565b611cd58484846110e0565b611ce1848484846122c4565b1515611cec57600080fd5b50505050565b6060611cfd82611513565b1515611d0857600080fd5b601760008381526020019081526020016000208054600181600116156101000203166002900480601f016020809104026020016040519081016040528092919081815260200182805460018160011615610100020316600290048015611daf5780601f10611d8457610100808354040283529160200191611daf565b820191906000526020600020905b815481529060010190602001808311611d9257829003601f168201915b50505050509050919050565b6000601060008473ffffffffffffffffffffffffffffffffffffffff1673ffffffffffffffffffffffffffffffffffffffff16815260200190815260200160002060008373ffffffffffffffffffffffffffffffffffffffff1673ffffffffffffffffffffffffffffffffffffffff16815260200190815260200160002060009054906101000a900460ff16905092915050565b6000809054906101000a900473ffffffffffffffffffffffffffffffffffffffff1673ffffffffffffffffffffffffffffffffffffffff163373ffffffffffffffffffffffffffffffffffffffff16141515611eaa57600080fd5b611eb3816124e6565b50565b8173ffffffffffffffffffffffffffffffffffffffff16611ed6826115bd565b73ffffffffffffffffffffffffffffffffffffffff16141515611ef857600080fd5b600073ffffffffffffffffffffffffffffffffffffffff16600e600083815260200190815260200160002060009054906101000a900473ffffffffffffffffffffffffffffffffffffffff1673ffffffffffffffffffffffffffffffffffffffff16141515611fb5576000600e600083815260200190815260200160002060006101000a81548173ffffffffffffffffffffffffffffffffffffffff021916908373ffffffffffffffffffffffffffffffffffffffff1602179055505b5050565b6000806000611fc885856125e0565b601460008581526020019081526020016000205492506120346001601360008873ffffffffffffffffffffffffffffffffffffffff1673ffffffffffffffffffffffffffffffffffffffff1681526020019081526020016000208054905061270f90919063ffffffff16565b9150601360008673ffffffffffffffffffffffffffffffffffffffff1673ffffffffffffffffffffffffffffffffffffffff1681526020019081526020016000208281548110151561208257fe5b9060005260206000200154905080601360008773ffffffffffffffffffffffffffffffffffffffff1673ffffffffffffffffffffffffffffffffffffffff168152602001908152602001600020848154811015156120dc57fe5b90600052602060002001819055506000601360008773ffffffffffffffffffffffffffffffffffffffff1673ffffffffffffffffffffffffffffffffffffffff1681526020019081526020016000208381548110151561213857fe5b9060005260206000200181905550601360008673ffffffffffffffffffffffffffffffffffffffff1673ffffffffffffffffffffffffffffffffffffffff1681526020019081526020016000208054809190600190036121989190612895565b50600060146000868152602001908152602001600020819055508260146000838152602001908152602001600020819055505050505050565b60006121dd8383612728565b601360008473ffffffffffffffffffffffffffffffffffffffff1673ffffffffffffffffffffffffffffffffffffffff168152602001908152602001600020805490509050601360008473ffffffffffffffffffffffffffffffffffffffff1673ffffffffffffffffffffffffffffffffffffffff168152602001908152602001600020829080600181540180825580915050906001820390600052602060002001600090919290919091505550806014600084815260200190815260200160002081905550505050565b600081830190508281101515156122bb57fe5b80905092915050565b6000806122e68573ffffffffffffffffffffffffffffffffffffffff16612882565b15156122f557600191506124dd565b8473ffffffffffffffffffffffffffffffffffffffff1663150b7a02338887876040518563ffffffff167c0100000000000000000000000000000000000000000000000000000000028152600401808573ffffffffffffffffffffffffffffffffffffffff1673ffffffffffffffffffffffffffffffffffffffff1681526020018473ffffffffffffffffffffffffffffffffffffffff1673ffffffffffffffffffffffffffffffffffffffff16815260200183815260200180602001828103825283818151815260200191508051906020019080838360005b838110156123ea5780820151818401526020810190506123cf565b50505050905090810190601f1680156124175780820380516001836020036101000a031916815260200191505b5095505050505050602060405180830381600087803b15801561243957600080fd5b505af115801561244d573d6000803e3d6000fd5b505050506040513d602081101561246357600080fd5b8101908080519060200190929190505050905063150b7a027c0100000000000000000000000000000000000000000000000000000000027bffffffffffffffffffffffffffffffffffffffffffffffffffffffff1916817bffffffffffffffffffffffffffffffffffffffffffffffffffffffff19161491505b50949350505050565b600073ffffffffffffffffffffffffffffffffffffffff168173ffffffffffffffffffffffffffffffffffffffff161415151561252257600080fd5b8073ffffffffffffffffffffffffffffffffffffffff166000809054906101000a900473ffffffffffffffffffffffffffffffffffffffff1673ffffffffffffffffffffffffffffffffffffffff167f8be0079c531659141344cd1fd0a4f28419497f9722a3daafe3b4186f6b6457e060405160405180910390a3806000806101000a81548173ffffffffffffffffffffffffffffffffffffffff021916908373ffffffffffffffffffffffffffffffffffffffff16021790555050565b8173ffffffffffffffffffffffffffffffffffffffff16612600826115bd565b73ffffffffffffffffffffffffffffffffffffffff1614151561262257600080fd5b6126756001600f60008573ffffffffffffffffffffffffffffffffffffffff1673ffffffffffffffffffffffffffffffffffffffff1681526020019081526020016000205461270f90919063ffffffff16565b600f60008473ffffffffffffffffffffffffffffffffffffffff1673ffffffffffffffffffffffffffffffffffffffff168152602001908152602001600020819055506000600d600083815260200190815260200160002060006101000a81548173ffffffffffffffffffffffffffffffffffffffff021916908373ffffffffffffffffffffffffffffffffffffffff1602179055505050565b600082821115151561271d57fe5b818303905092915050565b600073ffffffffffffffffffffffffffffffffffffffff16600d600083815260200190815260200160002060009054906101000a900473ffffffffffffffffffffffffffffffffffffffff1673ffffffffffffffffffffffffffffffffffffffff1614151561279657600080fd5b81600d600083815260200190815260200160002060006101000a81548173ffffffffffffffffffffffffffffffffffffffff021916908373ffffffffffffffffffffffffffffffffffffffff16021790555061283b6001600f60008573ffffffffffffffffffffffffffffffffffffffff1673ffffffffffffffffffffffffffffffffffffffff168152602001908152602001600020546122a890919063ffffffff16565b600f60008473ffffffffffffffffffffffffffffffffffffffff1673ffffffffffffffffffffffffffffffffffffffff168152602001908152602001600020819055505050565b600080823b905060008111915050919050565b8154818355818111156128bc578183600052602060002091820191016128bb91906128c1565b5b505050565b6128e391905b808211156128df5760008160009055506001016128c7565b5090565b905600a165627a7a7230582020079242d928adfd1dbc2b528d2b951205a19c611110dfdb5bae8a6239ddd2f70029",
  "source": "pragma solidity ^0.4.24;\n\nimport \"./CryptozUniverse.sol\";\nimport \"../node_modules/openzeppelin-solidity/contracts/token/ERC721/ERC721.sol\";\nimport \"../node_modules/openzeppelin-solidity/contracts/token/ERC721/ERC721BasicToken.sol\";\n\n/*\ninterface ERC165 {\n /// @notice Query if a contract implements an interface\n /// @param interfaceID The interface identifier, as\n ///  specified in ERC-165\n /// @dev Interface identification is specified in\n ///  ERC-165. This function uses less than 30,000 gas.\n /// @return `true` if the contract implements `interfaceID`\n ///  and `interfaceID` is not 0xffffffff, `false` otherwise\n function supportsInterface(bytes4 interfaceID) external view returns (bool);\n}\n*/\n\ncontract CheckERC165 is ERC165 {\n\n  mapping (bytes4 => bool) internal supportedInterfaces;\n\n  constructor() public {\n    supportedInterfaces[this.supportsInterface.selector] = true;\n  }\n\n  function supportsInterface(bytes4 interfaceID) external view returns (bool){\n      return supportedInterfaces[interfaceID];\n  }\n}\n\n/**\n * @title Full ERC721 Token\n * This implementation includes all the required and some optional functionality of the ERC721 standard\n * Moreover, it includes approve all functionality using operator terminology\n * @dev see https://github.com/ethereum/EIPs/blob/master/EIPS/eip-721.md\n */\ncontract CryptozCard is CryptozUniverse, CheckERC165, ERC721, ERC721BasicToken {\n  // Token name\n  string internal name_ = \"Cryptoz Cards\";\n\n  // Token symbol\n  string internal symbol_ = \"Cryptoz\";\n\n  // Mapping from owner to list of owned token IDs\n  mapping(address => uint256[]) internal ownedTokens;\n\n  // Mapping from token ID to index of the owner tokens list\n  mapping(uint256 => uint256) internal ownedTokensIndex;\n\n  // Array with all token ids, used for enumeration\n  uint256[] internal allTokens;\n\n  // Mapping from token id to position in the allTokens array\n  mapping(uint256 => uint256) internal allTokensIndex;\n\n  // Optional mapping for token URIs\n  mapping(uint256 => string) internal tokenURIs;\n  \n  //Track all tokens by rarity\n  uint[7] public tokensByRarity = [0,0,0,0,0,0,0]; //[rarity] = total\n\n  /*CRYPTOZ Overrides*/\n\n  //Event Logs\n  event LogCardCreated(address indexed owner, uint indexed cardTokenId, uint editionNumber, uint indexed cardTypeId, uint CzxpGained);\n  event SacrificeCardEvent(address indexed owner, uint indexed cardTokenId, uint indexed cardTypeId, uint CzxpGained);\n\n  // Track ownership of Card Type purchases from store to enforce 1 type per person once\n  mapping (address => mapping(uint => bool)) public cardTypesOwned; //    [address][CardTypeId] = bool\n\n  /**\n   * @dev Gets the token name\n   * @return string representing the token name\n   */\n  function name() external view returns (string _name) {\n    return name_;\n  }\n\n  /**\n   * @dev Gets the token symbol\n   * @return string representing the token symbol\n   */\n  function symbol() external view returns (string _symbol) {\n    return symbol_;\n  }\n\n  /**\n   * @dev Returns an URI for a given token ID\n   * @dev Throws if the token ID does not exist. May return an empty string.\n   * @param _tokenId uint256 ID of the token to query\n   */\n  function tokenURI(uint256 _tokenId) public view returns (string) {\n    require(exists(_tokenId));\n    return tokenURIs[_tokenId];\n  }\n\n  /**\n   * @dev Gets the token ID at a given index of the tokens list of the requested owner\n   * @param _owner address owning the tokens list to be accessed\n   * @param _index uint256 representing the index to be accessed of the requested tokens list\n   * @return uint256 token ID at the given index of the tokens list owned by the requested address\n   */\n  function tokenOfOwnerByIndex(\n    address _owner,\n    uint256 _index\n  )\n    public\n    view\n    returns (uint256)\n  {\n    require(_index < balanceOf(_owner));\n    return ownedTokens[_owner][_index];\n  }\n\n  /**\n   * @dev Gets the total amount of tokens stored by the contract\n   * @return uint256 representing the total amount of tokens\n   */\n  function totalSupply() public view returns (uint256) {\n    return allTokens.length;\n  }\n\n  /**\n   * @dev Gets the token ID at a given index of all the tokens in this contract\n   * @dev Reverts if the index is greater or equal to the total number of tokens\n   * @param _index uint256 representing the index to be accessed of the tokens list\n   * @return uint256 token ID at the given index of the tokens list\n   */\n  function tokenByIndex(uint256 _index) public view returns (uint256) {\n    require(_index < totalSupply());\n    return allTokens[_index];\n  }\n\n  /**\n   * @dev Internal function to set the token URI for a given token\n   * @dev Reverts if the token ID does not exist\n   * @param _tokenId uint256 ID of the token to set its URI\n   * @param _uri string URI to assign\n   */\n  function _setTokenURI(uint256 _tokenId, string _uri) internal {\n    require(exists(_tokenId));\n    tokenURIs[_tokenId] = _uri;\n  }\n\n  /**\n   * @dev Internal function to add a token ID to the list of a given address\n   * @param _to address representing the new owner of the given token ID\n   * @param _tokenId uint256 ID of the token to be added to the tokens list of the given address\n   */\n  function addTokenTo(address _to, uint256 _tokenId) internal {\n    super.addTokenTo(_to, _tokenId);\n    uint256 length = ownedTokens[_to].length;\n    ownedTokens[_to].push(_tokenId);\n    ownedTokensIndex[_tokenId] = length;\n  }\n\n  /**\n   * @dev Internal function to remove a token ID from the list of a given address\n   * @param _from address representing the previous owner of the given token ID\n   * @param _tokenId uint256 ID of the token to be removed from the tokens list of the given address\n   */\n  function removeTokenFrom(address _from, uint256 _tokenId) internal {\n    super.removeTokenFrom(_from, _tokenId);\n\n    uint256 tokenIndex = ownedTokensIndex[_tokenId];\n    uint256 lastTokenIndex = ownedTokens[_from].length.sub(1);\n    uint256 lastToken = ownedTokens[_from][lastTokenIndex];\n\n    ownedTokens[_from][tokenIndex] = lastToken;\n    ownedTokens[_from][lastTokenIndex] = 0;\n    // Note that this will handle single-element arrays. In that case, both tokenIndex and lastTokenIndex are going to\n    // be zero. Then we can make sure that we will remove _tokenId from the ownedTokens list since we are first swapping\n    // the lastToken to the first position, and then dropping the element placed in the last position of the list\n\n    ownedTokens[_from].length--;\n    ownedTokensIndex[_tokenId] = 0;\n    ownedTokensIndex[lastToken] = tokenIndex;\n  }\n\n  /**\n   * @dev Internal function to mint a new token\n   * @dev Reverts if the given token ID already exists\n   * @param _to address the beneficiary that will own the minted token\n   * @param _tokenId uint256 ID of the token to be minted by the msg.sender\n   */\n  function _mint(address _to, uint256 _tokenId) internal {\n    super._mint(_to, _tokenId);\n\n    allTokensIndex[_tokenId] = allTokens.length;\n    allTokens.push(_tokenId);\n  }\n\n  /**\n   * @dev Internal function to burn a specific token\n   * @dev Reverts if the token does not exist\n   * @param _owner owner of the token to burn\n   * @param _tokenId uint256 ID of the token being burned by the msg.sender\n   */\n  function _burn(address _owner, uint256 _tokenId) internal {\n    \n    super._burn(_owner, _tokenId);\n\n    // Clear metadata (if any)\n    if (bytes(tokenURIs[_tokenId]).length != 0) {\n      delete tokenURIs[_tokenId];\n    }\n\n    // Reorg all tokens array\n    uint256 tokenIndex = allTokensIndex[_tokenId];\n    uint256 lastTokenIndex = allTokens.length.sub(1);\n    uint256 lastToken = allTokens[lastTokenIndex];\n\n    allTokens[tokenIndex] = lastToken;\n    allTokens[lastTokenIndex] = 0;\n\n    allTokens.length--;\n    allTokensIndex[_tokenId] = 0;\n    allTokensIndex[lastToken] = tokenIndex;\n\n    //track rarity totals\n    tokensByRarity[rarity[Cards[_tokenId].cardTypeId]] -= 1;\n\n    // Gain czxp for sacrificing card\n    uint256 sacrificeCzxp = allCardTypes[Cards[_tokenId].cardTypeId].sacrificeCzxp;\n    awardCzxp(msg.sender,sacrificeCzxp);\n    \n    emit SacrificeCardEvent(msg.sender, _tokenId, Cards[_tokenId].cardTypeId, sacrificeCzxp);\n\n    //remove from universe\n    delete Cards[_tokenId];\n  }\n\n  /*CRYPTOZ Overrides */\n\n  function transferFrom(address _from, address _to, uint256 _tokenId) public {\n    require(_from != address(0));\n    require(_to != address(0));\n\n    clearApproval(_from, _tokenId);\n    removeTokenFrom(_from, _tokenId);\n    addTokenTo(_to, _tokenId);\n\n    //Lets track the card transfers\n    Cards[_tokenId].transferCount.add(1);\n\n    emit Transfer(_from, _to, _tokenId);\n  }\n\n    /**\n    *   Create the Card for the owner\n    */\n    function _createCard(uint32 _cardTypeId, address _owner, uint czxpGained) internal returns (uint){\n        //make sure we have a definition for this card\n        require(allCardTypes[_cardTypeId].cardTypeId == _cardTypeId);\n\n        //Increment edition number\n        cardTypeToEdition[_cardTypeId] = cardTypeToEdition[_cardTypeId].add(1);\n\n        //Create the card!\n        Card memory _tempCard = Card({\n            cardTypeId:_cardTypeId,\n            editionNumber:cardTypeToEdition[_cardTypeId],\n            transferCount:0\n        });\n\n        //add to the universe and get the ID\n        uint256 _newCardId = Cards.push(_tempCard) - 1;\n\n        //Give the ERC721 Card\n        _mint(_owner,_newCardId);\n\n        //Set the Metadata for this new token\n        _setTokenURI(_newCardId, appendUintToString(baseTokenURI,_newCardId));\n        \n        //track rarity\n        uint8 _temp_rarity = rarity[_cardTypeId]; \n        tokensByRarity[_temp_rarity] += 1;\n        \n        //Emit card created owner,tokenId,Edition of Token,Card type,czxp gained\n        //emit LogCardCreated(_owner, _newCardId, cardTypeToEdition[_cardTypeId], _cardTypeId, czxpGained);\n        emit LogCardCreated(_owner, _newCardId, cardTypeToEdition[_cardTypeId], _cardTypeId, rarity[_cardTypeId]);\n        \n        return _newCardId;\n    }\n    \n    //String functions\n    function appendUintToString(string inStr, uint256 v) private constant returns (string str) {\n        uint maxlength = 100;\n        bytes memory reversed = new bytes(maxlength);\n        uint i = 0;\n        while (v != 0) {\n            uint remainder = v % 10;\n            v = v / 10;\n            reversed[i++] = byte(48 + remainder);\n        }\n        bytes memory inStrb = bytes(inStr);\n        bytes memory s = new bytes(inStrb.length + i);\n        uint j;\n        for (j = 0; j < inStrb.length; j++) {\n            s[j] = inStrb[j];\n        }\n        for (j = 0; j < i; j++) {\n            s[j + inStrb.length] = reversed[i - 1 - j];\n        }\n        str = string(s);\n    }    \n\n    //Get a list of all the CardIDs( tokenIDs ) this user owns\n    function tokensOfOwner(address _owner) external view returns(uint256[] ownerTokens) {\n        uint256 tokenCount = balanceOf(_owner);\n\n        if (tokenCount == 0) {\n            // Return an empty array\n            return new uint256[](0);\n        } else {\n            uint256[] memory result = new uint256[](tokenCount);\n            uint256 totalCards = totalSupply();\n            uint256 resultIndex = 0;\n\n            // We count on the fact that all cats have IDs starting at 1 and increasing\n            // sequentially up to the totalCard count.\n            uint256 cardId;\n\n            for (cardId = 1; cardId <= totalCards; cardId++) {\n                if (tokenOwner[cardId] == _owner) {\n                    result[resultIndex] = cardId;\n                    resultIndex++;\n                }\n            }\n\n            return result;\n        }\n    }\n    \n    //Get total tokens by rarity. diamond,platinum,epic,rare,uncommon,common\n    function getTokensByRarity() external view returns(uint,uint,uint,uint,uint,uint) {\n        return(tokensByRarity[1],tokensByRarity[2],tokensByRarity[3],tokensByRarity[4],tokensByRarity[5],tokensByRarity[6]);\n    }\n    \n    //Get the info about the card\n    function getCardByTokenId(uint256 _tokenId) external view returns(uint32, uint, uint) {\n        require(exists(_tokenId));    \n        return (Cards[_tokenId].cardTypeId,Cards[_tokenId].editionNumber,Cards[_tokenId].transferCount);\n    }\n}\n",
  "sourcePath": "/home/rprice/Downloads/cryptoz.cards/contracts/CryptozCard.sol",
  "compiler": {
    "name": "solc",
    "version": "0.4.24+commit.e67f0147.Emscripten.clang"
  },
  "schemaVersion": "2.0.1",
  "updatedAt": "2019-02-25T05:06:47.844Z"
}