{
  "contractName": "Cryptoz",
  "abi": [
    {
      "constant": true,
      "inputs": [
        {
          "name": "_interfaceId",
          "type": "bytes4"
        }
      ],
      "name": "supportsInterface",
      "outputs": [
        {
          "name": "",
          "type": "bool"
        }
      ],
      "payable": false,
      "stateMutability": "view",
      "type": "function"
    },
    {
      "constant": true,
      "inputs": [],
      "name": "name",
      "outputs": [
        {
          "name": "_name",
          "type": "string"
        }
      ],
      "payable": false,
      "stateMutability": "view",
      "type": "function"
    },
    {
      "constant": true,
      "inputs": [
        {
          "name": "_tokenId",
          "type": "uint256"
        }
      ],
      "name": "getApproved",
      "outputs": [
        {
          "name": "",
          "type": "address"
        }
      ],
      "payable": false,
      "stateMutability": "view",
      "type": "function"
    },
    {
      "constant": false,
      "inputs": [
        {
          "name": "_to",
          "type": "address"
        },
        {
          "name": "_tokenId",
          "type": "uint256"
        }
      ],
      "name": "approve",
      "outputs": [],
      "payable": false,
      "stateMutability": "nonpayable",
      "type": "function"
    },
    {
      "constant": true,
      "inputs": [],
      "name": "totalSupply",
      "outputs": [
        {
          "name": "",
          "type": "uint256"
        }
      ],
      "payable": false,
      "stateMutability": "view",
      "type": "function"
    },
    {
      "constant": true,
      "inputs": [],
      "name": "InterfaceId_ERC165",
      "outputs": [
        {
          "name": "",
          "type": "bytes4"
        }
      ],
      "payable": false,
      "stateMutability": "view",
      "type": "function"
    },
    {
      "constant": false,
      "inputs": [
        {
          "name": "_from",
          "type": "address"
        },
        {
          "name": "_to",
          "type": "address"
        },
        {
          "name": "_tokenId",
          "type": "uint256"
        }
      ],
      "name": "transferFrom",
      "outputs": [],
      "payable": false,
      "stateMutability": "nonpayable",
      "type": "function"
    },
    {
      "constant": false,
      "inputs": [
        {
          "name": "wager",
          "type": "uint256"
        }
      ],
      "name": "getLambda",
      "outputs": [
        {
          "name": "",
          "type": "uint256"
        }
      ],
      "payable": false,
      "stateMutability": "nonpayable",
      "type": "function"
    },
    {
      "constant": true,
      "inputs": [
        {
          "name": "_owner",
          "type": "address"
        },
        {
          "name": "_index",
          "type": "uint256"
        }
      ],
      "name": "tokenOfOwnerByIndex",
      "outputs": [
        {
          "name": "",
          "type": "uint256"
        }
      ],
      "payable": false,
      "stateMutability": "view",
      "type": "function"
    },
    {
      "constant": false,
      "inputs": [
        {
          "name": "_from",
          "type": "address"
        },
        {
          "name": "_to",
          "type": "address"
        },
        {
          "name": "_tokenId",
          "type": "uint256"
        }
      ],
      "name": "safeTransferFrom",
      "outputs": [],
      "payable": false,
      "stateMutability": "nonpayable",
      "type": "function"
    },
    {
      "constant": true,
      "inputs": [
        {
          "name": "",
          "type": "uint32"
        }
      ],
      "name": "allCardTypes",
      "outputs": [
        {
          "name": "cardTypeId",
          "type": "uint32"
        },
        {
          "name": "name",
          "type": "string"
        },
        {
          "name": "set",
          "type": "string"
        },
        {
          "name": "weiCost",
          "type": "uint256"
        },
        {
          "name": "buyCzxp",
          "type": "uint256"
        },
        {
          "name": "transferCzxp",
          "type": "uint256"
        },
        {
          "name": "sacrificeCzxp",
          "type": "uint256"
        },
        {
          "name": "unlockCzxp",
          "type": "uint256"
        },
        {
          "name": "cardLevel",
          "type": "uint8"
        }
      ],
      "payable": false,
      "stateMutability": "view",
      "type": "function"
    },
    {
      "constant": true,
      "inputs": [
        {
          "name": "",
          "type": "uint256"
        }
      ],
      "name": "tokensByRarity",
      "outputs": [
        {
          "name": "",
          "type": "uint256"
        }
      ],
      "payable": false,
      "stateMutability": "view",
      "type": "function"
    },
    {
      "constant": true,
      "inputs": [
        {
          "name": "_tokenId",
          "type": "uint256"
        }
      ],
      "name": "exists",
      "outputs": [
        {
          "name": "",
          "type": "bool"
        }
      ],
      "payable": false,
      "stateMutability": "view",
      "type": "function"
    },
    {
      "constant": true,
      "inputs": [
        {
          "name": "_index",
          "type": "uint256"
        }
      ],
      "name": "tokenByIndex",
      "outputs": [
        {
          "name": "",
          "type": "uint256"
        }
      ],
      "payable": false,
      "stateMutability": "view",
      "type": "function"
    },
    {
      "constant": false,
      "inputs": [
        {
          "name": "x",
          "type": "uint256"
        }
      ],
      "name": "log2",
      "outputs": [
        {
          "name": "y",
          "type": "uint256"
        }
      ],
      "payable": false,
      "stateMutability": "nonpayable",
      "type": "function"
    },
    {
      "constant": true,
      "inputs": [
        {
          "name": "_tokenId",
          "type": "uint256"
        }
      ],
      "name": "ownerOf",
      "outputs": [
        {
          "name": "",
          "type": "address"
        }
      ],
      "payable": false,
      "stateMutability": "view",
      "type": "function"
    },
    {
      "constant": true,
      "inputs": [
        {
          "name": "_owner",
          "type": "address"
        }
      ],
      "name": "balanceOf",
      "outputs": [
        {
          "name": "",
          "type": "uint256"
        }
      ],
      "payable": false,
      "stateMutability": "view",
      "type": "function"
    },
    {
      "constant": false,
      "inputs": [],
      "name": "renounceOwnership",
      "outputs": [],
      "payable": false,
      "stateMutability": "nonpayable",
      "type": "function"
    },
    {
      "constant": true,
      "inputs": [
        {
          "name": "",
          "type": "address"
        }
      ],
      "name": "boosterPacksOwned",
      "outputs": [
        {
          "name": "",
          "type": "uint256"
        }
      ],
      "payable": false,
      "stateMutability": "view",
      "type": "function"
    },
    {
      "constant": true,
      "inputs": [],
      "name": "getTotalTypes",
      "outputs": [
        {
          "name": "",
          "type": "uint256"
        }
      ],
      "payable": false,
      "stateMutability": "view",
      "type": "function"
    },
    {
      "constant": true,
      "inputs": [
        {
          "name": "",
          "type": "address"
        },
        {
          "name": "",
          "type": "uint256"
        }
      ],
      "name": "cardTypesOwned",
      "outputs": [
        {
          "name": "",
          "type": "bool"
        }
      ],
      "payable": false,
      "stateMutability": "view",
      "type": "function"
    },
    {
      "constant": true,
      "inputs": [
        {
          "name": "_owner",
          "type": "address"
        }
      ],
      "name": "tokensOfOwner",
      "outputs": [
        {
          "name": "ownerTokens",
          "type": "uint256[]"
        }
      ],
      "payable": false,
      "stateMutability": "view",
      "type": "function"
    },
    {
      "constant": false,
      "inputs": [
        {
          "name": "wager",
          "type": "uint256"
        }
      ],
      "name": "getProbs",
      "outputs": [
        {
          "name": "",
          "type": "uint16"
        },
        {
          "name": "",
          "type": "uint16"
        },
        {
          "name": "",
          "type": "uint16"
        },
        {
          "name": "",
          "type": "uint16"
        }
      ],
      "payable": false,
      "stateMutability": "nonpayable",
      "type": "function"
    },
    {
      "constant": true,
      "inputs": [
        {
          "name": "",
          "type": "uint256"
        }
      ],
      "name": "rarity",
      "outputs": [
        {
          "name": "",
          "type": "uint8"
        }
      ],
      "payable": false,
      "stateMutability": "view",
      "type": "function"
    },
    {
      "constant": true,
      "inputs": [],
      "name": "owner",
      "outputs": [
        {
          "name": "",
          "type": "address"
        }
      ],
      "payable": false,
      "stateMutability": "view",
      "type": "function"
    },
    {
      "constant": true,
      "inputs": [
        {
          "name": "",
          "type": "uint256"
        }
      ],
      "name": "cardTypesIds",
      "outputs": [
        {
          "name": "",
          "type": "uint256"
        }
      ],
      "payable": false,
      "stateMutability": "view",
      "type": "function"
    },
    {
      "constant": true,
      "inputs": [],
      "name": "symbol",
      "outputs": [
        {
          "name": "_symbol",
          "type": "string"
        }
      ],
      "payable": false,
      "stateMutability": "view",
      "type": "function"
    },
    {
      "constant": false,
      "inputs": [
        {
          "name": "_to",
          "type": "address"
        },
        {
          "name": "_approved",
          "type": "bool"
        }
      ],
      "name": "setApprovalForAll",
      "outputs": [],
      "payable": false,
      "stateMutability": "nonpayable",
      "type": "function"
    },
    {
      "constant": true,
      "inputs": [
        {
          "name": "_tokenId",
          "type": "uint256"
        }
      ],
      "name": "getOwnedCard",
      "outputs": [
        {
          "name": "",
          "type": "uint32"
        },
        {
          "name": "",
          "type": "uint256"
        },
        {
          "name": "",
          "type": "uint256"
        }
      ],
      "payable": false,
      "stateMutability": "view",
      "type": "function"
    },
    {
      "constant": true,
      "inputs": [],
      "name": "getTokensByRarity",
      "outputs": [
        {
          "name": "",
          "type": "uint256"
        },
        {
          "name": "",
          "type": "uint256"
        },
        {
          "name": "",
          "type": "uint256"
        },
        {
          "name": "",
          "type": "uint256"
        },
        {
          "name": "",
          "type": "uint256"
        },
        {
          "name": "",
          "type": "uint256"
        }
      ],
      "payable": false,
      "stateMutability": "view",
      "type": "function"
    },
    {
      "constant": true,
      "inputs": [
        {
          "name": "",
          "type": "uint256"
        }
      ],
      "name": "cardTypeToEdition",
      "outputs": [
        {
          "name": "",
          "type": "uint256"
        }
      ],
      "payable": false,
      "stateMutability": "view",
      "type": "function"
    },
    {
      "constant": false,
      "inputs": [
        {
          "name": "_from",
          "type": "address"
        },
        {
          "name": "_to",
          "type": "address"
        },
        {
          "name": "_tokenId",
          "type": "uint256"
        },
        {
          "name": "_data",
          "type": "bytes"
        }
      ],
      "name": "safeTransferFrom",
      "outputs": [],
      "payable": false,
      "stateMutability": "nonpayable",
      "type": "function"
    },
    {
      "constant": true,
      "inputs": [
        {
          "name": "_tokenId",
          "type": "uint256"
        }
      ],
      "name": "tokenURI",
      "outputs": [
        {
          "name": "",
          "type": "string"
        }
      ],
      "payable": false,
      "stateMutability": "view",
      "type": "function"
    },
    {
      "constant": true,
      "inputs": [
        {
          "name": "",
          "type": "address"
        }
      ],
      "name": "sponsors",
      "outputs": [
        {
          "name": "",
          "type": "address"
        }
      ],
      "payable": false,
      "stateMutability": "view",
      "type": "function"
    },
    {
      "constant": true,
      "inputs": [
        {
          "name": "_owner",
          "type": "address"
        },
        {
          "name": "_operator",
          "type": "address"
        }
      ],
      "name": "isApprovedForAll",
      "outputs": [
        {
          "name": "",
          "type": "bool"
        }
      ],
      "payable": false,
      "stateMutability": "view",
      "type": "function"
    },
    {
      "constant": false,
      "inputs": [
        {
          "name": "_newOwner",
          "type": "address"
        }
      ],
      "name": "transferOwnership",
      "outputs": [],
      "payable": false,
      "stateMutability": "nonpayable",
      "type": "function"
    },
    {
      "inputs": [
        {
          "name": "_czxpContractAddress",
          "type": "address"
        }
      ],
      "payable": false,
      "stateMutability": "nonpayable",
      "type": "constructor"
    },
    {
      "payable": false,
      "stateMutability": "nonpayable",
      "type": "fallback"
    },
    {
      "anonymous": false,
      "inputs": [
        {
          "indexed": true,
          "name": "cardTypeId",
          "type": "uint32"
        },
        {
          "indexed": false,
          "name": "cardName",
          "type": "string"
        }
      ],
      "name": "LogCardTypeLoaded",
      "type": "event"
    },
    {
      "anonymous": false,
      "inputs": [
        {
          "indexed": true,
          "name": "cardTypeId",
          "type": "uint32"
        },
        {
          "indexed": false,
          "name": "editionNumber",
          "type": "uint256"
        },
        {
          "indexed": true,
          "name": "buyer",
          "type": "address"
        }
      ],
      "name": "LogCardPurchased",
      "type": "event"
    },
    {
      "anonymous": false,
      "inputs": [
        {
          "indexed": true,
          "name": "buyer",
          "type": "address"
        },
        {
          "indexed": false,
          "name": "packsOpened",
          "type": "uint256"
        }
      ],
      "name": "LogPackOpened",
      "type": "event"
    },
    {
      "anonymous": false,
      "inputs": [
        {
          "indexed": false,
          "name": "sponsor",
          "type": "address"
        },
        {
          "indexed": false,
          "name": "affiliate",
          "type": "address"
        }
      ],
      "name": "LogSponsorLinked",
      "type": "event"
    },
    {
      "anonymous": false,
      "inputs": [
        {
          "indexed": false,
          "name": "sponsor",
          "type": "address"
        },
        {
          "indexed": false,
          "name": "affiliate",
          "type": "address"
        },
        {
          "indexed": false,
          "name": "CzxpReward",
          "type": "uint256"
        }
      ],
      "name": "LogSponsorReward",
      "type": "event"
    },
    {
      "anonymous": false,
      "inputs": [
        {
          "indexed": true,
          "name": "owner",
          "type": "address"
        },
        {
          "indexed": true,
          "name": "cardTokenId",
          "type": "uint256"
        },
        {
          "indexed": false,
          "name": "editionNumber",
          "type": "uint256"
        },
        {
          "indexed": true,
          "name": "cardTypeId",
          "type": "uint256"
        },
        {
          "indexed": false,
          "name": "CzxpGained",
          "type": "uint256"
        }
      ],
      "name": "LogCardCreated",
      "type": "event"
    },
    {
      "anonymous": false,
      "inputs": [
        {
          "indexed": true,
          "name": "owner",
          "type": "address"
        },
        {
          "indexed": true,
          "name": "cardTokenId",
          "type": "uint256"
        },
        {
          "indexed": true,
          "name": "cardTypeId",
          "type": "uint256"
        },
        {
          "indexed": false,
          "name": "CzxpGained",
          "type": "uint256"
        }
      ],
      "name": "SacrificeCardEvent",
      "type": "event"
    },
    {
      "anonymous": false,
      "inputs": [
        {
          "indexed": true,
          "name": "_from",
          "type": "address"
        },
        {
          "indexed": true,
          "name": "_to",
          "type": "address"
        },
        {
          "indexed": true,
          "name": "_tokenId",
          "type": "uint256"
        }
      ],
      "name": "Transfer",
      "type": "event"
    },
    {
      "anonymous": false,
      "inputs": [
        {
          "indexed": true,
          "name": "_owner",
          "type": "address"
        },
        {
          "indexed": true,
          "name": "_approved",
          "type": "address"
        },
        {
          "indexed": true,
          "name": "_tokenId",
          "type": "uint256"
        }
      ],
      "name": "Approval",
      "type": "event"
    },
    {
      "anonymous": false,
      "inputs": [
        {
          "indexed": true,
          "name": "_owner",
          "type": "address"
        },
        {
          "indexed": true,
          "name": "_operator",
          "type": "address"
        },
        {
          "indexed": false,
          "name": "_approved",
          "type": "bool"
        }
      ],
      "name": "ApprovalForAll",
      "type": "event"
    },
    {
      "anonymous": false,
      "inputs": [
        {
          "indexed": true,
          "name": "beneficiary",
          "type": "address"
        },
        {
          "indexed": false,
          "name": "czxpAmount",
          "type": "uint256"
        }
      ],
      "name": "CZXPGained",
      "type": "event"
    },
    {
      "anonymous": false,
      "inputs": [
        {
          "indexed": true,
          "name": "previousOwner",
          "type": "address"
        }
      ],
      "name": "OwnershipRenounced",
      "type": "event"
    },
    {
      "anonymous": false,
      "inputs": [
        {
          "indexed": true,
          "name": "previousOwner",
          "type": "address"
        },
        {
          "indexed": true,
          "name": "newOwner",
          "type": "address"
        }
      ],
      "name": "OwnershipTransferred",
      "type": "event"
    },
    {
      "constant": false,
      "inputs": [
        {
          "name": "_cardTypeId",
          "type": "uint8"
        },
        {
          "name": "_name",
          "type": "string"
        },
        {
          "name": "_set",
          "type": "string"
        },
        {
          "name": "_assetType",
          "type": "uint8"
        },
        {
          "name": "_notStoreOrBonus",
          "type": "uint8"
        },
        {
          "name": "_rarity",
          "type": "uint8"
        },
        {
          "name": "_totalAvailable",
          "type": "uint16"
        },
        {
          "name": "_weiCost",
          "type": "uint256"
        },
        {
          "name": "_buyCzxp",
          "type": "uint256"
        }
      ],
      "name": "loadNewCardType",
      "outputs": [
        {
          "name": "",
          "type": "bool"
        }
      ],
      "payable": false,
      "stateMutability": "nonpayable",
      "type": "function"
    },
    {
      "constant": false,
      "inputs": [
        {
          "name": "_cardTypeId",
          "type": "uint32"
        },
        {
          "name": "_transferCzxp",
          "type": "uint256"
        },
        {
          "name": "_sacrificeCzxp",
          "type": "uint256"
        },
        {
          "name": "_unlockCzxp",
          "type": "uint256"
        },
        {
          "name": "_cardLevel",
          "type": "uint8"
        }
      ],
      "name": "addTocardType",
      "outputs": [
        {
          "name": "",
          "type": "bool"
        }
      ],
      "payable": false,
      "stateMutability": "nonpayable",
      "type": "function"
    },
    {
      "constant": false,
      "inputs": [
        {
          "name": "_cardTypeId",
          "type": "uint32"
        }
      ],
      "name": "buyCard",
      "outputs": [
        {
          "name": "",
          "type": "bool"
        }
      ],
      "payable": true,
      "stateMutability": "payable",
      "type": "function"
    },
    {
      "constant": false,
      "inputs": [],
      "name": "getBonusBoosters",
      "outputs": [],
      "payable": false,
      "stateMutability": "nonpayable",
      "type": "function"
    },
    {
      "constant": false,
      "inputs": [
        {
          "name": "_cardTypeId",
          "type": "uint32"
        }
      ],
      "name": "getFreeCard",
      "outputs": [],
      "payable": false,
      "stateMutability": "nonpayable",
      "type": "function"
    },
    {
      "constant": false,
      "inputs": [
        {
          "name": "_tokenId",
          "type": "uint256"
        }
      ],
      "name": "sacrifice",
      "outputs": [],
      "payable": false,
      "stateMutability": "nonpayable",
      "type": "function"
    },
    {
      "constant": false,
      "inputs": [],
      "name": "buyBoosterCard",
      "outputs": [
        {
          "name": "",
          "type": "bool"
        }
      ],
      "payable": true,
      "stateMutability": "payable",
      "type": "function"
    },
    {
      "constant": false,
      "inputs": [],
      "name": "buyBoosterCardAndOpen",
      "outputs": [],
      "payable": true,
      "stateMutability": "payable",
      "type": "function"
    },
    {
      "constant": false,
      "inputs": [
        {
          "name": "czxpWager",
          "type": "uint256"
        }
      ],
      "name": "openBoosterCard",
      "outputs": [
        {
          "name": "",
          "type": "bool"
        }
      ],
      "payable": false,
      "stateMutability": "nonpayable",
      "type": "function"
    },
    {
      "constant": false,
      "inputs": [
        {
          "name": "mySponsor",
          "type": "address"
        }
      ],
      "name": "linkMySponsor",
      "outputs": [],
      "payable": false,
      "stateMutability": "nonpayable",
      "type": "function"
    },
    {
      "constant": true,
      "inputs": [
        {
          "name": "_player",
          "type": "address"
        }
      ],
      "name": "getTimeToDailyBonus",
      "outputs": [
        {
          "name": "timeStamp",
          "type": "uint256"
        }
      ],
      "payable": false,
      "stateMutability": "view",
      "type": "function"
    },
    {
      "constant": false,
      "inputs": [],
      "name": "withdraw",
      "outputs": [],
      "payable": false,
      "stateMutability": "nonpayable",
      "type": "function"
    }
  ],
  "bytecode": "0x60806040526040805190810160405280601b81526020017f68747470733a2f2f63727970746f7a2e63617264732f646174612f0000000000815250600190805190602001906200005192919062000497565b50608060405190810160405280600160ff168152602001600260ff168152602001600360ff168152602001600460ff16815250600b906004620000969291906200051e565b50608060405190810160405280600160ff168152602001600260ff168152602001600660ff168152602001601860ff16815250600f906004620000db9291906200051e565b506040805190810160405280600d81526020017f43727970746f7a20436172647300000000000000000000000000000000000000815250601e90805190602001906200012992919062000497565b506040805190810160405280600781526020017f43727970746f7a00000000000000000000000000000000000000000000000000815250601f90805190602001906200017792919062000497565b5060e060405190810160405280600060ff168152602001600060ff168152602001600060ff168152602001600060ff168152602001600060ff168152602001600060ff168152602001600060ff168152506025906007620001da92919062000568565b50348015620001e857600080fd5b50604051602080620060ef83398101806040528101908080519060200190929190505050336000806101000a81548173ffffffffffffffffffffffffffffffffffffffff021916908373ffffffffffffffffffffffffffffffffffffffff1602179055506001601860006301ffc9a77c0100000000000000000000000000000000000000000000000000000000027bffffffffffffffffffffffffffffffffffffffffffffffffffffffff19167bffffffffffffffffffffffffffffffffffffffffffffffffffffffff1916815260200190815260200160002060006101000a81548160ff021916908315150217905550620003166301ffc9a77c010000000000000000000000000000000000000000000000000000000002620003d8640100000000026401000000009004565b620003536380ac58cd7c010000000000000000000000000000000000000000000000000000000002620003d8640100000000026401000000009004565b62000390634f558e797c010000000000000000000000000000000000000000000000000000000002620003d8640100000000026401000000009004565b80600a60006101000a81548173ffffffffffffffffffffffffffffffffffffffff021916908373ffffffffffffffffffffffffffffffffffffffff16021790555050620005da565b63ffffffff7c010000000000000000000000000000000000000000000000000000000002817bffffffffffffffffffffffffffffffffffffffffffffffffffffffff1916141515156200042a57600080fd5b600160196000837bffffffffffffffffffffffffffffffffffffffffffffffffffffffff19167bffffffffffffffffffffffffffffffffffffffffffffffffffffffff1916815260200190815260200160002060006101000a81548160ff02191690831515021790555050565b828054600181600116156101000203166002900490600052602060002090601f016020900481019282601f10620004da57805160ff19168380011785556200050b565b828001600101855582156200050b579182015b828111156200050a578251825591602001919060010190620004ed565b5b5090506200051a9190620005b2565b5090565b826004810192821562000555579160200282015b8281111562000554578251829060ff1690559160200191906001019062000532565b5b509050620005649190620005b2565b5090565b82600781019282156200059f579160200282015b828111156200059e578251829060ff169055916020019190600101906200057c565b5b509050620005ae9190620005b2565b5090565b620005d791905b80821115620005d3576000816000905550600101620005b9565b5090565b90565b615b0580620005ea6000396000f300608060405260043610610246576000357c0100000000000000000000000000000000000000000000000000000000900463ffffffff16806301ffc9a71461025857806306fdde03146102bc578063081812fc1461034c578063095ea7b3146103b957806316b93be81461040657806318160ddd1461043957806319fa8f501461046457806323b872dd146104cd5780632895b0511461053a5780632f745c591461057b5780633ccfd60b146105dc57806342842e0e146105f357806342ed1d29146106605780634d3e2e5e146107bb5780634f27f626146107fc5780634f558e79146108415780634f6ccce7146108865780635456bf13146108c75780636352211e14610908578063692170c21461097557806370a08231146109eb578063715018a614610a425780637752f48714610a595780637bbbe39014610ab05780637f27645514610ac757806381cbd20314610af25780638462151c14610b575780638adb708614610bef5780638b58c56914610c655780638da5cb5b14610cac5780638e7a591314610d03578063912fdfcb14610dc4578063918923c414610e0757806395d89b4114610e48578063a22cb46514610ed8578063a47ed2e714610f27578063afa6154114610f82578063b4a1676914610fd0578063b88d4fde14611011578063c87b56dd146110c4578063d05757081461116a578063d35590c2146111a8578063e178e0511461122b578063e985e9c514611258578063f2fde38b146112d3578063f520f13e14611316578063f8ae951114611338578063fc7f0fec1461138f575b34801561025257600080fd5b50600080fd5b34801561026457600080fd5b506102a260048036038101908080357bffffffffffffffffffffffffffffffffffffffffffffffffffffffff19169060200190929190505050611399565b604051808215151515815260200191505060405180910390f35b3480156102c857600080fd5b506102d1611401565b6040518080602001828103825283818151815260200191508051906020019080838360005b838110156103115780820151818401526020810190506102f6565b50505050905090810190601f16801561033e5780820380516001836020036101000a031916815260200191505b509250505060405180910390f35b34801561035857600080fd5b50610377600480360381019080803590602001909291905050506114a3565b604051808273ffffffffffffffffffffffffffffffffffffffff1673ffffffffffffffffffffffffffffffffffffffff16815260200191505060405180910390f35b3480156103c557600080fd5b50610404600480360381019080803573ffffffffffffffffffffffffffffffffffffffff169060200190929190803590602001909291905050506114e0565b005b34801561041257600080fd5b50610437600480360381019080803563ffffffff169060200190929190505050611625565b005b34801561044557600080fd5b5061044e611a07565b6040518082815260200191505060405180910390f35b34801561047057600080fd5b50610479611a14565b60405180827bffffffffffffffffffffffffffffffffffffffffffffffffffffffff19167bffffffffffffffffffffffffffffffffffffffffffffffffffffffff1916815260200191505060405180910390f35b3480156104d957600080fd5b50610538600480360381019080803573ffffffffffffffffffffffffffffffffffffffff169060200190929190803573ffffffffffffffffffffffffffffffffffffffff16906020019092919080359060200190929190505050611a3b565b005b34801561054657600080fd5b5061056560048036038101908080359060200190929190505050611b66565b6040518082815260200191505060405180910390f35b34801561058757600080fd5b506105c6600480360381019080803573ffffffffffffffffffffffffffffffffffffffff16906020019092919080359060200190929190505050611b97565b6040518082815260200191505060405180910390f35b3480156105e857600080fd5b506105f1611c0e565b005b3480156105ff57600080fd5b5061065e600480360381019080803573ffffffffffffffffffffffffffffffffffffffff169060200190929190803573ffffffffffffffffffffffffffffffffffffffff16906020019092919080359060200190929190505050611cc9565b005b34801561066c57600080fd5b50610691600480360381019080803563ffffffff169060200190929190505050611cea565b604051808a63ffffffff1663ffffffff16815260200180602001806020018981526020018881526020018781526020018681526020018581526020018460ff1660ff16815260200183810383528b818151815260200191508051906020019080838360005b838110156107115780820151818401526020810190506106f6565b50505050905090810190601f16801561073e5780820380516001836020036101000a031916815260200191505b5083810382528a818151815260200191508051906020019080838360005b8381101561077757808201518184015260208101905061075c565b50505050905090810190601f1680156107a45780820380516001836020036101000a031916815260200191505b509b50505050505050505050505060405180910390f35b3480156107c757600080fd5b506107e660048036038101908080359060200190929190505050611e85565b6040518082815260200191505060405180910390f35b34801561080857600080fd5b5061082760048036038101908080359060200190929190505050611e9f565b604051808215151515815260200191505060405180910390f35b34801561084d57600080fd5b5061086c60048036038101908080359060200190929190505050612005565b604051808215151515815260200191505060405180910390f35b34801561089257600080fd5b506108b160048036038101908080359060200190929190505050612077565b6040518082815260200191505060405180910390f35b3480156108d357600080fd5b506108f2600480360381019080803590602001909291905050506120af565b6040518082815260200191505060405180910390f35b34801561091457600080fd5b50610933600480360381019080803590602001909291905050506122db565b604051808273ffffffffffffffffffffffffffffffffffffffff1673ffffffffffffffffffffffffffffffffffffffff16815260200191505060405180910390f35b34801561098157600080fd5b506109d1600480360381019080803563ffffffff169060200190929190803590602001909291908035906020019092919080359060200190929190803560ff169060200190929190505050612359565b604051808215151515815260200191505060405180910390f35b3480156109f757600080fd5b50610a2c600480360381019080803573ffffffffffffffffffffffffffffffffffffffff169060200190929190505050612693565b6040518082815260200191505060405180910390f35b348015610a4e57600080fd5b50610a57612717565b005b348015610a6557600080fd5b50610a9a600480360381019080803573ffffffffffffffffffffffffffffffffffffffff169060200190929190505050612819565b6040518082815260200191505060405180910390f35b348015610abc57600080fd5b50610ac5612831565b005b348015610ad357600080fd5b50610adc612927565b6040518082815260200191505060405180910390f35b348015610afe57600080fd5b50610b3d600480360381019080803573ffffffffffffffffffffffffffffffffffffffff16906020019092919080359060200190929190505050612934565b604051808215151515815260200191505060405180910390f35b348015610b6357600080fd5b50610b98600480360381019080803573ffffffffffffffffffffffffffffffffffffffff169060200190929190505050612963565b6040518080602001828103825283818151815260200191508051906020019060200280838360005b83811015610bdb578082015181840152602081019050610bc0565b505050509050019250505060405180910390f35b348015610bfb57600080fd5b50610c1a60048036038101908080359060200190929190505050612ab0565b604051808561ffff1661ffff1681526020018461ffff1661ffff1681526020018361ffff1661ffff1681526020018261ffff1661ffff16815260200194505050505060405180910390f35b348015610c7157600080fd5b50610c9060048036038101908080359060200190929190505050612cab565b604051808260ff1660ff16815260200191505060405180910390f35b348015610cb857600080fd5b50610cc1612ccb565b604051808273ffffffffffffffffffffffffffffffffffffffff1673ffffffffffffffffffffffffffffffffffffffff16815260200191505060405180910390f35b348015610d0f57600080fd5b50610daa600480360381019080803560ff169060200190929190803590602001908201803590602001919091929391929390803590602001908201803590602001919091929391929390803560ff169060200190929190803560ff169060200190929190803560ff169060200190929190803561ffff1690602001909291908035906020019092919080359060200190929190505050612cf0565b604051808215151515815260200191505060405180910390f35b348015610dd057600080fd5b50610e05600480360381019080803573ffffffffffffffffffffffffffffffffffffffff169060200190929190505050613006565b005b348015610e1357600080fd5b50610e326004803603810190808035906020019092919050505061310b565b6040518082815260200191505060405180910390f35b348015610e5457600080fd5b50610e5d61312e565b6040518080602001828103825283818151815260200191508051906020019080838360005b83811015610e9d578082015181840152602081019050610e82565b50505050905090810190601f168015610eca5780820380516001836020036101000a031916815260200191505b509250505060405180910390f35b348015610ee457600080fd5b50610f25600480360381019080803573ffffffffffffffffffffffffffffffffffffffff1690602001909291908035151590602001909291905050506131d0565b005b348015610f3357600080fd5b50610f526004803603810190808035906020019092919050505061330c565b604051808463ffffffff1663ffffffff168152602001838152602001828152602001935050505060405180910390f35b348015610f8e57600080fd5b50610f976133a5565b60405180878152602001868152602001858152602001848152602001838152602001828152602001965050505050505060405180910390f35b348015610fdc57600080fd5b50610ffb6004803603810190808035906020019092919050505061342e565b6040518082815260200191505060405180910390f35b34801561101d57600080fd5b506110c2600480360381019080803573ffffffffffffffffffffffffffffffffffffffff169060200190929190803573ffffffffffffffffffffffffffffffffffffffff16906020019092919080359060200190929190803590602001908201803590602001908080601f0160208091040260200160405190810160405280939291908181526020018383808284378201915050505050509192919290505050613446565b005b3480156110d057600080fd5b506110ef6004803603810190808035906020019092919050505061346e565b6040518080602001828103825283818151815260200191508051906020019080838360005b8381101561112f578082015181840152602081019050611114565b50505050905090810190601f16801561115c5780820380516001836020036101000a031916815260200191505b509250505060405180910390f35b61118e600480360381019080803563ffffffff169060200190929190505050613537565b604051808215151515815260200191505060405180910390f35b3480156111b457600080fd5b506111e9600480360381019080803573ffffffffffffffffffffffffffffffffffffffff169060200190929190505050613b30565b604051808273ffffffffffffffffffffffffffffffffffffffff1673ffffffffffffffffffffffffffffffffffffffff16815260200191505060405180910390f35b34801561123757600080fd5b5061125660048036038101908080359060200190929190505050613b63565b005b34801561126457600080fd5b506112b9600480360381019080803573ffffffffffffffffffffffffffffffffffffffff169060200190929190803573ffffffffffffffffffffffffffffffffffffffff169060200190929190505050613b70565b604051808215151515815260200191505060405180910390f35b3480156112df57600080fd5b50611314600480360381019080803573ffffffffffffffffffffffffffffffffffffffff169060200190929190505050613c04565b005b61131e613c6b565b604051808215151515815260200191505060405180910390f35b34801561134457600080fd5b50611379600480360381019080803573ffffffffffffffffffffffffffffffffffffffff169060200190929190505050613d35565b6040518082815260200191505060405180910390f35b611397613dd1565b005b600060196000837bffffffffffffffffffffffffffffffffffffffffffffffffffffffff19167bffffffffffffffffffffffffffffffffffffffffffffffffffffffff1916815260200190815260200160002060009054906101000a900460ff169050919050565b6060601e8054600181600116156101000203166002900480601f0160208091040260200160405190810160405280929190818152602001828054600181600116156101000203166002900480156114995780601f1061146e57610100808354040283529160200191611499565b820191906000526020600020905b81548152906001019060200180831161147c57829003601f168201915b5050505050905090565b6000601b600083815260200190815260200160002060009054906101000a900473ffffffffffffffffffffffffffffffffffffffff169050919050565b60006114eb826122db565b90508073ffffffffffffffffffffffffffffffffffffffff168373ffffffffffffffffffffffffffffffffffffffff161415151561152857600080fd5b8073ffffffffffffffffffffffffffffffffffffffff163373ffffffffffffffffffffffffffffffffffffffff16148061156857506115678133613b70565b5b151561157357600080fd5b82601b600084815260200190815260200160002060006101000a81548173ffffffffffffffffffffffffffffffffffffffff021916908373ffffffffffffffffffffffffffffffffffffffff160217905550818373ffffffffffffffffffffffffffffffffffffffff168273ffffffffffffffffffffffffffffffffffffffff167f8c5be1e5ebec7d5bd14f71427d1e84f3dd0314c0f7b2291e5b200ac8c7c3b92560405160405180910390a4505050565b600080828063ffffffff16600760008363ffffffff1663ffffffff16815260200190815260200160002060000160009054906101000a900463ffffffff1663ffffffff1614151561167557600080fd5b6001600360008363ffffffff16815260200190815260200160002060009054906101000a900460ff1660ff161015156116ad57600080fd5b6000600360008663ffffffff16815260200190815260200160002060009054906101000a900460ff1660ff161415156116e557600080fd5b6001600960008663ffffffff1681526020019081526020016000205401600560008663ffffffff16815260200190815260200160002060009054906101000a900461ffff1661ffff1611151561173a57600080fd5b60001515602c60003373ffffffffffffffffffffffffffffffffffffffff1673ffffffffffffffffffffffffffffffffffffffff16815260200190815260200160002060008663ffffffff16815260200190815260200160002060009054906101000a900460ff1615151415156117b057600080fd5b600a60009054906101000a900473ffffffffffffffffffffffffffffffffffffffff1673ffffffffffffffffffffffffffffffffffffffff166370a08231336040518263ffffffff167c0100000000000000000000000000000000000000000000000000000000028152600401808273ffffffffffffffffffffffffffffffffffffffff1673ffffffffffffffffffffffffffffffffffffffff168152602001915050602060405180830381600087803b15801561186d57600080fd5b505af1158015611881573d6000803e3d6000fd5b505050506040513d602081101561189757600080fd5b81019080805190602001909291905050509250600760008563ffffffff1663ffffffff1681526020019081526020016000206007015483101515156118db57600080fd5b6000600760008663ffffffff1663ffffffff1681526020019081526020016000206003015414151561190c57600080fd5b61193833600760008763ffffffff1663ffffffff16815260200190815260200160002060040154613e9f565b611963600760008663ffffffff1663ffffffff16815260200190815260200160002060040154613f80565b6119908433600760008863ffffffff1663ffffffff16815260200190815260200160002060040154614188565b91506001602c60003373ffffffffffffffffffffffffffffffffffffffff1673ffffffffffffffffffffffffffffffffffffffff16815260200190815260200160002060008663ffffffff16815260200190815260200160002060006101000a81548160ff02191690831515021790555050505050565b6000602280549050905090565b6301ffc9a77c01000000000000000000000000000000000000000000000000000000000281565b600073ffffffffffffffffffffffffffffffffffffffff168373ffffffffffffffffffffffffffffffffffffffff1614151515611a7757600080fd5b600073ffffffffffffffffffffffffffffffffffffffff168273ffffffffffffffffffffffffffffffffffffffff1614151515611ab357600080fd5b611abd8382614494565b611ac78382614597565b611ad182826147af565b611b056001600683815481101515611ae557fe5b90600052602060002090600302016002015461488690919063ffffffff16565b50808273ffffffffffffffffffffffffffffffffffffffff168473ffffffffffffffffffffffffffffffffffffffff167fddf252ad1be2c89b69c2b068fc378daa952ba7f163c4a11628f55a4df523b3ef60405160405180910390a4505050565b600080611b80620445c084811515611b7a57fe5b046120af565b9050600481811515611b8e57fe5b04915050919050565b6000611ba283612693565b82101515611baf57600080fd5b602060008473ffffffffffffffffffffffffffffffffffffffff1673ffffffffffffffffffffffffffffffffffffffff16815260200190815260200160002082815481101515611bfb57fe5b9060005260206000200154905092915050565b6000809054906101000a900473ffffffffffffffffffffffffffffffffffffffff1673ffffffffffffffffffffffffffffffffffffffff163373ffffffffffffffffffffffffffffffffffffffff16141515611c6957600080fd5b3373ffffffffffffffffffffffffffffffffffffffff166108fc3073ffffffffffffffffffffffffffffffffffffffff16319081150290604051600060405180830381858888f19350505050158015611cc6573d6000803e3d6000fd5b50565b611ce58383836020604051908101604052806000815250613446565b505050565b60076020528060005260406000206000915090508060000160009054906101000a900463ffffffff1690806001018054600181600116156101000203166002900480601f016020809104026020016040519081016040528092919081815260200182805460018160011615610100020316600290048015611dac5780601f10611d8157610100808354040283529160200191611dac565b820191906000526020600020905b815481529060010190602001808311611d8f57829003601f168201915b505050505090806002018054600181600116156101000203166002900480601f016020809104026020016040519081016040528092919081815260200182805460018160011615610100020316600290048015611e4a5780601f10611e1f57610100808354040283529160200191611e4a565b820191906000526020600020905b815481529060010190602001808311611e2d57829003601f168201915b5050505050908060030154908060040154908060050154908060060154908060070154908060080160009054906101000a900460ff16905089565b602581600781101515611e9457fe5b016000915090505481565b6000806000602f60003373ffffffffffffffffffffffffffffffffffffffff1673ffffffffffffffffffffffffffffffffffffffff16815260200190815260200160002054111515611ef057600080fd5b60008310151515611f0057600080fd5b611f536001602f60003373ffffffffffffffffffffffffffffffffffffffff1673ffffffffffffffffffffffffffffffffffffffff168152602001908152602001600020546148a290919063ffffffff16565b602f60003373ffffffffffffffffffffffffffffffffffffffff1673ffffffffffffffffffffffffffffffffffffffff16815260200190815260200160002081905550611f9f836148bb565b9050611faa81614969565b3373ffffffffffffffffffffffffffffffffffffffff167f66e021f2e6bf1b4f79e6e5622acffc29c6230663c0432ac8c08a5edcb1f2338282604051808260ff16815260200191505060405180910390a26001915050919050565b600080601a600084815260200190815260200160002060009054906101000a900473ffffffffffffffffffffffffffffffffffffffff169050600073ffffffffffffffffffffffffffffffffffffffff168173ffffffffffffffffffffffffffffffffffffffff161415915050919050565b6000612081611a07565b8210151561208e57600080fd5b60228281548110151561209d57fe5b90600052602060002001549050919050565b60008160018303925060028304831792506004830483179250601083048317925061010083048317925062010000830483179250640100000000830483179250680100000000000000008304831792507001000000000000000000000000000000008304831792506001830192506040517ff8f9cbfae6cc78fbefe7cdc3a1793dfcf4f0e8bbd8cec470b6a28a7a5a3e1efd81527ff5ecf1b3e9debc68e1d9cfabc5997135bfb7a7a3938b7b606b5b4b3f2f1f0ffe60208201527ff6e4ed9ff2d6b458eadcdf97bd91692de2d4da8fd2d0ac50c6ae9a827252361660408201527fc8c0b887b0a8a4489c948c7f847c6125746c645c544c444038302820181008ff60608201527ff7cae577eec2a03cf3bad76fb589591debb2dd67e0aa9834bea6925f6a4a2e0e60808201527fe39ed557db96902cd38ed14fad815115c786af479b7e8324736353433727170760a08201527fc976c13bb96e881cb166a933a55e490d9d56952b8d4e801485467d236242260660c08201527f753a6d1b65325d0c552a4d1345224105391a310b29122104190a11030902010060e082015261010081016040527e818283848586878898a8b8c8d8e8f929395969799a9b9d9e9faaeb6bedeeff7f01000000000000000000000000000000000000000000000000000000000000008082870204818160ff038501510495507f8000000000000000000000000000000000000000000000000000000000000000851161010002860195505050505050919050565b600080601a600084815260200190815260200160002060009054906101000a900473ffffffffffffffffffffffffffffffffffffffff169050600073ffffffffffffffffffffffffffffffffffffffff168173ffffffffffffffffffffffffffffffffffffffff161415151561235057600080fd5b80915050919050565b60008060009054906101000a900473ffffffffffffffffffffffffffffffffffffffff1673ffffffffffffffffffffffffffffffffffffffff163373ffffffffffffffffffffffffffffffffffffffff161415156123b657600080fd5b6000600760008863ffffffff1663ffffffff168152602001908152602001600020600501541415156123e757600080fd5b6000600760008863ffffffff1663ffffffff1681526020019081526020016000206006015414151561241857600080fd5b6000600760008863ffffffff1663ffffffff1681526020019081526020016000206007015414151561244957600080fd5b6000600760008863ffffffff1663ffffffff16815260200190815260200160002060080160009054906101000a900460ff1660ff1614151561248a57600080fd5b8563ffffffff16600760008863ffffffff1663ffffffff16815260200190815260200160002060000160009054906101000a900463ffffffff1663ffffffff161415156124d657600080fd5b84600760008863ffffffff1663ffffffff1681526020019081526020016000206005018190555083600760008863ffffffff1663ffffffff1681526020019081526020016000206006018190555082600760008863ffffffff1663ffffffff1681526020019081526020016000206007018190555081600760008863ffffffff1663ffffffff16815260200190815260200160002060080160006101000a81548160ff021916908360ff1602179055506000600960008863ffffffff168152602001908152602001600020819055508563ffffffff167f566651c26d6867f4a0341c33295b297504f1f8445ef05b6a80d7faa24280cd2e600760008963ffffffff1663ffffffff16815260200190815260200160002060010160405180806020018281038252838181546001816001161561010002031660029004815260200191508054600181600116156101000203166002900480156126785780601f1061264d57610100808354040283529160200191612678565b820191906000526020600020905b81548152906001019060200180831161265b57829003601f168201915b50509250505060405180910390a26001905095945050505050565b60008073ffffffffffffffffffffffffffffffffffffffff168273ffffffffffffffffffffffffffffffffffffffff16141515156126d057600080fd5b601c60008373ffffffffffffffffffffffffffffffffffffffff1673ffffffffffffffffffffffffffffffffffffffff168152602001908152602001600020549050919050565b6000809054906101000a900473ffffffffffffffffffffffffffffffffffffffff1673ffffffffffffffffffffffffffffffffffffffff163373ffffffffffffffffffffffffffffffffffffffff1614151561277257600080fd5b6000809054906101000a900473ffffffffffffffffffffffffffffffffffffffff1673ffffffffffffffffffffffffffffffffffffffff167ff8df31144d9c2f0f6b59d69b8b98abd5459d07f2742c4df920b25aae33c6482060405160405180910390a260008060006101000a81548173ffffffffffffffffffffffffffffffffffffffff021916908373ffffffffffffffffffffffffffffffffffffffff160217905550565b602f6020528060005260406000206000915090505481565b61283a33613d35565b4211151561284757600080fd5b6170804201602e60003373ffffffffffffffffffffffffffffffffffffffff1673ffffffffffffffffffffffffffffffffffffffff168152602001908152602001600020819055506128e26002602f60003373ffffffffffffffffffffffffffffffffffffffff1673ffffffffffffffffffffffffffffffffffffffff1681526020019081526020016000205461488690919063ffffffff16565b602f60003373ffffffffffffffffffffffffffffffffffffffff1673ffffffffffffffffffffffffffffffffffffffff16815260200190815260200160002081905550565b6000600880549050905090565b602c6020528160005260406000206020528060005260406000206000915091509054906101000a900460ff1681565b606060006060600080600061297787612693565b945060008514156129ba5760006040519080825280602002602001820160405280156129b25781602001602082028038833980820191505090505b509550612aa6565b846040519080825280602002602001820160405280156129e95781602001602082028038833980820191505090505b5093506129f4611a07565b925060009150600190505b8281111515612aa2578673ffffffffffffffffffffffffffffffffffffffff16601a600083815260200190815260200160002060009054906101000a900473ffffffffffffffffffffffffffffffffffffffff1673ffffffffffffffffffffffffffffffffffffffff161415612a9557808483815181101515612a7e57fe5b906020019060200201818152505081806001019250505b80806001019150506129ff565b8395505b5050505050919050565b60008060008060008060008092505b6004831015612b35576064600f84600481101515612ad957fe5b0154612ae48a611b66565b600b86600481101515612af357fe5b0154612afe8c611b66565b0a811515612b0857fe5b04811515612b1257fe5b0402601384600481101515612b2357fe5b01819055508280600101935050612abf565b60136003600481101515612b4557fe5b015460136002600481101515612b5757fe5b015460136001600481101515612b6957fe5b015460136000600481101515612b7b57fe5b01540101019150600090505b6004811015612bf15781612710601383600481101515612ba357fe5b015402811515612baf57fe5b04601782600481101515612bbf57fe5b601091828204019190066002026101000a81548161ffff021916908361ffff1602179055508080600101915050612b87565b60176000600481101515612c0157fe5b601091828204019190066002029054906101000a900461ffff1660176001600481101515612c2b57fe5b601091828204019190066002029054906101000a900461ffff1660176002600481101515612c5557fe5b601091828204019190066002029054906101000a900461ffff1660176003600481101515612c7f57fe5b601091828204019190066002029054906101000a900461ffff1696509650965096505050509193509193565b60046020528060005260406000206000915054906101000a900460ff1681565b6000809054906101000a900473ffffffffffffffffffffffffffffffffffffffff1681565b60008060009054906101000a900473ffffffffffffffffffffffffffffffffffffffff1673ffffffffffffffffffffffffffffffffffffffff163373ffffffffffffffffffffffffffffffffffffffff16141515612d4d57600080fd5b61138860088054905011151515612d6357600080fd5b6000600760008e60ff1663ffffffff16815260200190815260200160002060000160009054906101000a900463ffffffff1663ffffffff16141515612da757600080fd5b8b60ff16600760008e60ff1663ffffffff16815260200190815260200160002060000160006101000a81548163ffffffff021916908363ffffffff1602179055508a8a600760008f60ff1663ffffffff1681526020019081526020016000206001019190612e1692919061589f565b508888600760008f60ff1663ffffffff1681526020019081526020016000206002019190612e4592919061589f565b5086600260008e60ff16815260200190815260200160002060006101000a81548160ff021916908360ff16021790555085600360008e60ff16815260200190815260200160002060006101000a81548160ff021916908360ff16021790555084600460008e60ff16815260200190815260200160002060006101000a81548160ff021916908360ff16021790555083600560008e60ff16815260200190815260200160002060006101000a81548161ffff021916908361ffff16021790555082600760008e60ff1663ffffffff1681526020019081526020016000206003018190555081600760008e60ff1663ffffffff1681526020019081526020016000206004018190555060018660ff161415612fc457603060008660ff1660ff1681526020019081526020016000208c90806001815401808255809150509060018203906000526020600020906008918282040191900660040290919260ff16909190916101000a81548163ffffffff021916908363ffffffff160217905550505b60088c9080600181540180825580915050906001820390600052602060002001600090919260ff1690919091505550600190509b9a5050505050505050505050565b6000602d60003373ffffffffffffffffffffffffffffffffffffffff1673ffffffffffffffffffffffffffffffffffffffff16815260200190815260200160002060009054906101000a900473ffffffffffffffffffffffffffffffffffffffff1673ffffffffffffffffffffffffffffffffffffffff1614151561308a57600080fd5b80602d60003373ffffffffffffffffffffffffffffffffffffffff1673ffffffffffffffffffffffffffffffffffffffff16815260200190815260200160002060006101000a81548173ffffffffffffffffffffffffffffffffffffffff021916908373ffffffffffffffffffffffffffffffffffffffff16021790555050565b60088181548110151561311a57fe5b906000526020600020016000915090505481565b6060601f8054600181600116156101000203166002900480601f0160208091040260200160405190810160405280929190818152602001828054600181600116156101000203166002900480156131c65780601f1061319b576101008083540402835291602001916131c6565b820191906000526020600020905b8154815290600101906020018083116131a957829003601f168201915b5050505050905090565b3373ffffffffffffffffffffffffffffffffffffffff168273ffffffffffffffffffffffffffffffffffffffff161415151561320b57600080fd5b80601d60003373ffffffffffffffffffffffffffffffffffffffff1673ffffffffffffffffffffffffffffffffffffffff16815260200190815260200160002060008473ffffffffffffffffffffffffffffffffffffffff1673ffffffffffffffffffffffffffffffffffffffff16815260200190815260200160002060006101000a81548160ff0219169083151502179055508173ffffffffffffffffffffffffffffffffffffffff163373ffffffffffffffffffffffffffffffffffffffff167f17307eab39ab6107e8899845ad3d59bd9653f200f220920489ca2b5937696c3183604051808215151515815260200191505060405180910390a35050565b600080600061331a84612005565b151561332557600080fd5b60068481548110151561333457fe5b906000526020600020906003020160000160009054906101000a900463ffffffff1660068581548110151561336557fe5b90600052602060002090600302016001015460068681548110151561338657fe5b9060005260206000209060030201600201549250925092509193909250565b600080600080600080602560016007811015156133be57fe5b0154602560026007811015156133d057fe5b0154602560036007811015156133e257fe5b0154602560046007811015156133f457fe5b01546025600560078110151561340657fe5b01546025600660078110151561341857fe5b0154955095509550955095509550909192939495565b60096020528060005260406000206000915090505481565b613451848484611a3b565b61345d84848484614a15565b151561346857600080fd5b50505050565b606061347982612005565b151561348457600080fd5b602460008381526020019081526020016000208054600181600116156101000203166002900480601f01602080910402602001604051908101604052809291908181526020018280546001816001161561010002031660029004801561352b5780601f106135005761010080835404028352916020019161352b565b820191906000526020600020905b81548152906001019060200180831161350e57829003601f168201915b50505050509050919050565b600061354161591f565b600080848063ffffffff16600760008363ffffffff1663ffffffff16815260200190815260200160002060000160009054906101000a900463ffffffff1663ffffffff1614151561359157600080fd5b6001600360008363ffffffff16815260200190815260200160002060009054906101000a900460ff1660ff161015156135c957600080fd5b6000341115156135d857600080fd5b8563ffffffff16600760008863ffffffff1663ffffffff16815260200190815260200160002060000160009054906101000a900463ffffffff1663ffffffff1614151561362457600080fd5b600760008763ffffffff1663ffffffff16815260200190815260200160002061012060405190810160405290816000820160009054906101000a900463ffffffff1663ffffffff1663ffffffff168152602001600182018054600181600116156101000203166002900480601f01602080910402602001604051908101604052809291908181526020018280546001816001161561010002031660029004801561370f5780601f106136e45761010080835404028352916020019161370f565b820191906000526020600020905b8154815290600101906020018083116136f257829003601f168201915b50505050508152602001600282018054600181600116156101000203166002900480601f0160208091040260200160405190810160405280929190818152602001828054600181600116156101000203166002900480156137b15780601f10613786576101008083540402835291602001916137b1565b820191906000526020600020905b81548152906001019060200180831161379457829003601f168201915b5050505050815260200160038201548152602001600482015481526020016005820154815260200160068201548152602001600782015481526020016008820160009054906101000a900460ff1660ff1660ff168152505093506000600360008863ffffffff16815260200190815260200160002060009054906101000a900460ff1660ff1614151561384357600080fd5b60001515602c60003373ffffffffffffffffffffffffffffffffffffffff1673ffffffffffffffffffffffffffffffffffffffff16815260200190815260200160002060008863ffffffff16815260200190815260200160002060009054906101000a900460ff1615151415156138b957600080fd5b6001600960008863ffffffff1681526020019081526020016000205401600560008863ffffffff16815260200190815260200160002060009054906101000a900461ffff1661ffff1611151561390e57600080fd5b8360600151341015151561392157600080fd5b600a60009054906101000a900473ffffffffffffffffffffffffffffffffffffffff1673ffffffffffffffffffffffffffffffffffffffff166370a08231336040518263ffffffff167c0100000000000000000000000000000000000000000000000000000000028152600401808273ffffffffffffffffffffffffffffffffffffffff1673ffffffffffffffffffffffffffffffffffffffff168152602001915050602060405180830381600087803b1580156139de57600080fd5b505af11580156139f2573d6000803e3d6000fd5b505050506040513d6020811015613a0857600080fd5b810190808051906020019092919050505092508360e001518310151515613a2e57600080fd5b613a5a33600760008963ffffffff1663ffffffff16815260200190815260200160002060040154613e9f565b613a85600760008863ffffffff1663ffffffff16815260200190815260200160002060040154613f80565b613ab28633600760008a63ffffffff1663ffffffff16815260200190815260200160002060040154614188565b91506001602c60003373ffffffffffffffffffffffffffffffffffffffff1673ffffffffffffffffffffffffffffffffffffffff16815260200190815260200160002060008863ffffffff16815260200190815260200160002060006101000a81548160ff0219169083151502179055506001945050505050919050565b602d6020528060005260406000206000915054906101000a900473ffffffffffffffffffffffffffffffffffffffff1681565b613b6d3382614c37565b50565b6000601d60008473ffffffffffffffffffffffffffffffffffffffff1673ffffffffffffffffffffffffffffffffffffffff16815260200190815260200160002060008373ffffffffffffffffffffffffffffffffffffffff1673ffffffffffffffffffffffffffffffffffffffff16815260200190815260200160002060009054906101000a900460ff16905092915050565b6000809054906101000a900473ffffffffffffffffffffffffffffffffffffffff1673ffffffffffffffffffffffffffffffffffffffff163373ffffffffffffffffffffffffffffffffffffffff16141515613c5f57600080fd5b613c6881614f77565b50565b600066071afd498d00003410151515613c8357600080fd5b613cd66001602f60003373ffffffffffffffffffffffffffffffffffffffff1673ffffffffffffffffffffffffffffffffffffffff1681526020019081526020016000205461488690919063ffffffff16565b602f60003373ffffffffffffffffffffffffffffffffffffffff1673ffffffffffffffffffffffffffffffffffffffff16815260200190815260200160002081905550613d24336078613e9f565b613d2e6078613f80565b6001905090565b600080602e60008473ffffffffffffffffffffffffffffffffffffffff1673ffffffffffffffffffffffffffffffffffffffff168152602001908152602001600020541415613d8957600242039050613dcc565b602e60008373ffffffffffffffffffffffffffffffffffffffff1673ffffffffffffffffffffffffffffffffffffffff1681526020019081526020016000205490505b919050565b66071afd498d00003410151515613de757600080fd5b613e3a6001602f60003373ffffffffffffffffffffffffffffffffffffffff1673ffffffffffffffffffffffffffffffffffffffff1681526020019081526020016000205461488690919063ffffffff16565b602f60003373ffffffffffffffffffffffffffffffffffffffff1673ffffffffffffffffffffffffffffffffffffffff16815260200190815260200160002081905550613e88336078613e9f565b613e926078613f80565b613e9c6000611e9f565b50565b600a60009054906101000a900473ffffffffffffffffffffffffffffffffffffffff1673ffffffffffffffffffffffffffffffffffffffff166360fa676783836040518363ffffffff167c0100000000000000000000000000000000000000000000000000000000028152600401808373ffffffffffffffffffffffffffffffffffffffff1673ffffffffffffffffffffffffffffffffffffffff16815260200182815260200192505050600060405180830381600087803b158015613f6457600080fd5b505af1158015613f78573d6000803e3d6000fd5b505050505050565b600080602d60003373ffffffffffffffffffffffffffffffffffffffff1673ffffffffffffffffffffffffffffffffffffffff16815260200190815260200160002060009054906101000a900473ffffffffffffffffffffffffffffffffffffffff1673ffffffffffffffffffffffffffffffffffffffff161415156141845760148281151561400c57fe5b049050600081141561401d57600190505b614086602d60003373ffffffffffffffffffffffffffffffffffffffff1673ffffffffffffffffffffffffffffffffffffffff16815260200190815260200160002060009054906101000a900473ffffffffffffffffffffffffffffffffffffffff1682613e9f565b7e3da85d6058444eca57e3b88be14c734f4f239affe28b7629966e318de2a90e602d60003373ffffffffffffffffffffffffffffffffffffffff1673ffffffffffffffffffffffffffffffffffffffff16815260200190815260200160002060009054906101000a900473ffffffffffffffffffffffffffffffffffffffff163383604051808473ffffffffffffffffffffffffffffffffffffffff1673ffffffffffffffffffffffffffffffffffffffff1681526020018373ffffffffffffffffffffffffffffffffffffffff1673ffffffffffffffffffffffffffffffffffffffff168152602001828152602001935050505060405180910390a15b5050565b6000614192615975565b6000808663ffffffff16600760008963ffffffff1663ffffffff16815260200190815260200160002060000160009054906101000a900463ffffffff1663ffffffff161415156141e157600080fd5b61420e6001600960008a63ffffffff1681526020019081526020016000205461488690919063ffffffff16565b600960008963ffffffff168152602001908152602001600020819055506060604051908101604052808863ffffffff168152602001600960008a63ffffffff1681526020019081526020016000205481526020016000815250925060016006849080600181540180825580915050906001820390600052602060002090600302016000909192909190915060008201518160000160006101000a81548163ffffffff021916908363ffffffff160217905550602082015181600101556040820151816002015550500391506142e38683615071565b6143908261438b60018054600181600116156101000203166002900480601f0160208091040260200160405190810160405280929190818152602001828054600181600116156101000203166002900480156143805780601f1061435557610100808354040283529160200191614380565b820191906000526020600020905b81548152906001019060200180831161436357829003601f168201915b5050505050856150c8565b615363565b600460008863ffffffff16815260200190815260200160002060009054906101000a900460ff169050600160258260ff166007811015156143cd57fe5b01540160258260ff166007811015156143e257fe5b01819055508663ffffffff16828773ffffffffffffffffffffffffffffffffffffffff167fd56e3675590b3a0ffa7898c8a21c1dc687046d1a54c8d9d28c3e429e51f5670c600960008c63ffffffff16815260200190815260200160002054600460008d63ffffffff16815260200190815260200160002060009054906101000a900460ff16604051808381526020018260ff1681526020019250505060405180910390a48193505050509392505050565b8173ffffffffffffffffffffffffffffffffffffffff166144b4826122db565b73ffffffffffffffffffffffffffffffffffffffff161415156144d657600080fd5b600073ffffffffffffffffffffffffffffffffffffffff16601b600083815260200190815260200160002060009054906101000a900473ffffffffffffffffffffffffffffffffffffffff1673ffffffffffffffffffffffffffffffffffffffff16141515614593576000601b600083815260200190815260200160002060006101000a81548173ffffffffffffffffffffffffffffffffffffffff021916908373ffffffffffffffffffffffffffffffffffffffff1602179055505b5050565b60008060006145a685856153a3565b602160008581526020019081526020016000205492506146126001602060008873ffffffffffffffffffffffffffffffffffffffff1673ffffffffffffffffffffffffffffffffffffffff168152602001908152602001600020805490506148a290919063ffffffff16565b9150602060008673ffffffffffffffffffffffffffffffffffffffff1673ffffffffffffffffffffffffffffffffffffffff1681526020019081526020016000208281548110151561466057fe5b9060005260206000200154905080602060008773ffffffffffffffffffffffffffffffffffffffff1673ffffffffffffffffffffffffffffffffffffffff168152602001908152602001600020848154811015156146ba57fe5b90600052602060002001819055506000602060008773ffffffffffffffffffffffffffffffffffffffff1673ffffffffffffffffffffffffffffffffffffffff1681526020019081526020016000208381548110151561471657fe5b9060005260206000200181905550602060008673ffffffffffffffffffffffffffffffffffffffff1673ffffffffffffffffffffffffffffffffffffffff168152602001908152602001600020805480919060019003614776919061599d565b50600060216000868152602001908152602001600020819055508260216000838152602001908152602001600020819055505050505050565b60006147bb83836154d2565b602060008473ffffffffffffffffffffffffffffffffffffffff1673ffffffffffffffffffffffffffffffffffffffff168152602001908152602001600020805490509050602060008473ffffffffffffffffffffffffffffffffffffffff1673ffffffffffffffffffffffffffffffffffffffff168152602001908152602001600020829080600181540180825580915050906001820390600052602060002001600090919290919091505550806021600084815260200190815260200160002081905550505050565b6000818301905082811015151561489957fe5b80905092915050565b60008282111515156148b057fe5b818303905092915050565b6000806148c66159c9565b60006605dc0000000bb885111515156148de57600080fd5b6149076022805490503373ffffffffffffffffffffffffffffffffffffffff160161271061562c565b92506149128561566f565b9150600290505b60078160ff16101561495c57818160ff1660078110151561493657fe5b602002015161ffff168311151561494f57809350614961565b8080600101915050614919565b600693505b505050919050565b60008060006149b16022805490503373ffffffffffffffffffffffffffffffffffffffff1601603060008760ff1660ff1681526020019081526020016000208054905061562c565b9250603060008560ff1660ff168152602001908152602001600020838154811015156149d957fe5b90600052602060002090600891828204019190066004029054906101000a900463ffffffff169150614a0d82336064614188565b905050505050565b600080614a378573ffffffffffffffffffffffffffffffffffffffff16615772565b1515614a465760019150614c2e565b8473ffffffffffffffffffffffffffffffffffffffff1663150b7a02338887876040518563ffffffff167c0100000000000000000000000000000000000000000000000000000000028152600401808573ffffffffffffffffffffffffffffffffffffffff1673ffffffffffffffffffffffffffffffffffffffff1681526020018473ffffffffffffffffffffffffffffffffffffffff1673ffffffffffffffffffffffffffffffffffffffff16815260200183815260200180602001828103825283818151815260200191508051906020019080838360005b83811015614b3b578082015181840152602081019050614b20565b50505050905090810190601f168015614b685780820380516001836020036101000a031916815260200191505b5095505050505050602060405180830381600087803b158015614b8a57600080fd5b505af1158015614b9e573d6000803e3d6000fd5b505050506040513d6020811015614bb457600080fd5b8101908080519060200190929190505050905063150b7a027c0100000000000000000000000000000000000000000000000000000000027bffffffffffffffffffffffffffffffffffffffffffffffffffffffff1916817bffffffffffffffffffffffffffffffffffffffffffffffffffffffff19161491505b50949350505050565b600080600080614c478686615785565b600060246000878152602001908152602001600020805460018160011615610100020316600290049050141515614c9857602460008681526020019081526020016000206000614c9791906159ec565b5b60236000868152602001908152602001600020549350614cc760016022805490506148a290919063ffffffff16565b9250602283815481101515614cd857fe5b9060005260206000200154915081602285815481101515614cf557fe5b90600052602060002001819055506000602284815481101515614d1457fe5b90600052602060002001819055506022805480919060019003614d37919061599d565b50600060236000878152602001908152602001600020819055508360236000848152602001908152602001600020819055506001602560046000600689815481101515614d8057fe5b906000526020600020906003020160000160009054906101000a900463ffffffff1663ffffffff16815260200190815260200160002060009054906101000a900460ff1660ff16600781101515614dd357fe5b015403602560046000600689815481101515614deb57fe5b906000526020600020906003020160000160009054906101000a900463ffffffff1663ffffffff16815260200190815260200160002060009054906101000a900460ff1660ff16600781101515614e3e57fe5b018190555060076000600687815481101515614e5657fe5b906000526020600020906003020160000160009054906101000a900463ffffffff1663ffffffff1663ffffffff168152602001908152602001600020600601549050614ea23382613e9f565b600685815481101515614eb157fe5b906000526020600020906003020160000160009054906101000a900463ffffffff1663ffffffff16853373ffffffffffffffffffffffffffffffffffffffff167f5aa0c75e571d3ecae876f03a84d247806f1af6caf4f377701179de62b7095f14846040518082815260200191505060405180910390a4600685815481101515614f3757fe5b9060005260206000209060030201600080820160006101000a81549063ffffffff0219169055600182016000905560028201600090555050505050505050565b600073ffffffffffffffffffffffffffffffffffffffff168173ffffffffffffffffffffffffffffffffffffffff1614151515614fb357600080fd5b8073ffffffffffffffffffffffffffffffffffffffff166000809054906101000a900473ffffffffffffffffffffffffffffffffffffffff1673ffffffffffffffffffffffffffffffffffffffff167f8be0079c531659141344cd1fd0a4f28419497f9722a3daafe3b4186f6b6457e060405160405180910390a3806000806101000a81548173ffffffffffffffffffffffffffffffffffffffff021916908373ffffffffffffffffffffffffffffffffffffffff16021790555050565b61507b82826157f9565b602280549050602360008381526020019081526020016000208190555060228190806001815401808255809150509060018203906000526020600020016000909192909190915055505050565b606060006060600080606080600060649650866040519080825280601f01601f19166020018201604052801561510d5781602001602082028038833980820191505090505b509550600094505b6000891415156151ac57600a8981151561512b57fe5b069350600a8981151561513a57fe5b049850836030017f010000000000000000000000000000000000000000000000000000000000000002868680600101975081518110151561517757fe5b9060200101907effffffffffffffffffffffffffffffffffffffffffffffffffffffffffffff1916908160001a905350615115565b899250848351016040519080825280601f01601f1916602001820160405280156151e55781602001602082028038833980820191505090505b509150600090505b825181101561529a57828181518110151561520457fe5b9060200101517f010000000000000000000000000000000000000000000000000000000000000090047f010000000000000000000000000000000000000000000000000000000000000002828281518110151561525d57fe5b9060200101907effffffffffffffffffffffffffffffffffffffffffffffffffffffffffffff1916908160001a90535080806001019150506151ed565b600090505b8481101561535357858160018703038151811015156152ba57fe5b9060200101517f010000000000000000000000000000000000000000000000000000000000000090047f010000000000000000000000000000000000000000000000000000000000000002828451830181518110151561531657fe5b9060200101907effffffffffffffffffffffffffffffffffffffffffffffffffffffffffffff1916908160001a905350808060010191505061529f565b8197505050505050505092915050565b61536c82612005565b151561537757600080fd5b8060246000848152602001908152602001600020908051906020019061539e929190615a34565b505050565b8173ffffffffffffffffffffffffffffffffffffffff166153c3826122db565b73ffffffffffffffffffffffffffffffffffffffff161415156153e557600080fd5b6154386001601c60008573ffffffffffffffffffffffffffffffffffffffff1673ffffffffffffffffffffffffffffffffffffffff168152602001908152602001600020546148a290919063ffffffff16565b601c60008473ffffffffffffffffffffffffffffffffffffffff1673ffffffffffffffffffffffffffffffffffffffff168152602001908152602001600020819055506000601a600083815260200190815260200160002060006101000a81548173ffffffffffffffffffffffffffffffffffffffff021916908373ffffffffffffffffffffffffffffffffffffffff1602179055505050565b600073ffffffffffffffffffffffffffffffffffffffff16601a600083815260200190815260200160002060009054906101000a900473ffffffffffffffffffffffffffffffffffffffff1673ffffffffffffffffffffffffffffffffffffffff1614151561554057600080fd5b81601a600083815260200190815260200160002060006101000a81548173ffffffffffffffffffffffffffffffffffffffff021916908373ffffffffffffffffffffffffffffffffffffffff1602179055506155e56001601c60008573ffffffffffffffffffffffffffffffffffffffff1673ffffffffffffffffffffffffffffffffffffffff1681526020019081526020016000205461488690919063ffffffff16565b601c60008473ffffffffffffffffffffffffffffffffffffffff1673ffffffffffffffffffffffffffffffffffffffff168152602001908152602001600020819055505050565b6000816001430340846040518083600019166000191681526020018281526020019250505060405180910390206001900481151561566657fe5b06905092915050565b6156776159c9565b6000806000806156856159c9565b60008714156156ee5760e060405190810160405280600061ffff168152602001600061ffff168152602001600061ffff168152602001600161ffff168152602001603261ffff168152602001610a8c61ffff16815260200161271061ffff168152509550615768565b6156f787612ab0565b945094509450945060e060405190810160405280600061ffff168152602001600061ffff168152602001600061ffff1681526020018361ffff1661ffff1681526020018461ffff1661ffff1681526020018561ffff1661ffff1681526020018661ffff1661ffff1681525090508095505b5050505050919050565b600080823b905060008111915050919050565b61578f8282614494565b6157998282614597565b80600073ffffffffffffffffffffffffffffffffffffffff168373ffffffffffffffffffffffffffffffffffffffff167fddf252ad1be2c89b69c2b068fc378daa952ba7f163c4a11628f55a4df523b3ef60405160405180910390a45050565b600073ffffffffffffffffffffffffffffffffffffffff168273ffffffffffffffffffffffffffffffffffffffff161415151561583557600080fd5b61583f82826147af565b808273ffffffffffffffffffffffffffffffffffffffff16600073ffffffffffffffffffffffffffffffffffffffff167fddf252ad1be2c89b69c2b068fc378daa952ba7f163c4a11628f55a4df523b3ef60405160405180910390a45050565b828054600181600116156101000203166002900490600052602060002090601f016020900481019282601f106158e057803560ff191683800117855561590e565b8280016001018555821561590e579182015b8281111561590d5782358255916020019190600101906158f2565b5b50905061591b9190615ab4565b5090565b61012060405190810160405280600063ffffffff16815260200160608152602001606081526020016000815260200160008152602001600081526020016000815260200160008152602001600060ff1681525090565b606060405190810160405280600063ffffffff16815260200160008152602001600081525090565b8154818355818111156159c4578183600052602060002091820191016159c39190615ab4565b5b505050565b60e060405190810160405280600790602082028038833980820191505090505090565b50805460018160011615610100020316600290046000825580601f10615a125750615a31565b601f016020900490600052602060002090810190615a309190615ab4565b5b50565b828054600181600116156101000203166002900490600052602060002090601f016020900481019282601f10615a7557805160ff1916838001178555615aa3565b82800160010185558215615aa3579182015b82811115615aa2578251825591602001919060010190615a87565b5b509050615ab09190615ab4565b5090565b615ad691905b80821115615ad2576000816000905550600101615aba565b5090565b905600a165627a7a723058202e037c1ee29bb1041ed20298bf82720be6a5794b25300d2fbc6d265d87aaf8270029",
  "source": "pragma solidity 0.4.24;\n\n/******************************************\n\nOur Matra our Motto for coding The Cryptoz Universe.buy\n\n      Fail EARLY and Fail LOUD !!!!!!!\n\n1.    First - Check all pre-conditions\n2.    Then  - make changes to contract state\n3.    Final - interact with other contracts\n\nPull funds over pushing them\nPlatform limits like max of 1023 loop interations.\n\nall Events start with Log\n\n******************************************/\n\nimport \"./CryptozCard.sol\";\n\ncontract Cryptoz is CryptozCard{\n    \n//Constants\n    uint constant private weiCostOfCard = 2000000000000000; //booster in wei = 0.002 ETH\n    uint constant private czxpGainedBoosterPurchase = 120;\n    uint constant private maxCardTypes = 5000; //allowed types in the Universe\n\n//Event Logs\n    event LogCardTypeLoaded(uint32 indexed cardTypeId, string cardName);\n    event LogCardPurchased(uint32 indexed cardTypeId, uint editionNumber, address indexed buyer);\n    event LogPackOpened(address indexed buyer, uint packsOpened);\n    event LogSponsorLinked(address sponsor, address affiliate);\n    event LogSponsorReward(address sponsor, address affiliate, uint CzxpReward);\n\n//storage\n\n    //Tracking affiliate sponsors\n    mapping(address => address) public sponsors; // 1 sponsor can have many affiliates, but only 1 sponsor, returns sponsor\n    \n    //Track the timestamps for users to get their daily pull\n    mapping(address => uint) private timeToCardsPull; //address to timestamp\n    \n    //Tracking booster pack count ownership. These are NOT tokens, just a counter for fun, not really\n    mapping (address => uint256) public boosterPacksOwned;\n    \n    //where we hold inventory of the  booster packs\n    mapping(uint8 => uint32[]) private allBoosterCardIds; // [rarityId][cardId]\n    \n    //check if cardType exists\n    modifier isValidCard(uint32 _cardTypeId) {\n//TIGHTEN   //Make sure cardType exists and we dont have bad data coming in\n        require(allCardTypes[_cardTypeId].cardTypeId == _cardTypeId);\n        require(storeBoosterBonus[_cardTypeId] < 1); //you cant get cards marked for booster pack or bonus\n        _;\n    }\n    \n    \n    function() public {\n        revert();\n    }\n    \n    //Set our cxzp contract in the constructor\n    constructor(address _czxpContractAddress) public {\n        CzxpContractAddress_ = _czxpContractAddress;\n    }\n\n    function loadNewCardType(\n            uint8 _cardTypeId,\n            string _name,\n            string _set,\n            uint8 _assetType,\n            uint8 _notStoreOrBonus,\n            uint8 _rarity,\n            uint16 _totalAvailable,\n            uint256 _weiCost,\n            uint256 _buyCzxp\n        ) external onlyOwner returns(bool){\n            \n        //what requires should we add ?\n        \n        //a max. of 5000 types in the universe ever\n        require(cardTypesIds.length <= maxCardTypes);\n        \n        //not allowed to update existing cardTypeIds\n        require(allCardTypes[_cardTypeId].cardTypeId == 0);\n        \n        allCardTypes[_cardTypeId].cardTypeId    = _cardTypeId;\n        allCardTypes[_cardTypeId].name          = _name;\n        allCardTypes[_cardTypeId].set           = _set;\n        cardAssetType[_cardTypeId]              = _assetType;\n        storeBoosterBonus[_cardTypeId]          = _notStoreOrBonus;\n        rarity[_cardTypeId]                     = _rarity;\n        totalAvailable[_cardTypeId]             = _totalAvailable;\n        allCardTypes[_cardTypeId].weiCost       = _weiCost;\n        allCardTypes[_cardTypeId].buyCzxp       = _buyCzxp;\n    \n        //If she be booster worthy\n        if(_notStoreOrBonus == 1){ // 0=store,1=booster,2=bonus\n            allBoosterCardIds[_rarity].push(_cardTypeId);\n        }\n        \n        //Track the cardTypeIds count\n        cardTypesIds.push(_cardTypeId);\n        return true;\n    }\n\n    function addTocardType(\n                        uint32  _cardTypeId,\n                        uint256 _transferCzxp,\n                        uint256 _sacrificeCzxp,\n                        uint256 _unlockCzxp,\n                        uint8 _cardLevel\n                      ) external onlyOwner returns(bool){\n                          \n        //not allowed to update existing cardTypeIds\n        require(allCardTypes[_cardTypeId].transferCzxp == 0);\n        require(allCardTypes[_cardTypeId].sacrificeCzxp == 0);\n        require(allCardTypes[_cardTypeId].unlockCzxp == 0);\n        require(allCardTypes[_cardTypeId].cardLevel == 0);\n                          \n        require(allCardTypes[_cardTypeId].cardTypeId == _cardTypeId);\n        \n        \n        allCardTypes[_cardTypeId].transferCzxp  = _transferCzxp;\n        allCardTypes[_cardTypeId].sacrificeCzxp = _sacrificeCzxp;\n        allCardTypes[_cardTypeId].unlockCzxp    = _unlockCzxp;\n        allCardTypes[_cardTypeId].cardLevel     = _cardLevel;\n        \n        //initialize editionNumber\n        cardTypeToEdition[_cardTypeId] = 0;\n        \n        //Card type is defined, now emit a Log of it\n        emit LogCardTypeLoaded(_cardTypeId,allCardTypes[_cardTypeId].name);\n        return true;\n    }\n\n    /**\n     *  Public interface to purchase a card, probablly the most insecure entry point !\n     */\n    function buyCard(uint32 _cardTypeId) external payable isValidCard(_cardTypeId) returns(bool) {\n        \n        // dont even bother if no ETH sent\n        require(msg.value > 0);\n        \n        //check for valid cardType\n        require(allCardTypes[_cardTypeId].cardTypeId == _cardTypeId);\n        \n        cardType memory _tempCard = allCardTypes[_cardTypeId];\n        \n        //check if store only\n        require(storeBoosterBonus[_cardTypeId] == 0);\n        \n        //Can't buy cards you own\n        require(cardTypesOwned[msg.sender][_cardTypeId] == false);\n         \n        //Check if this card amount we sell is more than edition+1 for this card type\n        require((totalAvailable[_cardTypeId] > cardTypeToEdition[_cardTypeId] + 1 ));\n        \n        //check if they have paid enough for it\n        require(msg.value >= _tempCard.weiCost);\n        \n        //check if we have enough czxp to unlock this card\n        uint czxp = CzxpToken(CzxpContractAddress_).balanceOf(msg.sender);\n        require(czxp >= _tempCard.unlockCzxp);\n        \n    //Clear ? to buy the card\n        \n        //Let the universe award our friend\n        super.awardCzxp(msg.sender, allCardTypes[_cardTypeId].buyCzxp);\n        \n        //and award their sponsor\n        rewardAffiliate(allCardTypes[_cardTypeId].buyCzxp);\n    \n        //Mint the real token and pass czxp gained for logging\n        uint _newId = super._createCard(_cardTypeId, msg.sender,allCardTypes[_cardTypeId].buyCzxp);\n        \n        //Track the type of card puchased for this owner, so they cant buy again\n        cardTypesOwned[msg.sender][_cardTypeId] = true;\n        \n        return true;\n    }\n    \n    //every 8 hours, the address can get 2 free booster cards\n    function getBonusBoosters() external {\n        //this only runs if time to get new cards\n        require(now > getTimeToDailyBonus(msg.sender));\n        //update the lastpull value\n        timeToCardsPull[msg.sender] = now + 8 hours;\n        boosterPacksOwned[msg.sender] = boosterPacksOwned[msg.sender].add(2);\n    }\n    \n    /**\n     *  Public interface to get card at no cost\n     */\n    function getFreeCard(uint32 _cardTypeId) external isValidCard(_cardTypeId) {\n        //check if store only\n        require(storeBoosterBonus[_cardTypeId] == 0);\n        \n        // ensure there is enough of a supply left\n        require(totalAvailable[_cardTypeId] > (cardTypeToEdition[_cardTypeId]+1));\n        \n        //Can't get cards From shop that you own\n        require(cardTypesOwned[msg.sender][_cardTypeId] == false);\n        \n        //check if we have enough czxp to unlock this card\n        uint czxp = CzxpToken(CzxpContractAddress_).balanceOf(msg.sender);\n        require(czxp >= allCardTypes[_cardTypeId].unlockCzxp);\n        \n        //Only cards that are Free\n        require(allCardTypes[_cardTypeId].weiCost == 0);\n\n//ALL CLEAR ???????? claim a new card\n    \n        //Let the universe award our friend\n        super.awardCzxp(msg.sender, allCardTypes[_cardTypeId].buyCzxp);\n        \n        rewardAffiliate(allCardTypes[_cardTypeId].buyCzxp);\n    \n        uint _newId = super._createCard(_cardTypeId, msg.sender, allCardTypes[_cardTypeId].buyCzxp);\n        \n        //Track the type of card puchased for this owner, so they cant buy again\n        cardTypesOwned[msg.sender][_cardTypeId] = true;\n    }\n    \n    /**\n     *  Any user can sacrifice any card they own. Please don't burn down the universe :'(\n     */\n     function sacrifice(uint256 _tokenId) external {\n         //Call our internal burn function does all our owner checks\n         _burn(msg.sender, _tokenId);\n     }\n    \n//Booster Pack functions\n    \n    /**\n     *  Public interface to buy booster card(s)\n     */\n    function buyBoosterCard() payable external returns(bool) {\n        \n        // is there enough wei sent 1 pack = 0.002 ETH ?\n        require(msg.value >= weiCostOfCard);\n        \n        //All good increase the number owned\n        boosterPacksOwned[msg.sender] = boosterPacksOwned[msg.sender].add(1);\n\n        //Award czxp for booster\n        super.awardCzxp(msg.sender, uint(czxpGainedBoosterPurchase));\n        \n        rewardAffiliate(uint(czxpGainedBoosterPurchase));\n\n        return true;\n    }\n    \n    /**\n     *  Public interface to buy booster pack(s) and open them - NO burn option\n     */\n    function buyBoosterCardAndOpen() payable external {\n        // is there enough wei sent 1 pack = 0.005 ETH ?\n        require(msg.value >= weiCostOfCard);\n        \n        //All good increase the number owned\n        boosterPacksOwned[msg.sender] = boosterPacksOwned[msg.sender].add(1);\n\n        //Award czxp per pack\n        super.awardCzxp(msg.sender, czxpGainedBoosterPurchase);\n        \n        rewardAffiliate(czxpGainedBoosterPurchase);\n        \n        //Now open the pack\n        openBoosterCard(0);\n    }\n    \n    /**\n     *  Public interface to open already purchased booster pack(s) - User can wager an amount\n     */\n    function openBoosterCard(uint czxpWager) public returns(bool) {\n        //Ensure user owns unopened packs\n        require(boosterPacksOwned[msg.sender] > 0);\n        \n        //czxpWager check czxpWager\n        require(czxpWager >= 0);\n        \n        //decrement number of packs\n        boosterPacksOwned[msg.sender] = boosterPacksOwned[msg.sender].sub(1);\n        \n        //Pull the card\n        uint8 rarity = getRarity(czxpWager);\n        pullCard(rarity);\n        \n        //Send a log event\n        emit LogPackOpened(msg.sender, rarity);\n        return true;\n    }\n    \n    /**\n     * Public interface to allow a player to forever link their 1 sponsor \n     */\n    function linkMySponsor(address mySponsor) external {\n        //First ensure the sponsor isn't Linked\n        require(sponsors[msg.sender] == 0x0);\n        \n        //All clear, set the association\n        sponsors[msg.sender] = mySponsor;\n        \n    }\n\n//Private\n\n    /**\n     * We always pay our affiliates 20% of the czxp\n     **/\n     function rewardAffiliate(uint totalCZXP) private {\n         //first check if the caller has a sponsor\n         if(sponsors[msg.sender] != 0x0){\n             uint reward = totalCZXP / 20;\n             if(reward == 0){\n                 reward = 1;\n             }\n             super.awardCzxp(sponsors[msg.sender], reward);\n             emit LogSponsorReward(sponsors[msg.sender], msg.sender, reward);\n         }\n     } \n\n    /**\n     *\n     */\n     function pullCard(uint8 rarity) private {\n         \n         //Get a random number for the card to pull\n         uint rand = selectRandom((uint(msg.sender)+allTokens.length), allBoosterCardIds[rarity].length);\n         \n         //hit up the cardTypes\n         uint32 pulledId = allBoosterCardIds[rarity][rand];\n         \n        //Give the player this cardTypes\n        uint _newId = super._createCard(pulledId, msg.sender, 100);\n     }\n    \n    /**\n     *  Private function to diceroll the rarity pull Only from booster packs\n     */\n    function getRarity(uint czxpWager) private returns(uint8){\n        \n        //Check if below upper limit\n        require(czxpWager <= 1649267441667000);\n        \n        //FIRST ensure, player can back their wager\n//uint _playerCZXPBalance = CzxpToken(CzxpContractAddress_).balanceOf(msg.sender);\n//require(_playerCZXPBalance >= czxpWager);\n        \n        //grab a random number\n        uint rand = selectRandom((uint(msg.sender)+allTokens.length),10000);\n\n        //get our probabilty distribution\n        uint16[7] memory probs = burnAndBoost(czxpWager);\n        \n        //Get the rarity for this pull from the probs\n        // 3=epic, 4=rare, 5=uncommon, 6=commmon\n        for(uint8 i=2; i < probs.length; i++){\n            if(rand <= probs[i]){\n                return i;\n            }\n        }\n//REMOVE THIS !!!!\n        return 6;\n    }\n    \n    \n    /**\n     * Private Booster distribution function\n     */\n     function burnAndBoost(uint czxpWager) private returns(uint16[7]) {\n        \n        //buyBoosterCardAndOpen will pass a zero, set a default\n        if(czxpWager == 0){\n            return [0,0,0,1,50,2700,10000];\n        }\n         \n        (uint16 c, uint16 u, uint16 r, uint16 e) = super.getProbs(czxpWager);\n        \n        //default distribution is 1,50,2700,10000\n         uint16[7] memory probs = [0,0,0,e,r,u,c];\n         \n        return probs;\n     }\n     \n     /**\n      * Return the timestamp of the next daily bonus for a player\n      **/\n      function getTimeToDailyBonus(address _player) public view returns(uint timeStamp){\n          \n          //check if address exists\n          if(timeToCardsPull[_player] == 0){\n              return now - 2 seconds;\n          }else{\n              return timeToCardsPull[_player]; \n          }\n      }\n\n\n//Thanks! for supporting the Cryptoz universe <3 <3 <3\n    /**\n    * Withdraw balance to wallet\n    **/\n   function withdraw() external onlyOwner {\n      msg.sender.transfer(address(this).balance);\n   }\n}",
  "sourcePath": "/home/rprice/Downloads/cryptoz.cards/contracts/Cryptoz.sol",
  "compiler": {
    "name": "solc",
    "version": "0.4.24+commit.e67f0147.Emscripten.clang"
  },
  "schemaVersion": "2.0.1",
  "updatedAt": "2019-03-28T01:34:03.069Z"
}