{
  "contractName": "CryptozCard",
  "abi": [
    {
      "constant": true,
      "inputs": [
        {
          "name": "interfaceId",
          "type": "bytes4"
        }
      ],
      "name": "supportsInterface",
      "outputs": [
        {
          "name": "",
          "type": "bool"
        }
      ],
      "payable": false,
      "stateMutability": "view",
      "type": "function"
    },
    {
      "constant": true,
      "inputs": [
        {
          "name": "tokenId",
          "type": "uint256"
        }
      ],
      "name": "getApproved",
      "outputs": [
        {
          "name": "",
          "type": "address"
        }
      ],
      "payable": false,
      "stateMutability": "view",
      "type": "function"
    },
    {
      "constant": false,
      "inputs": [
        {
          "name": "to",
          "type": "address"
        },
        {
          "name": "tokenId",
          "type": "uint256"
        }
      ],
      "name": "approve",
      "outputs": [],
      "payable": false,
      "stateMutability": "nonpayable",
      "type": "function"
    },
    {
      "constant": false,
      "inputs": [
        {
          "name": "from",
          "type": "address"
        },
        {
          "name": "to",
          "type": "address"
        },
        {
          "name": "tokenId",
          "type": "uint256"
        }
      ],
      "name": "safeTransferFrom",
      "outputs": [],
      "payable": false,
      "stateMutability": "nonpayable",
      "type": "function"
    },
    {
      "constant": true,
      "inputs": [
        {
          "name": "",
          "type": "uint32"
        }
      ],
      "name": "allCardTypes",
      "outputs": [
        {
          "name": "cardTypeId",
          "type": "uint32"
        },
        {
          "name": "name",
          "type": "string"
        },
        {
          "name": "set",
          "type": "string"
        },
        {
          "name": "weiCost",
          "type": "uint256"
        },
        {
          "name": "buyCzxp",
          "type": "uint256"
        },
        {
          "name": "transferCzxp",
          "type": "uint256"
        },
        {
          "name": "sacrificeCzxp",
          "type": "uint256"
        },
        {
          "name": "unlockCzxp",
          "type": "uint256"
        },
        {
          "name": "cardLevel",
          "type": "uint8"
        }
      ],
      "payable": false,
      "stateMutability": "view",
      "type": "function"
    },
    {
      "constant": true,
      "inputs": [
        {
          "name": "",
          "type": "uint256"
        }
      ],
      "name": "tokensByRarity",
      "outputs": [
        {
          "name": "",
          "type": "uint256"
        }
      ],
      "payable": false,
      "stateMutability": "view",
      "type": "function"
    },
    {
      "constant": true,
      "inputs": [
        {
          "name": "tokenId",
          "type": "uint256"
        }
      ],
      "name": "ownerOf",
      "outputs": [
        {
          "name": "",
          "type": "address"
        }
      ],
      "payable": false,
      "stateMutability": "view",
      "type": "function"
    },
    {
      "constant": true,
      "inputs": [
        {
          "name": "owner",
          "type": "address"
        }
      ],
      "name": "balanceOf",
      "outputs": [
        {
          "name": "",
          "type": "uint256"
        }
      ],
      "payable": false,
      "stateMutability": "view",
      "type": "function"
    },
    {
      "constant": false,
      "inputs": [],
      "name": "renounceOwnership",
      "outputs": [],
      "payable": false,
      "stateMutability": "nonpayable",
      "type": "function"
    },
    {
      "constant": true,
      "inputs": [],
      "name": "getTotalTypes",
      "outputs": [
        {
          "name": "",
          "type": "uint256"
        }
      ],
      "payable": false,
      "stateMutability": "view",
      "type": "function"
    },
    {
      "constant": true,
      "inputs": [
        {
          "name": "",
          "type": "address"
        },
        {
          "name": "",
          "type": "uint256"
        }
      ],
      "name": "cardTypesOwned",
      "outputs": [
        {
          "name": "",
          "type": "bool"
        }
      ],
      "payable": false,
      "stateMutability": "view",
      "type": "function"
    },
    {
      "constant": true,
      "inputs": [
        {
          "name": "",
          "type": "uint256"
        }
      ],
      "name": "rarity",
      "outputs": [
        {
          "name": "",
          "type": "uint8"
        }
      ],
      "payable": false,
      "stateMutability": "view",
      "type": "function"
    },
    {
      "constant": true,
      "inputs": [],
      "name": "owner",
      "outputs": [
        {
          "name": "",
          "type": "address"
        }
      ],
      "payable": false,
      "stateMutability": "view",
      "type": "function"
    },
    {
      "constant": true,
      "inputs": [],
      "name": "isOwner",
      "outputs": [
        {
          "name": "",
          "type": "bool"
        }
      ],
      "payable": false,
      "stateMutability": "view",
      "type": "function"
    },
    {
      "constant": true,
      "inputs": [
        {
          "name": "",
          "type": "uint256"
        }
      ],
      "name": "cardTypesIds",
      "outputs": [
        {
          "name": "",
          "type": "uint256"
        }
      ],
      "payable": false,
      "stateMutability": "view",
      "type": "function"
    },
    {
      "constant": false,
      "inputs": [
        {
          "name": "to",
          "type": "address"
        },
        {
          "name": "approved",
          "type": "bool"
        }
      ],
      "name": "setApprovalForAll",
      "outputs": [],
      "payable": false,
      "stateMutability": "nonpayable",
      "type": "function"
    },
    {
      "constant": true,
      "inputs": [
        {
          "name": "",
          "type": "uint256"
        }
      ],
      "name": "cardTypeToEdition",
      "outputs": [
        {
          "name": "",
          "type": "uint256"
        }
      ],
      "payable": false,
      "stateMutability": "view",
      "type": "function"
    },
    {
      "constant": false,
      "inputs": [
        {
          "name": "from",
          "type": "address"
        },
        {
          "name": "to",
          "type": "address"
        },
        {
          "name": "tokenId",
          "type": "uint256"
        },
        {
          "name": "_data",
          "type": "bytes"
        }
      ],
      "name": "safeTransferFrom",
      "outputs": [],
      "payable": false,
      "stateMutability": "nonpayable",
      "type": "function"
    },
    {
      "constant": true,
      "inputs": [
        {
          "name": "owner",
          "type": "address"
        },
        {
          "name": "operator",
          "type": "address"
        }
      ],
      "name": "isApprovedForAll",
      "outputs": [
        {
          "name": "",
          "type": "bool"
        }
      ],
      "payable": false,
      "stateMutability": "view",
      "type": "function"
    },
    {
      "constant": false,
      "inputs": [
        {
          "name": "newOwner",
          "type": "address"
        }
      ],
      "name": "transferOwnership",
      "outputs": [],
      "payable": false,
      "stateMutability": "nonpayable",
      "type": "function"
    },
    {
      "payable": false,
      "stateMutability": "nonpayable",
      "type": "fallback"
    },
    {
      "anonymous": false,
      "inputs": [
        {
          "indexed": true,
          "name": "owner",
          "type": "address"
        },
        {
          "indexed": true,
          "name": "cardTokenId",
          "type": "uint256"
        },
        {
          "indexed": false,
          "name": "editionNumber",
          "type": "uint256"
        },
        {
          "indexed": true,
          "name": "cardTypeId",
          "type": "uint256"
        },
        {
          "indexed": false,
          "name": "rarity",
          "type": "uint8"
        },
        {
          "indexed": false,
          "name": "CzxpGained",
          "type": "uint256"
        }
      ],
      "name": "LogCardCreated",
      "type": "event"
    },
    {
      "anonymous": false,
      "inputs": [
        {
          "indexed": true,
          "name": "owner",
          "type": "address"
        },
        {
          "indexed": true,
          "name": "cardTokenId",
          "type": "uint256"
        },
        {
          "indexed": true,
          "name": "cardTypeId",
          "type": "uint256"
        },
        {
          "indexed": false,
          "name": "CzxpGained",
          "type": "uint256"
        }
      ],
      "name": "SacrificeCardEvent",
      "type": "event"
    },
    {
      "anonymous": false,
      "inputs": [
        {
          "indexed": true,
          "name": "from",
          "type": "address"
        },
        {
          "indexed": true,
          "name": "to",
          "type": "address"
        },
        {
          "indexed": true,
          "name": "tokenId",
          "type": "uint256"
        }
      ],
      "name": "Transfer",
      "type": "event"
    },
    {
      "anonymous": false,
      "inputs": [
        {
          "indexed": true,
          "name": "owner",
          "type": "address"
        },
        {
          "indexed": true,
          "name": "approved",
          "type": "address"
        },
        {
          "indexed": true,
          "name": "tokenId",
          "type": "uint256"
        }
      ],
      "name": "Approval",
      "type": "event"
    },
    {
      "anonymous": false,
      "inputs": [
        {
          "indexed": true,
          "name": "owner",
          "type": "address"
        },
        {
          "indexed": true,
          "name": "operator",
          "type": "address"
        },
        {
          "indexed": false,
          "name": "approved",
          "type": "bool"
        }
      ],
      "name": "ApprovalForAll",
      "type": "event"
    },
    {
      "anonymous": false,
      "inputs": [
        {
          "indexed": true,
          "name": "beneficiary",
          "type": "address"
        },
        {
          "indexed": false,
          "name": "czxpAmount",
          "type": "uint256"
        }
      ],
      "name": "CZXPGained",
      "type": "event"
    },
    {
      "anonymous": false,
      "inputs": [
        {
          "indexed": true,
          "name": "previousOwner",
          "type": "address"
        },
        {
          "indexed": true,
          "name": "newOwner",
          "type": "address"
        }
      ],
      "name": "OwnershipTransferred",
      "type": "event"
    },
    {
      "constant": true,
      "inputs": [],
      "name": "name",
      "outputs": [
        {
          "name": "_name",
          "type": "string"
        }
      ],
      "payable": false,
      "stateMutability": "view",
      "type": "function"
    },
    {
      "constant": true,
      "inputs": [],
      "name": "symbol",
      "outputs": [
        {
          "name": "_symbol",
          "type": "string"
        }
      ],
      "payable": false,
      "stateMutability": "view",
      "type": "function"
    },
    {
      "constant": true,
      "inputs": [
        {
          "name": "_tokenId",
          "type": "uint256"
        }
      ],
      "name": "tokenURI",
      "outputs": [
        {
          "name": "",
          "type": "string"
        }
      ],
      "payable": false,
      "stateMutability": "view",
      "type": "function"
    },
    {
      "constant": true,
      "inputs": [
        {
          "name": "_owner",
          "type": "address"
        },
        {
          "name": "_index",
          "type": "uint256"
        }
      ],
      "name": "tokenOfOwnerByIndex",
      "outputs": [
        {
          "name": "",
          "type": "uint256"
        }
      ],
      "payable": false,
      "stateMutability": "view",
      "type": "function"
    },
    {
      "constant": true,
      "inputs": [],
      "name": "totalSupply",
      "outputs": [
        {
          "name": "",
          "type": "uint256"
        }
      ],
      "payable": false,
      "stateMutability": "view",
      "type": "function"
    },
    {
      "constant": true,
      "inputs": [
        {
          "name": "_index",
          "type": "uint256"
        }
      ],
      "name": "tokenByIndex",
      "outputs": [
        {
          "name": "",
          "type": "uint256"
        }
      ],
      "payable": false,
      "stateMutability": "view",
      "type": "function"
    },
    {
      "constant": false,
      "inputs": [
        {
          "name": "from",
          "type": "address"
        },
        {
          "name": "to",
          "type": "address"
        },
        {
          "name": "tokenId",
          "type": "uint256"
        }
      ],
      "name": "transferFrom",
      "outputs": [],
      "payable": false,
      "stateMutability": "nonpayable",
      "type": "function"
    },
    {
      "constant": true,
      "inputs": [
        {
          "name": "_owner",
          "type": "address"
        }
      ],
      "name": "tokensOfOwner",
      "outputs": [
        {
          "name": "ownerTokens",
          "type": "uint256[]"
        }
      ],
      "payable": false,
      "stateMutability": "view",
      "type": "function"
    },
    {
      "constant": true,
      "inputs": [],
      "name": "getTokensByRarity",
      "outputs": [
        {
          "name": "",
          "type": "uint256"
        },
        {
          "name": "",
          "type": "uint256"
        },
        {
          "name": "",
          "type": "uint256"
        },
        {
          "name": "",
          "type": "uint256"
        },
        {
          "name": "",
          "type": "uint256"
        },
        {
          "name": "",
          "type": "uint256"
        }
      ],
      "payable": false,
      "stateMutability": "view",
      "type": "function"
    },
    {
      "constant": true,
      "inputs": [
        {
          "name": "_tokenId",
          "type": "uint256"
        }
      ],
      "name": "getOwnedCard",
      "outputs": [
        {
          "name": "",
          "type": "uint32"
        },
        {
          "name": "",
          "type": "uint256"
        },
        {
          "name": "",
          "type": "uint256"
        }
      ],
      "payable": false,
      "stateMutability": "view",
      "type": "function"
    }
  ],
  "bytecode": "0x60c0604052601b60808190527f68747470733a2f2f63727970746f7a2e63617264732f646174612f000000000060a0908152620000409160019190620002f3565b506000600b5560408051808201909152600d8082527f43727970746f7a2043617264730000000000000000000000000000000000000060209092019182526200008c91601591620002f3565b506040805180820190915260078082527f43727970746f7a000000000000000000000000000000000000000000000000006020909201918252620000d391601691620002f3565b506040805160e081018252600080825260208201819052918101829052606081018290526080810182905260a0810182905260c08101919091526200011d90601c90600762000378565b506000620001336001600160e01b036200021f16565b600080546001600160a01b0319166001600160a01b0383169081178255604051929350917f8be0079c531659141344cd1fd0a4f28419497f9722a3daafe3b4186f6b6457e0908290a350620001b17f01ffc9a7000000000000000000000000000000000000000000000000000000006001600160e01b036200022416565b620001e57f80ac58cd000000000000000000000000000000000000000000000000000000006001600160e01b036200022416565b620002197f780e9d63000000000000000000000000000000000000000000000000000000006001600160e01b036200022416565b620003cb565b335b90565b7fffffffff000000000000000000000000000000000000000000000000000000008082161415620002b657604080517f08c379a000000000000000000000000000000000000000000000000000000000815260206004820152601c60248201527f4552433136353a20696e76616c696420696e7465726661636520696400000000604482015290519081900360640190fd5b7fffffffff00000000000000000000000000000000000000000000000000000000166000908152600c60205260409020805460ff19166001179055565b828054600181600116156101000203166002900490600052602060002090601f016020900481019282601f106200033657805160ff191683800117855562000366565b8280016001018555821562000366579182015b828111156200036657825182559160200191906001019062000349565b5062000374929150620003ae565b5090565b826007810192821562000366579160200282015b8281111562000366578251829060ff169055916020019190600101906200038c565b6200022191905b80821115620003745760008155600101620003b5565b6120be80620003db6000396000f3fe608060405234801561001057600080fd5b50600436106101da5760003560e01c806381cbd20311610104578063a22cb465116100a2578063b88d4fde11610071578063b88d4fde14610753578063c87b56dd14610819578063e985e9c514610836578063f2fde38b14610864576101da565b8063a22cb4651461068b578063a47ed2e7146106b9578063afa61541146106fb578063b4a1676914610736576101da565b80638da5cb5b116100de5780638da5cb5b146106565780638f32d59b1461065e578063918923c41461066657806395d89b4114610683576101da565b806381cbd203146105815780638462151c146105ad5780638b58c56914610623576101da565b806342842e0e1161017c5780636352211e1161014b5780636352211e1461052e57806370a082311461054b578063715018a6146105715780637f27645514610579576101da565b806342842e0e1461037a57806342ed1d29146103b05780634d3e2e5e146104f45780634f6ccce714610511576101da565b8063095ea7b3116101b8578063095ea7b3146102d057806318160ddd146102fe57806323b872dd146103185780632f745c591461034e576101da565b806301ffc9a7146101df57806306fdde031461021a578063081812fc14610297575b600080fd5b610206600480360360208110156101f557600080fd5b50356001600160e01b03191661088a565b604080519115158252519081900360200190f35b6102226108ad565b6040805160208082528351818301528351919283929083019185019080838360005b8381101561025c578181015183820152602001610244565b50505050905090810190601f1680156102895780820380516001836020036101000a031916815260200191505b509250505060405180910390f35b6102b4600480360360208110156102ad57600080fd5b5035610944565b604080516001600160a01b039092168252519081900360200190f35b6102fc600480360360408110156102e657600080fd5b506001600160a01b0381351690602001356109a6565b005b610306610ace565b60408051918252519081900360200190f35b6102fc6004803603606081101561032e57600080fd5b506001600160a01b03813581169160208101359091169060400135610ad4565b6103066004803603604081101561036457600080fd5b506001600160a01b038135169060200135610b20565b6102fc6004803603606081101561039057600080fd5b506001600160a01b03813581169160208101359091169060400135610b6d565b6103d3600480360360208110156103c657600080fd5b503563ffffffff16610b88565b604051808a63ffffffff1663ffffffff16815260200180602001806020018981526020018881526020018781526020018681526020018581526020018460ff1660ff16815260200183810383528b818151815260200191508051906020019080838360005b83811015610450578181015183820152602001610438565b50505050905090810190601f16801561047d5780820380516001836020036101000a031916815260200191505b5083810382528a5181528a516020918201918c019080838360005b838110156104b0578181015183820152602001610498565b50505050905090810190601f1680156104dd5780820380516001836020036101000a031916815260200191505b509b50505050505050505050505060405180910390f35b6103066004803603602081101561050a57600080fd5b5035610cf5565b6103066004803603602081101561052757600080fd5b5035610d09565b6102b46004803603602081101561054457600080fd5b5035610d3d565b6103066004803603602081101561056157600080fd5b50356001600160a01b0316610d97565b6102fc610dff565b610306610ea2565b6102066004803603604081101561059757600080fd5b506001600160a01b038135169060200135610ea8565b6105d3600480360360208110156105c357600080fd5b50356001600160a01b0316610ec8565b60408051602080825283518183015283519192839290830191858101910280838360005b8381101561060f5781810151838201526020016105f7565b505050509050019250505060405180910390f35b6106406004803603602081101561063957600080fd5b5035610f29565b6040805160ff9092168252519081900360200190f35b6102b4610f3e565b610206610f4d565b6103066004803603602081101561067c57600080fd5b5035610f71565b610222610f8f565b6102fc600480360360408110156106a157600080fd5b506001600160a01b0381351690602001351515610ff0565b6106d6600480360360208110156106cf57600080fd5b50356110f5565b6040805163ffffffff9094168452602084019290925282820152519081900360600190f35b61070361117f565b604080519687526020870195909552858501939093526060850191909152608084015260a0830152519081900360c00190f35b6103066004803603602081101561074c57600080fd5b503561119d565b6102fc6004803603608081101561076957600080fd5b6001600160a01b038235811692602081013590911691604082013591908101906080810160608201356401000000008111156107a457600080fd5b8201836020820111156107b657600080fd5b803590602001918460018302840111640100000000831117156107d857600080fd5b91908080601f0160208091040260200160405190810160405280939291908181526020018383808284376000920191909152509295506111af945050505050565b6102226004803603602081101561082f57600080fd5b503561120d565b6102066004803603604081101561084c57600080fd5b506001600160a01b03813581169160200135166112ae565b6102fc6004803603602081101561087a57600080fd5b50356001600160a01b03166112dc565b6001600160e01b031981166000908152600c602052604090205460ff165b919050565b60158054604080516020601f60026000196101006001881615020190951694909404938401819004810282018101909252828152606093909290918301828280156109395780601f1061090e57610100808354040283529160200191610939565b820191906000526020600020905b81548152906001019060200180831161091c57829003601f168201915b505050505090505b90565b600061094f82611341565b61098a5760405162461bcd60e51b815260040180806020018281038252602c815260200180611fe3602c913960400191505060405180910390fd5b506000908152600e60205260409020546001600160a01b031690565b60006109b182610d3d565b9050806001600160a01b0316836001600160a01b03161415610a045760405162461bcd60e51b81526004018080602001828103825260218152602001806120386021913960400191505060405180910390fd5b806001600160a01b0316610a1661135e565b6001600160a01b03161480610a375750610a3781610a3261135e565b6112ae565b610a725760405162461bcd60e51b8152600401808060200182810382526038815260200180611f586038913960400191505060405180910390fd5b6000828152600e602052604080822080546001600160a01b0319166001600160a01b0387811691821790925591518593918516917f8c5be1e5ebec7d5bd14f71427d1e84f3dd0314c0f7b2291e5b200ac8c7c3b92591a4505050565b60195490565b610ade3382611362565b610ae757600080fd5b600160068281548110610af657fe5b6000918252602090912060026003909202010180549091019055610b1b838383611406565b505050565b6000610b2b83610d97565b8210610b3657600080fd5b6001600160a01b0383166000908152601760205260409020805483908110610b5a57fe5b9060005260206000200154905092915050565b610b1b838383604051806020016040528060008152506111af565b6007602090815260009182526040918290208054600180830180548651600261010094831615949094026000190190911692909204601f810186900486028301860190965285825263ffffffff909216949293909290830182828015610c2f5780601f10610c0457610100808354040283529160200191610c2f565b820191906000526020600020905b815481529060010190602001808311610c1257829003601f168201915b50505060028085018054604080516020601f6000196101006001871615020190941695909504928301859004850281018501909152818152959695945090925090830182828015610cc15780601f10610c9657610100808354040283529160200191610cc1565b820191906000526020600020905b815481529060010190602001808311610ca457829003601f168201915b5050506003840154600485015460058601546006870154600788015460089098015496979396929550909350919060ff1689565b601c8160078110610d0257fe5b0154905081565b6000610d13610ace565b8210610d1e57600080fd5b60198281548110610d2b57fe5b90600052602060002001549050919050565b6000818152600d60205260408120546001600160a01b031680610d915760405162461bcd60e51b8152600401808060200182810382526029815260200180611fba6029913960400191505060405180910390fd5b92915050565b60006001600160a01b038216610dde5760405162461bcd60e51b815260040180806020018281038252602a815260200180611f90602a913960400191505060405180910390fd5b6001600160a01b0382166000908152600f60205260409020610d9190611411565b610e07610f4d565b610e58576040805162461bcd60e51b815260206004820181905260248201527f4f776e61626c653a2063616c6c6572206973206e6f7420746865206f776e6572604482015290519081900360640190fd5b600080546040516001600160a01b03909116907f8be0079c531659141344cd1fd0a4f28419497f9722a3daafe3b4186f6b6457e0908390a3600080546001600160a01b0319169055565b60085490565b602360209081526000928352604080842090915290825290205460ff1681565b6060610ed382611415565b805480602002602001604051908101604052809291908181526020018280548015610f1d57602002820191906000526020600020905b815481526020019060010190808311610f09575b50505050509050919050565b60046020526000908152604090205460ff1681565b6000546001600160a01b031690565b600080546001600160a01b0316610f6261135e565b6001600160a01b031614905090565b60088181548110610f7e57fe5b600091825260209091200154905081565b60168054604080516020601f60026000196101006001881615020190951694909404938401819004810282018101909252828152606093909290918301828280156109395780601f1061090e57610100808354040283529160200191610939565b610ff861135e565b6001600160a01b0316826001600160a01b0316141561105e576040805162461bcd60e51b815260206004820152601960248201527f4552433732313a20617070726f766520746f2063616c6c657200000000000000604482015290519081900360640190fd5b806010600061106b61135e565b6001600160a01b03908116825260208083019390935260409182016000908120918716808252919093529120805460ff1916921515929092179091556110af61135e565b60408051841515815290516001600160a01b0392909216917f17307eab39ab6107e8899845ad3d59bd9653f200f220920489ca2b5937696c319181900360200190a35050565b600080600061110384611341565b61110c57600080fd5b6006848154811061111957fe5b60009182526020909120600390910201546006805463ffffffff909216918690811061114157fe5b9060005260206000209060030201600101546006868154811061116057fe5b9060005260206000209060030201600201549250925092509193909250565b601d54601e54601f5460205460215460225494959394929391929091565b60096020526000908152604090205481565b6111c06111ba61135e565b83611362565b6111fb5760405162461bcd60e51b81526004018080602001828103825260318152602001806120596031913960400191505060405180910390fd5b6112078484848461142f565b50505050565b60018054604080516020600284861615610100026000190190941693909304601f8101849004840282018401909252818152606093610d91939192909183018282801561129b5780601f106112705761010080835404028352916020019161129b565b820191906000526020600020905b81548152906001019060200180831161127e57829003601f168201915b50505050506112a984611481565b611542565b6001600160a01b03918216600090815260106020908152604080832093909416825291909152205460ff1690565b6112e4610f4d565b611335576040805162461bcd60e51b815260206004820181905260248201527f4f776e61626c653a2063616c6c6572206973206e6f7420746865206f776e6572604482015290519081900360640190fd5b61133e81611585565b50565b6000908152600d60205260409020546001600160a01b0316151590565b3390565b600061136d82611341565b6113a85760405162461bcd60e51b815260040180806020018281038252602c815260200180611f2c602c913960400191505060405180910390fd5b60006113b383610d3d565b9050806001600160a01b0316846001600160a01b031614806113ee5750836001600160a01b03166113e384610944565b6001600160a01b0316145b806113fe57506113fe81856112ae565b949350505050565b610b1b838383611625565b5490565b6001600160a01b0316600090815260116020526040902090565b61143a848484611406565b61144684848484611644565b6112075760405162461bcd60e51b8152600401808060200182810382526032815260200180611eb06032913960400191505060405180910390fd5b6060816114a657506040805180820190915260018152600360fc1b60208201526108a8565b8160005b81156114be57600101600a820491506114aa565b6060816040519080825280601f01601f1916602001820160405280156114eb576020820181803883390190505b50905060001982015b851561153957600a860660300160f81b8282806001900393508151811061151757fe5b60200101906001600160f81b031916908160001a905350600a860495506114f4565b50949350505050565b606061157e838360405180602001604052806000815250604051806020016040528060008152506040518060200160405280600081525061187f565b9392505050565b6001600160a01b0381166115ca5760405162461bcd60e51b8152600401808060200182810382526026815260200180611ee26026913960400191505060405180910390fd5b600080546040516001600160a01b03808516939216917f8be0079c531659141344cd1fd0a4f28419497f9722a3daafe3b4186f6b6457e091a3600080546001600160a01b0319166001600160a01b0392909216919091179055565b611630838383611a93565b61163a8382611bd7565b610b1b8282611ccc565b6000611658846001600160a01b0316611d0a565b611664575060016113fe565b600060606001600160a01b038616630a85bd0160e11b61168261135e565b89888860405160240180856001600160a01b03166001600160a01b03168152602001846001600160a01b03166001600160a01b0316815260200183815260200180602001828103825283818151815260200191508051906020019080838360005b838110156116fb5781810151838201526020016116e3565b50505050905090810190601f1680156117285780820380516001836020036101000a031916815260200191505b5060408051601f198184030181529181526020820180516001600160e01b03166001600160e01b0319909a16999099178952518151919890975087965094509250829150849050835b602083106117905780518252601f199092019160209182019101611771565b6001836020036101000a0380198251168184511680821785525050505050509050019150506000604051808303816000865af19150503d80600081146117f2576040519150601f19603f3d011682016040523d82523d6000602084013e6117f7565b606091505b509150915081611848578051156118115780518082602001fd5b60405162461bcd60e51b8152600401808060200182810382526032815260200180611eb06032913960400191505060405180910390fd5b600081806020019051602081101561185f57600080fd5b50516001600160e01b031916630a85bd0160e11b1493506113fe92505050565b6060808690506060869050606086905060608690506060869050606081518351855187518951010101016040519080825280601f01601f1916602001820160405280156118d3576020820181803883390190505b509050806000805b885181101561192c578881815181106118f057fe5b602001015160f81c60f81b83838060010194508151811061190d57fe5b60200101906001600160f81b031916908160001a9053506001016118db565b5060005b87518110156119815787818151811061194557fe5b602001015160f81c60f81b83838060010194508151811061196257fe5b60200101906001600160f81b031916908160001a905350600101611930565b5060005b86518110156119d65786818151811061199a57fe5b602001015160f81c60f81b8383806001019450815181106119b757fe5b60200101906001600160f81b031916908160001a905350600101611985565b5060005b8551811015611a2b578581815181106119ef57fe5b602001015160f81c60f81b838380600101945081518110611a0c57fe5b60200101906001600160f81b031916908160001a9053506001016119da565b5060005b8451811015611a8057848181518110611a4457fe5b602001015160f81c60f81b838380600101945081518110611a6157fe5b60200101906001600160f81b031916908160001a905350600101611a2f565b50909d9c50505050505050505050505050565b826001600160a01b0316611aa682610d3d565b6001600160a01b031614611aeb5760405162461bcd60e51b815260040180806020018281038252602981526020018061200f6029913960400191505060405180910390fd5b6001600160a01b038216611b305760405162461bcd60e51b8152600401808060200182810382526024815260200180611f086024913960400191505060405180910390fd5b611b3981611d43565b6001600160a01b0383166000908152600f60205260409020611b5a90611d7e565b6001600160a01b0382166000908152600f60205260409020611b7b90611d95565b6000818152600d602052604080822080546001600160a01b0319166001600160a01b0386811691821790925591518493918716917fddf252ad1be2c89b69c2b068fc378daa952ba7f163c4a11628f55a4df523b3ef91a4505050565b6001600160a01b038216600090815260116020526040812054611c0190600163ffffffff611d9e16565b600083815260126020526040902054909150808214611c9c576001600160a01b0384166000908152601160205260408120805484908110611c3e57fe5b906000526020600020015490508060116000876001600160a01b03166001600160a01b031681526020019081526020016000208381548110611c7c57fe5b600091825260208083209091019290925591825260129052604090208190555b6001600160a01b0384166000908152601160205260409020805490611cc5906000198301611e72565b5050505050565b6001600160a01b0390911660009081526011602081815260408084208054868652601284529185208290559282526001810183559183529091200155565b6000813f7fc5d2460186f7233c927e7db2dcc703c0e500b653ca82273b7bfad8045d85a4708181148015906113fe575050151592915050565b6000818152600e60205260409020546001600160a01b03161561133e576000908152600e6020526040902080546001600160a01b0319169055565b8054611d9190600163ffffffff611d9e16565b9055565b80546001019055565b600061157e83836040518060400160405280601e81526020017f536166654d6174683a207375627472616374696f6e206f766572666c6f77000081525060008184841115611e6a5760405162461bcd60e51b81526004018080602001828103825283818151815260200191508051906020019080838360005b83811015611e2f578181015183820152602001611e17565b50505050905090810190601f168015611e5c5780820380516001836020036101000a031916815260200191505b509250505060405180910390fd5b505050900390565b815481835581811115610b1b57600083815260209020610b1b91810190830161094191905b80821115611eab5760008155600101611e97565b509056fe4552433732313a207472616e7366657220746f206e6f6e20455243373231526563656976657220696d706c656d656e7465724f776e61626c653a206e6577206f776e657220697320746865207a65726f20616464726573734552433732313a207472616e7366657220746f20746865207a65726f20616464726573734552433732313a206f70657261746f7220717565727920666f72206e6f6e6578697374656e7420746f6b656e4552433732313a20617070726f76652063616c6c6572206973206e6f74206f776e6572206e6f7220617070726f76656420666f7220616c6c4552433732313a2062616c616e636520717565727920666f7220746865207a65726f20616464726573734552433732313a206f776e657220717565727920666f72206e6f6e6578697374656e7420746f6b656e4552433732313a20617070726f76656420717565727920666f72206e6f6e6578697374656e7420746f6b656e4552433732313a207472616e73666572206f6620746f6b656e2074686174206973206e6f74206f776e4552433732313a20617070726f76616c20746f2063757272656e74206f776e65724552433732313a207472616e736665722063616c6c6572206973206e6f74206f776e6572206e6f7220617070726f766564a265627a7a7230582034a8c8d14912685540dec306b1bb4d5ef6e21fbae14e83924eef61870047420064736f6c63430005090032",
  "source": "pragma solidity ^0.5.0;\n\nimport \"./CryptozUniverse.sol\";\nimport \"../node_modules/@openzeppelin/contracts/token/ERC721/ERC721Enumerable.sol\";\nimport \"./Strings.sol\";\n\n/*\ninterface ERC165 {\n /// @notice Query if a contract implements an interface\n /// @param interfaceID The interface identifier, as\n ///  specified in ERC-165\n /// @dev Interface identification is specified in\n ///  ERC-165. This function uses less than 30,000 gas.\n /// @return `true` if the contract implements `interfaceID`\n ///  and `interfaceID` is not 0xffffffff, `false` otherwise\n function supportsInterface(bytes4 interfaceID) external view returns (bool);\n}\n*/\n\n/**\n * @title Full ERC721 Token\n * This implementation includes all the required and some optional functionality of the ERC721 standard\n * Moreover, it includes approve all functionality using operator terminology\n * @dev see https://github.com/ethereum/EIPs/blob/master/EIPS/eip-721.md\n */\ncontract CryptozCard is CryptozUniverse, ERC721Enumerable {\n    \n  // Token name\n  string internal name_ = \"Cryptoz Cards\";\n\n  // Token symbol\n  string internal symbol_ = \"Cryptoz\";\n\n  // Mapping from owner to list of owned token IDs\n  mapping(address => uint256[]) internal ownedTokens;\n\n  // Mapping from token ID to index of the owner tokens list\n  mapping(uint256 => uint256) internal ownedTokensIndex;\n\n  // Array with all token ids, used for enumeration\n  uint256[] internal allTokens;\n\n  // Mapping from token id to position in the allTokens array\n  mapping(uint256 => uint256) internal allTokensIndex;\n\n  // Optional mapping for token URIs\n  mapping(uint256 => string) internal tokenURIs;\n  \n  //Track all tokens by rarity\n  uint[7] public tokensByRarity = [0,0,0,0,0,0,0]; //[rarity] = total\n\n  /*CRYPTOZ Overrides*/\n\n  //Event Logs\n  event LogCardCreated(address indexed owner, uint indexed cardTokenId, uint editionNumber, uint indexed cardTypeId, uint8 rarity, uint CzxpGained);\n  event SacrificeCardEvent(address indexed owner, uint indexed cardTokenId, uint indexed cardTypeId, uint CzxpGained);\n\n  // Track ownership of Card Type purchases from store to enforce 1 type per person once\n  mapping (address => mapping(uint => bool)) public cardTypesOwned; //    [address][CardTypeId] = bool\n\n  /**\n   * @dev Gets the token name\n   * @return string representing the token name\n   */\n  function name() external view returns (string memory _name) {\n    return name_;\n  }\n\n  /**\n   * @dev Gets the token symbol\n   * @return string representing the token symbol\n   */\n  function symbol() external view returns (string memory _symbol) {\n    return symbol_;\n  }\n\n  /**\n   * @dev Returns an URI for a given token ID\n   * @dev Throws if the token ID does not exist. May return an empty string.\n   * @param _tokenId uint256 ID of the token to query\n   */\n  function tokenURI(uint256 _tokenId) external view returns (string memory) {\n    return Strings.strConcat(\n        baseTokenURI,\n        Strings.uint2str(_tokenId)\n    );\n  }\n\n  /**\n   * @dev Gets the token ID at a given index of the tokens list of the requested owner\n   * @param _owner address owning the tokens list to be accessed\n   * @param _index uint256 representing the index to be accessed of the requested tokens list\n   * @return uint256 token ID at the given index of the tokens list owned by the requested address\n   */\n  function tokenOfOwnerByIndex(\n    address _owner,\n    uint256 _index\n  )\n    public\n    view\n    returns (uint256)\n  {\n    require(_index < balanceOf(_owner));\n    return ownedTokens[_owner][_index];\n  }\n\n  /**\n   * @dev Gets the total amount of tokens stored by the contract\n   * @return uint256 representing the total amount of tokens\n   */\n  function totalSupply() public view returns (uint256) {\n    return allTokens.length;\n  }\n\n  /**\n   * @dev Gets the token ID at a given index of all the tokens in this contract\n   * @dev Reverts if the index is greater or equal to the total number of tokens\n   * @param _index uint256 representing the index to be accessed of the tokens list\n   * @return uint256 token ID at the given index of the tokens list\n   */\n  function tokenByIndex(uint256 _index) public view returns (uint256) {\n    require(_index < totalSupply());\n    return allTokens[_index];\n  }\n\n  /**\n   * @dev Internal function to set the token URI for a given token\n   * @dev Reverts if the token ID does not exist\n   * @param _tokenId uint256 ID of the token to set its URI\n   * @param _uri string URI to assign\n   */\n  function _setTokenURI(uint256 _tokenId, string memory _uri) internal {\n    require(_exists(_tokenId));\n    tokenURIs[_tokenId] = _uri;\n  }\n\n  /**\n   * @dev Internal function to mint a new token\n   * @dev Reverts if the given token ID already exists\n   * @param _to address the beneficiary that will own the minted token\n   * @param _tokenId uint256 ID of the token to be minted by the msg.sender\n   */\n  function _mint(address _to, uint256 _tokenId) internal {\n    super._mint(_to, _tokenId);\n\n    allTokensIndex[_tokenId] = allTokens.length;\n    allTokens.push(_tokenId);\n  }\n\n  /**\n   * @dev Internal function to burn a specific token\n   * @dev Reverts if the token does not exist\n   * @param _owner owner of the token to burn\n   * @param _tokenId uint256 ID of the token being burned by the msg.sender\n   */\n  function _burn(address _owner, uint256 _tokenId) internal {\n    \n    super._burn(_owner, _tokenId);\n\n    // Clear metadata (if any)\n    if (bytes(tokenURIs[_tokenId]).length != 0) {\n      delete tokenURIs[_tokenId];\n    }\n\n    // Reorg all tokens array\n    uint256 tokenIndex = allTokensIndex[_tokenId];\n    uint256 lastTokenIndex = allTokens.length.sub(1);\n    uint256 lastToken = allTokens[lastTokenIndex];\n\n    allTokens[tokenIndex] = lastToken;\n    allTokens[lastTokenIndex] = 0;\n\n    allTokens.length--;\n    allTokensIndex[_tokenId] = 0;\n    allTokensIndex[lastToken] = tokenIndex;\n\n    //track rarity totals\n    tokensByRarity[rarity[Cards[_tokenId].cardTypeId]] = tokensByRarity[rarity[Cards[_tokenId].cardTypeId]] - 1;\n\n    // Gain czxp for sacrificing card\n    uint256 sacrificeCzxp = allCardTypes[Cards[_tokenId].cardTypeId].sacrificeCzxp;\n    awardCzxp(msg.sender,sacrificeCzxp);\n    \n     //remove from universe\n    delete Cards[_tokenId];\n    \n    emit SacrificeCardEvent(msg.sender, _tokenId, Cards[_tokenId].cardTypeId, sacrificeCzxp);\n  }\n\n    /*CRYPTOZ Overrides */\n\n    function _transferFrom(address from, address to, uint256 tokenId) internal {\n        super._transferFrom(from, to, tokenId);\n    }\n    \n    \n\n    /**\n     *  Public method to allow file transfer, we call our internal function\n     */\n    function transferFrom(address from, address to, uint256 tokenId) public {\n        require(_isApprovedOrOwner(msg.sender, tokenId));\n        \n        //Lets track the card transfers\n        Cards[tokenId].transferCount += 1;\n        \n        _transferFrom(from, to, tokenId);\n    }\n\n    /**\n    *   Create the Card for the owner\n    */\n    function _createCard(uint32 _cardTypeId, address _owner, uint czxpGained) internal returns (uint){\n        //make sure we have a definition for this card\n        require(allCardTypes[_cardTypeId].cardTypeId == _cardTypeId);\n\n        //Increment edition number\n        cardTypeToEdition[_cardTypeId] = cardTypeToEdition[_cardTypeId].add(1);\n\n        //Create the card!\n        Card memory _tempCard = Card({\n            cardTypeId:_cardTypeId,\n            editionNumber:cardTypeToEdition[_cardTypeId],\n            transferCount:0\n        });\n\n        //add to the universe and get the ID, -1 for array offset\n        uint256 _newCardId = Cards.push(_tempCard) - 1;\n\n        //Give the ERC721 Card\n        _mint(_owner,_newCardId);\n\n        //Set the Metadata for this new token\n        _setTokenURI(_newCardId, baseTokenURI);\n        \n        //track rarity\n        uint8 _temp_rarity = rarity[_cardTypeId];\n        tokensByRarity[_temp_rarity] = tokensByRarity[_temp_rarity] + 1;\n        \n        //Emit card created owner,tokenId,Edition of Token,Card type,czxp gained\n        emit LogCardCreated(_owner, _newCardId, cardTypeToEdition[_cardTypeId], _cardTypeId, rarity[_cardTypeId], czxpGained);\n        \n        return _newCardId;\n    }\n    \n\n    //Get a list of all the CardIDs( tokenIDs ) this user owns\n    function tokensOfOwner(address _owner) external view returns(uint256[] memory ownerTokens) {\n        return _tokensOfOwner(_owner);\n    }\n    \n    //Get total tokens by rarity. diamond,platinum,epic,rare,uncommon,common\n    function getTokensByRarity() external view returns(uint,uint,uint,uint,uint,uint) {\n        return(tokensByRarity[1],tokensByRarity[2],tokensByRarity[3],tokensByRarity[4],tokensByRarity[5],tokensByRarity[6]);\n    }\n    \n    //Get the info about the card\n    function getOwnedCard(uint256 _tokenId) public view returns(uint32, uint, uint) {\n        require(_exists(_tokenId));\n        return (Cards[_tokenId].cardTypeId,Cards[_tokenId].editionNumber,Cards[_tokenId].transferCount);\n    }\n}\n",
  "sourcePath": "/home/rprice/Downloads/cryptoz.cards/contracts/CryptozCard.sol",
  "compiler": {
    "name": "solc",
    "version": "0.5.9+commit.e560f70d.Emscripten.clang"
  },
  "schemaVersion": "3.3.4",
  "updatedAt": "2021-03-10T22:45:22.946Z",
  "devdoc": {
    "details": "see https://github.com/ethereum/EIPs/blob/master/EIPS/eip-721.md",
    "methods": {
      "approve(address,uint256)": {
        "details": "Approves another address to transfer the given token ID The zero address indicates there is no approved address. There can only be one approved address per token at a given time. Can only be called by the token owner or an approved operator.",
        "params": {
          "to": "address to be approved for the given token ID",
          "tokenId": "uint256 ID of the token to be approved"
        }
      },
      "balanceOf(address)": {
        "details": "Gets the balance of the specified address.",
        "params": {
          "owner": "address to query the balance of"
        },
        "return": "uint256 representing the amount owned by the passed address"
      },
      "getApproved(uint256)": {
        "details": "Gets the approved address for a token ID, or zero if no address set Reverts if the token ID does not exist.",
        "params": {
          "tokenId": "uint256 ID of the token to query the approval of"
        },
        "return": "address currently approved for the given token ID"
      },
      "isApprovedForAll(address,address)": {
        "details": "Tells whether an operator is approved by a given owner.",
        "params": {
          "operator": "operator address which you want to query the approval of",
          "owner": "owner address which you want to query the approval of"
        },
        "return": "bool whether the given operator is approved by the given owner"
      },
      "isOwner()": {
        "details": "Returns true if the caller is the current owner."
      },
      "name()": {
        "details": "Gets the token name",
        "return": "string representing the token name"
      },
      "owner()": {
        "details": "Returns the address of the current owner."
      },
      "ownerOf(uint256)": {
        "details": "Gets the owner of the specified token ID.",
        "params": {
          "tokenId": "uint256 ID of the token to query the owner of"
        },
        "return": "address currently marked as the owner of the given token ID"
      },
      "renounceOwnership()": {
        "details": "Leaves the contract without owner. It will not be possible to call `onlyOwner` functions anymore. Can only be called by the current owner.     * NOTE: Renouncing ownership will leave the contract without an owner, thereby removing any functionality that is only available to the owner."
      },
      "safeTransferFrom(address,address,uint256)": {
        "details": "Safely transfers the ownership of a given token ID to another address If the target address is a contract, it must implement {IERC721Receiver-onERC721Received}, which is called upon a safe transfer, and return the magic value `bytes4(keccak256(\"onERC721Received(address,address,uint256,bytes)\"))`; otherwise, the transfer is reverted. Requires the msg.sender to be the owner, approved, or operator",
        "params": {
          "from": "current owner of the token",
          "to": "address to receive the ownership of the given token ID",
          "tokenId": "uint256 ID of the token to be transferred"
        }
      },
      "safeTransferFrom(address,address,uint256,bytes)": {
        "details": "Safely transfers the ownership of a given token ID to another address If the target address is a contract, it must implement {IERC721Receiver-onERC721Received}, which is called upon a safe transfer, and return the magic value `bytes4(keccak256(\"onERC721Received(address,address,uint256,bytes)\"))`; otherwise, the transfer is reverted. Requires the _msgSender() to be the owner, approved, or operator",
        "params": {
          "_data": "bytes data to send along with a safe transfer check",
          "from": "current owner of the token",
          "to": "address to receive the ownership of the given token ID",
          "tokenId": "uint256 ID of the token to be transferred"
        }
      },
      "setApprovalForAll(address,bool)": {
        "details": "Sets or unsets the approval of a given operator An operator is allowed to transfer all tokens of the sender on their behalf.",
        "params": {
          "approved": "representing the status of the approval to be set",
          "to": "operator address to set the approval"
        }
      },
      "supportsInterface(bytes4)": {
        "details": "See {IERC165-supportsInterface}.     * Time complexity O(1), guaranteed to always use less than 30 000 gas."
      },
      "symbol()": {
        "details": "Gets the token symbol",
        "return": "string representing the token symbol"
      },
      "tokenByIndex(uint256)": {
        "details": "Gets the token ID at a given index of all the tokens in this contractReverts if the index is greater or equal to the total number of tokens",
        "params": {
          "_index": "uint256 representing the index to be accessed of the tokens list"
        },
        "return": "uint256 token ID at the given index of the tokens list"
      },
      "tokenOfOwnerByIndex(address,uint256)": {
        "details": "Gets the token ID at a given index of the tokens list of the requested owner",
        "params": {
          "_index": "uint256 representing the index to be accessed of the requested tokens list",
          "_owner": "address owning the tokens list to be accessed"
        },
        "return": "uint256 token ID at the given index of the tokens list owned by the requested address"
      },
      "tokenURI(uint256)": {
        "details": "Returns an URI for a given token IDThrows if the token ID does not exist. May return an empty string.",
        "params": {
          "_tokenId": "uint256 ID of the token to query"
        }
      },
      "totalSupply()": {
        "details": "Gets the total amount of tokens stored by the contract",
        "return": "uint256 representing the total amount of tokens"
      },
      "transferOwnership(address)": {
        "details": "Transfers ownership of the contract to a new account (`newOwner`). Can only be called by the current owner."
      }
    },
    "title": "Full ERC721 Token This implementation includes all the required and some optional functionality of the ERC721 standard Moreover, it includes approve all functionality using operator terminology"
  },
  "userdoc": {
    "methods": {
      "transferFrom(address,address,uint256)": {
        "notice": "Public method to allow file transfer, we call our internal function"
      }
    }
  }
}