{
  "contractName": "Cryptoz",
  "abi": [
    {
      "constant": true,
      "inputs": [
        {
          "name": "interfaceId",
          "type": "bytes4"
        }
      ],
      "name": "supportsInterface",
      "outputs": [
        {
          "name": "",
          "type": "bool"
        }
      ],
      "payable": false,
      "stateMutability": "view",
      "type": "function"
    },
    {
      "constant": true,
      "inputs": [],
      "name": "name",
      "outputs": [
        {
          "name": "_name",
          "type": "string"
        }
      ],
      "payable": false,
      "stateMutability": "view",
      "type": "function"
    },
    {
      "constant": true,
      "inputs": [
        {
          "name": "tokenId",
          "type": "uint256"
        }
      ],
      "name": "getApproved",
      "outputs": [
        {
          "name": "",
          "type": "address"
        }
      ],
      "payable": false,
      "stateMutability": "view",
      "type": "function"
    },
    {
      "constant": false,
      "inputs": [
        {
          "name": "to",
          "type": "address"
        },
        {
          "name": "tokenId",
          "type": "uint256"
        }
      ],
      "name": "approve",
      "outputs": [],
      "payable": false,
      "stateMutability": "nonpayable",
      "type": "function"
    },
    {
      "constant": true,
      "inputs": [],
      "name": "totalSupply",
      "outputs": [
        {
          "name": "",
          "type": "uint256"
        }
      ],
      "payable": false,
      "stateMutability": "view",
      "type": "function"
    },
    {
      "constant": false,
      "inputs": [
        {
          "name": "from",
          "type": "address"
        },
        {
          "name": "to",
          "type": "address"
        },
        {
          "name": "tokenId",
          "type": "uint256"
        }
      ],
      "name": "transferFrom",
      "outputs": [],
      "payable": false,
      "stateMutability": "nonpayable",
      "type": "function"
    },
    {
      "constant": true,
      "inputs": [
        {
          "name": "_owner",
          "type": "address"
        },
        {
          "name": "_index",
          "type": "uint256"
        }
      ],
      "name": "tokenOfOwnerByIndex",
      "outputs": [
        {
          "name": "",
          "type": "uint256"
        }
      ],
      "payable": false,
      "stateMutability": "view",
      "type": "function"
    },
    {
      "constant": false,
      "inputs": [
        {
          "name": "from",
          "type": "address"
        },
        {
          "name": "to",
          "type": "address"
        },
        {
          "name": "tokenId",
          "type": "uint256"
        }
      ],
      "name": "safeTransferFrom",
      "outputs": [],
      "payable": false,
      "stateMutability": "nonpayable",
      "type": "function"
    },
    {
      "constant": true,
      "inputs": [
        {
          "name": "",
          "type": "uint32"
        }
      ],
      "name": "allCardTypes",
      "outputs": [
        {
          "name": "cardTypeId",
          "type": "uint32"
        },
        {
          "name": "name",
          "type": "string"
        },
        {
          "name": "set",
          "type": "string"
        },
        {
          "name": "weiCost",
          "type": "uint256"
        },
        {
          "name": "buyCzxp",
          "type": "uint256"
        },
        {
          "name": "transferCzxp",
          "type": "uint256"
        },
        {
          "name": "sacrificeCzxp",
          "type": "uint256"
        },
        {
          "name": "unlockCzxp",
          "type": "uint256"
        },
        {
          "name": "cardLevel",
          "type": "uint8"
        }
      ],
      "payable": false,
      "stateMutability": "view",
      "type": "function"
    },
    {
      "constant": true,
      "inputs": [
        {
          "name": "",
          "type": "uint256"
        }
      ],
      "name": "tokensByRarity",
      "outputs": [
        {
          "name": "",
          "type": "uint256"
        }
      ],
      "payable": false,
      "stateMutability": "view",
      "type": "function"
    },
    {
      "constant": true,
      "inputs": [
        {
          "name": "_index",
          "type": "uint256"
        }
      ],
      "name": "tokenByIndex",
      "outputs": [
        {
          "name": "",
          "type": "uint256"
        }
      ],
      "payable": false,
      "stateMutability": "view",
      "type": "function"
    },
    {
      "constant": true,
      "inputs": [
        {
          "name": "tokenId",
          "type": "uint256"
        }
      ],
      "name": "ownerOf",
      "outputs": [
        {
          "name": "",
          "type": "address"
        }
      ],
      "payable": false,
      "stateMutability": "view",
      "type": "function"
    },
    {
      "constant": true,
      "inputs": [
        {
          "name": "owner",
          "type": "address"
        }
      ],
      "name": "balanceOf",
      "outputs": [
        {
          "name": "",
          "type": "uint256"
        }
      ],
      "payable": false,
      "stateMutability": "view",
      "type": "function"
    },
    {
      "constant": false,
      "inputs": [],
      "name": "renounceOwnership",
      "outputs": [],
      "payable": false,
      "stateMutability": "nonpayable",
      "type": "function"
    },
    {
      "constant": true,
      "inputs": [
        {
          "name": "",
          "type": "address"
        }
      ],
      "name": "boosterPacksOwned",
      "outputs": [
        {
          "name": "",
          "type": "uint256"
        }
      ],
      "payable": false,
      "stateMutability": "view",
      "type": "function"
    },
    {
      "constant": true,
      "inputs": [],
      "name": "getTotalTypes",
      "outputs": [
        {
          "name": "",
          "type": "uint256"
        }
      ],
      "payable": false,
      "stateMutability": "view",
      "type": "function"
    },
    {
      "constant": true,
      "inputs": [
        {
          "name": "",
          "type": "address"
        },
        {
          "name": "",
          "type": "uint256"
        }
      ],
      "name": "cardTypesOwned",
      "outputs": [
        {
          "name": "",
          "type": "bool"
        }
      ],
      "payable": false,
      "stateMutability": "view",
      "type": "function"
    },
    {
      "constant": true,
      "inputs": [
        {
          "name": "_owner",
          "type": "address"
        }
      ],
      "name": "tokensOfOwner",
      "outputs": [
        {
          "name": "ownerTokens",
          "type": "uint256[]"
        }
      ],
      "payable": false,
      "stateMutability": "view",
      "type": "function"
    },
    {
      "constant": true,
      "inputs": [
        {
          "name": "",
          "type": "uint256"
        }
      ],
      "name": "rarity",
      "outputs": [
        {
          "name": "",
          "type": "uint8"
        }
      ],
      "payable": false,
      "stateMutability": "view",
      "type": "function"
    },
    {
      "constant": true,
      "inputs": [],
      "name": "owner",
      "outputs": [
        {
          "name": "",
          "type": "address"
        }
      ],
      "payable": false,
      "stateMutability": "view",
      "type": "function"
    },
    {
      "constant": true,
      "inputs": [],
      "name": "isOwner",
      "outputs": [
        {
          "name": "",
          "type": "bool"
        }
      ],
      "payable": false,
      "stateMutability": "view",
      "type": "function"
    },
    {
      "constant": true,
      "inputs": [
        {
          "name": "",
          "type": "uint256"
        }
      ],
      "name": "cardTypesIds",
      "outputs": [
        {
          "name": "",
          "type": "uint256"
        }
      ],
      "payable": false,
      "stateMutability": "view",
      "type": "function"
    },
    {
      "constant": true,
      "inputs": [],
      "name": "symbol",
      "outputs": [
        {
          "name": "_symbol",
          "type": "string"
        }
      ],
      "payable": false,
      "stateMutability": "view",
      "type": "function"
    },
    {
      "constant": false,
      "inputs": [
        {
          "name": "to",
          "type": "address"
        },
        {
          "name": "approved",
          "type": "bool"
        }
      ],
      "name": "setApprovalForAll",
      "outputs": [],
      "payable": false,
      "stateMutability": "nonpayable",
      "type": "function"
    },
    {
      "constant": true,
      "inputs": [
        {
          "name": "_tokenId",
          "type": "uint256"
        }
      ],
      "name": "getOwnedCard",
      "outputs": [
        {
          "name": "",
          "type": "uint32"
        },
        {
          "name": "",
          "type": "uint256"
        },
        {
          "name": "",
          "type": "uint256"
        }
      ],
      "payable": false,
      "stateMutability": "view",
      "type": "function"
    },
    {
      "constant": true,
      "inputs": [],
      "name": "getTokensByRarity",
      "outputs": [
        {
          "name": "",
          "type": "uint256"
        },
        {
          "name": "",
          "type": "uint256"
        },
        {
          "name": "",
          "type": "uint256"
        },
        {
          "name": "",
          "type": "uint256"
        },
        {
          "name": "",
          "type": "uint256"
        },
        {
          "name": "",
          "type": "uint256"
        }
      ],
      "payable": false,
      "stateMutability": "view",
      "type": "function"
    },
    {
      "constant": true,
      "inputs": [
        {
          "name": "",
          "type": "uint256"
        }
      ],
      "name": "cardTypeToEdition",
      "outputs": [
        {
          "name": "",
          "type": "uint256"
        }
      ],
      "payable": false,
      "stateMutability": "view",
      "type": "function"
    },
    {
      "constant": false,
      "inputs": [
        {
          "name": "from",
          "type": "address"
        },
        {
          "name": "to",
          "type": "address"
        },
        {
          "name": "tokenId",
          "type": "uint256"
        },
        {
          "name": "_data",
          "type": "bytes"
        }
      ],
      "name": "safeTransferFrom",
      "outputs": [],
      "payable": false,
      "stateMutability": "nonpayable",
      "type": "function"
    },
    {
      "constant": true,
      "inputs": [
        {
          "name": "_tokenId",
          "type": "uint256"
        }
      ],
      "name": "tokenURI",
      "outputs": [
        {
          "name": "",
          "type": "string"
        }
      ],
      "payable": false,
      "stateMutability": "view",
      "type": "function"
    },
    {
      "constant": true,
      "inputs": [
        {
          "name": "",
          "type": "address"
        }
      ],
      "name": "sponsors",
      "outputs": [
        {
          "name": "",
          "type": "address"
        }
      ],
      "payable": false,
      "stateMutability": "view",
      "type": "function"
    },
    {
      "constant": true,
      "inputs": [
        {
          "name": "owner",
          "type": "address"
        },
        {
          "name": "operator",
          "type": "address"
        }
      ],
      "name": "isApprovedForAll",
      "outputs": [
        {
          "name": "",
          "type": "bool"
        }
      ],
      "payable": false,
      "stateMutability": "view",
      "type": "function"
    },
    {
      "constant": false,
      "inputs": [
        {
          "name": "newOwner",
          "type": "address"
        }
      ],
      "name": "transferOwnership",
      "outputs": [],
      "payable": false,
      "stateMutability": "nonpayable",
      "type": "function"
    },
    {
      "payable": false,
      "stateMutability": "nonpayable",
      "type": "fallback"
    },
    {
      "anonymous": false,
      "inputs": [
        {
          "indexed": true,
          "name": "cardTypeId",
          "type": "uint32"
        },
        {
          "indexed": false,
          "name": "cardName",
          "type": "string"
        }
      ],
      "name": "LogCardTypeLoaded",
      "type": "event"
    },
    {
      "anonymous": false,
      "inputs": [
        {
          "indexed": true,
          "name": "cardTypeId",
          "type": "uint32"
        },
        {
          "indexed": false,
          "name": "editionNumber",
          "type": "uint256"
        },
        {
          "indexed": true,
          "name": "buyer",
          "type": "address"
        }
      ],
      "name": "LogCardPurchased",
      "type": "event"
    },
    {
      "anonymous": false,
      "inputs": [
        {
          "indexed": true,
          "name": "buyer",
          "type": "address"
        },
        {
          "indexed": false,
          "name": "packsOpened",
          "type": "uint256"
        }
      ],
      "name": "LogPackOpened",
      "type": "event"
    },
    {
      "anonymous": false,
      "inputs": [
        {
          "indexed": false,
          "name": "sponsor",
          "type": "address"
        },
        {
          "indexed": false,
          "name": "affiliate",
          "type": "address"
        }
      ],
      "name": "LogSponsorLinked",
      "type": "event"
    },
    {
      "anonymous": false,
      "inputs": [
        {
          "indexed": false,
          "name": "sponsor",
          "type": "address"
        },
        {
          "indexed": false,
          "name": "affiliate",
          "type": "address"
        },
        {
          "indexed": false,
          "name": "CzxpReward",
          "type": "uint256"
        }
      ],
      "name": "LogSponsorReward",
      "type": "event"
    },
    {
      "anonymous": false,
      "inputs": [
        {
          "indexed": false,
          "name": "player",
          "type": "address"
        },
        {
          "indexed": false,
          "name": "newBonusBalance",
          "type": "uint256"
        }
      ],
      "name": "LogDailyReward",
      "type": "event"
    },
    {
      "anonymous": false,
      "inputs": [
        {
          "indexed": true,
          "name": "owner",
          "type": "address"
        },
        {
          "indexed": true,
          "name": "cardTokenId",
          "type": "uint256"
        },
        {
          "indexed": false,
          "name": "editionNumber",
          "type": "uint256"
        },
        {
          "indexed": true,
          "name": "cardTypeId",
          "type": "uint256"
        },
        {
          "indexed": false,
          "name": "rarity",
          "type": "uint8"
        },
        {
          "indexed": false,
          "name": "CzxpGained",
          "type": "uint256"
        }
      ],
      "name": "LogCardCreated",
      "type": "event"
    },
    {
      "anonymous": false,
      "inputs": [
        {
          "indexed": true,
          "name": "owner",
          "type": "address"
        },
        {
          "indexed": true,
          "name": "cardTokenId",
          "type": "uint256"
        },
        {
          "indexed": true,
          "name": "cardTypeId",
          "type": "uint256"
        },
        {
          "indexed": false,
          "name": "CzxpGained",
          "type": "uint256"
        }
      ],
      "name": "SacrificeCardEvent",
      "type": "event"
    },
    {
      "anonymous": false,
      "inputs": [
        {
          "indexed": true,
          "name": "from",
          "type": "address"
        },
        {
          "indexed": true,
          "name": "to",
          "type": "address"
        },
        {
          "indexed": true,
          "name": "tokenId",
          "type": "uint256"
        }
      ],
      "name": "Transfer",
      "type": "event"
    },
    {
      "anonymous": false,
      "inputs": [
        {
          "indexed": true,
          "name": "owner",
          "type": "address"
        },
        {
          "indexed": true,
          "name": "approved",
          "type": "address"
        },
        {
          "indexed": true,
          "name": "tokenId",
          "type": "uint256"
        }
      ],
      "name": "Approval",
      "type": "event"
    },
    {
      "anonymous": false,
      "inputs": [
        {
          "indexed": true,
          "name": "owner",
          "type": "address"
        },
        {
          "indexed": true,
          "name": "operator",
          "type": "address"
        },
        {
          "indexed": false,
          "name": "approved",
          "type": "bool"
        }
      ],
      "name": "ApprovalForAll",
      "type": "event"
    },
    {
      "anonymous": false,
      "inputs": [
        {
          "indexed": true,
          "name": "beneficiary",
          "type": "address"
        },
        {
          "indexed": false,
          "name": "czxpAmount",
          "type": "uint256"
        }
      ],
      "name": "CZXPGained",
      "type": "event"
    },
    {
      "anonymous": false,
      "inputs": [
        {
          "indexed": true,
          "name": "previousOwner",
          "type": "address"
        },
        {
          "indexed": true,
          "name": "newOwner",
          "type": "address"
        }
      ],
      "name": "OwnershipTransferred",
      "type": "event"
    },
    {
      "constant": false,
      "inputs": [
        {
          "name": "_czxpContractAddress",
          "type": "address"
        }
      ],
      "name": "initialize",
      "outputs": [],
      "payable": false,
      "stateMutability": "nonpayable",
      "type": "function"
    },
    {
      "constant": false,
      "inputs": [
        {
          "name": "_cardTypeId",
          "type": "uint8"
        },
        {
          "name": "_name",
          "type": "string"
        },
        {
          "name": "_set",
          "type": "string"
        },
        {
          "name": "_assetType",
          "type": "uint8"
        },
        {
          "name": "_notStoreOrBonus",
          "type": "uint8"
        },
        {
          "name": "_rarity",
          "type": "uint8"
        },
        {
          "name": "_totalAvailable",
          "type": "uint16"
        },
        {
          "name": "_weiCost",
          "type": "uint256"
        },
        {
          "name": "_buyCzxp",
          "type": "uint256"
        }
      ],
      "name": "loadNewCardType",
      "outputs": [
        {
          "name": "",
          "type": "bool"
        }
      ],
      "payable": false,
      "stateMutability": "nonpayable",
      "type": "function"
    },
    {
      "constant": false,
      "inputs": [
        {
          "name": "_cardTypeId",
          "type": "uint32"
        },
        {
          "name": "_transferCzxp",
          "type": "uint256"
        },
        {
          "name": "_sacrificeCzxp",
          "type": "uint256"
        },
        {
          "name": "_unlockCzxp",
          "type": "uint256"
        },
        {
          "name": "_cardLevel",
          "type": "uint8"
        }
      ],
      "name": "addTocardType",
      "outputs": [
        {
          "name": "",
          "type": "bool"
        }
      ],
      "payable": false,
      "stateMutability": "nonpayable",
      "type": "function"
    },
    {
      "constant": false,
      "inputs": [
        {
          "name": "_cardTypeId",
          "type": "uint32"
        }
      ],
      "name": "buyCard",
      "outputs": [
        {
          "name": "",
          "type": "bool"
        }
      ],
      "payable": true,
      "stateMutability": "payable",
      "type": "function"
    },
    {
      "constant": false,
      "inputs": [],
      "name": "getBonusBoosters",
      "outputs": [],
      "payable": false,
      "stateMutability": "nonpayable",
      "type": "function"
    },
    {
      "constant": false,
      "inputs": [
        {
          "name": "_cardTypeId",
          "type": "uint32"
        }
      ],
      "name": "getFreeCard",
      "outputs": [],
      "payable": false,
      "stateMutability": "nonpayable",
      "type": "function"
    },
    {
      "constant": false,
      "inputs": [
        {
          "name": "_tokenId",
          "type": "uint256"
        }
      ],
      "name": "sacrifice",
      "outputs": [],
      "payable": false,
      "stateMutability": "nonpayable",
      "type": "function"
    },
    {
      "constant": false,
      "inputs": [
        {
          "name": "_amount",
          "type": "uint256"
        }
      ],
      "name": "buyBoosterCard",
      "outputs": [
        {
          "name": "",
          "type": "bool"
        }
      ],
      "payable": true,
      "stateMutability": "payable",
      "type": "function"
    },
    {
      "constant": false,
      "inputs": [],
      "name": "buyBoosterCardAndOpen",
      "outputs": [],
      "payable": true,
      "stateMutability": "payable",
      "type": "function"
    },
    {
      "constant": false,
      "inputs": [
        {
          "name": "czxpWager",
          "type": "uint256"
        }
      ],
      "name": "openBoosterCard",
      "outputs": [
        {
          "name": "",
          "type": "bool"
        }
      ],
      "payable": false,
      "stateMutability": "nonpayable",
      "type": "function"
    },
    {
      "constant": false,
      "inputs": [
        {
          "name": "mySponsor",
          "type": "address"
        }
      ],
      "name": "linkMySponsor",
      "outputs": [],
      "payable": false,
      "stateMutability": "nonpayable",
      "type": "function"
    },
    {
      "constant": true,
      "inputs": [
        {
          "name": "_player",
          "type": "address"
        }
      ],
      "name": "getTimeToDailyBonus",
      "outputs": [
        {
          "name": "timeStamp",
          "type": "uint256"
        }
      ],
      "payable": false,
      "stateMutability": "view",
      "type": "function"
    },
    {
      "constant": false,
      "inputs": [],
      "name": "withdraw",
      "outputs": [],
      "payable": false,
      "stateMutability": "nonpayable",
      "type": "function"
    }
  ],
  "bytecode": "0x60c0604052601b60808190527f68747470733a2f2f63727970746f7a2e63617264732f646174612f000000000060a0908152620000409160019190620002f3565b506000600b5560408051808201909152600d8082527f43727970746f7a2043617264730000000000000000000000000000000000000060209092019182526200008c91601591620002f3565b506040805180820190915260078082527f43727970746f7a000000000000000000000000000000000000000000000000006020909201918252620000d391601691620002f3565b506040805160e081018252600080825260208201819052918101829052606081018290526080810182905260a0810182905260c08101919091526200011d90601c90600762000378565b506000620001336001600160e01b036200021f16565b600080546001600160a01b0319166001600160a01b0383169081178255604051929350917f8be0079c531659141344cd1fd0a4f28419497f9722a3daafe3b4186f6b6457e0908290a350620001b17f01ffc9a7000000000000000000000000000000000000000000000000000000006001600160e01b036200022416565b620001e57f80ac58cd000000000000000000000000000000000000000000000000000000006001600160e01b036200022416565b620002197f780e9d63000000000000000000000000000000000000000000000000000000006001600160e01b036200022416565b620003cb565b335b90565b7fffffffff000000000000000000000000000000000000000000000000000000008082161415620002b657604080517f08c379a000000000000000000000000000000000000000000000000000000000815260206004820152601c60248201527f4552433136353a20696e76616c696420696e7465726661636520696400000000604482015290519081900360640190fd5b7fffffffff00000000000000000000000000000000000000000000000000000000166000908152600c60205260409020805460ff19166001179055565b828054600181600116156101000203166002900490600052602060002090601f016020900481019282601f106200033657805160ff191683800117855562000366565b8280016001018555821562000366579182015b828111156200036657825182559160200191906001019062000349565b5062000374929150620003ae565b5090565b826007810192821562000366579160200282015b8281111562000366578251829060ff169055916020019190600101906200038c565b6200022191905b80821115620003745760008155600101620003b5565b6149a380620003db6000396000f3fe6080604052600436106102725760003560e01c80638462151c1161014f578063b4a16769116100c1578063d42198e61161007a578063d42198e614610d02578063e178e05114610d1f578063e985e9c514610d49578063f2fde38b14610d84578063f8ae951114610db7578063fc7f0fec14610dea57610272565b8063b4a1676914610b54578063b88d4fde14610b7e578063c4d66de814610c4f578063c87b56dd14610c82578063d057570814610cac578063d35590c214610ccf57610272565b8063912fdfcb11610113578063912fdfcb14610a10578063918923c414610a4357806395d89b4114610a6d578063a22cb46514610a82578063a47ed2e714610abd578063afa6154114610b0c57610272565b80638462151c146108245780638b58c569146108a75780638da5cb5b146108e75780638e7a5913146108fc5780638f32d59b146109fb57610272565b80634d3e2e5e116101e857806370a08231116101ac57806370a0823114610746578063715018a6146107795780637752f4871461078e5780637bbbe390146107c15780637f276455146107d657806381cbd203146107eb57610272565b80634d3e2e5e146106535780634f27f6261461067d5780634f6ccce7146106a75780636352211e146106d1578063692170c2146106fb57610272565b806318160ddd1161023a57806318160ddd1461040757806323b872dd1461042e5780632f745c59146104715780633ccfd60b146104aa57806342842e0e146104bf57806342ed1d291461050257610272565b806301ffc9a71461028457806306fdde03146102cc578063081812fc14610356578063095ea7b31461039c57806316b93be8146103d7575b34801561027e57600080fd5b50600080fd5b34801561029057600080fd5b506102b8600480360360208110156102a757600080fd5b50356001600160e01b031916610df2565b604080519115158252519081900360200190f35b3480156102d857600080fd5b506102e1610e15565b6040805160208082528351818301528351919283929083019185019080838360005b8381101561031b578181015183820152602001610303565b50505050905090810190601f1680156103485780820380516001836020036101000a031916815260200191505b509250505060405180910390f35b34801561036257600080fd5b506103806004803603602081101561037957600080fd5b5035610eac565b604080516001600160a01b039092168252519081900360200190f35b3480156103a857600080fd5b506103d5600480360360408110156103bf57600080fd5b506001600160a01b038135169060200135610f0e565b005b3480156103e357600080fd5b506103d5600480360360208110156103fa57600080fd5b503563ffffffff16611036565b34801561041357600080fd5b5061041c61125a565b60408051918252519081900360200190f35b34801561043a57600080fd5b506103d56004803603606081101561045157600080fd5b506001600160a01b03813581169160208101359091169060400135611260565b34801561047d57600080fd5b5061041c6004803603604081101561049457600080fd5b506001600160a01b0381351690602001356112ac565b3480156104b657600080fd5b506103d56112fa565b3480156104cb57600080fd5b506103d5600480360360608110156104e257600080fd5b506001600160a01b03813581169160208101359091169060400135611371565b34801561050e57600080fd5b506105326004803603602081101561052557600080fd5b503563ffffffff1661138c565b604051808a63ffffffff1663ffffffff16815260200180602001806020018981526020018881526020018781526020018681526020018581526020018460ff1660ff16815260200183810383528b818151815260200191508051906020019080838360005b838110156105af578181015183820152602001610597565b50505050905090810190601f1680156105dc5780820380516001836020036101000a031916815260200191505b5083810382528a5181528a516020918201918c019080838360005b8381101561060f5781810151838201526020016105f7565b50505050905090810190601f16801561063c5780820380516001836020036101000a031916815260200191505b509b50505050505050505050505060405180910390f35b34801561065f57600080fd5b5061041c6004803603602081101561067657600080fd5b50356114f9565b34801561068957600080fd5b506102b8600480360360208110156106a057600080fd5b503561150d565b3480156106b357600080fd5b5061041c600480360360208110156106ca57600080fd5b50356115b0565b3480156106dd57600080fd5b50610380600480360360208110156106f457600080fd5b50356115e4565b34801561070757600080fd5b506102b8600480360360a081101561071e57600080fd5b50803563ffffffff16906020810135906040810135906060810135906080013560ff16611638565b34801561075257600080fd5b5061041c6004803603602081101561076957600080fd5b50356001600160a01b031661183a565b34801561078557600080fd5b506103d56118a2565b34801561079a57600080fd5b5061041c600480360360208110156107b157600080fd5b50356001600160a01b0316611933565b3480156107cd57600080fd5b506103d5611945565b3480156107e257600080fd5b5061041c611a0d565b3480156107f757600080fd5b506102b86004803603604081101561080e57600080fd5b506001600160a01b038135169060200135611a13565b34801561083057600080fd5b506108576004803603602081101561084757600080fd5b50356001600160a01b0316611a33565b60408051602080825283518183015283519192839290830191858101910280838360005b8381101561089357818101518382015260200161087b565b505050509050019250505060405180910390f35b3480156108b357600080fd5b506108d1600480360360208110156108ca57600080fd5b5035611a94565b6040805160ff9092168252519081900360200190f35b3480156108f357600080fd5b50610380611aa9565b34801561090857600080fd5b506102b8600480360361012081101561092057600080fd5b60ff8235169190810190604081016020820135600160201b81111561094457600080fd5b82018360208201111561095657600080fd5b803590602001918460018302840111600160201b8311171561097757600080fd5b919390929091602081019035600160201b81111561099457600080fd5b8201836020820111156109a657600080fd5b803590602001918460018302840111600160201b831117156109c757600080fd5b919350915060ff813581169160208101358216916040820135169061ffff6060820135169060808101359060a00135611ab8565b348015610a0757600080fd5b506102b8611c9d565b348015610a1c57600080fd5b506103d560048036036020811015610a3357600080fd5b50356001600160a01b0316611cc1565b348015610a4f57600080fd5b5061041c60048036036020811015610a6657600080fd5b5035611d3f565b348015610a7957600080fd5b506102e1611d5d565b348015610a8e57600080fd5b506103d560048036036040811015610aa557600080fd5b506001600160a01b0381351690602001351515611dbe565b348015610ac957600080fd5b50610ae760048036036020811015610ae057600080fd5b5035611ec3565b6040805163ffffffff9094168452602084019290925282820152519081900360600190f35b348015610b1857600080fd5b50610b21611f4d565b604080519687526020870195909552858501939093526060850191909152608084015260a0830152519081900360c00190f35b348015610b6057600080fd5b5061041c60048036036020811015610b7757600080fd5b5035611f6b565b348015610b8a57600080fd5b506103d560048036036080811015610ba157600080fd5b6001600160a01b03823581169260208101359091169160408201359190810190608081016060820135600160201b811115610bdb57600080fd5b820183602082011115610bed57600080fd5b803590602001918460018302840111600160201b83111715610c0e57600080fd5b91908080601f016020809104026020016040519081016040528093929190818152602001838380828437600092019190915250929550611f7d945050505050565b348015610c5b57600080fd5b506103d560048036036020811015610c7257600080fd5b50356001600160a01b0316611fd5565b348015610c8e57600080fd5b506102e160048036036020811015610ca557600080fd5b503561203e565b6102b860048036036020811015610cc257600080fd5b503563ffffffff166120df565b348015610cdb57600080fd5b5061038060048036036020811015610cf257600080fd5b50356001600160a01b0316612633565b6102b860048036036020811015610d1857600080fd5b503561264e565b348015610d2b57600080fd5b506103d560048036036020811015610d4257600080fd5b50356126e1565b348015610d5557600080fd5b506102b860048036036040811015610d6c57600080fd5b506001600160a01b03813581169160200135166126eb565b348015610d9057600080fd5b506103d560048036036020811015610da757600080fd5b50356001600160a01b0316612719565b348015610dc357600080fd5b5061041c60048036036020811015610dda57600080fd5b50356001600160a01b0316612769565b6103d56127b0565b6001600160e01b031981166000908152600c602052604090205460ff165b919050565b60158054604080516020601f6002600019610100600188161502019095169490940493840181900481028201810190925282815260609390929091830182828015610ea15780601f10610e7657610100808354040283529160200191610ea1565b820191906000526020600020905b815481529060010190602001808311610e8457829003601f168201915b505050505090505b90565b6000610eb782612817565b610ef25760405162461bcd60e51b815260040180806020018281038252602c8152602001806147ac602c913960400191505060405180910390fd5b506000908152600e60205260409020546001600160a01b031690565b6000610f19826115e4565b9050806001600160a01b0316836001600160a01b03161415610f6c5760405162461bcd60e51b81526004018080602001828103825260218152602001806148716021913960400191505060405180910390fd5b806001600160a01b0316610f7e612834565b6001600160a01b03161480610f9f5750610f9f81610f9a612834565b6126eb565b610fda5760405162461bcd60e51b81526004018080602001828103825260388152602001806147006038913960400191505060405180910390fd5b6000828152600e602052604080822080546001600160a01b0319166001600160a01b0387811691821790925591518593918516917f8c5be1e5ebec7d5bd14f71427d1e84f3dd0314c0f7b2291e5b200ac8c7c3b92591a4505050565b63ffffffff8082166000818152600760205260409020548392161461105a57600080fd5b63ffffffff8116600090815260036020526040902054600160ff9091161061108157600080fd5b63ffffffff821660009081526003602052604090205460ff16156110a457600080fd5b63ffffffff8216600090815260096020908152604080832054600590925290912054600190910161ffff909116116110db57600080fd5b33600090815260236020908152604080832063ffffffff8616845290915290205460ff161561110957600080fd5b600a54604080516370a0823160e01b815233600482015290516000926001600160a01b0316916370a08231916024808301926020929190829003018186803b15801561115457600080fd5b505afa158015611168573d6000803e3d6000fd5b505050506040513d602081101561117e57600080fd5b505163ffffffff8416600090815260076020819052604090912001549091508110156111a957600080fd5b63ffffffff8316600090815260076020526040902060030154156111cc57600080fd5b33600081815260236020908152604080832063ffffffff881684528252808320805460ff19166001179055600790915290206004015461120c9190612838565b63ffffffff831660009081526007602052604090206004015461122e906128a9565b63ffffffff83166000908152600760205260409020600401546112549084903390612956565b50505050565b60195490565b61126a3382612bdd565b61127357600080fd5b60016006828154811061128257fe5b60009182526020909120600260039092020101805490910190556112a7838383612c81565b505050565b60006112b78361183a565b82106112c257600080fd5b6001600160a01b03831660009081526017602052604090208054839081106112e657fe5b906000526020600020015490505b92915050565b611302611c9d565b611341576040805162461bcd60e51b815260206004820181905260248201526000805160206147d8833981519152604482015290519081900360640190fd5b6040513390303180156108fc02916000818181858888f1935050505015801561136e573d6000803e3d6000fd5b50565b6112a783838360405180602001604052806000815250611f7d565b6007602090815260009182526040918290208054600180830180548651600261010094831615949094026000190190911692909204601f810186900486028301860190965285825263ffffffff9092169492939092908301828280156114335780601f1061140857610100808354040283529160200191611433565b820191906000526020600020905b81548152906001019060200180831161141657829003601f168201915b50505060028085018054604080516020601f60001961010060018716150201909416959095049283018590048502810185019091528181529596959450909250908301828280156114c55780601f1061149a576101008083540402835291602001916114c5565b820191906000526020600020905b8154815290600101906020018083116114a857829003601f168201915b5050506003840154600485015460058601546006870154600788015460089098015496979396929550909350919060ff1689565b601c816007811061150657fe5b0154905081565b3360009081526026602052604081205461152657600080fd5b3360009081526026602052604090205461154790600163ffffffff612c8c16565b3360009081526026602052604081209190915561156383612cd5565b905061156e81612e51565b6040805160ff83168152905133917f66e021f2e6bf1b4f79e6e5622acffc29c6230663c0432ac8c08a5edcb1f23382919081900360200190a250600192915050565b60006115ba61125a565b82106115c557600080fd5b601982815481106115d257fe5b90600052602060002001549050919050565b6000818152600d60205260408120546001600160a01b0316806112f45760405162461bcd60e51b81526004018080602001828103825260298152602001806147626029913960400191505060405180910390fd5b6000611642611c9d565b611681576040805162461bcd60e51b815260206004820181905260248201526000805160206147d8833981519152604482015290519081900360640190fd5b63ffffffff8616600090815260076020526040902060050154156116a457600080fd5b63ffffffff8616600090815260076020526040902060060154156116c757600080fd5b63ffffffff861660009081526007602081905260409091200154156116eb57600080fd5b63ffffffff861660009081526007602052604090206008015460ff161561171157600080fd5b63ffffffff8087166000818152600760205260409020549091161461173557600080fd5b63ffffffff86166000818152600760208181526040808420600581018b9055600681018a905580840189905560088101805460ff8a1660ff199091161790556009835281852094909455918152815181815260019384018054600295811615610100026000190116949094049181018290527f566651c26d6867f4a0341c33295b297504f1f8445ef05b6a80d7faa24280cd2e939290918291820190849080156118205780601f106117f557610100808354040283529160200191611820565b820191906000526020600020905b81548152906001019060200180831161180357829003601f168201915b50509250505060405180910390a250600195945050505050565b60006001600160a01b0382166118815760405162461bcd60e51b815260040180806020018281038252602a815260200180614738602a913960400191505060405180910390fd5b6001600160a01b0382166000908152600f602052604090206112f490612ec4565b6118aa611c9d565b6118e9576040805162461bcd60e51b815260206004820181905260248201526000805160206147d8833981519152604482015290519081900360640190fd5b600080546040516001600160a01b03909116907f8be0079c531659141344cd1fd0a4f28419497f9722a3daafe3b4186f6b6457e0908390a3600080546001600160a01b0319169055565b60266020526000908152604090205481565b61194e33612769565b421161198b5760405162461bcd60e51b815260040180806020018281038252602b815260200180614821602b913960400191505060405180910390fd5b3360009081526025602090815260408083206170804201905560269091529020546119bd90600263ffffffff612ec816565b33600081815260266020908152604091829020849055815192835282019290925281517fdea0c85af515c9fffcca886846213edc28206526b243af2f064b6962032ce185929181900390910190a1565b60085490565b602360209081526000928352604080842090915290825290205460ff1681565b6060611a3e82612f22565b805480602002602001604051908101604052809291908181526020018280548015611a8857602002820191906000526020600020905b815481526020019060010190808311611a74575b50505050509050919050565b60046020526000908152604090205460ff1681565b6000546001600160a01b031690565b6000611ac2611c9d565b611b01576040805162461bcd60e51b815260206004820181905260248201526000805160206147d8833981519152604482015290519081900360640190fd5b6008546113881015611b1257600080fd5b60ff8c1660009081526007602052604090205463ffffffff1615611b3557600080fd5b60ff8c166000818152600760205260409020805463ffffffff19169091178155611b63906001018c8c614406565b5060ff8c166000908152600760205260409020611b84906002018a8a614406565b5060ff8c81166000908152600260209081526040808320805460ff199081168d8716179091556003808452828520805483168d881690811790915560048086528487208054909416978d169790971790925560058452828520805461ffff191661ffff8c161790556007909352922090810186905590910183905560011415611c535760ff85811660009081526027602090815260408220805460018101825590835291206008820401805463ffffffff60079093166004026101000a9283021916928f169091029190911790555b50600880546001818101835560009290925260ff8d167ff3f7a9fe364faab93b216da50a3214154f22a0a2b415b23a84c8169e8b636ee3909101559b9a5050505050505050505050565b600080546001600160a01b0316611cb2612834565b6001600160a01b031614905090565b6001600160a01b038116611cd457600080fd5b336000908152602460205260409020546001600160a01b031615611cf757600080fd5b336001600160a01b0382161415611d0d57600080fd5b33600090815260246020526040902080546001600160a01b0319166001600160a01b03831617905561136e6002612e51565b60088181548110611d4c57fe5b600091825260209091200154905081565b60168054604080516020601f6002600019610100600188161502019095169490940493840181900481028201810190925282815260609390929091830182828015610ea15780601f10610e7657610100808354040283529160200191610ea1565b611dc6612834565b6001600160a01b0316826001600160a01b03161415611e2c576040805162461bcd60e51b815260206004820152601960248201527f4552433732313a20617070726f766520746f2063616c6c657200000000000000604482015290519081900360640190fd5b8060106000611e39612834565b6001600160a01b03908116825260208083019390935260409182016000908120918716808252919093529120805460ff191692151592909217909155611e7d612834565b60408051841515815290516001600160a01b0392909216917f17307eab39ab6107e8899845ad3d59bd9653f200f220920489ca2b5937696c319181900360200190a35050565b6000806000611ed184612817565b611eda57600080fd5b60068481548110611ee757fe5b60009182526020909120600390910201546006805463ffffffff9092169186908110611f0f57fe5b90600052602060002090600302016001015460068681548110611f2e57fe5b9060005260206000209060030201600201549250925092509193909250565b601d54601e54601f5460205460215460225494959394929391929091565b60096020526000908152604090205481565b611f8e611f88612834565b83612bdd565b611fc95760405162461bcd60e51b81526004018080602001828103825260318152602001806148b66031913960400191505060405180910390fd5b61125484848484612f3c565b611fdd611c9d565b61201c576040805162461bcd60e51b815260206004820181905260248201526000805160206147d8833981519152604482015290519081900360640190fd5b600a80546001600160a01b0319166001600160a01b0392909216919091179055565b60018054604080516020600284861615610100026000190190941693909304601f81018490048402820184019092528181526060936112f493919290918301828280156120cc5780601f106120a1576101008083540402835291602001916120cc565b820191906000526020600020905b8154815290600101906020018083116120af57829003601f168201915b50505050506120da84612f8e565b61304f565b63ffffffff8082166000818152600760205260408120549092849291161461210657600080fd5b63ffffffff8116600090815260036020526040902054600160ff9091161061212d57600080fd5b6000341161216c576040805162461bcd60e51b81526020600482015260076024820152665061792075702160c81b604482015290519081900360640190fd5b63ffffffff808416600081815260076020526040902054909116146121c25760405162461bcd60e51b815260040180806020018281038252602581526020018061484c6025913960400191505060405180910390fd5b6121ca614484565b63ffffffff84811660009081526007602090815260409182902082516101208101845281549094168452600180820180548551600261010094831615949094026000190190911692909204601f81018590048502830185019095528482529193858401939192918301828280156122825780601f1061225757610100808354040283529160200191612282565b820191906000526020600020905b81548152906001019060200180831161226557829003601f168201915b5050509183525050600282810180546040805160206001841615610100026000190190931694909404601f810183900483028501830190915280845293810193908301828280156123145780601f106122e957610100808354040283529160200191612314565b820191906000526020600020905b8154815290600101906020018083116122f757829003601f168201915b505050918352505060038281015460208084019190915260048401546040808501919091526005850154606085015260068501546080850152600785015460a085015260089094015460ff90811660c09094019390935263ffffffff89166000908152919052919091205491925016156123d5576040805162461bcd60e51b815260206004820152601d60248201527f43616e206f6e6c79206275792063617264732066726f6d2053746f7265000000604482015290519081900360640190fd5b33600090815260236020908152604080832063ffffffff8816845290915290205460ff16156124355760405162461bcd60e51b81526004018080602001828103825260248152602001806148926024913960400191505060405180910390fd5b63ffffffff8416600090815260096020908152604080832054600590925290912054600190910161ffff909116101561249f5760405162461bcd60e51b815260040180806020018281038252602a81526020018061490c602a913960400191505060405180910390fd5b80606001513410156124e25760405162461bcd60e51b815260040180806020018281038252602b815260200180614685602b913960400191505060405180910390fd5b600a54604080516370a0823160e01b815233600482015290516000926001600160a01b0316916370a08231916024808301926020929190829003018186803b15801561252d57600080fd5b505afa158015612541573d6000803e3d6000fd5b505050506040513d602081101561255757600080fd5b505160e083015190915081101561259f5760405162461bcd60e51b81526004018080602001828103825260398152602001806149366039913960400191505060405180910390fd5b33600081815260236020908152604080832063ffffffff8a1684528252808320805460ff1916600117905560079091529020600401546125df9190612838565b63ffffffff8516600090815260076020526040902060040154612601906128a9565b63ffffffff85166000908152600760205260409020600401546126279086903390612956565b50600195945050505050565b6024602052600090815260409020546001600160a01b031681565b600061266766071afd498d00008363ffffffff61308b16565b34101561267357600080fd5b33600090815260266020526040902054612693908363ffffffff612ec816565b336000818152602660205260409020919091556126c0906126bb60788563ffffffff61308b16565b612838565b6126d96126d460788463ffffffff61308b16565b6128a9565b506001919050565b61136e33826130e4565b6001600160a01b03918216600090815260106020908152604080832093909416825291909152205460ff1690565b612721611c9d565b612760576040805162461bcd60e51b815260206004820181905260248201526000805160206147d8833981519152604482015290519081900360640190fd5b61136e81613351565b6001600160a01b03811660009081526025602052604081205461279157506001194201610e10565b506001600160a01b038116600090815260256020526040902054610e10565b66071afd498d00003410156127c457600080fd5b336000908152602660205260409020546127e590600163ffffffff612ec816565b33600081815260266020526040902091909155612803906078612838565b61280d60786128a9565b61136e600061150d565b6000908152600d60205260409020546001600160a01b0316151590565b3390565b600a54604080516360fa676760e01b81526001600160a01b03858116600483015260248201859052915191909216916360fa676791604480830192600092919082900301818387803b15801561288d57600080fd5b505af11580156128a1573d6000803e3d6000fd5b505050505050565b336000908152602460205260409020546001600160a01b03161561136e5760148104806128d4575060015b336000908152602460205260409020546128f7906001600160a01b031682612838565b336000818152602460209081526040918290205482516001600160a01b0391909116815290810192909252818101839052517e3da85d6058444eca57e3b88be14c734f4f239affe28b7629966e318de2a90e9181900360600190a15050565b63ffffffff8084166000818152600760205260408120549092161461297a57600080fd5b63ffffffff80851660009081526009602052604090205461299e91600190612ec816565b63ffffffff85166000908152600960205260409020556129bc6144d9565b506040805160608101825263ffffffff8681168083526000908152600960209081528482205490840190815293830181815260068054600181018255925283517ff652222313e28459528d920b65115c16c04f3efc82aaedc97be59f3f377c0d3f60038402908101805463ffffffff1916929095169190911790935593517ff652222313e28459528d920b65115c16c04f3efc82aaedc97be59f3f377c0d4083015592517ff652222313e28459528d920b65115c16c04f3efc82aaedc97be59f3f377c0d419091015590612a9085826133f1565b60018054604080516020600284861615610100026000190190941693909304601f8101849004840282018401909252818152612b2793859391929091830182828015612b1d5780601f10612af257610100808354040283529160200191612b1d565b820191906000526020600020905b815481529060010190602001808311612b0057829003601f168201915b5050505050613440565b63ffffffff861660009081526004602052604090205460ff16601c8160078110612b4d57fe5b0154600101601c8260ff1660078110612b6257fe5b015563ffffffff8716600081815260096020908152604080832054600483529281902054815193845260ff16918301919091528181018890525184916001600160a01b038a16917fa175b558bfdf1ae124f50d3f430abaaab74e5549ded822767a55f3c6d906c6b19181900360600190a45095945050505050565b6000612be882612817565b612c235760405162461bcd60e51b815260040180806020018281038252602c8152602001806146d4602c913960400191505060405180910390fd5b6000612c2e836115e4565b9050806001600160a01b0316846001600160a01b03161480612c695750836001600160a01b0316612c5e84610eac565b6001600160a01b0316145b80612c795750612c7981856126eb565b949350505050565b6112a7838383613471565b6000612cce83836040518060400160405280601e81526020017f536166654d6174683a207375627472616374696f6e206f766572666c6f770000815250613490565b9392505050565b60006605dc0000000bb8821115612ceb57600080fd5b600a54604080516370a0823160e01b815233600482015290516000926001600160a01b0316916370a08231916024808301926020929190829003018186803b158015612d3657600080fd5b505afa158015612d4a573d6000803e3d6000fd5b505050506040513d6020811015612d6057600080fd5b5051905082811015612d7157600080fd5b8215612de357600a5460408051631752e21560e11b81523360048201526024810186905290516001600160a01b0390921691632ea5c42a9160448082019260009290919082900301818387803b158015612dca57600080fd5b505af1158015612dde573d6000803e3d6000fd5b505050505b6000612df0612710613527565b9050612dfa614500565b612e038561357f565b905060025b60078160ff161015612e4557818160ff1660078110612e2357fe5b602002015161ffff168311612e3d579350610e1092505050565b600101612e08565b50600695945050505050565b60ff8116600090815260276020526040812054612e6d90613527565b60ff831660009081526027602052604081208054929350909183908110612e9057fe5b90600052602060002090600891828204019190066004029054906101000a900463ffffffff16905061125481336064612956565b5490565b600082820183811015612cce576040805162461bcd60e51b815260206004820152601b60248201527f536166654d6174683a206164646974696f6e206f766572666c6f770000000000604482015290519081900360640190fd5b6001600160a01b0316600090815260116020526040902090565b612f47848484612c81565b612f5384848484613632565b6112545760405162461bcd60e51b815260040180806020018281038252603281526020018061462d6032913960400191505060405180910390fd5b606081612fb357506040805180820190915260018152600360fc1b6020820152610e10565b8160005b8115612fcb57600101600a82049150612fb7565b6060816040519080825280601f01601f191660200182016040528015612ff8576020820181803883390190505b50905060001982015b851561304657600a860660300160f81b8282806001900393508151811061302457fe5b60200101906001600160f81b031916908160001a905350600a86049550613001565b50949350505050565b6060612cce838360405180602001604052806000815250604051806020016040528060008152506040518060200160405280600081525061386d565b60008261309a575060006112f4565b828202828482816130a757fe5b0414612cce5760405162461bcd60e51b815260040180806020018281038252602181526020018061478b6021913960400191505060405180910390fd5b6130ee8282613a81565b6000818152601b6020526040902054600260001961010060018416150201909116041561312c576000818152601b6020526040812061312c9161451e565b6000818152601a602052604081205460195490919061315290600163ffffffff612c8c16565b905060006019828154811061316357fe5b90600052602060002001549050806019848154811061317e57fe5b906000526020600020018190555060006019838154811061319b57fe5b60009182526020909120015560198054906131ba906000198301614562565b506000848152601a6020526040808220829055828252812084905560068054600192601c92600492899081106131ec57fe5b6000918252602080832060039092029091015463ffffffff16835282019290925260400190205460ff166007811061322057fe5b015403601c600460006006888154811061323657fe5b6000918252602080832060039092029091015463ffffffff16835282019290925260400190205460ff166007811061326a57fe5b01819055506000600760006006878154811061328257fe5b6000918252602080832060039092029091015463ffffffff16835282019290925260400190206006015490506132b83382612838565b600685815481106132c557fe5b600091825260208220600390910201805463ffffffff19168155600181018290556002015560068054869081106132f857fe5b60009182526020918290206003909102015460408051848152905163ffffffff90921692889233927f5aa0c75e571d3ecae876f03a84d247806f1af6caf4f377701179de62b7095f1492908290030190a4505050505050565b6001600160a01b0381166133965760405162461bcd60e51b815260040180806020018281038252602681526020018061465f6026913960400191505060405180910390fd5b600080546040516001600160a01b03808516939216917f8be0079c531659141344cd1fd0a4f28419497f9722a3daafe3b4186f6b6457e091a3600080546001600160a01b0319166001600160a01b0392909216919091179055565b6133fb8282613ab1565b601980546000838152601a60205260408120829055600182018355919091527f944998273e477b495144fb8794c914197f3ccb46be2900f4698fd0ef743c9695015550565b61344982612817565b61345257600080fd5b6000828152601b6020908152604090912082516112a792840190614586565b61347c838383613ace565b6134868382613c12565b6112a78282613d07565b6000818484111561351f5760405162461bcd60e51b81526004018080602001828103825283818151815260200191508051906020019080838360005b838110156134e45781810151838201526020016134cc565b50505050905090810190601f1680156135115780820380516001836020036101000a031916815260200191505b509250505060405180910390fd5b505050900390565b600b5460408051426020808301919091523360601b828401526054808301949094528251808303909401845260749091019091528151910120600090819083908161356e57fe5b600b80546001019055069392505050565b613587614500565b816135cd57506040805160e081018252600080825260208201819052918101919091526001606082015260326080820152610a8c60a082015261271060c0820152610e10565b6000806000806135dc86613d45565b93509350935093506135ec614500565b506040805160e0810182526000808252602082018190529181019190915261ffff9182166060820152918116608083015291821660a0820152911660c082015292915050565b6000613646846001600160a01b0316613eb1565b61365257506001612c79565b600060606001600160a01b038616630a85bd0160e11b613670612834565b89888860405160240180856001600160a01b03166001600160a01b03168152602001846001600160a01b03166001600160a01b0316815260200183815260200180602001828103825283818151815260200191508051906020019080838360005b838110156136e95781810151838201526020016136d1565b50505050905090810190601f1680156137165780820380516001836020036101000a031916815260200191505b5060408051601f198184030181529181526020820180516001600160e01b03166001600160e01b0319909a16999099178952518151919890975087965094509250829150849050835b6020831061377e5780518252601f19909201916020918201910161375f565b6001836020036101000a0380198251168184511680821785525050505050509050019150506000604051808303816000865af19150503d80600081146137e0576040519150601f19603f3d011682016040523d82523d6000602084013e6137e5565b606091505b509150915081613836578051156137ff5780518082602001fd5b60405162461bcd60e51b815260040180806020018281038252603281526020018061462d6032913960400191505060405180910390fd5b600081806020019051602081101561384d57600080fd5b50516001600160e01b031916630a85bd0160e11b149350612c7992505050565b6060808690506060869050606086905060608690506060869050606081518351855187518951010101016040519080825280601f01601f1916602001820160405280156138c1576020820181803883390190505b509050806000805b885181101561391a578881815181106138de57fe5b602001015160f81c60f81b8383806001019450815181106138fb57fe5b60200101906001600160f81b031916908160001a9053506001016138c9565b5060005b875181101561396f5787818151811061393357fe5b602001015160f81c60f81b83838060010194508151811061395057fe5b60200101906001600160f81b031916908160001a90535060010161391e565b5060005b86518110156139c45786818151811061398857fe5b602001015160f81c60f81b8383806001019450815181106139a557fe5b60200101906001600160f81b031916908160001a905350600101613973565b5060005b8551811015613a19578581815181106139dd57fe5b602001015160f81c60f81b8383806001019450815181106139fa57fe5b60200101906001600160f81b031916908160001a9053506001016139c8565b5060005b8451811015613a6e57848181518110613a3257fe5b602001015160f81c60f81b838380600101945081518110613a4f57fe5b60200101906001600160f81b031916908160001a905350600101613a1d565b50909d9c50505050505050505050505050565b613a8b8282613eea565b613a958282613c12565b600081815260126020526040812055613aad81613fc1565b5050565b613abb828261405d565b613ac58282613d07565b613aad8161418e565b826001600160a01b0316613ae1826115e4565b6001600160a01b031614613b265760405162461bcd60e51b81526004018080602001828103825260298152602001806147f86029913960400191505060405180910390fd5b6001600160a01b038216613b6b5760405162461bcd60e51b81526004018080602001828103825260248152602001806146b06024913960400191505060405180910390fd5b613b74816141d2565b6001600160a01b0383166000908152600f60205260409020613b959061420d565b6001600160a01b0382166000908152600f60205260409020613bb690614224565b6000818152600d602052604080822080546001600160a01b0319166001600160a01b0386811691821790925591518493918716917fddf252ad1be2c89b69c2b068fc378daa952ba7f163c4a11628f55a4df523b3ef91a4505050565b6001600160a01b038216600090815260116020526040812054613c3c90600163ffffffff612c8c16565b600083815260126020526040902054909150808214613cd7576001600160a01b0384166000908152601160205260408120805484908110613c7957fe5b906000526020600020015490508060116000876001600160a01b03166001600160a01b031681526020019081526020016000208381548110613cb757fe5b600091825260208083209091019290925591825260129052604090208190555b6001600160a01b0384166000908152601160205260409020805490613d00906000198301614562565b5050505050565b6001600160a01b0390911660009081526011602081815260408084208054868652601284529185208290559282526001810183559183529091200155565b600080600080613d536145f4565b5060408051608081018252600181526002602082015260039181019190915260046060820152613d816145f4565b5060408051608081018252600181526002602082015260069181019190915260186060820152613daf6145f4565b613db76145f4565b60005b6004811015613e2a57838160048110613dcf57fe5b602002015160ff16613de08b61422d565b868360048110613dec57fe5b602002015160ff16613dfd8d61422d565b0a81613e0557fe5b0481613e0d57fe5b04606402838260048110613e1d57fe5b6020020152600101613dba565b50606082015160408301516020840151845101010160005b6004811015613e8b5781848260048110613e5857fe5b60200201516127100281613e6857fe5b04838260048110613e7557fe5b61ffff9092166020929092020152600101613e42565b5050805160208201516040830151606090930151919b909a509198509650945050505050565b6000813f7fc5d2460186f7233c927e7db2dcc703c0e500b653ca82273b7bfad8045d85a470818114801590612c79575050151592915050565b816001600160a01b0316613efd826115e4565b6001600160a01b031614613f425760405162461bcd60e51b81526004018080602001828103825260258152602001806148e76025913960400191505060405180910390fd5b613f4b816141d2565b6001600160a01b0382166000908152600f60205260409020613f6c9061420d565b6000818152600d602052604080822080546001600160a01b0319169055518291906001600160a01b038516907fddf252ad1be2c89b69c2b068fc378daa952ba7f163c4a11628f55a4df523b3ef908390a45050565b601354600090613fd890600163ffffffff612c8c16565b60008381526014602052604081205460138054939450909284908110613ffa57fe5b90600052602060002001549050806013838154811061401557fe5b60009182526020808320909101929092558281526014909152604090208290556013805490614048906000198301614562565b50505060009182525060146020526040812055565b6001600160a01b0382166140b8576040805162461bcd60e51b815260206004820181905260248201527f4552433732313a206d696e7420746f20746865207a65726f2061646472657373604482015290519081900360640190fd5b6140c181612817565b15614113576040805162461bcd60e51b815260206004820152601c60248201527f4552433732313a20746f6b656e20616c7265616479206d696e74656400000000604482015290519081900360640190fd5b6000818152600d6020908152604080832080546001600160a01b0319166001600160a01b0387169081179091558352600f909152902061415290614224565b60405181906001600160a01b038416906000907fddf252ad1be2c89b69c2b068fc378daa952ba7f163c4a11628f55a4df523b3ef908290a45050565b601380546000838152601460205260408120829055600182018355919091527f66de8ffda797e3de9c05e8fc57b3bf0ec28a930d40b0d285d93c06501cf6a0900155565b6000818152600e60205260409020546001600160a01b03161561136e576000908152600e6020526040902080546001600160a01b0319169055565b805461422090600163ffffffff612c8c16565b9055565b80546001019055565b60008061423e620445c08404614249565b600490049392505050565b604080517ff8f9cbfae6cc78fbefe7cdc3a1793dfcf4f0e8bbd8cec470b6a28a7a5a3e1efd81527ff5ecf1b3e9debc68e1d9cfabc5997135bfb7a7a3938b7b606b5b4b3f2f1f0ffe60208201527ff6e4ed9ff2d6b458eadcdf97bd91692de2d4da8fd2d0ac50c6ae9a8272523616818301527fc8c0b887b0a8a4489c948c7f847c6125746c645c544c444038302820181008ff60608201527ff7cae577eec2a03cf3bad76fb589591debb2dd67e0aa9834bea6925f6a4a2e0e60808201527fe39ed557db96902cd38ed14fad815115c786af479b7e8324736353433727170760a08201527fc976c13bb96e881cb166a933a55e490d9d56952b8d4e801485467d236242260660c08201527f753a6d1b65325d0c552a4d1345224105391a310b29122104190a11030902010060e0820152610100808201909252600160f81b6001600160801b68010000000000000000600160201b620100006010600460026000198c019081041790810417908104178881041790810417908104179081041790810417017e818283848586878898a8b8c8d8e8f929395969799a9b9d9e9faaeb6bedeeff0281900460ff039091015104600160ff1b909211020190565b828054600181600116156101000203166002900490600052602060002090601f016020900481019282601f106144475782800160ff19823516178555614474565b82800160010185558215614474579182015b82811115614474578235825591602001919060010190614459565b50614480929150614612565b5090565b604051806101200160405280600063ffffffff16815260200160608152602001606081526020016000815260200160008152602001600081526020016000815260200160008152602001600060ff1681525090565b6040518060600160405280600063ffffffff16815260200160008152602001600081525090565b6040518060e001604052806007906020820280388339509192915050565b50805460018160011615610100020316600290046000825580601f10614544575061136e565b601f01602090049060005260206000209081019061136e9190614612565b8154818355818111156112a7576000838152602090206112a7918101908301614612565b828054600181600116156101000203166002900490600052602060002090601f016020900481019282601f106145c757805160ff1916838001178555614474565b82800160010185558215614474579182015b828111156144745782518255916020019190600101906145d9565b60405180608001604052806004906020820280388339509192915050565b610ea991905b80821115614480576000815560010161461856fe4552433732313a207472616e7366657220746f206e6f6e20455243373231526563656976657220696d706c656d656e7465724f776e61626c653a206e6577206f776e657220697320746865207a65726f20616464726573734e6f7420656e6f7567682045746865722073656e7420746f207075726368617365207468697320636172644552433732313a207472616e7366657220746f20746865207a65726f20616464726573734552433732313a206f70657261746f7220717565727920666f72206e6f6e6578697374656e7420746f6b656e4552433732313a20617070726f76652063616c6c6572206973206e6f74206f776e6572206e6f7220617070726f76656420666f7220616c6c4552433732313a2062616c616e636520717565727920666f7220746865207a65726f20616464726573734552433732313a206f776e657220717565727920666f72206e6f6e6578697374656e7420746f6b656e536166654d6174683a206d756c7469706c69636174696f6e206f766572666c6f774552433732313a20617070726f76656420717565727920666f72206e6f6e6578697374656e7420746f6b656e4f776e61626c653a2063616c6c6572206973206e6f7420746865206f776e65724552433732313a207472616e73666572206f6620746f6b656e2074686174206973206e6f74206f776e43616e277420636c61696d206265666f72652074696d6520746f20636c61696d206e65787420626f6e757343616e6e6f7420627579206361726473207468617420617265206e6f7420646566696e65644552433732313a20617070726f76616c20746f2063757272656e74206f776e65724f6e6c79203120436172642054797065207075726368617365207065722077616c6c65744552433732313a207472616e736665722063616c6c6572206973206e6f74206f776e6572206e6f7220617070726f7665644552433732313a206275726e206f6620746f6b656e2074686174206973206e6f74206f776e4d6178696d756d2065646974696f6e207265616368656420666f7220746869732043617264205479706557616c6c657420646f6573206e6f74206861766520656e6f75676820637a787020746f20756e6c6f636b207468697320436172642054797065a265627a7a72305820759109fcf56c744220d1b258d10db9fa542a3d4706dda9021874de29e377f8db64736f6c63430005090032",
  "source": "pragma solidity ^0.5.0;\n\n/******************************************\n\nOur Matra our Motto for coding The Cryptoz Universe.buy\n\n      Fail EARLY and Fail LOUD !!!!!!!\n\n1.    First - Check all pre-conditions\n2.    Then  - make changes to contract state\n3.    Final - interact with other contracts\n\nPull funds over pushing them\nPlatform limits like max of 1023 loop interations.\n\nall Events start with Log\n\n******************************************/\n\nimport \"./CryptozCard.sol\";\n\ncontract Cryptoz is CryptozCard {\n    \n//Constants\n    uint constant private weiCostOfCard = 2000000000000000; //booster in wei = 0.002 ETH\n    uint constant private czxpGainedBoosterPurchase = 120;\n    uint constant private maxCardTypes = 5000; //allowed types in the Universe\n\n//Event Logs\n    event LogCardTypeLoaded(uint32 indexed cardTypeId, string cardName);\n    event LogCardPurchased(uint32 indexed cardTypeId, uint editionNumber, address indexed buyer);\n    event LogPackOpened(address indexed buyer, uint packsOpened);\n    event LogSponsorLinked(address sponsor, address affiliate);\n    event LogSponsorReward(address sponsor, address affiliate, uint CzxpReward);\n    event LogDailyReward(address player, uint newBonusBalance);\n\n//storage\n\n    //Tracking affiliate sponsors\n    mapping(address => address) public sponsors; // 1 sponsor can have many affiliates, but only 1 sponsor, returns sponsor\n    \n    //Track the timestamps for users to get their daily pull\n    mapping(address => uint) private timeToCardsPull; //address to timestamp\n    \n    //Tracking booster pack count ownership. These are NOT tokens, just a counter for fun, not really\n    mapping (address => uint256) public boosterPacksOwned;\n    \n    //where we hold inventory of the  booster packs\n    mapping(uint8 => uint32[]) private allBoosterCardIds; // [rarityId][cardId]\n    \n    //check if cardType exists\n    modifier isValidCard(uint32 _cardTypeId) {\n//TIGHTEN   //Make sure cardType exists and we dont have bad data coming in\n        require(allCardTypes[_cardTypeId].cardTypeId == _cardTypeId);\n        require(storeBoosterBonus[_cardTypeId] < 1); //you cant get cards marked for booster pack or bonus\n        _;\n    }\n    \n    function() external {\n        revert();\n    }\n\n    //Set our cxzp contract in the constructor\n    function initialize(address payable _czxpContractAddress) onlyOwner public {\n        CzxpContractAddress_ = _czxpContractAddress;\n    }\n\n    function loadNewCardType(\n            uint8 _cardTypeId,\n            string calldata _name,\n            string calldata _set,\n            uint8 _assetType,\n            uint8 _notStoreOrBonus,\n            uint8 _rarity,\n            uint16 _totalAvailable,\n            uint256 _weiCost,\n            uint256 _buyCzxp\n        ) external onlyOwner returns(bool){\n            \n        //what requires should we add ?\n        \n        //a max. of 5000 types in the universe ever\n        require(cardTypesIds.length <= maxCardTypes);\n        \n        //not allowed to update existing cardTypeIds\n        require(allCardTypes[_cardTypeId].cardTypeId == 0);\n        \n        allCardTypes[_cardTypeId].cardTypeId    = _cardTypeId;\n        allCardTypes[_cardTypeId].name          = _name;\n        allCardTypes[_cardTypeId].set           = _set;\n        cardAssetType[_cardTypeId]              = _assetType;\n        storeBoosterBonus[_cardTypeId]          = _notStoreOrBonus;\n        rarity[_cardTypeId]                     = _rarity;\n        totalAvailable[_cardTypeId]             = _totalAvailable;\n        allCardTypes[_cardTypeId].weiCost       = _weiCost;\n        allCardTypes[_cardTypeId].buyCzxp       = _buyCzxp;\n    \n        //If she be booster worthy\n        if(_notStoreOrBonus == 1){ // 0=store,1=booster,2=bonus\n            allBoosterCardIds[_rarity].push(_cardTypeId);\n        }\n        \n        //Track the cardTypeIds count\n        cardTypesIds.push(_cardTypeId);\n        return true;\n    }\n\n    function addTocardType(\n                        uint32  _cardTypeId,\n                        uint256 _transferCzxp,\n                        uint256 _sacrificeCzxp,\n                        uint256 _unlockCzxp,\n                        uint8 _cardLevel\n                      ) external onlyOwner returns(bool){\n                          \n        //not allowed to update existing cardTypeIds\n//TODO check for NULL in case we push 0 for a property\n        require(allCardTypes[_cardTypeId].transferCzxp == 0);\n        require(allCardTypes[_cardTypeId].sacrificeCzxp == 0);\n        require(allCardTypes[_cardTypeId].unlockCzxp == 0);\n        require(allCardTypes[_cardTypeId].cardLevel == 0);\n                          \n        require(allCardTypes[_cardTypeId].cardTypeId == _cardTypeId);\n        \n        \n        allCardTypes[_cardTypeId].transferCzxp  = _transferCzxp;\n        allCardTypes[_cardTypeId].sacrificeCzxp = _sacrificeCzxp;\n        allCardTypes[_cardTypeId].unlockCzxp    = _unlockCzxp;\n        allCardTypes[_cardTypeId].cardLevel     = _cardLevel;\n        \n        //initialize editionNumber\n        cardTypeToEdition[_cardTypeId] = 0;\n        \n        //Card type is defined, now emit a Log of it\n        emit LogCardTypeLoaded(_cardTypeId,allCardTypes[_cardTypeId].name);\n        return true;\n    }\n    \n    \n/**\n    /**\n     *  Public interface to purchase a card, probablly the most insecure entry point !\n     */\n    function buyCard(uint32 _cardTypeId) external payable isValidCard(_cardTypeId) returns(bool) {\n        \n        // dont even bother if no ETH sent\n        require(msg.value > 0, \"Pay up!\");\n        \n        //check for valid cardType\n        require(allCardTypes[_cardTypeId].cardTypeId == _cardTypeId, \"Cannot buy cards that are not defined\");\n        \n        cardType memory _tempCard = allCardTypes[_cardTypeId];\n        \n        //check if store only\n        require(storeBoosterBonus[_cardTypeId] == 0, \"Can only buy cards from Store\");\n        \n        //CHECKS-EFFECT, Can't buy cards you own\n        require(cardTypesOwned[msg.sender][_cardTypeId] == false, \"Only 1 Card Type purchase per wallet\");\n         \n        //Check if this card amount we sell is more than edition+1 for this card type\n        require((totalAvailable[_cardTypeId] >= cardTypeToEdition[_cardTypeId] + 1 ), \"Maximum edition reached for this Card Type\");\n        \n        //check if they have paid enough for it\n        require(msg.value >= _tempCard.weiCost, \"Not enough Ether sent to purchase this card\");\n        \n        //check if we have enough czxp to unlock this card\n        uint czxp = CzxpToken(CzxpContractAddress_).balanceOf(msg.sender);\n        require(czxp >= _tempCard.unlockCzxp, \"Wallet does not have enough czxp to unlock this Card Type\");\n        \n    //Clear ? to buy the card\n    \n        //stop re-entrancy. Track the type of card puchased for this owner, so they cant buy again\n        cardTypesOwned[msg.sender][_cardTypeId] = true;\n        \n        //Let the universe award our friend\n        super.awardCzxp(msg.sender, allCardTypes[_cardTypeId].buyCzxp);\n        \n        //and award their sponsor\n        rewardAffiliate(allCardTypes[_cardTypeId].buyCzxp);\n    \n        //Mint the real token and pass czxp gained for logging\n        super._createCard(_cardTypeId, msg.sender,allCardTypes[_cardTypeId].buyCzxp);\n        \n        \n        return true;\n    }\n    \n    //every 8 hours, the address can get 2 free booster cards\n    function getBonusBoosters() external {\n        //this only runs if time to get new cards\n        require(now > getTimeToDailyBonus(msg.sender), \"Can't claim before time to claim next bonus\");\n        \n        //Stop re-entrancy, update the lastpull value\n        timeToCardsPull[msg.sender] = now + 8 hours;\n        \n        // add the boosters and emit event\n        boosterPacksOwned[msg.sender] = boosterPacksOwned[msg.sender].add(2);\n        emit LogDailyReward(msg.sender, boosterPacksOwned[msg.sender]);\n    }\n    \n    /**\n     *  Public interface to get card at no cost\n     */\n    function getFreeCard(uint32 _cardTypeId) external isValidCard(_cardTypeId) {\n        //check if store only\n        require(storeBoosterBonus[_cardTypeId] == 0);\n        \n        // ensure there is enough of a supply left\n        require(totalAvailable[_cardTypeId] > (cardTypeToEdition[_cardTypeId]+1));\n        \n        //Can't get cards From shop that you own\n        require(cardTypesOwned[msg.sender][_cardTypeId] == false);\n        \n        //check if we have enough czxp to unlock this card\n        uint czxp = CzxpToken(CzxpContractAddress_).balanceOf(msg.sender);\n        require(czxp >= allCardTypes[_cardTypeId].unlockCzxp);\n        \n        //Only cards that are Free\n        require(allCardTypes[_cardTypeId].weiCost == 0);\n\n//ALL CLEAR ???????? claim a new card\n    \n        //Stop re-entrancy, Track the type of card puchased for this owner, so they cant buy again\n        cardTypesOwned[msg.sender][_cardTypeId] = true;\n        \n        //Let the universe award our friend\n        super.awardCzxp(msg.sender, allCardTypes[_cardTypeId].buyCzxp);\n        \n        //reward the sponsor\n        rewardAffiliate(allCardTypes[_cardTypeId].buyCzxp);\n        \n        //now mint the card\n        super._createCard(_cardTypeId, msg.sender, allCardTypes[_cardTypeId].buyCzxp);\n    \n    }\n    \n    /**\n     *  Any user can sacrifice any card they own. Please don't burn down the universe :'(\n     */\n     function sacrifice(uint256 _tokenId) external {\n         //Call our internal burn function does all our owner checks\n         _burn(msg.sender, _tokenId);\n     }\n    \n//Booster Pack functions\n \n    /**\n     *  Public interface to buy booster card(s)\n    */\n    function buyBoosterCard(uint _amount) payable external returns(bool) {\n        \n        // is there enough wei sent 1 pack = 0.002 ETH ?\n        require(msg.value >= weiCostOfCard.mul(_amount));\n        \n        //All good increase the number owned\n        boosterPacksOwned[msg.sender] = boosterPacksOwned[msg.sender].add(_amount);\n\n        //Award czxp for booster\n        super.awardCzxp(msg.sender, uint(czxpGainedBoosterPurchase.mul(_amount)));\n        \n        rewardAffiliate(uint(czxpGainedBoosterPurchase.mul(_amount)));\n\n        return true;\n    }\n    \n    /**\n     *  Public interface to buy booster pack(s) and open them - NO burn option\n     */\n    function buyBoosterCardAndOpen() payable external {\n        // is there enough wei sent 1 pack = 0.005 ETH ?\n        require(msg.value >= weiCostOfCard);\n        \n        //All good increase the number owned\n        boosterPacksOwned[msg.sender] = boosterPacksOwned[msg.sender].add(1);\n\n        //Award czxp per pack\n        super.awardCzxp(msg.sender, czxpGainedBoosterPurchase);\n        \n        rewardAffiliate(czxpGainedBoosterPurchase);\n        \n        //Now open the pack\n        openBoosterCard(0);\n    }\n    \n    /**\n     *  Public interface to open already purchased booster pack(s) - User can wager an amount\n     */\n    function openBoosterCard(uint czxpWager) public returns(bool) {\n        //Ensure user owns unopened packs\n        require(boosterPacksOwned[msg.sender] > 0);\n        \n        //czxpWager check czxpWager\n        require(czxpWager >= 0);\n        \n        //STOP re-entrancy , decrement number of packs\n        boosterPacksOwned[msg.sender] = boosterPacksOwned[msg.sender].sub(1);\n        \n        //Pull the card\n        uint8 rarity = getRarity(czxpWager);\n        pullCard(rarity);\n        \n        //Send a log event\n        emit LogPackOpened(msg.sender, rarity);\n        return true;\n    }\n   \n    /**\n     * Public interface to allow a player to forever link their 1 sponsor\n     */\n    function linkMySponsor(address mySponsor) external {\n        //check that mySponsor arg is not 0x0\n        require(mySponsor != address(0));\n        \n        //ensure the sponsor isn't Linked\n        require(sponsors[msg.sender] == address(0));\n        \n        //Check they are not linking to themselves\n        require(msg.sender != mySponsor);\n        \n        //All clear?  stop re-entrancy, set the association\n        sponsors[msg.sender] = mySponsor;\n        \n        //Mint the Platinum Sponsor Card\n        pullCard(2);\n    }\n\n//Private\n\n    /**\n     * We always pay our affiliates 20% of the czxp\n     */\n     function rewardAffiliate(uint totalCZXP) private  {\n         //first check if the caller has a sponsor\n         if(sponsors[msg.sender] != address(0)){\n             uint reward = totalCZXP / 20;\n             if(reward == 0){\n                 reward = 1;\n             }\n             super.awardCzxp(sponsors[msg.sender], reward);\n             emit LogSponsorReward(sponsors[msg.sender], msg.sender, reward);\n         }\n     }\n\n    /**\n     *\n     */\n     function pullCard(uint8 rarity) private {\n         \n         //Get a random number for the card to pull\n         uint rand = selectRandom(allBoosterCardIds[rarity].length);\n         \n         //hit up the cardTypes\n         uint32 pulledId = allBoosterCardIds[rarity][rand];\n         \n        //Give the player this cardType\n        super._createCard(pulledId, msg.sender, 100);\n     }\n    \n    /**\n     *  Private function to diceroll the rarity pull Only from booster packs\n     */\n    function getRarity(uint czxpWager) private returns(uint8){\n        \n        //Check if below upper limit\n        require(czxpWager <= 1649267441667000);\n        \n        //FIRST ensure, player can back their wager\n        uint _playerCZXPBalance = CzxpToken(CzxpContractAddress_).balanceOf(msg.sender);\n        require(_playerCZXPBalance >= czxpWager);\n        \n        //Check effects - Take their czxp\n        if(czxpWager > 0){\n            CzxpToken(CzxpContractAddress_).burnCzxp(msg.sender, czxpWager);\n        }\n        \n        //ALL CLEAR - grab a random number\n        uint rand = selectRandom(10000);\n\n        //get our probabilty distribution\n        uint16[7] memory probs = burnAndBoost(czxpWager);\n        \n        //Get the rarity for this pull from the probs\n        // 3=epic, 4=rare, 5=uncommon, 6=commmon\n        for(uint8 i=2; i < probs.length; i++){\n            if(rand <= probs[i]){\n                return i;\n            }\n        }\n//REMOVE THIS !!!!\n        return 6;\n    }\n    \n    \n    /**\n     * Private Booster distribution function\n     */\n     function burnAndBoost(uint czxpWager) private returns(uint16[7] memory) {\n        \n        //buyBoosterCardAndOpen will pass a zero, set a default\n        if(czxpWager == 0){\n            return [0,0,0,1,50,2700,10000];\n        }\n         \n        (uint16 c, uint16 u, uint16 r, uint16 e) = super.getProbs(czxpWager);\n        \n        //default distribution is 1,50,2700,10000\n         uint16[7] memory probs = [0,0,0,e,r,u,c];\n         \n        return probs;\n     }\n     \n     /**\n      * Return the timestamp of the next daily bonus for a player\n      */\n      function getTimeToDailyBonus(address _player) public view returns(uint timeStamp){\n          \n          //check if address exists\n          if(timeToCardsPull[_player] == 0){\n              return now - 2 seconds;\n          }else{\n              return timeToCardsPull[_player];\n          }\n      }\n\n\n//Thanks! for supporting the Cryptoz universe <3 <3 <3\n    /**\n    * Withdraw balance to wallet ONLY for the owner to call this\n    */\n   function withdraw() external onlyOwner {\n      msg.sender.transfer(address(this).balance);\n   }\n}",
  "sourcePath": "/home/rprice/Downloads/cryptoz.cards/contracts/Cryptoz.sol",
  "compiler": {
    "name": "solc",
    "version": "0.5.9+commit.e560f70d.Emscripten.clang"
  },
  "schemaVersion": "3.3.4",
  "updatedAt": "2021-02-27T16:47:26.295Z",
  "networkType": "ethereum",
  "devdoc": {
    "methods": {
      "approve(address,uint256)": {
        "details": "Approves another address to transfer the given token ID The zero address indicates there is no approved address. There can only be one approved address per token at a given time. Can only be called by the token owner or an approved operator.",
        "params": {
          "to": "address to be approved for the given token ID",
          "tokenId": "uint256 ID of the token to be approved"
        }
      },
      "balanceOf(address)": {
        "details": "Gets the balance of the specified address.",
        "params": {
          "owner": "address to query the balance of"
        },
        "return": "uint256 representing the amount owned by the passed address"
      },
      "getApproved(uint256)": {
        "details": "Gets the approved address for a token ID, or zero if no address set Reverts if the token ID does not exist.",
        "params": {
          "tokenId": "uint256 ID of the token to query the approval of"
        },
        "return": "address currently approved for the given token ID"
      },
      "isApprovedForAll(address,address)": {
        "details": "Tells whether an operator is approved by a given owner.",
        "params": {
          "operator": "operator address which you want to query the approval of",
          "owner": "owner address which you want to query the approval of"
        },
        "return": "bool whether the given operator is approved by the given owner"
      },
      "isOwner()": {
        "details": "Returns true if the caller is the current owner."
      },
      "name()": {
        "details": "Gets the token name",
        "return": "string representing the token name"
      },
      "owner()": {
        "details": "Returns the address of the current owner."
      },
      "ownerOf(uint256)": {
        "details": "Gets the owner of the specified token ID.",
        "params": {
          "tokenId": "uint256 ID of the token to query the owner of"
        },
        "return": "address currently marked as the owner of the given token ID"
      },
      "renounceOwnership()": {
        "details": "Leaves the contract without owner. It will not be possible to call `onlyOwner` functions anymore. Can only be called by the current owner.     * NOTE: Renouncing ownership will leave the contract without an owner, thereby removing any functionality that is only available to the owner."
      },
      "safeTransferFrom(address,address,uint256)": {
        "details": "Safely transfers the ownership of a given token ID to another address If the target address is a contract, it must implement {IERC721Receiver-onERC721Received}, which is called upon a safe transfer, and return the magic value `bytes4(keccak256(\"onERC721Received(address,address,uint256,bytes)\"))`; otherwise, the transfer is reverted. Requires the msg.sender to be the owner, approved, or operator",
        "params": {
          "from": "current owner of the token",
          "to": "address to receive the ownership of the given token ID",
          "tokenId": "uint256 ID of the token to be transferred"
        }
      },
      "safeTransferFrom(address,address,uint256,bytes)": {
        "details": "Safely transfers the ownership of a given token ID to another address If the target address is a contract, it must implement {IERC721Receiver-onERC721Received}, which is called upon a safe transfer, and return the magic value `bytes4(keccak256(\"onERC721Received(address,address,uint256,bytes)\"))`; otherwise, the transfer is reverted. Requires the _msgSender() to be the owner, approved, or operator",
        "params": {
          "_data": "bytes data to send along with a safe transfer check",
          "from": "current owner of the token",
          "to": "address to receive the ownership of the given token ID",
          "tokenId": "uint256 ID of the token to be transferred"
        }
      },
      "setApprovalForAll(address,bool)": {
        "details": "Sets or unsets the approval of a given operator An operator is allowed to transfer all tokens of the sender on their behalf.",
        "params": {
          "approved": "representing the status of the approval to be set",
          "to": "operator address to set the approval"
        }
      },
      "supportsInterface(bytes4)": {
        "details": "See {IERC165-supportsInterface}.     * Time complexity O(1), guaranteed to always use less than 30 000 gas."
      },
      "symbol()": {
        "details": "Gets the token symbol",
        "return": "string representing the token symbol"
      },
      "tokenByIndex(uint256)": {
        "details": "Gets the token ID at a given index of all the tokens in this contractReverts if the index is greater or equal to the total number of tokens",
        "params": {
          "_index": "uint256 representing the index to be accessed of the tokens list"
        },
        "return": "uint256 token ID at the given index of the tokens list"
      },
      "tokenOfOwnerByIndex(address,uint256)": {
        "details": "Gets the token ID at a given index of the tokens list of the requested owner",
        "params": {
          "_index": "uint256 representing the index to be accessed of the requested tokens list",
          "_owner": "address owning the tokens list to be accessed"
        },
        "return": "uint256 token ID at the given index of the tokens list owned by the requested address"
      },
      "tokenURI(uint256)": {
        "details": "Returns an URI for a given token IDThrows if the token ID does not exist. May return an empty string.",
        "params": {
          "_tokenId": "uint256 ID of the token to query"
        }
      },
      "totalSupply()": {
        "details": "Gets the total amount of tokens stored by the contract",
        "return": "uint256 representing the total amount of tokens"
      },
      "transferOwnership(address)": {
        "details": "Transfers ownership of the contract to a new account (`newOwner`). Can only be called by the current owner."
      }
    }
  },
  "userdoc": {
    "methods": {
      "buyBoosterCard(uint256)": {
        "notice": "Public interface to buy booster card(s)"
      },
      "buyBoosterCardAndOpen()": {
        "notice": "Public interface to buy booster pack(s) and open them - NO burn option"
      },
      "buyCard(uint32)": {
        "notice": "/** Public interface to purchase a card, probablly the most insecure entry point !"
      },
      "getFreeCard(uint32)": {
        "notice": "Public interface to get card at no cost"
      },
      "getTimeToDailyBonus(address)": {
        "notice": "Return the timestamp of the next daily bonus for a player"
      },
      "linkMySponsor(address)": {
        "notice": "Public interface to allow a player to forever link their 1 sponsor"
      },
      "openBoosterCard(uint256)": {
        "notice": "Public interface to open already purchased booster pack(s) - User can wager an amount"
      },
      "sacrifice(uint256)": {
        "notice": "Any user can sacrifice any card they own. Please don't burn down the universe :'("
      },
      "transferFrom(address,address,uint256)": {
        "notice": "Public method to allow file transfer, we call our internal function"
      },
      "withdraw()": {
        "notice": "Withdraw balance to wallet ONLY for the owner to call this"
      }
    }
  }
}