{
  "contractName": "CryptozCard",
  "abi": [
    {
      "constant": true,
      "inputs": [
        {
          "name": "_interfaceId",
          "type": "bytes4"
        }
      ],
      "name": "supportsInterface",
      "outputs": [
        {
          "name": "",
          "type": "bool"
        }
      ],
      "payable": false,
      "stateMutability": "view",
      "type": "function"
    },
    {
      "constant": true,
      "inputs": [
        {
          "name": "_tokenId",
          "type": "uint256"
        }
      ],
      "name": "getApproved",
      "outputs": [
        {
          "name": "",
          "type": "address"
        }
      ],
      "payable": false,
      "stateMutability": "view",
      "type": "function"
    },
    {
      "constant": false,
      "inputs": [
        {
          "name": "_to",
          "type": "address"
        },
        {
          "name": "_tokenId",
          "type": "uint256"
        }
      ],
      "name": "approve",
      "outputs": [],
      "payable": false,
      "stateMutability": "nonpayable",
      "type": "function"
    },
    {
      "constant": true,
      "inputs": [],
      "name": "InterfaceId_ERC165",
      "outputs": [
        {
          "name": "",
          "type": "bytes4"
        }
      ],
      "payable": false,
      "stateMutability": "view",
      "type": "function"
    },
    {
      "constant": false,
      "inputs": [
        {
          "name": "wager",
          "type": "uint256"
        }
      ],
      "name": "getLambda",
      "outputs": [
        {
          "name": "",
          "type": "uint256"
        }
      ],
      "payable": false,
      "stateMutability": "nonpayable",
      "type": "function"
    },
    {
      "constant": false,
      "inputs": [],
      "name": "withdraw",
      "outputs": [],
      "payable": false,
      "stateMutability": "nonpayable",
      "type": "function"
    },
    {
      "constant": false,
      "inputs": [
        {
          "name": "_from",
          "type": "address"
        },
        {
          "name": "_to",
          "type": "address"
        },
        {
          "name": "_tokenId",
          "type": "uint256"
        }
      ],
      "name": "safeTransferFrom",
      "outputs": [],
      "payable": false,
      "stateMutability": "nonpayable",
      "type": "function"
    },
    {
      "constant": true,
      "inputs": [
        {
          "name": "",
          "type": "uint32"
        }
      ],
      "name": "allCardTypes",
      "outputs": [
        {
          "name": "cardTypeId",
          "type": "uint32"
        },
        {
          "name": "name",
          "type": "string"
        },
        {
          "name": "set",
          "type": "string"
        },
        {
          "name": "weiCost",
          "type": "uint256"
        },
        {
          "name": "buyCzxp",
          "type": "uint256"
        },
        {
          "name": "transferCzxp",
          "type": "uint256"
        },
        {
          "name": "sacrificeCzxp",
          "type": "uint256"
        },
        {
          "name": "unlockCzxp",
          "type": "uint256"
        },
        {
          "name": "cardLevel",
          "type": "uint8"
        }
      ],
      "payable": false,
      "stateMutability": "view",
      "type": "function"
    },
    {
      "constant": true,
      "inputs": [
        {
          "name": "",
          "type": "uint256"
        }
      ],
      "name": "tokensByRarity",
      "outputs": [
        {
          "name": "",
          "type": "uint256"
        }
      ],
      "payable": false,
      "stateMutability": "view",
      "type": "function"
    },
    {
      "constant": true,
      "inputs": [
        {
          "name": "_tokenId",
          "type": "uint256"
        }
      ],
      "name": "exists",
      "outputs": [
        {
          "name": "",
          "type": "bool"
        }
      ],
      "payable": false,
      "stateMutability": "view",
      "type": "function"
    },
    {
      "constant": false,
      "inputs": [
        {
          "name": "x",
          "type": "uint256"
        }
      ],
      "name": "log2",
      "outputs": [
        {
          "name": "y",
          "type": "uint256"
        }
      ],
      "payable": false,
      "stateMutability": "nonpayable",
      "type": "function"
    },
    {
      "constant": true,
      "inputs": [
        {
          "name": "_tokenId",
          "type": "uint256"
        }
      ],
      "name": "ownerOf",
      "outputs": [
        {
          "name": "",
          "type": "address"
        }
      ],
      "payable": false,
      "stateMutability": "view",
      "type": "function"
    },
    {
      "constant": true,
      "inputs": [
        {
          "name": "_owner",
          "type": "address"
        }
      ],
      "name": "balanceOf",
      "outputs": [
        {
          "name": "",
          "type": "uint256"
        }
      ],
      "payable": false,
      "stateMutability": "view",
      "type": "function"
    },
    {
      "constant": false,
      "inputs": [],
      "name": "renounceOwnership",
      "outputs": [],
      "payable": false,
      "stateMutability": "nonpayable",
      "type": "function"
    },
    {
      "constant": true,
      "inputs": [],
      "name": "getTotalTypes",
      "outputs": [
        {
          "name": "",
          "type": "uint256"
        }
      ],
      "payable": false,
      "stateMutability": "view",
      "type": "function"
    },
    {
      "constant": true,
      "inputs": [
        {
          "name": "",
          "type": "address"
        },
        {
          "name": "",
          "type": "uint256"
        }
      ],
      "name": "cardTypesOwned",
      "outputs": [
        {
          "name": "",
          "type": "bool"
        }
      ],
      "payable": false,
      "stateMutability": "view",
      "type": "function"
    },
    {
      "constant": false,
      "inputs": [
        {
          "name": "wager",
          "type": "uint256"
        }
      ],
      "name": "getProbs",
      "outputs": [
        {
          "name": "",
          "type": "uint16"
        },
        {
          "name": "",
          "type": "uint16"
        },
        {
          "name": "",
          "type": "uint16"
        },
        {
          "name": "",
          "type": "uint16"
        }
      ],
      "payable": false,
      "stateMutability": "nonpayable",
      "type": "function"
    },
    {
      "constant": true,
      "inputs": [
        {
          "name": "",
          "type": "uint256"
        }
      ],
      "name": "rarity",
      "outputs": [
        {
          "name": "",
          "type": "uint8"
        }
      ],
      "payable": false,
      "stateMutability": "view",
      "type": "function"
    },
    {
      "constant": true,
      "inputs": [],
      "name": "owner",
      "outputs": [
        {
          "name": "",
          "type": "address"
        }
      ],
      "payable": false,
      "stateMutability": "view",
      "type": "function"
    },
    {
      "constant": true,
      "inputs": [
        {
          "name": "",
          "type": "uint256"
        }
      ],
      "name": "cardTypesIds",
      "outputs": [
        {
          "name": "",
          "type": "uint256"
        }
      ],
      "payable": false,
      "stateMutability": "view",
      "type": "function"
    },
    {
      "constant": false,
      "inputs": [
        {
          "name": "_to",
          "type": "address"
        },
        {
          "name": "_approved",
          "type": "bool"
        }
      ],
      "name": "setApprovalForAll",
      "outputs": [],
      "payable": false,
      "stateMutability": "nonpayable",
      "type": "function"
    },
    {
      "constant": true,
      "inputs": [
        {
          "name": "",
          "type": "uint256"
        }
      ],
      "name": "cardTypeToEdition",
      "outputs": [
        {
          "name": "",
          "type": "uint256"
        }
      ],
      "payable": false,
      "stateMutability": "view",
      "type": "function"
    },
    {
      "constant": false,
      "inputs": [
        {
          "name": "_from",
          "type": "address"
        },
        {
          "name": "_to",
          "type": "address"
        },
        {
          "name": "_tokenId",
          "type": "uint256"
        },
        {
          "name": "_data",
          "type": "bytes"
        }
      ],
      "name": "safeTransferFrom",
      "outputs": [],
      "payable": false,
      "stateMutability": "nonpayable",
      "type": "function"
    },
    {
      "constant": true,
      "inputs": [
        {
          "name": "_owner",
          "type": "address"
        },
        {
          "name": "_operator",
          "type": "address"
        }
      ],
      "name": "isApprovedForAll",
      "outputs": [
        {
          "name": "",
          "type": "bool"
        }
      ],
      "payable": false,
      "stateMutability": "view",
      "type": "function"
    },
    {
      "constant": false,
      "inputs": [
        {
          "name": "_newOwner",
          "type": "address"
        }
      ],
      "name": "transferOwnership",
      "outputs": [],
      "payable": false,
      "stateMutability": "nonpayable",
      "type": "function"
    },
    {
      "payable": false,
      "stateMutability": "nonpayable",
      "type": "fallback"
    },
    {
      "anonymous": false,
      "inputs": [
        {
          "indexed": true,
          "name": "owner",
          "type": "address"
        },
        {
          "indexed": true,
          "name": "cardTokenId",
          "type": "uint256"
        },
        {
          "indexed": false,
          "name": "editionNumber",
          "type": "uint256"
        },
        {
          "indexed": true,
          "name": "cardTypeId",
          "type": "uint256"
        },
        {
          "indexed": false,
          "name": "CzxpGained",
          "type": "uint256"
        }
      ],
      "name": "LogCardCreated",
      "type": "event"
    },
    {
      "anonymous": false,
      "inputs": [
        {
          "indexed": true,
          "name": "owner",
          "type": "address"
        },
        {
          "indexed": true,
          "name": "cardTokenId",
          "type": "uint256"
        },
        {
          "indexed": true,
          "name": "cardTypeId",
          "type": "uint256"
        },
        {
          "indexed": false,
          "name": "CzxpGained",
          "type": "uint256"
        }
      ],
      "name": "SacrificeCardEvent",
      "type": "event"
    },
    {
      "anonymous": false,
      "inputs": [
        {
          "indexed": true,
          "name": "_from",
          "type": "address"
        },
        {
          "indexed": true,
          "name": "_to",
          "type": "address"
        },
        {
          "indexed": true,
          "name": "_tokenId",
          "type": "uint256"
        }
      ],
      "name": "Transfer",
      "type": "event"
    },
    {
      "anonymous": false,
      "inputs": [
        {
          "indexed": true,
          "name": "_owner",
          "type": "address"
        },
        {
          "indexed": true,
          "name": "_approved",
          "type": "address"
        },
        {
          "indexed": true,
          "name": "_tokenId",
          "type": "uint256"
        }
      ],
      "name": "Approval",
      "type": "event"
    },
    {
      "anonymous": false,
      "inputs": [
        {
          "indexed": true,
          "name": "_owner",
          "type": "address"
        },
        {
          "indexed": true,
          "name": "_operator",
          "type": "address"
        },
        {
          "indexed": false,
          "name": "_approved",
          "type": "bool"
        }
      ],
      "name": "ApprovalForAll",
      "type": "event"
    },
    {
      "anonymous": false,
      "inputs": [
        {
          "indexed": true,
          "name": "beneficiary",
          "type": "address"
        },
        {
          "indexed": false,
          "name": "czxpAmount",
          "type": "uint256"
        }
      ],
      "name": "CZXPGained",
      "type": "event"
    },
    {
      "anonymous": false,
      "inputs": [
        {
          "indexed": true,
          "name": "previousOwner",
          "type": "address"
        }
      ],
      "name": "OwnershipRenounced",
      "type": "event"
    },
    {
      "anonymous": false,
      "inputs": [
        {
          "indexed": true,
          "name": "previousOwner",
          "type": "address"
        },
        {
          "indexed": true,
          "name": "newOwner",
          "type": "address"
        }
      ],
      "name": "OwnershipTransferred",
      "type": "event"
    },
    {
      "constant": true,
      "inputs": [],
      "name": "name",
      "outputs": [
        {
          "name": "_name",
          "type": "string"
        }
      ],
      "payable": false,
      "stateMutability": "view",
      "type": "function"
    },
    {
      "constant": true,
      "inputs": [],
      "name": "symbol",
      "outputs": [
        {
          "name": "_symbol",
          "type": "string"
        }
      ],
      "payable": false,
      "stateMutability": "view",
      "type": "function"
    },
    {
      "constant": true,
      "inputs": [
        {
          "name": "_tokenId",
          "type": "uint256"
        }
      ],
      "name": "tokenURI",
      "outputs": [
        {
          "name": "",
          "type": "string"
        }
      ],
      "payable": false,
      "stateMutability": "view",
      "type": "function"
    },
    {
      "constant": true,
      "inputs": [
        {
          "name": "_owner",
          "type": "address"
        },
        {
          "name": "_index",
          "type": "uint256"
        }
      ],
      "name": "tokenOfOwnerByIndex",
      "outputs": [
        {
          "name": "",
          "type": "uint256"
        }
      ],
      "payable": false,
      "stateMutability": "view",
      "type": "function"
    },
    {
      "constant": true,
      "inputs": [],
      "name": "totalSupply",
      "outputs": [
        {
          "name": "",
          "type": "uint256"
        }
      ],
      "payable": false,
      "stateMutability": "view",
      "type": "function"
    },
    {
      "constant": true,
      "inputs": [
        {
          "name": "_index",
          "type": "uint256"
        }
      ],
      "name": "tokenByIndex",
      "outputs": [
        {
          "name": "",
          "type": "uint256"
        }
      ],
      "payable": false,
      "stateMutability": "view",
      "type": "function"
    },
    {
      "constant": false,
      "inputs": [
        {
          "name": "_from",
          "type": "address"
        },
        {
          "name": "_to",
          "type": "address"
        },
        {
          "name": "_tokenId",
          "type": "uint256"
        }
      ],
      "name": "transferFrom",
      "outputs": [],
      "payable": false,
      "stateMutability": "nonpayable",
      "type": "function"
    },
    {
      "constant": true,
      "inputs": [
        {
          "name": "_owner",
          "type": "address"
        }
      ],
      "name": "tokensOfOwner",
      "outputs": [
        {
          "name": "ownerTokens",
          "type": "uint256[]"
        }
      ],
      "payable": false,
      "stateMutability": "view",
      "type": "function"
    },
    {
      "constant": true,
      "inputs": [],
      "name": "getTokensByRarity",
      "outputs": [
        {
          "name": "",
          "type": "uint256"
        },
        {
          "name": "",
          "type": "uint256"
        },
        {
          "name": "",
          "type": "uint256"
        },
        {
          "name": "",
          "type": "uint256"
        },
        {
          "name": "",
          "type": "uint256"
        },
        {
          "name": "",
          "type": "uint256"
        }
      ],
      "payable": false,
      "stateMutability": "view",
      "type": "function"
    },
    {
      "constant": true,
      "inputs": [
        {
          "name": "_tokenId",
          "type": "uint256"
        }
      ],
      "name": "getOwnedCard",
      "outputs": [
        {
          "name": "",
          "type": "uint32"
        },
        {
          "name": "",
          "type": "uint256"
        },
        {
          "name": "",
          "type": "uint256"
        }
      ],
      "payable": false,
      "stateMutability": "view",
      "type": "function"
    }
  ],
  "bytecode": "0x60806040526040805190810160405280601b81526020017f68747470733a2f2f63727970746f7a2e63617264732f646174612f0000000000815250600190805190602001906200005192919062000424565b50608060405190810160405280600160ff168152602001600260ff168152602001600360ff168152602001600460ff16815250600b90600462000096929190620004ab565b50608060405190810160405280600160ff168152602001600260ff168152602001600660ff168152602001601860ff16815250600f906004620000db929190620004ab565b506040805190810160405280600d81526020017f43727970746f7a20436172647300000000000000000000000000000000000000815250601e90805190602001906200012992919062000424565b506040805190810160405280600781526020017f43727970746f7a00000000000000000000000000000000000000000000000000815250601f90805190602001906200017792919062000424565b5060e060405190810160405280600060ff168152602001600060ff168152602001600060ff168152602001600060ff168152602001600060ff168152602001600060ff168152602001600060ff168152506025906007620001da929190620004f5565b50336000806101000a81548173ffffffffffffffffffffffffffffffffffffffff021916908373ffffffffffffffffffffffffffffffffffffffff1602179055506001601860006301ffc9a77c0100000000000000000000000000000000000000000000000000000000027bffffffffffffffffffffffffffffffffffffffffffffffffffffffff19167bffffffffffffffffffffffffffffffffffffffffffffffffffffffff1916815260200190815260200160002060006101000a81548160ff021916908315150217905550620002e56301ffc9a77c01000000000000000000000000000000000000000000000000000000000262000365640100000000026401000000009004565b620003226380ac58cd7c01000000000000000000000000000000000000000000000000000000000262000365640100000000026401000000009004565b6200035f634f558e797c01000000000000000000000000000000000000000000000000000000000262000365640100000000026401000000009004565b62000567565b63ffffffff7c010000000000000000000000000000000000000000000000000000000002817bffffffffffffffffffffffffffffffffffffffffffffffffffffffff191614151515620003b757600080fd5b600160196000837bffffffffffffffffffffffffffffffffffffffffffffffffffffffff19167bffffffffffffffffffffffffffffffffffffffffffffffffffffffff1916815260200190815260200160002060006101000a81548160ff02191690831515021790555050565b828054600181600116156101000203166002900490600052602060002090601f016020900481019282601f106200046757805160ff191683800117855562000498565b8280016001018555821562000498579182015b82811115620004975782518255916020019190600101906200047a565b5b509050620004a791906200053f565b5090565b8260048101928215620004e2579160200282015b82811115620004e1578251829060ff16905591602001919060010190620004bf565b5b509050620004f191906200053f565b5090565b82600781019282156200052c579160200282015b828111156200052b578251829060ff1690559160200191906001019062000509565b5b5090506200053b91906200053f565b5090565b6200056491905b808211156200056057600081600090555060010162000546565b5090565b90565b612e8380620005776000396000f3006080604052600436106101b7576000357c0100000000000000000000000000000000000000000000000000000000900463ffffffff16806301ffc9a7146101c957806306fdde031461022d578063081812fc146102bd578063095ea7b31461032a57806318160ddd1461037757806319fa8f50146103a257806323b872dd1461040b5780632895b051146104785780632f745c59146104b95780633ccfd60b1461051a57806342842e0e1461053157806342ed1d291461059e5780634d3e2e5e146106f95780634f558e791461073a5780634f6ccce71461077f5780635456bf13146107c05780636352211e1461080157806370a082311461086e578063715018a6146108c55780637f276455146108dc57806381cbd203146109075780638462151c1461096c5780638adb708614610a045780638b58c56914610a7a5780638da5cb5b14610ac1578063918923c414610b1857806395d89b4114610b59578063a22cb46514610be9578063a47ed2e714610c38578063afa6154114610c93578063b4a1676914610ce1578063b88d4fde14610d22578063c87b56dd14610dd5578063e985e9c514610e7b578063f2fde38b14610ef6575b3480156101c357600080fd5b50600080fd5b3480156101d557600080fd5b5061021360048036038101908080357bffffffffffffffffffffffffffffffffffffffffffffffffffffffff19169060200190929190505050610f39565b604051808215151515815260200191505060405180910390f35b34801561023957600080fd5b50610242610fa1565b6040518080602001828103825283818151815260200191508051906020019080838360005b83811015610282578082015181840152602081019050610267565b50505050905090810190601f1680156102af5780820380516001836020036101000a031916815260200191505b509250505060405180910390f35b3480156102c957600080fd5b506102e860048036038101908080359060200190929190505050611043565b604051808273ffffffffffffffffffffffffffffffffffffffff1673ffffffffffffffffffffffffffffffffffffffff16815260200191505060405180910390f35b34801561033657600080fd5b50610375600480360381019080803573ffffffffffffffffffffffffffffffffffffffff16906020019092919080359060200190929190505050611080565b005b34801561038357600080fd5b5061038c6111c5565b6040518082815260200191505060405180910390f35b3480156103ae57600080fd5b506103b76111d2565b60405180827bffffffffffffffffffffffffffffffffffffffffffffffffffffffff19167bffffffffffffffffffffffffffffffffffffffffffffffffffffffff1916815260200191505060405180910390f35b34801561041757600080fd5b50610476600480360381019080803573ffffffffffffffffffffffffffffffffffffffff169060200190929190803573ffffffffffffffffffffffffffffffffffffffff169060200190929190803590602001909291905050506111f9565b005b34801561048457600080fd5b506104a360048036038101908080359060200190929190505050611324565b6040518082815260200191505060405180910390f35b3480156104c557600080fd5b50610504600480360381019080803573ffffffffffffffffffffffffffffffffffffffff16906020019092919080359060200190929190505050611355565b6040518082815260200191505060405180910390f35b34801561052657600080fd5b5061052f6113cc565b005b34801561053d57600080fd5b5061059c600480360381019080803573ffffffffffffffffffffffffffffffffffffffff169060200190929190803573ffffffffffffffffffffffffffffffffffffffff16906020019092919080359060200190929190505050611487565b005b3480156105aa57600080fd5b506105cf600480360381019080803563ffffffff1690602001909291905050506114a8565b604051808a63ffffffff1663ffffffff16815260200180602001806020018981526020018881526020018781526020018681526020018581526020018460ff1660ff16815260200183810383528b818151815260200191508051906020019080838360005b8381101561064f578082015181840152602081019050610634565b50505050905090810190601f16801561067c5780820380516001836020036101000a031916815260200191505b5083810382528a818151815260200191508051906020019080838360005b838110156106b557808201518184015260208101905061069a565b50505050905090810190601f1680156106e25780820380516001836020036101000a031916815260200191505b509b50505050505050505050505060405180910390f35b34801561070557600080fd5b5061072460048036038101908080359060200190929190505050611643565b6040518082815260200191505060405180910390f35b34801561074657600080fd5b506107656004803603810190808035906020019092919050505061165d565b604051808215151515815260200191505060405180910390f35b34801561078b57600080fd5b506107aa600480360381019080803590602001909291905050506116cf565b6040518082815260200191505060405180910390f35b3480156107cc57600080fd5b506107eb60048036038101908080359060200190929190505050611707565b6040518082815260200191505060405180910390f35b34801561080d57600080fd5b5061082c60048036038101908080359060200190929190505050611933565b604051808273ffffffffffffffffffffffffffffffffffffffff1673ffffffffffffffffffffffffffffffffffffffff16815260200191505060405180910390f35b34801561087a57600080fd5b506108af600480360381019080803573ffffffffffffffffffffffffffffffffffffffff1690602001909291905050506119b1565b6040518082815260200191505060405180910390f35b3480156108d157600080fd5b506108da611a35565b005b3480156108e857600080fd5b506108f1611b37565b6040518082815260200191505060405180910390f35b34801561091357600080fd5b50610952600480360381019080803573ffffffffffffffffffffffffffffffffffffffff16906020019092919080359060200190929190505050611b44565b604051808215151515815260200191505060405180910390f35b34801561097857600080fd5b506109ad600480360381019080803573ffffffffffffffffffffffffffffffffffffffff169060200190929190505050611b73565b6040518080602001828103825283818151815260200191508051906020019060200280838360005b838110156109f05780820151818401526020810190506109d5565b505050509050019250505060405180910390f35b348015610a1057600080fd5b50610a2f60048036038101908080359060200190929190505050611cc0565b604051808561ffff1661ffff1681526020018461ffff1661ffff1681526020018361ffff1661ffff1681526020018261ffff1661ffff16815260200194505050505060405180910390f35b348015610a8657600080fd5b50610aa560048036038101908080359060200190929190505050611ebb565b604051808260ff1660ff16815260200191505060405180910390f35b348015610acd57600080fd5b50610ad6611edb565b604051808273ffffffffffffffffffffffffffffffffffffffff1673ffffffffffffffffffffffffffffffffffffffff16815260200191505060405180910390f35b348015610b2457600080fd5b50610b4360048036038101908080359060200190929190505050611f00565b6040518082815260200191505060405180910390f35b348015610b6557600080fd5b50610b6e611f23565b6040518080602001828103825283818151815260200191508051906020019080838360005b83811015610bae578082015181840152602081019050610b93565b50505050905090810190601f168015610bdb5780820380516001836020036101000a031916815260200191505b509250505060405180910390f35b348015610bf557600080fd5b50610c36600480360381019080803573ffffffffffffffffffffffffffffffffffffffff169060200190929190803515159060200190929190505050611fc5565b005b348015610c4457600080fd5b50610c6360048036038101908080359060200190929190505050612101565b604051808463ffffffff1663ffffffff168152602001838152602001828152602001935050505060405180910390f35b348015610c9f57600080fd5b50610ca861219a565b60405180878152602001868152602001858152602001848152602001838152602001828152602001965050505050505060405180910390f35b348015610ced57600080fd5b50610d0c60048036038101908080359060200190929190505050612223565b6040518082815260200191505060405180910390f35b348015610d2e57600080fd5b50610dd3600480360381019080803573ffffffffffffffffffffffffffffffffffffffff169060200190929190803573ffffffffffffffffffffffffffffffffffffffff16906020019092919080359060200190929190803590602001908201803590602001908080601f016020809104026020016040519081016040528093929190818152602001838380828437820191505050505050919291929050505061223b565b005b348015610de157600080fd5b50610e0060048036038101908080359060200190929190505050612263565b6040518080602001828103825283818151815260200191508051906020019080838360005b83811015610e40578082015181840152602081019050610e25565b50505050905090810190601f168015610e6d5780820380516001836020036101000a031916815260200191505b509250505060405180910390f35b348015610e8757600080fd5b50610edc600480360381019080803573ffffffffffffffffffffffffffffffffffffffff169060200190929190803573ffffffffffffffffffffffffffffffffffffffff16906020019092919050505061232c565b604051808215151515815260200191505060405180910390f35b348015610f0257600080fd5b50610f37600480360381019080803573ffffffffffffffffffffffffffffffffffffffff1690602001909291905050506123c0565b005b600060196000837bffffffffffffffffffffffffffffffffffffffffffffffffffffffff19167bffffffffffffffffffffffffffffffffffffffffffffffffffffffff1916815260200190815260200160002060009054906101000a900460ff169050919050565b6060601e8054600181600116156101000203166002900480601f0160208091040260200160405190810160405280929190818152602001828054600181600116156101000203166002900480156110395780601f1061100e57610100808354040283529160200191611039565b820191906000526020600020905b81548152906001019060200180831161101c57829003601f168201915b5050505050905090565b6000601b600083815260200190815260200160002060009054906101000a900473ffffffffffffffffffffffffffffffffffffffff169050919050565b600061108b82611933565b90508073ffffffffffffffffffffffffffffffffffffffff168373ffffffffffffffffffffffffffffffffffffffff16141515156110c857600080fd5b8073ffffffffffffffffffffffffffffffffffffffff163373ffffffffffffffffffffffffffffffffffffffff1614806111085750611107813361232c565b5b151561111357600080fd5b82601b600084815260200190815260200160002060006101000a81548173ffffffffffffffffffffffffffffffffffffffff021916908373ffffffffffffffffffffffffffffffffffffffff160217905550818373ffffffffffffffffffffffffffffffffffffffff168273ffffffffffffffffffffffffffffffffffffffff167f8c5be1e5ebec7d5bd14f71427d1e84f3dd0314c0f7b2291e5b200ac8c7c3b92560405160405180910390a4505050565b6000602280549050905090565b6301ffc9a77c01000000000000000000000000000000000000000000000000000000000281565b600073ffffffffffffffffffffffffffffffffffffffff168373ffffffffffffffffffffffffffffffffffffffff161415151561123557600080fd5b600073ffffffffffffffffffffffffffffffffffffffff168273ffffffffffffffffffffffffffffffffffffffff161415151561127157600080fd5b61127b8382612427565b611285838261252a565b61128f8282612742565b6112c360016006838154811015156112a357fe5b90600052602060002090600302016002015461281990919063ffffffff16565b50808273ffffffffffffffffffffffffffffffffffffffff168473ffffffffffffffffffffffffffffffffffffffff167fddf252ad1be2c89b69c2b068fc378daa952ba7f163c4a11628f55a4df523b3ef60405160405180910390a4505050565b60008061133e620445c08481151561133857fe5b04611707565b905060048181151561134c57fe5b04915050919050565b6000611360836119b1565b8210151561136d57600080fd5b602060008473ffffffffffffffffffffffffffffffffffffffff1673ffffffffffffffffffffffffffffffffffffffff168152602001908152602001600020828154811015156113b957fe5b9060005260206000200154905092915050565b6000809054906101000a900473ffffffffffffffffffffffffffffffffffffffff1673ffffffffffffffffffffffffffffffffffffffff163373ffffffffffffffffffffffffffffffffffffffff1614151561142757600080fd5b3373ffffffffffffffffffffffffffffffffffffffff166108fc3073ffffffffffffffffffffffffffffffffffffffff16319081150290604051600060405180830381858888f19350505050158015611484573d6000803e3d6000fd5b50565b6114a3838383602060405190810160405280600081525061223b565b505050565b60076020528060005260406000206000915090508060000160009054906101000a900463ffffffff1690806001018054600181600116156101000203166002900480601f01602080910402602001604051908101604052809291908181526020018280546001816001161561010002031660029004801561156a5780601f1061153f5761010080835404028352916020019161156a565b820191906000526020600020905b81548152906001019060200180831161154d57829003601f168201915b505050505090806002018054600181600116156101000203166002900480601f0160208091040260200160405190810160405280929190818152602001828054600181600116156101000203166002900480156116085780601f106115dd57610100808354040283529160200191611608565b820191906000526020600020905b8154815290600101906020018083116115eb57829003601f168201915b5050505050908060030154908060040154908060050154908060060154908060070154908060080160009054906101000a900460ff16905089565b60258160078110151561165257fe5b016000915090505481565b600080601a600084815260200190815260200160002060009054906101000a900473ffffffffffffffffffffffffffffffffffffffff169050600073ffffffffffffffffffffffffffffffffffffffff168173ffffffffffffffffffffffffffffffffffffffff161415915050919050565b60006116d96111c5565b821015156116e657600080fd5b6022828154811015156116f557fe5b90600052602060002001549050919050565b60008160018303925060028304831792506004830483179250601083048317925061010083048317925062010000830483179250640100000000830483179250680100000000000000008304831792507001000000000000000000000000000000008304831792506001830192506040517ff8f9cbfae6cc78fbefe7cdc3a1793dfcf4f0e8bbd8cec470b6a28a7a5a3e1efd81527ff5ecf1b3e9debc68e1d9cfabc5997135bfb7a7a3938b7b606b5b4b3f2f1f0ffe60208201527ff6e4ed9ff2d6b458eadcdf97bd91692de2d4da8fd2d0ac50c6ae9a827252361660408201527fc8c0b887b0a8a4489c948c7f847c6125746c645c544c444038302820181008ff60608201527ff7cae577eec2a03cf3bad76fb589591debb2dd67e0aa9834bea6925f6a4a2e0e60808201527fe39ed557db96902cd38ed14fad815115c786af479b7e8324736353433727170760a08201527fc976c13bb96e881cb166a933a55e490d9d56952b8d4e801485467d236242260660c08201527f753a6d1b65325d0c552a4d1345224105391a310b29122104190a11030902010060e082015261010081016040527e818283848586878898a8b8c8d8e8f929395969799a9b9d9e9faaeb6bedeeff7f01000000000000000000000000000000000000000000000000000000000000008082870204818160ff038501510495507f8000000000000000000000000000000000000000000000000000000000000000851161010002860195505050505050919050565b600080601a600084815260200190815260200160002060009054906101000a900473ffffffffffffffffffffffffffffffffffffffff169050600073ffffffffffffffffffffffffffffffffffffffff168173ffffffffffffffffffffffffffffffffffffffff16141515156119a857600080fd5b80915050919050565b60008073ffffffffffffffffffffffffffffffffffffffff168273ffffffffffffffffffffffffffffffffffffffff16141515156119ee57600080fd5b601c60008373ffffffffffffffffffffffffffffffffffffffff1673ffffffffffffffffffffffffffffffffffffffff168152602001908152602001600020549050919050565b6000809054906101000a900473ffffffffffffffffffffffffffffffffffffffff1673ffffffffffffffffffffffffffffffffffffffff163373ffffffffffffffffffffffffffffffffffffffff16141515611a9057600080fd5b6000809054906101000a900473ffffffffffffffffffffffffffffffffffffffff1673ffffffffffffffffffffffffffffffffffffffff167ff8df31144d9c2f0f6b59d69b8b98abd5459d07f2742c4df920b25aae33c6482060405160405180910390a260008060006101000a81548173ffffffffffffffffffffffffffffffffffffffff021916908373ffffffffffffffffffffffffffffffffffffffff160217905550565b6000600880549050905090565b602c6020528160005260406000206020528060005260406000206000915091509054906101000a900460ff1681565b6060600060606000806000611b87876119b1565b94506000851415611bca576000604051908082528060200260200182016040528015611bc25781602001602082028038833980820191505090505b509550611cb6565b84604051908082528060200260200182016040528015611bf95781602001602082028038833980820191505090505b509350611c046111c5565b925060009150600190505b8281111515611cb2578673ffffffffffffffffffffffffffffffffffffffff16601a600083815260200190815260200160002060009054906101000a900473ffffffffffffffffffffffffffffffffffffffff1673ffffffffffffffffffffffffffffffffffffffff161415611ca557808483815181101515611c8e57fe5b906020019060200201818152505081806001019250505b8080600101915050611c0f565b8395505b5050505050919050565b60008060008060008060008092505b6004831015611d45576064600f84600481101515611ce957fe5b0154611cf48a611324565b600b86600481101515611d0357fe5b0154611d0e8c611324565b0a811515611d1857fe5b04811515611d2257fe5b0402601384600481101515611d3357fe5b01819055508280600101935050611ccf565b60136003600481101515611d5557fe5b015460136002600481101515611d6757fe5b015460136001600481101515611d7957fe5b015460136000600481101515611d8b57fe5b01540101019150600090505b6004811015611e015781612710601383600481101515611db357fe5b015402811515611dbf57fe5b04601782600481101515611dcf57fe5b601091828204019190066002026101000a81548161ffff021916908361ffff1602179055508080600101915050611d97565b60176000600481101515611e1157fe5b601091828204019190066002029054906101000a900461ffff1660176001600481101515611e3b57fe5b601091828204019190066002029054906101000a900461ffff1660176002600481101515611e6557fe5b601091828204019190066002029054906101000a900461ffff1660176003600481101515611e8f57fe5b601091828204019190066002029054906101000a900461ffff1696509650965096505050509193509193565b60046020528060005260406000206000915054906101000a900460ff1681565b6000809054906101000a900473ffffffffffffffffffffffffffffffffffffffff1681565b600881815481101515611f0f57fe5b906000526020600020016000915090505481565b6060601f8054600181600116156101000203166002900480601f016020809104026020016040519081016040528092919081815260200182805460018160011615610100020316600290048015611fbb5780601f10611f9057610100808354040283529160200191611fbb565b820191906000526020600020905b815481529060010190602001808311611f9e57829003601f168201915b5050505050905090565b3373ffffffffffffffffffffffffffffffffffffffff168273ffffffffffffffffffffffffffffffffffffffff161415151561200057600080fd5b80601d60003373ffffffffffffffffffffffffffffffffffffffff1673ffffffffffffffffffffffffffffffffffffffff16815260200190815260200160002060008473ffffffffffffffffffffffffffffffffffffffff1673ffffffffffffffffffffffffffffffffffffffff16815260200190815260200160002060006101000a81548160ff0219169083151502179055508173ffffffffffffffffffffffffffffffffffffffff163373ffffffffffffffffffffffffffffffffffffffff167f17307eab39ab6107e8899845ad3d59bd9653f200f220920489ca2b5937696c3183604051808215151515815260200191505060405180910390a35050565b600080600061210f8461165d565b151561211a57600080fd5b60068481548110151561212957fe5b906000526020600020906003020160000160009054906101000a900463ffffffff1660068581548110151561215a57fe5b90600052602060002090600302016001015460068681548110151561217b57fe5b9060005260206000209060030201600201549250925092509193909250565b600080600080600080602560016007811015156121b357fe5b0154602560026007811015156121c557fe5b0154602560036007811015156121d757fe5b0154602560046007811015156121e957fe5b0154602560056007811015156121fb57fe5b01546025600660078110151561220d57fe5b0154955095509550955095509550909192939495565b60096020528060005260406000206000915090505481565b6122468484846111f9565b61225284848484612835565b151561225d57600080fd5b50505050565b606061226e8261165d565b151561227957600080fd5b602460008381526020019081526020016000208054600181600116156101000203166002900480601f0160208091040260200160405190810160405280929190818152602001828054600181600116156101000203166002900480156123205780601f106122f557610100808354040283529160200191612320565b820191906000526020600020905b81548152906001019060200180831161230357829003601f168201915b50505050509050919050565b6000601d60008473ffffffffffffffffffffffffffffffffffffffff1673ffffffffffffffffffffffffffffffffffffffff16815260200190815260200160002060008373ffffffffffffffffffffffffffffffffffffffff1673ffffffffffffffffffffffffffffffffffffffff16815260200190815260200160002060009054906101000a900460ff16905092915050565b6000809054906101000a900473ffffffffffffffffffffffffffffffffffffffff1673ffffffffffffffffffffffffffffffffffffffff163373ffffffffffffffffffffffffffffffffffffffff1614151561241b57600080fd5b61242481612a57565b50565b8173ffffffffffffffffffffffffffffffffffffffff1661244782611933565b73ffffffffffffffffffffffffffffffffffffffff1614151561246957600080fd5b600073ffffffffffffffffffffffffffffffffffffffff16601b600083815260200190815260200160002060009054906101000a900473ffffffffffffffffffffffffffffffffffffffff1673ffffffffffffffffffffffffffffffffffffffff16141515612526576000601b600083815260200190815260200160002060006101000a81548173ffffffffffffffffffffffffffffffffffffffff021916908373ffffffffffffffffffffffffffffffffffffffff1602179055505b5050565b60008060006125398585612b51565b602160008581526020019081526020016000205492506125a56001602060008873ffffffffffffffffffffffffffffffffffffffff1673ffffffffffffffffffffffffffffffffffffffff16815260200190815260200160002080549050612c8090919063ffffffff16565b9150602060008673ffffffffffffffffffffffffffffffffffffffff1673ffffffffffffffffffffffffffffffffffffffff168152602001908152602001600020828154811015156125f357fe5b9060005260206000200154905080602060008773ffffffffffffffffffffffffffffffffffffffff1673ffffffffffffffffffffffffffffffffffffffff1681526020019081526020016000208481548110151561264d57fe5b90600052602060002001819055506000602060008773ffffffffffffffffffffffffffffffffffffffff1673ffffffffffffffffffffffffffffffffffffffff168152602001908152602001600020838154811015156126a957fe5b9060005260206000200181905550602060008673ffffffffffffffffffffffffffffffffffffffff1673ffffffffffffffffffffffffffffffffffffffff1681526020019081526020016000208054809190600190036127099190612e06565b50600060216000868152602001908152602001600020819055508260216000838152602001908152602001600020819055505050505050565b600061274e8383612c99565b602060008473ffffffffffffffffffffffffffffffffffffffff1673ffffffffffffffffffffffffffffffffffffffff168152602001908152602001600020805490509050602060008473ffffffffffffffffffffffffffffffffffffffff1673ffffffffffffffffffffffffffffffffffffffff168152602001908152602001600020829080600181540180825580915050906001820390600052602060002001600090919290919091505550806021600084815260200190815260200160002081905550505050565b6000818301905082811015151561282c57fe5b80905092915050565b6000806128578573ffffffffffffffffffffffffffffffffffffffff16612df3565b15156128665760019150612a4e565b8473ffffffffffffffffffffffffffffffffffffffff1663150b7a02338887876040518563ffffffff167c0100000000000000000000000000000000000000000000000000000000028152600401808573ffffffffffffffffffffffffffffffffffffffff1673ffffffffffffffffffffffffffffffffffffffff1681526020018473ffffffffffffffffffffffffffffffffffffffff1673ffffffffffffffffffffffffffffffffffffffff16815260200183815260200180602001828103825283818151815260200191508051906020019080838360005b8381101561295b578082015181840152602081019050612940565b50505050905090810190601f1680156129885780820380516001836020036101000a031916815260200191505b5095505050505050602060405180830381600087803b1580156129aa57600080fd5b505af11580156129be573d6000803e3d6000fd5b505050506040513d60208110156129d457600080fd5b8101908080519060200190929190505050905063150b7a027c0100000000000000000000000000000000000000000000000000000000027bffffffffffffffffffffffffffffffffffffffffffffffffffffffff1916817bffffffffffffffffffffffffffffffffffffffffffffffffffffffff19161491505b50949350505050565b600073ffffffffffffffffffffffffffffffffffffffff168173ffffffffffffffffffffffffffffffffffffffff1614151515612a9357600080fd5b8073ffffffffffffffffffffffffffffffffffffffff166000809054906101000a900473ffffffffffffffffffffffffffffffffffffffff1673ffffffffffffffffffffffffffffffffffffffff167f8be0079c531659141344cd1fd0a4f28419497f9722a3daafe3b4186f6b6457e060405160405180910390a3806000806101000a81548173ffffffffffffffffffffffffffffffffffffffff021916908373ffffffffffffffffffffffffffffffffffffffff16021790555050565b8173ffffffffffffffffffffffffffffffffffffffff16612b7182611933565b73ffffffffffffffffffffffffffffffffffffffff16141515612b9357600080fd5b612be66001601c60008573ffffffffffffffffffffffffffffffffffffffff1673ffffffffffffffffffffffffffffffffffffffff16815260200190815260200160002054612c8090919063ffffffff16565b601c60008473ffffffffffffffffffffffffffffffffffffffff1673ffffffffffffffffffffffffffffffffffffffff168152602001908152602001600020819055506000601a600083815260200190815260200160002060006101000a81548173ffffffffffffffffffffffffffffffffffffffff021916908373ffffffffffffffffffffffffffffffffffffffff1602179055505050565b6000828211151515612c8e57fe5b818303905092915050565b600073ffffffffffffffffffffffffffffffffffffffff16601a600083815260200190815260200160002060009054906101000a900473ffffffffffffffffffffffffffffffffffffffff1673ffffffffffffffffffffffffffffffffffffffff16141515612d0757600080fd5b81601a600083815260200190815260200160002060006101000a81548173ffffffffffffffffffffffffffffffffffffffff021916908373ffffffffffffffffffffffffffffffffffffffff160217905550612dac6001601c60008573ffffffffffffffffffffffffffffffffffffffff1673ffffffffffffffffffffffffffffffffffffffff1681526020019081526020016000205461281990919063ffffffff16565b601c60008473ffffffffffffffffffffffffffffffffffffffff1673ffffffffffffffffffffffffffffffffffffffff168152602001908152602001600020819055505050565b600080823b905060008111915050919050565b815481835581811115612e2d57818360005260206000209182019101612e2c9190612e32565b5b505050565b612e5491905b80821115612e50576000816000905550600101612e38565b5090565b905600a165627a7a72305820a0b47e69db220b9ee8e50b79cade7146f7c6f6d564dc21c75f7d8e76f9b928470029",
  "source": "pragma solidity ^0.4.24;\n\nimport \"./CryptozUniverse.sol\";\nimport \"../node_modules/openzeppelin-solidity/contracts/token/ERC721/ERC721.sol\";\nimport \"../node_modules/openzeppelin-solidity/contracts/token/ERC721/ERC721BasicToken.sol\";\n\n/*\ninterface ERC165 {\n /// @notice Query if a contract implements an interface\n /// @param interfaceID The interface identifier, as\n ///  specified in ERC-165\n /// @dev Interface identification is specified in\n ///  ERC-165. This function uses less than 30,000 gas.\n /// @return `true` if the contract implements `interfaceID`\n ///  and `interfaceID` is not 0xffffffff, `false` otherwise\n function supportsInterface(bytes4 interfaceID) external view returns (bool);\n}\n*/\n\ncontract CheckERC165 is ERC165 {\n\n  mapping (bytes4 => bool) internal supportedInterfaces;\n\n  constructor() public {\n    supportedInterfaces[this.supportsInterface.selector] = true;\n  }\n\n  function supportsInterface(bytes4 interfaceID) external view returns (bool){\n      return supportedInterfaces[interfaceID];\n  }\n}\n\n/**\n * @title Full ERC721 Token\n * This implementation includes all the required and some optional functionality of the ERC721 standard\n * Moreover, it includes approve all functionality using operator terminology\n * @dev see https://github.com/ethereum/EIPs/blob/master/EIPS/eip-721.md\n */\ncontract CryptozCard is CryptozUniverse, CheckERC165, ERC721, ERC721BasicToken {\n  // Token name\n  string internal name_ = \"Cryptoz Cards\";\n\n  // Token symbol\n  string internal symbol_ = \"Cryptoz\";\n\n  // Mapping from owner to list of owned token IDs\n  mapping(address => uint256[]) internal ownedTokens;\n\n  // Mapping from token ID to index of the owner tokens list\n  mapping(uint256 => uint256) internal ownedTokensIndex;\n\n  // Array with all token ids, used for enumeration\n  uint256[] internal allTokens;\n\n  // Mapping from token id to position in the allTokens array\n  mapping(uint256 => uint256) internal allTokensIndex;\n\n  // Optional mapping for token URIs\n  mapping(uint256 => string) internal tokenURIs;\n  \n  //Track all tokens by rarity\n  uint[7] public tokensByRarity = [0,0,0,0,0,0,0]; //[rarity] = total\n\n  /*CRYPTOZ Overrides*/\n\n  //Event Logs\n  event LogCardCreated(address indexed owner, uint indexed cardTokenId, uint editionNumber, uint indexed cardTypeId, uint CzxpGained);\n  event SacrificeCardEvent(address indexed owner, uint indexed cardTokenId, uint indexed cardTypeId, uint CzxpGained);\n\n  // Track ownership of Card Type purchases from store to enforce 1 type per person once\n  mapping (address => mapping(uint => bool)) public cardTypesOwned; //    [address][CardTypeId] = bool\n\n  /**\n   * @dev Gets the token name\n   * @return string representing the token name\n   */\n  function name() external view returns (string _name) {\n    return name_;\n  }\n\n  /**\n   * @dev Gets the token symbol\n   * @return string representing the token symbol\n   */\n  function symbol() external view returns (string _symbol) {\n    return symbol_;\n  }\n\n  /**\n   * @dev Returns an URI for a given token ID\n   * @dev Throws if the token ID does not exist. May return an empty string.\n   * @param _tokenId uint256 ID of the token to query\n   */\n  function tokenURI(uint256 _tokenId) public view returns (string) {\n    require(exists(_tokenId));\n    return tokenURIs[_tokenId];\n  }\n\n  /**\n   * @dev Gets the token ID at a given index of the tokens list of the requested owner\n   * @param _owner address owning the tokens list to be accessed\n   * @param _index uint256 representing the index to be accessed of the requested tokens list\n   * @return uint256 token ID at the given index of the tokens list owned by the requested address\n   */\n  function tokenOfOwnerByIndex(\n    address _owner,\n    uint256 _index\n  )\n    public\n    view\n    returns (uint256)\n  {\n    require(_index < balanceOf(_owner));\n    return ownedTokens[_owner][_index];\n  }\n\n  /**\n   * @dev Gets the total amount of tokens stored by the contract\n   * @return uint256 representing the total amount of tokens\n   */\n  function totalSupply() public view returns (uint256) {\n    return allTokens.length;\n  }\n\n  /**\n   * @dev Gets the token ID at a given index of all the tokens in this contract\n   * @dev Reverts if the index is greater or equal to the total number of tokens\n   * @param _index uint256 representing the index to be accessed of the tokens list\n   * @return uint256 token ID at the given index of the tokens list\n   */\n  function tokenByIndex(uint256 _index) public view returns (uint256) {\n    require(_index < totalSupply());\n    return allTokens[_index];\n  }\n\n  /**\n   * @dev Internal function to set the token URI for a given token\n   * @dev Reverts if the token ID does not exist\n   * @param _tokenId uint256 ID of the token to set its URI\n   * @param _uri string URI to assign\n   */\n  function _setTokenURI(uint256 _tokenId, string _uri) internal {\n    require(exists(_tokenId));\n    tokenURIs[_tokenId] = _uri;\n  }\n\n  /**\n   * @dev Internal function to add a token ID to the list of a given address\n   * @param _to address representing the new owner of the given token ID\n   * @param _tokenId uint256 ID of the token to be added to the tokens list of the given address\n   */\n  function addTokenTo(address _to, uint256 _tokenId) internal {\n    super.addTokenTo(_to, _tokenId);\n    uint256 length = ownedTokens[_to].length;\n    ownedTokens[_to].push(_tokenId);\n    ownedTokensIndex[_tokenId] = length;\n  }\n\n  /**\n   * @dev Internal function to remove a token ID from the list of a given address\n   * @param _from address representing the previous owner of the given token ID\n   * @param _tokenId uint256 ID of the token to be removed from the tokens list of the given address\n   */\n  function removeTokenFrom(address _from, uint256 _tokenId) internal {\n    super.removeTokenFrom(_from, _tokenId);\n\n    uint256 tokenIndex = ownedTokensIndex[_tokenId];\n    uint256 lastTokenIndex = ownedTokens[_from].length.sub(1);\n    uint256 lastToken = ownedTokens[_from][lastTokenIndex];\n\n    ownedTokens[_from][tokenIndex] = lastToken;\n    ownedTokens[_from][lastTokenIndex] = 0;\n    // Note that this will handle single-element arrays. In that case, both tokenIndex and lastTokenIndex are going to\n    // be zero. Then we can make sure that we will remove _tokenId from the ownedTokens list since we are first swapping\n    // the lastToken to the first position, and then dropping the element placed in the last position of the list\n\n    ownedTokens[_from].length--;\n    ownedTokensIndex[_tokenId] = 0;\n    ownedTokensIndex[lastToken] = tokenIndex;\n  }\n\n  /**\n   * @dev Internal function to mint a new token\n   * @dev Reverts if the given token ID already exists\n   * @param _to address the beneficiary that will own the minted token\n   * @param _tokenId uint256 ID of the token to be minted by the msg.sender\n   */\n  function _mint(address _to, uint256 _tokenId) internal {\n    super._mint(_to, _tokenId);\n\n    allTokensIndex[_tokenId] = allTokens.length;\n    allTokens.push(_tokenId);\n  }\n\n  /**\n   * @dev Internal function to burn a specific token\n   * @dev Reverts if the token does not exist\n   * @param _owner owner of the token to burn\n   * @param _tokenId uint256 ID of the token being burned by the msg.sender\n   */\n  function _burn(address _owner, uint256 _tokenId) internal {\n    \n    super._burn(_owner, _tokenId);\n\n    // Clear metadata (if any)\n    if (bytes(tokenURIs[_tokenId]).length != 0) {\n      delete tokenURIs[_tokenId];\n    }\n\n    // Reorg all tokens array\n    uint256 tokenIndex = allTokensIndex[_tokenId];\n    uint256 lastTokenIndex = allTokens.length.sub(1);\n    uint256 lastToken = allTokens[lastTokenIndex];\n\n    allTokens[tokenIndex] = lastToken;\n    allTokens[lastTokenIndex] = 0;\n\n    allTokens.length--;\n    allTokensIndex[_tokenId] = 0;\n    allTokensIndex[lastToken] = tokenIndex;\n\n    //track rarity totals\n    tokensByRarity[rarity[Cards[_tokenId].cardTypeId]] = tokensByRarity[rarity[Cards[_tokenId].cardTypeId]] - 1;\n\n    // Gain czxp for sacrificing card\n    uint256 sacrificeCzxp = allCardTypes[Cards[_tokenId].cardTypeId].sacrificeCzxp;\n    awardCzxp(msg.sender,sacrificeCzxp);\n    \n    emit SacrificeCardEvent(msg.sender, _tokenId, Cards[_tokenId].cardTypeId, sacrificeCzxp);\n\n    //remove from universe\n    delete Cards[_tokenId];\n  }\n\n  /*CRYPTOZ Overrides */\n\n  function transferFrom(address _from, address _to, uint256 _tokenId) public {\n    require(_from != address(0));\n    require(_to != address(0));\n\n    clearApproval(_from, _tokenId);\n    removeTokenFrom(_from, _tokenId);\n    addTokenTo(_to, _tokenId);\n\n    //Lets track the card transfers\n    Cards[_tokenId].transferCount.add(1);\n\n    emit Transfer(_from, _to, _tokenId);\n  }\n\n    /**\n    *   Create the Card for the owner\n    */\n    function _createCard(uint32 _cardTypeId, address _owner, uint czxpGained) internal returns (uint){\n        //make sure we have a definition for this card\n        require(allCardTypes[_cardTypeId].cardTypeId == _cardTypeId);\n\n        //Increment edition number\n        cardTypeToEdition[_cardTypeId] = cardTypeToEdition[_cardTypeId].add(1);\n\n        //Create the card!\n        Card memory _tempCard = Card({\n            cardTypeId:_cardTypeId,\n            editionNumber:cardTypeToEdition[_cardTypeId],\n            transferCount:0\n        });\n\n        //add to the universe and get the ID\n        uint256 _newCardId = Cards.push(_tempCard) - 1;\n\n        //Give the ERC721 Card\n        _mint(_owner,_newCardId);\n\n        //Set the Metadata for this new token\n        _setTokenURI(_newCardId, appendUintToString(baseTokenURI,_newCardId));\n        \n        //track rarity\n        uint8 _temp_rarity = rarity[_cardTypeId]; \n        tokensByRarity[_temp_rarity] = tokensByRarity[_temp_rarity] + 1;\n        \n        //Emit card created owner,tokenId,Edition of Token,Card type,czxp gained\n        //emit LogCardCreated(_owner, _newCardId, cardTypeToEdition[_cardTypeId], _cardTypeId, czxpGained);\n        emit LogCardCreated(_owner, _newCardId, cardTypeToEdition[_cardTypeId], _cardTypeId, rarity[_cardTypeId]);\n        \n        return _newCardId;\n    }\n    \n    //String functions\n    function appendUintToString(string inStr, uint256 v) private constant returns (string str) {\n        uint maxlength = 100;\n        bytes memory reversed = new bytes(maxlength);\n        uint i = 0;\n        while (v != 0) {\n            uint remainder = v % 10;\n            v = v / 10;\n            reversed[i++] = byte(48 + remainder);\n        }\n        bytes memory inStrb = bytes(inStr);\n        bytes memory s = new bytes(inStrb.length + i);\n        uint j;\n        for (j = 0; j < inStrb.length; j++) {\n            s[j] = inStrb[j];\n        }\n        for (j = 0; j < i; j++) {\n            s[j + inStrb.length] = reversed[i - 1 - j];\n        }\n        str = string(s);\n    }    \n\n    //Get a list of all the CardIDs( tokenIDs ) this user owns\n    function tokensOfOwner(address _owner) external view returns(uint256[] ownerTokens) {\n        uint256 tokenCount = balanceOf(_owner);\n\n        if (tokenCount == 0) {\n            // Return an empty array\n            return new uint256[](0);\n        } else {\n            uint256[] memory result = new uint256[](tokenCount);\n            uint256 totalCards = totalSupply();\n            uint256 resultIndex = 0;\n\n            // We count on the fact that all cats have IDs starting at 1 and increasing\n            // sequentially up to the totalCard count.\n            uint256 cardId;\n\n            for (cardId = 1; cardId <= totalCards; cardId++) {\n                if (tokenOwner[cardId] == _owner) {\n                    result[resultIndex] = cardId;\n                    resultIndex++;\n                }\n            }\n\n            return result;\n        }\n    }\n    \n    //Get total tokens by rarity. diamond,platinum,epic,rare,uncommon,common\n    function getTokensByRarity() external view returns(uint,uint,uint,uint,uint,uint) {\n        return(tokensByRarity[1],tokensByRarity[2],tokensByRarity[3],tokensByRarity[4],tokensByRarity[5],tokensByRarity[6]);\n    }\n    \n    //Get the info about the card\n    function getOwnedCard(uint256 _tokenId) public view returns(uint32, uint, uint) {\n        require(exists(_tokenId));    \n        return (Cards[_tokenId].cardTypeId,Cards[_tokenId].editionNumber,Cards[_tokenId].transferCount);\n    }\n}\n",
  "sourcePath": "/home/rprice/Downloads/cryptoz.cards/contracts/CryptozCard.sol",
  "compiler": {
    "name": "solc",
    "version": "0.4.24+commit.e67f0147.Emscripten.clang"
  },
  "schemaVersion": "2.0.1",
  "updatedAt": "2019-03-11T23:06:20.305Z"
}