{
  "contractName": "Cryptoz",
  "abi": [
    {
      "constant": true,
      "inputs": [
        {
          "name": "_interfaceId",
          "type": "bytes4"
        }
      ],
      "name": "supportsInterface",
      "outputs": [
        {
          "name": "",
          "type": "bool"
        }
      ],
      "payable": false,
      "stateMutability": "view",
      "type": "function"
    },
    {
      "constant": true,
      "inputs": [],
      "name": "name",
      "outputs": [
        {
          "name": "_name",
          "type": "string"
        }
      ],
      "payable": false,
      "stateMutability": "view",
      "type": "function"
    },
    {
      "constant": true,
      "inputs": [
        {
          "name": "_tokenId",
          "type": "uint256"
        }
      ],
      "name": "getApproved",
      "outputs": [
        {
          "name": "",
          "type": "address"
        }
      ],
      "payable": false,
      "stateMutability": "view",
      "type": "function"
    },
    {
      "constant": false,
      "inputs": [
        {
          "name": "_to",
          "type": "address"
        },
        {
          "name": "_tokenId",
          "type": "uint256"
        }
      ],
      "name": "approve",
      "outputs": [],
      "payable": false,
      "stateMutability": "nonpayable",
      "type": "function"
    },
    {
      "constant": true,
      "inputs": [],
      "name": "totalSupply",
      "outputs": [
        {
          "name": "",
          "type": "uint256"
        }
      ],
      "payable": false,
      "stateMutability": "view",
      "type": "function"
    },
    {
      "constant": true,
      "inputs": [],
      "name": "InterfaceId_ERC165",
      "outputs": [
        {
          "name": "",
          "type": "bytes4"
        }
      ],
      "payable": false,
      "stateMutability": "view",
      "type": "function"
    },
    {
      "constant": false,
      "inputs": [
        {
          "name": "_from",
          "type": "address"
        },
        {
          "name": "_to",
          "type": "address"
        },
        {
          "name": "_tokenId",
          "type": "uint256"
        }
      ],
      "name": "transferFrom",
      "outputs": [],
      "payable": false,
      "stateMutability": "nonpayable",
      "type": "function"
    },
    {
      "constant": true,
      "inputs": [
        {
          "name": "_owner",
          "type": "address"
        },
        {
          "name": "_index",
          "type": "uint256"
        }
      ],
      "name": "tokenOfOwnerByIndex",
      "outputs": [
        {
          "name": "",
          "type": "uint256"
        }
      ],
      "payable": false,
      "stateMutability": "view",
      "type": "function"
    },
    {
      "constant": false,
      "inputs": [
        {
          "name": "_from",
          "type": "address"
        },
        {
          "name": "_to",
          "type": "address"
        },
        {
          "name": "_tokenId",
          "type": "uint256"
        }
      ],
      "name": "safeTransferFrom",
      "outputs": [],
      "payable": false,
      "stateMutability": "nonpayable",
      "type": "function"
    },
    {
      "constant": true,
      "inputs": [
        {
          "name": "",
          "type": "uint32"
        }
      ],
      "name": "allCardTypes",
      "outputs": [
        {
          "name": "cardTypeId",
          "type": "uint32"
        },
        {
          "name": "name",
          "type": "string"
        },
        {
          "name": "set",
          "type": "string"
        },
        {
          "name": "weiCost",
          "type": "uint256"
        },
        {
          "name": "buyCzxp",
          "type": "uint256"
        },
        {
          "name": "transferCzxp",
          "type": "uint256"
        },
        {
          "name": "sacrificeCzxp",
          "type": "uint256"
        },
        {
          "name": "unlockCzxp",
          "type": "uint256"
        },
        {
          "name": "cardLevel",
          "type": "uint8"
        }
      ],
      "payable": false,
      "stateMutability": "view",
      "type": "function"
    },
    {
      "constant": true,
      "inputs": [
        {
          "name": "_tokenId",
          "type": "uint256"
        }
      ],
      "name": "exists",
      "outputs": [
        {
          "name": "",
          "type": "bool"
        }
      ],
      "payable": false,
      "stateMutability": "view",
      "type": "function"
    },
    {
      "constant": true,
      "inputs": [
        {
          "name": "_index",
          "type": "uint256"
        }
      ],
      "name": "tokenByIndex",
      "outputs": [
        {
          "name": "",
          "type": "uint256"
        }
      ],
      "payable": false,
      "stateMutability": "view",
      "type": "function"
    },
    {
      "constant": true,
      "inputs": [
        {
          "name": "_tokenId",
          "type": "uint256"
        }
      ],
      "name": "ownerOf",
      "outputs": [
        {
          "name": "",
          "type": "address"
        }
      ],
      "payable": false,
      "stateMutability": "view",
      "type": "function"
    },
    {
      "constant": true,
      "inputs": [
        {
          "name": "_owner",
          "type": "address"
        }
      ],
      "name": "balanceOf",
      "outputs": [
        {
          "name": "",
          "type": "uint256"
        }
      ],
      "payable": false,
      "stateMutability": "view",
      "type": "function"
    },
    {
      "constant": false,
      "inputs": [],
      "name": "renounceOwnership",
      "outputs": [],
      "payable": false,
      "stateMutability": "nonpayable",
      "type": "function"
    },
    {
      "constant": true,
      "inputs": [
        {
          "name": "",
          "type": "address"
        }
      ],
      "name": "boosterPacksOwned",
      "outputs": [
        {
          "name": "",
          "type": "uint256"
        }
      ],
      "payable": false,
      "stateMutability": "view",
      "type": "function"
    },
    {
      "constant": true,
      "inputs": [
        {
          "name": "_tokenId",
          "type": "uint256"
        }
      ],
      "name": "getCardByTokenId",
      "outputs": [
        {
          "name": "",
          "type": "uint32"
        },
        {
          "name": "",
          "type": "uint256"
        },
        {
          "name": "",
          "type": "uint256"
        }
      ],
      "payable": false,
      "stateMutability": "view",
      "type": "function"
    },
    {
      "constant": true,
      "inputs": [],
      "name": "getTotalTypes",
      "outputs": [
        {
          "name": "",
          "type": "uint256"
        }
      ],
      "payable": false,
      "stateMutability": "view",
      "type": "function"
    },
    {
      "constant": true,
      "inputs": [
        {
          "name": "",
          "type": "address"
        },
        {
          "name": "",
          "type": "uint256"
        }
      ],
      "name": "cardTypesOwned",
      "outputs": [
        {
          "name": "",
          "type": "bool"
        }
      ],
      "payable": false,
      "stateMutability": "view",
      "type": "function"
    },
    {
      "constant": true,
      "inputs": [
        {
          "name": "_owner",
          "type": "address"
        }
      ],
      "name": "tokensOfOwner",
      "outputs": [
        {
          "name": "ownerTokens",
          "type": "uint256[]"
        }
      ],
      "payable": false,
      "stateMutability": "view",
      "type": "function"
    },
    {
      "constant": true,
      "inputs": [],
      "name": "owner",
      "outputs": [
        {
          "name": "",
          "type": "address"
        }
      ],
      "payable": false,
      "stateMutability": "view",
      "type": "function"
    },
    {
      "constant": true,
      "inputs": [
        {
          "name": "",
          "type": "uint256"
        }
      ],
      "name": "cardTypesIds",
      "outputs": [
        {
          "name": "",
          "type": "uint256"
        }
      ],
      "payable": false,
      "stateMutability": "view",
      "type": "function"
    },
    {
      "constant": true,
      "inputs": [],
      "name": "symbol",
      "outputs": [
        {
          "name": "_symbol",
          "type": "string"
        }
      ],
      "payable": false,
      "stateMutability": "view",
      "type": "function"
    },
    {
      "constant": false,
      "inputs": [
        {
          "name": "_to",
          "type": "address"
        },
        {
          "name": "_approved",
          "type": "bool"
        }
      ],
      "name": "setApprovalForAll",
      "outputs": [],
      "payable": false,
      "stateMutability": "nonpayable",
      "type": "function"
    },
    {
      "constant": true,
      "inputs": [
        {
          "name": "",
          "type": "uint256"
        }
      ],
      "name": "cardTypeToEdition",
      "outputs": [
        {
          "name": "",
          "type": "uint256"
        }
      ],
      "payable": false,
      "stateMutability": "view",
      "type": "function"
    },
    {
      "constant": false,
      "inputs": [
        {
          "name": "_from",
          "type": "address"
        },
        {
          "name": "_to",
          "type": "address"
        },
        {
          "name": "_tokenId",
          "type": "uint256"
        },
        {
          "name": "_data",
          "type": "bytes"
        }
      ],
      "name": "safeTransferFrom",
      "outputs": [],
      "payable": false,
      "stateMutability": "nonpayable",
      "type": "function"
    },
    {
      "constant": true,
      "inputs": [
        {
          "name": "_tokenId",
          "type": "uint256"
        }
      ],
      "name": "tokenURI",
      "outputs": [
        {
          "name": "",
          "type": "string"
        }
      ],
      "payable": false,
      "stateMutability": "view",
      "type": "function"
    },
    {
      "constant": true,
      "inputs": [
        {
          "name": "_owner",
          "type": "address"
        },
        {
          "name": "_operator",
          "type": "address"
        }
      ],
      "name": "isApprovedForAll",
      "outputs": [
        {
          "name": "",
          "type": "bool"
        }
      ],
      "payable": false,
      "stateMutability": "view",
      "type": "function"
    },
    {
      "constant": true,
      "inputs": [
        {
          "name": "",
          "type": "uint8"
        },
        {
          "name": "",
          "type": "uint256"
        }
      ],
      "name": "allBoosterCardIds",
      "outputs": [
        {
          "name": "",
          "type": "uint32"
        }
      ],
      "payable": false,
      "stateMutability": "view",
      "type": "function"
    },
    {
      "constant": false,
      "inputs": [
        {
          "name": "_newOwner",
          "type": "address"
        }
      ],
      "name": "transferOwnership",
      "outputs": [],
      "payable": false,
      "stateMutability": "nonpayable",
      "type": "function"
    },
    {
      "inputs": [
        {
          "name": "_czxpContractAddress",
          "type": "address"
        }
      ],
      "payable": false,
      "stateMutability": "nonpayable",
      "type": "constructor"
    },
    {
      "payable": false,
      "stateMutability": "nonpayable",
      "type": "fallback"
    },
    {
      "anonymous": false,
      "inputs": [
        {
          "indexed": true,
          "name": "cardTypeId",
          "type": "uint32"
        },
        {
          "indexed": false,
          "name": "cardName",
          "type": "string"
        }
      ],
      "name": "LogCardTypeLoaded",
      "type": "event"
    },
    {
      "anonymous": false,
      "inputs": [
        {
          "indexed": true,
          "name": "cardTypeId",
          "type": "uint32"
        },
        {
          "indexed": false,
          "name": "editionNumber",
          "type": "uint256"
        },
        {
          "indexed": true,
          "name": "buyer",
          "type": "address"
        }
      ],
      "name": "LogCardPurchased",
      "type": "event"
    },
    {
      "anonymous": false,
      "inputs": [
        {
          "indexed": true,
          "name": "buyer",
          "type": "address"
        },
        {
          "indexed": false,
          "name": "packsOpened",
          "type": "uint256"
        }
      ],
      "name": "LogPackOpened",
      "type": "event"
    },
    {
      "anonymous": false,
      "inputs": [
        {
          "indexed": true,
          "name": "owner",
          "type": "address"
        },
        {
          "indexed": true,
          "name": "cardTokenId",
          "type": "uint256"
        },
        {
          "indexed": false,
          "name": "editionNumber",
          "type": "uint256"
        },
        {
          "indexed": true,
          "name": "cardTypeId",
          "type": "uint256"
        },
        {
          "indexed": false,
          "name": "CzxpGained",
          "type": "uint256"
        }
      ],
      "name": "LogCardCreated",
      "type": "event"
    },
    {
      "anonymous": false,
      "inputs": [
        {
          "indexed": true,
          "name": "owner",
          "type": "address"
        },
        {
          "indexed": true,
          "name": "cardTokenId",
          "type": "uint256"
        },
        {
          "indexed": true,
          "name": "cardTypeId",
          "type": "uint256"
        },
        {
          "indexed": false,
          "name": "CzxpGained",
          "type": "uint256"
        }
      ],
      "name": "SacrificeCardEvent",
      "type": "event"
    },
    {
      "anonymous": false,
      "inputs": [
        {
          "indexed": true,
          "name": "_from",
          "type": "address"
        },
        {
          "indexed": true,
          "name": "_to",
          "type": "address"
        },
        {
          "indexed": true,
          "name": "_tokenId",
          "type": "uint256"
        }
      ],
      "name": "Transfer",
      "type": "event"
    },
    {
      "anonymous": false,
      "inputs": [
        {
          "indexed": true,
          "name": "_owner",
          "type": "address"
        },
        {
          "indexed": true,
          "name": "_approved",
          "type": "address"
        },
        {
          "indexed": true,
          "name": "_tokenId",
          "type": "uint256"
        }
      ],
      "name": "Approval",
      "type": "event"
    },
    {
      "anonymous": false,
      "inputs": [
        {
          "indexed": true,
          "name": "_owner",
          "type": "address"
        },
        {
          "indexed": true,
          "name": "_operator",
          "type": "address"
        },
        {
          "indexed": false,
          "name": "_approved",
          "type": "bool"
        }
      ],
      "name": "ApprovalForAll",
      "type": "event"
    },
    {
      "anonymous": false,
      "inputs": [
        {
          "indexed": true,
          "name": "beneficiary",
          "type": "address"
        },
        {
          "indexed": false,
          "name": "czxpAmount",
          "type": "uint256"
        }
      ],
      "name": "CZXPGained",
      "type": "event"
    },
    {
      "anonymous": false,
      "inputs": [
        {
          "indexed": true,
          "name": "previousOwner",
          "type": "address"
        }
      ],
      "name": "OwnershipRenounced",
      "type": "event"
    },
    {
      "anonymous": false,
      "inputs": [
        {
          "indexed": true,
          "name": "previousOwner",
          "type": "address"
        },
        {
          "indexed": true,
          "name": "newOwner",
          "type": "address"
        }
      ],
      "name": "OwnershipTransferred",
      "type": "event"
    },
    {
      "constant": false,
      "inputs": [
        {
          "name": "_cardTypeId",
          "type": "uint8"
        },
        {
          "name": "_name",
          "type": "string"
        },
        {
          "name": "_set",
          "type": "string"
        },
        {
          "name": "_assetType",
          "type": "uint8"
        },
        {
          "name": "_notStoreOrBonus",
          "type": "uint8"
        },
        {
          "name": "_rarity",
          "type": "uint8"
        },
        {
          "name": "_totalAvailable",
          "type": "uint16"
        },
        {
          "name": "_weiCost",
          "type": "uint256"
        },
        {
          "name": "_buyCzxp",
          "type": "uint256"
        }
      ],
      "name": "loadNewCardType",
      "outputs": [
        {
          "name": "",
          "type": "bool"
        }
      ],
      "payable": false,
      "stateMutability": "nonpayable",
      "type": "function"
    },
    {
      "constant": false,
      "inputs": [
        {
          "name": "_cardTypeId",
          "type": "uint32"
        },
        {
          "name": "_transferCzxp",
          "type": "uint256"
        },
        {
          "name": "_sacrificeCzxp",
          "type": "uint256"
        },
        {
          "name": "_unlockCzxp",
          "type": "uint256"
        },
        {
          "name": "_cardLevel",
          "type": "uint8"
        }
      ],
      "name": "addTocardType",
      "outputs": [
        {
          "name": "",
          "type": "bool"
        }
      ],
      "payable": false,
      "stateMutability": "nonpayable",
      "type": "function"
    },
    {
      "constant": false,
      "inputs": [
        {
          "name": "_cardTypeId",
          "type": "uint32"
        }
      ],
      "name": "buyCard",
      "outputs": [
        {
          "name": "",
          "type": "bool"
        }
      ],
      "payable": true,
      "stateMutability": "payable",
      "type": "function"
    },
    {
      "constant": false,
      "inputs": [
        {
          "name": "_cardTypeId",
          "type": "uint32"
        }
      ],
      "name": "getFreeCard",
      "outputs": [],
      "payable": false,
      "stateMutability": "nonpayable",
      "type": "function"
    },
    {
      "constant": true,
      "inputs": [
        {
          "name": "cardId",
          "type": "uint256"
        }
      ],
      "name": "getOwnedCard",
      "outputs": [
        {
          "name": "",
          "type": "uint32"
        },
        {
          "name": "",
          "type": "uint256"
        },
        {
          "name": "",
          "type": "uint256"
        }
      ],
      "payable": false,
      "stateMutability": "view",
      "type": "function"
    },
    {
      "constant": false,
      "inputs": [
        {
          "name": "_cardId",
          "type": "uint256"
        }
      ],
      "name": "sacrifice",
      "outputs": [],
      "payable": false,
      "stateMutability": "nonpayable",
      "type": "function"
    },
    {
      "constant": false,
      "inputs": [],
      "name": "buyBoosterCard",
      "outputs": [
        {
          "name": "",
          "type": "bool"
        }
      ],
      "payable": true,
      "stateMutability": "payable",
      "type": "function"
    },
    {
      "constant": false,
      "inputs": [],
      "name": "buyBoosterCardAndOpen",
      "outputs": [],
      "payable": true,
      "stateMutability": "payable",
      "type": "function"
    },
    {
      "constant": false,
      "inputs": [
        {
          "name": "czxpWager",
          "type": "uint256"
        }
      ],
      "name": "openBoosterCard",
      "outputs": [
        {
          "name": "",
          "type": "bool"
        }
      ],
      "payable": false,
      "stateMutability": "nonpayable",
      "type": "function"
    },
    {
      "constant": false,
      "inputs": [
        {
          "name": "czxpWager",
          "type": "uint256"
        }
      ],
      "name": "getRarity",
      "outputs": [
        {
          "name": "",
          "type": "uint8"
        }
      ],
      "payable": false,
      "stateMutability": "nonpayable",
      "type": "function"
    },
    {
      "constant": false,
      "inputs": [],
      "name": "withdraw",
      "outputs": [],
      "payable": false,
      "stateMutability": "nonpayable",
      "type": "function"
    }
  ],
  "bytecode": "0x60806040526040805190810160405280601b81526020017f68747470733a2f2f63727970746f7a2e63617264732f646174612f00000000008152506001908051906020019062000051929190620003aa565b506040805190810160405280600d81526020017f43727970746f7a20436172647300000000000000000000000000000000000000815250601190805190602001906200009f929190620003aa565b506040805190810160405280600781526020017f43727970746f7a0000000000000000000000000000000000000000000000000081525060129080519060200190620000ed929190620003aa565b50348015620000fb57600080fd5b506040516020806200514883398101806040528101908080519060200190929190505050336000806101000a81548173ffffffffffffffffffffffffffffffffffffffff021916908373ffffffffffffffffffffffffffffffffffffffff1602179055506001600b60006301ffc9a77c0100000000000000000000000000000000000000000000000000000000027bffffffffffffffffffffffffffffffffffffffffffffffffffffffff19167bffffffffffffffffffffffffffffffffffffffffffffffffffffffff1916815260200190815260200160002060006101000a81548160ff021916908315150217905550620002296301ffc9a77c010000000000000000000000000000000000000000000000000000000002620002eb640100000000026401000000009004565b620002666380ac58cd7c010000000000000000000000000000000000000000000000000000000002620002eb640100000000026401000000009004565b620002a3634f558e797c010000000000000000000000000000000000000000000000000000000002620002eb640100000000026401000000009004565b80600a60006101000a81548173ffffffffffffffffffffffffffffffffffffffff021916908373ffffffffffffffffffffffffffffffffffffffff1602179055505062000459565b63ffffffff7c010000000000000000000000000000000000000000000000000000000002817bffffffffffffffffffffffffffffffffffffffffffffffffffffffff1916141515156200033d57600080fd5b6001600c6000837bffffffffffffffffffffffffffffffffffffffffffffffffffffffff19167bffffffffffffffffffffffffffffffffffffffffffffffffffffffff1916815260200190815260200160002060006101000a81548160ff02191690831515021790555050565b828054600181600116156101000203166002900490600052602060002090601f016020900481019282601f10620003ed57805160ff19168380011785556200041e565b828001600101855582156200041e579182015b828111156200041d57825182559160200191906001019062000400565b5b5090506200042d919062000431565b5090565b6200045691905b808211156200045257600081600090555060010162000438565b5090565b90565b614cdf80620004696000396000f3006080604052600436106101f9576000357c0100000000000000000000000000000000000000000000000000000000900463ffffffff16806301ffc9a71461020b57806306fdde031461026f578063081812fc146102ff578063095ea7b31461036c57806316b93be8146103b957806318160ddd146103ec57806319fa8f501461041757806323b872dd146104805780632f745c59146104ed5780633ccfd60b1461054e57806342842e0e1461056557806342ed1d29146105d2578063487586971461072d5780634f27f626146107745780634f558e79146107b95780634f6ccce7146107fe5780636352211e1461083f578063692170c2146108ac57806370a0823114610922578063715018a6146109795780637752f487146109905780637a9d06df146109e75780637f27645514610a4257806381cbd20314610a6d5780638462151c14610ad25780638da5cb5b14610b6a5780638e7a591314610bc1578063918923c414610cde57806395d89b4114610d1f578063a22cb46514610daf578063a47ed2e714610dfe578063b4a1676914610e59578063b88d4fde14610e9a578063c87b56dd14610f4d578063d057570814610ff3578063e178e05114611031578063e985e9c51461105e578063ef73cc66146110d9578063f2fde38b14611133578063f520f13e14611176578063fc7f0fec14611198575b34801561020557600080fd5b50600080fd5b34801561021757600080fd5b5061025560048036038101908080357bffffffffffffffffffffffffffffffffffffffffffffffffffffffff191690602001909291905050506111a2565b604051808215151515815260200191505060405180910390f35b34801561027b57600080fd5b5061028461120a565b6040518080602001828103825283818151815260200191508051906020019080838360005b838110156102c45780820151818401526020810190506102a9565b50505050905090810190601f1680156102f15780820380516001836020036101000a031916815260200191505b509250505060405180910390f35b34801561030b57600080fd5b5061032a600480360381019080803590602001909291905050506112ac565b604051808273ffffffffffffffffffffffffffffffffffffffff1673ffffffffffffffffffffffffffffffffffffffff16815260200191505060405180910390f35b34801561037857600080fd5b506103b7600480360381019080803573ffffffffffffffffffffffffffffffffffffffff169060200190929190803590602001909291905050506112e9565b005b3480156103c557600080fd5b506103ea600480360381019080803563ffffffff16906020019092919050505061142e565b005b3480156103f857600080fd5b506104016117e5565b6040518082815260200191505060405180910390f35b34801561042357600080fd5b5061042c6117f2565b60405180827bffffffffffffffffffffffffffffffffffffffffffffffffffffffff19167bffffffffffffffffffffffffffffffffffffffffffffffffffffffff1916815260200191505060405180910390f35b34801561048c57600080fd5b506104eb600480360381019080803573ffffffffffffffffffffffffffffffffffffffff169060200190929190803573ffffffffffffffffffffffffffffffffffffffff16906020019092919080359060200190929190505050611819565b005b3480156104f957600080fd5b50610538600480360381019080803573ffffffffffffffffffffffffffffffffffffffff1690602001909291908035906020019092919050505061193e565b6040518082815260200191505060405180910390f35b34801561055a57600080fd5b506105636119b5565b005b34801561057157600080fd5b506105d0600480360381019080803573ffffffffffffffffffffffffffffffffffffffff169060200190929190803573ffffffffffffffffffffffffffffffffffffffff16906020019092919080359060200190929190505050611a70565b005b3480156105de57600080fd5b50610603600480360381019080803563ffffffff169060200190929190505050611a91565b604051808a63ffffffff1663ffffffff16815260200180602001806020018981526020018881526020018781526020018681526020018581526020018460ff1660ff16815260200183810383528b818151815260200191508051906020019080838360005b83811015610683578082015181840152602081019050610668565b50505050905090810190601f1680156106b05780820380516001836020036101000a031916815260200191505b5083810382528a818151815260200191508051906020019080838360005b838110156106e95780820151818401526020810190506106ce565b50505050905090810190601f1680156107165780820380516001836020036101000a031916815260200191505b509b50505050505050505050505060405180910390f35b34801561073957600080fd5b5061075860048036038101908080359060200190929190505050611c2c565b604051808260ff1660ff16815260200191505060405180910390f35b34801561078057600080fd5b5061079f60048036038101908080359060200190929190505050611cb7565b604051808215151515815260200191505060405180910390f35b3480156107c557600080fd5b506107e460048036038101908080359060200190929190505050611e1b565b604051808215151515815260200191505060405180910390f35b34801561080a57600080fd5b5061082960048036038101908080359060200190929190505050611e8d565b6040518082815260200191505060405180910390f35b34801561084b57600080fd5b5061086a60048036038101908080359060200190929190505050611ec5565b604051808273ffffffffffffffffffffffffffffffffffffffff1673ffffffffffffffffffffffffffffffffffffffff16815260200191505060405180910390f35b3480156108b857600080fd5b50610908600480360381019080803563ffffffff169060200190929190803590602001909291908035906020019092919080359060200190929190803560ff169060200190929190505050611f43565b604051808215151515815260200191505060405180910390f35b34801561092e57600080fd5b50610963600480360381019080803573ffffffffffffffffffffffffffffffffffffffff16906020019092919050505061227d565b6040518082815260200191505060405180910390f35b34801561098557600080fd5b5061098e612301565b005b34801561099c57600080fd5b506109d1600480360381019080803573ffffffffffffffffffffffffffffffffffffffff169060200190929190505050612403565b6040518082815260200191505060405180910390f35b3480156109f357600080fd5b50610a126004803603810190808035906020019092919050505061241b565b604051808463ffffffff1663ffffffff168152602001838152602001828152602001935050505060405180910390f35b348015610a4e57600080fd5b50610a576124b4565b6040518082815260200191505060405180910390f35b348015610a7957600080fd5b50610ab8600480360381019080803573ffffffffffffffffffffffffffffffffffffffff169060200190929190803590602001909291905050506124c1565b604051808215151515815260200191505060405180910390f35b348015610ade57600080fd5b50610b13600480360381019080803573ffffffffffffffffffffffffffffffffffffffff1690602001909291905050506124f0565b6040518080602001828103825283818151815260200191508051906020019060200280838360005b83811015610b56578082015181840152602081019050610b3b565b505050509050019250505060405180910390f35b348015610b7657600080fd5b50610b7f61263d565b604051808273ffffffffffffffffffffffffffffffffffffffff1673ffffffffffffffffffffffffffffffffffffffff16815260200191505060405180910390f35b348015610bcd57600080fd5b50610cc4600480360381019080803560ff169060200190929190803590602001908201803590602001908080601f0160208091040260200160405190810160405280939291908181526020018383808284378201915050505050509192919290803590602001908201803590602001908080601f0160208091040260200160405190810160405280939291908181526020018383808284378201915050505050509192919290803560ff169060200190929190803560ff169060200190929190803560ff169060200190929190803561ffff1690602001909291908035906020019092919080359060200190929190505050612662565b604051808215151515815260200191505060405180910390f35b348015610cea57600080fd5b50610d0960048036038101908080359060200190929190505050612980565b6040518082815260200191505060405180910390f35b348015610d2b57600080fd5b50610d346129a3565b6040518080602001828103825283818151815260200191508051906020019080838360005b83811015610d74578082015181840152602081019050610d59565b50505050905090810190601f168015610da15780820380516001836020036101000a031916815260200191505b509250505060405180910390f35b348015610dbb57600080fd5b50610dfc600480360381019080803573ffffffffffffffffffffffffffffffffffffffff169060200190929190803515159060200190929190505050612a45565b005b348015610e0a57600080fd5b50610e2960048036038101908080359060200190929190505050612b81565b604051808463ffffffff1663ffffffff168152602001838152602001828152602001935050505060405180910390f35b348015610e6557600080fd5b50610e8460048036038101908080359060200190929190505050612c06565b6040518082815260200191505060405180910390f35b348015610ea657600080fd5b50610f4b600480360381019080803573ffffffffffffffffffffffffffffffffffffffff169060200190929190803573ffffffffffffffffffffffffffffffffffffffff16906020019092919080359060200190929190803590602001908201803590602001908080601f0160208091040260200160405190810160405280939291908181526020018383808284378201915050505050509192919290505050612c1e565b005b348015610f5957600080fd5b50610f7860048036038101908080359060200190929190505050612c46565b6040518080602001828103825283818151815260200191508051906020019080838360005b83811015610fb8578082015181840152602081019050610f9d565b50505050905090810190601f168015610fe55780820380516001836020036101000a031916815260200191505b509250505060405180910390f35b611017600480360381019080803563ffffffff169060200190929190505050612d0f565b604051808215151515815260200191505060405180910390f35b34801561103d57600080fd5b5061105c600480360381019080803590602001909291905050506132dd565b005b34801561106a57600080fd5b506110bf600480360381019080803573ffffffffffffffffffffffffffffffffffffffff169060200190929190803573ffffffffffffffffffffffffffffffffffffffff1690602001909291905050506132ea565b604051808215151515815260200191505060405180910390f35b3480156110e557600080fd5b50611111600480360381019080803560ff1690602001909291908035906020019092919050505061337e565b604051808263ffffffff1663ffffffff16815260200191505060405180910390f35b34801561113f57600080fd5b50611174600480360381019080803573ffffffffffffffffffffffffffffffffffffffff1690602001909291905050506133c6565b005b61117e61342d565b604051808215151515815260200191505060405180910390f35b6111a06134ed565b005b6000600c6000837bffffffffffffffffffffffffffffffffffffffffffffffffffffffff19167bffffffffffffffffffffffffffffffffffffffffffffffffffffffff1916815260200190815260200160002060009054906101000a900460ff169050919050565b606060118054600181600116156101000203166002900480601f0160208091040260200160405190810160405280929190818152602001828054600181600116156101000203166002900480156112a25780601f10611277576101008083540402835291602001916112a2565b820191906000526020600020905b81548152906001019060200180831161128557829003601f168201915b5050505050905090565b6000600e600083815260200190815260200160002060009054906101000a900473ffffffffffffffffffffffffffffffffffffffff169050919050565b60006112f482611ec5565b90508073ffffffffffffffffffffffffffffffffffffffff168373ffffffffffffffffffffffffffffffffffffffff161415151561133157600080fd5b8073ffffffffffffffffffffffffffffffffffffffff163373ffffffffffffffffffffffffffffffffffffffff161480611371575061137081336132ea565b5b151561137c57600080fd5b82600e600084815260200190815260200160002060006101000a81548173ffffffffffffffffffffffffffffffffffffffff021916908373ffffffffffffffffffffffffffffffffffffffff160217905550818373ffffffffffffffffffffffffffffffffffffffff168273ffffffffffffffffffffffffffffffffffffffff167f8c5be1e5ebec7d5bd14f71427d1e84f3dd0314c0f7b2291e5b200ac8c7c3b92560405160405180910390a4505050565b600080828063ffffffff16600760008363ffffffff1663ffffffff16815260200190815260200160002060000160009054906101000a900463ffffffff1663ffffffff1614151561147e57600080fd5b6001600360008363ffffffff16815260200190815260200160002060009054906101000a900460ff1660ff161015156114b657600080fd5b6000600360008663ffffffff16815260200190815260200160002060009054906101000a900460ff1660ff161415156114ee57600080fd5b6001600960008663ffffffff1681526020019081526020016000205401600560008663ffffffff16815260200190815260200160002060009054906101000a900461ffff1661ffff1611151561154357600080fd5b60001515601860003373ffffffffffffffffffffffffffffffffffffffff1673ffffffffffffffffffffffffffffffffffffffff16815260200190815260200160002060008663ffffffff16815260200190815260200160002060009054906101000a900460ff1615151415156115b957600080fd5b600a60009054906101000a900473ffffffffffffffffffffffffffffffffffffffff1673ffffffffffffffffffffffffffffffffffffffff166370a08231336040518263ffffffff167c0100000000000000000000000000000000000000000000000000000000028152600401808273ffffffffffffffffffffffffffffffffffffffff1673ffffffffffffffffffffffffffffffffffffffff168152602001915050602060405180830381600087803b15801561167657600080fd5b505af115801561168a573d6000803e3d6000fd5b505050506040513d60208110156116a057600080fd5b81019080805190602001909291905050509250600760008563ffffffff1663ffffffff1681526020019081526020016000206007015483101515156116e457600080fd5b6000600760008663ffffffff1663ffffffff1681526020019081526020016000206003015414151561171557600080fd5b61174133600760008763ffffffff1663ffffffff168152602001908152602001600020600401546135b4565b61176e8433600760008863ffffffff1663ffffffff16815260200190815260200160002060040154613695565b91506001601860003373ffffffffffffffffffffffffffffffffffffffff1673ffffffffffffffffffffffffffffffffffffffff16815260200190815260200160002060008663ffffffff16815260200190815260200160002060006101000a81548160ff02191690831515021790555050505050565b6000601580549050905090565b6301ffc9a77c01000000000000000000000000000000000000000000000000000000000281565b600073ffffffffffffffffffffffffffffffffffffffff168373ffffffffffffffffffffffffffffffffffffffff161415151561185557600080fd5b600073ffffffffffffffffffffffffffffffffffffffff168273ffffffffffffffffffffffffffffffffffffffff161415151561189157600080fd5b61189b838261391f565b6118a58382613a22565b6118af8282613c3a565b60016006828154811015156118c057fe5b906000526020600020906003020160020160008282540192505081905550808273ffffffffffffffffffffffffffffffffffffffff168473ffffffffffffffffffffffffffffffffffffffff167fddf252ad1be2c89b69c2b068fc378daa952ba7f163c4a11628f55a4df523b3ef60405160405180910390a4505050565b60006119498361227d565b8210151561195657600080fd5b601360008473ffffffffffffffffffffffffffffffffffffffff1673ffffffffffffffffffffffffffffffffffffffff168152602001908152602001600020828154811015156119a257fe5b9060005260206000200154905092915050565b6000809054906101000a900473ffffffffffffffffffffffffffffffffffffffff1673ffffffffffffffffffffffffffffffffffffffff163373ffffffffffffffffffffffffffffffffffffffff16141515611a1057600080fd5b3373ffffffffffffffffffffffffffffffffffffffff166108fc3073ffffffffffffffffffffffffffffffffffffffff16319081150290604051600060405180830381858888f19350505050158015611a6d573d6000803e3d6000fd5b50565b611a8c8383836020604051908101604052806000815250612c1e565b505050565b60076020528060005260406000206000915090508060000160009054906101000a900463ffffffff1690806001018054600181600116156101000203166002900480601f016020809104026020016040519081016040528092919081815260200182805460018160011615610100020316600290048015611b535780601f10611b2857610100808354040283529160200191611b53565b820191906000526020600020905b815481529060010190602001808311611b3657829003601f168201915b505050505090806002018054600181600116156101000203166002900480601f016020809104026020016040519081016040528092919081815260200182805460018160011615610100020316600290048015611bf15780601f10611bc657610100808354040283529160200191611bf1565b820191906000526020600020905b815481529060010190602001808311611bd457829003601f168201915b5050505050908060030154908060040154908060050154908060060154908060070154908060080160009054906101000a900460ff16905089565b600080611c37614af9565b6000611c5a3373ffffffffffffffffffffffffffffffffffffffff166064613d11565b9250611c6585613d54565b9150600290505b60068160ff161015611cae57818160ff16600681101515611c8957fe5b602002015160ff1683111515611ca157809350611caf565b8080600101915050611c6c565b5b505050919050565b6000806000601960003373ffffffffffffffffffffffffffffffffffffffff1673ffffffffffffffffffffffffffffffffffffffff16815260200190815260200160002054111515611d0857600080fd5b60008310151515611d1857600080fd5b611d6b6001601960003373ffffffffffffffffffffffffffffffffffffffff1673ffffffffffffffffffffffffffffffffffffffff16815260200190815260200160002054613db590919063ffffffff16565b601960003373ffffffffffffffffffffffffffffffffffffffff1673ffffffffffffffffffffffffffffffffffffffff16815260200190815260200160002081905550611db783611c2c565b9050611dc281613dce565b3373ffffffffffffffffffffffffffffffffffffffff167f66e021f2e6bf1b4f79e6e5622acffc29c6230663c0432ac8c08a5edcb1f2338260016040518082815260200191505060405180910390a26001915050919050565b600080600d600084815260200190815260200160002060009054906101000a900473ffffffffffffffffffffffffffffffffffffffff169050600073ffffffffffffffffffffffffffffffffffffffff168173ffffffffffffffffffffffffffffffffffffffff161415915050919050565b6000611e976117e5565b82101515611ea457600080fd5b601582815481101515611eb357fe5b90600052602060002001549050919050565b600080600d600084815260200190815260200160002060009054906101000a900473ffffffffffffffffffffffffffffffffffffffff169050600073ffffffffffffffffffffffffffffffffffffffff168173ffffffffffffffffffffffffffffffffffffffff1614151515611f3a57600080fd5b80915050919050565b60008060009054906101000a900473ffffffffffffffffffffffffffffffffffffffff1673ffffffffffffffffffffffffffffffffffffffff163373ffffffffffffffffffffffffffffffffffffffff16141515611fa057600080fd5b6000600760008863ffffffff1663ffffffff16815260200190815260200160002060050154141515611fd157600080fd5b6000600760008863ffffffff1663ffffffff1681526020019081526020016000206006015414151561200257600080fd5b6000600760008863ffffffff1663ffffffff1681526020019081526020016000206007015414151561203357600080fd5b6000600760008863ffffffff1663ffffffff16815260200190815260200160002060080160009054906101000a900460ff1660ff1614151561207457600080fd5b8563ffffffff16600760008863ffffffff1663ffffffff16815260200190815260200160002060000160009054906101000a900463ffffffff1663ffffffff161415156120c057600080fd5b84600760008863ffffffff1663ffffffff1681526020019081526020016000206005018190555083600760008863ffffffff1663ffffffff1681526020019081526020016000206006018190555082600760008863ffffffff1663ffffffff1681526020019081526020016000206007018190555081600760008863ffffffff1663ffffffff16815260200190815260200160002060080160006101000a81548160ff021916908360ff1602179055506000600960008863ffffffff168152602001908152602001600020819055508563ffffffff167f566651c26d6867f4a0341c33295b297504f1f8445ef05b6a80d7faa24280cd2e600760008963ffffffff1663ffffffff16815260200190815260200160002060010160405180806020018281038252838181546001816001161561010002031660029004815260200191508054600181600116156101000203166002900480156122625780601f1061223757610100808354040283529160200191612262565b820191906000526020600020905b81548152906001019060200180831161224557829003601f168201915b50509250505060405180910390a26001905095945050505050565b60008073ffffffffffffffffffffffffffffffffffffffff168273ffffffffffffffffffffffffffffffffffffffff16141515156122ba57600080fd5b600f60008373ffffffffffffffffffffffffffffffffffffffff1673ffffffffffffffffffffffffffffffffffffffff168152602001908152602001600020549050919050565b6000809054906101000a900473ffffffffffffffffffffffffffffffffffffffff1673ffffffffffffffffffffffffffffffffffffffff163373ffffffffffffffffffffffffffffffffffffffff1614151561235c57600080fd5b6000809054906101000a900473ffffffffffffffffffffffffffffffffffffffff1673ffffffffffffffffffffffffffffffffffffffff167ff8df31144d9c2f0f6b59d69b8b98abd5459d07f2742c4df920b25aae33c6482060405160405180910390a260008060006101000a81548173ffffffffffffffffffffffffffffffffffffffff021916908373ffffffffffffffffffffffffffffffffffffffff160217905550565b60196020528060005260406000206000915090505481565b600080600061242984611e1b565b151561243457600080fd5b60068481548110151561244357fe5b906000526020600020906003020160000160009054906101000a900463ffffffff1660068581548110151561247457fe5b90600052602060002090600302016001015460068681548110151561249557fe5b9060005260206000209060030201600201549250925092509193909250565b6000600880549050905090565b60186020528160005260406000206020528060005260406000206000915091509054906101000a900460ff1681565b60606000606060008060006125048761227d565b9450600085141561254757600060405190808252806020026020018201604052801561253f5781602001602082028038833980820191505090505b509550612633565b846040519080825280602002602001820160405280156125765781602001602082028038833980820191505090505b5093506125816117e5565b925060009150600190505b828111151561262f578673ffffffffffffffffffffffffffffffffffffffff16600d600083815260200190815260200160002060009054906101000a900473ffffffffffffffffffffffffffffffffffffffff1673ffffffffffffffffffffffffffffffffffffffff1614156126225780848381518110151561260b57fe5b906020019060200201818152505081806001019250505b808060010191505061258c565b8395505b5050505050919050565b6000809054906101000a900473ffffffffffffffffffffffffffffffffffffffff1681565b60008060009054906101000a900473ffffffffffffffffffffffffffffffffffffffff1673ffffffffffffffffffffffffffffffffffffffff163373ffffffffffffffffffffffffffffffffffffffff161415156126bf57600080fd5b611388600880549050111515156126d557600080fd5b6000600760008c60ff1663ffffffff16815260200190815260200160002060000160009054906101000a900463ffffffff1663ffffffff1614151561271957600080fd5b8960ff16600760008c60ff1663ffffffff16815260200190815260200160002060000160006101000a81548163ffffffff021916908363ffffffff16021790555088600760008c60ff1663ffffffff168152602001908152602001600020600101908051906020019061278d929190614b1c565b5087600760008c60ff1663ffffffff16815260200190815260200160002060020190805190602001906127c1929190614b1c565b5086600260008c60ff16815260200190815260200160002060006101000a81548160ff021916908360ff16021790555085600360008c60ff16815260200190815260200160002060006101000a81548160ff021916908360ff16021790555084600460008c60ff16815260200190815260200160002060006101000a81548160ff021916908360ff16021790555083600560008c60ff16815260200190815260200160002060006101000a81548161ffff021916908361ffff16021790555082600760008c60ff1663ffffffff1681526020019081526020016000206003018190555081600760008c60ff1663ffffffff1681526020019081526020016000206004018190555060018660ff16141561294057601a60008660ff1660ff1681526020019081526020016000208a90806001815401808255809150509060018203906000526020600020906008918282040191900660040290919260ff16909190916101000a81548163ffffffff021916908363ffffffff160217905550505b60088a9080600181540180825580915050906001820390600052602060002001600090919260ff1690919091505550600190509998505050505050505050565b60088181548110151561298f57fe5b906000526020600020016000915090505481565b606060128054600181600116156101000203166002900480601f016020809104026020016040519081016040528092919081815260200182805460018160011615610100020316600290048015612a3b5780601f10612a1057610100808354040283529160200191612a3b565b820191906000526020600020905b815481529060010190602001808311612a1e57829003601f168201915b5050505050905090565b3373ffffffffffffffffffffffffffffffffffffffff168273ffffffffffffffffffffffffffffffffffffffff1614151515612a8057600080fd5b80601060003373ffffffffffffffffffffffffffffffffffffffff1673ffffffffffffffffffffffffffffffffffffffff16815260200190815260200160002060008473ffffffffffffffffffffffffffffffffffffffff1673ffffffffffffffffffffffffffffffffffffffff16815260200190815260200160002060006101000a81548160ff0219169083151502179055508173ffffffffffffffffffffffffffffffffffffffff163373ffffffffffffffffffffffffffffffffffffffff167f17307eab39ab6107e8899845ad3d59bd9653f200f220920489ca2b5937696c3183604051808215151515815260200191505060405180910390a35050565b6000806000600684815481101515612b9557fe5b906000526020600020906003020160000160009054906101000a900463ffffffff16600685815481101515612bc657fe5b906000526020600020906003020160010154600686815481101515612be757fe5b9060005260206000209060030201600201549250925092509193909250565b60096020528060005260406000206000915090505481565b612c29848484611819565b612c3584848484613e73565b1515612c4057600080fd5b50505050565b6060612c5182611e1b565b1515612c5c57600080fd5b601760008381526020019081526020016000208054600181600116156101000203166002900480601f016020809104026020016040519081016040528092919081815260200182805460018160011615610100020316600290048015612d035780601f10612cd857610100808354040283529160200191612d03565b820191906000526020600020905b815481529060010190602001808311612ce657829003601f168201915b50505050509050919050565b6000612d19614b9c565b600080848063ffffffff16600760008363ffffffff1663ffffffff16815260200190815260200160002060000160009054906101000a900463ffffffff1663ffffffff16141515612d6957600080fd5b6001600360008363ffffffff16815260200190815260200160002060009054906101000a900460ff1660ff16101515612da157600080fd5b600034111515612db057600080fd5b8563ffffffff16600760008863ffffffff1663ffffffff16815260200190815260200160002060000160009054906101000a900463ffffffff1663ffffffff16141515612dfc57600080fd5b600760008763ffffffff1663ffffffff16815260200190815260200160002061012060405190810160405290816000820160009054906101000a900463ffffffff1663ffffffff1663ffffffff168152602001600182018054600181600116156101000203166002900480601f016020809104026020016040519081016040528092919081815260200182805460018160011615610100020316600290048015612ee75780601f10612ebc57610100808354040283529160200191612ee7565b820191906000526020600020905b815481529060010190602001808311612eca57829003601f168201915b50505050508152602001600282018054600181600116156101000203166002900480601f016020809104026020016040519081016040528092919081815260200182805460018160011615610100020316600290048015612f895780601f10612f5e57610100808354040283529160200191612f89565b820191906000526020600020905b815481529060010190602001808311612f6c57829003601f168201915b5050505050815260200160038201548152602001600482015481526020016005820154815260200160068201548152602001600782015481526020016008820160009054906101000a900460ff1660ff1660ff168152505093506000600360008863ffffffff16815260200190815260200160002060009054906101000a900460ff1660ff1614151561301b57600080fd5b60001515601860003373ffffffffffffffffffffffffffffffffffffffff1673ffffffffffffffffffffffffffffffffffffffff16815260200190815260200160002060008863ffffffff16815260200190815260200160002060009054906101000a900460ff16151514151561309157600080fd5b6001600960008863ffffffff1681526020019081526020016000205401600560008863ffffffff16815260200190815260200160002060009054906101000a900461ffff1661ffff161115156130e657600080fd5b836060015134101515156130f957600080fd5b600a60009054906101000a900473ffffffffffffffffffffffffffffffffffffffff1673ffffffffffffffffffffffffffffffffffffffff166370a08231336040518263ffffffff167c0100000000000000000000000000000000000000000000000000000000028152600401808273ffffffffffffffffffffffffffffffffffffffff1673ffffffffffffffffffffffffffffffffffffffff168152602001915050602060405180830381600087803b1580156131b657600080fd5b505af11580156131ca573d6000803e3d6000fd5b505050506040513d60208110156131e057600080fd5b810190808051906020019092919050505092508360e00151831015151561320657600080fd5b61323233600760008963ffffffff1663ffffffff168152602001908152602001600020600401546135b4565b61325f8633600760008a63ffffffff1663ffffffff16815260200190815260200160002060040154613695565b91506001601860003373ffffffffffffffffffffffffffffffffffffffff1673ffffffffffffffffffffffffffffffffffffffff16815260200190815260200160002060008863ffffffff16815260200190815260200160002060006101000a81548160ff0219169083151502179055506001945050505050919050565b6132e73382614095565b50565b6000601060008473ffffffffffffffffffffffffffffffffffffffff1673ffffffffffffffffffffffffffffffffffffffff16815260200190815260200160002060008373ffffffffffffffffffffffffffffffffffffffff1673ffffffffffffffffffffffffffffffffffffffff16815260200190815260200160002060009054906101000a900460ff16905092915050565b601a6020528160005260406000208181548110151561339957fe5b9060005260206000209060089182820401919006600402915091509054906101000a900463ffffffff1681565b6000809054906101000a900473ffffffffffffffffffffffffffffffffffffffff1673ffffffffffffffffffffffffffffffffffffffff163373ffffffffffffffffffffffffffffffffffffffff1614151561342157600080fd5b61342a816142fb565b50565b600066071afd498d0000341015151561344557600080fd5b6134986001601960003373ffffffffffffffffffffffffffffffffffffffff1673ffffffffffffffffffffffffffffffffffffffff168152602001908152602001600020546143f590919063ffffffff16565b601960003373ffffffffffffffffffffffffffffffffffffffff1673ffffffffffffffffffffffffffffffffffffffff168152602001908152602001600020819055506134e63360786135b4565b6001905090565b66071afd498d0000341015151561350357600080fd5b6135566001601960003373ffffffffffffffffffffffffffffffffffffffff1673ffffffffffffffffffffffffffffffffffffffff168152602001908152602001600020546143f590919063ffffffff16565b601960003373ffffffffffffffffffffffffffffffffffffffff1673ffffffffffffffffffffffffffffffffffffffff168152602001908152602001600020819055506135a73360016078026135b4565b6135b16000611cb7565b50565b600a60009054906101000a900473ffffffffffffffffffffffffffffffffffffffff1673ffffffffffffffffffffffffffffffffffffffff166360fa676783836040518363ffffffff167c0100000000000000000000000000000000000000000000000000000000028152600401808373ffffffffffffffffffffffffffffffffffffffff1673ffffffffffffffffffffffffffffffffffffffff16815260200182815260200192505050600060405180830381600087803b15801561367957600080fd5b505af115801561368d573d6000803e3d6000fd5b505050505050565b600061369f614bf2565b60008563ffffffff16600760008863ffffffff1663ffffffff16815260200190815260200160002060000160009054906101000a900463ffffffff1663ffffffff161415156136ed57600080fd5b61371a6001600960008963ffffffff168152602001908152602001600020546143f590919063ffffffff16565b600960008863ffffffff168152602001908152602001600020819055506060604051908101604052808763ffffffff168152602001600960008963ffffffff1681526020019081526020016000205481526020016000815250915060016006839080600181540180825580915050906001820390600052602060002090600302016000909192909190915060008201518160000160006101000a81548163ffffffff021916908363ffffffff160217905550602082015181600101556040820151816002015550500390506137ef8582614411565b61389c8161389760018054600181600116156101000203166002900480601f01602080910402602001604051908101604052809291908181526020018280546001816001161561010002031660029004801561388c5780601f106138615761010080835404028352916020019161388c565b820191906000526020600020905b81548152906001019060200180831161386f57829003601f168201915b505050505084614468565b614703565b8563ffffffff16818673ffffffffffffffffffffffffffffffffffffffff167fd56e3675590b3a0ffa7898c8a21c1dc687046d1a54c8d9d28c3e429e51f5670c600960008b63ffffffff1681526020019081526020016000205488604051808381526020018281526020019250505060405180910390a480925050509392505050565b8173ffffffffffffffffffffffffffffffffffffffff1661393f82611ec5565b73ffffffffffffffffffffffffffffffffffffffff1614151561396157600080fd5b600073ffffffffffffffffffffffffffffffffffffffff16600e600083815260200190815260200160002060009054906101000a900473ffffffffffffffffffffffffffffffffffffffff1673ffffffffffffffffffffffffffffffffffffffff16141515613a1e576000600e600083815260200190815260200160002060006101000a81548173ffffffffffffffffffffffffffffffffffffffff021916908373ffffffffffffffffffffffffffffffffffffffff1602179055505b5050565b6000806000613a318585614743565b60146000858152602001908152602001600020549250613a9d6001601360008873ffffffffffffffffffffffffffffffffffffffff1673ffffffffffffffffffffffffffffffffffffffff16815260200190815260200160002080549050613db590919063ffffffff16565b9150601360008673ffffffffffffffffffffffffffffffffffffffff1673ffffffffffffffffffffffffffffffffffffffff16815260200190815260200160002082815481101515613aeb57fe5b9060005260206000200154905080601360008773ffffffffffffffffffffffffffffffffffffffff1673ffffffffffffffffffffffffffffffffffffffff16815260200190815260200160002084815481101515613b4557fe5b90600052602060002001819055506000601360008773ffffffffffffffffffffffffffffffffffffffff1673ffffffffffffffffffffffffffffffffffffffff16815260200190815260200160002083815481101515613ba157fe5b9060005260206000200181905550601360008673ffffffffffffffffffffffffffffffffffffffff1673ffffffffffffffffffffffffffffffffffffffff168152602001908152602001600020805480919060019003613c019190614c1a565b50600060146000868152602001908152602001600020819055508260146000838152602001908152602001600020819055505050505050565b6000613c468383614872565b601360008473ffffffffffffffffffffffffffffffffffffffff1673ffffffffffffffffffffffffffffffffffffffff168152602001908152602001600020805490509050601360008473ffffffffffffffffffffffffffffffffffffffff1673ffffffffffffffffffffffffffffffffffffffff168152602001908152602001600020829080600181540180825580915050906001820390600052602060002001600090919290919091505550806014600084815260200190815260200160002081905550505050565b60008160014303408460405180836000191660001916815260200182815260200192505050604051809103902060019004811515613d4b57fe5b06905092915050565b613d5c614af9565b613d64614af9565b60c060405190810160405280600060ff168152602001600060ff168152602001600160ff168152602001600660ff168152602001601860ff168152602001606460ff16815250905080915050919050565b6000828211151515613dc357fe5b818303905092915050565b6000806000613e0f3373ffffffffffffffffffffffffffffffffffffffff16601a60008760ff1660ff16815260200190815260200160002080549050613d11565b9250601a60008560ff1660ff16815260200190815260200160002083815481101515613e3757fe5b90600052602060002090600891828204019190066004029054906101000a900463ffffffff169150613e6b82336064613695565b905050505050565b600080613e958573ffffffffffffffffffffffffffffffffffffffff166149cc565b1515613ea4576001915061408c565b8473ffffffffffffffffffffffffffffffffffffffff1663150b7a02338887876040518563ffffffff167c0100000000000000000000000000000000000000000000000000000000028152600401808573ffffffffffffffffffffffffffffffffffffffff1673ffffffffffffffffffffffffffffffffffffffff1681526020018473ffffffffffffffffffffffffffffffffffffffff1673ffffffffffffffffffffffffffffffffffffffff16815260200183815260200180602001828103825283818151815260200191508051906020019080838360005b83811015613f99578082015181840152602081019050613f7e565b50505050905090810190601f168015613fc65780820380516001836020036101000a031916815260200191505b5095505050505050602060405180830381600087803b158015613fe857600080fd5b505af1158015613ffc573d6000803e3d6000fd5b505050506040513d602081101561401257600080fd5b8101908080519060200190929190505050905063150b7a027c0100000000000000000000000000000000000000000000000000000000027bffffffffffffffffffffffffffffffffffffffffffffffffffffffff1916817bffffffffffffffffffffffffffffffffffffffffffffffffffffffff19161491505b50949350505050565b6000806000806140a586866149df565b6000601760008781526020019081526020016000208054600181600116156101000203166002900490501415156140f6576017600086815260200190815260200160002060006140f59190614c46565b5b601660008681526020019081526020016000205493506141256001601580549050613db590919063ffffffff16565b925060158381548110151561413657fe5b906000526020600020015491508160158581548110151561415357fe5b9060005260206000200181905550600060158481548110151561417257fe5b906000526020600020018190555060158054809190600190036141959190614c1a565b5060006016600087815260200190815260200160002081905550836016600084815260200190815260200160002081905550600760006006878154811015156141da57fe5b906000526020600020906003020160000160009054906101000a900463ffffffff1663ffffffff1663ffffffff16815260200190815260200160002060060154905061422633826135b4565b60068581548110151561423557fe5b906000526020600020906003020160000160009054906101000a900463ffffffff1663ffffffff16853373ffffffffffffffffffffffffffffffffffffffff167f5aa0c75e571d3ecae876f03a84d247806f1af6caf4f377701179de62b7095f14846040518082815260200191505060405180910390a46006858154811015156142bb57fe5b9060005260206000209060030201600080820160006101000a81549063ffffffff0219169055600182016000905560028201600090555050505050505050565b600073ffffffffffffffffffffffffffffffffffffffff168173ffffffffffffffffffffffffffffffffffffffff161415151561433757600080fd5b8073ffffffffffffffffffffffffffffffffffffffff166000809054906101000a900473ffffffffffffffffffffffffffffffffffffffff1673ffffffffffffffffffffffffffffffffffffffff167f8be0079c531659141344cd1fd0a4f28419497f9722a3daafe3b4186f6b6457e060405160405180910390a3806000806101000a81548173ffffffffffffffffffffffffffffffffffffffff021916908373ffffffffffffffffffffffffffffffffffffffff16021790555050565b6000818301905082811015151561440857fe5b80905092915050565b61441b8282614a53565b601580549050601660008381526020019081526020016000208190555060158190806001815401808255809150509060018203906000526020600020016000909192909190915055505050565b606060006060600080606080600060649650866040519080825280601f01601f1916602001820160405280156144ad5781602001602082028038833980820191505090505b509550600094505b60008914151561454c57600a898115156144cb57fe5b069350600a898115156144da57fe5b049850836030017f010000000000000000000000000000000000000000000000000000000000000002868680600101975081518110151561451757fe5b9060200101907effffffffffffffffffffffffffffffffffffffffffffffffffffffffffffff1916908160001a9053506144b5565b899250848351016040519080825280601f01601f1916602001820160405280156145855781602001602082028038833980820191505090505b509150600090505b825181101561463a5782818151811015156145a457fe5b9060200101517f010000000000000000000000000000000000000000000000000000000000000090047f01000000000000000000000000000000000000000000000000000000000000000282828151811015156145fd57fe5b9060200101907effffffffffffffffffffffffffffffffffffffffffffffffffffffffffffff1916908160001a905350808060010191505061458d565b600090505b848110156146f3578581600187030381518110151561465a57fe5b9060200101517f010000000000000000000000000000000000000000000000000000000000000090047f01000000000000000000000000000000000000000000000000000000000000000282845183018151811015156146b657fe5b9060200101907effffffffffffffffffffffffffffffffffffffffffffffffffffffffffffff1916908160001a905350808060010191505061463f565b8197505050505050505092915050565b61470c82611e1b565b151561471757600080fd5b8060176000848152602001908152602001600020908051906020019061473e929190614b1c565b505050565b8173ffffffffffffffffffffffffffffffffffffffff1661476382611ec5565b73ffffffffffffffffffffffffffffffffffffffff1614151561478557600080fd5b6147d86001600f60008573ffffffffffffffffffffffffffffffffffffffff1673ffffffffffffffffffffffffffffffffffffffff16815260200190815260200160002054613db590919063ffffffff16565b600f60008473ffffffffffffffffffffffffffffffffffffffff1673ffffffffffffffffffffffffffffffffffffffff168152602001908152602001600020819055506000600d600083815260200190815260200160002060006101000a81548173ffffffffffffffffffffffffffffffffffffffff021916908373ffffffffffffffffffffffffffffffffffffffff1602179055505050565b600073ffffffffffffffffffffffffffffffffffffffff16600d600083815260200190815260200160002060009054906101000a900473ffffffffffffffffffffffffffffffffffffffff1673ffffffffffffffffffffffffffffffffffffffff161415156148e057600080fd5b81600d600083815260200190815260200160002060006101000a81548173ffffffffffffffffffffffffffffffffffffffff021916908373ffffffffffffffffffffffffffffffffffffffff1602179055506149856001600f60008573ffffffffffffffffffffffffffffffffffffffff1673ffffffffffffffffffffffffffffffffffffffff168152602001908152602001600020546143f590919063ffffffff16565b600f60008473ffffffffffffffffffffffffffffffffffffffff1673ffffffffffffffffffffffffffffffffffffffff168152602001908152602001600020819055505050565b600080823b905060008111915050919050565b6149e9828261391f565b6149f38282613a22565b80600073ffffffffffffffffffffffffffffffffffffffff168373ffffffffffffffffffffffffffffffffffffffff167fddf252ad1be2c89b69c2b068fc378daa952ba7f163c4a11628f55a4df523b3ef60405160405180910390a45050565b600073ffffffffffffffffffffffffffffffffffffffff168273ffffffffffffffffffffffffffffffffffffffff1614151515614a8f57600080fd5b614a998282613c3a565b808273ffffffffffffffffffffffffffffffffffffffff16600073ffffffffffffffffffffffffffffffffffffffff167fddf252ad1be2c89b69c2b068fc378daa952ba7f163c4a11628f55a4df523b3ef60405160405180910390a45050565b60c060405190810160405280600690602082028038833980820191505090505090565b828054600181600116156101000203166002900490600052602060002090601f016020900481019282601f10614b5d57805160ff1916838001178555614b8b565b82800160010185558215614b8b579182015b82811115614b8a578251825591602001919060010190614b6f565b5b509050614b989190614c8e565b5090565b61012060405190810160405280600063ffffffff16815260200160608152602001606081526020016000815260200160008152602001600081526020016000815260200160008152602001600060ff1681525090565b606060405190810160405280600063ffffffff16815260200160008152602001600081525090565b815481835581811115614c4157818360005260206000209182019101614c409190614c8e565b5b505050565b50805460018160011615610100020316600290046000825580601f10614c6c5750614c8b565b601f016020900490600052602060002090810190614c8a9190614c8e565b5b50565b614cb091905b80821115614cac576000816000905550600101614c94565b5090565b905600a165627a7a72305820f5652e5cc3e0a91d645171ad189825430ba0b6323727c43af06a7cda89cd381f0029",
  "source": "pragma solidity ^0.4.24;\n\n/******************************************\n\nOur Matra our Motto for coding The Cryptoz Universe.buy\n\n      Fail EARLY and Fail LOUD !!!!!!!\n\n1.    First - Check all pre-conditions\n2.    Then  - make changes to contract state\n3.    Final - interact with other contracts\n\nPull funds over pushing them\nPlatform limits like max of 1023 loop interations.\n\nall Events start with Log\n\n******************************************/\n\nimport \"./CryptozCard.sol\";\n\ncontract Cryptoz is CryptozCard{\n    \n//Constants\n    uint constant private weiCostOfCard = 2000000000000000; //booster in wei = 0.002 ETH\n    uint constant private czxpGainedBoosterPurchase = 120;\n    uint constant private maxCardTypes = 5000; //allowed types in the Universe    \n\n//Event Logs\n    event LogCardTypeLoaded(uint32 indexed cardTypeId, string cardName);\n    event LogCardPurchased(uint32 indexed cardTypeId, uint editionNumber, address indexed buyer);\n    event LogPackOpened(address indexed buyer, uint packsOpened);\n\n//storage\n    \n    //Tracking booster pack count ownership. These are NOT tokens, just a counter\n    mapping (address => uint256) public boosterPacksOwned;\n    \n    //where we hold inventory of the  booster packs\n    mapping(uint8 => uint32[]) public allBoosterCardIds; // [rarityId][cardId]\n    \n    //check if cardType exists\n    modifier isValidCard(uint32 _cardTypeId) {\n//TIGHTEN   //Make sure cardType exists and we dont have bad data coming in\n        require(allCardTypes[_cardTypeId].cardTypeId == _cardTypeId);\n        require(storeBoosterBonus[_cardTypeId] < 1); //you cant get cards marked for booster pack or bonus\n        _;\n    }\n    \n    \n    function() public {\n        revert();\n    }\n    \n    //Set our cxzp contract in the constructor\n    constructor(address _czxpContractAddress) public {\n        CzxpContractAddress_ = _czxpContractAddress;\n    }\n\n    function loadNewCardType(\n            uint8 _cardTypeId,\n            string _name,\n            string _set,\n            uint8 _assetType,\n            uint8 _notStoreOrBonus,\n            uint8 _rarity,\n            uint16 _totalAvailable,\n            uint256 _weiCost,\n            uint256 _buyCzxp\n        ) public onlyOwner returns(bool){\n            \n        //what requires should we add ?\n        \n        //a max. of 5000 types in the universe ever\n        require(cardTypesIds.length <= maxCardTypes);\n        \n        //not allowed to update existing cardTypeIds\n        require(allCardTypes[_cardTypeId].cardTypeId == 0);\n        \n        allCardTypes[_cardTypeId].cardTypeId    = _cardTypeId;\n        allCardTypes[_cardTypeId].name          = _name;\n        allCardTypes[_cardTypeId].set           = _set;\n        cardAssetType[_cardTypeId]              = _assetType;\n        storeBoosterBonus[_cardTypeId]          = _notStoreOrBonus;\n        rarity[_cardTypeId]                     = _rarity;\n        totalAvailable[_cardTypeId]             = _totalAvailable;\n        allCardTypes[_cardTypeId].weiCost       = _weiCost;\n        allCardTypes[_cardTypeId].buyCzxp       = _buyCzxp;\n    \n        //If she be booster worthy\n        if(_notStoreOrBonus == 1){ // 0=store,1=booster,3=bonus\n            allBoosterCardIds[_rarity].push(_cardTypeId);\n        }\n        \n        //Track the cardTypeIds count\n        cardTypesIds.push(_cardTypeId);\n        return true;\n    }\n\n    function addTocardType(\n                        uint32  _cardTypeId,\n                        uint256 _transferCzxp,\n                        uint256 _sacrificeCzxp,\n                        uint256 _unlockCzxp,\n                        uint8 _cardLevel\n                      ) public onlyOwner returns(bool){\n                          \n        //not allowed to update existing cardTypeIds\n        require(allCardTypes[_cardTypeId].transferCzxp == 0);\n        require(allCardTypes[_cardTypeId].sacrificeCzxp == 0);\n        require(allCardTypes[_cardTypeId].unlockCzxp == 0);\n        require(allCardTypes[_cardTypeId].cardLevel == 0);\n                          \n        require(allCardTypes[_cardTypeId].cardTypeId == _cardTypeId);\n        \n        \n        allCardTypes[_cardTypeId].transferCzxp  = _transferCzxp;\n        allCardTypes[_cardTypeId].sacrificeCzxp = _sacrificeCzxp;\n        allCardTypes[_cardTypeId].unlockCzxp    = _unlockCzxp;\n        allCardTypes[_cardTypeId].cardLevel     = _cardLevel;\n        \n        //initialize editionNumber\n        cardTypeToEdition[_cardTypeId] = 0;\n        \n        //Card type is defined, now emit a Log of it\n        emit LogCardTypeLoaded(_cardTypeId,allCardTypes[_cardTypeId].name);\n        return true;\n    }\n\n    /**\n     *  Public interface to purchase a card, probablly the most insecure entry point !\n     */\n    function buyCard(uint32 _cardTypeId) public payable isValidCard(_cardTypeId) returns(bool) {\n        \n        // dont even bother if no ETH sent\n        require(msg.value > 0);\n        \n        //check for valid cardType\n        require(allCardTypes[_cardTypeId].cardTypeId == _cardTypeId);\n        \n        cardType memory _tempCard = allCardTypes[_cardTypeId];\n        \n        //check if store only\n        require(storeBoosterBonus[_cardTypeId] == 0);\n        \n        //Can't buy cards you own\n        require(cardTypesOwned[msg.sender][_cardTypeId] == false);\n         \n        //Check if this card amount we sell is more than edition+1 for this card type\n        require((totalAvailable[_cardTypeId] > cardTypeToEdition[_cardTypeId] + 1 ));\n        \n        //check if they have paid enough for it\n        require(msg.value >= _tempCard.weiCost);\n        \n        //check if we have enough czxp to unlock this card\n        uint czxp = CzxpToken(CzxpContractAddress_).balanceOf(msg.sender);\n        require(czxp >= _tempCard.unlockCzxp);\n        \n    //Clear ? to buy the card\n        \n        //Let the universe award our friend\n        super.awardCzxp(msg.sender, allCardTypes[_cardTypeId].buyCzxp);\n    \n        //Mint the real token and pass czxp gained for logging\n        uint _newId = super._createCard(_cardTypeId, msg.sender,allCardTypes[_cardTypeId].buyCzxp);\n        \n        //Track the type of card puchased for this owner, so they cant buy again\n        cardTypesOwned[msg.sender][_cardTypeId] = true;\n        \n        return true;\n    }\n    \n    /**\n     *  Public interface to get card at no cost\n     */\n    function getFreeCard(uint32 _cardTypeId) public isValidCard(_cardTypeId) {\n        //check if store only\n        require(storeBoosterBonus[_cardTypeId] == 0);\n        \n        // ensure there is enough of a supply left\n        require(totalAvailable[_cardTypeId] > (cardTypeToEdition[_cardTypeId]+1));\n        \n        //Can't get cards From shop that you own\n        require(cardTypesOwned[msg.sender][_cardTypeId] == false);\n        \n        //check if we have enough czxp to unlock this card\n        uint czxp = CzxpToken(CzxpContractAddress_).balanceOf(msg.sender);\n        require(czxp >= allCardTypes[_cardTypeId].unlockCzxp);\n        \n        //Only cards that are Free\n        require(allCardTypes[_cardTypeId].weiCost == 0);\n\n//ALL CLEAR ???????? claim a new card\n    \n        //Let the universe award our friend\n        super.awardCzxp(msg.sender, allCardTypes[_cardTypeId].buyCzxp);\n    \n        uint _newId = super._createCard(_cardTypeId, msg.sender, allCardTypes[_cardTypeId].buyCzxp);\n        \n        //Track the type of card puchased for this owner, so they cant buy again\n        cardTypesOwned[msg.sender][_cardTypeId] = true;\n    }\n    \n    function getOwnedCard(uint cardId) public view returns (uint32, uint, uint) {\n        //returned a flattened version of the Card\n        return(Cards[cardId].cardTypeId, Cards[cardId].editionNumber, Cards[cardId].transferCount);\n    }\n    \n    \n    /**\n     *  Any user can sacrifice any card they own. Please don't burn down the universe :'(\n     */\n     function sacrifice(uint256 _cardId) public {\n         //Call our internal burn function does all our owner checks\n         _burn(msg.sender, _cardId);\n     }\n    \n//Booster Pack functions\n    \n    /**\n     *  Public interface to buy booster card(s)\n     */\n    function buyBoosterCard() payable public returns(bool) {\n        \n        // is there enough wei sent 1 pack = 0.002 ETH ?\n        require(msg.value >= weiCostOfCard);\n        \n        //All good increase the number owned\n        boosterPacksOwned[msg.sender] = boosterPacksOwned[msg.sender].add(1);\n\n        //Award czxp for booster\n        super.awardCzxp(msg.sender, uint(czxpGainedBoosterPurchase));\n\n        return true;\n    }\n    \n    /**\n     *  Public interface to buy booster pack(s) and open them - NO burn option\n     */\n    function buyBoosterCardAndOpen() payable public {\n        // is there enough wei sent 1 pack = 0.005 ETH ?\n        require(msg.value >= weiCostOfCard);\n        \n        //All good increase the number owned\n        boosterPacksOwned[msg.sender] = boosterPacksOwned[msg.sender].add(1);\n\n        //Award czxp per pack\n        super.awardCzxp(msg.sender, czxpGainedBoosterPurchase*1);\n        \n        //Now open the pack\n        openBoosterCard(0);\n    }\n    \n    /**\n     *  Public interface to open already purchased booster pack(s) - NO burn option\n     */\n    function openBoosterCard(uint czxpWager) public returns(bool) {\n        //Ensure user owns unopened packs\n        require(boosterPacksOwned[msg.sender] > 0);\n        \n        //czxpWager check czxpWager\n        require(czxpWager >= 0);\n        \n        //decrement number of packs\n        boosterPacksOwned[msg.sender] = boosterPacksOwned[msg.sender].sub(1);\n        \n        //Pull the cards, 3 pulls per pack\n        //for (uint i=0; i<(_numberOfPacks*3); i++) {\n        // we cant do random more than once per block\n        uint8 rarity = getRarity(czxpWager);\n        pullCard(rarity);\n        //}\n        \n        //Send a log event\n        emit LogPackOpened(msg.sender, 1);\n        \n        return true;\n    }\n    \n//Private\n\n    /**\n     *\n     */\n     function pullCard(uint8 rarity) private {\n         \n         //Get a random number for the card to pull\n         uint rand = selectRandom(uint(msg.sender), allBoosterCardIds[rarity].length);\n         \n         //hit up the cardTypes\n         uint32 pulledId = allBoosterCardIds[rarity][rand];\n         \n        //Give the player this cardTypes\n        uint _newId = super._createCard(pulledId, msg.sender, 100);\n     }\n    \n    /**\n     *  Private function to diceroll the rarity pull Only from booster packs\n     */\n    function getRarity(uint czxpWager) public returns(uint8){\n        \n        //grab a random number\n        uint rand = selectRandom(uint(msg.sender),100);\n        \n        //get our probabilty distribution\n        uint8[6] memory probs = burnAndBoost(czxpWager); // zero czxp waged for this pull\n        \n        //Get the rarity for this pull from the probs\n        // 3=epic, 4=rare, 5=uncommon, 6=commmon\n        for(uint8 i=2; i < probs.length; i++){\n            if(rand <= probs[i]){\n                return i;\n            }\n        }\n    }\n    \n    /**\n     * Private Booster distribution function\n     */\n     function burnAndBoost(uint czxpWager) private returns(uint8[6]) {\n         //default distribution is 1,5,24,100\n         uint8[6] memory probs = [0,0,1,6,24,100];\n         \n         //if wager is greater than 0, get new distribution\n         if(czxpWager > 0){\n                   // 5 * (10**7)\n         //fixed x = czxpWager/300000;\n         //ufixed dist = 2.7182818**x;\n         }\n         \n        return probs;\n     }\n\n\n//Thanks! for supporting the Cryptoz universe <3 <3 <3\n    /**\n    * Withdraw balance to wallet\n    **/\n   function withdraw() public onlyOwner {\n      msg.sender.transfer(address(this).balance);\n   }\n}",
  "sourcePath": "/home/rprice/Downloads/cryptoz.cards/contracts/Cryptoz.sol",
  "compiler": {
    "name": "solc",
    "version": "0.4.24+commit.e67f0147.Emscripten.clang"
  },
  "schemaVersion": "2.0.1",
  "updatedAt": "2019-01-21T04:55:02.415Z"
}