{
  "contractName": "CryptozUniverse",
  "abi": [
    {
      "constant": true,
      "inputs": [
        {
          "name": "",
          "type": "uint32"
        }
      ],
      "name": "allCardTypes",
      "outputs": [
        {
          "name": "cardTypeId",
          "type": "uint32"
        },
        {
          "name": "name",
          "type": "string"
        },
        {
          "name": "set",
          "type": "string"
        },
        {
          "name": "weiCost",
          "type": "uint256"
        },
        {
          "name": "buyCzxp",
          "type": "uint256"
        },
        {
          "name": "transferCzxp",
          "type": "uint256"
        },
        {
          "name": "sacrificeCzxp",
          "type": "uint256"
        },
        {
          "name": "unlockCzxp",
          "type": "uint256"
        },
        {
          "name": "cardLevel",
          "type": "uint8"
        }
      ],
      "payable": false,
      "stateMutability": "view",
      "type": "function"
    },
    {
      "constant": false,
      "inputs": [],
      "name": "renounceOwnership",
      "outputs": [],
      "payable": false,
      "stateMutability": "nonpayable",
      "type": "function"
    },
    {
      "constant": true,
      "inputs": [],
      "name": "owner",
      "outputs": [
        {
          "name": "",
          "type": "address"
        }
      ],
      "payable": false,
      "stateMutability": "view",
      "type": "function"
    },
    {
      "constant": true,
      "inputs": [
        {
          "name": "",
          "type": "uint256"
        }
      ],
      "name": "cardTypesIds",
      "outputs": [
        {
          "name": "",
          "type": "uint256"
        }
      ],
      "payable": false,
      "stateMutability": "view",
      "type": "function"
    },
    {
      "constant": true,
      "inputs": [
        {
          "name": "",
          "type": "uint256"
        }
      ],
      "name": "cardTypeToEdition",
      "outputs": [
        {
          "name": "",
          "type": "uint256"
        }
      ],
      "payable": false,
      "stateMutability": "view",
      "type": "function"
    },
    {
      "constant": false,
      "inputs": [
        {
          "name": "_newOwner",
          "type": "address"
        }
      ],
      "name": "transferOwnership",
      "outputs": [],
      "payable": false,
      "stateMutability": "nonpayable",
      "type": "function"
    },
    {
      "payable": false,
      "stateMutability": "nonpayable",
      "type": "fallback"
    },
    {
      "anonymous": false,
      "inputs": [
        {
          "indexed": false,
          "name": "beneficiary",
          "type": "address"
        },
        {
          "indexed": false,
          "name": "czxpAmount",
          "type": "uint256"
        }
      ],
      "name": "CZXPGained",
      "type": "event"
    },
    {
      "anonymous": false,
      "inputs": [
        {
          "indexed": true,
          "name": "previousOwner",
          "type": "address"
        }
      ],
      "name": "OwnershipRenounced",
      "type": "event"
    },
    {
      "anonymous": false,
      "inputs": [
        {
          "indexed": true,
          "name": "previousOwner",
          "type": "address"
        },
        {
          "indexed": true,
          "name": "newOwner",
          "type": "address"
        }
      ],
      "name": "OwnershipTransferred",
      "type": "event"
    },
    {
      "constant": true,
      "inputs": [],
      "name": "getTotalTypes",
      "outputs": [
        {
          "name": "",
          "type": "uint256"
        }
      ],
      "payable": false,
      "stateMutability": "view",
      "type": "function"
    },
    {
      "constant": false,
      "inputs": [],
      "name": "withdraw",
      "outputs": [],
      "payable": false,
      "stateMutability": "nonpayable",
      "type": "function"
    }
  ],
  "bytecode": "0x60806040526040805190810160405280601b81526020017f68747470733a2f2f63727970746f7a2e63617264732f646174612f00000000008152506001908051906020019061004f929190610095565b50336000806101000a81548173ffffffffffffffffffffffffffffffffffffffff021916908373ffffffffffffffffffffffffffffffffffffffff16021790555061013a565b828054600181600116156101000203166002900490600052602060002090601f016020900481019282601f106100d657805160ff1916838001178555610104565b82800160010185558215610104579182015b828111156101035782518255916020019190600101906100e8565b5b5090506101119190610115565b5090565b61013791905b8082111561013357600081600090555060010161011b565b5090565b90565b6108c2806101496000396000f30060806040526004361061008e576000357c0100000000000000000000000000000000000000000000000000000000900463ffffffff1680633ccfd60b146100a057806342ed1d29146100b7578063715018a6146102125780637f276455146102295780638da5cb5b14610254578063918923c4146102ab578063b4a16769146102ec578063f2fde38b1461032d575b34801561009a57600080fd5b50600080fd5b3480156100ac57600080fd5b506100b5610370565b005b3480156100c357600080fd5b506100e8600480360381019080803563ffffffff16906020019092919050505061042b565b604051808a63ffffffff1663ffffffff16815260200180602001806020018981526020018881526020018781526020018681526020018581526020018460ff1660ff16815260200183810383528b818151815260200191508051906020019080838360005b8381101561016857808201518184015260208101905061014d565b50505050905090810190601f1680156101955780820380516001836020036101000a031916815260200191505b5083810382528a818151815260200191508051906020019080838360005b838110156101ce5780820151818401526020810190506101b3565b50505050905090810190601f1680156101fb5780820380516001836020036101000a031916815260200191505b509b50505050505050505050505060405180910390f35b34801561021e57600080fd5b506102276105c6565b005b34801561023557600080fd5b5061023e6106c8565b6040518082815260200191505060405180910390f35b34801561026057600080fd5b506102696106d5565b604051808273ffffffffffffffffffffffffffffffffffffffff1673ffffffffffffffffffffffffffffffffffffffff16815260200191505060405180910390f35b3480156102b757600080fd5b506102d6600480360381019080803590602001909291905050506106fa565b6040518082815260200191505060405180910390f35b3480156102f857600080fd5b506103176004803603810190808035906020019092919050505061071d565b6040518082815260200191505060405180910390f35b34801561033957600080fd5b5061036e600480360381019080803573ffffffffffffffffffffffffffffffffffffffff169060200190929190505050610735565b005b6000809054906101000a900473ffffffffffffffffffffffffffffffffffffffff1673ffffffffffffffffffffffffffffffffffffffff163373ffffffffffffffffffffffffffffffffffffffff161415156103cb57600080fd5b3373ffffffffffffffffffffffffffffffffffffffff166108fc3073ffffffffffffffffffffffffffffffffffffffff16319081150290604051600060405180830381858888f19350505050158015610428573d6000803e3d6000fd5b50565b60076020528060005260406000206000915090508060000160009054906101000a900463ffffffff1690806001018054600181600116156101000203166002900480601f0160208091040260200160405190810160405280929190818152602001828054600181600116156101000203166002900480156104ed5780601f106104c2576101008083540402835291602001916104ed565b820191906000526020600020905b8154815290600101906020018083116104d057829003601f168201915b505050505090806002018054600181600116156101000203166002900480601f01602080910402602001604051908101604052809291908181526020018280546001816001161561010002031660029004801561058b5780601f106105605761010080835404028352916020019161058b565b820191906000526020600020905b81548152906001019060200180831161056e57829003601f168201915b5050505050908060030154908060040154908060050154908060060154908060070154908060080160009054906101000a900460ff16905089565b6000809054906101000a900473ffffffffffffffffffffffffffffffffffffffff1673ffffffffffffffffffffffffffffffffffffffff163373ffffffffffffffffffffffffffffffffffffffff1614151561062157600080fd5b6000809054906101000a900473ffffffffffffffffffffffffffffffffffffffff1673ffffffffffffffffffffffffffffffffffffffff167ff8df31144d9c2f0f6b59d69b8b98abd5459d07f2742c4df920b25aae33c6482060405160405180910390a260008060006101000a81548173ffffffffffffffffffffffffffffffffffffffff021916908373ffffffffffffffffffffffffffffffffffffffff160217905550565b6000600880549050905090565b6000809054906101000a900473ffffffffffffffffffffffffffffffffffffffff1681565b60088181548110151561070957fe5b906000526020600020016000915090505481565b60096020528060005260406000206000915090505481565b6000809054906101000a900473ffffffffffffffffffffffffffffffffffffffff1673ffffffffffffffffffffffffffffffffffffffff163373ffffffffffffffffffffffffffffffffffffffff1614151561079057600080fd5b6107998161079c565b50565b600073ffffffffffffffffffffffffffffffffffffffff168173ffffffffffffffffffffffffffffffffffffffff16141515156107d857600080fd5b8073ffffffffffffffffffffffffffffffffffffffff166000809054906101000a900473ffffffffffffffffffffffffffffffffffffffff1673ffffffffffffffffffffffffffffffffffffffff167f8be0079c531659141344cd1fd0a4f28419497f9722a3daafe3b4186f6b6457e060405160405180910390a3806000806101000a81548173ffffffffffffffffffffffffffffffffffffffff021916908373ffffffffffffffffffffffffffffffffffffffff160217905550505600a165627a7a72305820583a2aede04b5a6c5a38c167be3dd0d11da10d2a5e1445d9a4d9f24d732b79a90029",
  "source": "pragma solidity ^0.4.22;\n\n/******************************************\n\nOur Matra our Motto for coding The Cryptoz Universe.\n\n      Fail EARLY and Fail LOUD !!!!!!!\n\n1.    First - Check all pre-conditions\n2.    Then  - make changes to contract state\n3.    Final - interact with other contracts\n\nPull funds over pushing them\nPlatform limits like max of 1023 loop interations.\n\nall Events start with Log\n\n******************************************/\nimport \"./CZXPToken.sol\";\nimport \"./../node_modules/openzeppelin-solidity/contracts/ownership/Ownable.sol\";\nimport \"./../node_modules/openzeppelin-solidity/contracts/math/SafeMath.sol\";\n\ncontract CryptozUniverse is Ownable {\n    using SafeMath for uint256;\n\n//Definitons\n    struct cardType{\n        uint32 cardTypeId;\n        string name;\n        string set;\n        //uint8 assetType; //1=human,2=animal,3=plant, 4=thing\n        //uint8 notStoreOrBonus; //0 =inStore, 1 = pack, 2= bonus\n        //uint8 rarity; //1 = diamond,6 = common\n        //uint16 totalAvailable;\n        uint256 weiCost;\n        uint256 buyCzxp;\n        uint256 transferCzxp;\n        uint256 sacrificeCzxp;\n        uint256 unlockCzxp;\n        uint8 cardLevel;\n    }\n\n    struct Card{\n        uint32 cardTypeId;\n        uint editionNumber;\n        uint transferCount;\n    }\n\n    string baseTokenURI = 'https://cryptoz.cards/data/'; //append ID on\n//storage\n\n    //Containers for the card types\n    mapping(uint256 => uint8) cardAssetType;\n    mapping(uint256 => uint8) storeBoosterBonus;\n    mapping(uint256 => uint8) rarity;\n    mapping(uint256 => uint16) totalAvailable;\n\n    //All the cards in the Cryptoz Universe\n    Card[] internal Cards;\n\n    mapping(uint32 => cardType) public allCardTypes;        // All card type definitions\n    uint256[] public cardTypesIds; //Just an array of all the id\n\n    //track editionNumberTotal, always increments, starts at 1\n    mapping(uint256 => uint256) public cardTypeToEdition;\n\n// Event Logs\n    event CZXPGained(address beneficiary, uint256 czxpAmount);\n\n//Other variables we need\n    address internal CzxpContractAddress_;\n\n\n    /**\n     * Not much going on here so exit.\n     */\n    function() public{\n        revert();\n    }\n\n    /**\n     *\n     */\n     function getTotalTypes() public view returns(uint){\n         return cardTypesIds.length;\n     }\n\n    /**\n     *  Internal function called from Cryptoz once all the checks are done\n     */\n    function awardCzxp(address _beneficiary, uint czxpReward) internal {\n        //Give the czxp tokens\n        CzxpToken(CzxpContractAddress_).awardCzxp(_beneficiary, czxpReward);\n    }\n\n    /**\n     * Random as it gets for now. Return a val between 1-100\n     */\n    function selectRandom(uint seed, uint256 range) view internal returns(uint){\n        return(uint(keccak256(block.blockhash(block.number-1), seed ))%range);\n    }\n\n    /*utility to convert bytes32 to a string\n    function bytes32ToString(bytes32 x) constant returns (string) {\n      bytes memory bytesString = new bytes(32);\n      uint charCount = 0;\n      for (uint j = 0; j < 32; j++) {\n        byte char = byte(bytes32(uint(x) * 2 ** (8 * j)));\n        if (char != 0) {\n          bytesString[charCount] = char;\n          charCount++;\n        }\n      }\n      bytes memory bytesStringTrimmed = new bytes(charCount);\n      for (j = 0; j < charCount; j++) {\n        bytesStringTrimmed[j] = bytesString[j];\n      }\n      return string(bytesStringTrimmed);\n    }\n    */\n\n    //Thanks! for supporting the Cryptoz universe <3 <3 <3\n    /**\n    * Withdraw balance to wallet\n    **/\n    function withdraw() public onlyOwner {\n      msg.sender.transfer(this.balance);\n    }\n}\n",
  "sourcePath": "/home/rprice/Downloads/cryptoz.cards/contracts/CryptozUniverse.sol",
  "compiler": {
    "name": "solc",
    "version": "0.4.24+commit.e67f0147.Emscripten.clang"
  },
  "schemaVersion": "2.0.1",
  "updatedAt": "2018-12-10T23:35:46.175Z"
}