{
  "contractName": "Cryptoz",
  "abi": [
    {
      "constant": true,
      "inputs": [
        {
          "name": "interfaceId",
          "type": "bytes4"
        }
      ],
      "name": "supportsInterface",
      "outputs": [
        {
          "name": "",
          "type": "bool"
        }
      ],
      "payable": false,
      "stateMutability": "view",
      "type": "function"
    },
    {
      "constant": true,
      "inputs": [],
      "name": "name",
      "outputs": [
        {
          "name": "_name",
          "type": "string"
        }
      ],
      "payable": false,
      "stateMutability": "view",
      "type": "function"
    },
    {
      "constant": true,
      "inputs": [
        {
          "name": "tokenId",
          "type": "uint256"
        }
      ],
      "name": "getApproved",
      "outputs": [
        {
          "name": "",
          "type": "address"
        }
      ],
      "payable": false,
      "stateMutability": "view",
      "type": "function"
    },
    {
      "constant": false,
      "inputs": [
        {
          "name": "to",
          "type": "address"
        },
        {
          "name": "tokenId",
          "type": "uint256"
        }
      ],
      "name": "approve",
      "outputs": [],
      "payable": false,
      "stateMutability": "nonpayable",
      "type": "function"
    },
    {
      "constant": true,
      "inputs": [],
      "name": "totalSupply",
      "outputs": [
        {
          "name": "",
          "type": "uint256"
        }
      ],
      "payable": false,
      "stateMutability": "view",
      "type": "function"
    },
    {
      "constant": false,
      "inputs": [
        {
          "name": "from",
          "type": "address"
        },
        {
          "name": "to",
          "type": "address"
        },
        {
          "name": "tokenId",
          "type": "uint256"
        }
      ],
      "name": "transferFrom",
      "outputs": [],
      "payable": false,
      "stateMutability": "nonpayable",
      "type": "function"
    },
    {
      "constant": true,
      "inputs": [
        {
          "name": "_owner",
          "type": "address"
        },
        {
          "name": "_index",
          "type": "uint256"
        }
      ],
      "name": "tokenOfOwnerByIndex",
      "outputs": [
        {
          "name": "",
          "type": "uint256"
        }
      ],
      "payable": false,
      "stateMutability": "view",
      "type": "function"
    },
    {
      "constant": false,
      "inputs": [
        {
          "name": "from",
          "type": "address"
        },
        {
          "name": "to",
          "type": "address"
        },
        {
          "name": "tokenId",
          "type": "uint256"
        }
      ],
      "name": "safeTransferFrom",
      "outputs": [],
      "payable": false,
      "stateMutability": "nonpayable",
      "type": "function"
    },
    {
      "constant": true,
      "inputs": [
        {
          "name": "",
          "type": "uint32"
        }
      ],
      "name": "allCardTypes",
      "outputs": [
        {
          "name": "cardTypeId",
          "type": "uint32"
        },
        {
          "name": "name",
          "type": "string"
        },
        {
          "name": "set",
          "type": "string"
        },
        {
          "name": "weiCost",
          "type": "uint256"
        },
        {
          "name": "buyCzxp",
          "type": "uint256"
        },
        {
          "name": "transferCzxp",
          "type": "uint256"
        },
        {
          "name": "sacrificeCzxp",
          "type": "uint256"
        },
        {
          "name": "unlockCzxp",
          "type": "uint256"
        },
        {
          "name": "cardLevel",
          "type": "uint8"
        }
      ],
      "payable": false,
      "stateMutability": "view",
      "type": "function"
    },
    {
      "constant": true,
      "inputs": [
        {
          "name": "",
          "type": "uint256"
        }
      ],
      "name": "tokensByRarity",
      "outputs": [
        {
          "name": "",
          "type": "uint256"
        }
      ],
      "payable": false,
      "stateMutability": "view",
      "type": "function"
    },
    {
      "constant": true,
      "inputs": [
        {
          "name": "_index",
          "type": "uint256"
        }
      ],
      "name": "tokenByIndex",
      "outputs": [
        {
          "name": "",
          "type": "uint256"
        }
      ],
      "payable": false,
      "stateMutability": "view",
      "type": "function"
    },
    {
      "constant": true,
      "inputs": [
        {
          "name": "tokenId",
          "type": "uint256"
        }
      ],
      "name": "ownerOf",
      "outputs": [
        {
          "name": "",
          "type": "address"
        }
      ],
      "payable": false,
      "stateMutability": "view",
      "type": "function"
    },
    {
      "constant": true,
      "inputs": [
        {
          "name": "owner",
          "type": "address"
        }
      ],
      "name": "balanceOf",
      "outputs": [
        {
          "name": "",
          "type": "uint256"
        }
      ],
      "payable": false,
      "stateMutability": "view",
      "type": "function"
    },
    {
      "constant": false,
      "inputs": [],
      "name": "renounceOwnership",
      "outputs": [],
      "payable": false,
      "stateMutability": "nonpayable",
      "type": "function"
    },
    {
      "constant": true,
      "inputs": [
        {
          "name": "",
          "type": "address"
        }
      ],
      "name": "boosterPacksOwned",
      "outputs": [
        {
          "name": "",
          "type": "uint256"
        }
      ],
      "payable": false,
      "stateMutability": "view",
      "type": "function"
    },
    {
      "constant": true,
      "inputs": [],
      "name": "getTotalTypes",
      "outputs": [
        {
          "name": "",
          "type": "uint256"
        }
      ],
      "payable": false,
      "stateMutability": "view",
      "type": "function"
    },
    {
      "constant": true,
      "inputs": [
        {
          "name": "",
          "type": "address"
        },
        {
          "name": "",
          "type": "uint256"
        }
      ],
      "name": "cardTypesOwned",
      "outputs": [
        {
          "name": "",
          "type": "bool"
        }
      ],
      "payable": false,
      "stateMutability": "view",
      "type": "function"
    },
    {
      "constant": true,
      "inputs": [
        {
          "name": "_owner",
          "type": "address"
        }
      ],
      "name": "tokensOfOwner",
      "outputs": [
        {
          "name": "ownerTokens",
          "type": "uint256[]"
        }
      ],
      "payable": false,
      "stateMutability": "view",
      "type": "function"
    },
    {
      "constant": false,
      "inputs": [
        {
          "name": "wager",
          "type": "uint256"
        }
      ],
      "name": "getProbs",
      "outputs": [
        {
          "name": "",
          "type": "uint16"
        },
        {
          "name": "",
          "type": "uint16"
        },
        {
          "name": "",
          "type": "uint16"
        },
        {
          "name": "",
          "type": "uint16"
        }
      ],
      "payable": false,
      "stateMutability": "nonpayable",
      "type": "function"
    },
    {
      "constant": true,
      "inputs": [
        {
          "name": "",
          "type": "uint256"
        }
      ],
      "name": "rarity",
      "outputs": [
        {
          "name": "",
          "type": "uint8"
        }
      ],
      "payable": false,
      "stateMutability": "view",
      "type": "function"
    },
    {
      "constant": true,
      "inputs": [],
      "name": "owner",
      "outputs": [
        {
          "name": "",
          "type": "address"
        }
      ],
      "payable": false,
      "stateMutability": "view",
      "type": "function"
    },
    {
      "constant": true,
      "inputs": [],
      "name": "isOwner",
      "outputs": [
        {
          "name": "",
          "type": "bool"
        }
      ],
      "payable": false,
      "stateMutability": "view",
      "type": "function"
    },
    {
      "constant": true,
      "inputs": [
        {
          "name": "",
          "type": "uint256"
        }
      ],
      "name": "cardTypesIds",
      "outputs": [
        {
          "name": "",
          "type": "uint256"
        }
      ],
      "payable": false,
      "stateMutability": "view",
      "type": "function"
    },
    {
      "constant": true,
      "inputs": [],
      "name": "symbol",
      "outputs": [
        {
          "name": "_symbol",
          "type": "string"
        }
      ],
      "payable": false,
      "stateMutability": "view",
      "type": "function"
    },
    {
      "constant": false,
      "inputs": [
        {
          "name": "to",
          "type": "address"
        },
        {
          "name": "approved",
          "type": "bool"
        }
      ],
      "name": "setApprovalForAll",
      "outputs": [],
      "payable": false,
      "stateMutability": "nonpayable",
      "type": "function"
    },
    {
      "constant": true,
      "inputs": [
        {
          "name": "_tokenId",
          "type": "uint256"
        }
      ],
      "name": "getOwnedCard",
      "outputs": [
        {
          "name": "",
          "type": "uint32"
        },
        {
          "name": "",
          "type": "uint256"
        },
        {
          "name": "",
          "type": "uint256"
        }
      ],
      "payable": false,
      "stateMutability": "view",
      "type": "function"
    },
    {
      "constant": true,
      "inputs": [],
      "name": "getTokensByRarity",
      "outputs": [
        {
          "name": "",
          "type": "uint256"
        },
        {
          "name": "",
          "type": "uint256"
        },
        {
          "name": "",
          "type": "uint256"
        },
        {
          "name": "",
          "type": "uint256"
        },
        {
          "name": "",
          "type": "uint256"
        },
        {
          "name": "",
          "type": "uint256"
        }
      ],
      "payable": false,
      "stateMutability": "view",
      "type": "function"
    },
    {
      "constant": true,
      "inputs": [
        {
          "name": "",
          "type": "uint256"
        }
      ],
      "name": "cardTypeToEdition",
      "outputs": [
        {
          "name": "",
          "type": "uint256"
        }
      ],
      "payable": false,
      "stateMutability": "view",
      "type": "function"
    },
    {
      "constant": false,
      "inputs": [
        {
          "name": "from",
          "type": "address"
        },
        {
          "name": "to",
          "type": "address"
        },
        {
          "name": "tokenId",
          "type": "uint256"
        },
        {
          "name": "_data",
          "type": "bytes"
        }
      ],
      "name": "safeTransferFrom",
      "outputs": [],
      "payable": false,
      "stateMutability": "nonpayable",
      "type": "function"
    },
    {
      "constant": true,
      "inputs": [
        {
          "name": "_tokenId",
          "type": "uint256"
        }
      ],
      "name": "tokenURI",
      "outputs": [
        {
          "name": "",
          "type": "string"
        }
      ],
      "payable": false,
      "stateMutability": "view",
      "type": "function"
    },
    {
      "constant": true,
      "inputs": [
        {
          "name": "",
          "type": "address"
        }
      ],
      "name": "sponsors",
      "outputs": [
        {
          "name": "",
          "type": "address"
        }
      ],
      "payable": false,
      "stateMutability": "view",
      "type": "function"
    },
    {
      "constant": true,
      "inputs": [
        {
          "name": "owner",
          "type": "address"
        },
        {
          "name": "operator",
          "type": "address"
        }
      ],
      "name": "isApprovedForAll",
      "outputs": [
        {
          "name": "",
          "type": "bool"
        }
      ],
      "payable": false,
      "stateMutability": "view",
      "type": "function"
    },
    {
      "constant": false,
      "inputs": [
        {
          "name": "newOwner",
          "type": "address"
        }
      ],
      "name": "transferOwnership",
      "outputs": [],
      "payable": false,
      "stateMutability": "nonpayable",
      "type": "function"
    },
    {
      "payable": false,
      "stateMutability": "nonpayable",
      "type": "fallback"
    },
    {
      "anonymous": false,
      "inputs": [
        {
          "indexed": true,
          "name": "cardTypeId",
          "type": "uint32"
        },
        {
          "indexed": false,
          "name": "cardName",
          "type": "string"
        }
      ],
      "name": "LogCardTypeLoaded",
      "type": "event"
    },
    {
      "anonymous": false,
      "inputs": [
        {
          "indexed": true,
          "name": "cardTypeId",
          "type": "uint32"
        },
        {
          "indexed": false,
          "name": "editionNumber",
          "type": "uint256"
        },
        {
          "indexed": true,
          "name": "buyer",
          "type": "address"
        }
      ],
      "name": "LogCardPurchased",
      "type": "event"
    },
    {
      "anonymous": false,
      "inputs": [
        {
          "indexed": true,
          "name": "buyer",
          "type": "address"
        },
        {
          "indexed": false,
          "name": "packsOpened",
          "type": "uint256"
        }
      ],
      "name": "LogPackOpened",
      "type": "event"
    },
    {
      "anonymous": false,
      "inputs": [
        {
          "indexed": false,
          "name": "sponsor",
          "type": "address"
        },
        {
          "indexed": false,
          "name": "affiliate",
          "type": "address"
        }
      ],
      "name": "LogSponsorLinked",
      "type": "event"
    },
    {
      "anonymous": false,
      "inputs": [
        {
          "indexed": false,
          "name": "sponsor",
          "type": "address"
        },
        {
          "indexed": false,
          "name": "affiliate",
          "type": "address"
        },
        {
          "indexed": false,
          "name": "CzxpReward",
          "type": "uint256"
        }
      ],
      "name": "LogSponsorReward",
      "type": "event"
    },
    {
      "anonymous": false,
      "inputs": [
        {
          "indexed": false,
          "name": "player",
          "type": "address"
        },
        {
          "indexed": false,
          "name": "newBonusBalance",
          "type": "uint256"
        }
      ],
      "name": "LogDailyReward",
      "type": "event"
    },
    {
      "anonymous": false,
      "inputs": [
        {
          "indexed": true,
          "name": "owner",
          "type": "address"
        },
        {
          "indexed": true,
          "name": "cardTokenId",
          "type": "uint256"
        },
        {
          "indexed": false,
          "name": "editionNumber",
          "type": "uint256"
        },
        {
          "indexed": true,
          "name": "cardTypeId",
          "type": "uint256"
        },
        {
          "indexed": false,
          "name": "rarity",
          "type": "uint8"
        },
        {
          "indexed": false,
          "name": "CzxpGained",
          "type": "uint256"
        }
      ],
      "name": "LogCardCreated",
      "type": "event"
    },
    {
      "anonymous": false,
      "inputs": [
        {
          "indexed": true,
          "name": "owner",
          "type": "address"
        },
        {
          "indexed": true,
          "name": "cardTokenId",
          "type": "uint256"
        },
        {
          "indexed": true,
          "name": "cardTypeId",
          "type": "uint256"
        },
        {
          "indexed": false,
          "name": "CzxpGained",
          "type": "uint256"
        }
      ],
      "name": "SacrificeCardEvent",
      "type": "event"
    },
    {
      "anonymous": false,
      "inputs": [
        {
          "indexed": true,
          "name": "from",
          "type": "address"
        },
        {
          "indexed": true,
          "name": "to",
          "type": "address"
        },
        {
          "indexed": true,
          "name": "tokenId",
          "type": "uint256"
        }
      ],
      "name": "Transfer",
      "type": "event"
    },
    {
      "anonymous": false,
      "inputs": [
        {
          "indexed": true,
          "name": "owner",
          "type": "address"
        },
        {
          "indexed": true,
          "name": "approved",
          "type": "address"
        },
        {
          "indexed": true,
          "name": "tokenId",
          "type": "uint256"
        }
      ],
      "name": "Approval",
      "type": "event"
    },
    {
      "anonymous": false,
      "inputs": [
        {
          "indexed": true,
          "name": "owner",
          "type": "address"
        },
        {
          "indexed": true,
          "name": "operator",
          "type": "address"
        },
        {
          "indexed": false,
          "name": "approved",
          "type": "bool"
        }
      ],
      "name": "ApprovalForAll",
      "type": "event"
    },
    {
      "anonymous": false,
      "inputs": [
        {
          "indexed": true,
          "name": "beneficiary",
          "type": "address"
        },
        {
          "indexed": false,
          "name": "czxpAmount",
          "type": "uint256"
        }
      ],
      "name": "CZXPGained",
      "type": "event"
    },
    {
      "anonymous": false,
      "inputs": [
        {
          "indexed": true,
          "name": "previousOwner",
          "type": "address"
        },
        {
          "indexed": true,
          "name": "newOwner",
          "type": "address"
        }
      ],
      "name": "OwnershipTransferred",
      "type": "event"
    },
    {
      "constant": false,
      "inputs": [
        {
          "name": "_czxpContractAddress",
          "type": "address"
        }
      ],
      "name": "initialize",
      "outputs": [],
      "payable": false,
      "stateMutability": "nonpayable",
      "type": "function"
    },
    {
      "constant": false,
      "inputs": [
        {
          "name": "_cardTypeId",
          "type": "uint8"
        },
        {
          "name": "_name",
          "type": "string"
        },
        {
          "name": "_set",
          "type": "string"
        },
        {
          "name": "_assetType",
          "type": "uint8"
        },
        {
          "name": "_notStoreOrBonus",
          "type": "uint8"
        },
        {
          "name": "_rarity",
          "type": "uint8"
        },
        {
          "name": "_totalAvailable",
          "type": "uint16"
        },
        {
          "name": "_weiCost",
          "type": "uint256"
        },
        {
          "name": "_buyCzxp",
          "type": "uint256"
        }
      ],
      "name": "loadNewCardType",
      "outputs": [
        {
          "name": "",
          "type": "bool"
        }
      ],
      "payable": false,
      "stateMutability": "nonpayable",
      "type": "function"
    },
    {
      "constant": false,
      "inputs": [
        {
          "name": "_cardTypeId",
          "type": "uint32"
        },
        {
          "name": "_transferCzxp",
          "type": "uint256"
        },
        {
          "name": "_sacrificeCzxp",
          "type": "uint256"
        },
        {
          "name": "_unlockCzxp",
          "type": "uint256"
        },
        {
          "name": "_cardLevel",
          "type": "uint8"
        }
      ],
      "name": "addTocardType",
      "outputs": [
        {
          "name": "",
          "type": "bool"
        }
      ],
      "payable": false,
      "stateMutability": "nonpayable",
      "type": "function"
    },
    {
      "constant": false,
      "inputs": [
        {
          "name": "_cardTypeId",
          "type": "uint32"
        }
      ],
      "name": "buyCard",
      "outputs": [
        {
          "name": "",
          "type": "bool"
        }
      ],
      "payable": true,
      "stateMutability": "payable",
      "type": "function"
    },
    {
      "constant": false,
      "inputs": [],
      "name": "getBonusBoosters",
      "outputs": [],
      "payable": false,
      "stateMutability": "nonpayable",
      "type": "function"
    },
    {
      "constant": false,
      "inputs": [
        {
          "name": "_cardTypeId",
          "type": "uint32"
        }
      ],
      "name": "getFreeCard",
      "outputs": [],
      "payable": false,
      "stateMutability": "nonpayable",
      "type": "function"
    },
    {
      "constant": false,
      "inputs": [
        {
          "name": "_tokenId",
          "type": "uint256"
        }
      ],
      "name": "sacrifice",
      "outputs": [],
      "payable": false,
      "stateMutability": "nonpayable",
      "type": "function"
    },
    {
      "constant": false,
      "inputs": [
        {
          "name": "_amount",
          "type": "uint256"
        }
      ],
      "name": "buyBoosterCard",
      "outputs": [
        {
          "name": "",
          "type": "bool"
        }
      ],
      "payable": true,
      "stateMutability": "payable",
      "type": "function"
    },
    {
      "constant": false,
      "inputs": [],
      "name": "buyBoosterCardAndOpen",
      "outputs": [],
      "payable": true,
      "stateMutability": "payable",
      "type": "function"
    },
    {
      "constant": false,
      "inputs": [
        {
          "name": "czxpWager",
          "type": "uint256"
        }
      ],
      "name": "openBoosterCard",
      "outputs": [
        {
          "name": "",
          "type": "bool"
        }
      ],
      "payable": false,
      "stateMutability": "nonpayable",
      "type": "function"
    },
    {
      "constant": false,
      "inputs": [
        {
          "name": "mySponsor",
          "type": "address"
        }
      ],
      "name": "linkMySponsor",
      "outputs": [],
      "payable": false,
      "stateMutability": "nonpayable",
      "type": "function"
    },
    {
      "constant": true,
      "inputs": [
        {
          "name": "_player",
          "type": "address"
        }
      ],
      "name": "getTimeToDailyBonus",
      "outputs": [
        {
          "name": "timeStamp",
          "type": "uint256"
        }
      ],
      "payable": false,
      "stateMutability": "view",
      "type": "function"
    },
    {
      "constant": false,
      "inputs": [],
      "name": "withdraw",
      "outputs": [],
      "payable": false,
      "stateMutability": "nonpayable",
      "type": "function"
    },
    {
      "constant": false,
      "inputs": [],
      "name": "killSwitch",
      "outputs": [],
      "payable": false,
      "stateMutability": "nonpayable",
      "type": "function"
    }
  ],
  "bytecode": "0x60c0604052601b60808190527f68747470733a2f2f63727970746f7a2e63617264732f646174612f000000000060a090815262000040916034919062000363565b506000603e556040805160808101825260018152600260208201526003918101919091526004606082018190526200007b91603f91620003e8565b5060408051608081018252600181526002602082015260069181019190915260186060820152620000b1906043906004620003e8565b5060408051808201909152600d8082527f43727970746f7a204361726473000000000000000000000000000000000000006020909201918252620000f89160559162000363565b506040805180820190915260078082527f43727970746f7a0000000000000000000000000000000000000000000000000060209092019182526200013f9160569162000363565b506040805160e081018252600080825260208201819052918101829052606081018290526080810182905260a0810182905260c08101919091526200018990605c9060076200041e565b5060006200019f6001600160e01b036200028f16565b603380546001600160a01b0319166001600160a01b038316908117909155604051919250906000907f8be0079c531659141344cd1fd0a4f28419497f9722a3daafe3b4186f6b6457e0908290a350620002217f01ffc9a7000000000000000000000000000000000000000000000000000000006001600160e01b036200029416565b620002557f80ac58cd000000000000000000000000000000000000000000000000000000006001600160e01b036200029416565b620002897f780e9d63000000000000000000000000000000000000000000000000000000006001600160e01b036200029416565b62000470565b335b90565b7fffffffff0000000000000000000000000000000000000000000000000000000080821614156200032657604080517f08c379a000000000000000000000000000000000000000000000000000000000815260206004820152601c60248201527f4552433136353a20696e76616c696420696e7465726661636520696400000000604482015290519081900360640190fd5b7fffffffff00000000000000000000000000000000000000000000000000000000166000908152604c60205260409020805460ff19166001179055565b828054600181600116156101000203166002900490600052602060002090601f016020900481019282601f10620003a657805160ff1916838001178555620003d6565b82800160010185558215620003d6579182015b82811115620003d6578251825591602001919060010190620003b9565b50620003e492915062000453565b5090565b8260048101928215620003d6579160200282015b82811115620003d6578251829060ff16905591602001919060010190620003fc565b8260078101928215620003d65791602002820182811115620003d6578251829060ff16905591602001919060010190620003fc565b6200029191905b80821115620003e457600081556001016200045a565b61470c80620004806000396000f3fe6080604052600436106102885760003560e01c80638adb70861161015a578063b4a16769116100c1578063d42198e61161007a578063d42198e614610d86578063e178e05114610da3578063e985e9c514610dcd578063f2fde38b14610e08578063f8ae951114610e3b578063fc7f0fec14610e6e57610288565b8063b4a1676914610bd8578063b88d4fde14610c02578063c4d66de814610cd3578063c87b56dd14610d06578063d057570814610d30578063d35590c214610d5357610288565b8063918923c411610113578063918923c414610ab257806395d89b4114610adc578063a22cb46514610af1578063a47ed2e714610b2c578063ada1469814610b7b578063afa6154114610b9057610288565b80638adb7086146108bd5780638b58c569146109165780638da5cb5b146109565780638e7a59131461096b5780638f32d59b14610a6a578063912fdfcb14610a7f57610288565b80634d3e2e5e116101fe578063715018a6116101b7578063715018a61461078f5780637752f487146107a45780637bbbe390146107d75780637f276455146107ec57806381cbd203146108015780638462151c1461083a57610288565b80634d3e2e5e146106695780634f27f626146106935780634f6ccce7146106bd5780636352211e146106e7578063692170c21461071157806370a082311461075c57610288565b806318160ddd1161025057806318160ddd1461041d57806323b872dd146104445780632f745c59146104875780633ccfd60b146104c057806342842e0e146104d557806342ed1d291461051857610288565b806301ffc9a71461029a57806306fdde03146102e2578063081812fc1461036c578063095ea7b3146103b257806316b93be8146103ed575b34801561029457600080fd5b50600080fd5b3480156102a657600080fd5b506102ce600480360360208110156102bd57600080fd5b50356001600160e01b031916610e76565b604080519115158252519081900360200190f35b3480156102ee57600080fd5b506102f7610e99565b6040805160208082528351818301528351919283929083019185019080838360005b83811015610331578181015183820152602001610319565b50505050905090810190601f16801561035e5780820380516001836020036101000a031916815260200191505b509250505060405180910390f35b34801561037857600080fd5b506103966004803603602081101561038f57600080fd5b5035610f30565b604080516001600160a01b039092168252519081900360200190f35b3480156103be57600080fd5b506103eb600480360360408110156103d557600080fd5b506001600160a01b038135169060200135610f92565b005b3480156103f957600080fd5b506103eb6004803603602081101561041057600080fd5b503563ffffffff166110ba565b34801561042957600080fd5b5061043261124b565b60408051918252519081900360200190f35b34801561045057600080fd5b506103eb6004803603606081101561046757600080fd5b506001600160a01b03813581169160208101359091169060400135611251565b34801561049357600080fd5b50610432600480360360408110156104aa57600080fd5b506001600160a01b03813516906020013561129d565b3480156104cc57600080fd5b506103eb6112eb565b3480156104e157600080fd5b506103eb600480360360608110156104f857600080fd5b506001600160a01b03813581169160208101359091169060400135611362565b34801561052457600080fd5b506105486004803603602081101561053b57600080fd5b503563ffffffff1661137d565b604051808a63ffffffff1663ffffffff16815260200180602001806020018981526020018881526020018781526020018681526020018581526020018460ff1660ff16815260200183810383528b818151815260200191508051906020019080838360005b838110156105c55781810151838201526020016105ad565b50505050905090810190601f1680156105f25780820380516001836020036101000a031916815260200191505b5083810382528a5181528a516020918201918c019080838360005b8381101561062557818101518382015260200161060d565b50505050905090810190601f1680156106525780820380516001836020036101000a031916815260200191505b509b50505050505050505050505060405180910390f35b34801561067557600080fd5b506104326004803603602081101561068c57600080fd5b50356114ea565b34801561069f57600080fd5b506102ce600480360360208110156106b657600080fd5b50356114fe565b3480156106c957600080fd5b50610432600480360360208110156106e057600080fd5b50356115a1565b3480156106f357600080fd5b506103966004803603602081101561070a57600080fd5b50356115d5565b34801561071d57600080fd5b506102ce600480360360a081101561073457600080fd5b50803563ffffffff16906020810135906040810135906060810135906080013560ff16611629565b34801561076857600080fd5b506104326004803603602081101561077f57600080fd5b50356001600160a01b031661182b565b34801561079b57600080fd5b506103eb611893565b3480156107b057600080fd5b50610432600480360360208110156107c757600080fd5b50356001600160a01b0316611924565b3480156107e357600080fd5b506103eb611936565b3480156107f857600080fd5b506104326119cc565b34801561080d57600080fd5b506102ce6004803603604081101561082457600080fd5b506001600160a01b0381351690602001356119d2565b34801561084657600080fd5b5061086d6004803603602081101561085d57600080fd5b50356001600160a01b03166119f2565b60408051602080825283518183015283519192839290830191858101910280838360005b838110156108a9578181015183820152602001610891565b505050509050019250505060405180910390f35b3480156108c957600080fd5b506108e7600480360360208110156108e057600080fd5b5035611a53565b6040805161ffff9586168152938516602085015291841683830152909216606082015290519081900360800190f35b34801561092257600080fd5b506109406004803603602081101561093957600080fd5b5035611b69565b6040805160ff9092168252519081900360200190f35b34801561096257600080fd5b50610396611b7e565b34801561097757600080fd5b506102ce600480360361012081101561098f57600080fd5b60ff8235169190810190604081016020820135600160201b8111156109b357600080fd5b8201836020820111156109c557600080fd5b803590602001918460018302840111600160201b831117156109e657600080fd5b919390929091602081019035600160201b811115610a0357600080fd5b820183602082011115610a1557600080fd5b803590602001918460018302840111600160201b83111715610a3657600080fd5b919350915060ff813581169160208101358216916040820135169061ffff6060820135169060808101359060a00135611b8d565b348015610a7657600080fd5b506102ce611d70565b348015610a8b57600080fd5b506103eb60048036036020811015610aa257600080fd5b50356001600160a01b0316611d96565b348015610abe57600080fd5b5061043260048036036020811015610ad557600080fd5b5035611deb565b348015610ae857600080fd5b506102f7611e09565b348015610afd57600080fd5b506103eb60048036036040811015610b1457600080fd5b506001600160a01b0381351690602001351515611e6a565b348015610b3857600080fd5b50610b5660048036036020811015610b4f57600080fd5b5035611f6f565b6040805163ffffffff9094168452602084019290925282820152519081900360600190f35b348015610b8757600080fd5b506103eb611ff9565b348015610b9c57600080fd5b50610ba5612043565b604080519687526020870195909552858501939093526060850191909152608084015260a0830152519081900360c00190f35b348015610be457600080fd5b5061043260048036036020811015610bfb57600080fd5b5035612061565b348015610c0e57600080fd5b506103eb60048036036080811015610c2557600080fd5b6001600160a01b03823581169260208101359091169160408201359190810190608081016060820135600160201b811115610c5f57600080fd5b820183602082011115610c7157600080fd5b803590602001918460018302840111600160201b83111715610c9257600080fd5b91908080601f016020809104026020016040519081016040528093929190818152602001838380828437600092019190915250929550612073945050505050565b348015610cdf57600080fd5b506103eb60048036036020811015610cf657600080fd5b50356001600160a01b03166120d1565b348015610d1257600080fd5b506102f760048036036020811015610d2957600080fd5b50356121d6565b6102ce60048036036020811015610d4657600080fd5b503563ffffffff16612278565b348015610d5f57600080fd5b5061039660048036036020811015610d7657600080fd5b50356001600160a01b0316612669565b6102ce60048036036020811015610d9c57600080fd5b5035612684565b348015610daf57600080fd5b506103eb60048036036020811015610dc657600080fd5b5035612717565b348015610dd957600080fd5b506102ce60048036036040811015610df057600080fd5b506001600160a01b0381358116916020013516612721565b348015610e1457600080fd5b506103eb60048036036020811015610e2b57600080fd5b50356001600160a01b031661274f565b348015610e4757600080fd5b5061043260048036036020811015610e5e57600080fd5b50356001600160a01b031661279f565b6103eb6127e6565b6001600160e01b031981166000908152604c602052604090205460ff165b919050565b60558054604080516020601f6002600019610100600188161502019095169490940493840181900481028201810190925282815260609390929091830182828015610f255780601f10610efa57610100808354040283529160200191610f25565b820191906000526020600020905b815481529060010190602001808311610f0857829003601f168201915b505050505090505b90565b6000610f3b8261284d565b610f765760405162461bcd60e51b815260040180806020018281038252602c8152602001806145be602c913960400191505060405180910390fd5b506000908152604e60205260409020546001600160a01b031690565b6000610f9d826115d5565b9050806001600160a01b0316836001600160a01b03161415610ff05760405162461bcd60e51b81526004018080602001828103825260218152602001806146616021913960400191505060405180910390fd5b806001600160a01b031661100261286a565b6001600160a01b0316148061102357506110238161101e61286a565b612721565b61105e5760405162461bcd60e51b81526004018080602001828103825260388152602001806145126038913960400191505060405180910390fd5b6000828152604e602052604080822080546001600160a01b0319166001600160a01b0387811691821790925591518593918516917f8c5be1e5ebec7d5bd14f71427d1e84f3dd0314c0f7b2291e5b200ac8c7c3b92591a4505050565b63ffffffff8082166000818152603a6020526040902054839216146110de57600080fd5b63ffffffff8116600090815260366020526040902054600160ff9091161061110557600080fd5b63ffffffff821660009081526036602052604090205460ff161561112857600080fd5b63ffffffff82166000908152603c6020908152604080832054603890925290912054600190910161ffff9091161161115f57600080fd5b33600090815260636020908152604080832063ffffffff8616845290915290205460ff161561118d57600080fd5b63ffffffff82166000908152603a6020526040902060030154156111b057600080fd5b63ffffffff82166000908152603a60205260409020600401546111d490339061286e565b63ffffffff82166000908152603a60205260409020600401546111f6906128df565b63ffffffff82166000908152603a602052604090206004015461121c908390339061298c565b505033600090815260636020908152604080832063ffffffff909416835292905220805460ff19166001179055565b60595490565b61125b3382612c14565b61126457600080fd5b60016039828154811061127357fe5b6000918252602090912060026003909202010180549091019055611298838383612cb8565b505050565b60006112a88361182b565b82106112b357600080fd5b6001600160a01b03831660009081526057602052604090208054839081106112d757fe5b906000526020600020015490505b92915050565b6112f3611d70565b611332576040805162461bcd60e51b815260206004820181905260248201526000805160206145ea833981519152604482015290519081900360640190fd5b6040513390303180156108fc02916000818181858888f1935050505015801561135f573d6000803e3d6000fd5b50565b61129883838360405180602001604052806000815250612073565b603a602090815260009182526040918290208054600180830180548651600261010094831615949094026000190190911692909204601f810186900486028301860190965285825263ffffffff9092169492939092908301828280156114245780601f106113f957610100808354040283529160200191611424565b820191906000526020600020905b81548152906001019060200180831161140757829003601f168201915b50505060028085018054604080516020601f60001961010060018716150201909416959095049283018590048502810185019091528181529596959450909250908301828280156114b65780601f1061148b576101008083540402835291602001916114b6565b820191906000526020600020905b81548152906001019060200180831161149957829003601f168201915b5050506003840154600485015460058601546006870154600788015460089098015496979396929550909350919060ff1689565b605c81600781106114f757fe5b0154905081565b3360009081526066602052604081205461151757600080fd5b3360009081526066602052604090205461153890600163ffffffff612cc316565b3360009081526066602052604081209190915561155483612d0c565b905061155f81612e16565b6040805160ff83168152905133917f66e021f2e6bf1b4f79e6e5622acffc29c6230663c0432ac8c08a5edcb1f23382919081900360200190a250600192915050565b60006115ab61124b565b82106115b657600080fd5b605982815481106115c357fe5b90600052602060002001549050919050565b6000818152604d60205260408120546001600160a01b0316806112e55760405162461bcd60e51b81526004018080602001828103825260298152602001806145746029913960400191505060405180910390fd5b6000611633611d70565b611672576040805162461bcd60e51b815260206004820181905260248201526000805160206145ea833981519152604482015290519081900360640190fd5b63ffffffff86166000908152603a60205260409020600501541561169557600080fd5b63ffffffff86166000908152603a6020526040902060060154156116b857600080fd5b63ffffffff86166000908152603a6020526040902060070154156116db57600080fd5b63ffffffff86166000908152603a602052604090206008015460ff161561170157600080fd5b63ffffffff8087166000818152603a60205260409020549091161461172557600080fd5b63ffffffff86166000818152603a60208181526040808420600581018b9055600681018a90556007810189905560088101805460ff8a1660ff19909116179055603c835281852094909455918152815181815260019384018054600295811615610100026000190116949094049181018290527f566651c26d6867f4a0341c33295b297504f1f8445ef05b6a80d7faa24280cd2e939290918291820190849080156118115780601f106117e657610100808354040283529160200191611811565b820191906000526020600020905b8154815290600101906020018083116117f457829003601f168201915b50509250505060405180910390a250600195945050505050565b60006001600160a01b0382166118725760405162461bcd60e51b815260040180806020018281038252602a81526020018061454a602a913960400191505060405180910390fd5b6001600160a01b0382166000908152604f602052604090206112e590612e89565b61189b611d70565b6118da576040805162461bcd60e51b815260206004820181905260248201526000805160206145ea833981519152604482015290519081900360640190fd5b6033546040516000916001600160a01b0316907f8be0079c531659141344cd1fd0a4f28419497f9722a3daafe3b4186f6b6457e0908390a3603380546001600160a01b0319169055565b60666020526000908152604090205481565b61193f3361279f565b421161194a57600080fd5b33600090815260656020908152604080832061708042019055606690915290205461197c90600263ffffffff612e8d16565b33600081815260666020908152604091829020849055815192835282019290925281517fdea0c85af515c9fffcca886846213edc28206526b243af2f064b6962032ce185929181900390910190a1565b603b5490565b606360209081526000928352604080842090915290825290205460ff1681565b60606119fd82612ee7565b805480602002602001604051908101604052809291908181526020018280548015611a4757602002820191906000526020600020905b815481526020019060010190808311611a33575b50505050509050919050565b6000808080805b6004811015611abe5760438160048110611a7057fe5b0154611a7b87612f01565b603f8360048110611a8857fe5b0154611a9389612f01565b0a81611a9b57fe5b0481611aa357fe5b0460640260478260048110611ab457fe5b0155600101611a5a565b50604a5460495460485460475401010160005b6004811015611b35578160478260048110611ae857fe5b01546127100281611af557fe5b04604b8260048110611b0357fe5b601091828204019190066002026101000a81548161ffff021916908361ffff1602179055508080600101915050611ad1565b5050604b5461ffff8082169762010000830482169750600160201b8304821696506601000000000000909204169350915050565b60376020526000908152604090205460ff1681565b6033546001600160a01b031690565b6000611b97611d70565b611bd6576040805162461bcd60e51b815260206004820181905260248201526000805160206145ea833981519152604482015290519081900360640190fd5b603b546113881015611be757600080fd5b60ff8c166000908152603a602052604090205463ffffffff1615611c0a57600080fd5b60ff8c166000818152603a60205260409020805463ffffffff19169091178155611c38906001018c8c614261565b5060ff8c166000908152603a60205260409020611c59906002018a8a614261565b5060ff8c81166000908152603560209081526040808320805460ff199081168d87161790915560368352818420805482168c8716908117909155603784528285208054909216958b1695909517905560388252808320805461ffff191661ffff8a16179055603a90915290206003810185905560040183905560011415611d265760ff85811660009081526067602090815260408220805460018101825590835291206008820401805463ffffffff60079093166004026101000a9283021916928f169091029190911790555b50603b80546001818101835560009290925260ff8d167fbbe3212124853f8b0084a66a2d057c2966e251e132af3691db153ab65f0d1a4d909101559b9a5050505050505050505050565b6033546000906001600160a01b0316611d8761286a565b6001600160a01b031614905090565b336000908152606460205260409020546001600160a01b031615611db957600080fd5b33600090815260646020526040902080546001600160a01b0319166001600160a01b03831617905561135f6002612e16565b603b8181548110611df857fe5b600091825260209091200154905081565b60568054604080516020601f6002600019610100600188161502019095169490940493840181900481028201810190925282815260609390929091830182828015610f255780601f10610efa57610100808354040283529160200191610f25565b611e7261286a565b6001600160a01b0316826001600160a01b03161415611ed8576040805162461bcd60e51b815260206004820152601960248201527f4552433732313a20617070726f766520746f2063616c6c657200000000000000604482015290519081900360640190fd5b8060506000611ee561286a565b6001600160a01b03908116825260208083019390935260409182016000908120918716808252919093529120805460ff191692151592909217909155611f2961286a565b60408051841515815290516001600160a01b0392909216917f17307eab39ab6107e8899845ad3d59bd9653f200f220920489ca2b5937696c319181900360200190a35050565b6000806000611f7d8461284d565b611f8657600080fd5b60398481548110611f9357fe5b60009182526020909120600390910201546039805463ffffffff9092169186908110611fbb57fe5b90600052602060002090600302016001015460398681548110611fda57fe5b9060005260206000209060030201600201549250925092509193909250565b612001611d70565b612040576040805162461bcd60e51b815260206004820181905260248201526000805160206145ea833981519152604482015290519081900360640190fd5b33ff5b605d54605e54605f5460605460615460625494959394929391929091565b603c6020526000908152604090205481565b61208461207e61286a565b83612c14565b6120bf5760405162461bcd60e51b81526004018080602001828103825260318152602001806146826031913960400191505060405180910390fd5b6120cb84848484612f1d565b50505050565b600054610100900460ff16806120ea57506120ea612f6f565b806120f8575060005460ff16155b6121335760405162461bcd60e51b815260040180806020018281038252602e81526020018061460a602e913960400191505060405180910390fd5b600054610100900460ff1615801561215e576000805460ff1961ff0019909116610100171660011790555b612166611d70565b6121a5576040805162461bcd60e51b815260206004820181905260248201526000805160206145ea833981519152604482015290519081900360640190fd5b603d80546001600160a01b0319166001600160a01b03841617905580156121d2576000805461ff00191690555b5050565b6034805460408051602060026001851615610100026000190190941693909304601f81018490048402820184019092528181526060936112e593919290918301828280156122655780601f1061223a57610100808354040283529160200191612265565b820191906000526020600020905b81548152906001019060200180831161224857829003601f168201915b505050505061227384612f75565b613036565b63ffffffff8082166000818152603a60205260408120549092849291161461229f57600080fd5b63ffffffff8116600090815260366020526040902054600160ff909116106122c657600080fd5b600034116122d357600080fd5b63ffffffff8084166000818152603a6020526040902054909116146122f757600080fd5b6122ff6142df565b63ffffffff8481166000908152603a602090815260409182902082516101208101845281549094168452600180820180548551600261010094831615949094026000190190911692909204601f81018590048502830185019095528482529193858401939192918301828280156123b75780601f1061238c576101008083540402835291602001916123b7565b820191906000526020600020905b81548152906001019060200180831161239a57829003601f168201915b5050509183525050600282810180546040805160206001841615610100026000190190931694909404601f810183900483028501830190915280845293810193908301828280156124495780601f1061241e57610100808354040283529160200191612449565b820191906000526020600020905b81548152906001019060200180831161242c57829003601f168201915b5050509183525050600382015460208083019190915260048301546040808401919091526005840154606084015260068401546080840152600784015460a084015260089093015460ff90811660c09093019290925263ffffffff881660009081526036909152919091205491925016156124c357600080fd5b33600090815260636020908152604080832063ffffffff8816845290915290205460ff16156124f157600080fd5b63ffffffff84166000908152603c6020908152604080832054603890925290912054600190910161ffff9091161161252857600080fd5b806060015134101561253957600080fd5b603d54604080516370a0823160e01b815233600482015290516000926001600160a01b0316916370a08231916024808301926020929190829003018186803b15801561258457600080fd5b505afa158015612598573d6000803e3d6000fd5b505050506040513d60208110156125ae57600080fd5b505160e08301519091508110156125c457600080fd5b63ffffffff85166000908152603a60205260409020600401546125e890339061286e565b63ffffffff85166000908152603a602052604090206004015461260a906128df565b63ffffffff85166000908152603a6020526040902060040154612630908690339061298c565b505033600090815260636020908152604080832063ffffffff881684529091529020805460ff1916600190811790915592505050919050565b6064602052600090815260409020546001600160a01b031681565b600061269d66071afd498d00008363ffffffff61307216565b3410156126a957600080fd5b336000908152606660205260409020546126c9908363ffffffff612e8d16565b336000818152606660205260409020919091556126f6906126f160788563ffffffff61307216565b61286e565b61270f61270a60788463ffffffff61307216565b6128df565b506001919050565b61135f33826130cb565b6001600160a01b03918216600090815260506020908152604080832093909416825291909152205460ff1690565b612757611d70565b612796576040805162461bcd60e51b815260206004820181905260248201526000805160206145ea833981519152604482015290519081900360640190fd5b61135f81613337565b6001600160a01b0381166000908152606560205260408120546127c757506001194201610e94565b506001600160a01b038116600090815260656020526040902054610e94565b66071afd498d00003410156127fa57600080fd5b3360009081526066602052604090205461281b90600163ffffffff612e8d16565b3360008181526066602052604090209190915561283990607861286e565b61284360786128df565b61135f60006114fe565b6000908152604d60205260409020546001600160a01b0316151590565b3390565b603d54604080516360fa676760e01b81526001600160a01b03858116600483015260248201859052915191909216916360fa676791604480830192600092919082900301818387803b1580156128c357600080fd5b505af11580156128d7573d6000803e3d6000fd5b505050505050565b336000908152606460205260409020546001600160a01b03161561135f57601481048061290a575060015b3360009081526064602052604090205461292d906001600160a01b03168261286e565b336000818152606460209081526040918290205482516001600160a01b0391909116815290810192909252818101839052517e3da85d6058444eca57e3b88be14c734f4f239affe28b7629966e318de2a90e9181900360600190a15050565b63ffffffff8084166000818152603a6020526040812054909216146129b057600080fd5b63ffffffff8085166000908152603c60205260409020546129d491600190612e8d16565b63ffffffff85166000908152603c60205260409020556129f2614334565b506040805160608101825263ffffffff8681168083526000908152603c60209081528482205490840190815293830181815260398054600181018255925283517fdc16fef70f8d5ddbc01ee3d903d1e69c18a3c7be080eb86a81e0578814ee58d360038402908101805463ffffffff1916929095169190911790935593517fdc16fef70f8d5ddbc01ee3d903d1e69c18a3c7be080eb86a81e0578814ee58d483015592517fdc16fef70f8d5ddbc01ee3d903d1e69c18a3c7be080eb86a81e0578814ee58d59091015590612ac685826133d8565b6034805460408051602060026001851615610100026000190190941693909304601f8101849004840282018401909252818152612b5e93859391929091830182828015612b545780601f10612b2957610100808354040283529160200191612b54565b820191906000526020600020905b815481529060010190602001808311612b3757829003601f168201915b5050505050613427565b63ffffffff861660009081526037602052604090205460ff16605c8160078110612b8457fe5b0154600101605c8260ff1660078110612b9957fe5b015563ffffffff87166000818152603c6020908152604080832054603783529281902054815193845260ff16918301919091528181018890525184916001600160a01b038a16917fa175b558bfdf1ae124f50d3f430abaaab74e5549ded822767a55f3c6d906c6b19181900360600190a45095945050505050565b6000612c1f8261284d565b612c5a5760405162461bcd60e51b815260040180806020018281038252602c8152602001806144e6602c913960400191505060405180910390fd5b6000612c65836115d5565b9050806001600160a01b0316846001600160a01b03161480612ca05750836001600160a01b0316612c9584610f30565b6001600160a01b0316145b80612cb05750612cb08185612721565b949350505050565b611298838383613458565b6000612d0583836040518060400160405280601e81526020017f536166654d6174683a207375627472616374696f6e206f766572666c6f770000815250613477565b9392505050565b60006605dc0000000bb8821115612d2257600080fd5b603d54604080516370a0823160e01b815233600482015290516000926001600160a01b0316916370a08231916024808301926020929190829003018186803b158015612d6d57600080fd5b505afa158015612d81573d6000803e3d6000fd5b505050506040513d6020811015612d9757600080fd5b5051905082811015612da857600080fd5b6000612db561271061350e565b9050612dbf61435b565b612dc885613566565b905060025b60078160ff161015612e0a57818160ff1660078110612de857fe5b602002015161ffff168311612e02579350610e9492505050565b600101612dcd565b50600695945050505050565b60ff8116600090815260676020526040812054612e329061350e565b60ff831660009081526067602052604081208054929350909183908110612e5557fe5b90600052602060002090600891828204019190066004029054906101000a900463ffffffff1690506120cb8133606461298c565b5490565b600082820183811015612d05576040805162461bcd60e51b815260206004820152601b60248201527f536166654d6174683a206164646974696f6e206f766572666c6f770000000000604482015290519081900360640190fd5b6001600160a01b0316600090815260516020526040902090565b600080612f12620445c08404613619565b600490049392505050565b612f28848484612cb8565b612f34848484846137d6565b6120cb5760405162461bcd60e51b815260040180806020018281038252603281526020018061446a6032913960400191505060405180910390fd5b303b1590565b606081612f9a57506040805180820190915260018152600360fc1b6020820152610e94565b8160005b8115612fb257600101600a82049150612f9e565b6060816040519080825280601f01601f191660200182016040528015612fdf576020820181803883390190505b50905060001982015b851561302d57600a860660300160f81b8282806001900393508151811061300b57fe5b60200101906001600160f81b031916908160001a905350600a86049550612fe8565b50949350505050565b6060612d058383604051806020016040528060008152506040518060200160405280600081525060405180602001604052806000815250613a11565b600082613081575060006112e5565b8282028284828161308e57fe5b0414612d055760405162461bcd60e51b815260040180806020018281038252602181526020018061459d6021913960400191505060405180910390fd5b6130d58282613c25565b6000818152605b60205260409020546002600019610100600184161502019091160415613113576000818152605b6020526040812061311391614379565b6000818152605a602052604081205460595490919061313990600163ffffffff612cc316565b905060006059828154811061314a57fe5b90600052602060002001549050806059848154811061316557fe5b906000526020600020018190555060006059838154811061318257fe5b60009182526020909120015560598054906131a19060001983016143bd565b506000848152605a6020526040808220829055828252812084905560398054600192605c92603792899081106131d357fe5b6000918252602080832060039092029091015463ffffffff16835282019290925260400190205460ff166007811061320757fe5b015403605c603760006039888154811061321d57fe5b6000918252602080832060039092029091015463ffffffff16835282019290925260400190205460ff166007811061325157fe5b01819055506000603a60006039878154811061326957fe5b6000918252602080832060039092029091015463ffffffff168352820192909252604001902060060154905061329f338261286e565b603985815481106132ac57fe5b60009182526020918290206003909102015460408051848152905163ffffffff90921692889233927f5aa0c75e571d3ecae876f03a84d247806f1af6caf4f377701179de62b7095f1492908290030190a46039858154811061330a57fe5b600091825260208220600390910201805463ffffffff191681556001810182905560020155505050505050565b6001600160a01b03811661337c5760405162461bcd60e51b815260040180806020018281038252602681526020018061449c6026913960400191505060405180910390fd5b6033546040516001600160a01b038084169216907f8be0079c531659141344cd1fd0a4f28419497f9722a3daafe3b4186f6b6457e090600090a3603380546001600160a01b0319166001600160a01b0392909216919091179055565b6133e28282613c51565b605980546000838152605a60205260408120829055600182018355919091527fd73956b9e00d8f8bc5e44f7184df1387cdd652e7726b8ccda3db4859e02f31bf015550565b6134308261284d565b61343957600080fd5b6000828152605b602090815260409091208251611298928401906143e1565b613463838383613c6e565b61346d8382613db2565b6112988282613ea7565b600081848411156135065760405162461bcd60e51b81526004018080602001828103825283818151815260200191508051906020019080838360005b838110156134cb5781810151838201526020016134b3565b50505050905090810190601f1680156134f85780820380516001836020036101000a031916815260200191505b509250505060405180910390fd5b505050900390565b603e5460408051426020808301919091523360601b828401526054808301949094528251808303909401845260749091019091528151910120600090819083908161355557fe5b603e80546001019055069392505050565b61356e61435b565b816135b457506040805160e081018252600080825260208201819052918101919091526001606082015260326080820152610a8c60a082015261271060c0820152610e94565b6000806000806135c386611a53565b93509350935093506135d361435b565b506040805160e0810182526000808252602082018190529181019190915261ffff9182166060820152918116608083015291821660a0820152911660c082015292915050565b604080517ff8f9cbfae6cc78fbefe7cdc3a1793dfcf4f0e8bbd8cec470b6a28a7a5a3e1efd81527ff5ecf1b3e9debc68e1d9cfabc5997135bfb7a7a3938b7b606b5b4b3f2f1f0ffe60208201527ff6e4ed9ff2d6b458eadcdf97bd91692de2d4da8fd2d0ac50c6ae9a8272523616818301527fc8c0b887b0a8a4489c948c7f847c6125746c645c544c444038302820181008ff60608201527ff7cae577eec2a03cf3bad76fb589591debb2dd67e0aa9834bea6925f6a4a2e0e60808201527fe39ed557db96902cd38ed14fad815115c786af479b7e8324736353433727170760a08201527fc976c13bb96e881cb166a933a55e490d9d56952b8d4e801485467d236242260660c08201527f753a6d1b65325d0c552a4d1345224105391a310b29122104190a11030902010060e0820152610100808201909252600160f81b6001600160801b68010000000000000000600160201b620100006010600460026000198c019081041790810417908104178881041790810417908104179081041790810417017e818283848586878898a8b8c8d8e8f929395969799a9b9d9e9faaeb6bedeeff0281900460ff039091015104600160ff1b909211020190565b60006137ea846001600160a01b0316613ee5565b6137f657506001612cb0565b600060606001600160a01b038616630a85bd0160e11b61381461286a565b89888860405160240180856001600160a01b03166001600160a01b03168152602001846001600160a01b03166001600160a01b0316815260200183815260200180602001828103825283818151815260200191508051906020019080838360005b8381101561388d578181015183820152602001613875565b50505050905090810190601f1680156138ba5780820380516001836020036101000a031916815260200191505b5060408051601f198184030181529181526020820180516001600160e01b03166001600160e01b0319909a16999099178952518151919890975087965094509250829150849050835b602083106139225780518252601f199092019160209182019101613903565b6001836020036101000a0380198251168184511680821785525050505050509050019150506000604051808303816000865af19150503d8060008114613984576040519150601f19603f3d011682016040523d82523d6000602084013e613989565b606091505b5091509150816139da578051156139a35780518082602001fd5b60405162461bcd60e51b815260040180806020018281038252603281526020018061446a6032913960400191505060405180910390fd5b60008180602001905160208110156139f157600080fd5b50516001600160e01b031916630a85bd0160e11b149350612cb092505050565b6060808690506060869050606086905060608690506060869050606081518351855187518951010101016040519080825280601f01601f191660200182016040528015613a65576020820181803883390190505b509050806000805b8851811015613abe57888181518110613a8257fe5b602001015160f81c60f81b838380600101945081518110613a9f57fe5b60200101906001600160f81b031916908160001a905350600101613a6d565b5060005b8751811015613b1357878181518110613ad757fe5b602001015160f81c60f81b838380600101945081518110613af457fe5b60200101906001600160f81b031916908160001a905350600101613ac2565b5060005b8651811015613b6857868181518110613b2c57fe5b602001015160f81c60f81b838380600101945081518110613b4957fe5b60200101906001600160f81b031916908160001a905350600101613b17565b5060005b8551811015613bbd57858181518110613b8157fe5b602001015160f81c60f81b838380600101945081518110613b9e57fe5b60200101906001600160f81b031916908160001a905350600101613b6c565b5060005b8451811015613c1257848181518110613bd657fe5b602001015160f81c60f81b838380600101945081518110613bf357fe5b60200101906001600160f81b031916908160001a905350600101613bc1565b50909d9c50505050505050505050505050565b613c2f8282613f1e565b613c398282613db2565b6000818152605260205260408120556121d281613ff5565b613c5b8282614091565b613c658282613ea7565b6121d2816141c2565b826001600160a01b0316613c81826115d5565b6001600160a01b031614613cc65760405162461bcd60e51b81526004018080602001828103825260298152602001806146386029913960400191505060405180910390fd5b6001600160a01b038216613d0b5760405162461bcd60e51b81526004018080602001828103825260248152602001806144c26024913960400191505060405180910390fd5b613d1481614206565b6001600160a01b0383166000908152604f60205260409020613d3590614241565b6001600160a01b0382166000908152604f60205260409020613d5690614258565b6000818152604d602052604080822080546001600160a01b0319166001600160a01b0386811691821790925591518493918716917fddf252ad1be2c89b69c2b068fc378daa952ba7f163c4a11628f55a4df523b3ef91a4505050565b6001600160a01b038216600090815260516020526040812054613ddc90600163ffffffff612cc316565b600083815260526020526040902054909150808214613e77576001600160a01b0384166000908152605160205260408120805484908110613e1957fe5b906000526020600020015490508060516000876001600160a01b03166001600160a01b031681526020019081526020016000208381548110613e5757fe5b600091825260208083209091019290925591825260529052604090208190555b6001600160a01b0384166000908152605160205260409020805490613ea09060001983016143bd565b5050505050565b6001600160a01b0390911660009081526051602081815260408084208054868652605284529185208290559282526001810183559183529091200155565b6000813f7fc5d2460186f7233c927e7db2dcc703c0e500b653ca82273b7bfad8045d85a470818114801590612cb0575050151592915050565b816001600160a01b0316613f31826115d5565b6001600160a01b031614613f765760405162461bcd60e51b81526004018080602001828103825260258152602001806146b36025913960400191505060405180910390fd5b613f7f81614206565b6001600160a01b0382166000908152604f60205260409020613fa090614241565b6000818152604d602052604080822080546001600160a01b0319169055518291906001600160a01b038516907fddf252ad1be2c89b69c2b068fc378daa952ba7f163c4a11628f55a4df523b3ef908390a45050565b60535460009061400c90600163ffffffff612cc316565b6000838152605460205260408120546053805493945090928490811061402e57fe5b90600052602060002001549050806053838154811061404957fe5b6000918252602080832090910192909255828152605490915260409020829055605380549061407c9060001983016143bd565b50505060009182525060546020526040812055565b6001600160a01b0382166140ec576040805162461bcd60e51b815260206004820181905260248201527f4552433732313a206d696e7420746f20746865207a65726f2061646472657373604482015290519081900360640190fd5b6140f58161284d565b15614147576040805162461bcd60e51b815260206004820152601c60248201527f4552433732313a20746f6b656e20616c7265616479206d696e74656400000000604482015290519081900360640190fd5b6000818152604d6020908152604080832080546001600160a01b0319166001600160a01b0387169081179091558352604f909152902061418690614258565b60405181906001600160a01b038416906000907fddf252ad1be2c89b69c2b068fc378daa952ba7f163c4a11628f55a4df523b3ef908290a45050565b605380546000838152605460205260408120829055600182018355919091527f4c83efb3982afbd500ab7c66d02b996df5fdc3d20660e61600390aad6d5f7f1e0155565b6000818152604e60205260409020546001600160a01b03161561135f576000908152604e6020526040902080546001600160a01b0319169055565b805461425490600163ffffffff612cc316565b9055565b80546001019055565b828054600181600116156101000203166002900490600052602060002090601f016020900481019282601f106142a25782800160ff198235161785556142cf565b828001600101855582156142cf579182015b828111156142cf5782358255916020019190600101906142b4565b506142db92915061444f565b5090565b604051806101200160405280600063ffffffff16815260200160608152602001606081526020016000815260200160008152602001600081526020016000815260200160008152602001600060ff1681525090565b6040518060600160405280600063ffffffff16815260200160008152602001600081525090565b6040518060e001604052806007906020820280388339509192915050565b50805460018160011615610100020316600290046000825580601f1061439f575061135f565b601f01602090049060005260206000209081019061135f919061444f565b8154818355818111156112985760008381526020902061129891810190830161444f565b828054600181600116156101000203166002900490600052602060002090601f016020900481019282601f1061442257805160ff19168380011785556142cf565b828001600101855582156142cf579182015b828111156142cf578251825591602001919060010190614434565b610f2d91905b808211156142db576000815560010161445556fe4552433732313a207472616e7366657220746f206e6f6e20455243373231526563656976657220696d706c656d656e7465724f776e61626c653a206e6577206f776e657220697320746865207a65726f20616464726573734552433732313a207472616e7366657220746f20746865207a65726f20616464726573734552433732313a206f70657261746f7220717565727920666f72206e6f6e6578697374656e7420746f6b656e4552433732313a20617070726f76652063616c6c6572206973206e6f74206f776e6572206e6f7220617070726f76656420666f7220616c6c4552433732313a2062616c616e636520717565727920666f7220746865207a65726f20616464726573734552433732313a206f776e657220717565727920666f72206e6f6e6578697374656e7420746f6b656e536166654d6174683a206d756c7469706c69636174696f6e206f766572666c6f774552433732313a20617070726f76656420717565727920666f72206e6f6e6578697374656e7420746f6b656e4f776e61626c653a2063616c6c6572206973206e6f7420746865206f776e6572436f6e747261637420696e7374616e63652068617320616c7265616479206265656e20696e697469616c697a65644552433732313a207472616e73666572206f6620746f6b656e2074686174206973206e6f74206f776e4552433732313a20617070726f76616c20746f2063757272656e74206f776e65724552433732313a207472616e736665722063616c6c6572206973206e6f74206f776e6572206e6f7220617070726f7665644552433732313a206275726e206f6620746f6b656e2074686174206973206e6f74206f776ea265627a7a72305820d295bc2ad61aeb312f6f42efbb8719e3f425085363dc8ae0aeca228dadcf274564736f6c63430005090032",
  "source": "pragma solidity ^0.5.0;\n\n/******************************************\n\nOur Matra our Motto for coding The Cryptoz Universe.buy\n\n      Fail EARLY and Fail LOUD !!!!!!!\n\n1.    First - Check all pre-conditions\n2.    Then  - make changes to contract state\n3.    Final - interact with other contracts\n\nPull funds over pushing them\nPlatform limits like max of 1023 loop interations.\n\nall Events start with Log\n\n******************************************/\n\nimport \"../node_modules/@openzeppelin/upgrades/contracts/Initializable.sol\";\nimport \"./CryptozCard.sol\";\n\ncontract Cryptoz is Initializable,CryptozCard{\n    \n//Constants\n    uint constant private weiCostOfCard = 2000000000000000; //booster in wei = 0.002 ETH\n    uint constant private czxpGainedBoosterPurchase = 120;\n    uint constant private maxCardTypes = 5000; //allowed types in the Universe\n\n//Event Logs\n    event LogCardTypeLoaded(uint32 indexed cardTypeId, string cardName);\n    event LogCardPurchased(uint32 indexed cardTypeId, uint editionNumber, address indexed buyer);\n    event LogPackOpened(address indexed buyer, uint packsOpened);\n    event LogSponsorLinked(address sponsor, address affiliate);\n    event LogSponsorReward(address sponsor, address affiliate, uint CzxpReward);\n    event LogDailyReward(address player, uint newBonusBalance);\n\n//storage\n\n    //Tracking affiliate sponsors\n    mapping(address => address) public sponsors; // 1 sponsor can have many affiliates, but only 1 sponsor, returns sponsor\n    \n    //Track the timestamps for users to get their daily pull\n    mapping(address => uint) private timeToCardsPull; //address to timestamp\n    \n    //Tracking booster pack count ownership. These are NOT tokens, just a counter for fun, not really\n    mapping (address => uint256) public boosterPacksOwned;\n    \n    //where we hold inventory of the  booster packs\n    mapping(uint8 => uint32[]) private allBoosterCardIds; // [rarityId][cardId]\n    \n    //check if cardType exists\n    modifier isValidCard(uint32 _cardTypeId) {\n//TIGHTEN   //Make sure cardType exists and we dont have bad data coming in\n        require(allCardTypes[_cardTypeId].cardTypeId == _cardTypeId);\n        require(storeBoosterBonus[_cardTypeId] < 1); //you cant get cards marked for booster pack or bonus\n        _;\n    }\n    \n    function() external {\n        revert();\n    }\n\n    //Set our cxzp contract in the constructor\n    function initialize(address payable _czxpContractAddress) initializer onlyOwner public {\n        CzxpContractAddress_ = _czxpContractAddress;\n    }\n\n    function loadNewCardType(\n            uint8 _cardTypeId,\n            string calldata _name,\n            string calldata _set,\n            uint8 _assetType,\n            uint8 _notStoreOrBonus,\n            uint8 _rarity,\n            uint16 _totalAvailable,\n            uint256 _weiCost,\n            uint256 _buyCzxp\n        ) external onlyOwner returns(bool){\n            \n        //what requires should we add ?\n        \n        //a max. of 5000 types in the universe ever\n        require(cardTypesIds.length <= maxCardTypes);\n        \n        //not allowed to update existing cardTypeIds\n        require(allCardTypes[_cardTypeId].cardTypeId == 0);\n        \n        allCardTypes[_cardTypeId].cardTypeId    = _cardTypeId;\n        allCardTypes[_cardTypeId].name          = _name;\n        allCardTypes[_cardTypeId].set           = _set;\n        cardAssetType[_cardTypeId]              = _assetType;\n        storeBoosterBonus[_cardTypeId]          = _notStoreOrBonus;\n        rarity[_cardTypeId]                     = _rarity;\n        totalAvailable[_cardTypeId]             = _totalAvailable;\n        allCardTypes[_cardTypeId].weiCost       = _weiCost;\n        allCardTypes[_cardTypeId].buyCzxp       = _buyCzxp;\n    \n        //If she be booster worthy\n        if(_notStoreOrBonus == 1){ // 0=store,1=booster,2=bonus\n            allBoosterCardIds[_rarity].push(_cardTypeId);\n        }\n        \n        //Track the cardTypeIds count\n        cardTypesIds.push(_cardTypeId);\n        return true;\n    }\n\n    function addTocardType(\n                        uint32  _cardTypeId,\n                        uint256 _transferCzxp,\n                        uint256 _sacrificeCzxp,\n                        uint256 _unlockCzxp,\n                        uint8 _cardLevel\n                      ) external onlyOwner returns(bool){\n                          \n        //not allowed to update existing cardTypeIds\n//TODO check for NULL in case we push 0 for a property\n        require(allCardTypes[_cardTypeId].transferCzxp == 0);\n        require(allCardTypes[_cardTypeId].sacrificeCzxp == 0);\n        require(allCardTypes[_cardTypeId].unlockCzxp == 0);\n        require(allCardTypes[_cardTypeId].cardLevel == 0);\n                          \n        require(allCardTypes[_cardTypeId].cardTypeId == _cardTypeId);\n        \n        \n        allCardTypes[_cardTypeId].transferCzxp  = _transferCzxp;\n        allCardTypes[_cardTypeId].sacrificeCzxp = _sacrificeCzxp;\n        allCardTypes[_cardTypeId].unlockCzxp    = _unlockCzxp;\n        allCardTypes[_cardTypeId].cardLevel     = _cardLevel;\n        \n        //initialize editionNumber\n        cardTypeToEdition[_cardTypeId] = 0;\n        \n        //Card type is defined, now emit a Log of it\n        emit LogCardTypeLoaded(_cardTypeId,allCardTypes[_cardTypeId].name);\n        return true;\n    }\n    \n    \n/**\n    /**\n     *  Public interface to purchase a card, probablly the most insecure entry point !\n     */\n    function buyCard(uint32 _cardTypeId) external payable isValidCard(_cardTypeId) returns(bool) {\n        \n        // dont even bother if no ETH sent\n        require(msg.value > 0);\n        \n        //check for valid cardType\n        require(allCardTypes[_cardTypeId].cardTypeId == _cardTypeId);\n        \n        cardType memory _tempCard = allCardTypes[_cardTypeId];\n        \n        //check if store only\n        require(storeBoosterBonus[_cardTypeId] == 0);\n        \n        //Can't buy cards you own\n        require(cardTypesOwned[msg.sender][_cardTypeId] == false);\n         \n        //Check if this card amount we sell is more than edition+1 for this card type\n        require((totalAvailable[_cardTypeId] > cardTypeToEdition[_cardTypeId] + 1 ));\n        \n        //check if they have paid enough for it\n        require(msg.value >= _tempCard.weiCost);\n        \n        //check if we have enough czxp to unlock this card\n        uint czxp = CzxpToken(CzxpContractAddress_).balanceOf(msg.sender);\n        require(czxp >= _tempCard.unlockCzxp);\n        \n    //Clear ? to buy the card\n        \n        //Let the universe award our friend\n        super.awardCzxp(msg.sender, allCardTypes[_cardTypeId].buyCzxp);\n        \n        //and award their sponsor\n        rewardAffiliate(allCardTypes[_cardTypeId].buyCzxp);\n    \n        //Mint the real token and pass czxp gained for logging\n        super._createCard(_cardTypeId, msg.sender,allCardTypes[_cardTypeId].buyCzxp);\n        \n        //Track the type of card puchased for this owner, so they cant buy again\n        cardTypesOwned[msg.sender][_cardTypeId] = true;\n        \n        return true;\n    }\n    \n    //every 8 hours, the address can get 2 free booster cards\n    function getBonusBoosters() external {\n        //this only runs if time to get new cards\n        require(now > getTimeToDailyBonus(msg.sender));\n        //update the lastpull value\n        timeToCardsPull[msg.sender] = now + 8 hours;\n        boosterPacksOwned[msg.sender] = boosterPacksOwned[msg.sender].add(2);\n        emit LogDailyReward(msg.sender, boosterPacksOwned[msg.sender]);\n    }\n    \n    /**\n     *  Public interface to get card at no cost\n     */\n    function getFreeCard(uint32 _cardTypeId) external isValidCard(_cardTypeId) {\n        //check if store only\n        require(storeBoosterBonus[_cardTypeId] == 0);\n        \n        // ensure there is enough of a supply left\n        require(totalAvailable[_cardTypeId] > (cardTypeToEdition[_cardTypeId]+1));\n        \n        //Can't get cards From shop that you own\n        require(cardTypesOwned[msg.sender][_cardTypeId] == false);\n        \n        //check if we have enough czxp to unlock this card\n      //  uint czxp = CzxpToken(CzxpContractAddress_).balanceOf(msg.sender);\n    //    require(czxp >= allCardTypes[_cardTypeId].unlockCzxp);\n        \n        //Only cards that are Free\n        require(allCardTypes[_cardTypeId].weiCost == 0);\n\n//ALL CLEAR ???????? claim a new card\n    \n        //Let the universe award our friend\n        super.awardCzxp(msg.sender, allCardTypes[_cardTypeId].buyCzxp);\n        \n        rewardAffiliate(allCardTypes[_cardTypeId].buyCzxp);\n    \n        super._createCard(_cardTypeId, msg.sender, allCardTypes[_cardTypeId].buyCzxp);\n        \n        //Track the type of card puchased for this owner, so they cant buy again\n        cardTypesOwned[msg.sender][_cardTypeId] = true;\n    }\n    \n    /**\n     *  Any user can sacrifice any card they own. Please don't burn down the universe :'(\n     */\n     function sacrifice(uint256 _tokenId) external {\n         //Call our internal burn function does all our owner checks\n         _burn(msg.sender, _tokenId);\n     }\n    \n//Booster Pack functions\n \n    /**\n     *  Public interface to buy booster card(s)\n    */\n    function buyBoosterCard(uint _amount) payable external returns(bool) {\n        \n        // is there enough wei sent 1 pack = 0.002 ETH ?\n        require(msg.value >= weiCostOfCard.mul(_amount));\n        \n        //All good increase the number owned\n        boosterPacksOwned[msg.sender] = boosterPacksOwned[msg.sender].add(_amount);\n\n        //Award czxp for booster\n        super.awardCzxp(msg.sender, uint(czxpGainedBoosterPurchase.mul(_amount)));\n        \n        rewardAffiliate(uint(czxpGainedBoosterPurchase.mul(_amount)));\n\n        return true;\n    }\n    \n    /**\n     *  Public interface to buy booster pack(s) and open them - NO burn option\n     */\n    function buyBoosterCardAndOpen() payable external {\n        // is there enough wei sent 1 pack = 0.005 ETH ?\n        require(msg.value >= weiCostOfCard);\n        \n        //All good increase the number owned\n        boosterPacksOwned[msg.sender] = boosterPacksOwned[msg.sender].add(1);\n\n        //Award czxp per pack\n        super.awardCzxp(msg.sender, czxpGainedBoosterPurchase);\n        \n        rewardAffiliate(czxpGainedBoosterPurchase);\n        \n        //Now open the pack\n        openBoosterCard(0);\n    }\n    \n    /**\n     *  Public interface to open already purchased booster pack(s) - User can wager an amount\n     */\n    function openBoosterCard(uint czxpWager) public returns(bool) {\n        //Ensure user owns unopened packs\n        require(boosterPacksOwned[msg.sender] > 0);\n        \n        //czxpWager check czxpWager\n        require(czxpWager >= 0);\n        \n        //decrement number of packs\n        boosterPacksOwned[msg.sender] = boosterPacksOwned[msg.sender].sub(1);\n        \n        //Pull the card\n        uint8 rarity = getRarity(czxpWager);\n        pullCard(rarity);\n        \n        //Send a log event\n        emit LogPackOpened(msg.sender, rarity);\n        return true;\n    }\n   \n    /**\n     * Public interface to allow a player to forever link their 1 sponsor\n     */\n    function linkMySponsor(address mySponsor) external {\n        //First ensure the sponsor isn't Linked\n        require(sponsors[msg.sender] == address(0));\n        \n        //All clear, set the association\n        sponsors[msg.sender] = mySponsor;\n        \n        //Mint the Platinum Sponsor Card\n//TODO\n        pullCard(2);\n    }\n\n//Private\n\n    /**\n     * We always pay our affiliates 20% of the czxp\n     */\n     function rewardAffiliate(uint totalCZXP) private {\n         //first check if the caller has a sponsor\n         if(sponsors[msg.sender] != address(0)){\n             uint reward = totalCZXP / 20;\n             if(reward == 0){\n                 reward = 1;\n             }\n             super.awardCzxp(sponsors[msg.sender], reward);\n             emit LogSponsorReward(sponsors[msg.sender], msg.sender, reward);\n         }\n     }\n\n    /**\n     *\n     */\n     function pullCard(uint8 rarity) private {\n         \n         //Get a random number for the card to pull\n         uint rand = selectRandom(allBoosterCardIds[rarity].length);\n         \n         //hit up the cardTypes\n         uint32 pulledId = allBoosterCardIds[rarity][rand];\n         \n        //Give the player this cardTypes\n        super._createCard(pulledId, msg.sender, 100);\n     }\n    \n    /**\n     *  Private function to diceroll the rarity pull Only from booster packs\n     */\n    function getRarity(uint czxpWager) private returns(uint8){\n        \n        //Check if below upper limit\n        require(czxpWager <= 1649267441667000);\n        \n        //FIRST ensure, player can back their wager\n        uint _playerCZXPBalance = CzxpToken(CzxpContractAddress_).balanceOf(msg.sender);\n        require(_playerCZXPBalance >= czxpWager);\n        \n        //grab a random number\n        uint rand = selectRandom(10000);\n\n        //get our probabilty distribution\n        uint16[7] memory probs = burnAndBoost(czxpWager);\n        \n        //Get the rarity for this pull from the probs\n        // 3=epic, 4=rare, 5=uncommon, 6=commmon\n        for(uint8 i=2; i < probs.length; i++){\n            if(rand <= probs[i]){\n                return i;\n            }\n        }\n//REMOVE THIS !!!!\n        return 6;\n    }\n    \n    \n    /**\n     * Private Booster distribution function\n     */\n     function burnAndBoost(uint czxpWager) private returns(uint16[7] memory) {\n        \n        //buyBoosterCardAndOpen will pass a zero, set a default\n        if(czxpWager == 0){\n            return [0,0,0,1,50,2700,10000];\n        }\n         \n        (uint16 c, uint16 u, uint16 r, uint16 e) = super.getProbs(czxpWager);\n        \n        //default distribution is 1,50,2700,10000\n         uint16[7] memory probs = [0,0,0,e,r,u,c];\n         \n        return probs;\n     }\n     \n     /**\n      * Return the timestamp of the next daily bonus for a player\n      */\n      function getTimeToDailyBonus(address _player) public view returns(uint timeStamp){\n          \n          //check if address exists\n          if(timeToCardsPull[_player] == 0){\n              return now - 2 seconds;\n          }else{\n              return timeToCardsPull[_player];\n          }\n      }\n\n\n//Thanks! for supporting the Cryptoz universe <3 <3 <3\n    /**\n    * Withdraw balance to wallet ONLY for the owner to call this\n    */\n   function withdraw() external onlyOwner {\n      msg.sender.transfer(address(this).balance);\n   }\n\n\n//TEMP FOR TESTING...REMOVE FOR LIVE!!!!!!!!!!!!\n\n    function killSwitch() external onlyOwner {\n      selfdestruct(msg.sender);\n    }\n   \n}",
  "sourcePath": "/home/rprice/Downloads/cryptoz.cards/contracts/Cryptoz.sol",
  "compiler": {
    "name": "solc",
    "version": "0.5.9+commit.e560f70d.Emscripten.clang"
  },
  "schemaVersion": "3.0.19",
  "updatedAt": "2020-10-31T21:57:30.867Z",
  "networkType": "ethereum",
  "devdoc": {
    "methods": {
      "approve(address,uint256)": {
        "details": "Approves another address to transfer the given token ID The zero address indicates there is no approved address. There can only be one approved address per token at a given time. Can only be called by the token owner or an approved operator.",
        "params": {
          "to": "address to be approved for the given token ID",
          "tokenId": "uint256 ID of the token to be approved"
        }
      },
      "balanceOf(address)": {
        "details": "Gets the balance of the specified address.",
        "params": {
          "owner": "address to query the balance of"
        },
        "return": "uint256 representing the amount owned by the passed address"
      },
      "getApproved(uint256)": {
        "details": "Gets the approved address for a token ID, or zero if no address set Reverts if the token ID does not exist.",
        "params": {
          "tokenId": "uint256 ID of the token to query the approval of"
        },
        "return": "address currently approved for the given token ID"
      },
      "isApprovedForAll(address,address)": {
        "details": "Tells whether an operator is approved by a given owner.",
        "params": {
          "operator": "operator address which you want to query the approval of",
          "owner": "owner address which you want to query the approval of"
        },
        "return": "bool whether the given operator is approved by the given owner"
      },
      "isOwner()": {
        "details": "Returns true if the caller is the current owner."
      },
      "name()": {
        "details": "Gets the token name",
        "return": "string representing the token name"
      },
      "owner()": {
        "details": "Returns the address of the current owner."
      },
      "ownerOf(uint256)": {
        "details": "Gets the owner of the specified token ID.",
        "params": {
          "tokenId": "uint256 ID of the token to query the owner of"
        },
        "return": "address currently marked as the owner of the given token ID"
      },
      "renounceOwnership()": {
        "details": "Leaves the contract without owner. It will not be possible to call `onlyOwner` functions anymore. Can only be called by the current owner.     * NOTE: Renouncing ownership will leave the contract without an owner, thereby removing any functionality that is only available to the owner."
      },
      "safeTransferFrom(address,address,uint256)": {
        "details": "Safely transfers the ownership of a given token ID to another address If the target address is a contract, it must implement {IERC721Receiver-onERC721Received}, which is called upon a safe transfer, and return the magic value `bytes4(keccak256(\"onERC721Received(address,address,uint256,bytes)\"))`; otherwise, the transfer is reverted. Requires the msg.sender to be the owner, approved, or operator",
        "params": {
          "from": "current owner of the token",
          "to": "address to receive the ownership of the given token ID",
          "tokenId": "uint256 ID of the token to be transferred"
        }
      },
      "safeTransferFrom(address,address,uint256,bytes)": {
        "details": "Safely transfers the ownership of a given token ID to another address If the target address is a contract, it must implement {IERC721Receiver-onERC721Received}, which is called upon a safe transfer, and return the magic value `bytes4(keccak256(\"onERC721Received(address,address,uint256,bytes)\"))`; otherwise, the transfer is reverted. Requires the _msgSender() to be the owner, approved, or operator",
        "params": {
          "_data": "bytes data to send along with a safe transfer check",
          "from": "current owner of the token",
          "to": "address to receive the ownership of the given token ID",
          "tokenId": "uint256 ID of the token to be transferred"
        }
      },
      "setApprovalForAll(address,bool)": {
        "details": "Sets or unsets the approval of a given operator An operator is allowed to transfer all tokens of the sender on their behalf.",
        "params": {
          "approved": "representing the status of the approval to be set",
          "to": "operator address to set the approval"
        }
      },
      "supportsInterface(bytes4)": {
        "details": "See {IERC165-supportsInterface}.     * Time complexity O(1), guaranteed to always use less than 30 000 gas."
      },
      "symbol()": {
        "details": "Gets the token symbol",
        "return": "string representing the token symbol"
      },
      "tokenByIndex(uint256)": {
        "details": "Gets the token ID at a given index of all the tokens in this contractReverts if the index is greater or equal to the total number of tokens",
        "params": {
          "_index": "uint256 representing the index to be accessed of the tokens list"
        },
        "return": "uint256 token ID at the given index of the tokens list"
      },
      "tokenOfOwnerByIndex(address,uint256)": {
        "details": "Gets the token ID at a given index of the tokens list of the requested owner",
        "params": {
          "_index": "uint256 representing the index to be accessed of the requested tokens list",
          "_owner": "address owning the tokens list to be accessed"
        },
        "return": "uint256 token ID at the given index of the tokens list owned by the requested address"
      },
      "tokenURI(uint256)": {
        "details": "Returns an URI for a given token IDThrows if the token ID does not exist. May return an empty string.",
        "params": {
          "_tokenId": "uint256 ID of the token to query"
        }
      },
      "totalSupply()": {
        "details": "Gets the total amount of tokens stored by the contract",
        "return": "uint256 representing the total amount of tokens"
      },
      "transferOwnership(address)": {
        "details": "Transfers ownership of the contract to a new account (`newOwner`). Can only be called by the current owner."
      }
    }
  },
  "userdoc": {
    "methods": {
      "buyBoosterCard(uint256)": {
        "notice": "Public interface to buy booster card(s)"
      },
      "buyBoosterCardAndOpen()": {
        "notice": "Public interface to buy booster pack(s) and open them - NO burn option"
      },
      "buyCard(uint32)": {
        "notice": "/** Public interface to purchase a card, probablly the most insecure entry point !"
      },
      "getFreeCard(uint32)": {
        "notice": "Public interface to get card at no cost"
      },
      "getTimeToDailyBonus(address)": {
        "notice": "Return the timestamp of the next daily bonus for a player"
      },
      "linkMySponsor(address)": {
        "notice": "Public interface to allow a player to forever link their 1 sponsor"
      },
      "openBoosterCard(uint256)": {
        "notice": "Public interface to open already purchased booster pack(s) - User can wager an amount"
      },
      "sacrifice(uint256)": {
        "notice": "Any user can sacrifice any card they own. Please don't burn down the universe :'("
      },
      "transferFrom(address,address,uint256)": {
        "notice": "Public method to allow file transfer, we call our internal function"
      },
      "withdraw()": {
        "notice": "Withdraw balance to wallet ONLY for the owner to call this"
      }
    }
  }
}