{
  "contractName": "CryptozUniverse",
  "abi": [
    {
      "constant": true,
      "inputs": [
        {
          "name": "",
          "type": "uint32"
        }
      ],
      "name": "allCardTypes",
      "outputs": [
        {
          "name": "cardTypeId",
          "type": "uint32"
        },
        {
          "name": "name",
          "type": "string"
        },
        {
          "name": "set",
          "type": "string"
        },
        {
          "name": "weiCost",
          "type": "uint256"
        },
        {
          "name": "buyCzxp",
          "type": "uint256"
        },
        {
          "name": "transferCzxp",
          "type": "uint256"
        },
        {
          "name": "sacrificeCzxp",
          "type": "uint256"
        },
        {
          "name": "unlockCzxp",
          "type": "uint256"
        },
        {
          "name": "cardLevel",
          "type": "uint8"
        }
      ],
      "payable": false,
      "stateMutability": "view",
      "type": "function"
    },
    {
      "constant": false,
      "inputs": [],
      "name": "renounceOwnership",
      "outputs": [],
      "payable": false,
      "stateMutability": "nonpayable",
      "type": "function"
    },
    {
      "constant": true,
      "inputs": [
        {
          "name": "",
          "type": "uint256"
        }
      ],
      "name": "rarity",
      "outputs": [
        {
          "name": "",
          "type": "uint8"
        }
      ],
      "payable": false,
      "stateMutability": "view",
      "type": "function"
    },
    {
      "constant": true,
      "inputs": [],
      "name": "owner",
      "outputs": [
        {
          "name": "",
          "type": "address"
        }
      ],
      "payable": false,
      "stateMutability": "view",
      "type": "function"
    },
    {
      "constant": true,
      "inputs": [],
      "name": "isOwner",
      "outputs": [
        {
          "name": "",
          "type": "bool"
        }
      ],
      "payable": false,
      "stateMutability": "view",
      "type": "function"
    },
    {
      "constant": true,
      "inputs": [
        {
          "name": "",
          "type": "uint256"
        }
      ],
      "name": "cardTypesIds",
      "outputs": [
        {
          "name": "",
          "type": "uint256"
        }
      ],
      "payable": false,
      "stateMutability": "view",
      "type": "function"
    },
    {
      "constant": true,
      "inputs": [
        {
          "name": "",
          "type": "uint256"
        }
      ],
      "name": "cardTypeToEdition",
      "outputs": [
        {
          "name": "",
          "type": "uint256"
        }
      ],
      "payable": false,
      "stateMutability": "view",
      "type": "function"
    },
    {
      "constant": false,
      "inputs": [
        {
          "name": "newOwner",
          "type": "address"
        }
      ],
      "name": "transferOwnership",
      "outputs": [],
      "payable": false,
      "stateMutability": "nonpayable",
      "type": "function"
    },
    {
      "payable": false,
      "stateMutability": "nonpayable",
      "type": "fallback"
    },
    {
      "anonymous": false,
      "inputs": [
        {
          "indexed": true,
          "name": "beneficiary",
          "type": "address"
        },
        {
          "indexed": false,
          "name": "czxpAmount",
          "type": "uint256"
        }
      ],
      "name": "CZXPGained",
      "type": "event"
    },
    {
      "anonymous": false,
      "inputs": [
        {
          "indexed": true,
          "name": "previousOwner",
          "type": "address"
        },
        {
          "indexed": true,
          "name": "newOwner",
          "type": "address"
        }
      ],
      "name": "OwnershipTransferred",
      "type": "event"
    },
    {
      "constant": true,
      "inputs": [],
      "name": "getTotalTypes",
      "outputs": [
        {
          "name": "",
          "type": "uint256"
        }
      ],
      "payable": false,
      "stateMutability": "view",
      "type": "function"
    }
  ],
  "bytecode": "0x60c0604052601b60808190527f68747470733a2f2f63727970746f7a2e63617264732f646174612f000000000060a090815261003e9160019190610113565b506000600b5560408051608081018252600181526002602082015260039181019190915260046060820181905261007791600c91610191565b50604080516080810182526001815260026020820152600691810191909152601860608201526100ab906010906004610191565b5060006100bf6001600160e01b0361010e16565b600080546001600160a01b0319166001600160a01b0383169081178255604051929350917f8be0079c531659141344cd1fd0a4f28419497f9722a3daafe3b4186f6b6457e0908290a3506101de565b335b90565b828054600181600116156101000203166002900490600052602060002090601f016020900481019282601f1061015457805160ff1916838001178555610181565b82800160010185558215610181579182015b82811115610181578251825591602001919060010190610166565b5061018d9291506101c4565b5090565b8260048101928215610181579160200282015b82811115610181578251829060ff169055916020019190600101906101a4565b61011091905b8082111561018d57600081556001016101ca565b6106c5806101ed6000396000f3fe608060405234801561001057600080fd5b50600436106100935760003560e01c80638da5cb5b116100665780638da5cb5b146102335780638f32d59b14610257578063918923c414610273578063b4a1676914610290578063f2fde38b146102ad57610093565b806342ed1d2914610098578063715018a6146101dc5780637f276455146101e65780638b58c56914610200575b600080fd5b6100bb600480360360208110156100ae57600080fd5b503563ffffffff166102d3565b604051808a63ffffffff1663ffffffff16815260200180602001806020018981526020018881526020018781526020018681526020018581526020018460ff1660ff16815260200183810383528b818151815260200191508051906020019080838360005b83811015610138578181015183820152602001610120565b50505050905090810190601f1680156101655780820380516001836020036101000a031916815260200191505b5083810382528a5181528a516020918201918c019080838360005b83811015610198578181015183820152602001610180565b50505050905090810190601f1680156101c55780820380516001836020036101000a031916815260200191505b509b50505050505050505050505060405180910390f35b6101e4610440565b005b6101ee6104e3565b60408051918252519081900360200190f35b61021d6004803603602081101561021657600080fd5b50356104e9565b6040805160ff9092168252519081900360200190f35b61023b6104fe565b604080516001600160a01b039092168252519081900360200190f35b61025f61050d565b604080519115158252519081900360200190f35b6101ee6004803603602081101561028957600080fd5b5035610531565b6101ee600480360360208110156102a657600080fd5b503561054f565b6101e4600480360360208110156102c357600080fd5b50356001600160a01b0316610561565b6007602090815260009182526040918290208054600180830180548651600261010094831615949094026000190190911692909204601f810186900486028301860190965285825263ffffffff90921694929390929083018282801561037a5780601f1061034f5761010080835404028352916020019161037a565b820191906000526020600020905b81548152906001019060200180831161035d57829003601f168201915b50505060028085018054604080516020601f600019610100600187161502019094169590950492830185900485028101850190915281815295969594509092509083018282801561040c5780601f106103e15761010080835404028352916020019161040c565b820191906000526020600020905b8154815290600101906020018083116103ef57829003601f168201915b5050506003840154600485015460058601546006870154600788015460089098015496979396929550909350919060ff1689565b61044861050d565b610499576040805162461bcd60e51b815260206004820181905260248201527f4f776e61626c653a2063616c6c6572206973206e6f7420746865206f776e6572604482015290519081900360640190fd5b600080546040516001600160a01b03909116907f8be0079c531659141344cd1fd0a4f28419497f9722a3daafe3b4186f6b6457e0908390a3600080546001600160a01b0319169055565b60085490565b60046020526000908152604090205460ff1681565b6000546001600160a01b031690565b600080546001600160a01b03166105226105c6565b6001600160a01b031614905090565b6008818154811061053e57fe5b600091825260209091200154905081565b60096020526000908152604090205481565b61056961050d565b6105ba576040805162461bcd60e51b815260206004820181905260248201527f4f776e61626c653a2063616c6c6572206973206e6f7420746865206f776e6572604482015290519081900360640190fd5b6105c3816105ca565b50565b3390565b6001600160a01b03811661060f5760405162461bcd60e51b815260040180806020018281038252602681526020018061066b6026913960400191505060405180910390fd5b600080546040516001600160a01b03808516939216917f8be0079c531659141344cd1fd0a4f28419497f9722a3daafe3b4186f6b6457e091a3600080546001600160a01b0319166001600160a01b039290921691909117905556fe4f776e61626c653a206e6577206f776e657220697320746865207a65726f2061646472657373a265627a7a723058205a7072caec31c1c29db605009007b6e226e748d744b902bb65545dec81ce9dca64736f6c63430005090032",
  "source": "pragma solidity ^0.5.0;\n\n/******************************************\n\nOur Matra our Motto for coding The Cryptoz Universe.\n\n      Fail EARLY and Fail LOUD !!!!!!!\n\n1.    First - Check all pre-conditions\n2.    Then  - make changes to contract state\n3.    Final - interact with other contracts\n\nPull funds over pushing them\nPlatform limits like max of 1023 loop interations.\n\nall Events start with Log\n\n******************************************/\nimport \"./CZXPToken.sol\";\nimport \"../node_modules/@openzeppelin/contracts/ownership/Ownable.sol\";\nimport \"../node_modules/@openzeppelin/contracts/math/SafeMath.sol\";\n\ncontract CryptozUniverse is Ownable {\n    using SafeMath for uint256;\n\n//Definitons\n    struct cardType{\n        uint32 cardTypeId;\n        string name;\n        string set;\n        //uint8 assetType; //1=human,2=animal,3=plant, 4=thing\n        //uint8 notStoreOrBonus; //0 =inStore, 1 = pack, 2= bonus\n        //uint8 rarity; //1 = diamond,6 = common\n        //uint16 totalAvailable;\n        uint256 weiCost;\n        uint256 buyCzxp;\n        uint256 transferCzxp;\n        uint256 sacrificeCzxp;\n        uint256 unlockCzxp;\n        uint8 cardLevel;\n    }\n\n    struct Card{\n        uint32 cardTypeId;\n        uint256 editionNumber;\n        uint256 transferCount;\n    }\n\n    string baseTokenURI = 'https://cryptoz.cards/data/'; //append ID on\n//storage\n\n    //Containers for the card types\n    mapping(uint256 => uint8) cardAssetType;\n    mapping(uint256 => uint8) storeBoosterBonus;\n    mapping(uint256 => uint8) public rarity; // lookup cardTypeId return rarity\n    mapping(uint256 => uint16) totalAvailable;\n\n    //All the cards in the Cryptoz Universe\n    Card[] internal Cards;\n\n    mapping(uint32 => cardType) public allCardTypes;        // All card type definitions\n    uint256[] public cardTypesIds; //Just an array of all the id\n\n    //track editionNumberTotal, always increments, starts at 1\n    mapping(uint256 => uint256) public cardTypeToEdition;\n\n// Event Logs\n    event CZXPGained(address indexed beneficiary, uint256 czxpAmount);\n\n//Other variables we need\n    address payable internal CzxpContractAddress_;\n\n\n    /**\n     * Not much going on here so exit.\n     */\n    function() external{\n        revert();\n    }\n\n    /**\n     *\n     */\n     function getTotalTypes() public view returns(uint){\n         return cardTypesIds.length;\n     }\n\n    /**\n     *  Internal function called from Cryptoz once all the checks are done\n     */\n    function awardCzxp(address _beneficiary, uint czxpReward) internal {\n        //Give the czxp tokens\n        CzxpToken(CzxpContractAddress_).awardCzxp(_beneficiary, czxpReward);\n    }\n\n    /**\n     * Random as it gets for now. Return a val between 1-10000\n     */\n    uint nonce = 0;\n    function selectRandom(uint256 range) internal returns (uint) {\n        uint randomnumber = uint(keccak256(abi.encodePacked(now, msg.sender, nonce))) % range;\n        //randomnumber = randomnumber + 100;\n        nonce++;\n        return randomnumber;\n    }\n\n    uint[4] group = [1,2,3,4];\n    uint[4] Fac = [1,2,6,24];\n    uint[4] DistGroup;\n    uint16[4] FinalProbs;\n    \n    function getProbs(uint wager) internal returns (uint16,uint16,uint16,uint16)  {\n\n        for(uint i=0; i<4; i++){\n            DistGroup[i] = (((getLambda(wager)**group[i]) / getLambda(wager)) / Fac[i]) * 100;\n        }\n        \n        uint DistTotal = DistGroup[0] + DistGroup[1] + DistGroup[2] + DistGroup[3];\n        \n        for(uint j=0; j<4; j++){\n            FinalProbs[j] = uint16(DistGroup[j] * 10000 / DistTotal);\n        }\n        return(FinalProbs[0],FinalProbs[1],FinalProbs[2],FinalProbs[3]);\n    }\n    \n    function getLambda(uint wager) internal returns (uint) {\n        uint Dist   = log2(wager / 280000);\n        return Dist / 4;\n    }\n    \n    function log2(uint x) internal returns (uint y){\n       assembly {\n            let arg := x\n            x := sub(x,1)\n            x := or(x, div(x, 0x02))\n            x := or(x, div(x, 0x04))\n            x := or(x, div(x, 0x10))\n            x := or(x, div(x, 0x100))\n            x := or(x, div(x, 0x10000))\n            x := or(x, div(x, 0x100000000))\n            x := or(x, div(x, 0x10000000000000000))\n            x := or(x, div(x, 0x100000000000000000000000000000000))\n            x := add(x, 1)\n            let m := mload(0x40)\n            mstore(m,           0xf8f9cbfae6cc78fbefe7cdc3a1793dfcf4f0e8bbd8cec470b6a28a7a5a3e1efd)\n            mstore(add(m,0x20), 0xf5ecf1b3e9debc68e1d9cfabc5997135bfb7a7a3938b7b606b5b4b3f2f1f0ffe)\n            mstore(add(m,0x40), 0xf6e4ed9ff2d6b458eadcdf97bd91692de2d4da8fd2d0ac50c6ae9a8272523616)\n            mstore(add(m,0x60), 0xc8c0b887b0a8a4489c948c7f847c6125746c645c544c444038302820181008ff)\n            mstore(add(m,0x80), 0xf7cae577eec2a03cf3bad76fb589591debb2dd67e0aa9834bea6925f6a4a2e0e)\n            mstore(add(m,0xa0), 0xe39ed557db96902cd38ed14fad815115c786af479b7e83247363534337271707)\n            mstore(add(m,0xc0), 0xc976c13bb96e881cb166a933a55e490d9d56952b8d4e801485467d2362422606)\n            mstore(add(m,0xe0), 0x753a6d1b65325d0c552a4d1345224105391a310b29122104190a110309020100)\n            mstore(0x40, add(m, 0x100))\n            let magic := 0x818283848586878898a8b8c8d8e8f929395969799a9b9d9e9faaeb6bedeeff\n            let shift := 0x100000000000000000000000000000000000000000000000000000000000000\n            let a := div(mul(x, magic), shift)\n            y := div(mload(add(m,sub(255,a))), shift)\n            y := add(y, mul(256, gt(arg, 0x8000000000000000000000000000000000000000000000000000000000000000)))\n        }\n    }\n}\n",
  "sourcePath": "/home/rprice/Downloads/cryptoz.cards/contracts/CryptozUniverse.sol",
  "compiler": {
    "name": "solc",
    "version": "0.5.9+commit.e560f70d.Emscripten.clang"
  },
  "schemaVersion": "3.0.19",
  "updatedAt": "2020-11-25T03:26:50.357Z",
  "devdoc": {
    "methods": {
      "isOwner()": {
        "details": "Returns true if the caller is the current owner."
      },
      "owner()": {
        "details": "Returns the address of the current owner."
      },
      "renounceOwnership()": {
        "details": "Leaves the contract without owner. It will not be possible to call `onlyOwner` functions anymore. Can only be called by the current owner.     * NOTE: Renouncing ownership will leave the contract without an owner, thereby removing any functionality that is only available to the owner."
      },
      "transferOwnership(address)": {
        "details": "Transfers ownership of the contract to a new account (`newOwner`). Can only be called by the current owner."
      }
    }
  },
  "userdoc": {
    "methods": {}
  }
}