{
  "contractName": "Cryptoz",
  "abi": [
    {
      "constant": true,
      "inputs": [
        {
          "name": "interfaceId",
          "type": "bytes4"
        }
      ],
      "name": "supportsInterface",
      "outputs": [
        {
          "name": "",
          "type": "bool"
        }
      ],
      "payable": false,
      "stateMutability": "view",
      "type": "function"
    },
    {
      "constant": true,
      "inputs": [],
      "name": "name",
      "outputs": [
        {
          "name": "_name",
          "type": "string"
        }
      ],
      "payable": false,
      "stateMutability": "view",
      "type": "function"
    },
    {
      "constant": true,
      "inputs": [
        {
          "name": "tokenId",
          "type": "uint256"
        }
      ],
      "name": "getApproved",
      "outputs": [
        {
          "name": "",
          "type": "address"
        }
      ],
      "payable": false,
      "stateMutability": "view",
      "type": "function"
    },
    {
      "constant": false,
      "inputs": [
        {
          "name": "to",
          "type": "address"
        },
        {
          "name": "tokenId",
          "type": "uint256"
        }
      ],
      "name": "approve",
      "outputs": [],
      "payable": false,
      "stateMutability": "nonpayable",
      "type": "function"
    },
    {
      "constant": true,
      "inputs": [],
      "name": "totalSupply",
      "outputs": [
        {
          "name": "",
          "type": "uint256"
        }
      ],
      "payable": false,
      "stateMutability": "view",
      "type": "function"
    },
    {
      "constant": false,
      "inputs": [
        {
          "name": "from",
          "type": "address"
        },
        {
          "name": "to",
          "type": "address"
        },
        {
          "name": "tokenId",
          "type": "uint256"
        }
      ],
      "name": "transferFrom",
      "outputs": [],
      "payable": false,
      "stateMutability": "nonpayable",
      "type": "function"
    },
    {
      "constant": true,
      "inputs": [
        {
          "name": "_owner",
          "type": "address"
        },
        {
          "name": "_index",
          "type": "uint256"
        }
      ],
      "name": "tokenOfOwnerByIndex",
      "outputs": [
        {
          "name": "",
          "type": "uint256"
        }
      ],
      "payable": false,
      "stateMutability": "view",
      "type": "function"
    },
    {
      "constant": false,
      "inputs": [
        {
          "name": "from",
          "type": "address"
        },
        {
          "name": "to",
          "type": "address"
        },
        {
          "name": "tokenId",
          "type": "uint256"
        }
      ],
      "name": "safeTransferFrom",
      "outputs": [],
      "payable": false,
      "stateMutability": "nonpayable",
      "type": "function"
    },
    {
      "constant": true,
      "inputs": [
        {
          "name": "",
          "type": "uint32"
        }
      ],
      "name": "allCardTypes",
      "outputs": [
        {
          "name": "cardTypeId",
          "type": "uint32"
        },
        {
          "name": "name",
          "type": "string"
        },
        {
          "name": "set",
          "type": "string"
        },
        {
          "name": "weiCost",
          "type": "uint256"
        },
        {
          "name": "buyCzxp",
          "type": "uint256"
        },
        {
          "name": "transferCzxp",
          "type": "uint256"
        },
        {
          "name": "sacrificeCzxp",
          "type": "uint256"
        },
        {
          "name": "unlockCzxp",
          "type": "uint256"
        },
        {
          "name": "cardLevel",
          "type": "uint8"
        }
      ],
      "payable": false,
      "stateMutability": "view",
      "type": "function"
    },
    {
      "constant": true,
      "inputs": [
        {
          "name": "",
          "type": "uint256"
        }
      ],
      "name": "tokensByRarity",
      "outputs": [
        {
          "name": "",
          "type": "uint256"
        }
      ],
      "payable": false,
      "stateMutability": "view",
      "type": "function"
    },
    {
      "constant": true,
      "inputs": [
        {
          "name": "_index",
          "type": "uint256"
        }
      ],
      "name": "tokenByIndex",
      "outputs": [
        {
          "name": "",
          "type": "uint256"
        }
      ],
      "payable": false,
      "stateMutability": "view",
      "type": "function"
    },
    {
      "constant": true,
      "inputs": [
        {
          "name": "tokenId",
          "type": "uint256"
        }
      ],
      "name": "ownerOf",
      "outputs": [
        {
          "name": "",
          "type": "address"
        }
      ],
      "payable": false,
      "stateMutability": "view",
      "type": "function"
    },
    {
      "constant": true,
      "inputs": [
        {
          "name": "owner",
          "type": "address"
        }
      ],
      "name": "balanceOf",
      "outputs": [
        {
          "name": "",
          "type": "uint256"
        }
      ],
      "payable": false,
      "stateMutability": "view",
      "type": "function"
    },
    {
      "constant": false,
      "inputs": [],
      "name": "renounceOwnership",
      "outputs": [],
      "payable": false,
      "stateMutability": "nonpayable",
      "type": "function"
    },
    {
      "constant": true,
      "inputs": [
        {
          "name": "",
          "type": "address"
        }
      ],
      "name": "boosterPacksOwned",
      "outputs": [
        {
          "name": "",
          "type": "uint256"
        }
      ],
      "payable": false,
      "stateMutability": "view",
      "type": "function"
    },
    {
      "constant": true,
      "inputs": [],
      "name": "getTotalTypes",
      "outputs": [
        {
          "name": "",
          "type": "uint256"
        }
      ],
      "payable": false,
      "stateMutability": "view",
      "type": "function"
    },
    {
      "constant": true,
      "inputs": [
        {
          "name": "",
          "type": "address"
        },
        {
          "name": "",
          "type": "uint256"
        }
      ],
      "name": "cardTypesOwned",
      "outputs": [
        {
          "name": "",
          "type": "bool"
        }
      ],
      "payable": false,
      "stateMutability": "view",
      "type": "function"
    },
    {
      "constant": true,
      "inputs": [
        {
          "name": "_owner",
          "type": "address"
        }
      ],
      "name": "tokensOfOwner",
      "outputs": [
        {
          "name": "ownerTokens",
          "type": "uint256[]"
        }
      ],
      "payable": false,
      "stateMutability": "view",
      "type": "function"
    },
    {
      "constant": false,
      "inputs": [
        {
          "name": "wager",
          "type": "uint256"
        }
      ],
      "name": "getProbs",
      "outputs": [
        {
          "name": "",
          "type": "uint16"
        },
        {
          "name": "",
          "type": "uint16"
        },
        {
          "name": "",
          "type": "uint16"
        },
        {
          "name": "",
          "type": "uint16"
        }
      ],
      "payable": false,
      "stateMutability": "nonpayable",
      "type": "function"
    },
    {
      "constant": true,
      "inputs": [
        {
          "name": "",
          "type": "uint256"
        }
      ],
      "name": "rarity",
      "outputs": [
        {
          "name": "",
          "type": "uint8"
        }
      ],
      "payable": false,
      "stateMutability": "view",
      "type": "function"
    },
    {
      "constant": true,
      "inputs": [],
      "name": "owner",
      "outputs": [
        {
          "name": "",
          "type": "address"
        }
      ],
      "payable": false,
      "stateMutability": "view",
      "type": "function"
    },
    {
      "constant": true,
      "inputs": [],
      "name": "isOwner",
      "outputs": [
        {
          "name": "",
          "type": "bool"
        }
      ],
      "payable": false,
      "stateMutability": "view",
      "type": "function"
    },
    {
      "constant": true,
      "inputs": [
        {
          "name": "",
          "type": "uint256"
        }
      ],
      "name": "cardTypesIds",
      "outputs": [
        {
          "name": "",
          "type": "uint256"
        }
      ],
      "payable": false,
      "stateMutability": "view",
      "type": "function"
    },
    {
      "constant": true,
      "inputs": [],
      "name": "symbol",
      "outputs": [
        {
          "name": "_symbol",
          "type": "string"
        }
      ],
      "payable": false,
      "stateMutability": "view",
      "type": "function"
    },
    {
      "constant": false,
      "inputs": [
        {
          "name": "to",
          "type": "address"
        },
        {
          "name": "approved",
          "type": "bool"
        }
      ],
      "name": "setApprovalForAll",
      "outputs": [],
      "payable": false,
      "stateMutability": "nonpayable",
      "type": "function"
    },
    {
      "constant": true,
      "inputs": [
        {
          "name": "_tokenId",
          "type": "uint256"
        }
      ],
      "name": "getOwnedCard",
      "outputs": [
        {
          "name": "",
          "type": "uint32"
        },
        {
          "name": "",
          "type": "uint256"
        },
        {
          "name": "",
          "type": "uint256"
        }
      ],
      "payable": false,
      "stateMutability": "view",
      "type": "function"
    },
    {
      "constant": true,
      "inputs": [],
      "name": "getTokensByRarity",
      "outputs": [
        {
          "name": "",
          "type": "uint256"
        },
        {
          "name": "",
          "type": "uint256"
        },
        {
          "name": "",
          "type": "uint256"
        },
        {
          "name": "",
          "type": "uint256"
        },
        {
          "name": "",
          "type": "uint256"
        },
        {
          "name": "",
          "type": "uint256"
        }
      ],
      "payable": false,
      "stateMutability": "view",
      "type": "function"
    },
    {
      "constant": true,
      "inputs": [
        {
          "name": "",
          "type": "uint256"
        }
      ],
      "name": "cardTypeToEdition",
      "outputs": [
        {
          "name": "",
          "type": "uint256"
        }
      ],
      "payable": false,
      "stateMutability": "view",
      "type": "function"
    },
    {
      "constant": false,
      "inputs": [
        {
          "name": "from",
          "type": "address"
        },
        {
          "name": "to",
          "type": "address"
        },
        {
          "name": "tokenId",
          "type": "uint256"
        },
        {
          "name": "_data",
          "type": "bytes"
        }
      ],
      "name": "safeTransferFrom",
      "outputs": [],
      "payable": false,
      "stateMutability": "nonpayable",
      "type": "function"
    },
    {
      "constant": true,
      "inputs": [
        {
          "name": "_tokenId",
          "type": "uint256"
        }
      ],
      "name": "tokenURI",
      "outputs": [
        {
          "name": "",
          "type": "string"
        }
      ],
      "payable": false,
      "stateMutability": "view",
      "type": "function"
    },
    {
      "constant": true,
      "inputs": [
        {
          "name": "",
          "type": "address"
        }
      ],
      "name": "sponsors",
      "outputs": [
        {
          "name": "",
          "type": "address"
        }
      ],
      "payable": false,
      "stateMutability": "view",
      "type": "function"
    },
    {
      "constant": true,
      "inputs": [
        {
          "name": "owner",
          "type": "address"
        },
        {
          "name": "operator",
          "type": "address"
        }
      ],
      "name": "isApprovedForAll",
      "outputs": [
        {
          "name": "",
          "type": "bool"
        }
      ],
      "payable": false,
      "stateMutability": "view",
      "type": "function"
    },
    {
      "constant": false,
      "inputs": [
        {
          "name": "newOwner",
          "type": "address"
        }
      ],
      "name": "transferOwnership",
      "outputs": [],
      "payable": false,
      "stateMutability": "nonpayable",
      "type": "function"
    },
    {
      "inputs": [
        {
          "name": "_czxpContractAddress",
          "type": "address"
        }
      ],
      "payable": false,
      "stateMutability": "nonpayable",
      "type": "constructor"
    },
    {
      "payable": false,
      "stateMutability": "nonpayable",
      "type": "fallback"
    },
    {
      "anonymous": false,
      "inputs": [
        {
          "indexed": true,
          "name": "cardTypeId",
          "type": "uint32"
        },
        {
          "indexed": false,
          "name": "cardName",
          "type": "string"
        }
      ],
      "name": "LogCardTypeLoaded",
      "type": "event"
    },
    {
      "anonymous": false,
      "inputs": [
        {
          "indexed": true,
          "name": "cardTypeId",
          "type": "uint32"
        },
        {
          "indexed": false,
          "name": "editionNumber",
          "type": "uint256"
        },
        {
          "indexed": true,
          "name": "buyer",
          "type": "address"
        }
      ],
      "name": "LogCardPurchased",
      "type": "event"
    },
    {
      "anonymous": false,
      "inputs": [
        {
          "indexed": true,
          "name": "buyer",
          "type": "address"
        },
        {
          "indexed": false,
          "name": "packsOpened",
          "type": "uint256"
        }
      ],
      "name": "LogPackOpened",
      "type": "event"
    },
    {
      "anonymous": false,
      "inputs": [
        {
          "indexed": false,
          "name": "sponsor",
          "type": "address"
        },
        {
          "indexed": false,
          "name": "affiliate",
          "type": "address"
        }
      ],
      "name": "LogSponsorLinked",
      "type": "event"
    },
    {
      "anonymous": false,
      "inputs": [
        {
          "indexed": false,
          "name": "sponsor",
          "type": "address"
        },
        {
          "indexed": false,
          "name": "affiliate",
          "type": "address"
        },
        {
          "indexed": false,
          "name": "CzxpReward",
          "type": "uint256"
        }
      ],
      "name": "LogSponsorReward",
      "type": "event"
    },
    {
      "anonymous": false,
      "inputs": [
        {
          "indexed": true,
          "name": "owner",
          "type": "address"
        },
        {
          "indexed": true,
          "name": "cardTokenId",
          "type": "uint256"
        },
        {
          "indexed": false,
          "name": "editionNumber",
          "type": "uint256"
        },
        {
          "indexed": true,
          "name": "cardTypeId",
          "type": "uint256"
        },
        {
          "indexed": false,
          "name": "CzxpGained",
          "type": "uint256"
        }
      ],
      "name": "LogCardCreated",
      "type": "event"
    },
    {
      "anonymous": false,
      "inputs": [
        {
          "indexed": true,
          "name": "owner",
          "type": "address"
        },
        {
          "indexed": true,
          "name": "cardTokenId",
          "type": "uint256"
        },
        {
          "indexed": true,
          "name": "cardTypeId",
          "type": "uint256"
        },
        {
          "indexed": false,
          "name": "CzxpGained",
          "type": "uint256"
        }
      ],
      "name": "SacrificeCardEvent",
      "type": "event"
    },
    {
      "anonymous": false,
      "inputs": [
        {
          "indexed": true,
          "name": "from",
          "type": "address"
        },
        {
          "indexed": true,
          "name": "to",
          "type": "address"
        },
        {
          "indexed": true,
          "name": "tokenId",
          "type": "uint256"
        }
      ],
      "name": "Transfer",
      "type": "event"
    },
    {
      "anonymous": false,
      "inputs": [
        {
          "indexed": true,
          "name": "owner",
          "type": "address"
        },
        {
          "indexed": true,
          "name": "approved",
          "type": "address"
        },
        {
          "indexed": true,
          "name": "tokenId",
          "type": "uint256"
        }
      ],
      "name": "Approval",
      "type": "event"
    },
    {
      "anonymous": false,
      "inputs": [
        {
          "indexed": true,
          "name": "owner",
          "type": "address"
        },
        {
          "indexed": true,
          "name": "operator",
          "type": "address"
        },
        {
          "indexed": false,
          "name": "approved",
          "type": "bool"
        }
      ],
      "name": "ApprovalForAll",
      "type": "event"
    },
    {
      "anonymous": false,
      "inputs": [
        {
          "indexed": true,
          "name": "beneficiary",
          "type": "address"
        },
        {
          "indexed": false,
          "name": "czxpAmount",
          "type": "uint256"
        }
      ],
      "name": "CZXPGained",
      "type": "event"
    },
    {
      "anonymous": false,
      "inputs": [
        {
          "indexed": true,
          "name": "previousOwner",
          "type": "address"
        },
        {
          "indexed": true,
          "name": "newOwner",
          "type": "address"
        }
      ],
      "name": "OwnershipTransferred",
      "type": "event"
    },
    {
      "constant": false,
      "inputs": [
        {
          "name": "_cardTypeId",
          "type": "uint8"
        },
        {
          "name": "_name",
          "type": "string"
        },
        {
          "name": "_set",
          "type": "string"
        },
        {
          "name": "_assetType",
          "type": "uint8"
        },
        {
          "name": "_notStoreOrBonus",
          "type": "uint8"
        },
        {
          "name": "_rarity",
          "type": "uint8"
        },
        {
          "name": "_totalAvailable",
          "type": "uint16"
        },
        {
          "name": "_weiCost",
          "type": "uint256"
        },
        {
          "name": "_buyCzxp",
          "type": "uint256"
        }
      ],
      "name": "loadNewCardType",
      "outputs": [
        {
          "name": "",
          "type": "bool"
        }
      ],
      "payable": false,
      "stateMutability": "nonpayable",
      "type": "function"
    },
    {
      "constant": false,
      "inputs": [
        {
          "name": "_cardTypeId",
          "type": "uint32"
        },
        {
          "name": "_transferCzxp",
          "type": "uint256"
        },
        {
          "name": "_sacrificeCzxp",
          "type": "uint256"
        },
        {
          "name": "_unlockCzxp",
          "type": "uint256"
        },
        {
          "name": "_cardLevel",
          "type": "uint8"
        }
      ],
      "name": "addTocardType",
      "outputs": [
        {
          "name": "",
          "type": "bool"
        }
      ],
      "payable": false,
      "stateMutability": "nonpayable",
      "type": "function"
    },
    {
      "constant": false,
      "inputs": [
        {
          "name": "_cardTypeId",
          "type": "uint32"
        }
      ],
      "name": "buyCard",
      "outputs": [
        {
          "name": "",
          "type": "bool"
        }
      ],
      "payable": true,
      "stateMutability": "payable",
      "type": "function"
    },
    {
      "constant": false,
      "inputs": [],
      "name": "getBonusBoosters",
      "outputs": [],
      "payable": false,
      "stateMutability": "nonpayable",
      "type": "function"
    },
    {
      "constant": false,
      "inputs": [
        {
          "name": "_cardTypeId",
          "type": "uint32"
        }
      ],
      "name": "getFreeCard",
      "outputs": [],
      "payable": false,
      "stateMutability": "nonpayable",
      "type": "function"
    },
    {
      "constant": false,
      "inputs": [
        {
          "name": "_tokenId",
          "type": "uint256"
        }
      ],
      "name": "sacrifice",
      "outputs": [],
      "payable": false,
      "stateMutability": "nonpayable",
      "type": "function"
    },
    {
      "constant": false,
      "inputs": [
        {
          "name": "_amount",
          "type": "uint256"
        }
      ],
      "name": "buyBoosterCard",
      "outputs": [
        {
          "name": "",
          "type": "bool"
        }
      ],
      "payable": true,
      "stateMutability": "payable",
      "type": "function"
    },
    {
      "constant": false,
      "inputs": [],
      "name": "buyBoosterCardAndOpen",
      "outputs": [],
      "payable": true,
      "stateMutability": "payable",
      "type": "function"
    },
    {
      "constant": false,
      "inputs": [
        {
          "name": "czxpWager",
          "type": "uint256"
        }
      ],
      "name": "openBoosterCard",
      "outputs": [
        {
          "name": "",
          "type": "bool"
        }
      ],
      "payable": false,
      "stateMutability": "nonpayable",
      "type": "function"
    },
    {
      "constant": false,
      "inputs": [
        {
          "name": "mySponsor",
          "type": "address"
        }
      ],
      "name": "linkMySponsor",
      "outputs": [],
      "payable": false,
      "stateMutability": "nonpayable",
      "type": "function"
    },
    {
      "constant": true,
      "inputs": [
        {
          "name": "_player",
          "type": "address"
        }
      ],
      "name": "getTimeToDailyBonus",
      "outputs": [
        {
          "name": "timeStamp",
          "type": "uint256"
        }
      ],
      "payable": false,
      "stateMutability": "view",
      "type": "function"
    },
    {
      "constant": false,
      "inputs": [],
      "name": "withdraw",
      "outputs": [],
      "payable": false,
      "stateMutability": "nonpayable",
      "type": "function"
    }
  ],
  "bytecode": "0x60c0604052601b60808190527f68747470733a2f2f63727970746f7a2e63617264732f646174612f000000000060a090815262000040916001919062000337565b506000600b556040805160808101825260018152600260208201526003918101919091526004606082018190526200007b91600c91620003bc565b5060408051608081018252600181526002602082015260069181019190915260186060820152620000b1906010906004620003bc565b5060408051808201909152600d8082527f43727970746f7a204361726473000000000000000000000000000000000000006020909201918252620000f89160229162000337565b506040805180820190915260078082527f43727970746f7a0000000000000000000000000000000000000000000000000060209092019182526200013f9160239162000337565b506040805160e081018252600080825260208201819052918101829052606081018290526080810182905260a0810182905260c081019190915262000189906029906007620003f2565b503480156200019757600080fd5b5060405162003f7038038062003f7083398181016040526020811015620001bd57600080fd5b5051600080546001600160a01b03191633178082556040516001600160a01b039190911691907f8be0079c531659141344cd1fd0a4f28419497f9722a3daafe3b4186f6b6457e0908290a36200023c7f01ffc9a7000000000000000000000000000000000000000000000000000000006001600160e01b03620002ca16565b620002707f80ac58cd000000000000000000000000000000000000000000000000000000006001600160e01b03620002ca16565b620002a47f780e9d63000000000000000000000000000000000000000000000000000000006001600160e01b03620002ca16565b600a80546001600160a01b0319166001600160a01b039290921691909117905562000447565b7fffffffff000000000000000000000000000000000000000000000000000000008082161415620002fa57600080fd5b7fffffffff00000000000000000000000000000000000000000000000000000000166000908152601960205260409020805460ff19166001179055565b828054600181600116156101000203166002900490600052602060002090601f016020900481019282601f106200037a57805160ff1916838001178555620003aa565b82800160010185558215620003aa579182015b82811115620003aa5782518255916020019190600101906200038d565b50620003b892915062000427565b5090565b8260048101928215620003aa579160200282015b82811115620003aa578251829060ff16905591602001919060010190620003d0565b8260078101928215620003aa5791602002820182811115620003aa578251829060ff16905591602001919060010190620003d0565b6200044491905b80821115620003b857600081556001016200042e565b90565b613b1980620004576000396000f3fe6080604052600436106102725760003560e01c80638462151c1161014f578063afa61541116100c1578063d42198e61161007a578063d42198e614610d28578063e178e05114610d45578063e985e9c514610d6f578063f2fde38b14610daa578063f8ae951114610ddd578063fc7f0fec14610e1057610272565b8063afa6154114610b65578063b4a1676914610bad578063b88d4fde14610bd7578063c87b56dd14610ca8578063d057570814610cd2578063d35590c214610cf557610272565b80638f32d59b116101135780638f32d59b14610a54578063912fdfcb14610a69578063918923c414610a9c57806395d89b4114610ac6578063a22cb46514610adb578063a47ed2e714610b1657610272565b80638462151c146108245780638adb7086146108a75780638b58c569146109005780638da5cb5b146109405780638e7a59131461095557610272565b80634d3e2e5e116101e857806370a08231116101ac57806370a0823114610746578063715018a6146107795780637752f4871461078e5780637bbbe390146107c15780637f276455146107d657806381cbd203146107eb57610272565b80634d3e2e5e146106535780634f27f6261461067d5780634f6ccce7146106a75780636352211e146106d1578063692170c2146106fb57610272565b806318160ddd1161023a57806318160ddd1461040757806323b872dd1461042e5780632f745c59146104715780633ccfd60b146104aa57806342842e0e146104bf57806342ed1d291461050257610272565b806301ffc9a71461028457806306fdde03146102cc578063081812fc14610356578063095ea7b31461039c57806316b93be8146103d7575b34801561027e57600080fd5b50600080fd5b34801561029057600080fd5b506102b8600480360360208110156102a757600080fd5b50356001600160e01b031916610e18565b604080519115158252519081900360200190f35b3480156102d857600080fd5b506102e1610e3b565b6040805160208082528351818301528351919283929083019185019080838360005b8381101561031b578181015183820152602001610303565b50505050905090810190601f1680156103485780820380516001836020036101000a031916815260200191505b509250505060405180910390f35b34801561036257600080fd5b506103806004803603602081101561037957600080fd5b5035610ed2565b604080516001600160a01b039092168252519081900360200190f35b3480156103a857600080fd5b506103d5600480360360408110156103bf57600080fd5b506001600160a01b038135169060200135610f02565b005b3480156103e357600080fd5b506103d5600480360360208110156103fa57600080fd5b503563ffffffff16610faf565b34801561041357600080fd5b5061041c6111e4565b60408051918252519081900360200190f35b34801561043a57600080fd5b506103d56004803603606081101561045157600080fd5b506001600160a01b038135811691602081013590911690604001356111ea565b34801561047d57600080fd5b5061041c6004803603604081101561049457600080fd5b506001600160a01b038135169060200135611240565b3480156104b657600080fd5b506103d561128d565b3480156104cb57600080fd5b506103d5600480360360608110156104e257600080fd5b506001600160a01b038135811691602081013590911690604001356112ce565b34801561050e57600080fd5b506105326004803603602081101561052557600080fd5b503563ffffffff166112ee565b604051808a63ffffffff1663ffffffff16815260200180602001806020018981526020018881526020018781526020018681526020018581526020018460ff1660ff16815260200183810383528b818151815260200191508051906020019080838360005b838110156105af578181015183820152602001610597565b50505050905090810190601f1680156105dc5780820380516001836020036101000a031916815260200191505b5083810382528a5181528a516020918201918c019080838360005b8381101561060f5781810151838201526020016105f7565b50505050905090810190601f16801561063c5780820380516001836020036101000a031916815260200191505b509b50505050505050505050505060405180910390f35b34801561065f57600080fd5b5061041c6004803603602081101561067657600080fd5b503561145b565b34801561068957600080fd5b506102b8600480360360208110156106a057600080fd5b503561146f565b3480156106b357600080fd5b5061041c600480360360208110156106ca57600080fd5b5035611512565b3480156106dd57600080fd5b50610380600480360360208110156106f457600080fd5b5035611546565b34801561070757600080fd5b506102b8600480360360a081101561071e57600080fd5b50803563ffffffff16906020810135906040810135906060810135906080013560ff1661156e565b34801561075257600080fd5b5061041c6004803603602081101561076957600080fd5b50356001600160a01b031661173a565b34801561078557600080fd5b506103d5611770565b34801561079a57600080fd5b5061041c600480360360208110156107b157600080fd5b50356001600160a01b03166117cb565b3480156107cd57600080fd5b506103d56117dd565b3480156107e257600080fd5b5061041c611835565b3480156107f757600080fd5b506102b86004803603604081101561080e57600080fd5b506001600160a01b03813516906020013561183b565b34801561083057600080fd5b506108576004803603602081101561084757600080fd5b50356001600160a01b031661185b565b60408051602080825283518183015283519192839290830191858101910280838360005b8381101561089357818101518382015260200161087b565b505050509050019250505060405180910390f35b3480156108b357600080fd5b506108d1600480360360208110156108ca57600080fd5b50356118bc565b6040805161ffff9586168152938516602085015291841683830152909216606082015290519081900360800190f35b34801561090c57600080fd5b5061092a6004803603602081101561092357600080fd5b50356119d2565b6040805160ff9092168252519081900360200190f35b34801561094c57600080fd5b506103806119e7565b34801561096157600080fd5b506102b8600480360361012081101561097957600080fd5b60ff8235169190810190604081016020820135600160201b81111561099d57600080fd5b8201836020820111156109af57600080fd5b803590602001918460018302840111600160201b831117156109d057600080fd5b919390929091602081019035600160201b8111156109ed57600080fd5b8201836020820111156109ff57600080fd5b803590602001918460018302840111600160201b83111715610a2057600080fd5b919350915060ff813581169160208101358216916040820135169061ffff6060820135169060808101359060a001356119f6565b348015610a6057600080fd5b506102b8611ba5565b348015610a7557600080fd5b506103d560048036036020811015610a8c57600080fd5b50356001600160a01b0316611bb6565b348015610aa857600080fd5b5061041c60048036036020811015610abf57600080fd5b5035611c08565b348015610ad257600080fd5b506102e1611c26565b348015610ae757600080fd5b506103d560048036036040811015610afe57600080fd5b506001600160a01b0381351690602001351515611c87565b348015610b2257600080fd5b50610b4060048036036020811015610b3957600080fd5b5035611d0b565b6040805163ffffffff9094168452602084019290925282820152519081900360600190f35b348015610b7157600080fd5b50610b7a611d95565b604080519687526020870195909552858501939093526060850191909152608084015260a0830152519081900360c00190f35b348015610bb957600080fd5b5061041c60048036036020811015610bd057600080fd5b5035611db3565b348015610be357600080fd5b506103d560048036036080811015610bfa57600080fd5b6001600160a01b03823581169260208101359091169160408201359190810190608081016060820135600160201b811115610c3457600080fd5b820183602082011115610c4657600080fd5b803590602001918460018302840111600160201b83111715610c6757600080fd5b91908080601f016020809104026020016040519081016040528093929190818152602001838380828437600092019190915250929550611dc5945050505050565b348015610cb457600080fd5b506102e160048036036020811015610ccb57600080fd5b5035611de5565b6102b860048036036020811015610ce857600080fd5b503563ffffffff16611e86565b348015610d0157600080fd5b5061038060048036036020811015610d1857600080fd5b50356001600160a01b0316612276565b6102b860048036036020811015610d3e57600080fd5b5035612291565b348015610d5157600080fd5b506103d560048036036020811015610d6857600080fd5b50356122fd565b348015610d7b57600080fd5b506102b860048036036040811015610d9257600080fd5b506001600160a01b0381358116916020013516612307565b348015610db657600080fd5b506103d560048036036020811015610dcd57600080fd5b50356001600160a01b0316612335565b348015610de957600080fd5b5061041c60048036036020811015610e0057600080fd5b50356001600160a01b031661234f565b6103d5612396565b6001600160e01b0319811660009081526019602052604090205460ff165b919050565b60228054604080516020601f6002600019610100600188161502019095169490940493840181900481028201810190925282815260609390929091830182828015610ec75780601f10610e9c57610100808354040283529160200191610ec7565b820191906000526020600020905b815481529060010190602001808311610eaa57829003601f168201915b505050505090505b90565b6000610edd826123fd565b610ee657600080fd5b506000908152601b60205260409020546001600160a01b031690565b6000610f0d82611546565b9050806001600160a01b0316836001600160a01b03161415610f2e57600080fd5b336001600160a01b0382161480610f4a5750610f4a8133612307565b610f5357600080fd5b6000828152601b602052604080822080546001600160a01b0319166001600160a01b0387811691821790925591518593918516917f8c5be1e5ebec7d5bd14f71427d1e84f3dd0314c0f7b2291e5b200ac8c7c3b92591a4505050565b63ffffffff80821660008181526007602052604090205483921614610fd357600080fd5b63ffffffff8116600090815260036020526040902054600160ff90911610610ffa57600080fd5b63ffffffff821660009081526003602052604090205460ff161561101d57600080fd5b63ffffffff8216600090815260096020908152604080832054600590925290912054600190910161ffff9091161161105457600080fd5b33600090815260306020908152604080832063ffffffff8616845290915290205460ff161561108257600080fd5b600a54604080516370a0823160e01b815233600482015290516000926001600160a01b0316916370a08231916024808301926020929190829003018186803b1580156110cd57600080fd5b505afa1580156110e1573d6000803e3d6000fd5b505050506040513d60208110156110f757600080fd5b505163ffffffff84166000908152600760208190526040909120015490915081101561112257600080fd5b63ffffffff83166000908152600760205260409020600301541561114557600080fd5b63ffffffff831660009081526007602052604090206004015461116990339061241a565b63ffffffff831660009081526007602052604090206004015461118b9061248b565b63ffffffff83166000908152600760205260409020600401546111b19084903390612538565b505033600090815260306020908152604080832063ffffffff909516835293905291909120805460ff1916600117905550565b60265490565b6111f433826127b9565b6111fd57600080fd5b611208838383612818565b61123a60016006838154811061121a57fe5b90600052602060002090600302016002015461283790919063ffffffff16565b50505050565b600061124b8361173a565b821061125657600080fd5b6001600160a01b038316600090815260246020526040902080548390811061127a57fe5b9060005260206000200154905092915050565b611295611ba5565b61129e57600080fd5b6040513390303180156108fc02916000818181858888f193505050501580156112cb573d6000803e3d6000fd5b50565b6112e983838360405180602001604052806000815250611dc5565b505050565b6007602090815260009182526040918290208054600180830180548651600261010094831615949094026000190190911692909204601f810186900486028301860190965285825263ffffffff9092169492939092908301828280156113955780601f1061136a57610100808354040283529160200191611395565b820191906000526020600020905b81548152906001019060200180831161137857829003601f168201915b50505060028085018054604080516020601f60001961010060018716150201909416959095049283018590048502810185019091528181529596959450909250908301828280156114275780601f106113fc57610100808354040283529160200191611427565b820191906000526020600020905b81548152906001019060200180831161140a57829003601f168201915b5050506003840154600485015460058601546006870154600788015460089098015496979396929550909350919060ff1689565b6029816007811061146857fe5b0154905081565b3360009081526033602052604081205461148857600080fd5b336000908152603360205260409020546114a990600163ffffffff61285016565b336000908152603360205260408120919091556114c583612865565b90506114d0816128e7565b6040805160ff83168152905133917f66e021f2e6bf1b4f79e6e5622acffc29c6230663c0432ac8c08a5edcb1f23382919081900360200190a250600192915050565b600061151c6111e4565b821061152757600080fd5b6026828154811061153457fe5b90600052602060002001549050919050565b6000818152601a60205260408120546001600160a01b03168061156857600080fd5b92915050565b6000611578611ba5565b61158157600080fd5b63ffffffff8616600090815260076020526040902060050154156115a457600080fd5b63ffffffff8616600090815260076020526040902060060154156115c757600080fd5b63ffffffff861660009081526007602081905260409091200154156115eb57600080fd5b63ffffffff861660009081526007602052604090206008015460ff161561161157600080fd5b63ffffffff8087166000818152600760205260409020549091161461163557600080fd5b63ffffffff86166000818152600760208181526040808420600581018b9055600681018a905580840189905560088101805460ff8a1660ff199091161790556009835281852094909455918152815181815260019384018054600295811615610100026000190116949094049181018290527f566651c26d6867f4a0341c33295b297504f1f8445ef05b6a80d7faa24280cd2e939290918291820190849080156117205780601f106116f557610100808354040283529160200191611720565b820191906000526020600020905b81548152906001019060200180831161170357829003601f168201915b50509250505060405180910390a250600195945050505050565b60006001600160a01b03821661174f57600080fd5b6001600160a01b0382166000908152601c602052604090206115689061295a565b611778611ba5565b61178157600080fd5b600080546040516001600160a01b03909116907f8be0079c531659141344cd1fd0a4f28419497f9722a3daafe3b4186f6b6457e0908390a3600080546001600160a01b0319169055565b60336020526000908152604090205481565b6117e63361234f565b42116117f157600080fd5b33600090815260326020908152604080832061708042019055603390915290205461182390600263ffffffff61283716565b33600090815260336020526040902055565b60085490565b603060209081526000928352604080842090915290825290205460ff1681565b60606118668261295e565b8054806020026020016040519081016040528092919081815260200182805480156118b057602002820191906000526020600020905b81548152602001906001019080831161189c575b50505050509050919050565b6000808080805b600481101561192757601081600481106118d957fe5b01546118e487612978565b600c83600481106118f157fe5b01546118fc89612978565b0a8161190457fe5b048161190c57fe5b046064026014826004811061191d57fe5b01556001016118c3565b5060175460165460155460145401010160005b600481101561199e57816014826004811061195157fe5b0154612710028161195e57fe5b046018826004811061196c57fe5b601091828204019190066002026101000a81548161ffff021916908361ffff160217905550808060010191505061193a565b505060185461ffff8082169762010000830482169750600160201b8304821696506601000000000000909204169350915050565b60046020526000908152604090205460ff1681565b6000546001600160a01b031690565b6000611a00611ba5565b611a0957600080fd5b6008546113881015611a1a57600080fd5b60ff8c1660009081526007602052604090205463ffffffff1615611a3d57600080fd5b60ff8c166000818152600760205260409020805463ffffffff19169091178155611a6b906001018c8c6138dc565b5060ff8c166000908152600760205260409020611a8c906002018a8a6138dc565b5060ff8c81166000908152600260209081526040808320805460ff199081168d8716179091556003808452828520805483168d881690811790915560048086528487208054909416978d169790971790925560058452828520805461ffff191661ffff8c161790556007909352922090810186905590910183905560011415611b5b5760ff85811660009081526034602090815260408220805460018101825590835291206008820401805463ffffffff60079093166004026101000a9283021916928f169091029190911790555b50600880546001818101835560009290925260ff8d167ff3f7a9fe364faab93b216da50a3214154f22a0a2b415b23a84c8169e8b636ee3909101559b9a5050505050505050505050565b6000546001600160a01b0316331490565b336000908152603160205260409020546001600160a01b031615611bd957600080fd5b33600090815260316020526040902080546001600160a01b0319166001600160a01b0392909216919091179055565b60088181548110611c1557fe5b600091825260209091200154905081565b60238054604080516020601f6002600019610100600188161502019095169490940493840181900481028201810190925282815260609390929091830182828015610ec75780601f10610e9c57610100808354040283529160200191610ec7565b6001600160a01b038216331415611c9d57600080fd5b336000818152601d602090815260408083206001600160a01b03871680855290835292819020805460ff1916861515908117909155815190815290519293927f17307eab39ab6107e8899845ad3d59bd9653f200f220920489ca2b5937696c31929181900390910190a35050565b6000806000611d19846123fd565b611d2257600080fd5b60068481548110611d2f57fe5b60009182526020909120600390910201546006805463ffffffff9092169186908110611d5757fe5b90600052602060002090600302016001015460068681548110611d7657fe5b9060005260206000209060030201600201549250925092509193909250565b602a54602b54602c54602d54602e54602f5494959394929391929091565b60096020526000908152604090205481565b611dd08484846111ea565b611ddc84848484612994565b61123a57600080fd5b60018054604080516020600284861615610100026000190190941693909304601f81018490048402820184019092528181526060936115689391929091830182828015611e735780601f10611e4857610100808354040283529160200191611e73565b820191906000526020600020905b815481529060010190602001808311611e5657829003601f168201915b5050505050611e8184612ac7565b612b88565b63ffffffff80821660008181526007602052604081205490928492911614611ead57600080fd5b63ffffffff8116600090815260036020526040902054600160ff90911610611ed457600080fd5b60003411611ee157600080fd5b63ffffffff80841660008181526007602052604090205490911614611f0557600080fd5b611f0d61395a565b63ffffffff84811660009081526007602090815260409182902082516101208101845281549094168452600180820180548551600261010094831615949094026000190190911692909204601f8101859004850283018501909552848252919385840193919291830182828015611fc55780601f10611f9a57610100808354040283529160200191611fc5565b820191906000526020600020905b815481529060010190602001808311611fa857829003601f168201915b5050509183525050600282810180546040805160206001841615610100026000190190931694909404601f810183900483028501830190915280845293810193908301828280156120575780601f1061202c57610100808354040283529160200191612057565b820191906000526020600020905b81548152906001019060200180831161203a57829003601f168201915b505050918352505060038281015460208084019190915260048401546040808501919091526005850154606085015260068501546080850152600785015460a085015260089094015460ff90811660c09094019390935263ffffffff89166000908152919052919091205491925016156120d057600080fd5b33600090815260306020908152604080832063ffffffff8816845290915290205460ff16156120fe57600080fd5b63ffffffff8416600090815260096020908152604080832054600590925290912054600190910161ffff9091161161213557600080fd5b806060015134101561214657600080fd5b600a54604080516370a0823160e01b815233600482015290516000926001600160a01b0316916370a08231916024808301926020929190829003018186803b15801561219157600080fd5b505afa1580156121a5573d6000803e3d6000fd5b505050506040513d60208110156121bb57600080fd5b505160e08301519091508110156121d157600080fd5b63ffffffff85166000908152600760205260409020600401546121f590339061241a565b63ffffffff85166000908152600760205260409020600401546122179061248b565b63ffffffff851660009081526007602052604090206004015461223d9086903390612538565b505033600090815260306020908152604080832063ffffffff881684529091529020805460ff1916600190811790915592505050919050565b6031602052600090815260409020546001600160a01b031681565b60008166071afd498d0000023410156122a957600080fd5b336000908152603360205260409020546122c9908363ffffffff61283716565b336000818152603360205260409020919091556122e9906078840261241a565b6122f58260780261248b565b506001919050565b6112cb3382612bc4565b6001600160a01b039182166000908152601d6020908152604080832093909416825291909152205460ff1690565b61233d611ba5565b61234657600080fd5b6112cb81612e30565b6001600160a01b03811660009081526032602052604081205461237757506001194201610e36565b506001600160a01b038116600090815260326020526040902054610e36565b66071afd498d00003410156123aa57600080fd5b336000908152603360205260409020546123cb90600163ffffffff61283716565b336000818152603360205260409020919091556123e990607861241a565b6123f3607861248b565b6112cb600061146f565b6000908152601a60205260409020546001600160a01b0316151590565b600a54604080516360fa676760e01b81526001600160a01b03858116600483015260248201859052915191909216916360fa676791604480830192600092919082900301818387803b15801561246f57600080fd5b505af1158015612483573d6000803e3d6000fd5b505050505050565b336000908152603160205260409020546001600160a01b0316156112cb5760148104806124b6575060015b336000908152603160205260409020546124d9906001600160a01b03168261241a565b336000818152603160209081526040918290205482516001600160a01b0391909116815290810192909252818101839052517e3da85d6058444eca57e3b88be14c734f4f239affe28b7629966e318de2a90e9181900360600190a15050565b63ffffffff8084166000818152600760205260408120549092161461255c57600080fd5b63ffffffff8085166000908152600960205260409020546125809160019061283716565b63ffffffff851660009081526009602052604090205561259e6139af565b506040805160608101825263ffffffff8681168083526000908152600960209081528482205490840190815293830181815260068054600181018255925283517ff652222313e28459528d920b65115c16c04f3efc82aaedc97be59f3f377c0d3f60038402908101805463ffffffff1916929095169190911790935593517ff652222313e28459528d920b65115c16c04f3efc82aaedc97be59f3f377c0d4083015592517ff652222313e28459528d920b65115c16c04f3efc82aaedc97be59f3f377c0d4190910155906126728582612e9e565b60018054604080516020600284861615610100026000190190941693909304601f8101849004840282018401909252818152612709938593919290918301828280156126ff5780601f106126d4576101008083540402835291602001916126ff565b820191906000526020600020905b8154815290600101906020018083116126e257829003601f168201915b5050505050612eed565b63ffffffff861660009081526004602052604090205460ff166029816007811061272f57fe5b015460010160298260ff166007811061274457fe5b015563ffffffff8716600081815260096020908152604080832054600483529281902054815193845260ff1691830191909152805185926001600160a01b038b16927fd56e3675590b3a0ffa7898c8a21c1dc687046d1a54c8d9d28c3e429e51f5670c92918290030190a45095945050505050565b6000806127c583611546565b9050806001600160a01b0316846001600160a01b031614806128005750836001600160a01b03166127f584610ed2565b6001600160a01b0316145b8061281057506128108185612307565b949350505050565b612823838383612f1e565b61282d8382612ffe565b6112e982826130f3565b60008282018381101561284957600080fd5b9392505050565b60008282111561285f57600080fd5b50900390565b60006605dc0000000bb882111561287b57600080fd5b6000612888612710613131565b90506128926139d6565b61289b84613189565b905060025b60078160ff1610156128dc57818160ff16600781106128bb57fe5b602002015161ffff1683116128d4579250610e36915050565b6001016128a0565b506006949350505050565b60ff811660009081526034602052604081205461290390613131565b60ff83166000908152603460205260408120805492935090918390811061292657fe5b90600052602060002090600891828204019190066004029054906101000a900463ffffffff16905061123a81336064612538565b5490565b6001600160a01b03166000908152601e6020526040902090565b600080612989620445c0840461323c565b600490049392505050565b60006129a8846001600160a01b03166133f9565b6129b457506001612810565b604051630a85bd0160e11b815233600482018181526001600160a01b03888116602485015260448401879052608060648501908152865160848601528651600095928a169463150b7a029490938c938b938b939260a4019060208501908083838e5b83811015612a2e578181015183820152602001612a16565b50505050905090810190601f168015612a5b5780820380516001836020036101000a031916815260200191505b5095505050505050602060405180830381600087803b158015612a7d57600080fd5b505af1158015612a91573d6000803e3d6000fd5b505050506040513d6020811015612aa757600080fd5b50516001600160e01b031916630a85bd0160e11b14915050949350505050565b606081612aec57506040805180820190915260018152600360fc1b6020820152610e36565b8160005b8115612b0457600101600a82049150612af0565b6060816040519080825280601f01601f191660200182016040528015612b31576020820181803883390190505b50905060001982015b8515612b7f57600a860660300160f81b82828060019003935081518110612b5d57fe5b60200101906001600160f81b031916908160001a905350600a86049550612b3a565b50949350505050565b606061284983836040518060200160405280600081525060405180602001604052806000815250604051806020016040528060008152506133ff565b612bce8282613613565b6000818152602860205260409020546002600019610100600184161502019091160415612c0c576000818152602860205260408120612c0c916139f4565b600081815260276020526040812054602654909190612c3290600163ffffffff61285016565b9050600060268281548110612c4357fe5b906000526020600020015490508060268481548110612c5e57fe5b9060005260206000200181905550600060268381548110612c7b57fe5b6000918252602090912001556026805490612c9a906000198301613a38565b5060008481526027602052604080822082905582825281208490556006805460019260299260049289908110612ccc57fe5b6000918252602080832060039092029091015463ffffffff16835282019290925260400190205460ff1660078110612d0057fe5b01540360296004600060068881548110612d1657fe5b6000918252602080832060039092029091015463ffffffff16835282019290925260400190205460ff1660078110612d4a57fe5b018190555060006007600060068781548110612d6257fe5b6000918252602080832060039092029091015463ffffffff1683528201929092526040019020600601549050612d98338261241a565b60068581548110612da557fe5b60009182526020918290206003909102015460408051848152905163ffffffff90921692889233927f5aa0c75e571d3ecae876f03a84d247806f1af6caf4f377701179de62b7095f1492908290030190a460068581548110612e0357fe5b600091825260208220600390910201805463ffffffff191681556001810182905560020155505050505050565b6001600160a01b038116612e4357600080fd5b600080546040516001600160a01b03808516939216917f8be0079c531659141344cd1fd0a4f28419497f9722a3daafe3b4186f6b6457e091a3600080546001600160a01b0319166001600160a01b0392909216919091179055565b612ea88282613643565b602680546000838152602760205260408120829055600182018355919091527f744a2cf8fd7008e3d53b67916e73460df9fa5214e3ef23dd4259ca09493a3594015550565b612ef6826123fd565b612eff57600080fd5b600082815260286020908152604090912082516112e992840190613a5c565b826001600160a01b0316612f3182611546565b6001600160a01b031614612f4457600080fd5b6001600160a01b038216612f5757600080fd5b612f6081613660565b6001600160a01b0383166000908152601c60205260409020612f819061369b565b6001600160a01b0382166000908152601c60205260409020612fa2906136b2565b6000818152601a602052604080822080546001600160a01b0319166001600160a01b0386811691821790925591518493918716917fddf252ad1be2c89b69c2b068fc378daa952ba7f163c4a11628f55a4df523b3ef91a4505050565b6001600160a01b0382166000908152601e602052604081205461302890600163ffffffff61285016565b6000838152601f60205260409020549091508082146130c3576001600160a01b0384166000908152601e6020526040812080548490811061306557fe5b9060005260206000200154905080601e6000876001600160a01b03166001600160a01b0316815260200190815260200160002083815481106130a357fe5b6000918252602080832090910192909255918252601f9052604090208190555b6001600160a01b0384166000908152601e602052604090208054906130ec906000198301613a38565b5050505050565b6001600160a01b039091166000908152601e602081815260408084208054868652601f84529185208290559282526001810183559183529091200155565b600b5460408051426020808301919091523360601b828401526054808301949094528251808303909401845260749091019091528151910120600090819083908161317857fe5b600b80546001019055069392505050565b6131916139d6565b816131d757506040805160e081018252600080825260208201819052918101919091526001606082015260326080820152610a8c60a082015261271060c0820152610e36565b6000806000806131e6866118bc565b93509350935093506131f66139d6565b506040805160e0810182526000808252602082018190529181019190915261ffff9182166060820152918116608083015291821660a0820152911660c082015292915050565b604080517ff8f9cbfae6cc78fbefe7cdc3a1793dfcf4f0e8bbd8cec470b6a28a7a5a3e1efd81527ff5ecf1b3e9debc68e1d9cfabc5997135bfb7a7a3938b7b606b5b4b3f2f1f0ffe60208201527ff6e4ed9ff2d6b458eadcdf97bd91692de2d4da8fd2d0ac50c6ae9a8272523616818301527fc8c0b887b0a8a4489c948c7f847c6125746c645c544c444038302820181008ff60608201527ff7cae577eec2a03cf3bad76fb589591debb2dd67e0aa9834bea6925f6a4a2e0e60808201527fe39ed557db96902cd38ed14fad815115c786af479b7e8324736353433727170760a08201527fc976c13bb96e881cb166a933a55e490d9d56952b8d4e801485467d236242260660c08201527f753a6d1b65325d0c552a4d1345224105391a310b29122104190a11030902010060e0820152610100808201909252600160f81b6001600160801b68010000000000000000600160201b620100006010600460026000198c019081041790810417908104178881041790810417908104179081041790810417017e818283848586878898a8b8c8d8e8f929395969799a9b9d9e9faaeb6bedeeff0281900460ff039091015104600160ff1b909211020190565b3b151590565b6060808690506060869050606086905060608690506060869050606081518351855187518951010101016040519080825280601f01601f191660200182016040528015613453576020820181803883390190505b509050806000805b88518110156134ac5788818151811061347057fe5b602001015160f81c60f81b83838060010194508151811061348d57fe5b60200101906001600160f81b031916908160001a90535060010161345b565b5060005b8751811015613501578781815181106134c557fe5b602001015160f81c60f81b8383806001019450815181106134e257fe5b60200101906001600160f81b031916908160001a9053506001016134b0565b5060005b86518110156135565786818151811061351a57fe5b602001015160f81c60f81b83838060010194508151811061353757fe5b60200101906001600160f81b031916908160001a905350600101613505565b5060005b85518110156135ab5785818151811061356f57fe5b602001015160f81c60f81b83838060010194508151811061358c57fe5b60200101906001600160f81b031916908160001a90535060010161355a565b5060005b8451811015613600578481815181106135c457fe5b602001015160f81c60f81b8383806001019450815181106135e157fe5b60200101906001600160f81b031916908160001a9053506001016135af565b50909d9c50505050505050505050505050565b61361d82826136bb565b6136278282612ffe565b6000818152601f602052604081205561363f81613760565b5050565b61364d82826137f8565b61365782826130f3565b61363f81613899565b6000818152601b60205260409020546001600160a01b0316156112cb576000908152601b6020526040902080546001600160a01b0319169055565b80546136ae90600163ffffffff61285016565b9055565b80546001019055565b816001600160a01b03166136ce82611546565b6001600160a01b0316146136e157600080fd5b6136ea81613660565b6001600160a01b0382166000908152601c6020526040902061370b9061369b565b6000818152601a602052604080822080546001600160a01b0319169055518291906001600160a01b038516907fddf252ad1be2c89b69c2b068fc378daa952ba7f163c4a11628f55a4df523b3ef908390a45050565b60205460009061377790600163ffffffff61285016565b60008381526021602090815260408220548154939450928490811061379857fe5b9060005260206000200154905080602083815481106137b357fe5b600091825260208083209091019290925582815260218252604090208390558054906137e3906000198301613a38565b50505060009182525060216020526040812055565b6001600160a01b03821661380b57600080fd5b613814816123fd565b1561381e57600080fd5b6000818152601a6020908152604080832080546001600160a01b0319166001600160a01b0387169081179091558352601c909152902061385d906136b2565b60405181906001600160a01b038416906000907fddf252ad1be2c89b69c2b068fc378daa952ba7f163c4a11628f55a4df523b3ef908290a45050565b6020805460008381526021835260408120829055600182018355919091527fc97bfaf2f8ee708c303a06d134f5ecd8389ae0432af62dc132a24118292866bb0155565b828054600181600116156101000203166002900490600052602060002090601f016020900481019282601f1061391d5782800160ff1982351617855561394a565b8280016001018555821561394a579182015b8281111561394a57823582559160200191906001019061392f565b50613956929150613aca565b5090565b604051806101200160405280600063ffffffff16815260200160608152602001606081526020016000815260200160008152602001600081526020016000815260200160008152602001600060ff1681525090565b6040518060600160405280600063ffffffff16815260200160008152602001600081525090565b6040518060e001604052806007906020820280388339509192915050565b50805460018160011615610100020316600290046000825580601f10613a1a57506112cb565b601f0160209004906000526020600020908101906112cb9190613aca565b8154818355818111156112e9576000838152602090206112e9918101908301613aca565b828054600181600116156101000203166002900490600052602060002090601f016020900481019282601f10613a9d57805160ff191683800117855561394a565b8280016001018555821561394a579182015b8281111561394a578251825591602001919060010190613aaf565b610ecf91905b808211156139565760008155600101613ad056fea265627a7a72305820e6e79b880c49a2345652ccb092863294b45e4ce1981dd33f294b81f4ad346b8164736f6c63430005090032",
  "source": "pragma solidity ^0.5.9;\n\n/******************************************\n\nOur Matra our Motto for coding The Cryptoz Universe.buy\n\n      Fail EARLY and Fail LOUD !!!!!!!\n\n1.    First - Check all pre-conditions\n2.    Then  - make changes to contract state\n3.    Final - interact with other contracts\n\nPull funds over pushing them\nPlatform limits like max of 1023 loop interations.\n\nall Events start with Log\n\n******************************************/\n\nimport \"./CryptozCard.sol\";\n\ncontract Cryptoz is CryptozCard{\n    \n//Constants\n    uint constant private weiCostOfCard = 2000000000000000; //booster in wei = 0.002 ETH\n    uint constant private czxpGainedBoosterPurchase = 120;\n    uint constant private maxCardTypes = 5000; //allowed types in the Universe\n\n//Event Logs\n    event LogCardTypeLoaded(uint32 indexed cardTypeId, string cardName);\n    event LogCardPurchased(uint32 indexed cardTypeId, uint editionNumber, address indexed buyer);\n    event LogPackOpened(address indexed buyer, uint packsOpened);\n    event LogSponsorLinked(address sponsor, address affiliate);\n    event LogSponsorReward(address sponsor, address affiliate, uint CzxpReward);\n\n//storage\n\n    //Tracking affiliate sponsors\n    mapping(address => address) public sponsors; // 1 sponsor can have many affiliates, but only 1 sponsor, returns sponsor\n    \n    //Track the timestamps for users to get their daily pull\n    mapping(address => uint) private timeToCardsPull; //address to timestamp\n    \n    //Tracking booster pack count ownership. These are NOT tokens, just a counter for fun, not really\n    mapping (address => uint256) public boosterPacksOwned;\n    \n    //where we hold inventory of the  booster packs\n    mapping(uint8 => uint32[]) private allBoosterCardIds; // [rarityId][cardId]\n    \n    //check if cardType exists\n    modifier isValidCard(uint32 _cardTypeId) {\n//TIGHTEN   //Make sure cardType exists and we dont have bad data coming in\n        require(allCardTypes[_cardTypeId].cardTypeId == _cardTypeId);\n        require(storeBoosterBonus[_cardTypeId] < 1); //you cant get cards marked for booster pack or bonus\n        _;\n    }\n    \n    \n    function() external {\n        revert();\n    }\n    \n    //Set our cxzp contract in the constructor\n    constructor(address payable _czxpContractAddress) public {\n        CzxpContractAddress_ = _czxpContractAddress;\n    }\n\n    function loadNewCardType(\n            uint8 _cardTypeId,\n            string calldata _name,\n            string calldata _set,\n            uint8 _assetType,\n            uint8 _notStoreOrBonus,\n            uint8 _rarity,\n            uint16 _totalAvailable,\n            uint256 _weiCost,\n            uint256 _buyCzxp\n        ) external onlyOwner returns(bool){\n            \n        //what requires should we add ?\n        \n        //a max. of 5000 types in the universe ever\n        require(cardTypesIds.length <= maxCardTypes);\n        \n        //not allowed to update existing cardTypeIds\n        require(allCardTypes[_cardTypeId].cardTypeId == 0);\n        \n        allCardTypes[_cardTypeId].cardTypeId    = _cardTypeId;\n        allCardTypes[_cardTypeId].name          = _name;\n        allCardTypes[_cardTypeId].set           = _set;\n        cardAssetType[_cardTypeId]              = _assetType;\n        storeBoosterBonus[_cardTypeId]          = _notStoreOrBonus;\n        rarity[_cardTypeId]                     = _rarity;\n        totalAvailable[_cardTypeId]             = _totalAvailable;\n        allCardTypes[_cardTypeId].weiCost       = _weiCost;\n        allCardTypes[_cardTypeId].buyCzxp       = _buyCzxp;\n    \n        //If she be booster worthy\n        if(_notStoreOrBonus == 1){ // 0=store,1=booster,2=bonus\n            allBoosterCardIds[_rarity].push(_cardTypeId);\n        }\n        \n        //Track the cardTypeIds count\n        cardTypesIds.push(_cardTypeId);\n        return true;\n    }\n\n    function addTocardType(\n                        uint32  _cardTypeId,\n                        uint256 _transferCzxp,\n                        uint256 _sacrificeCzxp,\n                        uint256 _unlockCzxp,\n                        uint8 _cardLevel\n                      ) external onlyOwner returns(bool){\n                          \n        //not allowed to update existing cardTypeIds\n        require(allCardTypes[_cardTypeId].transferCzxp == 0);\n        require(allCardTypes[_cardTypeId].sacrificeCzxp == 0);\n        require(allCardTypes[_cardTypeId].unlockCzxp == 0);\n        require(allCardTypes[_cardTypeId].cardLevel == 0);\n                          \n        require(allCardTypes[_cardTypeId].cardTypeId == _cardTypeId);\n        \n        \n        allCardTypes[_cardTypeId].transferCzxp  = _transferCzxp;\n        allCardTypes[_cardTypeId].sacrificeCzxp = _sacrificeCzxp;\n        allCardTypes[_cardTypeId].unlockCzxp    = _unlockCzxp;\n        allCardTypes[_cardTypeId].cardLevel     = _cardLevel;\n        \n        //initialize editionNumber\n        cardTypeToEdition[_cardTypeId] = 0;\n        \n        //Card type is defined, now emit a Log of it\n        emit LogCardTypeLoaded(_cardTypeId,allCardTypes[_cardTypeId].name);\n        return true;\n    }\n/**\n    /**\n     *  Public interface to purchase a card, probablly the most insecure entry point !\n     */\n    function buyCard(uint32 _cardTypeId) external payable isValidCard(_cardTypeId) returns(bool) {\n        \n        // dont even bother if no ETH sent\n        require(msg.value > 0);\n        \n        //check for valid cardType\n        require(allCardTypes[_cardTypeId].cardTypeId == _cardTypeId);\n        \n        cardType memory _tempCard = allCardTypes[_cardTypeId];\n        \n        //check if store only\n        require(storeBoosterBonus[_cardTypeId] == 0);\n        \n        //Can't buy cards you own\n        require(cardTypesOwned[msg.sender][_cardTypeId] == false);\n         \n        //Check if this card amount we sell is more than edition+1 for this card type\n        require((totalAvailable[_cardTypeId] > cardTypeToEdition[_cardTypeId] + 1 ));\n        \n        //check if they have paid enough for it\n        require(msg.value >= _tempCard.weiCost);\n        \n        //check if we have enough czxp to unlock this card\n        uint czxp = CzxpToken(CzxpContractAddress_).balanceOf(msg.sender);\n        require(czxp >= _tempCard.unlockCzxp);\n        \n    //Clear ? to buy the card\n        \n        //Let the universe award our friend\n        super.awardCzxp(msg.sender, allCardTypes[_cardTypeId].buyCzxp);\n        \n        //and award their sponsor\n        rewardAffiliate(allCardTypes[_cardTypeId].buyCzxp);\n    \n        //Mint the real token and pass czxp gained for logging\n        super._createCard(_cardTypeId, msg.sender,allCardTypes[_cardTypeId].buyCzxp);\n        \n        //Track the type of card puchased for this owner, so they cant buy again\n        cardTypesOwned[msg.sender][_cardTypeId] = true;\n        \n        return true;\n    }\n    \n    //every 8 hours, the address can get 2 free booster cards\n    function getBonusBoosters() external {\n        //this only runs if time to get new cards\n        require(now > getTimeToDailyBonus(msg.sender));\n        //update the lastpull value\n        timeToCardsPull[msg.sender] = now + 8 hours;\n        boosterPacksOwned[msg.sender] = boosterPacksOwned[msg.sender].add(2);\n    }\n    \n    /**\n     *  Public interface to get card at no cost\n     */\n    function getFreeCard(uint32 _cardTypeId) external isValidCard(_cardTypeId) {\n        //check if store only\n        require(storeBoosterBonus[_cardTypeId] == 0);\n        \n        // ensure there is enough of a supply left\n        require(totalAvailable[_cardTypeId] > (cardTypeToEdition[_cardTypeId]+1));\n        \n        //Can't get cards From shop that you own\n        require(cardTypesOwned[msg.sender][_cardTypeId] == false);\n        \n        //check if we have enough czxp to unlock this card\n        uint czxp = CzxpToken(CzxpContractAddress_).balanceOf(msg.sender);\n        require(czxp >= allCardTypes[_cardTypeId].unlockCzxp);\n        \n        //Only cards that are Free\n        require(allCardTypes[_cardTypeId].weiCost == 0);\n\n//ALL CLEAR ???????? claim a new card\n    \n        //Let the universe award our friend\n        super.awardCzxp(msg.sender, allCardTypes[_cardTypeId].buyCzxp);\n        \n        rewardAffiliate(allCardTypes[_cardTypeId].buyCzxp);\n    \n        super._createCard(_cardTypeId, msg.sender, allCardTypes[_cardTypeId].buyCzxp);\n        \n        //Track the type of card puchased for this owner, so they cant buy again\n        cardTypesOwned[msg.sender][_cardTypeId] = true;\n    }\n    \n    /**\n     *  Any user can sacrifice any card they own. Please don't burn down the universe :'(\n     */\n     function sacrifice(uint256 _tokenId) external {\n         //Call our internal burn function does all our owner checks\n         _burn(msg.sender, _tokenId);\n     }\n    \n//Booster Pack functions\n    \n    /**\n     *  Public interface to buy booster card(s)\n    */\n    function buyBoosterCard(uint _amount) payable external returns(bool) {\n        \n        // is there enough wei sent 1 pack = 0.002 ETH ?\n        require(msg.value >= weiCostOfCard * _amount);\n        \n        //All good increase the number owned\n        boosterPacksOwned[msg.sender] = boosterPacksOwned[msg.sender].add(_amount);\n\n        //Award czxp for booster\n        super.awardCzxp(msg.sender, uint(czxpGainedBoosterPurchase * _amount));\n        \n        rewardAffiliate(uint(czxpGainedBoosterPurchase * _amount));\n\n        return true;\n    }\n    \n    /**\n     *  Public interface to buy booster pack(s) and open them - NO burn option\n     */\n    function buyBoosterCardAndOpen() payable external {\n        // is there enough wei sent 1 pack = 0.005 ETH ?\n        require(msg.value >= weiCostOfCard);\n        \n        //All good increase the number owned\n        boosterPacksOwned[msg.sender] = boosterPacksOwned[msg.sender].add(1);\n\n        //Award czxp per pack\n        super.awardCzxp(msg.sender, czxpGainedBoosterPurchase);\n        \n        rewardAffiliate(czxpGainedBoosterPurchase);\n        \n        //Now open the pack\n        openBoosterCard(0);\n    }\n    \n    /**\n     *  Public interface to open already purchased booster pack(s) - User can wager an amount\n     */\n    function openBoosterCard(uint czxpWager) public returns(bool) {\n        //Ensure user owns unopened packs\n        require(boosterPacksOwned[msg.sender] > 0);\n        \n        //czxpWager check czxpWager\n        require(czxpWager >= 0);\n        \n        //decrement number of packs\n        boosterPacksOwned[msg.sender] = boosterPacksOwned[msg.sender].sub(1);\n        \n        //Pull the card\n        uint8 rarity = getRarity(czxpWager);\n        pullCard(rarity);\n        \n        //Send a log event\n        emit LogPackOpened(msg.sender, rarity);\n        return true;\n    }\n    \n    /**\n     * Public interface to allow a player to forever link their 1 sponsor \n     */\n    function linkMySponsor(address mySponsor) external {\n        //First ensure the sponsor isn't Linked\n        require(sponsors[msg.sender] == address(0));\n        \n        //All clear, set the association\n        sponsors[msg.sender] = mySponsor;\n        \n    }\n\n//Private\n\n    /**\n     * We always pay our affiliates 20% of the czxp\n     */\n     function rewardAffiliate(uint totalCZXP) private {\n         //first check if the caller has a sponsor\n         if(sponsors[msg.sender] != address(0)){\n             uint reward = totalCZXP / 20;\n             if(reward == 0){\n                 reward = 1;\n             }\n             super.awardCzxp(sponsors[msg.sender], reward);\n             emit LogSponsorReward(sponsors[msg.sender], msg.sender, reward);\n         }\n     } \n\n    /**\n     *\n     */\n     function pullCard(uint8 rarity) private {\n         \n         //Get a random number for the card to pull\n         uint rand = selectRandom(allBoosterCardIds[rarity].length);\n         \n         //hit up the cardTypes\n         uint32 pulledId = allBoosterCardIds[rarity][rand];\n         \n        //Give the player this cardTypes\n        super._createCard(pulledId, msg.sender, 100);\n     }\n    \n    /**\n     *  Private function to diceroll the rarity pull Only from booster packs\n     */\n    function getRarity(uint czxpWager) private returns(uint8){\n        \n        //Check if below upper limit\n        require(czxpWager <= 1649267441667000);\n        \n        //FIRST ensure, player can back their wager\n//uint _playerCZXPBalance = CzxpToken(CzxpContractAddress_).balanceOf(msg.sender);\n//require(_playerCZXPBalance >= czxpWager);\n        \n        //grab a random number\n        uint rand = selectRandom(10000);\n\n        //get our probabilty distribution\n        uint16[7] memory probs = burnAndBoost(czxpWager);\n        \n        //Get the rarity for this pull from the probs\n        // 3=epic, 4=rare, 5=uncommon, 6=commmon\n        for(uint8 i=2; i < probs.length; i++){\n            if(rand <= probs[i]){\n                return i;\n            }\n        }\n//REMOVE THIS !!!!\n        return 6;\n    }\n    \n    \n    /**\n     * Private Booster distribution function\n     */\n     function burnAndBoost(uint czxpWager) private returns(uint16[7] memory) {\n        \n        //buyBoosterCardAndOpen will pass a zero, set a default\n        if(czxpWager == 0){\n            return [0,0,0,1,50,2700,10000];\n        }\n         \n        (uint16 c, uint16 u, uint16 r, uint16 e) = super.getProbs(czxpWager);\n        \n        //default distribution is 1,50,2700,10000\n         uint16[7] memory probs = [0,0,0,e,r,u,c];\n         \n        return probs;\n     }\n     \n     /**\n      * Return the timestamp of the next daily bonus for a player\n      */\n      function getTimeToDailyBonus(address _player) public view returns(uint timeStamp){\n          \n          //check if address exists\n          if(timeToCardsPull[_player] == 0){\n              return now - 2 seconds;\n          }else{\n              return timeToCardsPull[_player]; \n          }\n      }\n\n\n//Thanks! for supporting the Cryptoz universe <3 <3 <3\n    /**\n    * Withdraw balance to wallet ONLY for the owner to call this \n    */\n   function withdraw() external onlyOwner {\n      msg.sender.transfer(address(this).balance);\n   }\n   \n}",
  "sourcePath": "/home/rprice/Downloads/cryptoz.cards/contracts/Cryptoz.sol",
  "compiler": {
    "name": "solc",
    "version": "0.5.9+commit.e560f70d.Emscripten.clang"
  },
  "schemaVersion": "3.0.11",
  "updatedAt": "2019-08-22T03:38:07.028Z",
  "devdoc": {
    "methods": {
      "approve(address,uint256)": {
        "details": "Approves another address to transfer the given token ID The zero address indicates there is no approved address. There can only be one approved address per token at a given time. Can only be called by the token owner or an approved operator.",
        "params": {
          "to": "address to be approved for the given token ID",
          "tokenId": "uint256 ID of the token to be approved"
        }
      },
      "balanceOf(address)": {
        "details": "Gets the balance of the specified address",
        "params": {
          "owner": "address to query the balance of"
        },
        "return": "uint256 representing the amount owned by the passed address"
      },
      "getApproved(uint256)": {
        "details": "Gets the approved address for a token ID, or zero if no address set Reverts if the token ID does not exist.",
        "params": {
          "tokenId": "uint256 ID of the token to query the approval of"
        },
        "return": "address currently approved for the given token ID"
      },
      "isApprovedForAll(address,address)": {
        "details": "Tells whether an operator is approved by a given owner",
        "params": {
          "operator": "operator address which you want to query the approval of",
          "owner": "owner address which you want to query the approval of"
        },
        "return": "bool whether the given operator is approved by the given owner"
      },
      "isOwner()": {
        "return": "true if `msg.sender` is the owner of the contract."
      },
      "name()": {
        "details": "Gets the token name",
        "return": "string representing the token name"
      },
      "owner()": {
        "return": "the address of the owner."
      },
      "ownerOf(uint256)": {
        "details": "Gets the owner of the specified token ID",
        "params": {
          "tokenId": "uint256 ID of the token to query the owner of"
        },
        "return": "address currently marked as the owner of the given token ID"
      },
      "renounceOwnership()": {
        "details": "Allows the current owner to relinquish control of the contract. It will not be possible to call the functions with the `onlyOwner` modifier anymore."
      },
      "safeTransferFrom(address,address,uint256)": {
        "details": "Safely transfers the ownership of a given token ID to another address If the target address is a contract, it must implement `onERC721Received`, which is called upon a safe transfer, and return the magic value `bytes4(keccak256(\"onERC721Received(address,address,uint256,bytes)\"))`; otherwise, the transfer is reverted. Requires the msg.sender to be the owner, approved, or operator",
        "params": {
          "from": "current owner of the token",
          "to": "address to receive the ownership of the given token ID",
          "tokenId": "uint256 ID of the token to be transferred"
        }
      },
      "safeTransferFrom(address,address,uint256,bytes)": {
        "details": "Safely transfers the ownership of a given token ID to another address If the target address is a contract, it must implement `onERC721Received`, which is called upon a safe transfer, and return the magic value `bytes4(keccak256(\"onERC721Received(address,address,uint256,bytes)\"))`; otherwise, the transfer is reverted. Requires the msg.sender to be the owner, approved, or operator",
        "params": {
          "_data": "bytes data to send along with a safe transfer check",
          "from": "current owner of the token",
          "to": "address to receive the ownership of the given token ID",
          "tokenId": "uint256 ID of the token to be transferred"
        }
      },
      "setApprovalForAll(address,bool)": {
        "details": "Sets or unsets the approval of a given operator An operator is allowed to transfer all tokens of the sender on their behalf",
        "params": {
          "approved": "representing the status of the approval to be set",
          "to": "operator address to set the approval"
        }
      },
      "supportsInterface(bytes4)": {
        "details": "implement supportsInterface(bytes4) using a lookup table"
      },
      "symbol()": {
        "details": "Gets the token symbol",
        "return": "string representing the token symbol"
      },
      "tokenByIndex(uint256)": {
        "details": "Gets the token ID at a given index of all the tokens in this contractReverts if the index is greater or equal to the total number of tokens",
        "params": {
          "_index": "uint256 representing the index to be accessed of the tokens list"
        },
        "return": "uint256 token ID at the given index of the tokens list"
      },
      "tokenOfOwnerByIndex(address,uint256)": {
        "details": "Gets the token ID at a given index of the tokens list of the requested owner",
        "params": {
          "_index": "uint256 representing the index to be accessed of the requested tokens list",
          "_owner": "address owning the tokens list to be accessed"
        },
        "return": "uint256 token ID at the given index of the tokens list owned by the requested address"
      },
      "tokenURI(uint256)": {
        "details": "Returns an URI for a given token IDThrows if the token ID does not exist. May return an empty string.",
        "params": {
          "_tokenId": "uint256 ID of the token to query"
        }
      },
      "totalSupply()": {
        "details": "Gets the total amount of tokens stored by the contract",
        "return": "uint256 representing the total amount of tokens"
      },
      "transferOwnership(address)": {
        "details": "Allows the current owner to transfer control of the contract to a newOwner.",
        "params": {
          "newOwner": "The address to transfer ownership to."
        }
      }
    }
  },
  "userdoc": {
    "methods": {
      "buyBoosterCard(uint256)": {
        "notice": "Public interface to buy booster card(s)"
      },
      "buyBoosterCardAndOpen()": {
        "notice": "Public interface to buy booster pack(s) and open them - NO burn option"
      },
      "buyCard(uint32)": {
        "notice": "/** Public interface to purchase a card, probablly the most insecure entry point !"
      },
      "getFreeCard(uint32)": {
        "notice": "Public interface to get card at no cost"
      },
      "getTimeToDailyBonus(address)": {
        "notice": "Return the timestamp of the next daily bonus for a player"
      },
      "linkMySponsor(address)": {
        "notice": "Public interface to allow a player to forever link their 1 sponsor "
      },
      "openBoosterCard(uint256)": {
        "notice": "Public interface to open already purchased booster pack(s) - User can wager an amount"
      },
      "renounceOwnership()": {
        "notice": "Renouncing ownership will leave the contract without an owner, thereby removing any functionality that is only available to the owner."
      },
      "sacrifice(uint256)": {
        "notice": "Any user can sacrifice any card they own. Please don't burn down the universe :'("
      },
      "withdraw()": {
        "notice": "Withdraw balance to wallet ONLY for the owner to call this "
      }
    }
  }
}