{
  "contractName": "Cryptoz",
  "abi": [
    {
      "constant": true,
      "inputs": [
        {
          "name": "_interfaceId",
          "type": "bytes4"
        }
      ],
      "name": "supportsInterface",
      "outputs": [
        {
          "name": "",
          "type": "bool"
        }
      ],
      "payable": false,
      "stateMutability": "view",
      "type": "function"
    },
    {
      "constant": true,
      "inputs": [],
      "name": "name",
      "outputs": [
        {
          "name": "_name",
          "type": "string"
        }
      ],
      "payable": false,
      "stateMutability": "view",
      "type": "function"
    },
    {
      "constant": true,
      "inputs": [
        {
          "name": "_tokenId",
          "type": "uint256"
        }
      ],
      "name": "getApproved",
      "outputs": [
        {
          "name": "",
          "type": "address"
        }
      ],
      "payable": false,
      "stateMutability": "view",
      "type": "function"
    },
    {
      "constant": false,
      "inputs": [
        {
          "name": "_to",
          "type": "address"
        },
        {
          "name": "_tokenId",
          "type": "uint256"
        }
      ],
      "name": "approve",
      "outputs": [],
      "payable": false,
      "stateMutability": "nonpayable",
      "type": "function"
    },
    {
      "constant": true,
      "inputs": [],
      "name": "totalSupply",
      "outputs": [
        {
          "name": "",
          "type": "uint256"
        }
      ],
      "payable": false,
      "stateMutability": "view",
      "type": "function"
    },
    {
      "constant": true,
      "inputs": [],
      "name": "InterfaceId_ERC165",
      "outputs": [
        {
          "name": "",
          "type": "bytes4"
        }
      ],
      "payable": false,
      "stateMutability": "view",
      "type": "function"
    },
    {
      "constant": false,
      "inputs": [
        {
          "name": "_from",
          "type": "address"
        },
        {
          "name": "_to",
          "type": "address"
        },
        {
          "name": "_tokenId",
          "type": "uint256"
        }
      ],
      "name": "transferFrom",
      "outputs": [],
      "payable": false,
      "stateMutability": "nonpayable",
      "type": "function"
    },
    {
      "constant": true,
      "inputs": [
        {
          "name": "_owner",
          "type": "address"
        },
        {
          "name": "_index",
          "type": "uint256"
        }
      ],
      "name": "tokenOfOwnerByIndex",
      "outputs": [
        {
          "name": "",
          "type": "uint256"
        }
      ],
      "payable": false,
      "stateMutability": "view",
      "type": "function"
    },
    {
      "constant": false,
      "inputs": [
        {
          "name": "_from",
          "type": "address"
        },
        {
          "name": "_to",
          "type": "address"
        },
        {
          "name": "_tokenId",
          "type": "uint256"
        }
      ],
      "name": "safeTransferFrom",
      "outputs": [],
      "payable": false,
      "stateMutability": "nonpayable",
      "type": "function"
    },
    {
      "constant": true,
      "inputs": [
        {
          "name": "",
          "type": "uint32"
        }
      ],
      "name": "allCardTypes",
      "outputs": [
        {
          "name": "cardTypeId",
          "type": "uint32"
        },
        {
          "name": "name",
          "type": "string"
        },
        {
          "name": "set",
          "type": "string"
        },
        {
          "name": "weiCost",
          "type": "uint256"
        },
        {
          "name": "buyCzxp",
          "type": "uint256"
        },
        {
          "name": "transferCzxp",
          "type": "uint256"
        },
        {
          "name": "sacrificeCzxp",
          "type": "uint256"
        },
        {
          "name": "unlockCzxp",
          "type": "uint256"
        },
        {
          "name": "cardLevel",
          "type": "uint8"
        }
      ],
      "payable": false,
      "stateMutability": "view",
      "type": "function"
    },
    {
      "constant": true,
      "inputs": [
        {
          "name": "_tokenId",
          "type": "uint256"
        }
      ],
      "name": "exists",
      "outputs": [
        {
          "name": "",
          "type": "bool"
        }
      ],
      "payable": false,
      "stateMutability": "view",
      "type": "function"
    },
    {
      "constant": true,
      "inputs": [
        {
          "name": "_index",
          "type": "uint256"
        }
      ],
      "name": "tokenByIndex",
      "outputs": [
        {
          "name": "",
          "type": "uint256"
        }
      ],
      "payable": false,
      "stateMutability": "view",
      "type": "function"
    },
    {
      "constant": true,
      "inputs": [
        {
          "name": "_tokenId",
          "type": "uint256"
        }
      ],
      "name": "ownerOf",
      "outputs": [
        {
          "name": "",
          "type": "address"
        }
      ],
      "payable": false,
      "stateMutability": "view",
      "type": "function"
    },
    {
      "constant": true,
      "inputs": [
        {
          "name": "_owner",
          "type": "address"
        }
      ],
      "name": "balanceOf",
      "outputs": [
        {
          "name": "",
          "type": "uint256"
        }
      ],
      "payable": false,
      "stateMutability": "view",
      "type": "function"
    },
    {
      "constant": false,
      "inputs": [],
      "name": "renounceOwnership",
      "outputs": [],
      "payable": false,
      "stateMutability": "nonpayable",
      "type": "function"
    },
    {
      "constant": true,
      "inputs": [
        {
          "name": "",
          "type": "address"
        }
      ],
      "name": "boosterPacksOwned",
      "outputs": [
        {
          "name": "",
          "type": "uint256"
        }
      ],
      "payable": false,
      "stateMutability": "view",
      "type": "function"
    },
    {
      "constant": true,
      "inputs": [
        {
          "name": "_tokenId",
          "type": "uint256"
        }
      ],
      "name": "getCardByTokenId",
      "outputs": [
        {
          "name": "",
          "type": "uint32"
        },
        {
          "name": "",
          "type": "uint256"
        },
        {
          "name": "",
          "type": "uint256"
        }
      ],
      "payable": false,
      "stateMutability": "view",
      "type": "function"
    },
    {
      "constant": true,
      "inputs": [],
      "name": "getTotalTypes",
      "outputs": [
        {
          "name": "",
          "type": "uint256"
        }
      ],
      "payable": false,
      "stateMutability": "view",
      "type": "function"
    },
    {
      "constant": true,
      "inputs": [
        {
          "name": "",
          "type": "address"
        },
        {
          "name": "",
          "type": "uint256"
        }
      ],
      "name": "cardTypesOwned",
      "outputs": [
        {
          "name": "",
          "type": "bool"
        }
      ],
      "payable": false,
      "stateMutability": "view",
      "type": "function"
    },
    {
      "constant": true,
      "inputs": [
        {
          "name": "_owner",
          "type": "address"
        }
      ],
      "name": "tokensOfOwner",
      "outputs": [
        {
          "name": "ownerTokens",
          "type": "uint256[]"
        }
      ],
      "payable": false,
      "stateMutability": "view",
      "type": "function"
    },
    {
      "constant": true,
      "inputs": [],
      "name": "owner",
      "outputs": [
        {
          "name": "",
          "type": "address"
        }
      ],
      "payable": false,
      "stateMutability": "view",
      "type": "function"
    },
    {
      "constant": true,
      "inputs": [
        {
          "name": "",
          "type": "uint256"
        }
      ],
      "name": "cardTypesIds",
      "outputs": [
        {
          "name": "",
          "type": "uint256"
        }
      ],
      "payable": false,
      "stateMutability": "view",
      "type": "function"
    },
    {
      "constant": false,
      "inputs": [
        {
          "name": "data",
          "type": "bytes32"
        }
      ],
      "name": "bytes32ToString",
      "outputs": [
        {
          "name": "",
          "type": "string"
        }
      ],
      "payable": false,
      "stateMutability": "nonpayable",
      "type": "function"
    },
    {
      "constant": true,
      "inputs": [],
      "name": "symbol",
      "outputs": [
        {
          "name": "_symbol",
          "type": "string"
        }
      ],
      "payable": false,
      "stateMutability": "view",
      "type": "function"
    },
    {
      "constant": false,
      "inputs": [
        {
          "name": "_to",
          "type": "address"
        },
        {
          "name": "_approved",
          "type": "bool"
        }
      ],
      "name": "setApprovalForAll",
      "outputs": [],
      "payable": false,
      "stateMutability": "nonpayable",
      "type": "function"
    },
    {
      "constant": true,
      "inputs": [
        {
          "name": "",
          "type": "uint256"
        }
      ],
      "name": "cardTypeToEdition",
      "outputs": [
        {
          "name": "",
          "type": "uint256"
        }
      ],
      "payable": false,
      "stateMutability": "view",
      "type": "function"
    },
    {
      "constant": false,
      "inputs": [
        {
          "name": "_from",
          "type": "address"
        },
        {
          "name": "_to",
          "type": "address"
        },
        {
          "name": "_tokenId",
          "type": "uint256"
        },
        {
          "name": "_data",
          "type": "bytes"
        }
      ],
      "name": "safeTransferFrom",
      "outputs": [],
      "payable": false,
      "stateMutability": "nonpayable",
      "type": "function"
    },
    {
      "constant": true,
      "inputs": [
        {
          "name": "_tokenId",
          "type": "uint256"
        }
      ],
      "name": "tokenURI",
      "outputs": [
        {
          "name": "",
          "type": "string"
        }
      ],
      "payable": false,
      "stateMutability": "view",
      "type": "function"
    },
    {
      "constant": true,
      "inputs": [
        {
          "name": "_owner",
          "type": "address"
        },
        {
          "name": "_operator",
          "type": "address"
        }
      ],
      "name": "isApprovedForAll",
      "outputs": [
        {
          "name": "",
          "type": "bool"
        }
      ],
      "payable": false,
      "stateMutability": "view",
      "type": "function"
    },
    {
      "constant": true,
      "inputs": [
        {
          "name": "",
          "type": "uint8"
        },
        {
          "name": "",
          "type": "uint256"
        }
      ],
      "name": "allBoosterCardIds",
      "outputs": [
        {
          "name": "",
          "type": "uint32"
        }
      ],
      "payable": false,
      "stateMutability": "view",
      "type": "function"
    },
    {
      "constant": false,
      "inputs": [
        {
          "name": "_newOwner",
          "type": "address"
        }
      ],
      "name": "transferOwnership",
      "outputs": [],
      "payable": false,
      "stateMutability": "nonpayable",
      "type": "function"
    },
    {
      "inputs": [
        {
          "name": "_czxpContractAddress",
          "type": "address"
        }
      ],
      "payable": false,
      "stateMutability": "nonpayable",
      "type": "constructor"
    },
    {
      "payable": false,
      "stateMutability": "nonpayable",
      "type": "fallback"
    },
    {
      "anonymous": false,
      "inputs": [
        {
          "indexed": false,
          "name": "cardTypeId",
          "type": "uint32"
        },
        {
          "indexed": false,
          "name": "cardName",
          "type": "string"
        }
      ],
      "name": "LogCardTypeLoaded",
      "type": "event"
    },
    {
      "anonymous": false,
      "inputs": [
        {
          "indexed": false,
          "name": "cardTypeId",
          "type": "uint32"
        },
        {
          "indexed": false,
          "name": "editionNumber",
          "type": "uint256"
        },
        {
          "indexed": false,
          "name": "buyer",
          "type": "address"
        }
      ],
      "name": "LogCardPurchased",
      "type": "event"
    },
    {
      "anonymous": false,
      "inputs": [
        {
          "indexed": false,
          "name": "buyer",
          "type": "address"
        },
        {
          "indexed": false,
          "name": "packsOpened",
          "type": "uint256"
        }
      ],
      "name": "LogPackOpened",
      "type": "event"
    },
    {
      "anonymous": false,
      "inputs": [
        {
          "indexed": false,
          "name": "owner",
          "type": "address"
        },
        {
          "indexed": false,
          "name": "cardTokenId",
          "type": "uint256"
        },
        {
          "indexed": false,
          "name": "editionNumber",
          "type": "uint256"
        },
        {
          "indexed": false,
          "name": "cardTypeId",
          "type": "uint256"
        },
        {
          "indexed": false,
          "name": "CzxpGained",
          "type": "uint256"
        }
      ],
      "name": "LogCardCreated",
      "type": "event"
    },
    {
      "anonymous": false,
      "inputs": [
        {
          "indexed": false,
          "name": "owner",
          "type": "address"
        },
        {
          "indexed": false,
          "name": "cardTokenId",
          "type": "uint256"
        },
        {
          "indexed": false,
          "name": "cardTypeId",
          "type": "uint256"
        },
        {
          "indexed": false,
          "name": "CzxpGained",
          "type": "uint256"
        }
      ],
      "name": "SacrificeCardEvent",
      "type": "event"
    },
    {
      "anonymous": false,
      "inputs": [
        {
          "indexed": true,
          "name": "_from",
          "type": "address"
        },
        {
          "indexed": true,
          "name": "_to",
          "type": "address"
        },
        {
          "indexed": true,
          "name": "_tokenId",
          "type": "uint256"
        }
      ],
      "name": "Transfer",
      "type": "event"
    },
    {
      "anonymous": false,
      "inputs": [
        {
          "indexed": true,
          "name": "_owner",
          "type": "address"
        },
        {
          "indexed": true,
          "name": "_approved",
          "type": "address"
        },
        {
          "indexed": true,
          "name": "_tokenId",
          "type": "uint256"
        }
      ],
      "name": "Approval",
      "type": "event"
    },
    {
      "anonymous": false,
      "inputs": [
        {
          "indexed": true,
          "name": "_owner",
          "type": "address"
        },
        {
          "indexed": true,
          "name": "_operator",
          "type": "address"
        },
        {
          "indexed": false,
          "name": "_approved",
          "type": "bool"
        }
      ],
      "name": "ApprovalForAll",
      "type": "event"
    },
    {
      "anonymous": false,
      "inputs": [
        {
          "indexed": false,
          "name": "beneficiary",
          "type": "address"
        },
        {
          "indexed": false,
          "name": "czxpAmount",
          "type": "uint256"
        }
      ],
      "name": "CZXPGained",
      "type": "event"
    },
    {
      "anonymous": false,
      "inputs": [
        {
          "indexed": true,
          "name": "previousOwner",
          "type": "address"
        }
      ],
      "name": "OwnershipRenounced",
      "type": "event"
    },
    {
      "anonymous": false,
      "inputs": [
        {
          "indexed": true,
          "name": "previousOwner",
          "type": "address"
        },
        {
          "indexed": true,
          "name": "newOwner",
          "type": "address"
        }
      ],
      "name": "OwnershipTransferred",
      "type": "event"
    },
    {
      "constant": false,
      "inputs": [
        {
          "name": "_cardTypeId",
          "type": "uint8"
        },
        {
          "name": "_name",
          "type": "string"
        },
        {
          "name": "_set",
          "type": "string"
        },
        {
          "name": "_assetType",
          "type": "uint8"
        },
        {
          "name": "_notStoreOrBonus",
          "type": "uint8"
        },
        {
          "name": "_rarity",
          "type": "uint8"
        },
        {
          "name": "_totalAvailable",
          "type": "uint16"
        },
        {
          "name": "_weiCost",
          "type": "uint256"
        },
        {
          "name": "_buyCzxp",
          "type": "uint256"
        }
      ],
      "name": "loadNewCardType",
      "outputs": [
        {
          "name": "",
          "type": "bool"
        }
      ],
      "payable": false,
      "stateMutability": "nonpayable",
      "type": "function"
    },
    {
      "constant": false,
      "inputs": [
        {
          "name": "_cardTypeId",
          "type": "uint32"
        },
        {
          "name": "_transferCzxp",
          "type": "uint256"
        },
        {
          "name": "_sacrificeCzxp",
          "type": "uint256"
        },
        {
          "name": "_unlockCzxp",
          "type": "uint256"
        },
        {
          "name": "_cardLevel",
          "type": "uint8"
        }
      ],
      "name": "addTocardType",
      "outputs": [
        {
          "name": "",
          "type": "bool"
        }
      ],
      "payable": false,
      "stateMutability": "nonpayable",
      "type": "function"
    },
    {
      "constant": false,
      "inputs": [
        {
          "name": "_cardTypeId",
          "type": "uint32"
        }
      ],
      "name": "buyCard",
      "outputs": [
        {
          "name": "",
          "type": "bool"
        }
      ],
      "payable": true,
      "stateMutability": "payable",
      "type": "function"
    },
    {
      "constant": false,
      "inputs": [
        {
          "name": "_cardTypeId",
          "type": "uint32"
        }
      ],
      "name": "getFreeCard",
      "outputs": [],
      "payable": false,
      "stateMutability": "nonpayable",
      "type": "function"
    },
    {
      "constant": true,
      "inputs": [
        {
          "name": "cardId",
          "type": "uint256"
        }
      ],
      "name": "getOwnedCard",
      "outputs": [
        {
          "name": "",
          "type": "uint32"
        },
        {
          "name": "",
          "type": "uint256"
        },
        {
          "name": "",
          "type": "uint256"
        }
      ],
      "payable": false,
      "stateMutability": "view",
      "type": "function"
    },
    {
      "constant": false,
      "inputs": [
        {
          "name": "_cardId",
          "type": "uint256"
        }
      ],
      "name": "sacrifice",
      "outputs": [],
      "payable": false,
      "stateMutability": "nonpayable",
      "type": "function"
    },
    {
      "constant": false,
      "inputs": [],
      "name": "buyBoosterCard",
      "outputs": [
        {
          "name": "",
          "type": "bool"
        }
      ],
      "payable": true,
      "stateMutability": "payable",
      "type": "function"
    },
    {
      "constant": false,
      "inputs": [],
      "name": "buyBoosterCardAndOpen",
      "outputs": [],
      "payable": true,
      "stateMutability": "payable",
      "type": "function"
    },
    {
      "constant": false,
      "inputs": [
        {
          "name": "czxpWager",
          "type": "uint256"
        }
      ],
      "name": "openBoosterCard",
      "outputs": [
        {
          "name": "",
          "type": "bool"
        }
      ],
      "payable": false,
      "stateMutability": "nonpayable",
      "type": "function"
    },
    {
      "constant": false,
      "inputs": [],
      "name": "withdraw",
      "outputs": [],
      "payable": false,
      "stateMutability": "nonpayable",
      "type": "function"
    }
  ],
  "bytecode": "0x60806040526040805190810160405280601b81526020017f68747470733a2f2f63727970746f7a2e63617264732f646174612f00000000008152506001908051906020019062000051929190620003ba565b506040805190810160405280600d81526020017f43727970746f7a20436172647300000000000000000000000000000000000000815250601190805190602001906200009f929190620003ba565b506040805190810160405280600781526020017f43727970746f7a0000000000000000000000000000000000000000000000000081525060129080519060200190620000ed929190620003ba565b5066071afd498d00006019556078601a553480156200010b57600080fd5b506040516020806200548283398101806040528101908080519060200190929190505050336000806101000a81548173ffffffffffffffffffffffffffffffffffffffff021916908373ffffffffffffffffffffffffffffffffffffffff1602179055506001600b60006301ffc9a77c0100000000000000000000000000000000000000000000000000000000027bffffffffffffffffffffffffffffffffffffffffffffffffffffffff19167bffffffffffffffffffffffffffffffffffffffffffffffffffffffff1916815260200190815260200160002060006101000a81548160ff021916908315150217905550620002396301ffc9a77c010000000000000000000000000000000000000000000000000000000002620002fb640100000000026401000000009004565b620002766380ac58cd7c010000000000000000000000000000000000000000000000000000000002620002fb640100000000026401000000009004565b620002b3634f558e797c010000000000000000000000000000000000000000000000000000000002620002fb640100000000026401000000009004565b80600a60006101000a81548173ffffffffffffffffffffffffffffffffffffffff021916908373ffffffffffffffffffffffffffffffffffffffff1602179055505062000469565b63ffffffff7c010000000000000000000000000000000000000000000000000000000002817bffffffffffffffffffffffffffffffffffffffffffffffffffffffff1916141515156200034d57600080fd5b6001600c6000837bffffffffffffffffffffffffffffffffffffffffffffffffffffffff19167bffffffffffffffffffffffffffffffffffffffffffffffffffffffff1916815260200190815260200160002060006101000a81548160ff02191690831515021790555050565b828054600181600116156101000203166002900490600052602060002090601f016020900481019282601f10620003fd57805160ff19168380011785556200042e565b828001600101855582156200042e579182015b828111156200042d57825182559160200191906001019062000410565b5b5090506200043d919062000441565b5090565b6200046691905b808211156200046257600081600090555060010162000448565b5090565b90565b61500980620004796000396000f3006080604052600436106101f9576000357c0100000000000000000000000000000000000000000000000000000000900463ffffffff16806301ffc9a71461020b57806306fdde031461026f578063081812fc146102ff578063095ea7b31461036c57806316b93be8146103b957806318160ddd146103ec57806319fa8f501461041757806323b872dd146104805780632f745c59146104ed5780633ccfd60b1461054e57806342842e0e1461056557806342ed1d29146105d25780634f27f6261461072d5780634f558e79146107725780634f6ccce7146107b75780636352211e146107f8578063692170c21461086557806370a08231146108db578063715018a6146109325780637752f487146109495780637a9d06df146109a05780637f276455146109fb57806381cbd20314610a265780638462151c14610a8b5780638da5cb5b14610b235780638e7a591314610b7a578063918923c414610c975780639201de5514610cd857806395d89b4114610d82578063a22cb46514610e12578063a47ed2e714610e61578063b4a1676914610ebc578063b88d4fde14610efd578063c87b56dd14610fb0578063d057570814611056578063e178e05114611094578063e985e9c5146110c1578063ef73cc661461113c578063f2fde38b14611196578063f520f13e146111d9578063fc7f0fec146111fb575b34801561020557600080fd5b50600080fd5b34801561021757600080fd5b5061025560048036038101908080357bffffffffffffffffffffffffffffffffffffffffffffffffffffffff19169060200190929190505050611205565b604051808215151515815260200191505060405180910390f35b34801561027b57600080fd5b5061028461126d565b6040518080602001828103825283818151815260200191508051906020019080838360005b838110156102c45780820151818401526020810190506102a9565b50505050905090810190601f1680156102f15780820380516001836020036101000a031916815260200191505b509250505060405180910390f35b34801561030b57600080fd5b5061032a6004803603810190808035906020019092919050505061130f565b604051808273ffffffffffffffffffffffffffffffffffffffff1673ffffffffffffffffffffffffffffffffffffffff16815260200191505060405180910390f35b34801561037857600080fd5b506103b7600480360381019080803573ffffffffffffffffffffffffffffffffffffffff1690602001909291908035906020019092919050505061134c565b005b3480156103c557600080fd5b506103ea600480360381019080803563ffffffff169060200190929190505050611491565b005b3480156103f857600080fd5b50610401611848565b6040518082815260200191505060405180910390f35b34801561042357600080fd5b5061042c611855565b60405180827bffffffffffffffffffffffffffffffffffffffffffffffffffffffff19167bffffffffffffffffffffffffffffffffffffffffffffffffffffffff1916815260200191505060405180910390f35b34801561048c57600080fd5b506104eb600480360381019080803573ffffffffffffffffffffffffffffffffffffffff169060200190929190803573ffffffffffffffffffffffffffffffffffffffff1690602001909291908035906020019092919050505061187c565b005b3480156104f957600080fd5b50610538600480360381019080803573ffffffffffffffffffffffffffffffffffffffff169060200190929190803590602001909291905050506119a1565b6040518082815260200191505060405180910390f35b34801561055a57600080fd5b50610563611a18565b005b34801561057157600080fd5b506105d0600480360381019080803573ffffffffffffffffffffffffffffffffffffffff169060200190929190803573ffffffffffffffffffffffffffffffffffffffff16906020019092919080359060200190929190505050611ad3565b005b3480156105de57600080fd5b50610603600480360381019080803563ffffffff169060200190929190505050611af4565b604051808a63ffffffff1663ffffffff16815260200180602001806020018981526020018881526020018781526020018681526020018581526020018460ff1660ff16815260200183810383528b818151815260200191508051906020019080838360005b83811015610683578082015181840152602081019050610668565b50505050905090810190601f1680156106b05780820380516001836020036101000a031916815260200191505b5083810382528a818151815260200191508051906020019080838360005b838110156106e95780820151818401526020810190506106ce565b50505050905090810190601f1680156107165780820380516001836020036101000a031916815260200191505b509b50505050505050505050505060405180910390f35b34801561073957600080fd5b5061075860048036038101908080359060200190929190505050611c8f565b604051808215151515815260200191505060405180910390f35b34801561077e57600080fd5b5061079d60048036038101908080359060200190929190505050611e10565b604051808215151515815260200191505060405180910390f35b3480156107c357600080fd5b506107e260048036038101908080359060200190929190505050611e82565b6040518082815260200191505060405180910390f35b34801561080457600080fd5b5061082360048036038101908080359060200190929190505050611eba565b604051808273ffffffffffffffffffffffffffffffffffffffff1673ffffffffffffffffffffffffffffffffffffffff16815260200191505060405180910390f35b34801561087157600080fd5b506108c1600480360381019080803563ffffffff169060200190929190803590602001909291908035906020019092919080359060200190929190803560ff169060200190929190505050611f38565b604051808215151515815260200191505060405180910390f35b3480156108e757600080fd5b5061091c600480360381019080803573ffffffffffffffffffffffffffffffffffffffff1690602001909291905050506121ab565b6040518082815260200191505060405180910390f35b34801561093e57600080fd5b5061094761222f565b005b34801561095557600080fd5b5061098a600480360381019080803573ffffffffffffffffffffffffffffffffffffffff169060200190929190505050612331565b6040518082815260200191505060405180910390f35b3480156109ac57600080fd5b506109cb60048036038101908080359060200190929190505050612349565b604051808463ffffffff1663ffffffff168152602001838152602001828152602001935050505060405180910390f35b348015610a0757600080fd5b50610a106123e2565b6040518082815260200191505060405180910390f35b348015610a3257600080fd5b50610a71600480360381019080803573ffffffffffffffffffffffffffffffffffffffff169060200190929190803590602001909291905050506123ef565b604051808215151515815260200191505060405180910390f35b348015610a9757600080fd5b50610acc600480360381019080803573ffffffffffffffffffffffffffffffffffffffff16906020019092919050505061241e565b6040518080602001828103825283818151815260200191508051906020019060200280838360005b83811015610b0f578082015181840152602081019050610af4565b505050509050019250505060405180910390f35b348015610b2f57600080fd5b50610b3861256b565b604051808273ffffffffffffffffffffffffffffffffffffffff1673ffffffffffffffffffffffffffffffffffffffff16815260200191505060405180910390f35b348015610b8657600080fd5b50610c7d600480360381019080803560ff169060200190929190803590602001908201803590602001908080601f0160208091040260200160405190810160405280939291908181526020018383808284378201915050505050509192919290803590602001908201803590602001908080601f0160208091040260200160405190810160405280939291908181526020018383808284378201915050505050509192919290803560ff169060200190929190803560ff169060200190929190803560ff169060200190929190803561ffff1690602001909291908035906020019092919080359060200190929190505050612590565b604051808215151515815260200191505060405180910390f35b348015610ca357600080fd5b50610cc260048036038101908080359060200190929190505050612901565b6040518082815260200191505060405180910390f35b348015610ce457600080fd5b50610d076004803603810190808035600019169060200190929190505050612924565b6040518080602001828103825283818151815260200191508051906020019080838360005b83811015610d47578082015181840152602081019050610d2c565b50505050905090810190601f168015610d745780820380516001836020036101000a031916815260200191505b509250505060405180910390f35b348015610d8e57600080fd5b50610d97612a27565b6040518080602001828103825283818151815260200191508051906020019080838360005b83811015610dd7578082015181840152602081019050610dbc565b50505050905090810190601f168015610e045780820380516001836020036101000a031916815260200191505b509250505060405180910390f35b348015610e1e57600080fd5b50610e5f600480360381019080803573ffffffffffffffffffffffffffffffffffffffff169060200190929190803515159060200190929190505050612ac9565b005b348015610e6d57600080fd5b50610e8c60048036038101908080359060200190929190505050612c05565b604051808463ffffffff1663ffffffff168152602001838152602001828152602001935050505060405180910390f35b348015610ec857600080fd5b50610ee760048036038101908080359060200190929190505050612c8a565b6040518082815260200191505060405180910390f35b348015610f0957600080fd5b50610fae600480360381019080803573ffffffffffffffffffffffffffffffffffffffff169060200190929190803573ffffffffffffffffffffffffffffffffffffffff16906020019092919080359060200190929190803590602001908201803590602001908080601f0160208091040260200160405190810160405280939291908181526020018383808284378201915050505050509192919290505050612ca2565b005b348015610fbc57600080fd5b50610fdb60048036038101908080359060200190929190505050612cca565b6040518080602001828103825283818151815260200191508051906020019080838360005b8381101561101b578082015181840152602081019050611000565b50505050905090810190601f1680156110485780820380516001836020036101000a031916815260200191505b509250505060405180910390f35b61107a600480360381019080803563ffffffff169060200190929190505050612d93565b604051808215151515815260200191505060405180910390f35b3480156110a057600080fd5b506110bf60048036038101908080359060200190929190505050613361565b005b3480156110cd57600080fd5b50611122600480360381019080803573ffffffffffffffffffffffffffffffffffffffff169060200190929190803573ffffffffffffffffffffffffffffffffffffffff16906020019092919050505061336e565b604051808215151515815260200191505060405180910390f35b34801561114857600080fd5b50611174600480360381019080803560ff16906020019092919080359060200190929190505050613402565b604051808263ffffffff1663ffffffff16815260200191505060405180910390f35b3480156111a257600080fd5b506111d7600480360381019080803573ffffffffffffffffffffffffffffffffffffffff16906020019092919050505061344a565b005b6111e16134b1565b604051808215151515815260200191505060405180910390f35b61120361356d565b005b6000600c6000837bffffffffffffffffffffffffffffffffffffffffffffffffffffffff19167bffffffffffffffffffffffffffffffffffffffffffffffffffffffff1916815260200190815260200160002060009054906101000a900460ff169050919050565b606060118054600181600116156101000203166002900480601f0160208091040260200160405190810160405280929190818152602001828054600181600116156101000203166002900480156113055780601f106112da57610100808354040283529160200191611305565b820191906000526020600020905b8154815290600101906020018083116112e857829003601f168201915b5050505050905090565b6000600e600083815260200190815260200160002060009054906101000a900473ffffffffffffffffffffffffffffffffffffffff169050919050565b600061135782611eba565b90508073ffffffffffffffffffffffffffffffffffffffff168373ffffffffffffffffffffffffffffffffffffffff161415151561139457600080fd5b8073ffffffffffffffffffffffffffffffffffffffff163373ffffffffffffffffffffffffffffffffffffffff1614806113d457506113d3813361336e565b5b15156113df57600080fd5b82600e600084815260200190815260200160002060006101000a81548173ffffffffffffffffffffffffffffffffffffffff021916908373ffffffffffffffffffffffffffffffffffffffff160217905550818373ffffffffffffffffffffffffffffffffffffffff168273ffffffffffffffffffffffffffffffffffffffff167f8c5be1e5ebec7d5bd14f71427d1e84f3dd0314c0f7b2291e5b200ac8c7c3b92560405160405180910390a4505050565b600080828063ffffffff16600760008363ffffffff1663ffffffff16815260200190815260200160002060000160009054906101000a900463ffffffff1663ffffffff161415156114e157600080fd5b6001600360008363ffffffff16815260200190815260200160002060009054906101000a900460ff1660ff1610151561151957600080fd5b6000600360008663ffffffff16815260200190815260200160002060009054906101000a900460ff1660ff1614151561155157600080fd5b6001600960008663ffffffff1681526020019081526020016000205401600560008663ffffffff16815260200190815260200160002060009054906101000a900461ffff1661ffff161115156115a657600080fd5b60001515601860003373ffffffffffffffffffffffffffffffffffffffff1673ffffffffffffffffffffffffffffffffffffffff16815260200190815260200160002060008663ffffffff16815260200190815260200160002060009054906101000a900460ff16151514151561161c57600080fd5b600a60009054906101000a900473ffffffffffffffffffffffffffffffffffffffff1673ffffffffffffffffffffffffffffffffffffffff166370a08231336040518263ffffffff167c0100000000000000000000000000000000000000000000000000000000028152600401808273ffffffffffffffffffffffffffffffffffffffff1673ffffffffffffffffffffffffffffffffffffffff168152602001915050602060405180830381600087803b1580156116d957600080fd5b505af11580156116ed573d6000803e3d6000fd5b505050506040513d602081101561170357600080fd5b81019080805190602001909291905050509250600760008563ffffffff1663ffffffff16815260200190815260200160002060070154831015151561174757600080fd5b6000600760008663ffffffff1663ffffffff1681526020019081526020016000206003015414151561177857600080fd5b6117a433600760008763ffffffff1663ffffffff16815260200190815260200160002060040154613630565b6117d18433600760008863ffffffff1663ffffffff16815260200190815260200160002060040154613711565b91506001601860003373ffffffffffffffffffffffffffffffffffffffff1673ffffffffffffffffffffffffffffffffffffffff16815260200190815260200160002060008663ffffffff16815260200190815260200160002060006101000a81548160ff02191690831515021790555050505050565b6000601580549050905090565b6301ffc9a77c01000000000000000000000000000000000000000000000000000000000281565b600073ffffffffffffffffffffffffffffffffffffffff168373ffffffffffffffffffffffffffffffffffffffff16141515156118b857600080fd5b600073ffffffffffffffffffffffffffffffffffffffff168273ffffffffffffffffffffffffffffffffffffffff16141515156118f457600080fd5b6118fe83826139d1565b6119088382613ad4565b6119128282613cec565b600160068281548110151561192357fe5b906000526020600020906003020160020160008282540192505081905550808273ffffffffffffffffffffffffffffffffffffffff168473ffffffffffffffffffffffffffffffffffffffff167fddf252ad1be2c89b69c2b068fc378daa952ba7f163c4a11628f55a4df523b3ef60405160405180910390a4505050565b60006119ac836121ab565b821015156119b957600080fd5b601360008473ffffffffffffffffffffffffffffffffffffffff1673ffffffffffffffffffffffffffffffffffffffff16815260200190815260200160002082815481101515611a0557fe5b9060005260206000200154905092915050565b6000809054906101000a900473ffffffffffffffffffffffffffffffffffffffff1673ffffffffffffffffffffffffffffffffffffffff163373ffffffffffffffffffffffffffffffffffffffff16141515611a7357600080fd5b3373ffffffffffffffffffffffffffffffffffffffff166108fc3073ffffffffffffffffffffffffffffffffffffffff16319081150290604051600060405180830381858888f19350505050158015611ad0573d6000803e3d6000fd5b50565b611aef8383836020604051908101604052806000815250612ca2565b505050565b60076020528060005260406000206000915090508060000160009054906101000a900463ffffffff1690806001018054600181600116156101000203166002900480601f016020809104026020016040519081016040528092919081815260200182805460018160011615610100020316600290048015611bb65780601f10611b8b57610100808354040283529160200191611bb6565b820191906000526020600020905b815481529060010190602001808311611b9957829003601f168201915b505050505090806002018054600181600116156101000203166002900480601f016020809104026020016040519081016040528092919081815260200182805460018160011615610100020316600290048015611c545780601f10611c2957610100808354040283529160200191611c54565b820191906000526020600020905b815481529060010190602001808311611c3757829003601f168201915b5050505050908060030154908060040154908060050154908060060154908060070154908060080160009054906101000a900460ff16905089565b6000806000601b60003373ffffffffffffffffffffffffffffffffffffffff1673ffffffffffffffffffffffffffffffffffffffff16815260200190815260200160002054111515611ce057600080fd5b60008310151515611cf057600080fd5b611d436001601b60003373ffffffffffffffffffffffffffffffffffffffff1673ffffffffffffffffffffffffffffffffffffffff16815260200190815260200160002054613dc390919063ffffffff16565b601b60003373ffffffffffffffffffffffffffffffffffffffff1673ffffffffffffffffffffffffffffffffffffffff16815260200190815260200160002081905550611d8f83613ddc565b9050611d9a81613e68565b7f66e021f2e6bf1b4f79e6e5622acffc29c6230663c0432ac8c08a5edcb1f23382336001604051808373ffffffffffffffffffffffffffffffffffffffff1673ffffffffffffffffffffffffffffffffffffffff1681526020018281526020019250505060405180910390a16001915050919050565b600080600d600084815260200190815260200160002060009054906101000a900473ffffffffffffffffffffffffffffffffffffffff169050600073ffffffffffffffffffffffffffffffffffffffff168173ffffffffffffffffffffffffffffffffffffffff161415915050919050565b6000611e8c611848565b82101515611e9957600080fd5b601582815481101515611ea857fe5b90600052602060002001549050919050565b600080600d600084815260200190815260200160002060009054906101000a900473ffffffffffffffffffffffffffffffffffffffff169050600073ffffffffffffffffffffffffffffffffffffffff168173ffffffffffffffffffffffffffffffffffffffff1614151515611f2f57600080fd5b80915050919050565b60008060009054906101000a900473ffffffffffffffffffffffffffffffffffffffff1673ffffffffffffffffffffffffffffffffffffffff163373ffffffffffffffffffffffffffffffffffffffff16141515611f9557600080fd5b8563ffffffff16600760008863ffffffff1663ffffffff16815260200190815260200160002060000160009054906101000a900463ffffffff1663ffffffff16141515611fe157600080fd5b84600760008863ffffffff1663ffffffff1681526020019081526020016000206005018190555083600760008863ffffffff1663ffffffff1681526020019081526020016000206006018190555082600760008863ffffffff1663ffffffff1681526020019081526020016000206007018190555081600760008863ffffffff1663ffffffff16815260200190815260200160002060080160006101000a81548160ff021916908360ff1602179055506000600960008863ffffffff168152602001908152602001600020819055507f566651c26d6867f4a0341c33295b297504f1f8445ef05b6a80d7faa24280cd2e86600760008963ffffffff1663ffffffff168152602001908152602001600020600101604051808363ffffffff1663ffffffff1681526020018060200182810382528381815460018160011615610100020316600290048152602001915080546001816001161561010002031660029004801561218f5780601f106121645761010080835404028352916020019161218f565b820191906000526020600020905b81548152906001019060200180831161217257829003601f168201915b5050935050505060405180910390a16001905095945050505050565b60008073ffffffffffffffffffffffffffffffffffffffff168273ffffffffffffffffffffffffffffffffffffffff16141515156121e857600080fd5b600f60008373ffffffffffffffffffffffffffffffffffffffff1673ffffffffffffffffffffffffffffffffffffffff168152602001908152602001600020549050919050565b6000809054906101000a900473ffffffffffffffffffffffffffffffffffffffff1673ffffffffffffffffffffffffffffffffffffffff163373ffffffffffffffffffffffffffffffffffffffff1614151561228a57600080fd5b6000809054906101000a900473ffffffffffffffffffffffffffffffffffffffff1673ffffffffffffffffffffffffffffffffffffffff167ff8df31144d9c2f0f6b59d69b8b98abd5459d07f2742c4df920b25aae33c6482060405160405180910390a260008060006101000a81548173ffffffffffffffffffffffffffffffffffffffff021916908373ffffffffffffffffffffffffffffffffffffffff160217905550565b601b6020528060005260406000206000915090505481565b600080600061235784611e10565b151561236257600080fd5b60068481548110151561237157fe5b906000526020600020906003020160000160009054906101000a900463ffffffff166006858154811015156123a257fe5b9060005260206000209060030201600101546006868154811015156123c357fe5b9060005260206000209060030201600201549250925092509193909250565b6000600880549050905090565b60186020528160005260406000206020528060005260406000206000915091509054906101000a900460ff1681565b6060600060606000806000612432876121ab565b9450600085141561247557600060405190808252806020026020018201604052801561246d5781602001602082028038833980820191505090505b509550612561565b846040519080825280602002602001820160405280156124a45781602001602082028038833980820191505090505b5093506124af611848565b925060009150600190505b828111151561255d578673ffffffffffffffffffffffffffffffffffffffff16600d600083815260200190815260200160002060009054906101000a900473ffffffffffffffffffffffffffffffffffffffff1673ffffffffffffffffffffffffffffffffffffffff1614156125505780848381518110151561253957fe5b906020019060200201818152505081806001019250505b80806001019150506124ba565b8395505b5050505050919050565b6000809054906101000a900473ffffffffffffffffffffffffffffffffffffffff1681565b60008060009054906101000a900473ffffffffffffffffffffffffffffffffffffffff1673ffffffffffffffffffffffffffffffffffffffff163373ffffffffffffffffffffffffffffffffffffffff161415156125ed57600080fd5b8960ff16600760008c60ff1663ffffffff16815260200190815260200160002060000160006101000a81548163ffffffff021916908363ffffffff16021790555088600760008c60ff1663ffffffff1681526020019081526020016000206001019080519060200190612661929190614e23565b5087600760008c60ff1663ffffffff1681526020019081526020016000206002019080519060200190612695929190614e23565b5086600260008c60ff16815260200190815260200160002060006101000a81548160ff021916908360ff16021790555085600360008c60ff16815260200190815260200160002060006101000a81548160ff021916908360ff16021790555084600460008c60ff16815260200190815260200160002060006101000a81548160ff021916908360ff16021790555083600560008c60ff16815260200190815260200160002060006101000a81548161ffff021916908361ffff16021790555082600760008c60ff1663ffffffff1681526020019081526020016000206003018190555081600760008c60ff1663ffffffff1681526020019081526020016000206004018190555060018660ff16141561281457601c60008660ff1660ff1681526020019081526020016000208a90806001815401808255809150509060018203906000526020600020906008918282040191900660040290919260ff16909190916101000a81548163ffffffff021916908363ffffffff160217905550505b60088a9080600181540180825580915050906001820390600052602060002001600090919260ff16909190915055507f566651c26d6867f4a0341c33295b297504f1f8445ef05b6a80d7faa24280cd2e8a8a604051808360ff1663ffffffff16815260200180602001828103825283818151815260200191508051906020019080838360005b838110156128b557808201518184015260208101905061289a565b50505050905090810190601f1680156128e25780820380516001836020036101000a031916815260200191505b50935050505060405180910390a1600190509998505050505050505050565b60088181548110151561291057fe5b906000526020600020016000915090505481565b60608060008060206040519080825280601f01601f19166020018201604052801561295e5781602001602082028038833980820191505090505b509250600091505b6020821015612a1c578160080260020a856001900402600102905060007f010000000000000000000000000000000000000000000000000000000000000002817effffffffffffffffffffffffffffffffffffffffffffffffffffffffffffff1916141515612a0f578083838151811015156129de57fe5b9060200101907effffffffffffffffffffffffffffffffffffffffffffffffffffffffffffff1916908160001a9053505b8180600101925050612966565b829350505050919050565b606060128054600181600116156101000203166002900480601f016020809104026020016040519081016040528092919081815260200182805460018160011615610100020316600290048015612abf5780601f10612a9457610100808354040283529160200191612abf565b820191906000526020600020905b815481529060010190602001808311612aa257829003601f168201915b5050505050905090565b3373ffffffffffffffffffffffffffffffffffffffff168273ffffffffffffffffffffffffffffffffffffffff1614151515612b0457600080fd5b80601060003373ffffffffffffffffffffffffffffffffffffffff1673ffffffffffffffffffffffffffffffffffffffff16815260200190815260200160002060008473ffffffffffffffffffffffffffffffffffffffff1673ffffffffffffffffffffffffffffffffffffffff16815260200190815260200160002060006101000a81548160ff0219169083151502179055508173ffffffffffffffffffffffffffffffffffffffff163373ffffffffffffffffffffffffffffffffffffffff167f17307eab39ab6107e8899845ad3d59bd9653f200f220920489ca2b5937696c3183604051808215151515815260200191505060405180910390a35050565b6000806000600684815481101515612c1957fe5b906000526020600020906003020160000160009054906101000a900463ffffffff16600685815481101515612c4a57fe5b906000526020600020906003020160010154600686815481101515612c6b57fe5b9060005260206000209060030201600201549250925092509193909250565b60096020528060005260406000206000915090505481565b612cad84848461187c565b612cb984848484613f0d565b1515612cc457600080fd5b50505050565b6060612cd582611e10565b1515612ce057600080fd5b601760008381526020019081526020016000208054600181600116156101000203166002900480601f016020809104026020016040519081016040528092919081815260200182805460018160011615610100020316600290048015612d875780601f10612d5c57610100808354040283529160200191612d87565b820191906000526020600020905b815481529060010190602001808311612d6a57829003601f168201915b50505050509050919050565b6000612d9d614ea3565b600080848063ffffffff16600760008363ffffffff1663ffffffff16815260200190815260200160002060000160009054906101000a900463ffffffff1663ffffffff16141515612ded57600080fd5b6001600360008363ffffffff16815260200190815260200160002060009054906101000a900460ff1660ff16101515612e2557600080fd5b600034111515612e3457600080fd5b8563ffffffff16600760008863ffffffff1663ffffffff16815260200190815260200160002060000160009054906101000a900463ffffffff1663ffffffff16141515612e8057600080fd5b600760008763ffffffff1663ffffffff16815260200190815260200160002061012060405190810160405290816000820160009054906101000a900463ffffffff1663ffffffff1663ffffffff168152602001600182018054600181600116156101000203166002900480601f016020809104026020016040519081016040528092919081815260200182805460018160011615610100020316600290048015612f6b5780601f10612f4057610100808354040283529160200191612f6b565b820191906000526020600020905b815481529060010190602001808311612f4e57829003601f168201915b50505050508152602001600282018054600181600116156101000203166002900480601f01602080910402602001604051908101604052809291908181526020018280546001816001161561010002031660029004801561300d5780601f10612fe25761010080835404028352916020019161300d565b820191906000526020600020905b815481529060010190602001808311612ff057829003601f168201915b5050505050815260200160038201548152602001600482015481526020016005820154815260200160068201548152602001600782015481526020016008820160009054906101000a900460ff1660ff1660ff168152505093506000600360008863ffffffff16815260200190815260200160002060009054906101000a900460ff1660ff1614151561309f57600080fd5b60001515601860003373ffffffffffffffffffffffffffffffffffffffff1673ffffffffffffffffffffffffffffffffffffffff16815260200190815260200160002060008863ffffffff16815260200190815260200160002060009054906101000a900460ff16151514151561311557600080fd5b6001600960008863ffffffff1681526020019081526020016000205401600560008863ffffffff16815260200190815260200160002060009054906101000a900461ffff1661ffff1611151561316a57600080fd5b8360600151341015151561317d57600080fd5b600a60009054906101000a900473ffffffffffffffffffffffffffffffffffffffff1673ffffffffffffffffffffffffffffffffffffffff166370a08231336040518263ffffffff167c0100000000000000000000000000000000000000000000000000000000028152600401808273ffffffffffffffffffffffffffffffffffffffff1673ffffffffffffffffffffffffffffffffffffffff168152602001915050602060405180830381600087803b15801561323a57600080fd5b505af115801561324e573d6000803e3d6000fd5b505050506040513d602081101561326457600080fd5b810190808051906020019092919050505092508360e00151831015151561328a57600080fd5b6132b633600760008963ffffffff1663ffffffff16815260200190815260200160002060040154613630565b6132e38633600760008a63ffffffff1663ffffffff16815260200190815260200160002060040154613711565b91506001601860003373ffffffffffffffffffffffffffffffffffffffff1673ffffffffffffffffffffffffffffffffffffffff16815260200190815260200160002060008863ffffffff16815260200190815260200160002060006101000a81548160ff0219169083151502179055506001945050505050919050565b61336b338261412f565b50565b6000601060008473ffffffffffffffffffffffffffffffffffffffff1673ffffffffffffffffffffffffffffffffffffffff16815260200190815260200160002060008373ffffffffffffffffffffffffffffffffffffffff1673ffffffffffffffffffffffffffffffffffffffff16815260200190815260200160002060009054906101000a900460ff16905092915050565b601c6020528160005260406000208181548110151561341d57fe5b9060005260206000209060089182820401919006600402915091509054906101000a900463ffffffff1681565b6000809054906101000a900473ffffffffffffffffffffffffffffffffffffffff1673ffffffffffffffffffffffffffffffffffffffff163373ffffffffffffffffffffffffffffffffffffffff161415156134a557600080fd5b6134ae816143c0565b50565b600060195434101515156134c457600080fd5b6135176001601b60003373ffffffffffffffffffffffffffffffffffffffff1673ffffffffffffffffffffffffffffffffffffffff168152602001908152602001600020546144ba90919063ffffffff16565b601b60003373ffffffffffffffffffffffffffffffffffffffff1673ffffffffffffffffffffffffffffffffffffffff1681526020019081526020016000208190555061356633601a54613630565b6001905090565b601954341015151561357e57600080fd5b6135d16001601b60003373ffffffffffffffffffffffffffffffffffffffff1673ffffffffffffffffffffffffffffffffffffffff168152602001908152602001600020546144ba90919063ffffffff16565b601b60003373ffffffffffffffffffffffffffffffffffffffff1673ffffffffffffffffffffffffffffffffffffffff16815260200190815260200160002081905550613623336001601a5402613630565b61362d6000611c8f565b50565b600a60009054906101000a900473ffffffffffffffffffffffffffffffffffffffff1673ffffffffffffffffffffffffffffffffffffffff166360fa676783836040518363ffffffff167c0100000000000000000000000000000000000000000000000000000000028152600401808373ffffffffffffffffffffffffffffffffffffffff1673ffffffffffffffffffffffffffffffffffffffff16815260200182815260200192505050600060405180830381600087803b1580156136f557600080fd5b505af1158015613709573d6000803e3d6000fd5b505050505050565b600061371b614ef9565b60008563ffffffff16600760008863ffffffff1663ffffffff16815260200190815260200160002060000160009054906101000a900463ffffffff1663ffffffff1614151561376957600080fd5b6137966001600960008963ffffffff168152602001908152602001600020546144ba90919063ffffffff16565b600960008863ffffffff168152602001908152602001600020819055506060604051908101604052808763ffffffff168152602001600960008963ffffffff1681526020019081526020016000205481526020016000815250915060016006839080600181540180825580915050906001820390600052602060002090600302016000909192909190915060008201518160000160006101000a81548163ffffffff021916908363ffffffff1602179055506020820151816001015560408201518160020155505003905061386b85826144d6565b6139238161391e60018054600181600116156101000203166002900480601f0160208091040260200160405190810160405280929190818152602001828054600181600116156101000203166002900480156139085780601f106138dd57610100808354040283529160200191613908565b820191906000526020600020905b8154815290600101906020018083116138eb57829003601f168201915b505050505061391985600102612924565b61452d565b614574565b7fd56e3675590b3a0ffa7898c8a21c1dc687046d1a54c8d9d28c3e429e51f5670c8582600960008a63ffffffff168152602001908152602001600020548988604051808673ffffffffffffffffffffffffffffffffffffffff1673ffffffffffffffffffffffffffffffffffffffff1681526020018581526020018481526020018363ffffffff1681526020018281526020019550505050505060405180910390a180925050509392505050565b8173ffffffffffffffffffffffffffffffffffffffff166139f182611eba565b73ffffffffffffffffffffffffffffffffffffffff16141515613a1357600080fd5b600073ffffffffffffffffffffffffffffffffffffffff16600e600083815260200190815260200160002060009054906101000a900473ffffffffffffffffffffffffffffffffffffffff1673ffffffffffffffffffffffffffffffffffffffff16141515613ad0576000600e600083815260200190815260200160002060006101000a81548173ffffffffffffffffffffffffffffffffffffffff021916908373ffffffffffffffffffffffffffffffffffffffff1602179055505b5050565b6000806000613ae385856145b4565b60146000858152602001908152602001600020549250613b4f6001601360008873ffffffffffffffffffffffffffffffffffffffff1673ffffffffffffffffffffffffffffffffffffffff16815260200190815260200160002080549050613dc390919063ffffffff16565b9150601360008673ffffffffffffffffffffffffffffffffffffffff1673ffffffffffffffffffffffffffffffffffffffff16815260200190815260200160002082815481101515613b9d57fe5b9060005260206000200154905080601360008773ffffffffffffffffffffffffffffffffffffffff1673ffffffffffffffffffffffffffffffffffffffff16815260200190815260200160002084815481101515613bf757fe5b90600052602060002001819055506000601360008773ffffffffffffffffffffffffffffffffffffffff1673ffffffffffffffffffffffffffffffffffffffff16815260200190815260200160002083815481101515613c5357fe5b9060005260206000200181905550601360008673ffffffffffffffffffffffffffffffffffffffff1673ffffffffffffffffffffffffffffffffffffffff168152602001908152602001600020805480919060019003613cb39190614f21565b50600060146000868152602001908152602001600020819055508260146000838152602001908152602001600020819055505050505050565b6000613cf883836146e3565b601360008473ffffffffffffffffffffffffffffffffffffffff1673ffffffffffffffffffffffffffffffffffffffff168152602001908152602001600020805490509050601360008473ffffffffffffffffffffffffffffffffffffffff1673ffffffffffffffffffffffffffffffffffffffff168152602001908152602001600020829080600181540180825580915050906001820390600052602060002001600090919290919091505550806014600084815260200190815260200160002081905550505050565b6000828211151515613dd157fe5b818303905092915050565b600080613de7614f4d565b6000613e0a3373ffffffffffffffffffffffffffffffffffffffff16606461483d565b9250613e166000614880565b9150600290505b60068160ff161015613e5f57818160ff16600681101515613e3a57fe5b602002015160ff1683111515613e5257809350613e60565b8080600101915050613e1d565b5b505050919050565b6000806000613ea93373ffffffffffffffffffffffffffffffffffffffff16601c60008760ff1660ff1681526020019081526020016000208054905061483d565b9250601c60008560ff1660ff16815260200190815260200160002083815481101515613ed157fe5b90600052602060002090600891828204019190066004029054906101000a900463ffffffff169150613f0582336064613711565b905050505050565b600080613f2f8573ffffffffffffffffffffffffffffffffffffffff166148e1565b1515613f3e5760019150614126565b8473ffffffffffffffffffffffffffffffffffffffff1663150b7a02338887876040518563ffffffff167c0100000000000000000000000000000000000000000000000000000000028152600401808573ffffffffffffffffffffffffffffffffffffffff1673ffffffffffffffffffffffffffffffffffffffff1681526020018473ffffffffffffffffffffffffffffffffffffffff1673ffffffffffffffffffffffffffffffffffffffff16815260200183815260200180602001828103825283818151815260200191508051906020019080838360005b83811015614033578082015181840152602081019050614018565b50505050905090810190601f1680156140605780820380516001836020036101000a031916815260200191505b5095505050505050602060405180830381600087803b15801561408257600080fd5b505af1158015614096573d6000803e3d6000fd5b505050506040513d60208110156140ac57600080fd5b8101908080519060200190929190505050905063150b7a027c0100000000000000000000000000000000000000000000000000000000027bffffffffffffffffffffffffffffffffffffffffffffffffffffffff1916817bffffffffffffffffffffffffffffffffffffffffffffffffffffffff19161491505b50949350505050565b60008060008061413f86866148f4565b6000601760008781526020019081526020016000208054600181600116156101000203166002900490501415156141905760176000868152602001908152602001600020600061418f9190614f70565b5b601660008681526020019081526020016000205493506141bf6001601580549050613dc390919063ffffffff16565b92506015838154811015156141d057fe5b90600052602060002001549150816015858154811015156141ed57fe5b9060005260206000200181905550600060158481548110151561420c57fe5b9060005260206000200181905550601580548091906001900361422f9190614f21565b50600060166000878152602001908152602001600020819055508360166000848152602001908152602001600020819055506007600060068781548110151561427457fe5b906000526020600020906003020160000160009054906101000a900463ffffffff1663ffffffff1663ffffffff1681526020019081526020016000206006015490506142c03382613630565b7f5aa0c75e571d3ecae876f03a84d247806f1af6caf4f377701179de62b7095f1433866006888154811015156142f257fe5b906000526020600020906003020160000160009054906101000a900463ffffffff1684604051808573ffffffffffffffffffffffffffffffffffffffff1673ffffffffffffffffffffffffffffffffffffffff1681526020018481526020018363ffffffff16815260200182815260200194505050505060405180910390a160068581548110151561438057fe5b9060005260206000209060030201600080820160006101000a81549063ffffffff0219169055600182016000905560028201600090555050505050505050565b600073ffffffffffffffffffffffffffffffffffffffff168173ffffffffffffffffffffffffffffffffffffffff16141515156143fc57600080fd5b8073ffffffffffffffffffffffffffffffffffffffff166000809054906101000a900473ffffffffffffffffffffffffffffffffffffffff1673ffffffffffffffffffffffffffffffffffffffff167f8be0079c531659141344cd1fd0a4f28419497f9722a3daafe3b4186f6b6457e060405160405180910390a3806000806101000a81548173ffffffffffffffffffffffffffffffffffffffff021916908373ffffffffffffffffffffffffffffffffffffffff16021790555050565b600081830190508281101515156144cd57fe5b80905092915050565b6144e08282614968565b601580549050601660008381526020019081526020016000208190555060158190806001815401808255809150509060018203906000526020600020016000909192909190915055505050565b606061456c8383602060405190810160405280600081525060206040519081016040528060008152506020604051908101604052806000815250614a0e565b905092915050565b61457d82611e10565b151561458857600080fd5b806017600084815260200190815260200160002090805190602001906145af929190614e23565b505050565b8173ffffffffffffffffffffffffffffffffffffffff166145d482611eba565b73ffffffffffffffffffffffffffffffffffffffff161415156145f657600080fd5b6146496001600f60008573ffffffffffffffffffffffffffffffffffffffff1673ffffffffffffffffffffffffffffffffffffffff16815260200190815260200160002054613dc390919063ffffffff16565b600f60008473ffffffffffffffffffffffffffffffffffffffff1673ffffffffffffffffffffffffffffffffffffffff168152602001908152602001600020819055506000600d600083815260200190815260200160002060006101000a81548173ffffffffffffffffffffffffffffffffffffffff021916908373ffffffffffffffffffffffffffffffffffffffff1602179055505050565b600073ffffffffffffffffffffffffffffffffffffffff16600d600083815260200190815260200160002060009054906101000a900473ffffffffffffffffffffffffffffffffffffffff1673ffffffffffffffffffffffffffffffffffffffff1614151561475157600080fd5b81600d600083815260200190815260200160002060006101000a81548173ffffffffffffffffffffffffffffffffffffffff021916908373ffffffffffffffffffffffffffffffffffffffff1602179055506147f66001600f60008573ffffffffffffffffffffffffffffffffffffffff1673ffffffffffffffffffffffffffffffffffffffff168152602001908152602001600020546144ba90919063ffffffff16565b600f60008473ffffffffffffffffffffffffffffffffffffffff1673ffffffffffffffffffffffffffffffffffffffff168152602001908152602001600020819055505050565b6000816001430340846040518083600019166000191681526020018281526020019250505060405180910390206001900481151561487757fe5b06905092915050565b614888614f4d565b614890614f4d565b60c060405190810160405280600060ff168152602001600060ff168152602001600160ff168152602001600660ff168152602001601860ff168152602001606460ff16815250905080915050919050565b600080823b905060008111915050919050565b6148fe82826139d1565b6149088282613ad4565b80600073ffffffffffffffffffffffffffffffffffffffff168373ffffffffffffffffffffffffffffffffffffffff167fddf252ad1be2c89b69c2b068fc378daa952ba7f163c4a11628f55a4df523b3ef60405160405180910390a45050565b600073ffffffffffffffffffffffffffffffffffffffff168273ffffffffffffffffffffffffffffffffffffffff16141515156149a457600080fd5b6149ae8282613cec565b808273ffffffffffffffffffffffffffffffffffffffff16600073ffffffffffffffffffffffffffffffffffffffff167fddf252ad1be2c89b69c2b068fc378daa952ba7f163c4a11628f55a4df523b3ef60405160405180910390a45050565b6060806060806060806060806000808e98508d97508c96508b95508a94508451865188518a518c51010101016040519080825280601f01601f191660200182016040528015614a6c5781602001602082028038833980820191505090505b50935083925060009150600090505b8851811015614b2e578881815181101515614a9257fe5b9060200101517f010000000000000000000000000000000000000000000000000000000000000090047f0100000000000000000000000000000000000000000000000000000000000000028383806001019450815181101515614af157fe5b9060200101907effffffffffffffffffffffffffffffffffffffffffffffffffffffffffffff1916908160001a9053508080600101915050614a7b565b600090505b8751811015614be6578781815181101515614b4a57fe5b9060200101517f010000000000000000000000000000000000000000000000000000000000000090047f0100000000000000000000000000000000000000000000000000000000000000028383806001019450815181101515614ba957fe5b9060200101907effffffffffffffffffffffffffffffffffffffffffffffffffffffffffffff1916908160001a9053508080600101915050614b33565b600090505b8651811015614c9e578681815181101515614c0257fe5b9060200101517f010000000000000000000000000000000000000000000000000000000000000090047f0100000000000000000000000000000000000000000000000000000000000000028383806001019450815181101515614c6157fe5b9060200101907effffffffffffffffffffffffffffffffffffffffffffffffffffffffffffff1916908160001a9053508080600101915050614beb565b600090505b8551811015614d56578581815181101515614cba57fe5b9060200101517f010000000000000000000000000000000000000000000000000000000000000090047f0100000000000000000000000000000000000000000000000000000000000000028383806001019450815181101515614d1957fe5b9060200101907effffffffffffffffffffffffffffffffffffffffffffffffffffffffffffff1916908160001a9053508080600101915050614ca3565b600090505b8451811015614e0e578481815181101515614d7257fe5b9060200101517f010000000000000000000000000000000000000000000000000000000000000090047f0100000000000000000000000000000000000000000000000000000000000000028383806001019450815181101515614dd157fe5b9060200101907effffffffffffffffffffffffffffffffffffffffffffffffffffffffffffff1916908160001a9053508080600101915050614d5b565b82995050505050505050505095945050505050565b828054600181600116156101000203166002900490600052602060002090601f016020900481019282601f10614e6457805160ff1916838001178555614e92565b82800160010185558215614e92579182015b82811115614e91578251825591602001919060010190614e76565b5b509050614e9f9190614fb8565b5090565b61012060405190810160405280600063ffffffff16815260200160608152602001606081526020016000815260200160008152602001600081526020016000815260200160008152602001600060ff1681525090565b606060405190810160405280600063ffffffff16815260200160008152602001600081525090565b815481835581811115614f4857818360005260206000209182019101614f479190614fb8565b5b505050565b60c060405190810160405280600690602082028038833980820191505090505090565b50805460018160011615610100020316600290046000825580601f10614f965750614fb5565b601f016020900490600052602060002090810190614fb49190614fb8565b5b50565b614fda91905b80821115614fd6576000816000905550600101614fbe565b5090565b905600a165627a7a72305820a658b675eeff44a664bfcfc3d40c6ec60df2d6873c8718cfb48ab1a91bfdadb80029",
  "source": "pragma solidity ^0.4.24;\n\n/******************************************\n\nOur Matra our Motto for coding The Cryptoz Universe.buy\n\n      Fail EARLY and Fail LOUD !!!!!!!\n\n1.    First - Check all pre-conditions\n2.    Then  - make changes to contract state\n3.    Final - interact with other contracts\n\nPull funds over pushing them\nPlatform limits like max of 1023 loop interations.\n\nall Events start with Log\n\n******************************************/\n\nimport \"./CryptozCard.sol\";\n\ncontract Cryptoz is CryptozCard{\n    \n//Constants\n    uint private weiCostOfCard = 2000000000000000; //in wei = 0.002 ETH\n    uint private czxpGainedBoosterPurchase = 120;\n\n//Event Logs\n    event LogCardTypeLoaded(uint32 cardTypeId, string cardName);\n    event LogCardPurchased(uint32 cardTypeId, uint editionNumber, address buyer);\n    event LogPackOpened(address buyer, uint packsOpened);\n//storage\n    \n    //Tracking booster pack count ownership. These are NOT tokens, just a counter\n    mapping (address => uint256) public boosterPacksOwned;\n    \n    //where we hold inventory of the  booster packs\n    mapping(uint8 => uint32[]) public allBoosterCardIds; // [rarityId][cardId]\n    \n    //check if cardType exists\n    modifier isValidCard(uint32 _cardTypeId) {\n//TIGHTEN   //Make sure cardType exists and we dont have bad data coming in\n        require(allCardTypes[_cardTypeId].cardTypeId == _cardTypeId);\n        require(storeBoosterBonus[_cardTypeId] < 1); //you cant get cards marked for booster pack or bonus\n        _;\n    }\n    \n    \n    function() public {\n        revert();\n    }\n    \n    //Set our cxzp contract in the constructor\n    constructor(address _czxpContractAddress) public {\n        CzxpContractAddress_ = _czxpContractAddress;\n    }\n\n    function loadNewCardType(\n            uint8 _cardTypeId,\n            string _name,\n            string _set,\n            uint8 _assetType,\n            uint8 _notStoreOrBonus,\n            uint8 _rarity,\n            uint16 _totalAvailable,\n            uint256 _weiCost,\n            uint256 _buyCzxp\n        ) public onlyOwner returns(bool){\n            \n        //what requires should we add ?\n        \n        allCardTypes[_cardTypeId].cardTypeId    = _cardTypeId;\n        allCardTypes[_cardTypeId].name          = _name;\n        allCardTypes[_cardTypeId].set           = _set;\n        cardAssetType[_cardTypeId]              = _assetType;\n        storeBoosterBonus[_cardTypeId]          = _notStoreOrBonus;\n        rarity[_cardTypeId]                     = _rarity;\n        totalAvailable[_cardTypeId]             = _totalAvailable;\n        allCardTypes[_cardTypeId].weiCost       = _weiCost;\n        allCardTypes[_cardTypeId].buyCzxp       = _buyCzxp;\n    \n        //If she be booster worthy\n        if(_notStoreOrBonus == 1){ // 0=store,1=booster,3=bonus\n            allBoosterCardIds[_rarity].push(_cardTypeId);\n        }\n        \n        //Track the cardTypeIds count\n        cardTypesIds.push(_cardTypeId);\n        \n        emit LogCardTypeLoaded(_cardTypeId, _name);\n        return true;\n    }\n\n    function addTocardType(\n                        uint32  _cardTypeId,\n                        uint256 _transferCzxp,\n                        uint256 _sacrificeCzxp,\n                        uint256 _unlockCzxp,\n                        uint8 _cardLevel\n                      ) public onlyOwner returns(bool){\n                          \n        require(allCardTypes[_cardTypeId].cardTypeId == _cardTypeId);\n        allCardTypes[_cardTypeId].transferCzxp  = _transferCzxp;\n        allCardTypes[_cardTypeId].sacrificeCzxp = _sacrificeCzxp;\n        allCardTypes[_cardTypeId].unlockCzxp    = _unlockCzxp;\n        allCardTypes[_cardTypeId].cardLevel     = _cardLevel;\n        \n        //initialize editionNumber\n        cardTypeToEdition[_cardTypeId] = 0;\n        \n        emit LogCardTypeLoaded(_cardTypeId,allCardTypes[_cardTypeId].name);\n        return true;\n    }\n\n    /**\n     *  Public interface to purchase a card, probablly the most insecure entry point !\n     */\n    function buyCard(uint32 _cardTypeId) public payable isValidCard(_cardTypeId) returns(bool) {\n        \n        // dont even bother if no ETH sent\n        require(msg.value > 0);\n        \n        //check for valid cardType\n        require(allCardTypes[_cardTypeId].cardTypeId == _cardTypeId);\n        \n        cardType memory _tempCard = allCardTypes[_cardTypeId];\n        \n        //check if store only\n        require(storeBoosterBonus[_cardTypeId] == 0);\n        \n        //Can't buy cards you own\n        require(cardTypesOwned[msg.sender][_cardTypeId] == false);\n         \n        //Check if this card amount we sell is more than edition+1 for this card type\n        require((totalAvailable[_cardTypeId] > cardTypeToEdition[_cardTypeId] + 1 ));\n        \n        //check if they have paid enough for it\n        require(msg.value >= _tempCard.weiCost);\n        \n        //check if we have enough czxp to unlock this card\n        uint czxp = CzxpToken(CzxpContractAddress_).balanceOf(msg.sender);\n        require(czxp >= _tempCard.unlockCzxp);\n        \n    //Clear ? to buy the card\n        \n        //Let the universe award our friend\n        super.awardCzxp(msg.sender, allCardTypes[_cardTypeId].buyCzxp);\n    \n        //Mint the real token and pass czxp gained for logging\n        uint _newId = super._createCard(_cardTypeId, msg.sender,allCardTypes[_cardTypeId].buyCzxp);\n        \n        //Track the type of card puchased for this owner, so they cant buy again\n        cardTypesOwned[msg.sender][_cardTypeId] = true;\n        \n        return true;\n    }\n    \n    /**\n     *  Public interface to get card at no cost\n     */\n    function getFreeCard(uint32 _cardTypeId) public isValidCard(_cardTypeId) {\n        //check if store only\n        require(storeBoosterBonus[_cardTypeId] == 0);\n        \n        // ensure there is enough of a supply left\n        require(totalAvailable[_cardTypeId] > (cardTypeToEdition[_cardTypeId]+1));\n        \n        //Can't get cards From shop that you own\n        require(cardTypesOwned[msg.sender][_cardTypeId] == false);\n        \n        //check if we have enough czxp to unlock this card\n        uint czxp = CzxpToken(CzxpContractAddress_).balanceOf(msg.sender);\n        require(czxp >= allCardTypes[_cardTypeId].unlockCzxp);\n        \n        //Only cards that are Free\n        require(allCardTypes[_cardTypeId].weiCost == 0);\n\n//ALL CLEAR ???????? claim a new card\n    \n        //Let the universe award our friend\n        super.awardCzxp(msg.sender, allCardTypes[_cardTypeId].buyCzxp);\n    \n        uint _newId = super._createCard(_cardTypeId, msg.sender, allCardTypes[_cardTypeId].buyCzxp);\n        \n        //Track the type of card puchased for this owner, so they cant buy again\n        cardTypesOwned[msg.sender][_cardTypeId] = true;\n    }\n    \n    function getOwnedCard(uint cardId) public view returns (uint32, uint, uint) {\n        //returned a flattened version of the Card\n        return(Cards[cardId].cardTypeId, Cards[cardId].editionNumber, Cards[cardId].transferCount);\n    }\n    \n    \n    /**\n     *  Any user can sacrifice any card they own. Please don't burn down the universe :'(\n     */\n     function sacrifice(uint256 _cardId) public {\n         //Call our internal burn function does all our owner checks\n         _burn(msg.sender, _cardId);\n     }\n    \n//Booster Pack functions\n    \n    /**\n     *  Public interface to buy booster card(s)\n     */\n    function buyBoosterCard() payable public returns(bool) {\n        \n        // is there enough wei sent 1 pack = 0.002 ETH ?\n        require(msg.value >= weiCostOfCard);\n        \n        //All good increase the number owned\n        boosterPacksOwned[msg.sender] = boosterPacksOwned[msg.sender].add(1);\n\n        //Award czxp for booster\n        super.awardCzxp(msg.sender, uint(czxpGainedBoosterPurchase));\n\n        return true;\n    }\n    \n    /**\n     *  Public interface to buy booster pack(s) and open them - NO burn option\n     */\n    function buyBoosterCardAndOpen() payable public {\n        // is there enough wei sent 1 pack = 0.005 ETH ?\n        require(msg.value >= weiCostOfCard);\n        \n        //All good increase the number owned\n        boosterPacksOwned[msg.sender] = boosterPacksOwned[msg.sender].add(1);\n\n        //Award czxp per pack\n        super.awardCzxp(msg.sender, czxpGainedBoosterPurchase*1);\n        \n        //Now open the pack\n        openBoosterCard(0);\n    }\n    \n    /**\n     *  Public interface to open already purchased booster pack(s) - NO burn option\n     */\n    function openBoosterCard(uint czxpWager) public returns(bool) {\n        //Ensure user owns unopened packs\n        require(boosterPacksOwned[msg.sender] > 0);\n        \n        //czxpWager check czxpWager\n        require(czxpWager >= 0);\n        \n        //decrement number of packs\n        boosterPacksOwned[msg.sender] = boosterPacksOwned[msg.sender].sub(1);\n        \n        //Pull the cards, 3 pulls per pack\n        //for (uint i=0; i<(_numberOfPacks*3); i++) {\n        // we cant do random more than once per block\n        uint8 rarity = getRarity(czxpWager);\n        pullCard(rarity);\n        //}\n        \n        //Send a log event\n        emit LogPackOpened(msg.sender, 1);\n        \n        return true;\n    }\n    \n//Private\n\n    /**\n     *\n     */\n     function pullCard(uint8 rarity) private {\n         \n         //Get a random number for the card to pull\n         uint rand = selectRandom(uint(msg.sender), allBoosterCardIds[rarity].length);\n         \n         //hit up the cardTypes\n         uint32 pulledId = allBoosterCardIds[rarity][rand];\n         \n        //Give the player this cardTypes\n        uint _newId = super._createCard(pulledId, msg.sender, 100);\n     }\n    \n    /**\n     *  Private function to diceroll the rarity pull Only from booster packs\n     */\n    function getRarity(uint czxpWager) private returns(uint8){\n        \n        //grab a random number\n        uint rand = selectRandom(uint(msg.sender),100);\n        \n        //get our probabilty distribution\n        uint8[6] memory probs = burnAndBoost(0); // zero czxp waged for this pull\n        \n        //Get the rarity for this pull from the probs\n        // 3=epic, 4=rare, 5=uncommon, 6=commmon\n        for(uint8 i=2; i < probs.length; i++){\n            if(rand <= probs[i]){\n                return i;\n            }\n        }\n    }\n    \n    /**\n     * Private Booster distribution function\n     */\n     function burnAndBoost(uint czxpWager) private returns(uint8[6]) {\n         //default distribution is 1,5,24,100\n         uint8[6] memory probs = [0,0,1,6,24,100];\n         \n         //if wager is greater than 0, get new distribution\n         if(czxpWager > 0){\n                   // 5 * (10**7)\n         //fixed x = czxpWager/300000;\n         //ufixed dist = 2.7182818**x;\n         }\n         \n        return probs;\n     }\n\n\n//Thanks! for supporting the Cryptoz universe <3 <3 <3\n    /**\n    * Withdraw balance to wallet\n    **/\n   function withdraw() public onlyOwner {\n      msg.sender.transfer(address(this).balance);\n   }\n}",
  "sourcePath": "/home/rprice/Downloads/cryptoz.cards/contracts/Cryptoz.sol",
  "compiler": {
    "name": "solc",
    "version": "0.4.24+commit.e67f0147.Emscripten.clang"
  },
  "schemaVersion": "2.0.1",
  "updatedAt": "2019-01-04T06:18:50.674Z"
}