{
  "contractName": "CryptozUniverse",
  "abi": [
    {
      "constant": true,
      "inputs": [
        {
          "name": "",
          "type": "uint32"
        }
      ],
      "name": "allCardTypes",
      "outputs": [
        {
          "name": "cardTypeId",
          "type": "uint32"
        },
        {
          "name": "name",
          "type": "string"
        },
        {
          "name": "set",
          "type": "string"
        },
        {
          "name": "weiCost",
          "type": "uint256"
        },
        {
          "name": "buyCzxp",
          "type": "uint256"
        },
        {
          "name": "transferCzxp",
          "type": "uint256"
        },
        {
          "name": "sacrificeCzxp",
          "type": "uint256"
        },
        {
          "name": "unlockCzxp",
          "type": "uint256"
        },
        {
          "name": "cardLevel",
          "type": "uint8"
        }
      ],
      "payable": false,
      "stateMutability": "view",
      "type": "function"
    },
    {
      "constant": false,
      "inputs": [],
      "name": "renounceOwnership",
      "outputs": [],
      "payable": false,
      "stateMutability": "nonpayable",
      "type": "function"
    },
    {
      "constant": true,
      "inputs": [
        {
          "name": "",
          "type": "uint256"
        }
      ],
      "name": "rarity",
      "outputs": [
        {
          "name": "",
          "type": "uint8"
        }
      ],
      "payable": false,
      "stateMutability": "view",
      "type": "function"
    },
    {
      "constant": true,
      "inputs": [],
      "name": "owner",
      "outputs": [
        {
          "name": "",
          "type": "address"
        }
      ],
      "payable": false,
      "stateMutability": "view",
      "type": "function"
    },
    {
      "constant": true,
      "inputs": [],
      "name": "isOwner",
      "outputs": [
        {
          "name": "",
          "type": "bool"
        }
      ],
      "payable": false,
      "stateMutability": "view",
      "type": "function"
    },
    {
      "constant": true,
      "inputs": [
        {
          "name": "",
          "type": "uint256"
        }
      ],
      "name": "cardTypesIds",
      "outputs": [
        {
          "name": "",
          "type": "uint256"
        }
      ],
      "payable": false,
      "stateMutability": "view",
      "type": "function"
    },
    {
      "constant": true,
      "inputs": [
        {
          "name": "",
          "type": "uint256"
        }
      ],
      "name": "cardTypeToEdition",
      "outputs": [
        {
          "name": "",
          "type": "uint256"
        }
      ],
      "payable": false,
      "stateMutability": "view",
      "type": "function"
    },
    {
      "constant": false,
      "inputs": [
        {
          "name": "newOwner",
          "type": "address"
        }
      ],
      "name": "transferOwnership",
      "outputs": [],
      "payable": false,
      "stateMutability": "nonpayable",
      "type": "function"
    },
    {
      "payable": false,
      "stateMutability": "nonpayable",
      "type": "fallback"
    },
    {
      "anonymous": false,
      "inputs": [
        {
          "indexed": true,
          "name": "beneficiary",
          "type": "address"
        },
        {
          "indexed": false,
          "name": "czxpAmount",
          "type": "uint256"
        }
      ],
      "name": "CZXPGained",
      "type": "event"
    },
    {
      "anonymous": false,
      "inputs": [
        {
          "indexed": true,
          "name": "previousOwner",
          "type": "address"
        },
        {
          "indexed": true,
          "name": "newOwner",
          "type": "address"
        }
      ],
      "name": "OwnershipTransferred",
      "type": "event"
    },
    {
      "constant": true,
      "inputs": [],
      "name": "getTotalTypes",
      "outputs": [
        {
          "name": "",
          "type": "uint256"
        }
      ],
      "payable": false,
      "stateMutability": "view",
      "type": "function"
    },
    {
      "constant": false,
      "inputs": [
        {
          "name": "wager",
          "type": "uint256"
        }
      ],
      "name": "getProbs",
      "outputs": [
        {
          "name": "",
          "type": "uint16"
        },
        {
          "name": "",
          "type": "uint16"
        },
        {
          "name": "",
          "type": "uint16"
        },
        {
          "name": "",
          "type": "uint16"
        }
      ],
      "payable": false,
      "stateMutability": "nonpayable",
      "type": "function"
    }
  ],
  "bytecode": "0x60c0604052601b60808190527f68747470733a2f2f63727970746f7a2e63617264732f646174612f000000000060a090815261003e91600191906100fa565b506000600b5560408051608081018252600181526002602082015260039181019190915260046060820181905261007791600c91610178565b50604080516080810182526001815260026020820152600691810191909152601860608201526100ab906010906004610178565b50600080546001600160a01b03191633178082556040516001600160a01b039190911691907f8be0079c531659141344cd1fd0a4f28419497f9722a3daafe3b4186f6b6457e0908290a36101c8565b828054600181600116156101000203166002900490600052602060002090601f016020900481019282601f1061013b57805160ff1916838001178555610168565b82800160010185558215610168579182015b8281111561016857825182559160200191906001019061014d565b506101749291506101ab565b5090565b8260048101928215610168579160200282015b82811115610168578251829060ff1690559160200191906001019061018b565b6101c591905b8082111561017457600081556001016101b1565b90565b61090e806101d76000396000f3fe608060405234801561001057600080fd5b506004361061009e5760003560e01c80638da5cb5b116100665780638da5cb5b1461028a5780638f32d59b146102ae578063918923c4146102ca578063b4a16769146102e7578063f2fde38b146103045761009e565b806342ed1d29146100a3578063715018a6146101e75780637f276455146101f15780638adb70861461020b5780638b58c56914610257575b600080fd5b6100c6600480360360208110156100b957600080fd5b503563ffffffff1661032a565b604051808a63ffffffff1663ffffffff16815260200180602001806020018981526020018881526020018781526020018681526020018581526020018460ff1660ff16815260200183810383528b818151815260200191508051906020019080838360005b8381101561014357818101518382015260200161012b565b50505050905090810190601f1680156101705780820380516001836020036101000a031916815260200191505b5083810382528a5181528a516020918201918c019080838360005b838110156101a357818101518382015260200161018b565b50505050905090810190601f1680156101d05780820380516001836020036101000a031916815260200191505b509b50505050505050505050505060405180910390f35b6101ef610497565b005b6101f96104f2565b60408051918252519081900360200190f35b6102286004803603602081101561022157600080fd5b50356104f8565b6040805161ffff9586168152938516602085015291841683830152909216606082015290519081900360800190f35b6102746004803603602081101561026d57600080fd5b503561060f565b6040805160ff9092168252519081900360200190f35b610292610624565b604080516001600160a01b039092168252519081900360200190f35b6102b6610633565b604080519115158252519081900360200190f35b6101f9600480360360208110156102e057600080fd5b5035610644565b6101f9600480360360208110156102fd57600080fd5b5035610662565b6101ef6004803603602081101561031a57600080fd5b50356001600160a01b0316610674565b6007602090815260009182526040918290208054600180830180548651600261010094831615949094026000190190911692909204601f810186900486028301860190965285825263ffffffff9092169492939092908301828280156103d15780601f106103a6576101008083540402835291602001916103d1565b820191906000526020600020905b8154815290600101906020018083116103b457829003601f168201915b50505060028085018054604080516020601f60001961010060018716150201909416959095049283018590048502810185019091528181529596959450909250908301828280156104635780601f1061043857610100808354040283529160200191610463565b820191906000526020600020905b81548152906001019060200180831161044657829003601f168201915b5050506003840154600485015460058601546006870154600788015460089098015496979396929550909350919060ff1689565b61049f610633565b6104a857600080fd5b600080546040516001600160a01b03909116907f8be0079c531659141344cd1fd0a4f28419497f9722a3daafe3b4186f6b6457e0908390a3600080546001600160a01b0319169055565b60085490565b6000808080805b6004811015610563576010816004811061051557fe5b015461052087610691565b600c836004811061052d57fe5b015461053889610691565b0a8161054057fe5b048161054857fe5b046064026014826004811061055957fe5b01556001016104ff565b5060175460165460155460145401010160005b60048110156105da57816014826004811061058d57fe5b0154612710028161059a57fe5b04601882600481106105a857fe5b601091828204019190066002026101000a81548161ffff021916908361ffff1602179055508080600101915050610576565b505060185461ffff80821697620100008304821697506401000000008304821696506601000000000000909204169350915050565b60046020526000908152604090205460ff1681565b6000546001600160a01b031690565b6000546001600160a01b0316331490565b6008818154811061065157fe5b600091825260209091200154905081565b60096020526000908152604090205481565b61067c610633565b61068557600080fd5b61068e816106ad565b50565b6000806106a2620445c0840461071b565b600490049392505050565b6001600160a01b0381166106c057600080fd5b600080546040516001600160a01b03808516939216917f8be0079c531659141344cd1fd0a4f28419497f9722a3daafe3b4186f6b6457e091a3600080546001600160a01b0319166001600160a01b0392909216919091179055565b604080517ff8f9cbfae6cc78fbefe7cdc3a1793dfcf4f0e8bbd8cec470b6a28a7a5a3e1efd81527ff5ecf1b3e9debc68e1d9cfabc5997135bfb7a7a3938b7b606b5b4b3f2f1f0ffe60208201527ff6e4ed9ff2d6b458eadcdf97bd91692de2d4da8fd2d0ac50c6ae9a8272523616818301527fc8c0b887b0a8a4489c948c7f847c6125746c645c544c444038302820181008ff60608201527ff7cae577eec2a03cf3bad76fb589591debb2dd67e0aa9834bea6925f6a4a2e0e60808201527fe39ed557db96902cd38ed14fad815115c786af479b7e8324736353433727170760a08201527fc976c13bb96e881cb166a933a55e490d9d56952b8d4e801485467d236242260660c08201527f753a6d1b65325d0c552a4d1345224105391a310b29122104190a11030902010060e0820152610100808201909252600160f81b6001600160801b68010000000000000000640100000000620100006010600460026000198c019081041790810417908104178881041790810417908104179081041790810417017e818283848586878898a8b8c8d8e8f929395969799a9b9d9e9faaeb6bedeeff0281900460ff039091015104600160ff1b90921102019056fea265627a7a72305820fc75da76d01fc67f05fab98c19abd242421b44ebfac256383574852cc624dcc464736f6c63430005090032",
  "source": "pragma solidity ^0.5.0;\n\n/******************************************\n\nOur Matra our Motto for coding The Cryptoz Universe.\n\n      Fail EARLY and Fail LOUD !!!!!!!\n\n1.    First - Check all pre-conditions\n2.    Then  - make changes to contract state\n3.    Final - interact with other contracts\n\nPull funds over pushing them\nPlatform limits like max of 1023 loop interations.\n\nall Events start with Log\n\n******************************************/\nimport \"./CZXPToken.sol\";\nimport \"openzeppelin-solidity/contracts/ownership/Ownable.sol\";\nimport \"openzeppelin-solidity/contracts/math/SafeMath.sol\";\n\ncontract CryptozUniverse is Ownable {\n    using SafeMath for uint256;\n\n//Definitons\n    struct cardType{\n        uint32 cardTypeId;\n        string name;\n        string set;\n        //uint8 assetType; //1=human,2=animal,3=plant, 4=thing\n        //uint8 notStoreOrBonus; //0 =inStore, 1 = pack, 2= bonus\n        //uint8 rarity; //1 = diamond,6 = common\n        //uint16 totalAvailable;\n        uint256 weiCost;\n        uint256 buyCzxp;\n        uint256 transferCzxp;\n        uint256 sacrificeCzxp;\n        uint256 unlockCzxp;\n        uint8 cardLevel;\n    }\n\n    struct Card{\n        uint32 cardTypeId;\n        uint256 editionNumber;\n        uint256 transferCount;\n    }\n\n    string baseTokenURI = 'https://cryptoz.cards/data/'; //append ID on\n//storage\n\n    //Containers for the card types\n    mapping(uint256 => uint8) cardAssetType;\n    mapping(uint256 => uint8) storeBoosterBonus;\n    mapping(uint256 => uint8) public rarity; // lookup cardTypeId return rarity\n    mapping(uint256 => uint16) totalAvailable;\n\n    //All the cards in the Cryptoz Universe\n    Card[] internal Cards;\n\n    mapping(uint32 => cardType) public allCardTypes;        // All card type definitions\n    uint256[] public cardTypesIds; //Just an array of all the id\n\n    //track editionNumberTotal, always increments, starts at 1\n    mapping(uint256 => uint256) public cardTypeToEdition;\n\n// Event Logs\n    event CZXPGained(address indexed beneficiary, uint256 czxpAmount);\n\n//Other variables we need\n    address payable internal CzxpContractAddress_;\n\n\n    /**\n     * Not much going on here so exit.\n     */\n    function() external{\n        revert();\n    }\n\n    /**\n     *\n     */\n     function getTotalTypes() public view returns(uint){\n         return cardTypesIds.length;\n     }\n\n    /**\n     *  Internal function called from Cryptoz once all the checks are done\n     */\n    function awardCzxp(address _beneficiary, uint czxpReward) internal {\n        //Give the czxp tokens\n        CzxpToken(CzxpContractAddress_).awardCzxp(_beneficiary, czxpReward);\n    }\n\n    /**\n     * Random as it gets for now. Return a val between 1-10000\n     */\n    uint nonce = 0; \n    function selectRandom(uint256 range) internal returns (uint) {\n        uint randomnumber = uint(keccak256(abi.encodePacked(now, msg.sender, nonce))) % range;\n        //randomnumber = randomnumber + 100;\n        nonce++;\n        return randomnumber;\n    }\n\n    uint[4] group = [1,2,3,4];\n    uint[4] Fac = [1,2,6,24];\n    uint[4] DistGroup;\n    uint16[4] FinalProbs;\n    \n    function getProbs(uint wager) public returns (uint16,uint16,uint16,uint16)  {\n\n        for(uint i=0; i<4; i++){\n            DistGroup[i] = (((getLambda(wager)**group[i]) / getLambda(wager)) / Fac[i]) * 100;\n        }\n        \n        uint DistTotal = DistGroup[0] + DistGroup[1] + DistGroup[2] + DistGroup[3];\n        \n        for(uint j=0; j<4; j++){\n            FinalProbs[j] = uint16(DistGroup[j] * 10000 / DistTotal);\n        }\n        return(FinalProbs[0],FinalProbs[1],FinalProbs[2],FinalProbs[3]);\n    }\n    \n    function getLambda(uint wager) internal returns (uint) {\n        uint Dist   = log2(wager / 280000);\n        return Dist / 4;\n    }\n    \n    function log2(uint x) internal returns (uint y){\n       assembly {\n            let arg := x\n            x := sub(x,1)\n            x := or(x, div(x, 0x02))\n            x := or(x, div(x, 0x04))\n            x := or(x, div(x, 0x10))\n            x := or(x, div(x, 0x100))\n            x := or(x, div(x, 0x10000))\n            x := or(x, div(x, 0x100000000))\n            x := or(x, div(x, 0x10000000000000000))\n            x := or(x, div(x, 0x100000000000000000000000000000000))\n            x := add(x, 1)\n            let m := mload(0x40)\n            mstore(m,           0xf8f9cbfae6cc78fbefe7cdc3a1793dfcf4f0e8bbd8cec470b6a28a7a5a3e1efd)\n            mstore(add(m,0x20), 0xf5ecf1b3e9debc68e1d9cfabc5997135bfb7a7a3938b7b606b5b4b3f2f1f0ffe)\n            mstore(add(m,0x40), 0xf6e4ed9ff2d6b458eadcdf97bd91692de2d4da8fd2d0ac50c6ae9a8272523616)\n            mstore(add(m,0x60), 0xc8c0b887b0a8a4489c948c7f847c6125746c645c544c444038302820181008ff)\n            mstore(add(m,0x80), 0xf7cae577eec2a03cf3bad76fb589591debb2dd67e0aa9834bea6925f6a4a2e0e)\n            mstore(add(m,0xa0), 0xe39ed557db96902cd38ed14fad815115c786af479b7e83247363534337271707)\n            mstore(add(m,0xc0), 0xc976c13bb96e881cb166a933a55e490d9d56952b8d4e801485467d2362422606)\n            mstore(add(m,0xe0), 0x753a6d1b65325d0c552a4d1345224105391a310b29122104190a110309020100)\n            mstore(0x40, add(m, 0x100))\n            let magic := 0x818283848586878898a8b8c8d8e8f929395969799a9b9d9e9faaeb6bedeeff\n            let shift := 0x100000000000000000000000000000000000000000000000000000000000000\n            let a := div(mul(x, magic), shift)\n            y := div(mload(add(m,sub(255,a))), shift)\n            y := add(y, mul(256, gt(arg, 0x8000000000000000000000000000000000000000000000000000000000000000)))\n        }\n    }\n}\n",
  "sourcePath": "/home/rprice/Downloads/cryptoz.cards/contracts/CryptozUniverse.sol",
  "compiler": {
    "name": "solc",
    "version": "0.5.9+commit.e560f70d.Emscripten.clang"
  },
  "schemaVersion": "3.0.11",
  "updatedAt": "2019-08-22T03:37:49.471Z",
  "devdoc": {
    "methods": {
      "isOwner()": {
        "return": "true if `msg.sender` is the owner of the contract."
      },
      "owner()": {
        "return": "the address of the owner."
      },
      "renounceOwnership()": {
        "details": "Allows the current owner to relinquish control of the contract. It will not be possible to call the functions with the `onlyOwner` modifier anymore."
      },
      "transferOwnership(address)": {
        "details": "Allows the current owner to transfer control of the contract to a newOwner.",
        "params": {
          "newOwner": "The address to transfer ownership to."
        }
      }
    }
  },
  "userdoc": {
    "methods": {
      "renounceOwnership()": {
        "notice": "Renouncing ownership will leave the contract without an owner, thereby removing any functionality that is only available to the owner."
      }
    }
  }
}