{
  "contractName": "Cryptoz",
  "abi": [
    {
      "constant": true,
      "inputs": [
        {
          "name": "interfaceId",
          "type": "bytes4"
        }
      ],
      "name": "supportsInterface",
      "outputs": [
        {
          "name": "",
          "type": "bool"
        }
      ],
      "payable": false,
      "stateMutability": "view",
      "type": "function"
    },
    {
      "constant": true,
      "inputs": [],
      "name": "name",
      "outputs": [
        {
          "name": "_name",
          "type": "string"
        }
      ],
      "payable": false,
      "stateMutability": "view",
      "type": "function"
    },
    {
      "constant": true,
      "inputs": [
        {
          "name": "tokenId",
          "type": "uint256"
        }
      ],
      "name": "getApproved",
      "outputs": [
        {
          "name": "",
          "type": "address"
        }
      ],
      "payable": false,
      "stateMutability": "view",
      "type": "function"
    },
    {
      "constant": false,
      "inputs": [
        {
          "name": "to",
          "type": "address"
        },
        {
          "name": "tokenId",
          "type": "uint256"
        }
      ],
      "name": "approve",
      "outputs": [],
      "payable": false,
      "stateMutability": "nonpayable",
      "type": "function"
    },
    {
      "constant": true,
      "inputs": [],
      "name": "totalSupply",
      "outputs": [
        {
          "name": "",
          "type": "uint256"
        }
      ],
      "payable": false,
      "stateMutability": "view",
      "type": "function"
    },
    {
      "constant": false,
      "inputs": [
        {
          "name": "from",
          "type": "address"
        },
        {
          "name": "to",
          "type": "address"
        },
        {
          "name": "tokenId",
          "type": "uint256"
        }
      ],
      "name": "transferFrom",
      "outputs": [],
      "payable": false,
      "stateMutability": "nonpayable",
      "type": "function"
    },
    {
      "constant": true,
      "inputs": [
        {
          "name": "_owner",
          "type": "address"
        },
        {
          "name": "_index",
          "type": "uint256"
        }
      ],
      "name": "tokenOfOwnerByIndex",
      "outputs": [
        {
          "name": "",
          "type": "uint256"
        }
      ],
      "payable": false,
      "stateMutability": "view",
      "type": "function"
    },
    {
      "constant": false,
      "inputs": [
        {
          "name": "from",
          "type": "address"
        },
        {
          "name": "to",
          "type": "address"
        },
        {
          "name": "tokenId",
          "type": "uint256"
        }
      ],
      "name": "safeTransferFrom",
      "outputs": [],
      "payable": false,
      "stateMutability": "nonpayable",
      "type": "function"
    },
    {
      "constant": true,
      "inputs": [
        {
          "name": "",
          "type": "uint32"
        }
      ],
      "name": "allCardTypes",
      "outputs": [
        {
          "name": "cardTypeId",
          "type": "uint32"
        },
        {
          "name": "name",
          "type": "string"
        },
        {
          "name": "set",
          "type": "string"
        },
        {
          "name": "weiCost",
          "type": "uint256"
        },
        {
          "name": "buyCzxp",
          "type": "uint256"
        },
        {
          "name": "transferCzxp",
          "type": "uint256"
        },
        {
          "name": "sacrificeCzxp",
          "type": "uint256"
        },
        {
          "name": "unlockCzxp",
          "type": "uint256"
        },
        {
          "name": "cardLevel",
          "type": "uint8"
        }
      ],
      "payable": false,
      "stateMutability": "view",
      "type": "function"
    },
    {
      "constant": true,
      "inputs": [
        {
          "name": "",
          "type": "uint256"
        }
      ],
      "name": "tokensByRarity",
      "outputs": [
        {
          "name": "",
          "type": "uint256"
        }
      ],
      "payable": false,
      "stateMutability": "view",
      "type": "function"
    },
    {
      "constant": true,
      "inputs": [
        {
          "name": "_index",
          "type": "uint256"
        }
      ],
      "name": "tokenByIndex",
      "outputs": [
        {
          "name": "",
          "type": "uint256"
        }
      ],
      "payable": false,
      "stateMutability": "view",
      "type": "function"
    },
    {
      "constant": true,
      "inputs": [
        {
          "name": "tokenId",
          "type": "uint256"
        }
      ],
      "name": "ownerOf",
      "outputs": [
        {
          "name": "",
          "type": "address"
        }
      ],
      "payable": false,
      "stateMutability": "view",
      "type": "function"
    },
    {
      "constant": true,
      "inputs": [
        {
          "name": "owner",
          "type": "address"
        }
      ],
      "name": "balanceOf",
      "outputs": [
        {
          "name": "",
          "type": "uint256"
        }
      ],
      "payable": false,
      "stateMutability": "view",
      "type": "function"
    },
    {
      "constant": false,
      "inputs": [],
      "name": "renounceOwnership",
      "outputs": [],
      "payable": false,
      "stateMutability": "nonpayable",
      "type": "function"
    },
    {
      "constant": true,
      "inputs": [
        {
          "name": "",
          "type": "address"
        }
      ],
      "name": "boosterPacksOwned",
      "outputs": [
        {
          "name": "",
          "type": "uint256"
        }
      ],
      "payable": false,
      "stateMutability": "view",
      "type": "function"
    },
    {
      "constant": true,
      "inputs": [],
      "name": "getTotalTypes",
      "outputs": [
        {
          "name": "",
          "type": "uint256"
        }
      ],
      "payable": false,
      "stateMutability": "view",
      "type": "function"
    },
    {
      "constant": true,
      "inputs": [
        {
          "name": "",
          "type": "address"
        },
        {
          "name": "",
          "type": "uint256"
        }
      ],
      "name": "cardTypesOwned",
      "outputs": [
        {
          "name": "",
          "type": "bool"
        }
      ],
      "payable": false,
      "stateMutability": "view",
      "type": "function"
    },
    {
      "constant": true,
      "inputs": [
        {
          "name": "_owner",
          "type": "address"
        }
      ],
      "name": "tokensOfOwner",
      "outputs": [
        {
          "name": "ownerTokens",
          "type": "uint256[]"
        }
      ],
      "payable": false,
      "stateMutability": "view",
      "type": "function"
    },
    {
      "constant": true,
      "inputs": [
        {
          "name": "",
          "type": "uint256"
        }
      ],
      "name": "rarity",
      "outputs": [
        {
          "name": "",
          "type": "uint8"
        }
      ],
      "payable": false,
      "stateMutability": "view",
      "type": "function"
    },
    {
      "constant": true,
      "inputs": [],
      "name": "owner",
      "outputs": [
        {
          "name": "",
          "type": "address"
        }
      ],
      "payable": false,
      "stateMutability": "view",
      "type": "function"
    },
    {
      "constant": true,
      "inputs": [],
      "name": "isOwner",
      "outputs": [
        {
          "name": "",
          "type": "bool"
        }
      ],
      "payable": false,
      "stateMutability": "view",
      "type": "function"
    },
    {
      "constant": true,
      "inputs": [
        {
          "name": "",
          "type": "uint256"
        }
      ],
      "name": "cardTypesIds",
      "outputs": [
        {
          "name": "",
          "type": "uint256"
        }
      ],
      "payable": false,
      "stateMutability": "view",
      "type": "function"
    },
    {
      "constant": true,
      "inputs": [],
      "name": "symbol",
      "outputs": [
        {
          "name": "_symbol",
          "type": "string"
        }
      ],
      "payable": false,
      "stateMutability": "view",
      "type": "function"
    },
    {
      "constant": false,
      "inputs": [
        {
          "name": "to",
          "type": "address"
        },
        {
          "name": "approved",
          "type": "bool"
        }
      ],
      "name": "setApprovalForAll",
      "outputs": [],
      "payable": false,
      "stateMutability": "nonpayable",
      "type": "function"
    },
    {
      "constant": true,
      "inputs": [
        {
          "name": "_tokenId",
          "type": "uint256"
        }
      ],
      "name": "getOwnedCard",
      "outputs": [
        {
          "name": "",
          "type": "uint32"
        },
        {
          "name": "",
          "type": "uint256"
        },
        {
          "name": "",
          "type": "uint256"
        }
      ],
      "payable": false,
      "stateMutability": "view",
      "type": "function"
    },
    {
      "constant": true,
      "inputs": [],
      "name": "getTokensByRarity",
      "outputs": [
        {
          "name": "",
          "type": "uint256"
        },
        {
          "name": "",
          "type": "uint256"
        },
        {
          "name": "",
          "type": "uint256"
        },
        {
          "name": "",
          "type": "uint256"
        },
        {
          "name": "",
          "type": "uint256"
        },
        {
          "name": "",
          "type": "uint256"
        }
      ],
      "payable": false,
      "stateMutability": "view",
      "type": "function"
    },
    {
      "constant": true,
      "inputs": [
        {
          "name": "",
          "type": "uint256"
        }
      ],
      "name": "cardTypeToEdition",
      "outputs": [
        {
          "name": "",
          "type": "uint256"
        }
      ],
      "payable": false,
      "stateMutability": "view",
      "type": "function"
    },
    {
      "constant": false,
      "inputs": [
        {
          "name": "from",
          "type": "address"
        },
        {
          "name": "to",
          "type": "address"
        },
        {
          "name": "tokenId",
          "type": "uint256"
        },
        {
          "name": "_data",
          "type": "bytes"
        }
      ],
      "name": "safeTransferFrom",
      "outputs": [],
      "payable": false,
      "stateMutability": "nonpayable",
      "type": "function"
    },
    {
      "constant": true,
      "inputs": [
        {
          "name": "_tokenId",
          "type": "uint256"
        }
      ],
      "name": "tokenURI",
      "outputs": [
        {
          "name": "",
          "type": "string"
        }
      ],
      "payable": false,
      "stateMutability": "view",
      "type": "function"
    },
    {
      "constant": true,
      "inputs": [
        {
          "name": "",
          "type": "address"
        }
      ],
      "name": "sponsors",
      "outputs": [
        {
          "name": "",
          "type": "address"
        }
      ],
      "payable": false,
      "stateMutability": "view",
      "type": "function"
    },
    {
      "constant": true,
      "inputs": [
        {
          "name": "owner",
          "type": "address"
        },
        {
          "name": "operator",
          "type": "address"
        }
      ],
      "name": "isApprovedForAll",
      "outputs": [
        {
          "name": "",
          "type": "bool"
        }
      ],
      "payable": false,
      "stateMutability": "view",
      "type": "function"
    },
    {
      "constant": false,
      "inputs": [
        {
          "name": "newOwner",
          "type": "address"
        }
      ],
      "name": "transferOwnership",
      "outputs": [],
      "payable": false,
      "stateMutability": "nonpayable",
      "type": "function"
    },
    {
      "payable": false,
      "stateMutability": "nonpayable",
      "type": "fallback"
    },
    {
      "anonymous": false,
      "inputs": [
        {
          "indexed": true,
          "name": "cardTypeId",
          "type": "uint32"
        },
        {
          "indexed": false,
          "name": "cardName",
          "type": "string"
        }
      ],
      "name": "LogCardTypeLoaded",
      "type": "event"
    },
    {
      "anonymous": false,
      "inputs": [
        {
          "indexed": true,
          "name": "cardTypeId",
          "type": "uint32"
        },
        {
          "indexed": false,
          "name": "editionNumber",
          "type": "uint256"
        },
        {
          "indexed": true,
          "name": "buyer",
          "type": "address"
        }
      ],
      "name": "LogCardPurchased",
      "type": "event"
    },
    {
      "anonymous": false,
      "inputs": [
        {
          "indexed": true,
          "name": "buyer",
          "type": "address"
        },
        {
          "indexed": false,
          "name": "packsOpened",
          "type": "uint256"
        }
      ],
      "name": "LogPackOpened",
      "type": "event"
    },
    {
      "anonymous": false,
      "inputs": [
        {
          "indexed": false,
          "name": "sponsor",
          "type": "address"
        },
        {
          "indexed": false,
          "name": "affiliate",
          "type": "address"
        }
      ],
      "name": "LogSponsorLinked",
      "type": "event"
    },
    {
      "anonymous": false,
      "inputs": [
        {
          "indexed": false,
          "name": "sponsor",
          "type": "address"
        },
        {
          "indexed": false,
          "name": "affiliate",
          "type": "address"
        },
        {
          "indexed": false,
          "name": "CzxpReward",
          "type": "uint256"
        }
      ],
      "name": "LogSponsorReward",
      "type": "event"
    },
    {
      "anonymous": false,
      "inputs": [
        {
          "indexed": false,
          "name": "player",
          "type": "address"
        },
        {
          "indexed": false,
          "name": "newBonusBalance",
          "type": "uint256"
        }
      ],
      "name": "LogDailyReward",
      "type": "event"
    },
    {
      "anonymous": false,
      "inputs": [
        {
          "indexed": true,
          "name": "owner",
          "type": "address"
        },
        {
          "indexed": true,
          "name": "cardTokenId",
          "type": "uint256"
        },
        {
          "indexed": false,
          "name": "editionNumber",
          "type": "uint256"
        },
        {
          "indexed": true,
          "name": "cardTypeId",
          "type": "uint256"
        },
        {
          "indexed": false,
          "name": "rarity",
          "type": "uint8"
        },
        {
          "indexed": false,
          "name": "CzxpGained",
          "type": "uint256"
        }
      ],
      "name": "LogCardCreated",
      "type": "event"
    },
    {
      "anonymous": false,
      "inputs": [
        {
          "indexed": true,
          "name": "owner",
          "type": "address"
        },
        {
          "indexed": true,
          "name": "cardTokenId",
          "type": "uint256"
        },
        {
          "indexed": true,
          "name": "cardTypeId",
          "type": "uint256"
        },
        {
          "indexed": false,
          "name": "CzxpGained",
          "type": "uint256"
        }
      ],
      "name": "SacrificeCardEvent",
      "type": "event"
    },
    {
      "anonymous": false,
      "inputs": [
        {
          "indexed": true,
          "name": "from",
          "type": "address"
        },
        {
          "indexed": true,
          "name": "to",
          "type": "address"
        },
        {
          "indexed": true,
          "name": "tokenId",
          "type": "uint256"
        }
      ],
      "name": "Transfer",
      "type": "event"
    },
    {
      "anonymous": false,
      "inputs": [
        {
          "indexed": true,
          "name": "owner",
          "type": "address"
        },
        {
          "indexed": true,
          "name": "approved",
          "type": "address"
        },
        {
          "indexed": true,
          "name": "tokenId",
          "type": "uint256"
        }
      ],
      "name": "Approval",
      "type": "event"
    },
    {
      "anonymous": false,
      "inputs": [
        {
          "indexed": true,
          "name": "owner",
          "type": "address"
        },
        {
          "indexed": true,
          "name": "operator",
          "type": "address"
        },
        {
          "indexed": false,
          "name": "approved",
          "type": "bool"
        }
      ],
      "name": "ApprovalForAll",
      "type": "event"
    },
    {
      "anonymous": false,
      "inputs": [
        {
          "indexed": true,
          "name": "beneficiary",
          "type": "address"
        },
        {
          "indexed": false,
          "name": "czxpAmount",
          "type": "uint256"
        }
      ],
      "name": "CZXPGained",
      "type": "event"
    },
    {
      "anonymous": false,
      "inputs": [
        {
          "indexed": true,
          "name": "previousOwner",
          "type": "address"
        },
        {
          "indexed": true,
          "name": "newOwner",
          "type": "address"
        }
      ],
      "name": "OwnershipTransferred",
      "type": "event"
    },
    {
      "constant": false,
      "inputs": [
        {
          "name": "_czxpContractAddress",
          "type": "address"
        }
      ],
      "name": "initialize",
      "outputs": [],
      "payable": false,
      "stateMutability": "nonpayable",
      "type": "function"
    },
    {
      "constant": false,
      "inputs": [
        {
          "name": "_cardTypeId",
          "type": "uint8"
        },
        {
          "name": "_name",
          "type": "string"
        },
        {
          "name": "_set",
          "type": "string"
        },
        {
          "name": "_assetType",
          "type": "uint8"
        },
        {
          "name": "_notStoreOrBonus",
          "type": "uint8"
        },
        {
          "name": "_rarity",
          "type": "uint8"
        },
        {
          "name": "_totalAvailable",
          "type": "uint16"
        },
        {
          "name": "_weiCost",
          "type": "uint256"
        },
        {
          "name": "_buyCzxp",
          "type": "uint256"
        }
      ],
      "name": "loadNewCardType",
      "outputs": [
        {
          "name": "",
          "type": "bool"
        }
      ],
      "payable": false,
      "stateMutability": "nonpayable",
      "type": "function"
    },
    {
      "constant": false,
      "inputs": [
        {
          "name": "_cardTypeId",
          "type": "uint32"
        },
        {
          "name": "_transferCzxp",
          "type": "uint256"
        },
        {
          "name": "_sacrificeCzxp",
          "type": "uint256"
        },
        {
          "name": "_unlockCzxp",
          "type": "uint256"
        },
        {
          "name": "_cardLevel",
          "type": "uint8"
        }
      ],
      "name": "addTocardType",
      "outputs": [
        {
          "name": "",
          "type": "bool"
        }
      ],
      "payable": false,
      "stateMutability": "nonpayable",
      "type": "function"
    },
    {
      "constant": false,
      "inputs": [
        {
          "name": "_cardTypeId",
          "type": "uint32"
        }
      ],
      "name": "buyCard",
      "outputs": [
        {
          "name": "",
          "type": "bool"
        }
      ],
      "payable": true,
      "stateMutability": "payable",
      "type": "function"
    },
    {
      "constant": false,
      "inputs": [],
      "name": "getBonusBoosters",
      "outputs": [],
      "payable": false,
      "stateMutability": "nonpayable",
      "type": "function"
    },
    {
      "constant": false,
      "inputs": [
        {
          "name": "_cardTypeId",
          "type": "uint32"
        }
      ],
      "name": "getFreeCard",
      "outputs": [],
      "payable": false,
      "stateMutability": "nonpayable",
      "type": "function"
    },
    {
      "constant": false,
      "inputs": [
        {
          "name": "_tokenId",
          "type": "uint256"
        }
      ],
      "name": "sacrifice",
      "outputs": [],
      "payable": false,
      "stateMutability": "nonpayable",
      "type": "function"
    },
    {
      "constant": false,
      "inputs": [
        {
          "name": "_amount",
          "type": "uint256"
        }
      ],
      "name": "buyBoosterCard",
      "outputs": [
        {
          "name": "",
          "type": "bool"
        }
      ],
      "payable": true,
      "stateMutability": "payable",
      "type": "function"
    },
    {
      "constant": false,
      "inputs": [],
      "name": "buyBoosterCardAndOpen",
      "outputs": [],
      "payable": true,
      "stateMutability": "payable",
      "type": "function"
    },
    {
      "constant": false,
      "inputs": [
        {
          "name": "czxpWager",
          "type": "uint256"
        }
      ],
      "name": "openBoosterCard",
      "outputs": [
        {
          "name": "",
          "type": "bool"
        }
      ],
      "payable": false,
      "stateMutability": "nonpayable",
      "type": "function"
    },
    {
      "constant": false,
      "inputs": [
        {
          "name": "mySponsor",
          "type": "address"
        }
      ],
      "name": "linkMySponsor",
      "outputs": [],
      "payable": false,
      "stateMutability": "nonpayable",
      "type": "function"
    },
    {
      "constant": true,
      "inputs": [
        {
          "name": "_player",
          "type": "address"
        }
      ],
      "name": "getTimeToDailyBonus",
      "outputs": [
        {
          "name": "timeStamp",
          "type": "uint256"
        }
      ],
      "payable": false,
      "stateMutability": "view",
      "type": "function"
    },
    {
      "constant": false,
      "inputs": [],
      "name": "withdraw",
      "outputs": [],
      "payable": false,
      "stateMutability": "nonpayable",
      "type": "function"
    }
  ],
  "bytecode": "0x60c0604052601b60808190527f68747470733a2f2f63727970746f7a2e63617264732f646174612f000000000060a0908152620000409160019190620002f3565b506000600b5560408051808201909152600d8082527f43727970746f7a2043617264730000000000000000000000000000000000000060209092019182526200008c91601591620002f3565b506040805180820190915260078082527f43727970746f7a000000000000000000000000000000000000000000000000006020909201918252620000d391601691620002f3565b506040805160e081018252600080825260208201819052918101829052606081018290526080810182905260a0810182905260c08101919091526200011d90601c90600762000378565b506000620001336001600160e01b036200021f16565b600080546001600160a01b0319166001600160a01b0383169081178255604051929350917f8be0079c531659141344cd1fd0a4f28419497f9722a3daafe3b4186f6b6457e0908290a350620001b17f01ffc9a7000000000000000000000000000000000000000000000000000000006001600160e01b036200022416565b620001e57f80ac58cd000000000000000000000000000000000000000000000000000000006001600160e01b036200022416565b620002197f780e9d63000000000000000000000000000000000000000000000000000000006001600160e01b036200022416565b620003cb565b335b90565b7fffffffff000000000000000000000000000000000000000000000000000000008082161415620002b657604080517f08c379a000000000000000000000000000000000000000000000000000000000815260206004820152601c60248201527f4552433136353a20696e76616c696420696e7465726661636520696400000000604482015290519081900360640190fd5b7fffffffff00000000000000000000000000000000000000000000000000000000166000908152600c60205260409020805460ff19166001179055565b828054600181600116156101000203166002900490600052602060002090601f016020900481019282601f106200033657805160ff191683800117855562000366565b8280016001018555821562000366579182015b828111156200036657825182559160200191906001019062000349565b5062000374929150620003ae565b5090565b826007810192821562000366579160200282015b8281111562000366578251829060ff169055916020019190600101906200038c565b6200022191905b80821115620003745760008155600101620003b5565b6146fa80620003db6000396000f3fe6080604052600436106102725760003560e01c80638462151c1161014f578063b4a16769116100c1578063d42198e61161007a578063d42198e614610d02578063e178e05114610d1f578063e985e9c514610d49578063f2fde38b14610d84578063f8ae951114610db7578063fc7f0fec14610dea57610272565b8063b4a1676914610b54578063b88d4fde14610b7e578063c4d66de814610c4f578063c87b56dd14610c82578063d057570814610cac578063d35590c214610ccf57610272565b8063912fdfcb11610113578063912fdfcb14610a10578063918923c414610a4357806395d89b4114610a6d578063a22cb46514610a82578063a47ed2e714610abd578063afa6154114610b0c57610272565b80638462151c146108245780638b58c569146108a75780638da5cb5b146108e75780638e7a5913146108fc5780638f32d59b146109fb57610272565b80634d3e2e5e116101e857806370a08231116101ac57806370a0823114610746578063715018a6146107795780637752f4871461078e5780637bbbe390146107c15780637f276455146107d657806381cbd203146107eb57610272565b80634d3e2e5e146106535780634f27f6261461067d5780634f6ccce7146106a75780636352211e146106d1578063692170c2146106fb57610272565b806318160ddd1161023a57806318160ddd1461040757806323b872dd1461042e5780632f745c59146104715780633ccfd60b146104aa57806342842e0e146104bf57806342ed1d291461050257610272565b806301ffc9a71461028457806306fdde03146102cc578063081812fc14610356578063095ea7b31461039c57806316b93be8146103d7575b34801561027e57600080fd5b50600080fd5b34801561029057600080fd5b506102b8600480360360208110156102a757600080fd5b50356001600160e01b031916610df2565b604080519115158252519081900360200190f35b3480156102d857600080fd5b506102e1610e15565b6040805160208082528351818301528351919283929083019185019080838360005b8381101561031b578181015183820152602001610303565b50505050905090810190601f1680156103485780820380516001836020036101000a031916815260200191505b509250505060405180910390f35b34801561036257600080fd5b506103806004803603602081101561037957600080fd5b5035610eac565b604080516001600160a01b039092168252519081900360200190f35b3480156103a857600080fd5b506103d5600480360360408110156103bf57600080fd5b506001600160a01b038135169060200135610f0e565b005b3480156103e357600080fd5b506103d5600480360360208110156103fa57600080fd5b503563ffffffff16611036565b34801561041357600080fd5b5061041c61125a565b60408051918252519081900360200190f35b34801561043a57600080fd5b506103d56004803603606081101561045157600080fd5b506001600160a01b03813581169160208101359091169060400135611260565b34801561047d57600080fd5b5061041c6004803603604081101561049457600080fd5b506001600160a01b0381351690602001356112ac565b3480156104b657600080fd5b506103d56112fa565b3480156104cb57600080fd5b506103d5600480360360608110156104e257600080fd5b506001600160a01b03813581169160208101359091169060400135611371565b34801561050e57600080fd5b506105326004803603602081101561052557600080fd5b503563ffffffff1661138c565b604051808a63ffffffff1663ffffffff16815260200180602001806020018981526020018881526020018781526020018681526020018581526020018460ff1660ff16815260200183810383528b818151815260200191508051906020019080838360005b838110156105af578181015183820152602001610597565b50505050905090810190601f1680156105dc5780820380516001836020036101000a031916815260200191505b5083810382528a5181528a516020918201918c019080838360005b8381101561060f5781810151838201526020016105f7565b50505050905090810190601f16801561063c5780820380516001836020036101000a031916815260200191505b509b50505050505050505050505060405180910390f35b34801561065f57600080fd5b5061041c6004803603602081101561067657600080fd5b50356114f9565b34801561068957600080fd5b506102b8600480360360208110156106a057600080fd5b503561150d565b3480156106b357600080fd5b5061041c600480360360208110156106ca57600080fd5b50356115b0565b3480156106dd57600080fd5b50610380600480360360208110156106f457600080fd5b50356115e4565b34801561070757600080fd5b506102b8600480360360a081101561071e57600080fd5b50803563ffffffff16906020810135906040810135906060810135906080013560ff16611638565b34801561075257600080fd5b5061041c6004803603602081101561076957600080fd5b50356001600160a01b031661183a565b34801561078557600080fd5b506103d56118a2565b34801561079a57600080fd5b5061041c600480360360208110156107b157600080fd5b50356001600160a01b0316611933565b3480156107cd57600080fd5b506103d5611945565b3480156107e257600080fd5b5061041c6119db565b3480156107f757600080fd5b506102b86004803603604081101561080e57600080fd5b506001600160a01b0381351690602001356119e1565b34801561083057600080fd5b506108576004803603602081101561084757600080fd5b50356001600160a01b0316611a01565b60408051602080825283518183015283519192839290830191858101910280838360005b8381101561089357818101518382015260200161087b565b505050509050019250505060405180910390f35b3480156108b357600080fd5b506108d1600480360360208110156108ca57600080fd5b5035611a62565b6040805160ff9092168252519081900360200190f35b3480156108f357600080fd5b50610380611a77565b34801561090857600080fd5b506102b8600480360361012081101561092057600080fd5b60ff8235169190810190604081016020820135600160201b81111561094457600080fd5b82018360208201111561095657600080fd5b803590602001918460018302840111600160201b8311171561097757600080fd5b919390929091602081019035600160201b81111561099457600080fd5b8201836020820111156109a657600080fd5b803590602001918460018302840111600160201b831117156109c757600080fd5b919350915060ff813581169160208101358216916040820135169061ffff6060820135169060808101359060a00135611a86565b348015610a0757600080fd5b506102b8611c6b565b348015610a1c57600080fd5b506103d560048036036020811015610a3357600080fd5b50356001600160a01b0316611c8f565b348015610a4f57600080fd5b5061041c60048036036020811015610a6657600080fd5b5035611d0d565b348015610a7957600080fd5b506102e1611d2b565b348015610a8e57600080fd5b506103d560048036036040811015610aa557600080fd5b506001600160a01b0381351690602001351515611d8c565b348015610ac957600080fd5b50610ae760048036036020811015610ae057600080fd5b5035611e91565b6040805163ffffffff9094168452602084019290925282820152519081900360600190f35b348015610b1857600080fd5b50610b21611f1b565b604080519687526020870195909552858501939093526060850191909152608084015260a0830152519081900360c00190f35b348015610b6057600080fd5b5061041c60048036036020811015610b7757600080fd5b5035611f39565b348015610b8a57600080fd5b506103d560048036036080811015610ba157600080fd5b6001600160a01b03823581169260208101359091169160408201359190810190608081016060820135600160201b811115610bdb57600080fd5b820183602082011115610bed57600080fd5b803590602001918460018302840111600160201b83111715610c0e57600080fd5b91908080601f016020809104026020016040519081016040528093929190818152602001838380828437600092019190915250929550611f4b945050505050565b348015610c5b57600080fd5b506103d560048036036020811015610c7257600080fd5b50356001600160a01b0316611fa3565b348015610c8e57600080fd5b506102e160048036036020811015610ca557600080fd5b503561200c565b6102b860048036036020811015610cc257600080fd5b503563ffffffff166120ad565b348015610cdb57600080fd5b5061038060048036036020811015610cf257600080fd5b50356001600160a01b031661248c565b6102b860048036036020811015610d1857600080fd5b50356124a7565b348015610d2b57600080fd5b506103d560048036036020811015610d4257600080fd5b503561253a565b348015610d5557600080fd5b506102b860048036036040811015610d6c57600080fd5b506001600160a01b0381358116916020013516612544565b348015610d9057600080fd5b506103d560048036036020811015610da757600080fd5b50356001600160a01b0316612572565b348015610dc357600080fd5b5061041c60048036036020811015610dda57600080fd5b50356001600160a01b03166125c2565b6103d5612609565b6001600160e01b031981166000908152600c602052604090205460ff165b919050565b60158054604080516020601f6002600019610100600188161502019095169490940493840181900481028201810190925282815260609390929091830182828015610ea15780601f10610e7657610100808354040283529160200191610ea1565b820191906000526020600020905b815481529060010190602001808311610e8457829003601f168201915b505050505090505b90565b6000610eb782612670565b610ef25760405162461bcd60e51b815260040180806020018281038252602c8152602001806145da602c913960400191505060405180910390fd5b506000908152600e60205260409020546001600160a01b031690565b6000610f19826115e4565b9050806001600160a01b0316836001600160a01b03161415610f6c5760405162461bcd60e51b815260040180806020018281038252602181526020018061464f6021913960400191505060405180910390fd5b806001600160a01b0316610f7e61268d565b6001600160a01b03161480610f9f5750610f9f81610f9a61268d565b612544565b610fda5760405162461bcd60e51b815260040180806020018281038252603881526020018061452e6038913960400191505060405180910390fd5b6000828152600e602052604080822080546001600160a01b0319166001600160a01b0387811691821790925591518593918516917f8c5be1e5ebec7d5bd14f71427d1e84f3dd0314c0f7b2291e5b200ac8c7c3b92591a4505050565b63ffffffff8082166000818152600760205260409020548392161461105a57600080fd5b63ffffffff8116600090815260036020526040902054600160ff9091161061108157600080fd5b63ffffffff821660009081526003602052604090205460ff16156110a457600080fd5b63ffffffff8216600090815260096020908152604080832054600590925290912054600190910161ffff909116116110db57600080fd5b33600090815260236020908152604080832063ffffffff8616845290915290205460ff161561110957600080fd5b600a54604080516370a0823160e01b815233600482015290516000926001600160a01b0316916370a08231916024808301926020929190829003018186803b15801561115457600080fd5b505afa158015611168573d6000803e3d6000fd5b505050506040513d602081101561117e57600080fd5b505163ffffffff8416600090815260076020819052604090912001549091508110156111a957600080fd5b63ffffffff8316600090815260076020526040902060030154156111cc57600080fd5b33600081815260236020908152604080832063ffffffff881684528252808320805460ff19166001179055600790915290206004015461120c9190612691565b63ffffffff831660009081526007602052604090206004015461122e90612702565b63ffffffff831660009081526007602052604090206004015461125490849033906127af565b50505050565b60195490565b61126a3382612a36565b61127357600080fd5b60016006828154811061128257fe5b60009182526020909120600260039092020101805490910190556112a7838383612ada565b505050565b60006112b78361183a565b82106112c257600080fd5b6001600160a01b03831660009081526017602052604090208054839081106112e657fe5b906000526020600020015490505b92915050565b611302611c6b565b611341576040805162461bcd60e51b81526020600482018190526024820152600080516020614606833981519152604482015290519081900360640190fd5b6040513390303180156108fc02916000818181858888f1935050505015801561136e573d6000803e3d6000fd5b50565b6112a783838360405180602001604052806000815250611f4b565b6007602090815260009182526040918290208054600180830180548651600261010094831615949094026000190190911692909204601f810186900486028301860190965285825263ffffffff9092169492939092908301828280156114335780601f1061140857610100808354040283529160200191611433565b820191906000526020600020905b81548152906001019060200180831161141657829003601f168201915b50505060028085018054604080516020601f60001961010060018716150201909416959095049283018590048502810185019091528181529596959450909250908301828280156114c55780601f1061149a576101008083540402835291602001916114c5565b820191906000526020600020905b8154815290600101906020018083116114a857829003601f168201915b5050506003840154600485015460058601546006870154600788015460089098015496979396929550909350919060ff1689565b601c816007811061150657fe5b0154905081565b3360009081526026602052604081205461152657600080fd5b3360009081526026602052604090205461154790600163ffffffff612ae516565b3360009081526026602052604081209190915561156383612b2e565b905061156e81612caa565b6040805160ff83168152905133917f66e021f2e6bf1b4f79e6e5622acffc29c6230663c0432ac8c08a5edcb1f23382919081900360200190a250600192915050565b60006115ba61125a565b82106115c557600080fd5b601982815481106115d257fe5b90600052602060002001549050919050565b6000818152600d60205260408120546001600160a01b0316806112f45760405162461bcd60e51b81526004018080602001828103825260298152602001806145906029913960400191505060405180910390fd5b6000611642611c6b565b611681576040805162461bcd60e51b81526020600482018190526024820152600080516020614606833981519152604482015290519081900360640190fd5b63ffffffff8616600090815260076020526040902060050154156116a457600080fd5b63ffffffff8616600090815260076020526040902060060154156116c757600080fd5b63ffffffff861660009081526007602081905260409091200154156116eb57600080fd5b63ffffffff861660009081526007602052604090206008015460ff161561171157600080fd5b63ffffffff8087166000818152600760205260409020549091161461173557600080fd5b63ffffffff86166000818152600760208181526040808420600581018b9055600681018a905580840189905560088101805460ff8a1660ff199091161790556009835281852094909455918152815181815260019384018054600295811615610100026000190116949094049181018290527f566651c26d6867f4a0341c33295b297504f1f8445ef05b6a80d7faa24280cd2e939290918291820190849080156118205780601f106117f557610100808354040283529160200191611820565b820191906000526020600020905b81548152906001019060200180831161180357829003601f168201915b50509250505060405180910390a250600195945050505050565b60006001600160a01b0382166118815760405162461bcd60e51b815260040180806020018281038252602a815260200180614566602a913960400191505060405180910390fd5b6001600160a01b0382166000908152600f602052604090206112f490612d1d565b6118aa611c6b565b6118e9576040805162461bcd60e51b81526020600482018190526024820152600080516020614606833981519152604482015290519081900360640190fd5b600080546040516001600160a01b03909116907f8be0079c531659141344cd1fd0a4f28419497f9722a3daafe3b4186f6b6457e0908390a3600080546001600160a01b0319169055565b60266020526000908152604090205481565b61194e336125c2565b421161195957600080fd5b33600090815260256020908152604080832061708042019055602690915290205461198b90600263ffffffff612d2116565b33600081815260266020908152604091829020849055815192835282019290925281517fdea0c85af515c9fffcca886846213edc28206526b243af2f064b6962032ce185929181900390910190a1565b60085490565b602360209081526000928352604080842090915290825290205460ff1681565b6060611a0c82612d7b565b805480602002602001604051908101604052809291908181526020018280548015611a5657602002820191906000526020600020905b815481526020019060010190808311611a42575b50505050509050919050565b60046020526000908152604090205460ff1681565b6000546001600160a01b031690565b6000611a90611c6b565b611acf576040805162461bcd60e51b81526020600482018190526024820152600080516020614606833981519152604482015290519081900360640190fd5b6008546113881015611ae057600080fd5b60ff8c1660009081526007602052604090205463ffffffff1615611b0357600080fd5b60ff8c166000818152600760205260409020805463ffffffff19169091178155611b31906001018c8c61425f565b5060ff8c166000908152600760205260409020611b52906002018a8a61425f565b5060ff8c81166000908152600260209081526040808320805460ff199081168d8716179091556003808452828520805483168d881690811790915560048086528487208054909416978d169790971790925560058452828520805461ffff191661ffff8c161790556007909352922090810186905590910183905560011415611c215760ff85811660009081526027602090815260408220805460018101825590835291206008820401805463ffffffff60079093166004026101000a9283021916928f169091029190911790555b50600880546001818101835560009290925260ff8d167ff3f7a9fe364faab93b216da50a3214154f22a0a2b415b23a84c8169e8b636ee3909101559b9a5050505050505050505050565b600080546001600160a01b0316611c8061268d565b6001600160a01b031614905090565b6001600160a01b038116611ca257600080fd5b336000908152602460205260409020546001600160a01b031615611cc557600080fd5b336001600160a01b0382161415611cdb57600080fd5b33600090815260246020526040902080546001600160a01b0319166001600160a01b03831617905561136e6002612caa565b60088181548110611d1a57fe5b600091825260209091200154905081565b60168054604080516020601f6002600019610100600188161502019095169490940493840181900481028201810190925282815260609390929091830182828015610ea15780601f10610e7657610100808354040283529160200191610ea1565b611d9461268d565b6001600160a01b0316826001600160a01b03161415611dfa576040805162461bcd60e51b815260206004820152601960248201527f4552433732313a20617070726f766520746f2063616c6c657200000000000000604482015290519081900360640190fd5b8060106000611e0761268d565b6001600160a01b03908116825260208083019390935260409182016000908120918716808252919093529120805460ff191692151592909217909155611e4b61268d565b60408051841515815290516001600160a01b0392909216917f17307eab39ab6107e8899845ad3d59bd9653f200f220920489ca2b5937696c319181900360200190a35050565b6000806000611e9f84612670565b611ea857600080fd5b60068481548110611eb557fe5b60009182526020909120600390910201546006805463ffffffff9092169186908110611edd57fe5b90600052602060002090600302016001015460068681548110611efc57fe5b9060005260206000209060030201600201549250925092509193909250565b601d54601e54601f5460205460215460225494959394929391929091565b60096020526000908152604090205481565b611f5c611f5661268d565b83612a36565b611f975760405162461bcd60e51b81526004018080602001828103825260318152602001806146706031913960400191505060405180910390fd5b61125484848484612d95565b611fab611c6b565b611fea576040805162461bcd60e51b81526020600482018190526024820152600080516020614606833981519152604482015290519081900360640190fd5b600a80546001600160a01b0319166001600160a01b0392909216919091179055565b60018054604080516020600284861615610100026000190190941693909304601f81018490048402820184019092528181526060936112f4939192909183018282801561209a5780601f1061206f5761010080835404028352916020019161209a565b820191906000526020600020905b81548152906001019060200180831161207d57829003601f168201915b50505050506120a884612de7565b612ea8565b63ffffffff808216600081815260076020526040812054909284929116146120d457600080fd5b63ffffffff8116600090815260036020526040902054600160ff909116106120fb57600080fd5b6000341161210857600080fd5b63ffffffff8084166000818152600760205260409020549091161461212c57600080fd5b6121346142dd565b63ffffffff84811660009081526007602090815260409182902082516101208101845281549094168452600180820180548551600261010094831615949094026000190190911692909204601f81018590048502830185019095528482529193858401939192918301828280156121ec5780601f106121c1576101008083540402835291602001916121ec565b820191906000526020600020905b8154815290600101906020018083116121cf57829003601f168201915b5050509183525050600282810180546040805160206001841615610100026000190190931694909404601f8101839004830285018301909152808452938101939083018282801561227e5780601f106122535761010080835404028352916020019161227e565b820191906000526020600020905b81548152906001019060200180831161226157829003601f168201915b505050918352505060038281015460208084019190915260048401546040808501919091526005850154606085015260068501546080850152600785015460a085015260089094015460ff90811660c09094019390935263ffffffff89166000908152919052919091205491925016156122f757600080fd5b33600090815260236020908152604080832063ffffffff8816845290915290205460ff161561232557600080fd5b63ffffffff8416600090815260096020908152604080832054600590925290912054600190910161ffff9091161161235c57600080fd5b806060015134101561236d57600080fd5b600a54604080516370a0823160e01b815233600482015290516000926001600160a01b0316916370a08231916024808301926020929190829003018186803b1580156123b857600080fd5b505afa1580156123cc573d6000803e3d6000fd5b505050506040513d60208110156123e257600080fd5b505160e08301519091508110156123f857600080fd5b33600081815260236020908152604080832063ffffffff8a1684528252808320805460ff1916600117905560079091529020600401546124389190612691565b63ffffffff851660009081526007602052604090206004015461245a90612702565b63ffffffff851660009081526007602052604090206004015461248090869033906127af565b50600195945050505050565b6024602052600090815260409020546001600160a01b031681565b60006124c066071afd498d00008363ffffffff612ee416565b3410156124cc57600080fd5b336000908152602660205260409020546124ec908363ffffffff612d2116565b336000818152602660205260409020919091556125199061251460788563ffffffff612ee416565b612691565b61253261252d60788463ffffffff612ee416565b612702565b506001919050565b61136e3382612f3d565b6001600160a01b03918216600090815260106020908152604080832093909416825291909152205460ff1690565b61257a611c6b565b6125b9576040805162461bcd60e51b81526020600482018190526024820152600080516020614606833981519152604482015290519081900360640190fd5b61136e816131aa565b6001600160a01b0381166000908152602560205260408120546125ea57506001194201610e10565b506001600160a01b038116600090815260256020526040902054610e10565b66071afd498d000034101561261d57600080fd5b3360009081526026602052604090205461263e90600163ffffffff612d2116565b3360008181526026602052604090209190915561265c906078612691565b6126666078612702565b61136e600061150d565b6000908152600d60205260409020546001600160a01b0316151590565b3390565b600a54604080516360fa676760e01b81526001600160a01b03858116600483015260248201859052915191909216916360fa676791604480830192600092919082900301818387803b1580156126e657600080fd5b505af11580156126fa573d6000803e3d6000fd5b505050505050565b336000908152602460205260409020546001600160a01b03161561136e57601481048061272d575060015b33600090815260246020526040902054612750906001600160a01b031682612691565b336000818152602460209081526040918290205482516001600160a01b0391909116815290810192909252818101839052517e3da85d6058444eca57e3b88be14c734f4f239affe28b7629966e318de2a90e9181900360600190a15050565b63ffffffff808416600081815260076020526040812054909216146127d357600080fd5b63ffffffff8085166000908152600960205260409020546127f791600190612d2116565b63ffffffff8516600090815260096020526040902055612815614332565b506040805160608101825263ffffffff8681168083526000908152600960209081528482205490840190815293830181815260068054600181018255925283517ff652222313e28459528d920b65115c16c04f3efc82aaedc97be59f3f377c0d3f60038402908101805463ffffffff1916929095169190911790935593517ff652222313e28459528d920b65115c16c04f3efc82aaedc97be59f3f377c0d4083015592517ff652222313e28459528d920b65115c16c04f3efc82aaedc97be59f3f377c0d4190910155906128e9858261324a565b60018054604080516020600284861615610100026000190190941693909304601f8101849004840282018401909252818152612980938593919290918301828280156129765780601f1061294b57610100808354040283529160200191612976565b820191906000526020600020905b81548152906001019060200180831161295957829003601f168201915b5050505050613299565b63ffffffff861660009081526004602052604090205460ff16601c81600781106129a657fe5b0154600101601c8260ff16600781106129bb57fe5b015563ffffffff8716600081815260096020908152604080832054600483529281902054815193845260ff16918301919091528181018890525184916001600160a01b038a16917fa175b558bfdf1ae124f50d3f430abaaab74e5549ded822767a55f3c6d906c6b19181900360600190a45095945050505050565b6000612a4182612670565b612a7c5760405162461bcd60e51b815260040180806020018281038252602c815260200180614502602c913960400191505060405180910390fd5b6000612a87836115e4565b9050806001600160a01b0316846001600160a01b03161480612ac25750836001600160a01b0316612ab784610eac565b6001600160a01b0316145b80612ad25750612ad28185612544565b949350505050565b6112a78383836132ca565b6000612b2783836040518060400160405280601e81526020017f536166654d6174683a207375627472616374696f6e206f766572666c6f7700008152506132e9565b9392505050565b60006605dc0000000bb8821115612b4457600080fd5b600a54604080516370a0823160e01b815233600482015290516000926001600160a01b0316916370a08231916024808301926020929190829003018186803b158015612b8f57600080fd5b505afa158015612ba3573d6000803e3d6000fd5b505050506040513d6020811015612bb957600080fd5b5051905082811015612bca57600080fd5b8215612c3c57600a5460408051631752e21560e11b81523360048201526024810186905290516001600160a01b0390921691632ea5c42a9160448082019260009290919082900301818387803b158015612c2357600080fd5b505af1158015612c37573d6000803e3d6000fd5b505050505b6000612c49612710613380565b9050612c53614359565b612c5c856133d8565b905060025b60078160ff161015612c9e57818160ff1660078110612c7c57fe5b602002015161ffff168311612c96579350610e1092505050565b600101612c61565b50600695945050505050565b60ff8116600090815260276020526040812054612cc690613380565b60ff831660009081526027602052604081208054929350909183908110612ce957fe5b90600052602060002090600891828204019190066004029054906101000a900463ffffffff169050611254813360646127af565b5490565b600082820183811015612b27576040805162461bcd60e51b815260206004820152601b60248201527f536166654d6174683a206164646974696f6e206f766572666c6f770000000000604482015290519081900360640190fd5b6001600160a01b0316600090815260116020526040902090565b612da0848484612ada565b612dac8484848461348b565b6112545760405162461bcd60e51b81526004018080602001828103825260328152602001806144866032913960400191505060405180910390fd5b606081612e0c57506040805180820190915260018152600360fc1b6020820152610e10565b8160005b8115612e2457600101600a82049150612e10565b6060816040519080825280601f01601f191660200182016040528015612e51576020820181803883390190505b50905060001982015b8515612e9f57600a860660300160f81b82828060019003935081518110612e7d57fe5b60200101906001600160f81b031916908160001a905350600a86049550612e5a565b50949350505050565b6060612b2783836040518060200160405280600081525060405180602001604052806000815250604051806020016040528060008152506136c6565b600082612ef3575060006112f4565b82820282848281612f0057fe5b0414612b275760405162461bcd60e51b81526004018080602001828103825260218152602001806145b96021913960400191505060405180910390fd5b612f4782826138da565b6000818152601b60205260409020546002600019610100600184161502019091160415612f85576000818152601b60205260408120612f8591614377565b6000818152601a6020526040812054601954909190612fab90600163ffffffff612ae516565b9050600060198281548110612fbc57fe5b906000526020600020015490508060198481548110612fd757fe5b9060005260206000200181905550600060198381548110612ff457fe5b60009182526020909120015560198054906130139060001983016143bb565b506000848152601a6020526040808220829055828252812084905560068054600192601c926004928990811061304557fe5b6000918252602080832060039092029091015463ffffffff16835282019290925260400190205460ff166007811061307957fe5b015403601c600460006006888154811061308f57fe5b6000918252602080832060039092029091015463ffffffff16835282019290925260400190205460ff16600781106130c357fe5b0181905550600060076000600687815481106130db57fe5b6000918252602080832060039092029091015463ffffffff16835282019290925260400190206006015490506131113382612691565b6006858154811061311e57fe5b600091825260208220600390910201805463ffffffff191681556001810182905560020155600680548690811061315157fe5b60009182526020918290206003909102015460408051848152905163ffffffff90921692889233927f5aa0c75e571d3ecae876f03a84d247806f1af6caf4f377701179de62b7095f1492908290030190a4505050505050565b6001600160a01b0381166131ef5760405162461bcd60e51b81526004018080602001828103825260268152602001806144b86026913960400191505060405180910390fd5b600080546040516001600160a01b03808516939216917f8be0079c531659141344cd1fd0a4f28419497f9722a3daafe3b4186f6b6457e091a3600080546001600160a01b0319166001600160a01b0392909216919091179055565b613254828261390a565b601980546000838152601a60205260408120829055600182018355919091527f944998273e477b495144fb8794c914197f3ccb46be2900f4698fd0ef743c9695015550565b6132a282612670565b6132ab57600080fd5b6000828152601b6020908152604090912082516112a7928401906143df565b6132d5838383613927565b6132df8382613a6b565b6112a78282613b60565b600081848411156133785760405162461bcd60e51b81526004018080602001828103825283818151815260200191508051906020019080838360005b8381101561333d578181015183820152602001613325565b50505050905090810190601f16801561336a5780820380516001836020036101000a031916815260200191505b509250505060405180910390fd5b505050900390565b600b5460408051426020808301919091523360601b82840152605480830194909452825180830390940184526074909101909152815191012060009081908390816133c757fe5b600b80546001019055069392505050565b6133e0614359565b8161342657506040805160e081018252600080825260208201819052918101919091526001606082015260326080820152610a8c60a082015261271060c0820152610e10565b60008060008061343586613b9e565b9350935093509350613445614359565b506040805160e0810182526000808252602082018190529181019190915261ffff9182166060820152918116608083015291821660a0820152911660c082015292915050565b600061349f846001600160a01b0316613d0a565b6134ab57506001612ad2565b600060606001600160a01b038616630a85bd0160e11b6134c961268d565b89888860405160240180856001600160a01b03166001600160a01b03168152602001846001600160a01b03166001600160a01b0316815260200183815260200180602001828103825283818151815260200191508051906020019080838360005b8381101561354257818101518382015260200161352a565b50505050905090810190601f16801561356f5780820380516001836020036101000a031916815260200191505b5060408051601f198184030181529181526020820180516001600160e01b03166001600160e01b0319909a16999099178952518151919890975087965094509250829150849050835b602083106135d75780518252601f1990920191602091820191016135b8565b6001836020036101000a0380198251168184511680821785525050505050509050019150506000604051808303816000865af19150503d8060008114613639576040519150601f19603f3d011682016040523d82523d6000602084013e61363e565b606091505b50915091508161368f578051156136585780518082602001fd5b60405162461bcd60e51b81526004018080602001828103825260328152602001806144866032913960400191505060405180910390fd5b60008180602001905160208110156136a657600080fd5b50516001600160e01b031916630a85bd0160e11b149350612ad292505050565b6060808690506060869050606086905060608690506060869050606081518351855187518951010101016040519080825280601f01601f19166020018201604052801561371a576020820181803883390190505b509050806000805b88518110156137735788818151811061373757fe5b602001015160f81c60f81b83838060010194508151811061375457fe5b60200101906001600160f81b031916908160001a905350600101613722565b5060005b87518110156137c85787818151811061378c57fe5b602001015160f81c60f81b8383806001019450815181106137a957fe5b60200101906001600160f81b031916908160001a905350600101613777565b5060005b865181101561381d578681815181106137e157fe5b602001015160f81c60f81b8383806001019450815181106137fe57fe5b60200101906001600160f81b031916908160001a9053506001016137cc565b5060005b85518110156138725785818151811061383657fe5b602001015160f81c60f81b83838060010194508151811061385357fe5b60200101906001600160f81b031916908160001a905350600101613821565b5060005b84518110156138c75784818151811061388b57fe5b602001015160f81c60f81b8383806001019450815181106138a857fe5b60200101906001600160f81b031916908160001a905350600101613876565b50909d9c50505050505050505050505050565b6138e48282613d43565b6138ee8282613a6b565b60008181526012602052604081205561390681613e1a565b5050565b6139148282613eb6565b61391e8282613b60565b61390681613fe7565b826001600160a01b031661393a826115e4565b6001600160a01b03161461397f5760405162461bcd60e51b81526004018080602001828103825260298152602001806146266029913960400191505060405180910390fd5b6001600160a01b0382166139c45760405162461bcd60e51b81526004018080602001828103825260248152602001806144de6024913960400191505060405180910390fd5b6139cd8161402b565b6001600160a01b0383166000908152600f602052604090206139ee90614066565b6001600160a01b0382166000908152600f60205260409020613a0f9061407d565b6000818152600d602052604080822080546001600160a01b0319166001600160a01b0386811691821790925591518493918716917fddf252ad1be2c89b69c2b068fc378daa952ba7f163c4a11628f55a4df523b3ef91a4505050565b6001600160a01b038216600090815260116020526040812054613a9590600163ffffffff612ae516565b600083815260126020526040902054909150808214613b30576001600160a01b0384166000908152601160205260408120805484908110613ad257fe5b906000526020600020015490508060116000876001600160a01b03166001600160a01b031681526020019081526020016000208381548110613b1057fe5b600091825260208083209091019290925591825260129052604090208190555b6001600160a01b0384166000908152601160205260409020805490613b599060001983016143bb565b5050505050565b6001600160a01b0390911660009081526011602081815260408084208054868652601284529185208290559282526001810183559183529091200155565b600080600080613bac61444d565b5060408051608081018252600181526002602082015260039181019190915260046060820152613bda61444d565b5060408051608081018252600181526002602082015260069181019190915260186060820152613c0861444d565b613c1061444d565b60005b6004811015613c8357838160048110613c2857fe5b602002015160ff16613c398b614086565b868360048110613c4557fe5b602002015160ff16613c568d614086565b0a81613c5e57fe5b0481613c6657fe5b04606402838260048110613c7657fe5b6020020152600101613c13565b50606082015160408301516020840151845101010160005b6004811015613ce45781848260048110613cb157fe5b60200201516127100281613cc157fe5b04838260048110613cce57fe5b61ffff9092166020929092020152600101613c9b565b5050805160208201516040830151606090930151919b909a509198509650945050505050565b6000813f7fc5d2460186f7233c927e7db2dcc703c0e500b653ca82273b7bfad8045d85a470818114801590612ad2575050151592915050565b816001600160a01b0316613d56826115e4565b6001600160a01b031614613d9b5760405162461bcd60e51b81526004018080602001828103825260258152602001806146a16025913960400191505060405180910390fd5b613da48161402b565b6001600160a01b0382166000908152600f60205260409020613dc590614066565b6000818152600d602052604080822080546001600160a01b0319169055518291906001600160a01b038516907fddf252ad1be2c89b69c2b068fc378daa952ba7f163c4a11628f55a4df523b3ef908390a45050565b601354600090613e3190600163ffffffff612ae516565b60008381526014602052604081205460138054939450909284908110613e5357fe5b906000526020600020015490508060138381548110613e6e57fe5b60009182526020808320909101929092558281526014909152604090208290556013805490613ea19060001983016143bb565b50505060009182525060146020526040812055565b6001600160a01b038216613f11576040805162461bcd60e51b815260206004820181905260248201527f4552433732313a206d696e7420746f20746865207a65726f2061646472657373604482015290519081900360640190fd5b613f1a81612670565b15613f6c576040805162461bcd60e51b815260206004820152601c60248201527f4552433732313a20746f6b656e20616c7265616479206d696e74656400000000604482015290519081900360640190fd5b6000818152600d6020908152604080832080546001600160a01b0319166001600160a01b0387169081179091558352600f9091529020613fab9061407d565b60405181906001600160a01b038416906000907fddf252ad1be2c89b69c2b068fc378daa952ba7f163c4a11628f55a4df523b3ef908290a45050565b601380546000838152601460205260408120829055600182018355919091527f66de8ffda797e3de9c05e8fc57b3bf0ec28a930d40b0d285d93c06501cf6a0900155565b6000818152600e60205260409020546001600160a01b03161561136e576000908152600e6020526040902080546001600160a01b0319169055565b805461407990600163ffffffff612ae516565b9055565b80546001019055565b600080614097620445c084046140a2565b600490049392505050565b604080517ff8f9cbfae6cc78fbefe7cdc3a1793dfcf4f0e8bbd8cec470b6a28a7a5a3e1efd81527ff5ecf1b3e9debc68e1d9cfabc5997135bfb7a7a3938b7b606b5b4b3f2f1f0ffe60208201527ff6e4ed9ff2d6b458eadcdf97bd91692de2d4da8fd2d0ac50c6ae9a8272523616818301527fc8c0b887b0a8a4489c948c7f847c6125746c645c544c444038302820181008ff60608201527ff7cae577eec2a03cf3bad76fb589591debb2dd67e0aa9834bea6925f6a4a2e0e60808201527fe39ed557db96902cd38ed14fad815115c786af479b7e8324736353433727170760a08201527fc976c13bb96e881cb166a933a55e490d9d56952b8d4e801485467d236242260660c08201527f753a6d1b65325d0c552a4d1345224105391a310b29122104190a11030902010060e0820152610100808201909252600160f81b6001600160801b68010000000000000000600160201b620100006010600460026000198c019081041790810417908104178881041790810417908104179081041790810417017e818283848586878898a8b8c8d8e8f929395969799a9b9d9e9faaeb6bedeeff0281900460ff039091015104600160ff1b909211020190565b828054600181600116156101000203166002900490600052602060002090601f016020900481019282601f106142a05782800160ff198235161785556142cd565b828001600101855582156142cd579182015b828111156142cd5782358255916020019190600101906142b2565b506142d992915061446b565b5090565b604051806101200160405280600063ffffffff16815260200160608152602001606081526020016000815260200160008152602001600081526020016000815260200160008152602001600060ff1681525090565b6040518060600160405280600063ffffffff16815260200160008152602001600081525090565b6040518060e001604052806007906020820280388339509192915050565b50805460018160011615610100020316600290046000825580601f1061439d575061136e565b601f01602090049060005260206000209081019061136e919061446b565b8154818355818111156112a7576000838152602090206112a791810190830161446b565b828054600181600116156101000203166002900490600052602060002090601f016020900481019282601f1061442057805160ff19168380011785556142cd565b828001600101855582156142cd579182015b828111156142cd578251825591602001919060010190614432565b60405180608001604052806004906020820280388339509192915050565b610ea991905b808211156142d9576000815560010161447156fe4552433732313a207472616e7366657220746f206e6f6e20455243373231526563656976657220696d706c656d656e7465724f776e61626c653a206e6577206f776e657220697320746865207a65726f20616464726573734552433732313a207472616e7366657220746f20746865207a65726f20616464726573734552433732313a206f70657261746f7220717565727920666f72206e6f6e6578697374656e7420746f6b656e4552433732313a20617070726f76652063616c6c6572206973206e6f74206f776e6572206e6f7220617070726f76656420666f7220616c6c4552433732313a2062616c616e636520717565727920666f7220746865207a65726f20616464726573734552433732313a206f776e657220717565727920666f72206e6f6e6578697374656e7420746f6b656e536166654d6174683a206d756c7469706c69636174696f6e206f766572666c6f774552433732313a20617070726f76656420717565727920666f72206e6f6e6578697374656e7420746f6b656e4f776e61626c653a2063616c6c6572206973206e6f7420746865206f776e65724552433732313a207472616e73666572206f6620746f6b656e2074686174206973206e6f74206f776e4552433732313a20617070726f76616c20746f2063757272656e74206f776e65724552433732313a207472616e736665722063616c6c6572206973206e6f74206f776e6572206e6f7220617070726f7665644552433732313a206275726e206f6620746f6b656e2074686174206973206e6f74206f776ea265627a7a723058200b8d764c2f960e82e2c75d77f15ee376a0de2ae4ec9419c0420d729d4d2cf8ef64736f6c63430005090032",
  "source": "pragma solidity ^0.5.0;\n\n/******************************************\n\nOur Matra our Motto for coding The Cryptoz Universe.buy\n\n      Fail EARLY and Fail LOUD !!!!!!!\n\n1.    First - Check all pre-conditions\n2.    Then  - make changes to contract state\n3.    Final - interact with other contracts\n\nPull funds over pushing them\nPlatform limits like max of 1023 loop interations.\n\nall Events start with Log\n\n******************************************/\n\nimport \"./CryptozCard.sol\";\n\ncontract Cryptoz is CryptozCard {\n    \n//Constants\n    uint constant private weiCostOfCard = 2000000000000000; //booster in wei = 0.002 ETH\n    uint constant private czxpGainedBoosterPurchase = 120;\n    uint constant private maxCardTypes = 5000; //allowed types in the Universe\n\n//Event Logs\n    event LogCardTypeLoaded(uint32 indexed cardTypeId, string cardName);\n    event LogCardPurchased(uint32 indexed cardTypeId, uint editionNumber, address indexed buyer);\n    event LogPackOpened(address indexed buyer, uint packsOpened);\n    event LogSponsorLinked(address sponsor, address affiliate);\n    event LogSponsorReward(address sponsor, address affiliate, uint CzxpReward);\n    event LogDailyReward(address player, uint newBonusBalance);\n\n//storage\n\n    //Tracking affiliate sponsors\n    mapping(address => address) public sponsors; // 1 sponsor can have many affiliates, but only 1 sponsor, returns sponsor\n    \n    //Track the timestamps for users to get their daily pull\n    mapping(address => uint) private timeToCardsPull; //address to timestamp\n    \n    //Tracking booster pack count ownership. These are NOT tokens, just a counter for fun, not really\n    mapping (address => uint256) public boosterPacksOwned;\n    \n    //where we hold inventory of the  booster packs\n    mapping(uint8 => uint32[]) private allBoosterCardIds; // [rarityId][cardId]\n    \n    //check if cardType exists\n    modifier isValidCard(uint32 _cardTypeId) {\n//TIGHTEN   //Make sure cardType exists and we dont have bad data coming in\n        require(allCardTypes[_cardTypeId].cardTypeId == _cardTypeId);\n        require(storeBoosterBonus[_cardTypeId] < 1); //you cant get cards marked for booster pack or bonus\n        _;\n    }\n    \n    function() external {\n        revert();\n    }\n\n    //Set our cxzp contract in the constructor\n    function initialize(address payable _czxpContractAddress) onlyOwner public {\n        CzxpContractAddress_ = _czxpContractAddress;\n    }\n\n    function loadNewCardType(\n            uint8 _cardTypeId,\n            string calldata _name,\n            string calldata _set,\n            uint8 _assetType,\n            uint8 _notStoreOrBonus,\n            uint8 _rarity,\n            uint16 _totalAvailable,\n            uint256 _weiCost,\n            uint256 _buyCzxp\n        ) external onlyOwner returns(bool){\n            \n        //what requires should we add ?\n        \n        //a max. of 5000 types in the universe ever\n        require(cardTypesIds.length <= maxCardTypes);\n        \n        //not allowed to update existing cardTypeIds\n        require(allCardTypes[_cardTypeId].cardTypeId == 0);\n        \n        allCardTypes[_cardTypeId].cardTypeId    = _cardTypeId;\n        allCardTypes[_cardTypeId].name          = _name;\n        allCardTypes[_cardTypeId].set           = _set;\n        cardAssetType[_cardTypeId]              = _assetType;\n        storeBoosterBonus[_cardTypeId]          = _notStoreOrBonus;\n        rarity[_cardTypeId]                     = _rarity;\n        totalAvailable[_cardTypeId]             = _totalAvailable;\n        allCardTypes[_cardTypeId].weiCost       = _weiCost;\n        allCardTypes[_cardTypeId].buyCzxp       = _buyCzxp;\n    \n        //If she be booster worthy\n        if(_notStoreOrBonus == 1){ // 0=store,1=booster,2=bonus\n            allBoosterCardIds[_rarity].push(_cardTypeId);\n        }\n        \n        //Track the cardTypeIds count\n        cardTypesIds.push(_cardTypeId);\n        return true;\n    }\n\n    function addTocardType(\n                        uint32  _cardTypeId,\n                        uint256 _transferCzxp,\n                        uint256 _sacrificeCzxp,\n                        uint256 _unlockCzxp,\n                        uint8 _cardLevel\n                      ) external onlyOwner returns(bool){\n                          \n        //not allowed to update existing cardTypeIds\n//TODO check for NULL in case we push 0 for a property\n        require(allCardTypes[_cardTypeId].transferCzxp == 0);\n        require(allCardTypes[_cardTypeId].sacrificeCzxp == 0);\n        require(allCardTypes[_cardTypeId].unlockCzxp == 0);\n        require(allCardTypes[_cardTypeId].cardLevel == 0);\n                          \n        require(allCardTypes[_cardTypeId].cardTypeId == _cardTypeId);\n        \n        \n        allCardTypes[_cardTypeId].transferCzxp  = _transferCzxp;\n        allCardTypes[_cardTypeId].sacrificeCzxp = _sacrificeCzxp;\n        allCardTypes[_cardTypeId].unlockCzxp    = _unlockCzxp;\n        allCardTypes[_cardTypeId].cardLevel     = _cardLevel;\n        \n        //initialize editionNumber\n        cardTypeToEdition[_cardTypeId] = 0;\n        \n        //Card type is defined, now emit a Log of it\n        emit LogCardTypeLoaded(_cardTypeId,allCardTypes[_cardTypeId].name);\n        return true;\n    }\n    \n    \n/**\n    /**\n     *  Public interface to purchase a card, probablly the most insecure entry point !\n     */\n    function buyCard(uint32 _cardTypeId) external payable isValidCard(_cardTypeId) returns(bool) {\n        \n        // dont even bother if no ETH sent\n        require(msg.value > 0);\n        \n        //check for valid cardType\n        require(allCardTypes[_cardTypeId].cardTypeId == _cardTypeId);\n        \n        cardType memory _tempCard = allCardTypes[_cardTypeId];\n        \n        //check if store only\n        require(storeBoosterBonus[_cardTypeId] == 0);\n        \n        //Can't buy cards you own\n        require(cardTypesOwned[msg.sender][_cardTypeId] == false);\n         \n        //Check if this card amount we sell is more than edition+1 for this card type\n        require((totalAvailable[_cardTypeId] > cardTypeToEdition[_cardTypeId] + 1 ));\n        \n        //check if they have paid enough for it\n        require(msg.value >= _tempCard.weiCost);\n        \n        //check if we have enough czxp to unlock this card\n        uint czxp = CzxpToken(CzxpContractAddress_).balanceOf(msg.sender);\n        require(czxp >= _tempCard.unlockCzxp);\n        \n    //Clear ? to buy the card\n    \n        //stop re-entrancy. Track the type of card puchased for this owner, so they cant buy again\n        cardTypesOwned[msg.sender][_cardTypeId] = true;\n        \n        //Let the universe award our friend\n        super.awardCzxp(msg.sender, allCardTypes[_cardTypeId].buyCzxp);\n        \n        //and award their sponsor\n        rewardAffiliate(allCardTypes[_cardTypeId].buyCzxp);\n    \n        //Mint the real token and pass czxp gained for logging\n        super._createCard(_cardTypeId, msg.sender,allCardTypes[_cardTypeId].buyCzxp);\n        \n        \n        return true;\n    }\n    \n    //every 8 hours, the address can get 2 free booster cards\n    function getBonusBoosters() external {\n        //this only runs if time to get new cards\n        require(now > getTimeToDailyBonus(msg.sender));\n        \n        //Stop re-entrancy, update the lastpull value\n        timeToCardsPull[msg.sender] = now + 8 hours;\n        \n        // add the boosters and emit event\n        boosterPacksOwned[msg.sender] = boosterPacksOwned[msg.sender].add(2);\n        emit LogDailyReward(msg.sender, boosterPacksOwned[msg.sender]);\n    }\n    \n    /**\n     *  Public interface to get card at no cost\n     */\n    function getFreeCard(uint32 _cardTypeId) external isValidCard(_cardTypeId) {\n        //check if store only\n        require(storeBoosterBonus[_cardTypeId] == 0);\n        \n        // ensure there is enough of a supply left\n        require(totalAvailable[_cardTypeId] > (cardTypeToEdition[_cardTypeId]+1));\n        \n        //Can't get cards From shop that you own\n        require(cardTypesOwned[msg.sender][_cardTypeId] == false);\n        \n        //check if we have enough czxp to unlock this card\n        uint czxp = CzxpToken(CzxpContractAddress_).balanceOf(msg.sender);\n        require(czxp >= allCardTypes[_cardTypeId].unlockCzxp);\n        \n        //Only cards that are Free\n        require(allCardTypes[_cardTypeId].weiCost == 0);\n\n//ALL CLEAR ???????? claim a new card\n    \n        //Stop re-entrancy, Track the type of card puchased for this owner, so they cant buy again\n        cardTypesOwned[msg.sender][_cardTypeId] = true;\n        \n        //Let the universe award our friend\n        super.awardCzxp(msg.sender, allCardTypes[_cardTypeId].buyCzxp);\n        \n        //reward the sponsor\n        rewardAffiliate(allCardTypes[_cardTypeId].buyCzxp);\n        \n        //now mint the card\n        super._createCard(_cardTypeId, msg.sender, allCardTypes[_cardTypeId].buyCzxp);\n    \n    }\n    \n    /**\n     *  Any user can sacrifice any card they own. Please don't burn down the universe :'(\n     */\n     function sacrifice(uint256 _tokenId) external {\n         //Call our internal burn function does all our owner checks\n         _burn(msg.sender, _tokenId);\n     }\n    \n//Booster Pack functions\n \n    /**\n     *  Public interface to buy booster card(s)\n    */\n    function buyBoosterCard(uint _amount) payable external returns(bool) {\n        \n        // is there enough wei sent 1 pack = 0.002 ETH ?\n        require(msg.value >= weiCostOfCard.mul(_amount));\n        \n        //All good increase the number owned\n        boosterPacksOwned[msg.sender] = boosterPacksOwned[msg.sender].add(_amount);\n\n        //Award czxp for booster\n        super.awardCzxp(msg.sender, uint(czxpGainedBoosterPurchase.mul(_amount)));\n        \n        rewardAffiliate(uint(czxpGainedBoosterPurchase.mul(_amount)));\n\n        return true;\n    }\n    \n    /**\n     *  Public interface to buy booster pack(s) and open them - NO burn option\n     */\n    function buyBoosterCardAndOpen() payable external {\n        // is there enough wei sent 1 pack = 0.005 ETH ?\n        require(msg.value >= weiCostOfCard);\n        \n        //All good increase the number owned\n        boosterPacksOwned[msg.sender] = boosterPacksOwned[msg.sender].add(1);\n\n        //Award czxp per pack\n        super.awardCzxp(msg.sender, czxpGainedBoosterPurchase);\n        \n        rewardAffiliate(czxpGainedBoosterPurchase);\n        \n        //Now open the pack\n        openBoosterCard(0);\n    }\n    \n    /**\n     *  Public interface to open already purchased booster pack(s) - User can wager an amount\n     */\n    function openBoosterCard(uint czxpWager) public returns(bool) {\n        //Ensure user owns unopened packs\n        require(boosterPacksOwned[msg.sender] > 0);\n        \n        //czxpWager check czxpWager\n        require(czxpWager >= 0);\n        \n        //decrement number of packs\n        boosterPacksOwned[msg.sender] = boosterPacksOwned[msg.sender].sub(1);\n        \n        //Pull the card\n        uint8 rarity = getRarity(czxpWager);\n        pullCard(rarity);\n        \n        //Send a log event\n        emit LogPackOpened(msg.sender, rarity);\n        return true;\n    }\n   \n    /**\n     * Public interface to allow a player to forever link their 1 sponsor\n     */\n    function linkMySponsor(address mySponsor) external {\n        //check that mySponsor arg is not 0x0\n        require(mySponsor != address(0));\n        \n        //ensure the sponsor isn't Linked\n        require(sponsors[msg.sender] == address(0));\n        \n        //Check they are not linking to themselves\n        require(msg.sender != mySponsor);\n        \n        //All clear?  stop re-entrancy, set the association\n        sponsors[msg.sender] = mySponsor;\n        \n        //Mint the Platinum Sponsor Card\n        pullCard(2);\n    }\n\n//Private\n\n    /**\n     * We always pay our affiliates 20% of the czxp\n     */\n     function rewardAffiliate(uint totalCZXP) private {\n         //first check if the caller has a sponsor\n         if(sponsors[msg.sender] != address(0)){\n             uint reward = totalCZXP / 20;\n             if(reward == 0){\n                 reward = 1;\n             }\n             super.awardCzxp(sponsors[msg.sender], reward);\n             emit LogSponsorReward(sponsors[msg.sender], msg.sender, reward);\n         }\n     }\n\n    /**\n     *\n     */\n     function pullCard(uint8 rarity) private {\n         \n         //Get a random number for the card to pull\n         uint rand = selectRandom(allBoosterCardIds[rarity].length);\n         \n         //hit up the cardTypes\n         uint32 pulledId = allBoosterCardIds[rarity][rand];\n         \n        //Give the player this cardType\n        super._createCard(pulledId, msg.sender, 100);\n     }\n    \n    /**\n     *  Private function to diceroll the rarity pull Only from booster packs\n     */\n    function getRarity(uint czxpWager) private returns(uint8){\n        \n        //Check if below upper limit\n        require(czxpWager <= 1649267441667000);\n        \n        //FIRST ensure, player can back their wager\n        uint _playerCZXPBalance = CzxpToken(CzxpContractAddress_).balanceOf(msg.sender);\n        require(_playerCZXPBalance >= czxpWager);\n        \n        //Check effects - Take their czxp\n        if(czxpWager > 0){\n            CzxpToken(CzxpContractAddress_).burnCzxp(msg.sender, czxpWager);\n        }\n        \n        //ALL CLEAR - grab a random number\n        uint rand = selectRandom(10000);\n\n        //get our probabilty distribution\n        uint16[7] memory probs = burnAndBoost(czxpWager);\n        \n        //Get the rarity for this pull from the probs\n        // 3=epic, 4=rare, 5=uncommon, 6=commmon\n        for(uint8 i=2; i < probs.length; i++){\n            if(rand <= probs[i]){\n                return i;\n            }\n        }\n//REMOVE THIS !!!!\n        return 6;\n    }\n    \n    \n    /**\n     * Private Booster distribution function\n     */\n     function burnAndBoost(uint czxpWager) private returns(uint16[7] memory) {\n        \n        //buyBoosterCardAndOpen will pass a zero, set a default\n        if(czxpWager == 0){\n            return [0,0,0,1,50,2700,10000];\n        }\n         \n        (uint16 c, uint16 u, uint16 r, uint16 e) = super.getProbs(czxpWager);\n        \n        //default distribution is 1,50,2700,10000\n         uint16[7] memory probs = [0,0,0,e,r,u,c];\n         \n        return probs;\n     }\n     \n     /**\n      * Return the timestamp of the next daily bonus for a player\n      */\n      function getTimeToDailyBonus(address _player) public view returns(uint timeStamp){\n          \n          //check if address exists\n          if(timeToCardsPull[_player] == 0){\n              return now - 2 seconds;\n          }else{\n              return timeToCardsPull[_player];\n          }\n      }\n\n\n//Thanks! for supporting the Cryptoz universe <3 <3 <3\n    /**\n    * Withdraw balance to wallet ONLY for the owner to call this\n    */\n   function withdraw() external onlyOwner {\n      msg.sender.transfer(address(this).balance);\n   }\n}",
  "sourcePath": "/home/rprice/Downloads/cryptoz.cards/contracts/Cryptoz.sol",
  "compiler": {
    "name": "solc",
    "version": "0.5.9+commit.e560f70d.Emscripten.clang"
  },
  "schemaVersion": "3.2.2",
  "updatedAt": "2020-12-10T03:12:31.281Z",
  "networkType": "ethereum",
  "devdoc": {
    "methods": {
      "approve(address,uint256)": {
        "details": "Approves another address to transfer the given token ID The zero address indicates there is no approved address. There can only be one approved address per token at a given time. Can only be called by the token owner or an approved operator.",
        "params": {
          "to": "address to be approved for the given token ID",
          "tokenId": "uint256 ID of the token to be approved"
        }
      },
      "balanceOf(address)": {
        "details": "Gets the balance of the specified address.",
        "params": {
          "owner": "address to query the balance of"
        },
        "return": "uint256 representing the amount owned by the passed address"
      },
      "getApproved(uint256)": {
        "details": "Gets the approved address for a token ID, or zero if no address set Reverts if the token ID does not exist.",
        "params": {
          "tokenId": "uint256 ID of the token to query the approval of"
        },
        "return": "address currently approved for the given token ID"
      },
      "isApprovedForAll(address,address)": {
        "details": "Tells whether an operator is approved by a given owner.",
        "params": {
          "operator": "operator address which you want to query the approval of",
          "owner": "owner address which you want to query the approval of"
        },
        "return": "bool whether the given operator is approved by the given owner"
      },
      "isOwner()": {
        "details": "Returns true if the caller is the current owner."
      },
      "name()": {
        "details": "Gets the token name",
        "return": "string representing the token name"
      },
      "owner()": {
        "details": "Returns the address of the current owner."
      },
      "ownerOf(uint256)": {
        "details": "Gets the owner of the specified token ID.",
        "params": {
          "tokenId": "uint256 ID of the token to query the owner of"
        },
        "return": "address currently marked as the owner of the given token ID"
      },
      "renounceOwnership()": {
        "details": "Leaves the contract without owner. It will not be possible to call `onlyOwner` functions anymore. Can only be called by the current owner.     * NOTE: Renouncing ownership will leave the contract without an owner, thereby removing any functionality that is only available to the owner."
      },
      "safeTransferFrom(address,address,uint256)": {
        "details": "Safely transfers the ownership of a given token ID to another address If the target address is a contract, it must implement {IERC721Receiver-onERC721Received}, which is called upon a safe transfer, and return the magic value `bytes4(keccak256(\"onERC721Received(address,address,uint256,bytes)\"))`; otherwise, the transfer is reverted. Requires the msg.sender to be the owner, approved, or operator",
        "params": {
          "from": "current owner of the token",
          "to": "address to receive the ownership of the given token ID",
          "tokenId": "uint256 ID of the token to be transferred"
        }
      },
      "safeTransferFrom(address,address,uint256,bytes)": {
        "details": "Safely transfers the ownership of a given token ID to another address If the target address is a contract, it must implement {IERC721Receiver-onERC721Received}, which is called upon a safe transfer, and return the magic value `bytes4(keccak256(\"onERC721Received(address,address,uint256,bytes)\"))`; otherwise, the transfer is reverted. Requires the _msgSender() to be the owner, approved, or operator",
        "params": {
          "_data": "bytes data to send along with a safe transfer check",
          "from": "current owner of the token",
          "to": "address to receive the ownership of the given token ID",
          "tokenId": "uint256 ID of the token to be transferred"
        }
      },
      "setApprovalForAll(address,bool)": {
        "details": "Sets or unsets the approval of a given operator An operator is allowed to transfer all tokens of the sender on their behalf.",
        "params": {
          "approved": "representing the status of the approval to be set",
          "to": "operator address to set the approval"
        }
      },
      "supportsInterface(bytes4)": {
        "details": "See {IERC165-supportsInterface}.     * Time complexity O(1), guaranteed to always use less than 30 000 gas."
      },
      "symbol()": {
        "details": "Gets the token symbol",
        "return": "string representing the token symbol"
      },
      "tokenByIndex(uint256)": {
        "details": "Gets the token ID at a given index of all the tokens in this contractReverts if the index is greater or equal to the total number of tokens",
        "params": {
          "_index": "uint256 representing the index to be accessed of the tokens list"
        },
        "return": "uint256 token ID at the given index of the tokens list"
      },
      "tokenOfOwnerByIndex(address,uint256)": {
        "details": "Gets the token ID at a given index of the tokens list of the requested owner",
        "params": {
          "_index": "uint256 representing the index to be accessed of the requested tokens list",
          "_owner": "address owning the tokens list to be accessed"
        },
        "return": "uint256 token ID at the given index of the tokens list owned by the requested address"
      },
      "tokenURI(uint256)": {
        "details": "Returns an URI for a given token IDThrows if the token ID does not exist. May return an empty string.",
        "params": {
          "_tokenId": "uint256 ID of the token to query"
        }
      },
      "totalSupply()": {
        "details": "Gets the total amount of tokens stored by the contract",
        "return": "uint256 representing the total amount of tokens"
      },
      "transferOwnership(address)": {
        "details": "Transfers ownership of the contract to a new account (`newOwner`). Can only be called by the current owner."
      }
    }
  },
  "userdoc": {
    "methods": {
      "buyBoosterCard(uint256)": {
        "notice": "Public interface to buy booster card(s)"
      },
      "buyBoosterCardAndOpen()": {
        "notice": "Public interface to buy booster pack(s) and open them - NO burn option"
      },
      "buyCard(uint32)": {
        "notice": "/** Public interface to purchase a card, probablly the most insecure entry point !"
      },
      "getFreeCard(uint32)": {
        "notice": "Public interface to get card at no cost"
      },
      "getTimeToDailyBonus(address)": {
        "notice": "Return the timestamp of the next daily bonus for a player"
      },
      "linkMySponsor(address)": {
        "notice": "Public interface to allow a player to forever link their 1 sponsor"
      },
      "openBoosterCard(uint256)": {
        "notice": "Public interface to open already purchased booster pack(s) - User can wager an amount"
      },
      "sacrifice(uint256)": {
        "notice": "Any user can sacrifice any card they own. Please don't burn down the universe :'("
      },
      "transferFrom(address,address,uint256)": {
        "notice": "Public method to allow file transfer, we call our internal function"
      },
      "withdraw()": {
        "notice": "Withdraw balance to wallet ONLY for the owner to call this"
      }
    }
  }
}