{
  "contractName": "Cryptoz",
  "abi": [
    {
      "constant": true,
      "inputs": [
        {
          "name": "interfaceId",
          "type": "bytes4"
        }
      ],
      "name": "supportsInterface",
      "outputs": [
        {
          "name": "",
          "type": "bool"
        }
      ],
      "payable": false,
      "stateMutability": "view",
      "type": "function"
    },
    {
      "constant": true,
      "inputs": [],
      "name": "name",
      "outputs": [
        {
          "name": "_name",
          "type": "string"
        }
      ],
      "payable": false,
      "stateMutability": "view",
      "type": "function"
    },
    {
      "constant": true,
      "inputs": [
        {
          "name": "tokenId",
          "type": "uint256"
        }
      ],
      "name": "getApproved",
      "outputs": [
        {
          "name": "",
          "type": "address"
        }
      ],
      "payable": false,
      "stateMutability": "view",
      "type": "function"
    },
    {
      "constant": false,
      "inputs": [
        {
          "name": "to",
          "type": "address"
        },
        {
          "name": "tokenId",
          "type": "uint256"
        }
      ],
      "name": "approve",
      "outputs": [],
      "payable": false,
      "stateMutability": "nonpayable",
      "type": "function"
    },
    {
      "constant": true,
      "inputs": [],
      "name": "totalSupply",
      "outputs": [
        {
          "name": "",
          "type": "uint256"
        }
      ],
      "payable": false,
      "stateMutability": "view",
      "type": "function"
    },
    {
      "constant": false,
      "inputs": [
        {
          "name": "from",
          "type": "address"
        },
        {
          "name": "to",
          "type": "address"
        },
        {
          "name": "tokenId",
          "type": "uint256"
        }
      ],
      "name": "transferFrom",
      "outputs": [],
      "payable": false,
      "stateMutability": "nonpayable",
      "type": "function"
    },
    {
      "constant": true,
      "inputs": [
        {
          "name": "_owner",
          "type": "address"
        },
        {
          "name": "_index",
          "type": "uint256"
        }
      ],
      "name": "tokenOfOwnerByIndex",
      "outputs": [
        {
          "name": "",
          "type": "uint256"
        }
      ],
      "payable": false,
      "stateMutability": "view",
      "type": "function"
    },
    {
      "constant": true,
      "inputs": [],
      "name": "maxCardTypes",
      "outputs": [
        {
          "name": "",
          "type": "uint256"
        }
      ],
      "payable": false,
      "stateMutability": "view",
      "type": "function"
    },
    {
      "constant": true,
      "inputs": [],
      "name": "czxpGainedBoosterPurchase",
      "outputs": [
        {
          "name": "",
          "type": "uint256"
        }
      ],
      "payable": false,
      "stateMutability": "view",
      "type": "function"
    },
    {
      "constant": false,
      "inputs": [
        {
          "name": "from",
          "type": "address"
        },
        {
          "name": "to",
          "type": "address"
        },
        {
          "name": "tokenId",
          "type": "uint256"
        }
      ],
      "name": "safeTransferFrom",
      "outputs": [],
      "payable": false,
      "stateMutability": "nonpayable",
      "type": "function"
    },
    {
      "constant": true,
      "inputs": [
        {
          "name": "",
          "type": "uint32"
        }
      ],
      "name": "allCardTypes",
      "outputs": [
        {
          "name": "cardTypeId",
          "type": "uint32"
        },
        {
          "name": "name",
          "type": "string"
        },
        {
          "name": "set",
          "type": "string"
        },
        {
          "name": "weiCost",
          "type": "uint256"
        },
        {
          "name": "buyCzxp",
          "type": "uint256"
        },
        {
          "name": "transferCzxp",
          "type": "uint256"
        },
        {
          "name": "sacrificeCzxp",
          "type": "uint256"
        },
        {
          "name": "unlockCzxp",
          "type": "uint256"
        },
        {
          "name": "cardLevel",
          "type": "uint8"
        }
      ],
      "payable": false,
      "stateMutability": "view",
      "type": "function"
    },
    {
      "constant": true,
      "inputs": [
        {
          "name": "",
          "type": "uint256"
        }
      ],
      "name": "tokensByRarity",
      "outputs": [
        {
          "name": "",
          "type": "uint256"
        }
      ],
      "payable": false,
      "stateMutability": "view",
      "type": "function"
    },
    {
      "constant": true,
      "inputs": [
        {
          "name": "_index",
          "type": "uint256"
        }
      ],
      "name": "tokenByIndex",
      "outputs": [
        {
          "name": "",
          "type": "uint256"
        }
      ],
      "payable": false,
      "stateMutability": "view",
      "type": "function"
    },
    {
      "constant": true,
      "inputs": [
        {
          "name": "tokenId",
          "type": "uint256"
        }
      ],
      "name": "ownerOf",
      "outputs": [
        {
          "name": "",
          "type": "address"
        }
      ],
      "payable": false,
      "stateMutability": "view",
      "type": "function"
    },
    {
      "constant": true,
      "inputs": [
        {
          "name": "owner",
          "type": "address"
        }
      ],
      "name": "balanceOf",
      "outputs": [
        {
          "name": "",
          "type": "uint256"
        }
      ],
      "payable": false,
      "stateMutability": "view",
      "type": "function"
    },
    {
      "constant": false,
      "inputs": [],
      "name": "renounceOwnership",
      "outputs": [],
      "payable": false,
      "stateMutability": "nonpayable",
      "type": "function"
    },
    {
      "constant": true,
      "inputs": [
        {
          "name": "",
          "type": "address"
        }
      ],
      "name": "boosterPacksOwned",
      "outputs": [
        {
          "name": "",
          "type": "uint256"
        }
      ],
      "payable": false,
      "stateMutability": "view",
      "type": "function"
    },
    {
      "constant": true,
      "inputs": [],
      "name": "getTotalTypes",
      "outputs": [
        {
          "name": "",
          "type": "uint256"
        }
      ],
      "payable": false,
      "stateMutability": "view",
      "type": "function"
    },
    {
      "constant": true,
      "inputs": [
        {
          "name": "",
          "type": "address"
        },
        {
          "name": "",
          "type": "uint256"
        }
      ],
      "name": "cardTypesOwned",
      "outputs": [
        {
          "name": "",
          "type": "bool"
        }
      ],
      "payable": false,
      "stateMutability": "view",
      "type": "function"
    },
    {
      "constant": true,
      "inputs": [
        {
          "name": "_owner",
          "type": "address"
        }
      ],
      "name": "tokensOfOwner",
      "outputs": [
        {
          "name": "ownerTokens",
          "type": "uint256[]"
        }
      ],
      "payable": false,
      "stateMutability": "view",
      "type": "function"
    },
    {
      "constant": true,
      "inputs": [],
      "name": "weiCostOfCard",
      "outputs": [
        {
          "name": "",
          "type": "uint256"
        }
      ],
      "payable": false,
      "stateMutability": "view",
      "type": "function"
    },
    {
      "constant": true,
      "inputs": [
        {
          "name": "",
          "type": "uint256"
        }
      ],
      "name": "rarity",
      "outputs": [
        {
          "name": "",
          "type": "uint8"
        }
      ],
      "payable": false,
      "stateMutability": "view",
      "type": "function"
    },
    {
      "constant": true,
      "inputs": [],
      "name": "owner",
      "outputs": [
        {
          "name": "",
          "type": "address"
        }
      ],
      "payable": false,
      "stateMutability": "view",
      "type": "function"
    },
    {
      "constant": true,
      "inputs": [],
      "name": "isOwner",
      "outputs": [
        {
          "name": "",
          "type": "bool"
        }
      ],
      "payable": false,
      "stateMutability": "view",
      "type": "function"
    },
    {
      "constant": true,
      "inputs": [
        {
          "name": "",
          "type": "uint256"
        }
      ],
      "name": "cardTypesIds",
      "outputs": [
        {
          "name": "",
          "type": "uint256"
        }
      ],
      "payable": false,
      "stateMutability": "view",
      "type": "function"
    },
    {
      "constant": true,
      "inputs": [],
      "name": "symbol",
      "outputs": [
        {
          "name": "_symbol",
          "type": "string"
        }
      ],
      "payable": false,
      "stateMutability": "view",
      "type": "function"
    },
    {
      "constant": true,
      "inputs": [],
      "name": "maxBoostersReward",
      "outputs": [
        {
          "name": "",
          "type": "uint256"
        }
      ],
      "payable": false,
      "stateMutability": "view",
      "type": "function"
    },
    {
      "constant": false,
      "inputs": [
        {
          "name": "to",
          "type": "address"
        },
        {
          "name": "approved",
          "type": "bool"
        }
      ],
      "name": "setApprovalForAll",
      "outputs": [],
      "payable": false,
      "stateMutability": "nonpayable",
      "type": "function"
    },
    {
      "constant": true,
      "inputs": [
        {
          "name": "_tokenId",
          "type": "uint256"
        }
      ],
      "name": "getOwnedCard",
      "outputs": [
        {
          "name": "",
          "type": "uint32"
        },
        {
          "name": "",
          "type": "uint256"
        },
        {
          "name": "",
          "type": "uint256"
        }
      ],
      "payable": false,
      "stateMutability": "view",
      "type": "function"
    },
    {
      "constant": true,
      "inputs": [],
      "name": "getTokensByRarity",
      "outputs": [
        {
          "name": "",
          "type": "uint256"
        },
        {
          "name": "",
          "type": "uint256"
        },
        {
          "name": "",
          "type": "uint256"
        },
        {
          "name": "",
          "type": "uint256"
        },
        {
          "name": "",
          "type": "uint256"
        },
        {
          "name": "",
          "type": "uint256"
        }
      ],
      "payable": false,
      "stateMutability": "view",
      "type": "function"
    },
    {
      "constant": true,
      "inputs": [
        {
          "name": "",
          "type": "uint256"
        }
      ],
      "name": "cardTypeToEdition",
      "outputs": [
        {
          "name": "",
          "type": "uint256"
        }
      ],
      "payable": false,
      "stateMutability": "view",
      "type": "function"
    },
    {
      "constant": false,
      "inputs": [
        {
          "name": "from",
          "type": "address"
        },
        {
          "name": "to",
          "type": "address"
        },
        {
          "name": "tokenId",
          "type": "uint256"
        },
        {
          "name": "_data",
          "type": "bytes"
        }
      ],
      "name": "safeTransferFrom",
      "outputs": [],
      "payable": false,
      "stateMutability": "nonpayable",
      "type": "function"
    },
    {
      "constant": true,
      "inputs": [
        {
          "name": "_tokenId",
          "type": "uint256"
        }
      ],
      "name": "tokenURI",
      "outputs": [
        {
          "name": "",
          "type": "string"
        }
      ],
      "payable": false,
      "stateMutability": "view",
      "type": "function"
    },
    {
      "constant": true,
      "inputs": [
        {
          "name": "",
          "type": "address"
        }
      ],
      "name": "sponsors",
      "outputs": [
        {
          "name": "",
          "type": "address"
        }
      ],
      "payable": false,
      "stateMutability": "view",
      "type": "function"
    },
    {
      "constant": true,
      "inputs": [
        {
          "name": "owner",
          "type": "address"
        },
        {
          "name": "operator",
          "type": "address"
        }
      ],
      "name": "isApprovedForAll",
      "outputs": [
        {
          "name": "",
          "type": "bool"
        }
      ],
      "payable": false,
      "stateMutability": "view",
      "type": "function"
    },
    {
      "constant": false,
      "inputs": [
        {
          "name": "newOwner",
          "type": "address"
        }
      ],
      "name": "transferOwnership",
      "outputs": [],
      "payable": false,
      "stateMutability": "nonpayable",
      "type": "function"
    },
    {
      "constant": true,
      "inputs": [],
      "name": "totalBoostersRewarded",
      "outputs": [
        {
          "name": "",
          "type": "uint256"
        }
      ],
      "payable": false,
      "stateMutability": "view",
      "type": "function"
    },
    {
      "payable": false,
      "stateMutability": "nonpayable",
      "type": "fallback"
    },
    {
      "anonymous": false,
      "inputs": [
        {
          "indexed": true,
          "name": "cardTypeId",
          "type": "uint32"
        },
        {
          "indexed": false,
          "name": "cardName",
          "type": "string"
        }
      ],
      "name": "LogCardTypeLoaded",
      "type": "event"
    },
    {
      "anonymous": false,
      "inputs": [
        {
          "indexed": true,
          "name": "cardTypeId",
          "type": "uint32"
        },
        {
          "indexed": false,
          "name": "editionNumber",
          "type": "uint256"
        },
        {
          "indexed": true,
          "name": "buyer",
          "type": "address"
        }
      ],
      "name": "LogCardPurchased",
      "type": "event"
    },
    {
      "anonymous": false,
      "inputs": [
        {
          "indexed": true,
          "name": "buyer",
          "type": "address"
        },
        {
          "indexed": false,
          "name": "packsOpened",
          "type": "uint256"
        }
      ],
      "name": "LogPackOpened",
      "type": "event"
    },
    {
      "anonymous": false,
      "inputs": [
        {
          "indexed": false,
          "name": "sponsor",
          "type": "address"
        },
        {
          "indexed": false,
          "name": "affiliate",
          "type": "address"
        }
      ],
      "name": "LogSponsorLinked",
      "type": "event"
    },
    {
      "anonymous": false,
      "inputs": [
        {
          "indexed": false,
          "name": "sponsor",
          "type": "address"
        },
        {
          "indexed": false,
          "name": "affiliate",
          "type": "address"
        },
        {
          "indexed": false,
          "name": "CzxpReward",
          "type": "uint256"
        }
      ],
      "name": "LogSponsorReward",
      "type": "event"
    },
    {
      "anonymous": false,
      "inputs": [
        {
          "indexed": false,
          "name": "player",
          "type": "address"
        },
        {
          "indexed": false,
          "name": "newBonusBalance",
          "type": "uint256"
        }
      ],
      "name": "LogDailyReward",
      "type": "event"
    },
    {
      "anonymous": false,
      "inputs": [
        {
          "indexed": false,
          "name": "winner",
          "type": "address"
        },
        {
          "indexed": false,
          "name": "boostersAwarded",
          "type": "uint256"
        }
      ],
      "name": "LogRewardBoosters",
      "type": "event"
    },
    {
      "anonymous": false,
      "inputs": [
        {
          "indexed": true,
          "name": "owner",
          "type": "address"
        },
        {
          "indexed": true,
          "name": "cardTokenId",
          "type": "uint256"
        },
        {
          "indexed": false,
          "name": "editionNumber",
          "type": "uint256"
        },
        {
          "indexed": true,
          "name": "cardTypeId",
          "type": "uint256"
        },
        {
          "indexed": false,
          "name": "rarity",
          "type": "uint8"
        },
        {
          "indexed": false,
          "name": "CzxpGained",
          "type": "uint256"
        }
      ],
      "name": "LogCardCreated",
      "type": "event"
    },
    {
      "anonymous": false,
      "inputs": [
        {
          "indexed": true,
          "name": "owner",
          "type": "address"
        },
        {
          "indexed": true,
          "name": "cardTokenId",
          "type": "uint256"
        },
        {
          "indexed": true,
          "name": "cardTypeId",
          "type": "uint256"
        },
        {
          "indexed": false,
          "name": "CzxpGained",
          "type": "uint256"
        }
      ],
      "name": "SacrificeCardEvent",
      "type": "event"
    },
    {
      "anonymous": false,
      "inputs": [
        {
          "indexed": true,
          "name": "from",
          "type": "address"
        },
        {
          "indexed": true,
          "name": "to",
          "type": "address"
        },
        {
          "indexed": true,
          "name": "tokenId",
          "type": "uint256"
        }
      ],
      "name": "Transfer",
      "type": "event"
    },
    {
      "anonymous": false,
      "inputs": [
        {
          "indexed": true,
          "name": "owner",
          "type": "address"
        },
        {
          "indexed": true,
          "name": "approved",
          "type": "address"
        },
        {
          "indexed": true,
          "name": "tokenId",
          "type": "uint256"
        }
      ],
      "name": "Approval",
      "type": "event"
    },
    {
      "anonymous": false,
      "inputs": [
        {
          "indexed": true,
          "name": "owner",
          "type": "address"
        },
        {
          "indexed": true,
          "name": "operator",
          "type": "address"
        },
        {
          "indexed": false,
          "name": "approved",
          "type": "bool"
        }
      ],
      "name": "ApprovalForAll",
      "type": "event"
    },
    {
      "anonymous": false,
      "inputs": [
        {
          "indexed": true,
          "name": "beneficiary",
          "type": "address"
        },
        {
          "indexed": false,
          "name": "czxpAmount",
          "type": "uint256"
        }
      ],
      "name": "CZXPGained",
      "type": "event"
    },
    {
      "anonymous": false,
      "inputs": [
        {
          "indexed": true,
          "name": "previousOwner",
          "type": "address"
        },
        {
          "indexed": true,
          "name": "newOwner",
          "type": "address"
        }
      ],
      "name": "OwnershipTransferred",
      "type": "event"
    },
    {
      "constant": false,
      "inputs": [
        {
          "name": "_czxpContractAddress",
          "type": "address"
        }
      ],
      "name": "initialize",
      "outputs": [],
      "payable": false,
      "stateMutability": "nonpayable",
      "type": "function"
    },
    {
      "constant": false,
      "inputs": [
        {
          "name": "_cardTypeId",
          "type": "uint8"
        },
        {
          "name": "_name",
          "type": "string"
        },
        {
          "name": "_set",
          "type": "string"
        },
        {
          "name": "_assetType",
          "type": "uint8"
        },
        {
          "name": "_notStoreOrBonus",
          "type": "uint8"
        },
        {
          "name": "_rarity",
          "type": "uint8"
        },
        {
          "name": "_totalAvailable",
          "type": "uint16"
        },
        {
          "name": "_weiCost",
          "type": "uint256"
        },
        {
          "name": "_buyCzxp",
          "type": "uint256"
        }
      ],
      "name": "loadNewCardType",
      "outputs": [
        {
          "name": "",
          "type": "bool"
        }
      ],
      "payable": false,
      "stateMutability": "nonpayable",
      "type": "function"
    },
    {
      "constant": false,
      "inputs": [
        {
          "name": "_cardTypeId",
          "type": "uint32"
        },
        {
          "name": "_transferCzxp",
          "type": "uint256"
        },
        {
          "name": "_sacrificeCzxp",
          "type": "uint256"
        },
        {
          "name": "_unlockCzxp",
          "type": "uint256"
        },
        {
          "name": "_cardLevel",
          "type": "uint8"
        }
      ],
      "name": "addTocardType",
      "outputs": [
        {
          "name": "",
          "type": "bool"
        }
      ],
      "payable": false,
      "stateMutability": "nonpayable",
      "type": "function"
    },
    {
      "constant": false,
      "inputs": [
        {
          "name": "_cardTypeId",
          "type": "uint32"
        }
      ],
      "name": "buyCard",
      "outputs": [
        {
          "name": "",
          "type": "bool"
        }
      ],
      "payable": true,
      "stateMutability": "payable",
      "type": "function"
    },
    {
      "constant": false,
      "inputs": [],
      "name": "getBonusBoosters",
      "outputs": [],
      "payable": false,
      "stateMutability": "nonpayable",
      "type": "function"
    },
    {
      "constant": false,
      "inputs": [
        {
          "name": "_cardTypeId",
          "type": "uint32"
        }
      ],
      "name": "getFreeCard",
      "outputs": [],
      "payable": false,
      "stateMutability": "nonpayable",
      "type": "function"
    },
    {
      "constant": false,
      "inputs": [
        {
          "name": "_tokenId",
          "type": "uint256"
        }
      ],
      "name": "sacrifice",
      "outputs": [],
      "payable": false,
      "stateMutability": "nonpayable",
      "type": "function"
    },
    {
      "constant": false,
      "inputs": [
        {
          "name": "_winner",
          "type": "address"
        },
        {
          "name": "_amount",
          "type": "uint256"
        }
      ],
      "name": "awardBoosterCredits",
      "outputs": [
        {
          "name": "",
          "type": "bool"
        }
      ],
      "payable": false,
      "stateMutability": "nonpayable",
      "type": "function"
    },
    {
      "constant": false,
      "inputs": [
        {
          "name": "_amount",
          "type": "uint256"
        }
      ],
      "name": "buyBoosterCard",
      "outputs": [
        {
          "name": "",
          "type": "bool"
        }
      ],
      "payable": true,
      "stateMutability": "payable",
      "type": "function"
    },
    {
      "constant": false,
      "inputs": [],
      "name": "buyBoosterCardAndOpen",
      "outputs": [],
      "payable": true,
      "stateMutability": "payable",
      "type": "function"
    },
    {
      "constant": false,
      "inputs": [
        {
          "name": "czxpWager",
          "type": "uint256"
        }
      ],
      "name": "openBoosterCard",
      "outputs": [
        {
          "name": "",
          "type": "bool"
        }
      ],
      "payable": false,
      "stateMutability": "nonpayable",
      "type": "function"
    },
    {
      "constant": false,
      "inputs": [
        {
          "name": "mySponsor",
          "type": "address"
        }
      ],
      "name": "linkMySponsor",
      "outputs": [],
      "payable": false,
      "stateMutability": "nonpayable",
      "type": "function"
    },
    {
      "constant": true,
      "inputs": [
        {
          "name": "_player",
          "type": "address"
        }
      ],
      "name": "getTimeToDailyBonus",
      "outputs": [
        {
          "name": "timeStamp",
          "type": "uint256"
        }
      ],
      "payable": false,
      "stateMutability": "view",
      "type": "function"
    },
    {
      "constant": false,
      "inputs": [],
      "name": "withdraw",
      "outputs": [],
      "payable": false,
      "stateMutability": "nonpayable",
      "type": "function"
    }
  ],
  "bytecode": "0x60c0604052601b60808190527f68747470733a2f2f63727970746f7a2e63617264732f646174612f000000000060a0908152620000409160019190620002f8565b506000600b5560408051808201909152600d8082527f43727970746f7a2043617264730000000000000000000000000000000000000060209092019182526200008c91601591620002f8565b506040805180820190915260078082527f43727970746f7a000000000000000000000000000000000000000000000000006020909201918252620000d391601691620002f8565b506040805160e081018252600080825260208201819052918101829052606081018290526080810182905260a0810182905260c08101919091526200011d90601c9060076200037d565b5060006024819055620001386001600160e01b036200022416565b600080546001600160a01b0319166001600160a01b0383169081178255604051929350917f8be0079c531659141344cd1fd0a4f28419497f9722a3daafe3b4186f6b6457e0908290a350620001b67f01ffc9a7000000000000000000000000000000000000000000000000000000006001600160e01b036200022916565b620001ea7f80ac58cd000000000000000000000000000000000000000000000000000000006001600160e01b036200022916565b6200021e7f780e9d63000000000000000000000000000000000000000000000000000000006001600160e01b036200022916565b620003d0565b335b90565b7fffffffff000000000000000000000000000000000000000000000000000000008082161415620002bb57604080517f08c379a000000000000000000000000000000000000000000000000000000000815260206004820152601c60248201527f4552433136353a20696e76616c696420696e7465726661636520696400000000604482015290519081900360640190fd5b7fffffffff00000000000000000000000000000000000000000000000000000000166000908152600c60205260409020805460ff19166001179055565b828054600181600116156101000203166002900490600052602060002090601f016020900481019282601f106200033b57805160ff19168380011785556200036b565b828001600101855582156200036b579182015b828111156200036b5782518255916020019190600101906200034e565b5062000379929150620003b3565b5090565b82600781019282156200036b579160200282015b828111156200036b578251829060ff1690559160200191906001019062000391565b6200022691905b80821115620003795760008155600101620003ba565b614c3280620003e06000396000f3fe6080604052600436106102e45760003560e01c806388ab799111610190578063b4a16769116100dc578063d42198e611610095578063f2fde38b1161006f578063f2fde38b14610e83578063f6856f1814610eb6578063f8ae951114610ecb578063fc7f0fec14610efe576102e4565b8063d42198e614610e01578063e178e05114610e1e578063e985e9c514610e48576102e4565b8063b4a1676914610c53578063b88d4fde14610c7d578063c4d66de814610d4e578063c87b56dd14610d81578063d057570814610dab578063d35590c214610dce576102e4565b8063918923c411610149578063a22cb46511610123578063a22cb46514610b48578063a47ed2e714610b83578063abb5c73b14610bd2578063afa6154114610c0b576102e4565b8063918923c414610af457806395d89b4114610b1e57806396beb02d14610b33576102e4565b806388ab7991146109435780638b58c569146109585780638da5cb5b146109985780638e7a5913146109ad5780638f32d59b14610aac578063912fdfcb14610ac1576102e4565b806342ed1d291161024f57806370a08231116102085780637bbbe390116101e25780637bbbe3901461085d5780637f2764551461087257806381cbd203146108875780638462151c146108c0576102e4565b806370a08231146107e2578063715018a6146108155780637752f4871461082a576102e4565b806342ed1d291461059e5780634d3e2e5e146106ef5780634f27f626146107195780634f6ccce7146107435780636352211e1461076d578063692170c214610797576102e4565b806323b872dd116102a157806323b872dd146104a05780632f745c59146104e357806333d87d731461051c578063368b5b72146105315780633ccfd60b1461054657806342842e0e1461055b576102e4565b806301ffc9a7146102f657806306fdde031461033e578063081812fc146103c8578063095ea7b31461040e57806316b93be81461044957806318160ddd14610479575b3480156102f057600080fd5b50600080fd5b34801561030257600080fd5b5061032a6004803603602081101561031957600080fd5b50356001600160e01b031916610f06565b604080519115158252519081900360200190f35b34801561034a57600080fd5b50610353610f29565b6040805160208082528351818301528351919283929083019185019080838360005b8381101561038d578181015183820152602001610375565b50505050905090810190601f1680156103ba5780820380516001836020036101000a031916815260200191505b509250505060405180910390f35b3480156103d457600080fd5b506103f2600480360360208110156103eb57600080fd5b5035610fc0565b604080516001600160a01b039092168252519081900360200190f35b34801561041a57600080fd5b506104476004803603604081101561043157600080fd5b506001600160a01b038135169060200135611022565b005b34801561045557600080fd5b506104476004803603602081101561046c57600080fd5b503563ffffffff1661114a565b34801561048557600080fd5b5061048e61136e565b60408051918252519081900360200190f35b3480156104ac57600080fd5b50610447600480360360608110156104c357600080fd5b506001600160a01b03813581169160208101359091169060400135611374565b3480156104ef57600080fd5b5061048e6004803603604081101561050657600080fd5b506001600160a01b0381351690602001356113c0565b34801561052857600080fd5b5061048e61140e565b34801561053d57600080fd5b5061048e611414565b34801561055257600080fd5b50610447611419565b34801561056757600080fd5b506104476004803603606081101561057e57600080fd5b506001600160a01b03813581169160208101359091169060400135611490565b3480156105aa57600080fd5b506105ce600480360360208110156105c157600080fd5b503563ffffffff166114ab565b604051808a63ffffffff1663ffffffff16815260200180602001806020018981526020018881526020018781526020018681526020018581526020018460ff1660ff16815260200183810383528b818151815260200191508051906020019080838360005b8381101561064b578181015183820152602001610633565b50505050905090810190601f1680156106785780820380516001836020036101000a031916815260200191505b5083810382528a5181528a516020918201918c019080838360005b838110156106ab578181015183820152602001610693565b50505050905090810190601f1680156106d85780820380516001836020036101000a031916815260200191505b509b50505050505050505050505060405180910390f35b3480156106fb57600080fd5b5061048e6004803603602081101561071257600080fd5b5035611618565b34801561072557600080fd5b5061032a6004803603602081101561073c57600080fd5b503561162c565b34801561074f57600080fd5b5061048e6004803603602081101561076657600080fd5b50356116cf565b34801561077957600080fd5b506103f26004803603602081101561079057600080fd5b5035611703565b3480156107a357600080fd5b5061032a600480360360a08110156107ba57600080fd5b50803563ffffffff16906020810135906040810135906060810135906080013560ff16611757565b3480156107ee57600080fd5b5061048e6004803603602081101561080557600080fd5b50356001600160a01b0316611959565b34801561082157600080fd5b506104476119c1565b34801561083657600080fd5b5061048e6004803603602081101561084d57600080fd5b50356001600160a01b0316611a52565b34801561086957600080fd5b50610447611a64565b34801561087e57600080fd5b5061048e611b2c565b34801561089357600080fd5b5061032a600480360360408110156108aa57600080fd5b506001600160a01b038135169060200135611b32565b3480156108cc57600080fd5b506108f3600480360360208110156108e357600080fd5b50356001600160a01b0316611b52565b60408051602080825283518183015283519192839290830191858101910280838360005b8381101561092f578181015183820152602001610917565b505050509050019250505060405180910390f35b34801561094f57600080fd5b5061048e611bb3565b34801561096457600080fd5b506109826004803603602081101561097b57600080fd5b5035611bbe565b6040805160ff9092168252519081900360200190f35b3480156109a457600080fd5b506103f2611bd3565b3480156109b957600080fd5b5061032a60048036036101208110156109d157600080fd5b60ff8235169190810190604081016020820135600160201b8111156109f557600080fd5b820183602082011115610a0757600080fd5b803590602001918460018302840111600160201b83111715610a2857600080fd5b919390929091602081019035600160201b811115610a4557600080fd5b820183602082011115610a5757600080fd5b803590602001918460018302840111600160201b83111715610a7857600080fd5b919350915060ff813581169160208101358216916040820135169061ffff6060820135169060808101359060a00135611be2565b348015610ab857600080fd5b5061032a611dc7565b348015610acd57600080fd5b5061044760048036036020811015610ae457600080fd5b50356001600160a01b0316611deb565b348015610b0057600080fd5b5061048e60048036036020811015610b1757600080fd5b5035611e69565b348015610b2a57600080fd5b50610353611e87565b348015610b3f57600080fd5b5061048e611ee8565b348015610b5457600080fd5b5061044760048036036040811015610b6b57600080fd5b506001600160a01b0381351690602001351515611eee565b348015610b8f57600080fd5b50610bad60048036036020811015610ba657600080fd5b5035611ff3565b6040805163ffffffff9094168452602084019290925282820152519081900360600190f35b348015610bde57600080fd5b5061032a60048036036040811015610bf557600080fd5b506001600160a01b03813516906020013561207d565b348015610c1757600080fd5b50610c206121a9565b604080519687526020870195909552858501939093526060850191909152608084015260a0830152519081900360c00190f35b348015610c5f57600080fd5b5061048e60048036036020811015610c7657600080fd5b50356121c7565b348015610c8957600080fd5b5061044760048036036080811015610ca057600080fd5b6001600160a01b03823581169260208101359091169160408201359190810190608081016060820135600160201b811115610cda57600080fd5b820183602082011115610cec57600080fd5b803590602001918460018302840111600160201b83111715610d0d57600080fd5b91908080601f0160208091040260200160405190810160405280939291908181526020018383808284376000920191909152509295506121d9945050505050565b348015610d5a57600080fd5b5061044760048036036020811015610d7157600080fd5b50356001600160a01b0316612231565b348015610d8d57600080fd5b5061035360048036036020811015610da457600080fd5b503561229a565b61032a60048036036020811015610dc157600080fd5b503563ffffffff1661233b565b348015610dda57600080fd5b506103f260048036036020811015610df157600080fd5b50356001600160a01b031661288f565b61032a60048036036020811015610e1757600080fd5b50356128aa565b348015610e2a57600080fd5b5061044760048036036020811015610e4157600080fd5b503561293d565b348015610e5457600080fd5b5061032a60048036036040811015610e6b57600080fd5b506001600160a01b0381358116916020013516612947565b348015610e8f57600080fd5b5061044760048036036020811015610ea657600080fd5b50356001600160a01b0316612975565b348015610ec257600080fd5b5061048e6129c5565b348015610ed757600080fd5b5061048e60048036036020811015610eee57600080fd5b50356001600160a01b03166129cb565b610447612a12565b6001600160e01b031981166000908152600c602052604090205460ff165b919050565b60158054604080516020601f6002600019610100600188161502019095169490940493840181900481028201810190925282815260609390929091830182828015610fb55780601f10610f8a57610100808354040283529160200191610fb5565b820191906000526020600020905b815481529060010190602001808311610f9857829003601f168201915b505050505090505b90565b6000610fcb82612a79565b6110065760405162461bcd60e51b815260040180806020018281038252602c815260200180614a0e602c913960400191505060405180910390fd5b506000908152600e60205260409020546001600160a01b031690565b600061102d82611703565b9050806001600160a01b0316836001600160a01b031614156110805760405162461bcd60e51b8152600401808060200182810382526021815260200180614b006021913960400191505060405180910390fd5b806001600160a01b0316611092612a96565b6001600160a01b031614806110b357506110b3816110ae612a96565b612947565b6110ee5760405162461bcd60e51b81526004018080602001828103825260388152602001806149626038913960400191505060405180910390fd5b6000828152600e602052604080822080546001600160a01b0319166001600160a01b0387811691821790925591518593918516917f8c5be1e5ebec7d5bd14f71427d1e84f3dd0314c0f7b2291e5b200ac8c7c3b92591a4505050565b63ffffffff8082166000818152600760205260409020548392161461116e57600080fd5b63ffffffff8116600090815260036020526040902054600160ff9091161061119557600080fd5b63ffffffff821660009081526003602052604090205460ff16156111b857600080fd5b63ffffffff8216600090815260096020908152604080832054600590925290912054600190910161ffff909116116111ef57600080fd5b33600090815260236020908152604080832063ffffffff8616845290915290205460ff161561121d57600080fd5b600a54604080516370a0823160e01b815233600482015290516000926001600160a01b0316916370a08231916024808301926020929190829003018186803b15801561126857600080fd5b505afa15801561127c573d6000803e3d6000fd5b505050506040513d602081101561129257600080fd5b505163ffffffff8416600090815260076020819052604090912001549091508110156112bd57600080fd5b63ffffffff8316600090815260076020526040902060030154156112e057600080fd5b33600081815260236020908152604080832063ffffffff881684528252808320805460ff1916600117905560079091529020600401546113209190612a9a565b63ffffffff831660009081526007602052604090206004015461134290612b0b565b63ffffffff83166000908152600760205260409020600401546113689084903390612bb8565b50505050565b60195490565b61137e3382612e3f565b61138757600080fd5b60016006828154811061139657fe5b60009182526020909120600260039092020101805490910190556113bb838383612ee3565b505050565b60006113cb83611959565b82106113d657600080fd5b6001600160a01b03831660009081526017602052604090208054839081106113fa57fe5b906000526020600020015490505b92915050565b61138881565b607881565b611421611dc7565b611460576040805162461bcd60e51b81526020600482018190526024820152600080516020614a3a833981519152604482015290519081900360640190fd5b6040513390303180156108fc02916000818181858888f1935050505015801561148d573d6000803e3d6000fd5b50565b6113bb838383604051806020016040528060008152506121d9565b6007602090815260009182526040918290208054600180830180548651600261010094831615949094026000190190911692909204601f810186900486028301860190965285825263ffffffff9092169492939092908301828280156115525780601f1061152757610100808354040283529160200191611552565b820191906000526020600020905b81548152906001019060200180831161153557829003601f168201915b50505060028085018054604080516020601f60001961010060018716150201909416959095049283018590048502810185019091528181529596959450909250908301828280156115e45780601f106115b9576101008083540402835291602001916115e4565b820191906000526020600020905b8154815290600101906020018083116115c757829003601f168201915b5050506003840154600485015460058601546006870154600788015460089098015496979396929550909350919060ff1689565b601c816007811061162557fe5b0154905081565b3360009081526027602052604081205461164557600080fd5b3360009081526027602052604090205461166690600163ffffffff612eee16565b3360009081526027602052604081209190915561168283612f37565b905061168d816130b3565b6040805160ff83168152905133917f66e021f2e6bf1b4f79e6e5622acffc29c6230663c0432ac8c08a5edcb1f23382919081900360200190a250600192915050565b60006116d961136e565b82106116e457600080fd5b601982815481106116f157fe5b90600052602060002001549050919050565b6000818152600d60205260408120546001600160a01b0316806114085760405162461bcd60e51b81526004018080602001828103825260298152602001806149c46029913960400191505060405180910390fd5b6000611761611dc7565b6117a0576040805162461bcd60e51b81526020600482018190526024820152600080516020614a3a833981519152604482015290519081900360640190fd5b63ffffffff8616600090815260076020526040902060050154156117c357600080fd5b63ffffffff8616600090815260076020526040902060060154156117e657600080fd5b63ffffffff8616600090815260076020819052604090912001541561180a57600080fd5b63ffffffff861660009081526007602052604090206008015460ff161561183057600080fd5b63ffffffff8087166000818152600760205260409020549091161461185457600080fd5b63ffffffff86166000818152600760208181526040808420600581018b9055600681018a905580840189905560088101805460ff8a1660ff199091161790556009835281852094909455918152815181815260019384018054600295811615610100026000190116949094049181018290527f566651c26d6867f4a0341c33295b297504f1f8445ef05b6a80d7faa24280cd2e9392909182918201908490801561193f5780601f106119145761010080835404028352916020019161193f565b820191906000526020600020905b81548152906001019060200180831161192257829003601f168201915b50509250505060405180910390a250600195945050505050565b60006001600160a01b0382166119a05760405162461bcd60e51b815260040180806020018281038252602a81526020018061499a602a913960400191505060405180910390fd5b6001600160a01b0382166000908152600f6020526040902061140890613126565b6119c9611dc7565b611a08576040805162461bcd60e51b81526020600482018190526024820152600080516020614a3a833981519152604482015290519081900360640190fd5b600080546040516001600160a01b03909116907f8be0079c531659141344cd1fd0a4f28419497f9722a3daafe3b4186f6b6457e0908390a3600080546001600160a01b0319169055565b60276020526000908152604090205481565b611a6d336129cb565b4211611aaa5760405162461bcd60e51b815260040180806020018281038252602b815260200180614a83602b913960400191505060405180910390fd5b336000908152602660209081526040808320617080420190556027909152902054611adc90600263ffffffff61312a16565b33600081815260276020908152604091829020849055815192835282019290925281517fdea0c85af515c9fffcca886846213edc28206526b243af2f064b6962032ce185929181900390910190a1565b60085490565b602360209081526000928352604080842090915290825290205460ff1681565b6060611b5d82613184565b805480602002602001604051908101604052809291908181526020018280548015611ba757602002820191906000526020600020905b815481526020019060010190808311611b93575b50505050509050919050565b66071afd498d000081565b60046020526000908152604090205460ff1681565b6000546001600160a01b031690565b6000611bec611dc7565b611c2b576040805162461bcd60e51b81526020600482018190526024820152600080516020614a3a833981519152604482015290519081900360640190fd5b6008546113881015611c3c57600080fd5b60ff8c1660009081526007602052604090205463ffffffff1615611c5f57600080fd5b60ff8c166000818152600760205260409020805463ffffffff19169091178155611c8d906001018c8c614668565b5060ff8c166000908152600760205260409020611cae906002018a8a614668565b5060ff8c81166000908152600260209081526040808320805460ff199081168d8716179091556003808452828520805483168d881690811790915560048086528487208054909416978d169790971790925560058452828520805461ffff191661ffff8c161790556007909352922090810186905590910183905560011415611d7d5760ff85811660009081526028602090815260408220805460018101825590835291206008820401805463ffffffff60079093166004026101000a9283021916928f169091029190911790555b50600880546001818101835560009290925260ff8d167ff3f7a9fe364faab93b216da50a3214154f22a0a2b415b23a84c8169e8b636ee3909101559b9a5050505050505050505050565b600080546001600160a01b0316611ddc612a96565b6001600160a01b031614905090565b6001600160a01b038116611dfe57600080fd5b336000908152602560205260409020546001600160a01b031615611e2157600080fd5b336001600160a01b0382161415611e3757600080fd5b33600090815260256020526040902080546001600160a01b0319166001600160a01b03831617905561148d60026130b3565b60088181548110611e7657fe5b600091825260209091200154905081565b60168054604080516020601f6002600019610100600188161502019095169490940493840181900481028201810190925282815260609390929091830182828015610fb55780601f10610f8a57610100808354040283529160200191610fb5565b61c35081565b611ef6612a96565b6001600160a01b0316826001600160a01b03161415611f5c576040805162461bcd60e51b815260206004820152601960248201527f4552433732313a20617070726f766520746f2063616c6c657200000000000000604482015290519081900360640190fd5b8060106000611f69612a96565b6001600160a01b03908116825260208083019390935260409182016000908120918716808252919093529120805460ff191692151592909217909155611fad612a96565b60408051841515815290516001600160a01b0392909216917f17307eab39ab6107e8899845ad3d59bd9653f200f220920489ca2b5937696c319181900360200190a35050565b600080600061200184612a79565b61200a57600080fd5b6006848154811061201757fe5b60009182526020909120600390910201546006805463ffffffff909216918690811061203f57fe5b9060005260206000209060030201600101546006868154811061205e57fe5b9060005260206000209060030201600201549250925092509193909250565b6000612087611dc7565b6120c6576040805162461bcd60e51b81526020600482018190526024820152600080516020614a3a833981519152604482015290519081900360640190fd5b61c3508260245401111561210b5760405162461bcd60e51b815260040180806020018281038252602d815260200180614ad3602d913960400191505060405180910390fd5b60245461211e908363ffffffff61312a16565b506001600160a01b038316600090815260276020526040902054612148908363ffffffff61312a16565b6001600160a01b03841660008181526027602090815260409182902093909355805191825291810184905281517f0db7c2749c43f1a3f16904833bf2cf21b6f6e675613def2bd07ec6b2de65bf8b929181900390910190a150600192915050565b601d54601e54601f5460205460215460225494959394929391929091565b60096020526000908152604090205481565b6121ea6121e4612a96565b83612e3f565b6122255760405162461bcd60e51b8152600401808060200182810382526031815260200180614b456031913960400191505060405180910390fd5b6113688484848461319e565b612239611dc7565b612278576040805162461bcd60e51b81526020600482018190526024820152600080516020614a3a833981519152604482015290519081900360640190fd5b600a80546001600160a01b0319166001600160a01b0392909216919091179055565b60018054604080516020600284861615610100026000190190941693909304601f810184900484028201840190925281815260609361140893919290918301828280156123285780601f106122fd57610100808354040283529160200191612328565b820191906000526020600020905b81548152906001019060200180831161230b57829003601f168201915b5050505050612336846131f0565b6132b1565b63ffffffff8082166000818152600760205260408120549092849291161461236257600080fd5b63ffffffff8116600090815260036020526040902054600160ff9091161061238957600080fd5b600034116123c8576040805162461bcd60e51b81526020600482015260076024820152665061792075702160c81b604482015290519081900360640190fd5b63ffffffff8084166000818152600760205260409020549091161461241e5760405162461bcd60e51b8152600401808060200182810382526025815260200180614aae6025913960400191505060405180910390fd5b6124266146e6565b63ffffffff84811660009081526007602090815260409182902082516101208101845281549094168452600180820180548551600261010094831615949094026000190190911692909204601f81018590048502830185019095528482529193858401939192918301828280156124de5780601f106124b3576101008083540402835291602001916124de565b820191906000526020600020905b8154815290600101906020018083116124c157829003601f168201915b5050509183525050600282810180546040805160206001841615610100026000190190931694909404601f810183900483028501830190915280845293810193908301828280156125705780601f1061254557610100808354040283529160200191612570565b820191906000526020600020905b81548152906001019060200180831161255357829003601f168201915b505050918352505060038281015460208084019190915260048401546040808501919091526005850154606085015260068501546080850152600785015460a085015260089094015460ff90811660c09094019390935263ffffffff8916600090815291905291909120549192501615612631576040805162461bcd60e51b815260206004820152601d60248201527f43616e206f6e6c79206275792063617264732066726f6d2053746f7265000000604482015290519081900360640190fd5b33600090815260236020908152604080832063ffffffff8816845290915290205460ff16156126915760405162461bcd60e51b8152600401808060200182810382526024815260200180614b216024913960400191505060405180910390fd5b63ffffffff8416600090815260096020908152604080832054600590925290912054600190910161ffff90911610156126fb5760405162461bcd60e51b815260040180806020018281038252602a815260200180614b9b602a913960400191505060405180910390fd5b806060015134101561273e5760405162461bcd60e51b815260040180806020018281038252602b8152602001806148e7602b913960400191505060405180910390fd5b600a54604080516370a0823160e01b815233600482015290516000926001600160a01b0316916370a08231916024808301926020929190829003018186803b15801561278957600080fd5b505afa15801561279d573d6000803e3d6000fd5b505050506040513d60208110156127b357600080fd5b505160e08301519091508110156127fb5760405162461bcd60e51b8152600401808060200182810382526039815260200180614bc56039913960400191505060405180910390fd5b33600081815260236020908152604080832063ffffffff8a1684528252808320805460ff19166001179055600790915290206004015461283b9190612a9a565b63ffffffff851660009081526007602052604090206004015461285d90612b0b565b63ffffffff85166000908152600760205260409020600401546128839086903390612bb8565b50600195945050505050565b6025602052600090815260409020546001600160a01b031681565b60006128c366071afd498d00008363ffffffff6132ed16565b3410156128cf57600080fd5b336000908152602760205260409020546128ef908363ffffffff61312a16565b3360008181526027602052604090209190915561291c9061291760788563ffffffff6132ed16565b612a9a565b61293561293060788463ffffffff6132ed16565b612b0b565b506001919050565b61148d3382613346565b6001600160a01b03918216600090815260106020908152604080832093909416825291909152205460ff1690565b61297d611dc7565b6129bc576040805162461bcd60e51b81526020600482018190526024820152600080516020614a3a833981519152604482015290519081900360640190fd5b61148d816135b3565b60245481565b6001600160a01b0381166000908152602660205260408120546129f357506001194201610f24565b506001600160a01b038116600090815260266020526040902054610f24565b66071afd498d0000341015612a2657600080fd5b33600090815260276020526040902054612a4790600163ffffffff61312a16565b33600081815260276020526040902091909155612a65906078612a9a565b612a6f6078612b0b565b61148d600061162c565b6000908152600d60205260409020546001600160a01b0316151590565b3390565b600a54604080516360fa676760e01b81526001600160a01b03858116600483015260248201859052915191909216916360fa676791604480830192600092919082900301818387803b158015612aef57600080fd5b505af1158015612b03573d6000803e3d6000fd5b505050505050565b336000908152602560205260409020546001600160a01b03161561148d576014810480612b36575060015b33600090815260256020526040902054612b59906001600160a01b031682612a9a565b336000818152602560209081526040918290205482516001600160a01b0391909116815290810192909252818101839052517e3da85d6058444eca57e3b88be14c734f4f239affe28b7629966e318de2a90e9181900360600190a15050565b63ffffffff80841660008181526007602052604081205490921614612bdc57600080fd5b63ffffffff808516600090815260096020526040902054612c009160019061312a16565b63ffffffff8516600090815260096020526040902055612c1e61473b565b506040805160608101825263ffffffff8681168083526000908152600960209081528482205490840190815293830181815260068054600181018255925283517ff652222313e28459528d920b65115c16c04f3efc82aaedc97be59f3f377c0d3f60038402908101805463ffffffff1916929095169190911790935593517ff652222313e28459528d920b65115c16c04f3efc82aaedc97be59f3f377c0d4083015592517ff652222313e28459528d920b65115c16c04f3efc82aaedc97be59f3f377c0d419091015590612cf28582613653565b60018054604080516020600284861615610100026000190190941693909304601f8101849004840282018401909252818152612d8993859391929091830182828015612d7f5780601f10612d5457610100808354040283529160200191612d7f565b820191906000526020600020905b815481529060010190602001808311612d6257829003601f168201915b50505050506136a2565b63ffffffff861660009081526004602052604090205460ff16601c8160078110612daf57fe5b0154600101601c8260ff1660078110612dc457fe5b015563ffffffff8716600081815260096020908152604080832054600483529281902054815193845260ff16918301919091528181018890525184916001600160a01b038a16917fa175b558bfdf1ae124f50d3f430abaaab74e5549ded822767a55f3c6d906c6b19181900360600190a45095945050505050565b6000612e4a82612a79565b612e855760405162461bcd60e51b815260040180806020018281038252602c815260200180614936602c913960400191505060405180910390fd5b6000612e9083611703565b9050806001600160a01b0316846001600160a01b03161480612ecb5750836001600160a01b0316612ec084610fc0565b6001600160a01b0316145b80612edb5750612edb8185612947565b949350505050565b6113bb8383836136d3565b6000612f3083836040518060400160405280601e81526020017f536166654d6174683a207375627472616374696f6e206f766572666c6f7700008152506136f2565b9392505050565b60006605dc0000000bb8821115612f4d57600080fd5b600a54604080516370a0823160e01b815233600482015290516000926001600160a01b0316916370a08231916024808301926020929190829003018186803b158015612f9857600080fd5b505afa158015612fac573d6000803e3d6000fd5b505050506040513d6020811015612fc257600080fd5b5051905082811015612fd357600080fd5b821561304557600a5460408051631752e21560e11b81523360048201526024810186905290516001600160a01b0390921691632ea5c42a9160448082019260009290919082900301818387803b15801561302c57600080fd5b505af1158015613040573d6000803e3d6000fd5b505050505b6000613052612710613789565b905061305c614762565b613065856137e1565b905060025b60078160ff1610156130a757818160ff166007811061308557fe5b602002015161ffff16831161309f579350610f2492505050565b60010161306a565b50600695945050505050565b60ff81166000908152602860205260408120546130cf90613789565b60ff8316600090815260286020526040812080549293509091839081106130f257fe5b90600052602060002090600891828204019190066004029054906101000a900463ffffffff16905061136881336064612bb8565b5490565b600082820183811015612f30576040805162461bcd60e51b815260206004820152601b60248201527f536166654d6174683a206164646974696f6e206f766572666c6f770000000000604482015290519081900360640190fd5b6001600160a01b0316600090815260116020526040902090565b6131a9848484612ee3565b6131b584848484613894565b6113685760405162461bcd60e51b815260040180806020018281038252603281526020018061488f6032913960400191505060405180910390fd5b60608161321557506040805180820190915260018152600360fc1b6020820152610f24565b8160005b811561322d57600101600a82049150613219565b6060816040519080825280601f01601f19166020018201604052801561325a576020820181803883390190505b50905060001982015b85156132a857600a860660300160f81b8282806001900393508151811061328657fe5b60200101906001600160f81b031916908160001a905350600a86049550613263565b50949350505050565b6060612f308383604051806020016040528060008152506040518060200160405280600081525060405180602001604052806000815250613acf565b6000826132fc57506000611408565b8282028284828161330957fe5b0414612f305760405162461bcd60e51b81526004018080602001828103825260218152602001806149ed6021913960400191505060405180910390fd5b6133508282613ce3565b6000818152601b6020526040902054600260001961010060018416150201909116041561338e576000818152601b6020526040812061338e91614780565b6000818152601a60205260408120546019549091906133b490600163ffffffff612eee16565b90506000601982815481106133c557fe5b9060005260206000200154905080601984815481106133e057fe5b90600052602060002001819055506000601983815481106133fd57fe5b600091825260209091200155601980549061341c9060001983016147c4565b506000848152601a6020526040808220829055828252812084905560068054600192601c926004928990811061344e57fe5b6000918252602080832060039092029091015463ffffffff16835282019290925260400190205460ff166007811061348257fe5b015403601c600460006006888154811061349857fe5b6000918252602080832060039092029091015463ffffffff16835282019290925260400190205460ff16600781106134cc57fe5b0181905550600060076000600687815481106134e457fe5b6000918252602080832060039092029091015463ffffffff168352820192909252604001902060060154905061351a3382612a9a565b6006858154811061352757fe5b600091825260208220600390910201805463ffffffff191681556001810182905560020155600680548690811061355a57fe5b60009182526020918290206003909102015460408051848152905163ffffffff90921692889233927f5aa0c75e571d3ecae876f03a84d247806f1af6caf4f377701179de62b7095f1492908290030190a4505050505050565b6001600160a01b0381166135f85760405162461bcd60e51b81526004018080602001828103825260268152602001806148c16026913960400191505060405180910390fd5b600080546040516001600160a01b03808516939216917f8be0079c531659141344cd1fd0a4f28419497f9722a3daafe3b4186f6b6457e091a3600080546001600160a01b0319166001600160a01b0392909216919091179055565b61365d8282613d13565b601980546000838152601a60205260408120829055600182018355919091527f944998273e477b495144fb8794c914197f3ccb46be2900f4698fd0ef743c9695015550565b6136ab82612a79565b6136b457600080fd5b6000828152601b6020908152604090912082516113bb928401906147e8565b6136de838383613d30565b6136e88382613e74565b6113bb8282613f69565b600081848411156137815760405162461bcd60e51b81526004018080602001828103825283818151815260200191508051906020019080838360005b8381101561374657818101518382015260200161372e565b50505050905090810190601f1680156137735780820380516001836020036101000a031916815260200191505b509250505060405180910390fd5b505050900390565b600b5460408051426020808301919091523360601b82840152605480830194909452825180830390940184526074909101909152815191012060009081908390816137d057fe5b600b80546001019055069392505050565b6137e9614762565b8161382f57506040805160e081018252600080825260208201819052918101919091526001606082015260326080820152610a8c60a082015261271060c0820152610f24565b60008060008061383e86613fa7565b935093509350935061384e614762565b506040805160e0810182526000808252602082018190529181019190915261ffff9182166060820152918116608083015291821660a0820152911660c082015292915050565b60006138a8846001600160a01b0316614113565b6138b457506001612edb565b600060606001600160a01b038616630a85bd0160e11b6138d2612a96565b89888860405160240180856001600160a01b03166001600160a01b03168152602001846001600160a01b03166001600160a01b0316815260200183815260200180602001828103825283818151815260200191508051906020019080838360005b8381101561394b578181015183820152602001613933565b50505050905090810190601f1680156139785780820380516001836020036101000a031916815260200191505b5060408051601f198184030181529181526020820180516001600160e01b03166001600160e01b0319909a16999099178952518151919890975087965094509250829150849050835b602083106139e05780518252601f1990920191602091820191016139c1565b6001836020036101000a0380198251168184511680821785525050505050509050019150506000604051808303816000865af19150503d8060008114613a42576040519150601f19603f3d011682016040523d82523d6000602084013e613a47565b606091505b509150915081613a9857805115613a615780518082602001fd5b60405162461bcd60e51b815260040180806020018281038252603281526020018061488f6032913960400191505060405180910390fd5b6000818060200190516020811015613aaf57600080fd5b50516001600160e01b031916630a85bd0160e11b149350612edb92505050565b6060808690506060869050606086905060608690506060869050606081518351855187518951010101016040519080825280601f01601f191660200182016040528015613b23576020820181803883390190505b509050806000805b8851811015613b7c57888181518110613b4057fe5b602001015160f81c60f81b838380600101945081518110613b5d57fe5b60200101906001600160f81b031916908160001a905350600101613b2b565b5060005b8751811015613bd157878181518110613b9557fe5b602001015160f81c60f81b838380600101945081518110613bb257fe5b60200101906001600160f81b031916908160001a905350600101613b80565b5060005b8651811015613c2657868181518110613bea57fe5b602001015160f81c60f81b838380600101945081518110613c0757fe5b60200101906001600160f81b031916908160001a905350600101613bd5565b5060005b8551811015613c7b57858181518110613c3f57fe5b602001015160f81c60f81b838380600101945081518110613c5c57fe5b60200101906001600160f81b031916908160001a905350600101613c2a565b5060005b8451811015613cd057848181518110613c9457fe5b602001015160f81c60f81b838380600101945081518110613cb157fe5b60200101906001600160f81b031916908160001a905350600101613c7f565b50909d9c50505050505050505050505050565b613ced828261414c565b613cf78282613e74565b600081815260126020526040812055613d0f81614223565b5050565b613d1d82826142bf565b613d278282613f69565b613d0f816143f0565b826001600160a01b0316613d4382611703565b6001600160a01b031614613d885760405162461bcd60e51b8152600401808060200182810382526029815260200180614a5a6029913960400191505060405180910390fd5b6001600160a01b038216613dcd5760405162461bcd60e51b81526004018080602001828103825260248152602001806149126024913960400191505060405180910390fd5b613dd681614434565b6001600160a01b0383166000908152600f60205260409020613df79061446f565b6001600160a01b0382166000908152600f60205260409020613e1890614486565b6000818152600d602052604080822080546001600160a01b0319166001600160a01b0386811691821790925591518493918716917fddf252ad1be2c89b69c2b068fc378daa952ba7f163c4a11628f55a4df523b3ef91a4505050565b6001600160a01b038216600090815260116020526040812054613e9e90600163ffffffff612eee16565b600083815260126020526040902054909150808214613f39576001600160a01b0384166000908152601160205260408120805484908110613edb57fe5b906000526020600020015490508060116000876001600160a01b03166001600160a01b031681526020019081526020016000208381548110613f1957fe5b600091825260208083209091019290925591825260129052604090208190555b6001600160a01b0384166000908152601160205260409020805490613f629060001983016147c4565b5050505050565b6001600160a01b0390911660009081526011602081815260408084208054868652601284529185208290559282526001810183559183529091200155565b600080600080613fb5614856565b5060408051608081018252600181526002602082015260039181019190915260046060820152613fe3614856565b5060408051608081018252600181526002602082015260069181019190915260186060820152614011614856565b614019614856565b60005b600481101561408c5783816004811061403157fe5b602002015160ff166140428b61448f565b86836004811061404e57fe5b602002015160ff1661405f8d61448f565b0a8161406757fe5b048161406f57fe5b0460640283826004811061407f57fe5b602002015260010161401c565b50606082015160408301516020840151845101010160005b60048110156140ed57818482600481106140ba57fe5b602002015161271002816140ca57fe5b048382600481106140d757fe5b61ffff90921660209290920201526001016140a4565b5050805160208201516040830151606090930151919b909a509198509650945050505050565b6000813f7fc5d2460186f7233c927e7db2dcc703c0e500b653ca82273b7bfad8045d85a470818114801590612edb575050151592915050565b816001600160a01b031661415f82611703565b6001600160a01b0316146141a45760405162461bcd60e51b8152600401808060200182810382526025815260200180614b766025913960400191505060405180910390fd5b6141ad81614434565b6001600160a01b0382166000908152600f602052604090206141ce9061446f565b6000818152600d602052604080822080546001600160a01b0319169055518291906001600160a01b038516907fddf252ad1be2c89b69c2b068fc378daa952ba7f163c4a11628f55a4df523b3ef908390a45050565b60135460009061423a90600163ffffffff612eee16565b6000838152601460205260408120546013805493945090928490811061425c57fe5b90600052602060002001549050806013838154811061427757fe5b600091825260208083209091019290925582815260149091526040902082905560138054906142aa9060001983016147c4565b50505060009182525060146020526040812055565b6001600160a01b03821661431a576040805162461bcd60e51b815260206004820181905260248201527f4552433732313a206d696e7420746f20746865207a65726f2061646472657373604482015290519081900360640190fd5b61432381612a79565b15614375576040805162461bcd60e51b815260206004820152601c60248201527f4552433732313a20746f6b656e20616c7265616479206d696e74656400000000604482015290519081900360640190fd5b6000818152600d6020908152604080832080546001600160a01b0319166001600160a01b0387169081179091558352600f90915290206143b490614486565b60405181906001600160a01b038416906000907fddf252ad1be2c89b69c2b068fc378daa952ba7f163c4a11628f55a4df523b3ef908290a45050565b601380546000838152601460205260408120829055600182018355919091527f66de8ffda797e3de9c05e8fc57b3bf0ec28a930d40b0d285d93c06501cf6a0900155565b6000818152600e60205260409020546001600160a01b03161561148d576000908152600e6020526040902080546001600160a01b0319169055565b805461448290600163ffffffff612eee16565b9055565b80546001019055565b6000806144a0620445c084046144ab565b600490049392505050565b604080517ff8f9cbfae6cc78fbefe7cdc3a1793dfcf4f0e8bbd8cec470b6a28a7a5a3e1efd81527ff5ecf1b3e9debc68e1d9cfabc5997135bfb7a7a3938b7b606b5b4b3f2f1f0ffe60208201527ff6e4ed9ff2d6b458eadcdf97bd91692de2d4da8fd2d0ac50c6ae9a8272523616818301527fc8c0b887b0a8a4489c948c7f847c6125746c645c544c444038302820181008ff60608201527ff7cae577eec2a03cf3bad76fb589591debb2dd67e0aa9834bea6925f6a4a2e0e60808201527fe39ed557db96902cd38ed14fad815115c786af479b7e8324736353433727170760a08201527fc976c13bb96e881cb166a933a55e490d9d56952b8d4e801485467d236242260660c08201527f753a6d1b65325d0c552a4d1345224105391a310b29122104190a11030902010060e0820152610100808201909252600160f81b6001600160801b68010000000000000000600160201b620100006010600460026000198c019081041790810417908104178881041790810417908104179081041790810417017e818283848586878898a8b8c8d8e8f929395969799a9b9d9e9faaeb6bedeeff0281900460ff039091015104600160ff1b909211020190565b828054600181600116156101000203166002900490600052602060002090601f016020900481019282601f106146a95782800160ff198235161785556146d6565b828001600101855582156146d6579182015b828111156146d65782358255916020019190600101906146bb565b506146e2929150614874565b5090565b604051806101200160405280600063ffffffff16815260200160608152602001606081526020016000815260200160008152602001600081526020016000815260200160008152602001600060ff1681525090565b6040518060600160405280600063ffffffff16815260200160008152602001600081525090565b6040518060e001604052806007906020820280388339509192915050565b50805460018160011615610100020316600290046000825580601f106147a6575061148d565b601f01602090049060005260206000209081019061148d9190614874565b8154818355818111156113bb576000838152602090206113bb918101908301614874565b828054600181600116156101000203166002900490600052602060002090601f016020900481019282601f1061482957805160ff19168380011785556146d6565b828001600101855582156146d6579182015b828111156146d657825182559160200191906001019061483b565b60405180608001604052806004906020820280388339509192915050565b610fbd91905b808211156146e2576000815560010161487a56fe4552433732313a207472616e7366657220746f206e6f6e20455243373231526563656976657220696d706c656d656e7465724f776e61626c653a206e6577206f776e657220697320746865207a65726f20616464726573734e6f7420656e6f7567682045746865722073656e7420746f207075726368617365207468697320636172644552433732313a207472616e7366657220746f20746865207a65726f20616464726573734552433732313a206f70657261746f7220717565727920666f72206e6f6e6578697374656e7420746f6b656e4552433732313a20617070726f76652063616c6c6572206973206e6f74206f776e6572206e6f7220617070726f76656420666f7220616c6c4552433732313a2062616c616e636520717565727920666f7220746865207a65726f20616464726573734552433732313a206f776e657220717565727920666f72206e6f6e6578697374656e7420746f6b656e536166654d6174683a206d756c7469706c69636174696f6e206f766572666c6f774552433732313a20617070726f76656420717565727920666f72206e6f6e6578697374656e7420746f6b656e4f776e61626c653a2063616c6c6572206973206e6f7420746865206f776e65724552433732313a207472616e73666572206f6620746f6b656e2074686174206973206e6f74206f776e43616e277420636c61696d206265666f72652074696d6520746f20636c61696d206e65787420626f6e757343616e6e6f7420627579206361726473207468617420617265206e6f7420646566696e656452656163686564206d61782e206e756d626572206f6620426f6f737465722063726564697420726577617264734552433732313a20617070726f76616c20746f2063757272656e74206f776e65724f6e6c79203120436172642054797065207075726368617365207065722077616c6c65744552433732313a207472616e736665722063616c6c6572206973206e6f74206f776e6572206e6f7220617070726f7665644552433732313a206275726e206f6620746f6b656e2074686174206973206e6f74206f776e4d6178696d756d2065646974696f6e207265616368656420666f7220746869732043617264205479706557616c6c657420646f6573206e6f74206861766520656e6f75676820637a787020746f20756e6c6f636b207468697320436172642054797065a265627a7a72305820eff59dc3417e879aaf14d4d7cdf80501b2ac633a30a2375843d58fd14e3ca32f64736f6c63430005090032",
  "source": "pragma solidity ^0.5.0;\n\n/******************************************\n\nOur Matra our Motto for coding The Cryptoz Universe.buy\n\n      Fail EARLY and Fail LOUD !!!!!!!\n\n1.    First - Check all pre-conditions\n2.    Then  - make changes to contract state\n3.    Final - interact with other contracts\n\nPull funds over pushing them\nPlatform limits like max of 1023 loop interations.\n\nall Events start with Log\n\n******************************************/\n\nimport \"./CryptozCard.sol\";\n\ncontract Cryptoz is CryptozCard {\n\n//Constants\n    uint constant public weiCostOfCard = 2000000000000000; //booster in wei = 0.002 ETH\n    uint constant public czxpGainedBoosterPurchase = 120;\n    uint constant public maxCardTypes = 5000; //allowed types in the Universe\n    uint constant public maxBoostersReward = 50000; // Promotional boosters for airdrop rewards\n\n//Event Logs\n    event LogCardTypeLoaded(uint32 indexed cardTypeId, string cardName);\n    event LogCardPurchased(uint32 indexed cardTypeId, uint editionNumber, address indexed buyer);\n    event LogPackOpened(address indexed buyer, uint packsOpened);\n    event LogSponsorLinked(address sponsor, address affiliate);\n    event LogSponsorReward(address sponsor, address affiliate, uint CzxpReward);\n    event LogDailyReward(address player, uint newBonusBalance);\n    event LogRewardBoosters(address winner, uint boostersAwarded);\n\n//storage\n\n    //Track the total amount of Booster rewards\n    uint public totalBoostersRewarded = 0;\n    \n    //Tracking affiliate sponsors\n    mapping(address => address) public sponsors; // 1 sponsor can have many affiliates, but only 1 sponsor, returns sponsor\n    \n    //Track the timestamps for users to get their daily pull\n    mapping(address => uint) private timeToCardsPull; //address to timestamp\n    \n    //Tracking booster pack count ownership. These are NOT tokens, Play can mint a random card\n    mapping (address => uint256) public boosterPacksOwned;\n    \n    //where we hold inventory of the  booster packs\n    mapping(uint8 => uint32[]) private allBoosterCardIds; // [rarityId][cardId]\n    \n    //check if cardType exists\n    modifier isValidCard(uint32 _cardTypeId) {\n//TIGHTEN   //Make sure cardType exists and we dont have bad data coming in\n        require(allCardTypes[_cardTypeId].cardTypeId == _cardTypeId);\n        require(storeBoosterBonus[_cardTypeId] < 1); //you cant get cards marked for booster pack or bonus\n        _;\n    }\n    \n    function() external {\n        revert();\n    }\n\n    //Set our cxzp contract in the constructor\n    function initialize(address payable _czxpContractAddress) onlyOwner public {\n        CzxpContractAddress_ = _czxpContractAddress;\n    }\n\n    function loadNewCardType(\n            uint8 _cardTypeId,\n            string calldata _name,\n            string calldata _set,\n            uint8 _assetType,\n            uint8 _notStoreOrBonus,\n            uint8 _rarity,\n            uint16 _totalAvailable,\n            uint256 _weiCost,\n            uint256 _buyCzxp\n        ) external onlyOwner returns(bool){\n            \n        //what requires should we add ?\n        \n        //a max. of 5000 types in the universe ever\n        require(cardTypesIds.length <= maxCardTypes);\n        \n        //not allowed to update existing cardTypeIds\n        require(allCardTypes[_cardTypeId].cardTypeId == 0);\n        \n        allCardTypes[_cardTypeId].cardTypeId    = _cardTypeId;\n        allCardTypes[_cardTypeId].name          = _name;\n        allCardTypes[_cardTypeId].set           = _set;\n        cardAssetType[_cardTypeId]              = _assetType;\n        storeBoosterBonus[_cardTypeId]          = _notStoreOrBonus;\n        rarity[_cardTypeId]                     = _rarity;\n        totalAvailable[_cardTypeId]             = _totalAvailable;\n        allCardTypes[_cardTypeId].weiCost       = _weiCost;\n        allCardTypes[_cardTypeId].buyCzxp       = _buyCzxp;\n    \n        //If she be booster worthy\n        if(_notStoreOrBonus == 1){ // 0=store,1=booster,2=bonus\n            allBoosterCardIds[_rarity].push(_cardTypeId);\n        }\n        \n        //Track the cardTypeIds count\n        cardTypesIds.push(_cardTypeId);\n        return true;\n    }\n\n    function addTocardType(\n                        uint32  _cardTypeId,\n                        uint256 _transferCzxp,\n                        uint256 _sacrificeCzxp,\n                        uint256 _unlockCzxp,\n                        uint8 _cardLevel\n                      ) external onlyOwner returns(bool){\n                          \n        //not allowed to update existing cardTypeIds\n//TODO check for NULL in case we push 0 for a property\n        require(allCardTypes[_cardTypeId].transferCzxp == 0);\n        require(allCardTypes[_cardTypeId].sacrificeCzxp == 0);\n        require(allCardTypes[_cardTypeId].unlockCzxp == 0);\n        require(allCardTypes[_cardTypeId].cardLevel == 0);\n                          \n        require(allCardTypes[_cardTypeId].cardTypeId == _cardTypeId);\n        \n        \n        allCardTypes[_cardTypeId].transferCzxp  = _transferCzxp;\n        allCardTypes[_cardTypeId].sacrificeCzxp = _sacrificeCzxp;\n        allCardTypes[_cardTypeId].unlockCzxp    = _unlockCzxp;\n        allCardTypes[_cardTypeId].cardLevel     = _cardLevel;\n        \n        //initialize editionNumber\n        cardTypeToEdition[_cardTypeId] = 0;\n        \n        //Card type is defined, now emit a Log of it\n        emit LogCardTypeLoaded(_cardTypeId,allCardTypes[_cardTypeId].name);\n        return true;\n    }\n    \n    \n/**\n    /**\n     *  Public interface to purchase a card, probablly the most insecure entry point !\n     */\n    function buyCard(uint32 _cardTypeId) external payable isValidCard(_cardTypeId) returns(bool) {\n        \n        // dont even bother if no ETH sent\n        require(msg.value > 0, \"Pay up!\");\n        \n        //check for valid cardType\n        require(allCardTypes[_cardTypeId].cardTypeId == _cardTypeId, \"Cannot buy cards that are not defined\");\n        \n        cardType memory _tempCard = allCardTypes[_cardTypeId];\n        \n        //check if store only\n        require(storeBoosterBonus[_cardTypeId] == 0, \"Can only buy cards from Store\");\n        \n        //CHECKS-EFFECT, Can't buy cards you own\n        require(cardTypesOwned[msg.sender][_cardTypeId] == false, \"Only 1 Card Type purchase per wallet\");\n         \n        //Check if this card amount we sell is more than edition+1 for this card type\n        require((totalAvailable[_cardTypeId] >= cardTypeToEdition[_cardTypeId] + 1 ), \"Maximum edition reached for this Card Type\");\n        \n        //check if they have paid enough for it\n        require(msg.value >= _tempCard.weiCost, \"Not enough Ether sent to purchase this card\");\n        \n        //check if we have enough czxp to unlock this card\n        uint czxp = CzxpToken(CzxpContractAddress_).balanceOf(msg.sender);\n        require(czxp >= _tempCard.unlockCzxp, \"Wallet does not have enough czxp to unlock this Card Type\");\n        \n    //Clear ? to buy the card\n    \n        //stop re-entrancy. Track the type of card puchased for this owner, so they cant buy again\n        cardTypesOwned[msg.sender][_cardTypeId] = true;\n        \n        //Let the universe award our friend\n        super.awardCzxp(msg.sender, allCardTypes[_cardTypeId].buyCzxp);\n        \n        //and award their sponsor\n        rewardAffiliate(allCardTypes[_cardTypeId].buyCzxp);\n    \n        //Mint the real token and pass czxp gained for logging\n        super._createCard(_cardTypeId, msg.sender,allCardTypes[_cardTypeId].buyCzxp);\n        \n        \n        return true;\n    }\n    \n    //every 8 hours, the address can get 2 free booster cards\n    function getBonusBoosters() external {\n        //this only runs if time to get new cards\n        require(now > getTimeToDailyBonus(msg.sender), \"Can't claim before time to claim next bonus\");\n        \n        //Stop re-entrancy, update the lastpull value\n        timeToCardsPull[msg.sender] = now + 8 hours;\n        \n        // add the boosters and emit event\n        boosterPacksOwned[msg.sender] = boosterPacksOwned[msg.sender].add(2);\n        emit LogDailyReward(msg.sender, boosterPacksOwned[msg.sender]);\n    }\n    \n    /**\n     *  Public interface to get card at no cost\n     */\n    function getFreeCard(uint32 _cardTypeId) external isValidCard(_cardTypeId) {\n        //check if store only\n        require(storeBoosterBonus[_cardTypeId] == 0);\n        \n        // ensure there is enough of a supply left\n        require(totalAvailable[_cardTypeId] > (cardTypeToEdition[_cardTypeId]+1));\n        \n        //Can't get cards From shop that you own\n        require(cardTypesOwned[msg.sender][_cardTypeId] == false);\n        \n        //check if we have enough czxp to unlock this card\n        uint czxp = CzxpToken(CzxpContractAddress_).balanceOf(msg.sender);\n        require(czxp >= allCardTypes[_cardTypeId].unlockCzxp);\n        \n        //Only cards that are Free\n        require(allCardTypes[_cardTypeId].weiCost == 0);\n\n//ALL CLEAR ???????? claim a new card\n    \n        //Stop re-entrancy, Track the type of card puchased for this owner, so they cant buy again\n        cardTypesOwned[msg.sender][_cardTypeId] = true;\n        \n        //Let the universe award our friend\n        super.awardCzxp(msg.sender, allCardTypes[_cardTypeId].buyCzxp);\n        \n        //reward the sponsor\n        rewardAffiliate(allCardTypes[_cardTypeId].buyCzxp);\n        \n        //now mint the card\n        super._createCard(_cardTypeId, msg.sender, allCardTypes[_cardTypeId].buyCzxp);\n    \n    }\n    \n    /**\n     *  Any user can sacrifice any card they own. Please don't burn down the universe :'(\n     */\n     function sacrifice(uint256 _tokenId) external {\n         //Call our internal burn function does all our owner checks\n         _burn(msg.sender, _tokenId);\n     }\n    \n//Booster Pack functions\n\n    /**\n     *  Public interface to award booster credits from Airdrops - restricted to Owner\n    */\n    function awardBoosterCredits(address _winner, uint _amount) external onlyOwner returns(bool) {\n        \n        //Check max. for Universe\n        require((totalBoostersRewarded + _amount) <= maxBoostersReward, \"Reached max. number of Booster credit rewards\");\n        \n        //All good\n        //stop re-entrance, increase universe total\n        totalBoostersRewarded.add(_amount);\n        \n        //All good increase the number owned for this winner\n        boosterPacksOwned[_winner] = boosterPacksOwned[_winner].add(_amount);\n        \n        //Log the event\n        emit LogRewardBoosters(_winner, _amount);\n\n        return true;\n    }\n\n \n    /**\n     *  Public interface to buy booster card(s)\n    */\n    function buyBoosterCard(uint _amount) payable external returns(bool) {\n        \n        // is there enough wei sent 1 pack = 0.002 ETH ?\n        require(msg.value >= weiCostOfCard.mul(_amount));\n        \n        //All good increase the number owned\n        boosterPacksOwned[msg.sender] = boosterPacksOwned[msg.sender].add(_amount);\n\n        //Award czxp for booster\n        super.awardCzxp(msg.sender, uint(czxpGainedBoosterPurchase.mul(_amount)));\n        \n        rewardAffiliate(uint(czxpGainedBoosterPurchase.mul(_amount)));\n\n        return true;\n    }\n    \n    /**\n     *  Public interface to buy booster pack(s) and open them - NO burn option\n     */\n    function buyBoosterCardAndOpen() payable external {\n        // is there enough wei sent 1 pack = 0.005 ETH ?\n        require(msg.value >= weiCostOfCard);\n        \n        //All good increase the number owned\n        boosterPacksOwned[msg.sender] = boosterPacksOwned[msg.sender].add(1);\n\n        //Award czxp per pack\n        super.awardCzxp(msg.sender, czxpGainedBoosterPurchase);\n        \n        rewardAffiliate(czxpGainedBoosterPurchase);\n        \n        //Now open the pack\n        openBoosterCard(0);\n    }\n    \n    /**\n     *  Public interface to open already purchased booster pack(s) - User can wager an amount\n     */\n    function openBoosterCard(uint czxpWager) public returns(bool) {\n        //Ensure user owns unopened packs\n        require(boosterPacksOwned[msg.sender] > 0);\n        \n        //czxpWager check czxpWager\n        require(czxpWager >= 0);\n        \n        //STOP re-entrancy , decrement number of packs\n        boosterPacksOwned[msg.sender] = boosterPacksOwned[msg.sender].sub(1);\n        \n        //Pull the card\n        uint8 rarity = getRarity(czxpWager);\n        pullCard(rarity);\n        \n        //Send a log event\n        emit LogPackOpened(msg.sender, rarity);\n        return true;\n    }\n   \n    /**\n     * Public interface to allow a player to forever link their 1 sponsor\n     */\n    function linkMySponsor(address mySponsor) external {\n        //check that mySponsor arg is not 0x0\n        require(mySponsor != address(0));\n        \n        //ensure the sponsor isn't Linked\n        require(sponsors[msg.sender] == address(0));\n        \n        //Check they are not linking to themselves\n        require(msg.sender != mySponsor);\n        \n        //All clear?  stop re-entrancy, set the association\n        sponsors[msg.sender] = mySponsor;\n        \n        //Mint the Platinum Sponsor Card\n        pullCard(2);\n    }\n\n//Private\n\n    /**\n     * We always pay our affiliates 20% of the czxp\n     */\n     function rewardAffiliate(uint totalCZXP) private  {\n         //first check if the caller has a sponsor\n         if(sponsors[msg.sender] != address(0)){\n             uint reward = totalCZXP / 20;\n             if(reward == 0){\n                 reward = 1;\n             }\n             super.awardCzxp(sponsors[msg.sender], reward);\n             emit LogSponsorReward(sponsors[msg.sender], msg.sender, reward);\n         }\n     }\n\n    /**\n     *\n     */\n     function pullCard(uint8 rarity) private {\n         \n         //Get a random number for the card to pull\n         uint rand = selectRandom(allBoosterCardIds[rarity].length);\n         \n         //hit up the cardTypes\n         uint32 pulledId = allBoosterCardIds[rarity][rand];\n         \n        //Give the player this cardType\n        super._createCard(pulledId, msg.sender, 100);\n     }\n    \n    /**\n     *  Private function to diceroll the rarity pull Only from booster packs\n     */\n    function getRarity(uint czxpWager) private returns(uint8){\n        \n        //Check if below upper limit\n        require(czxpWager <= 1649267441667000);\n        \n        //FIRST ensure, player can back their wager\n        uint _playerCZXPBalance = CzxpToken(CzxpContractAddress_).balanceOf(msg.sender);\n        require(_playerCZXPBalance >= czxpWager);\n        \n        //Check effects - Take their czxp\n        if(czxpWager > 0){\n            CzxpToken(CzxpContractAddress_).burnCzxp(msg.sender, czxpWager);\n        }\n        \n        //ALL CLEAR - grab a random number\n        uint rand = selectRandom(10000);\n\n        //get our probabilty distribution\n        uint16[7] memory probs = burnAndBoost(czxpWager);\n        \n        //Get the rarity for this pull from the probs\n        // 3=epic, 4=rare, 5=uncommon, 6=commmon\n        for(uint8 i=2; i < probs.length; i++){\n            if(rand <= probs[i]){\n                return i;\n            }\n        }\n//REMOVE THIS !!!!\n        return 6;\n    }\n    \n    \n    /**\n     * Private Booster distribution function\n     */\n     function burnAndBoost(uint czxpWager) private returns(uint16[7] memory) {\n        \n        //buyBoosterCardAndOpen will pass a zero, set a default\n        if(czxpWager == 0){\n            return [0,0,0,1,50,2700,10000];\n        }\n         \n        (uint16 c, uint16 u, uint16 r, uint16 e) = super.getProbs(czxpWager);\n        \n        //default distribution is 1,50,2700,10000\n         uint16[7] memory probs = [0,0,0,e,r,u,c];\n         \n        return probs;\n     }\n     \n     /**\n      * Return the timestamp of the next daily bonus for a player\n      */\n      function getTimeToDailyBonus(address _player) public view returns(uint timeStamp){\n          \n          //check if address exists\n          if(timeToCardsPull[_player] == 0){\n              return now - 2 seconds;\n          }else{\n              return timeToCardsPull[_player];\n          }\n      }\n\n\n//Thanks! for supporting the Cryptoz universe <3 <3 <3\n    /**\n    * Withdraw balance to wallet ONLY for the owner to call this\n    */\n   function withdraw() external onlyOwner {\n      msg.sender.transfer(address(this).balance);\n   }\n}",
  "sourcePath": "/home/ryanpricelondon/cryptoz.cards/contracts/Cryptoz.sol",
  "compiler": {
    "name": "solc",
    "version": "0.5.9+commit.e560f70d.Emscripten.clang"
  },
  "schemaVersion": "3.3.4",
  "updatedAt": "2021-03-17T15:39:43.211Z",
  "devdoc": {
    "methods": {
      "approve(address,uint256)": {
        "details": "Approves another address to transfer the given token ID The zero address indicates there is no approved address. There can only be one approved address per token at a given time. Can only be called by the token owner or an approved operator.",
        "params": {
          "to": "address to be approved for the given token ID",
          "tokenId": "uint256 ID of the token to be approved"
        }
      },
      "balanceOf(address)": {
        "details": "Gets the balance of the specified address.",
        "params": {
          "owner": "address to query the balance of"
        },
        "return": "uint256 representing the amount owned by the passed address"
      },
      "getApproved(uint256)": {
        "details": "Gets the approved address for a token ID, or zero if no address set Reverts if the token ID does not exist.",
        "params": {
          "tokenId": "uint256 ID of the token to query the approval of"
        },
        "return": "address currently approved for the given token ID"
      },
      "isApprovedForAll(address,address)": {
        "details": "Tells whether an operator is approved by a given owner.",
        "params": {
          "operator": "operator address which you want to query the approval of",
          "owner": "owner address which you want to query the approval of"
        },
        "return": "bool whether the given operator is approved by the given owner"
      },
      "isOwner()": {
        "details": "Returns true if the caller is the current owner."
      },
      "name()": {
        "details": "Gets the token name",
        "return": "string representing the token name"
      },
      "owner()": {
        "details": "Returns the address of the current owner."
      },
      "ownerOf(uint256)": {
        "details": "Gets the owner of the specified token ID.",
        "params": {
          "tokenId": "uint256 ID of the token to query the owner of"
        },
        "return": "address currently marked as the owner of the given token ID"
      },
      "renounceOwnership()": {
        "details": "Leaves the contract without owner. It will not be possible to call `onlyOwner` functions anymore. Can only be called by the current owner.     * NOTE: Renouncing ownership will leave the contract without an owner, thereby removing any functionality that is only available to the owner."
      },
      "safeTransferFrom(address,address,uint256)": {
        "details": "Safely transfers the ownership of a given token ID to another address If the target address is a contract, it must implement {IERC721Receiver-onERC721Received}, which is called upon a safe transfer, and return the magic value `bytes4(keccak256(\"onERC721Received(address,address,uint256,bytes)\"))`; otherwise, the transfer is reverted. Requires the msg.sender to be the owner, approved, or operator",
        "params": {
          "from": "current owner of the token",
          "to": "address to receive the ownership of the given token ID",
          "tokenId": "uint256 ID of the token to be transferred"
        }
      },
      "safeTransferFrom(address,address,uint256,bytes)": {
        "details": "Safely transfers the ownership of a given token ID to another address If the target address is a contract, it must implement {IERC721Receiver-onERC721Received}, which is called upon a safe transfer, and return the magic value `bytes4(keccak256(\"onERC721Received(address,address,uint256,bytes)\"))`; otherwise, the transfer is reverted. Requires the _msgSender() to be the owner, approved, or operator",
        "params": {
          "_data": "bytes data to send along with a safe transfer check",
          "from": "current owner of the token",
          "to": "address to receive the ownership of the given token ID",
          "tokenId": "uint256 ID of the token to be transferred"
        }
      },
      "setApprovalForAll(address,bool)": {
        "details": "Sets or unsets the approval of a given operator An operator is allowed to transfer all tokens of the sender on their behalf.",
        "params": {
          "approved": "representing the status of the approval to be set",
          "to": "operator address to set the approval"
        }
      },
      "supportsInterface(bytes4)": {
        "details": "See {IERC165-supportsInterface}.     * Time complexity O(1), guaranteed to always use less than 30 000 gas."
      },
      "symbol()": {
        "details": "Gets the token symbol",
        "return": "string representing the token symbol"
      },
      "tokenByIndex(uint256)": {
        "details": "Gets the token ID at a given index of all the tokens in this contractReverts if the index is greater or equal to the total number of tokens",
        "params": {
          "_index": "uint256 representing the index to be accessed of the tokens list"
        },
        "return": "uint256 token ID at the given index of the tokens list"
      },
      "tokenOfOwnerByIndex(address,uint256)": {
        "details": "Gets the token ID at a given index of the tokens list of the requested owner",
        "params": {
          "_index": "uint256 representing the index to be accessed of the requested tokens list",
          "_owner": "address owning the tokens list to be accessed"
        },
        "return": "uint256 token ID at the given index of the tokens list owned by the requested address"
      },
      "tokenURI(uint256)": {
        "details": "Returns an URI for a given token IDThrows if the token ID does not exist. May return an empty string.",
        "params": {
          "_tokenId": "uint256 ID of the token to query"
        }
      },
      "totalSupply()": {
        "details": "Gets the total amount of tokens stored by the contract",
        "return": "uint256 representing the total amount of tokens"
      },
      "transferOwnership(address)": {
        "details": "Transfers ownership of the contract to a new account (`newOwner`). Can only be called by the current owner."
      }
    }
  },
  "userdoc": {
    "methods": {
      "awardBoosterCredits(address,uint256)": {
        "notice": "Public interface to award booster credits from Airdrops - restricted to Owner"
      },
      "buyBoosterCard(uint256)": {
        "notice": "Public interface to buy booster card(s)"
      },
      "buyBoosterCardAndOpen()": {
        "notice": "Public interface to buy booster pack(s) and open them - NO burn option"
      },
      "buyCard(uint32)": {
        "notice": "/** Public interface to purchase a card, probablly the most insecure entry point !"
      },
      "getFreeCard(uint32)": {
        "notice": "Public interface to get card at no cost"
      },
      "getTimeToDailyBonus(address)": {
        "notice": "Return the timestamp of the next daily bonus for a player"
      },
      "linkMySponsor(address)": {
        "notice": "Public interface to allow a player to forever link their 1 sponsor"
      },
      "openBoosterCard(uint256)": {
        "notice": "Public interface to open already purchased booster pack(s) - User can wager an amount"
      },
      "sacrifice(uint256)": {
        "notice": "Any user can sacrifice any card they own. Please don't burn down the universe :'("
      },
      "transferFrom(address,address,uint256)": {
        "notice": "Public method to allow file transfer, we call our internal function"
      },
      "withdraw()": {
        "notice": "Withdraw balance to wallet ONLY for the owner to call this"
      }
    }
  }
}