{
  "contractName": "CryptozUniverse",
  "abi": [
    {
      "constant": true,
      "inputs": [
        {
          "name": "",
          "type": "uint32"
        }
      ],
      "name": "allCardTypes",
      "outputs": [
        {
          "name": "cardTypeId",
          "type": "uint32"
        },
        {
          "name": "name",
          "type": "string"
        },
        {
          "name": "set",
          "type": "string"
        },
        {
          "name": "weiCost",
          "type": "uint256"
        },
        {
          "name": "buyCzxp",
          "type": "uint256"
        },
        {
          "name": "transferCzxp",
          "type": "uint256"
        },
        {
          "name": "sacrificeCzxp",
          "type": "uint256"
        },
        {
          "name": "unlockCzxp",
          "type": "uint256"
        },
        {
          "name": "cardLevel",
          "type": "uint8"
        }
      ],
      "payable": false,
      "stateMutability": "view",
      "type": "function"
    },
    {
      "constant": false,
      "inputs": [],
      "name": "renounceOwnership",
      "outputs": [],
      "payable": false,
      "stateMutability": "nonpayable",
      "type": "function"
    },
    {
      "constant": true,
      "inputs": [
        {
          "name": "",
          "type": "uint256"
        }
      ],
      "name": "rarity",
      "outputs": [
        {
          "name": "",
          "type": "uint8"
        }
      ],
      "payable": false,
      "stateMutability": "view",
      "type": "function"
    },
    {
      "constant": true,
      "inputs": [],
      "name": "owner",
      "outputs": [
        {
          "name": "",
          "type": "address"
        }
      ],
      "payable": false,
      "stateMutability": "view",
      "type": "function"
    },
    {
      "constant": true,
      "inputs": [
        {
          "name": "",
          "type": "uint256"
        }
      ],
      "name": "cardTypesIds",
      "outputs": [
        {
          "name": "",
          "type": "uint256"
        }
      ],
      "payable": false,
      "stateMutability": "view",
      "type": "function"
    },
    {
      "constant": true,
      "inputs": [
        {
          "name": "",
          "type": "uint256"
        }
      ],
      "name": "cardTypeToEdition",
      "outputs": [
        {
          "name": "",
          "type": "uint256"
        }
      ],
      "payable": false,
      "stateMutability": "view",
      "type": "function"
    },
    {
      "constant": false,
      "inputs": [
        {
          "name": "_newOwner",
          "type": "address"
        }
      ],
      "name": "transferOwnership",
      "outputs": [],
      "payable": false,
      "stateMutability": "nonpayable",
      "type": "function"
    },
    {
      "payable": false,
      "stateMutability": "nonpayable",
      "type": "fallback"
    },
    {
      "anonymous": false,
      "inputs": [
        {
          "indexed": true,
          "name": "beneficiary",
          "type": "address"
        },
        {
          "indexed": false,
          "name": "czxpAmount",
          "type": "uint256"
        }
      ],
      "name": "CZXPGained",
      "type": "event"
    },
    {
      "anonymous": false,
      "inputs": [
        {
          "indexed": true,
          "name": "previousOwner",
          "type": "address"
        }
      ],
      "name": "OwnershipRenounced",
      "type": "event"
    },
    {
      "anonymous": false,
      "inputs": [
        {
          "indexed": true,
          "name": "previousOwner",
          "type": "address"
        },
        {
          "indexed": true,
          "name": "newOwner",
          "type": "address"
        }
      ],
      "name": "OwnershipTransferred",
      "type": "event"
    },
    {
      "constant": true,
      "inputs": [],
      "name": "getTotalTypes",
      "outputs": [
        {
          "name": "",
          "type": "uint256"
        }
      ],
      "payable": false,
      "stateMutability": "view",
      "type": "function"
    },
    {
      "constant": false,
      "inputs": [
        {
          "name": "wager",
          "type": "uint256"
        }
      ],
      "name": "getProbs",
      "outputs": [
        {
          "name": "",
          "type": "uint16"
        },
        {
          "name": "",
          "type": "uint16"
        },
        {
          "name": "",
          "type": "uint16"
        },
        {
          "name": "",
          "type": "uint16"
        }
      ],
      "payable": false,
      "stateMutability": "nonpayable",
      "type": "function"
    },
    {
      "constant": false,
      "inputs": [
        {
          "name": "wager",
          "type": "uint256"
        }
      ],
      "name": "getLambda",
      "outputs": [
        {
          "name": "",
          "type": "uint256"
        }
      ],
      "payable": false,
      "stateMutability": "nonpayable",
      "type": "function"
    },
    {
      "constant": false,
      "inputs": [
        {
          "name": "x",
          "type": "uint256"
        }
      ],
      "name": "log2",
      "outputs": [
        {
          "name": "y",
          "type": "uint256"
        }
      ],
      "payable": false,
      "stateMutability": "nonpayable",
      "type": "function"
    },
    {
      "constant": false,
      "inputs": [],
      "name": "withdraw",
      "outputs": [],
      "payable": false,
      "stateMutability": "nonpayable",
      "type": "function"
    }
  ],
  "bytecode": "0x60806040526040805190810160405280601b81526020017f68747470733a2f2f63727970746f7a2e63617264732f646174612f0000000000815250600190805190602001906200005192919062000122565b50608060405190810160405280600160ff168152602001600260ff168152602001600360ff168152602001600460ff16815250600b90600462000096929190620001a9565b50608060405190810160405280600160ff168152602001600260ff168152602001600660ff168152602001601860ff16815250600f906004620000db929190620001a9565b50336000806101000a81548173ffffffffffffffffffffffffffffffffffffffff021916908373ffffffffffffffffffffffffffffffffffffffff1602179055506200021b565b828054600181600116156101000203166002900490600052602060002090601f016020900481019282601f106200016557805160ff191683800117855562000196565b8280016001018555821562000196579182015b828111156200019557825182559160200191906001019062000178565b5b509050620001a59190620001f3565b5090565b8260048101928215620001e0579160200282015b82811115620001df578251829060ff16905591602001919060010190620001bd565b5b509050620001ef9190620001f3565b5090565b6200021891905b8082111562000214576000816000905550600101620001fa565b5090565b90565b610ea5806200022b6000396000f3006080604052600436106100ba576000357c0100000000000000000000000000000000000000000000000000000000900463ffffffff1680632895b051146100cc5780633ccfd60b1461010d57806342ed1d29146101245780635456bf131461027f578063715018a6146102c05780637f276455146102d75780638adb7086146103025780638b58c569146103785780638da5cb5b146103bf578063918923c414610416578063b4a1676914610457578063f2fde38b14610498575b3480156100c657600080fd5b50600080fd5b3480156100d857600080fd5b506100f7600480360381019080803590602001909291905050506104db565b6040518082815260200191505060405180910390f35b34801561011957600080fd5b5061012261050c565b005b34801561013057600080fd5b50610155600480360381019080803563ffffffff1690602001909291905050506105c7565b604051808a63ffffffff1663ffffffff16815260200180602001806020018981526020018881526020018781526020018681526020018581526020018460ff1660ff16815260200183810383528b818151815260200191508051906020019080838360005b838110156101d55780820151818401526020810190506101ba565b50505050905090810190601f1680156102025780820380516001836020036101000a031916815260200191505b5083810382528a818151815260200191508051906020019080838360005b8381101561023b578082015181840152602081019050610220565b50505050905090810190601f1680156102685780820380516001836020036101000a031916815260200191505b509b50505050505050505050505060405180910390f35b34801561028b57600080fd5b506102aa60048036038101908080359060200190929190505050610762565b6040518082815260200191505060405180910390f35b3480156102cc57600080fd5b506102d561098e565b005b3480156102e357600080fd5b506102ec610a90565b6040518082815260200191505060405180910390f35b34801561030e57600080fd5b5061032d60048036038101908080359060200190929190505050610a9d565b604051808561ffff1661ffff1681526020018461ffff1661ffff1681526020018361ffff1661ffff1681526020018261ffff1661ffff16815260200194505050505060405180910390f35b34801561038457600080fd5b506103a360048036038101908080359060200190929190505050610c98565b604051808260ff1660ff16815260200191505060405180910390f35b3480156103cb57600080fd5b506103d4610cb8565b604051808273ffffffffffffffffffffffffffffffffffffffff1673ffffffffffffffffffffffffffffffffffffffff16815260200191505060405180910390f35b34801561042257600080fd5b5061044160048036038101908080359060200190929190505050610cdd565b6040518082815260200191505060405180910390f35b34801561046357600080fd5b5061048260048036038101908080359060200190929190505050610d00565b6040518082815260200191505060405180910390f35b3480156104a457600080fd5b506104d9600480360381019080803573ffffffffffffffffffffffffffffffffffffffff169060200190929190505050610d18565b005b6000806104f5620445c0848115156104ef57fe5b04610762565b905060048181151561050357fe5b04915050919050565b6000809054906101000a900473ffffffffffffffffffffffffffffffffffffffff1673ffffffffffffffffffffffffffffffffffffffff163373ffffffffffffffffffffffffffffffffffffffff1614151561056757600080fd5b3373ffffffffffffffffffffffffffffffffffffffff166108fc3073ffffffffffffffffffffffffffffffffffffffff16319081150290604051600060405180830381858888f193505050501580156105c4573d6000803e3d6000fd5b50565b60076020528060005260406000206000915090508060000160009054906101000a900463ffffffff1690806001018054600181600116156101000203166002900480601f0160208091040260200160405190810160405280929190818152602001828054600181600116156101000203166002900480156106895780601f1061065e57610100808354040283529160200191610689565b820191906000526020600020905b81548152906001019060200180831161066c57829003601f168201915b505050505090806002018054600181600116156101000203166002900480601f0160208091040260200160405190810160405280929190818152602001828054600181600116156101000203166002900480156107275780601f106106fc57610100808354040283529160200191610727565b820191906000526020600020905b81548152906001019060200180831161070a57829003601f168201915b5050505050908060030154908060040154908060050154908060060154908060070154908060080160009054906101000a900460ff16905089565b60008160018303925060028304831792506004830483179250601083048317925061010083048317925062010000830483179250640100000000830483179250680100000000000000008304831792507001000000000000000000000000000000008304831792506001830192506040517ff8f9cbfae6cc78fbefe7cdc3a1793dfcf4f0e8bbd8cec470b6a28a7a5a3e1efd81527ff5ecf1b3e9debc68e1d9cfabc5997135bfb7a7a3938b7b606b5b4b3f2f1f0ffe60208201527ff6e4ed9ff2d6b458eadcdf97bd91692de2d4da8fd2d0ac50c6ae9a827252361660408201527fc8c0b887b0a8a4489c948c7f847c6125746c645c544c444038302820181008ff60608201527ff7cae577eec2a03cf3bad76fb589591debb2dd67e0aa9834bea6925f6a4a2e0e60808201527fe39ed557db96902cd38ed14fad815115c786af479b7e8324736353433727170760a08201527fc976c13bb96e881cb166a933a55e490d9d56952b8d4e801485467d236242260660c08201527f753a6d1b65325d0c552a4d1345224105391a310b29122104190a11030902010060e082015261010081016040527e818283848586878898a8b8c8d8e8f929395969799a9b9d9e9faaeb6bedeeff7f01000000000000000000000000000000000000000000000000000000000000008082870204818160ff038501510495507f8000000000000000000000000000000000000000000000000000000000000000851161010002860195505050505050919050565b6000809054906101000a900473ffffffffffffffffffffffffffffffffffffffff1673ffffffffffffffffffffffffffffffffffffffff163373ffffffffffffffffffffffffffffffffffffffff161415156109e957600080fd5b6000809054906101000a900473ffffffffffffffffffffffffffffffffffffffff1673ffffffffffffffffffffffffffffffffffffffff167ff8df31144d9c2f0f6b59d69b8b98abd5459d07f2742c4df920b25aae33c6482060405160405180910390a260008060006101000a81548173ffffffffffffffffffffffffffffffffffffffff021916908373ffffffffffffffffffffffffffffffffffffffff160217905550565b6000600880549050905090565b60008060008060008060008092505b6004831015610b22576064600f84600481101515610ac657fe5b0154610ad18a6104db565b600b86600481101515610ae057fe5b0154610aeb8c6104db565b0a811515610af557fe5b04811515610aff57fe5b0402601384600481101515610b1057fe5b01819055508280600101935050610aac565b60136003600481101515610b3257fe5b015460136002600481101515610b4457fe5b015460136001600481101515610b5657fe5b015460136000600481101515610b6857fe5b01540101019150600090505b6004811015610bde5781612710601383600481101515610b9057fe5b015402811515610b9c57fe5b04601782600481101515610bac57fe5b601091828204019190066002026101000a81548161ffff021916908361ffff1602179055508080600101915050610b74565b60176000600481101515610bee57fe5b601091828204019190066002029054906101000a900461ffff1660176001600481101515610c1857fe5b601091828204019190066002029054906101000a900461ffff1660176002600481101515610c4257fe5b601091828204019190066002029054906101000a900461ffff1660176003600481101515610c6c57fe5b601091828204019190066002029054906101000a900461ffff1696509650965096505050509193509193565b60046020528060005260406000206000915054906101000a900460ff1681565b6000809054906101000a900473ffffffffffffffffffffffffffffffffffffffff1681565b600881815481101515610cec57fe5b906000526020600020016000915090505481565b60096020528060005260406000206000915090505481565b6000809054906101000a900473ffffffffffffffffffffffffffffffffffffffff1673ffffffffffffffffffffffffffffffffffffffff163373ffffffffffffffffffffffffffffffffffffffff16141515610d7357600080fd5b610d7c81610d7f565b50565b600073ffffffffffffffffffffffffffffffffffffffff168173ffffffffffffffffffffffffffffffffffffffff1614151515610dbb57600080fd5b8073ffffffffffffffffffffffffffffffffffffffff166000809054906101000a900473ffffffffffffffffffffffffffffffffffffffff1673ffffffffffffffffffffffffffffffffffffffff167f8be0079c531659141344cd1fd0a4f28419497f9722a3daafe3b4186f6b6457e060405160405180910390a3806000806101000a81548173ffffffffffffffffffffffffffffffffffffffff021916908373ffffffffffffffffffffffffffffffffffffffff160217905550505600a165627a7a7230582068c6f2f8aa08a696b345a66093319dcb14e1495ba3e656677aa1a4632c62465c0029",
  "source": "pragma solidity ^0.4.22;\n\n/******************************************\n\nOur Matra our Motto for coding The Cryptoz Universe.\n\n      Fail EARLY and Fail LOUD !!!!!!!\n\n1.    First - Check all pre-conditions\n2.    Then  - make changes to contract state\n3.    Final - interact with other contracts\n\nPull funds over pushing them\nPlatform limits like max of 1023 loop interations.\n\nall Events start with Log\n\n******************************************/\nimport \"./CZXPToken.sol\";\nimport \"./../node_modules/openzeppelin-solidity/contracts/ownership/Ownable.sol\";\nimport \"./../node_modules/openzeppelin-solidity/contracts/math/SafeMath.sol\";\n\ncontract CryptozUniverse is Ownable {\n    using SafeMath for uint256;\n\n//Definitons\n    struct cardType{\n        uint32 cardTypeId;\n        string name;\n        string set;\n        //uint8 assetType; //1=human,2=animal,3=plant, 4=thing\n        //uint8 notStoreOrBonus; //0 =inStore, 1 = pack, 2= bonus\n        //uint8 rarity; //1 = diamond,6 = common\n        //uint16 totalAvailable;\n        uint256 weiCost;\n        uint256 buyCzxp;\n        uint256 transferCzxp;\n        uint256 sacrificeCzxp;\n        uint256 unlockCzxp;\n        uint8 cardLevel;\n    }\n\n    struct Card{\n        uint32 cardTypeId;\n        uint256 editionNumber;\n        uint256 transferCount;\n    }\n\n    string baseTokenURI = 'https://cryptoz.cards/data/'; //append ID on\n//storage\n\n    //Containers for the card types\n    mapping(uint256 => uint8) cardAssetType;\n    mapping(uint256 => uint8) storeBoosterBonus;\n    mapping(uint256 => uint8) public rarity; // lookup cardTypeId return rarity\n    mapping(uint256 => uint16) totalAvailable;\n\n    //All the cards in the Cryptoz Universe\n    Card[] internal Cards;\n\n    mapping(uint32 => cardType) public allCardTypes;        // All card type definitions\n    uint256[] public cardTypesIds; //Just an array of all the id\n\n    //track editionNumberTotal, always increments, starts at 1\n    mapping(uint256 => uint256) public cardTypeToEdition;\n\n// Event Logs\n    event CZXPGained(address indexed beneficiary, uint256 czxpAmount);\n\n//Other variables we need\n    address internal CzxpContractAddress_;\n\n\n    /**\n     * Not much going on here so exit.\n     */\n    function() public{\n        revert();\n    }\n\n    /**\n     *\n     */\n     function getTotalTypes() public view returns(uint){\n         return cardTypesIds.length;\n     }\n\n    /**\n     *  Internal function called from Cryptoz once all the checks are done\n     */\n    function awardCzxp(address _beneficiary, uint czxpReward) internal {\n        //Give the czxp tokens\n        CzxpToken(CzxpContractAddress_).awardCzxp(_beneficiary, czxpReward);\n    }\n\n    /**\n     * Random as it gets for now. Return a val between 1-10000\n     */\n    function selectRandom(uint seed, uint256 range) view internal returns(uint){\n        return(uint(keccak256(block.blockhash(block.number-1), seed ))%range);\n    }\n\n    uint[4] group = [1,2,3,4];\n    uint[4] Fac = [1,2,6,24];\n    uint[4] DistGroup;\n    uint16[4] FinalProbs;\n    \n    function getProbs(uint wager) public returns (uint16,uint16,uint16,uint16)  {\n\n        for(uint i=0; i<4; i++){\n            DistGroup[i] = (((getLambda(wager)**group[i]) / getLambda(wager)) / Fac[i]) * 100;\n        }\n        \n        uint DistTotal = DistGroup[0] + DistGroup[1] + DistGroup[2] + DistGroup[3];\n        \n        for(uint j=0; j<4; j++){\n            FinalProbs[j] = uint16(DistGroup[j] * 10000 / DistTotal);\n        }\n        return(FinalProbs[0],FinalProbs[1],FinalProbs[2],FinalProbs[3]);\n    }\n    \n    function getLambda(uint wager) returns (uint) {\n        uint Dist   = log2(wager / 280000);\n        return Dist / 4;\n    }\n    \n    function log2(uint x) returns (uint y){\n       assembly {\n            let arg := x\n            x := sub(x,1)\n            x := or(x, div(x, 0x02))\n            x := or(x, div(x, 0x04))\n            x := or(x, div(x, 0x10))\n            x := or(x, div(x, 0x100))\n            x := or(x, div(x, 0x10000))\n            x := or(x, div(x, 0x100000000))\n            x := or(x, div(x, 0x10000000000000000))\n            x := or(x, div(x, 0x100000000000000000000000000000000))\n            x := add(x, 1)\n            let m := mload(0x40)\n            mstore(m,           0xf8f9cbfae6cc78fbefe7cdc3a1793dfcf4f0e8bbd8cec470b6a28a7a5a3e1efd)\n            mstore(add(m,0x20), 0xf5ecf1b3e9debc68e1d9cfabc5997135bfb7a7a3938b7b606b5b4b3f2f1f0ffe)\n            mstore(add(m,0x40), 0xf6e4ed9ff2d6b458eadcdf97bd91692de2d4da8fd2d0ac50c6ae9a8272523616)\n            mstore(add(m,0x60), 0xc8c0b887b0a8a4489c948c7f847c6125746c645c544c444038302820181008ff)\n            mstore(add(m,0x80), 0xf7cae577eec2a03cf3bad76fb589591debb2dd67e0aa9834bea6925f6a4a2e0e)\n            mstore(add(m,0xa0), 0xe39ed557db96902cd38ed14fad815115c786af479b7e83247363534337271707)\n            mstore(add(m,0xc0), 0xc976c13bb96e881cb166a933a55e490d9d56952b8d4e801485467d2362422606)\n            mstore(add(m,0xe0), 0x753a6d1b65325d0c552a4d1345224105391a310b29122104190a110309020100)\n            mstore(0x40, add(m, 0x100))\n            let magic := 0x818283848586878898a8b8c8d8e8f929395969799a9b9d9e9faaeb6bedeeff\n            let shift := 0x100000000000000000000000000000000000000000000000000000000000000\n            let a := div(mul(x, magic), shift)\n            y := div(mload(add(m,sub(255,a))), shift)\n            y := add(y, mul(256, gt(arg, 0x8000000000000000000000000000000000000000000000000000000000000000)))\n        }\n    }\n\n    //Thanks! for supporting the Cryptoz universe <3 <3 <3\n    /**\n    * Withdraw balance to wallet\n    **/\n    function withdraw() public onlyOwner {\n      msg.sender.transfer(this.balance);\n    }\n}\n",
  "sourcePath": "/home/rprice/Downloads/cryptoz.cards/contracts/CryptozUniverse.sol",
  "compiler": {
    "name": "solc",
    "version": "0.4.24+commit.e67f0147.Emscripten.clang"
  },
  "schemaVersion": "2.0.1",
  "updatedAt": "2019-03-08T02:21:11.861Z"
}