{
  "contractName": "CryptozCard",
  "abi": [
    {
      "constant": true,
      "inputs": [
        {
          "name": "interfaceId",
          "type": "bytes4"
        }
      ],
      "name": "supportsInterface",
      "outputs": [
        {
          "name": "",
          "type": "bool"
        }
      ],
      "payable": false,
      "stateMutability": "view",
      "type": "function"
    },
    {
      "constant": true,
      "inputs": [
        {
          "name": "tokenId",
          "type": "uint256"
        }
      ],
      "name": "getApproved",
      "outputs": [
        {
          "name": "",
          "type": "address"
        }
      ],
      "payable": false,
      "stateMutability": "view",
      "type": "function"
    },
    {
      "constant": false,
      "inputs": [
        {
          "name": "to",
          "type": "address"
        },
        {
          "name": "tokenId",
          "type": "uint256"
        }
      ],
      "name": "approve",
      "outputs": [],
      "payable": false,
      "stateMutability": "nonpayable",
      "type": "function"
    },
    {
      "constant": false,
      "inputs": [
        {
          "name": "from",
          "type": "address"
        },
        {
          "name": "to",
          "type": "address"
        },
        {
          "name": "tokenId",
          "type": "uint256"
        }
      ],
      "name": "safeTransferFrom",
      "outputs": [],
      "payable": false,
      "stateMutability": "nonpayable",
      "type": "function"
    },
    {
      "constant": true,
      "inputs": [
        {
          "name": "",
          "type": "uint32"
        }
      ],
      "name": "allCardTypes",
      "outputs": [
        {
          "name": "cardTypeId",
          "type": "uint32"
        },
        {
          "name": "name",
          "type": "string"
        },
        {
          "name": "set",
          "type": "string"
        },
        {
          "name": "weiCost",
          "type": "uint256"
        },
        {
          "name": "buyCzxp",
          "type": "uint256"
        },
        {
          "name": "transferCzxp",
          "type": "uint256"
        },
        {
          "name": "sacrificeCzxp",
          "type": "uint256"
        },
        {
          "name": "unlockCzxp",
          "type": "uint256"
        },
        {
          "name": "cardLevel",
          "type": "uint8"
        }
      ],
      "payable": false,
      "stateMutability": "view",
      "type": "function"
    },
    {
      "constant": true,
      "inputs": [
        {
          "name": "",
          "type": "uint256"
        }
      ],
      "name": "tokensByRarity",
      "outputs": [
        {
          "name": "",
          "type": "uint256"
        }
      ],
      "payable": false,
      "stateMutability": "view",
      "type": "function"
    },
    {
      "constant": true,
      "inputs": [
        {
          "name": "tokenId",
          "type": "uint256"
        }
      ],
      "name": "ownerOf",
      "outputs": [
        {
          "name": "",
          "type": "address"
        }
      ],
      "payable": false,
      "stateMutability": "view",
      "type": "function"
    },
    {
      "constant": true,
      "inputs": [
        {
          "name": "owner",
          "type": "address"
        }
      ],
      "name": "balanceOf",
      "outputs": [
        {
          "name": "",
          "type": "uint256"
        }
      ],
      "payable": false,
      "stateMutability": "view",
      "type": "function"
    },
    {
      "constant": false,
      "inputs": [],
      "name": "renounceOwnership",
      "outputs": [],
      "payable": false,
      "stateMutability": "nonpayable",
      "type": "function"
    },
    {
      "constant": true,
      "inputs": [],
      "name": "getTotalTypes",
      "outputs": [
        {
          "name": "",
          "type": "uint256"
        }
      ],
      "payable": false,
      "stateMutability": "view",
      "type": "function"
    },
    {
      "constant": true,
      "inputs": [
        {
          "name": "",
          "type": "address"
        },
        {
          "name": "",
          "type": "uint256"
        }
      ],
      "name": "cardTypesOwned",
      "outputs": [
        {
          "name": "",
          "type": "bool"
        }
      ],
      "payable": false,
      "stateMutability": "view",
      "type": "function"
    },
    {
      "constant": false,
      "inputs": [
        {
          "name": "wager",
          "type": "uint256"
        }
      ],
      "name": "getProbs",
      "outputs": [
        {
          "name": "",
          "type": "uint16"
        },
        {
          "name": "",
          "type": "uint16"
        },
        {
          "name": "",
          "type": "uint16"
        },
        {
          "name": "",
          "type": "uint16"
        }
      ],
      "payable": false,
      "stateMutability": "nonpayable",
      "type": "function"
    },
    {
      "constant": true,
      "inputs": [
        {
          "name": "",
          "type": "uint256"
        }
      ],
      "name": "rarity",
      "outputs": [
        {
          "name": "",
          "type": "uint8"
        }
      ],
      "payable": false,
      "stateMutability": "view",
      "type": "function"
    },
    {
      "constant": true,
      "inputs": [],
      "name": "owner",
      "outputs": [
        {
          "name": "",
          "type": "address"
        }
      ],
      "payable": false,
      "stateMutability": "view",
      "type": "function"
    },
    {
      "constant": true,
      "inputs": [],
      "name": "isOwner",
      "outputs": [
        {
          "name": "",
          "type": "bool"
        }
      ],
      "payable": false,
      "stateMutability": "view",
      "type": "function"
    },
    {
      "constant": true,
      "inputs": [
        {
          "name": "",
          "type": "uint256"
        }
      ],
      "name": "cardTypesIds",
      "outputs": [
        {
          "name": "",
          "type": "uint256"
        }
      ],
      "payable": false,
      "stateMutability": "view",
      "type": "function"
    },
    {
      "constant": false,
      "inputs": [
        {
          "name": "to",
          "type": "address"
        },
        {
          "name": "approved",
          "type": "bool"
        }
      ],
      "name": "setApprovalForAll",
      "outputs": [],
      "payable": false,
      "stateMutability": "nonpayable",
      "type": "function"
    },
    {
      "constant": true,
      "inputs": [
        {
          "name": "",
          "type": "uint256"
        }
      ],
      "name": "cardTypeToEdition",
      "outputs": [
        {
          "name": "",
          "type": "uint256"
        }
      ],
      "payable": false,
      "stateMutability": "view",
      "type": "function"
    },
    {
      "constant": false,
      "inputs": [
        {
          "name": "from",
          "type": "address"
        },
        {
          "name": "to",
          "type": "address"
        },
        {
          "name": "tokenId",
          "type": "uint256"
        },
        {
          "name": "_data",
          "type": "bytes"
        }
      ],
      "name": "safeTransferFrom",
      "outputs": [],
      "payable": false,
      "stateMutability": "nonpayable",
      "type": "function"
    },
    {
      "constant": true,
      "inputs": [
        {
          "name": "",
          "type": "uint256"
        }
      ],
      "name": "totalOfTypeAvailable",
      "outputs": [
        {
          "name": "",
          "type": "uint16"
        }
      ],
      "payable": false,
      "stateMutability": "view",
      "type": "function"
    },
    {
      "constant": true,
      "inputs": [
        {
          "name": "owner",
          "type": "address"
        },
        {
          "name": "operator",
          "type": "address"
        }
      ],
      "name": "isApprovedForAll",
      "outputs": [
        {
          "name": "",
          "type": "bool"
        }
      ],
      "payable": false,
      "stateMutability": "view",
      "type": "function"
    },
    {
      "constant": false,
      "inputs": [
        {
          "name": "newOwner",
          "type": "address"
        }
      ],
      "name": "transferOwnership",
      "outputs": [],
      "payable": false,
      "stateMutability": "nonpayable",
      "type": "function"
    },
    {
      "payable": false,
      "stateMutability": "nonpayable",
      "type": "fallback"
    },
    {
      "anonymous": false,
      "inputs": [
        {
          "indexed": true,
          "name": "owner",
          "type": "address"
        },
        {
          "indexed": true,
          "name": "cardTokenId",
          "type": "uint256"
        },
        {
          "indexed": false,
          "name": "editionNumber",
          "type": "uint256"
        },
        {
          "indexed": true,
          "name": "cardTypeId",
          "type": "uint256"
        },
        {
          "indexed": false,
          "name": "rarity",
          "type": "uint8"
        },
        {
          "indexed": false,
          "name": "CzxpGained",
          "type": "uint256"
        }
      ],
      "name": "LogCardCreated",
      "type": "event"
    },
    {
      "anonymous": false,
      "inputs": [
        {
          "indexed": true,
          "name": "owner",
          "type": "address"
        },
        {
          "indexed": true,
          "name": "cardTokenId",
          "type": "uint256"
        },
        {
          "indexed": true,
          "name": "cardTypeId",
          "type": "uint256"
        },
        {
          "indexed": false,
          "name": "CzxpGained",
          "type": "uint256"
        }
      ],
      "name": "SacrificeCardEvent",
      "type": "event"
    },
    {
      "anonymous": false,
      "inputs": [
        {
          "indexed": true,
          "name": "from",
          "type": "address"
        },
        {
          "indexed": true,
          "name": "to",
          "type": "address"
        },
        {
          "indexed": true,
          "name": "tokenId",
          "type": "uint256"
        }
      ],
      "name": "Transfer",
      "type": "event"
    },
    {
      "anonymous": false,
      "inputs": [
        {
          "indexed": true,
          "name": "owner",
          "type": "address"
        },
        {
          "indexed": true,
          "name": "approved",
          "type": "address"
        },
        {
          "indexed": true,
          "name": "tokenId",
          "type": "uint256"
        }
      ],
      "name": "Approval",
      "type": "event"
    },
    {
      "anonymous": false,
      "inputs": [
        {
          "indexed": true,
          "name": "owner",
          "type": "address"
        },
        {
          "indexed": true,
          "name": "operator",
          "type": "address"
        },
        {
          "indexed": false,
          "name": "approved",
          "type": "bool"
        }
      ],
      "name": "ApprovalForAll",
      "type": "event"
    },
    {
      "anonymous": false,
      "inputs": [
        {
          "indexed": true,
          "name": "beneficiary",
          "type": "address"
        },
        {
          "indexed": false,
          "name": "czxpAmount",
          "type": "uint256"
        }
      ],
      "name": "CZXPGained",
      "type": "event"
    },
    {
      "anonymous": false,
      "inputs": [
        {
          "indexed": true,
          "name": "previousOwner",
          "type": "address"
        },
        {
          "indexed": true,
          "name": "newOwner",
          "type": "address"
        }
      ],
      "name": "OwnershipTransferred",
      "type": "event"
    },
    {
      "constant": true,
      "inputs": [],
      "name": "name",
      "outputs": [
        {
          "name": "_name",
          "type": "string"
        }
      ],
      "payable": false,
      "stateMutability": "view",
      "type": "function"
    },
    {
      "constant": true,
      "inputs": [],
      "name": "symbol",
      "outputs": [
        {
          "name": "_symbol",
          "type": "string"
        }
      ],
      "payable": false,
      "stateMutability": "view",
      "type": "function"
    },
    {
      "constant": true,
      "inputs": [
        {
          "name": "_tokenId",
          "type": "uint256"
        }
      ],
      "name": "tokenURI",
      "outputs": [
        {
          "name": "",
          "type": "string"
        }
      ],
      "payable": false,
      "stateMutability": "view",
      "type": "function"
    },
    {
      "constant": true,
      "inputs": [
        {
          "name": "_owner",
          "type": "address"
        },
        {
          "name": "_index",
          "type": "uint256"
        }
      ],
      "name": "tokenOfOwnerByIndex",
      "outputs": [
        {
          "name": "",
          "type": "uint256"
        }
      ],
      "payable": false,
      "stateMutability": "view",
      "type": "function"
    },
    {
      "constant": true,
      "inputs": [],
      "name": "totalSupply",
      "outputs": [
        {
          "name": "",
          "type": "uint256"
        }
      ],
      "payable": false,
      "stateMutability": "view",
      "type": "function"
    },
    {
      "constant": true,
      "inputs": [
        {
          "name": "_index",
          "type": "uint256"
        }
      ],
      "name": "tokenByIndex",
      "outputs": [
        {
          "name": "",
          "type": "uint256"
        }
      ],
      "payable": false,
      "stateMutability": "view",
      "type": "function"
    },
    {
      "constant": false,
      "inputs": [
        {
          "name": "from",
          "type": "address"
        },
        {
          "name": "to",
          "type": "address"
        },
        {
          "name": "tokenId",
          "type": "uint256"
        }
      ],
      "name": "transferFrom",
      "outputs": [],
      "payable": false,
      "stateMutability": "nonpayable",
      "type": "function"
    },
    {
      "constant": true,
      "inputs": [
        {
          "name": "_owner",
          "type": "address"
        }
      ],
      "name": "tokensOfOwner",
      "outputs": [
        {
          "name": "ownerTokens",
          "type": "uint256[]"
        }
      ],
      "payable": false,
      "stateMutability": "view",
      "type": "function"
    },
    {
      "constant": true,
      "inputs": [],
      "name": "getTokensByRarity",
      "outputs": [
        {
          "name": "",
          "type": "uint256"
        },
        {
          "name": "",
          "type": "uint256"
        },
        {
          "name": "",
          "type": "uint256"
        },
        {
          "name": "",
          "type": "uint256"
        },
        {
          "name": "",
          "type": "uint256"
        },
        {
          "name": "",
          "type": "uint256"
        }
      ],
      "payable": false,
      "stateMutability": "view",
      "type": "function"
    },
    {
      "constant": true,
      "inputs": [
        {
          "name": "_tokenId",
          "type": "uint256"
        }
      ],
      "name": "getOwnedCard",
      "outputs": [
        {
          "name": "",
          "type": "uint32"
        },
        {
          "name": "",
          "type": "uint256"
        },
        {
          "name": "",
          "type": "uint256"
        }
      ],
      "payable": false,
      "stateMutability": "view",
      "type": "function"
    }
  ],
  "bytecode": "0x60c0604052601b60808190527f68747470733a2f2f63727970746f7a2e63617264732f646174612f000000000060a09081526200004091600191906200035f565b506000600b556040805160808101825260018152600260208201526003918101919091526004606082018190526200007b91600c91620003e4565b5060408051608081018252600181526002602082015260069181019190915260186060820152620000b1906010906004620003e4565b5060408051808201909152600d8082527f43727970746f7a204361726473000000000000000000000000000000000000006020909201918252620000f8916022916200035f565b506040805180820190915260078082527f43727970746f7a0000000000000000000000000000000000000000000000000060209092019182526200013f916023916200035f565b506040805160e081018252600080825260208201819052918101829052606081018290526080810182905260a0810182905260c0810191909152620001899060299060076200041a565b5060006200019f6001600160e01b036200028b16565b600080546001600160a01b0319166001600160a01b0383169081178255604051929350917f8be0079c531659141344cd1fd0a4f28419497f9722a3daafe3b4186f6b6457e0908290a3506200021d7f01ffc9a7000000000000000000000000000000000000000000000000000000006001600160e01b036200029016565b620002517f80ac58cd000000000000000000000000000000000000000000000000000000006001600160e01b036200029016565b620002857f780e9d63000000000000000000000000000000000000000000000000000000006001600160e01b036200029016565b6200046c565b335b90565b7fffffffff0000000000000000000000000000000000000000000000000000000080821614156200032257604080517f08c379a000000000000000000000000000000000000000000000000000000000815260206004820152601c60248201527f4552433136353a20696e76616c696420696e7465726661636520696400000000604482015290519081900360640190fd5b7fffffffff00000000000000000000000000000000000000000000000000000000166000908152601960205260409020805460ff19166001179055565b828054600181600116156101000203166002900490600052602060002090601f016020900481019282601f10620003a257805160ff1916838001178555620003d2565b82800160010185558215620003d2579182015b82811115620003d2578251825591602001919060010190620003b5565b50620003e09291506200044f565b5090565b8260048101928215620003d2579160200282015b82811115620003d2578251829060ff16905591602001919060010190620003f8565b8260078101928215620003d25791602002820182811115620003d2578251829060ff16905591602001919060010190620003f8565b6200028d91905b80821115620003e0576000815560010162000456565b61245b806200047c6000396000f3fe608060405234801561001057600080fd5b50600436106101f05760003560e01c80638462151c1161010f578063a47ed2e7116100a2578063c87b56dd11610071578063c87b56dd1461087b578063ce37c37e14610898578063e985e9c5146108cc578063f2fde38b146108fa576101f0565b8063a47ed2e71461071b578063afa615411461075d578063b4a1676914610798578063b88d4fde146107b5576101f0565b80638f32d59b116100de5780638f32d59b146106c0578063918923c4146106c857806395d89b41146106e5578063a22cb465146106ed576101f0565b80638462151c146105c35780638adb7086146106395780638b58c569146106855780638da5cb5b146106b8576101f0565b806342ed1d291161018757806370a082311161015657806370a0823114610561578063715018a6146105875780637f2764551461058f57806381cbd20314610597576101f0565b806342ed1d29146103c65780634d3e2e5e1461050a5780634f6ccce7146105275780636352211e14610544576101f0565b806318160ddd116101c357806318160ddd1461031457806323b872dd1461032e5780632f745c591461036457806342842e0e14610390576101f0565b806301ffc9a7146101f557806306fdde0314610230578063081812fc146102ad578063095ea7b3146102e6575b600080fd5b61021c6004803603602081101561020b57600080fd5b50356001600160e01b031916610920565b604080519115158252519081900360200190f35b610238610943565b6040805160208082528351818301528351919283929083019185019080838360005b8381101561027257818101518382015260200161025a565b50505050905090810190601f16801561029f5780820380516001836020036101000a031916815260200191505b509250505060405180910390f35b6102ca600480360360208110156102c357600080fd5b50356109da565b604080516001600160a01b039092168252519081900360200190f35b610312600480360360408110156102fc57600080fd5b506001600160a01b038135169060200135610a3c565b005b61031c610b64565b60408051918252519081900360200190f35b6103126004803603606081101561034457600080fd5b506001600160a01b03813581169160208101359091169060400135610b6a565b61031c6004803603604081101561037a57600080fd5b506001600160a01b038135169060200135610bb6565b610312600480360360608110156103a657600080fd5b506001600160a01b03813581169160208101359091169060400135610c03565b6103e9600480360360208110156103dc57600080fd5b503563ffffffff16610c1e565b604051808a63ffffffff1663ffffffff16815260200180602001806020018981526020018881526020018781526020018681526020018581526020018460ff1660ff16815260200183810383528b818151815260200191508051906020019080838360005b8381101561046657818101518382015260200161044e565b50505050905090810190601f1680156104935780820380516001836020036101000a031916815260200191505b5083810382528a5181528a516020918201918c019080838360005b838110156104c65781810151838201526020016104ae565b50505050905090810190601f1680156104f35780820380516001836020036101000a031916815260200191505b509b50505050505050505050505060405180910390f35b61031c6004803603602081101561052057600080fd5b5035610d8b565b61031c6004803603602081101561053d57600080fd5b5035610d9f565b6102ca6004803603602081101561055a57600080fd5b5035610dd3565b61031c6004803603602081101561057757600080fd5b50356001600160a01b0316610e2d565b610312610e95565b61031c610f38565b61021c600480360360408110156105ad57600080fd5b506001600160a01b038135169060200135610f3e565b6105e9600480360360208110156105d957600080fd5b50356001600160a01b0316610f5e565b60408051602080825283518183015283519192839290830191858101910280838360005b8381101561062557818101518382015260200161060d565b505050509050019250505060405180910390f35b6106566004803603602081101561064f57600080fd5b5035610fbf565b6040805161ffff9586168152938516602085015291841683830152909216606082015290519081900360800190f35b6106a26004803603602081101561069b57600080fd5b50356110d6565b6040805160ff9092168252519081900360200190f35b6102ca6110eb565b61021c6110fa565b61031c600480360360208110156106de57600080fd5b503561111e565b61023861113c565b6103126004803603604081101561070357600080fd5b506001600160a01b038135169060200135151561119d565b6107386004803603602081101561073157600080fd5b50356112a2565b6040805163ffffffff9094168452602084019290925282820152519081900360600190f35b61076561132c565b604080519687526020870195909552858501939093526060850191909152608084015260a0830152519081900360c00190f35b61031c600480360360208110156107ae57600080fd5b503561134a565b610312600480360360808110156107cb57600080fd5b6001600160a01b0382358116926020810135909116916040820135919081019060808101606082013564010000000081111561080657600080fd5b82018360208201111561081857600080fd5b8035906020019184600183028401116401000000008311171561083a57600080fd5b91908080601f01602080910402602001604051908101604052809392919081815260200183838082843760009201919091525092955061135c945050505050565b6102386004803603602081101561089157600080fd5b50356113ba565b6108b5600480360360208110156108ae57600080fd5b503561145b565b6040805161ffff9092168252519081900360200190f35b61021c600480360360408110156108e257600080fd5b506001600160a01b0381358116916020013516611471565b6103126004803603602081101561091057600080fd5b50356001600160a01b031661149f565b6001600160e01b0319811660009081526019602052604090205460ff165b919050565b60228054604080516020601f60026000196101006001881615020190951694909404938401819004810282018101909252828152606093909290918301828280156109cf5780601f106109a4576101008083540402835291602001916109cf565b820191906000526020600020905b8154815290600101906020018083116109b257829003601f168201915b505050505090505b90565b60006109e582611504565b610a205760405162461bcd60e51b815260040180806020018281038252602c815260200180612380602c913960400191505060405180910390fd5b506000908152601b60205260409020546001600160a01b031690565b6000610a4782610dd3565b9050806001600160a01b0316836001600160a01b03161415610a9a5760405162461bcd60e51b81526004018080602001828103825260218152602001806123d56021913960400191505060405180910390fd5b806001600160a01b0316610aac611521565b6001600160a01b03161480610acd5750610acd81610ac8611521565b611471565b610b085760405162461bcd60e51b81526004018080602001828103825260388152602001806122f56038913960400191505060405180910390fd5b6000828152601b602052604080822080546001600160a01b0319166001600160a01b0387811691821790925591518593918516917f8c5be1e5ebec7d5bd14f71427d1e84f3dd0314c0f7b2291e5b200ac8c7c3b92591a4505050565b60265490565b610b743382611525565b610b7d57600080fd5b600160068281548110610b8c57fe5b6000918252602090912060026003909202010180549091019055610bb18383836115c9565b505050565b6000610bc183610e2d565b8210610bcc57600080fd5b6001600160a01b0383166000908152602460205260409020805483908110610bf057fe5b9060005260206000200154905092915050565b610bb18383836040518060200160405280600081525061135c565b6007602090815260009182526040918290208054600180830180548651600261010094831615949094026000190190911692909204601f810186900486028301860190965285825263ffffffff909216949293909290830182828015610cc55780601f10610c9a57610100808354040283529160200191610cc5565b820191906000526020600020905b815481529060010190602001808311610ca857829003601f168201915b50505060028085018054604080516020601f6000196101006001871615020190941695909504928301859004850281018501909152818152959695945090925090830182828015610d575780601f10610d2c57610100808354040283529160200191610d57565b820191906000526020600020905b815481529060010190602001808311610d3a57829003601f168201915b5050506003840154600485015460058601546006870154600788015460089098015496979396929550909350919060ff1689565b60298160078110610d9857fe5b0154905081565b6000610da9610b64565b8210610db457600080fd5b60268281548110610dc157fe5b90600052602060002001549050919050565b6000818152601a60205260408120546001600160a01b031680610e275760405162461bcd60e51b81526004018080602001828103825260298152602001806123576029913960400191505060405180910390fd5b92915050565b60006001600160a01b038216610e745760405162461bcd60e51b815260040180806020018281038252602a81526020018061232d602a913960400191505060405180910390fd5b6001600160a01b0382166000908152601c60205260409020610e27906115d4565b610e9d6110fa565b610eee576040805162461bcd60e51b815260206004820181905260248201527f4f776e61626c653a2063616c6c6572206973206e6f7420746865206f776e6572604482015290519081900360640190fd5b600080546040516001600160a01b03909116907f8be0079c531659141344cd1fd0a4f28419497f9722a3daafe3b4186f6b6457e0908390a3600080546001600160a01b0319169055565b60085490565b603060209081526000928352604080842090915290825290205460ff1681565b6060610f69826115d8565b805480602002602001604051908101604052809291908181526020018280548015610fb357602002820191906000526020600020905b815481526020019060010190808311610f9f575b50505050509050919050565b6000808080805b600481101561102a5760108160048110610fdc57fe5b0154610fe7876115f2565b600c8360048110610ff457fe5b0154610fff896115f2565b0a8161100757fe5b048161100f57fe5b046064026014826004811061102057fe5b0155600101610fc6565b5060175460165460155460145401010160005b60048110156110a157816014826004811061105457fe5b0154612710028161106157fe5b046018826004811061106f57fe5b601091828204019190066002026101000a81548161ffff021916908361ffff160217905550808060010191505061103d565b505060185461ffff80821697620100008304821697506401000000008304821696506601000000000000909204169350915050565b60046020526000908152604090205460ff1681565b6000546001600160a01b031690565b600080546001600160a01b031661110f611521565b6001600160a01b031614905090565b6008818154811061112b57fe5b600091825260209091200154905081565b60238054604080516020601f60026000196101006001881615020190951694909404938401819004810282018101909252828152606093909290918301828280156109cf5780601f106109a4576101008083540402835291602001916109cf565b6111a5611521565b6001600160a01b0316826001600160a01b0316141561120b576040805162461bcd60e51b815260206004820152601960248201527f4552433732313a20617070726f766520746f2063616c6c657200000000000000604482015290519081900360640190fd5b80601d6000611218611521565b6001600160a01b03908116825260208083019390935260409182016000908120918716808252919093529120805460ff19169215159290921790915561125c611521565b60408051841515815290516001600160a01b0392909216917f17307eab39ab6107e8899845ad3d59bd9653f200f220920489ca2b5937696c319181900360200190a35050565b60008060006112b084611504565b6112b957600080fd5b600684815481106112c657fe5b60009182526020909120600390910201546006805463ffffffff90921691869081106112ee57fe5b9060005260206000209060030201600101546006868154811061130d57fe5b9060005260206000209060030201600201549250925092509193909250565b602a54602b54602c54602d54602e54602f5494959394929391929091565b60096020526000908152604090205481565b61136d611367611521565b83611525565b6113a85760405162461bcd60e51b81526004018080602001828103825260318152602001806123f66031913960400191505060405180910390fd5b6113b48484848461160e565b50505050565b60018054604080516020600284861615610100026000190190941693909304601f8101849004840282018401909252818152606093610e2793919290918301828280156114485780601f1061141d57610100808354040283529160200191611448565b820191906000526020600020905b81548152906001019060200180831161142b57829003601f168201915b505050505061145684611660565b611721565b60056020526000908152604090205461ffff1681565b6001600160a01b039182166000908152601d6020908152604080832093909416825291909152205460ff1690565b6114a76110fa565b6114f8576040805162461bcd60e51b815260206004820181905260248201527f4f776e61626c653a2063616c6c6572206973206e6f7420746865206f776e6572604482015290519081900360640190fd5b61150181611764565b50565b6000908152601a60205260409020546001600160a01b0316151590565b3390565b600061153082611504565b61156b5760405162461bcd60e51b815260040180806020018281038252602c8152602001806122c9602c913960400191505060405180910390fd5b600061157683610dd3565b9050806001600160a01b0316846001600160a01b031614806115b15750836001600160a01b03166115a6846109da565b6001600160a01b0316145b806115c157506115c18185611471565b949350505050565b610bb1838383611804565b5490565b6001600160a01b03166000908152601e6020526040902090565b600080611603620445c08404611823565b600490049392505050565b6116198484846115c9565b611625848484846119e1565b6113b45760405162461bcd60e51b815260040180806020018281038252603281526020018061224d6032913960400191505060405180910390fd5b60608161168557506040805180820190915260018152600360fc1b602082015261093e565b8160005b811561169d57600101600a82049150611689565b6060816040519080825280601f01601f1916602001820160405280156116ca576020820181803883390190505b50905060001982015b851561171857600a860660300160f81b828280600190039350815181106116f657fe5b60200101906001600160f81b031916908160001a905350600a860495506116d3565b50949350505050565b606061175d8383604051806020016040528060008152506040518060200160405280600081525060405180602001604052806000815250611c1c565b9392505050565b6001600160a01b0381166117a95760405162461bcd60e51b815260040180806020018281038252602681526020018061227f6026913960400191505060405180910390fd5b600080546040516001600160a01b03808516939216917f8be0079c531659141344cd1fd0a4f28419497f9722a3daafe3b4186f6b6457e091a3600080546001600160a01b0319166001600160a01b0392909216919091179055565b61180f838383611e30565b6118198382611f74565b610bb18282612069565b604080517ff8f9cbfae6cc78fbefe7cdc3a1793dfcf4f0e8bbd8cec470b6a28a7a5a3e1efd81527ff5ecf1b3e9debc68e1d9cfabc5997135bfb7a7a3938b7b606b5b4b3f2f1f0ffe60208201527ff6e4ed9ff2d6b458eadcdf97bd91692de2d4da8fd2d0ac50c6ae9a8272523616818301527fc8c0b887b0a8a4489c948c7f847c6125746c645c544c444038302820181008ff60608201527ff7cae577eec2a03cf3bad76fb589591debb2dd67e0aa9834bea6925f6a4a2e0e60808201527fe39ed557db96902cd38ed14fad815115c786af479b7e8324736353433727170760a08201527fc976c13bb96e881cb166a933a55e490d9d56952b8d4e801485467d236242260660c08201527f753a6d1b65325d0c552a4d1345224105391a310b29122104190a11030902010060e0820152610100808201909252600160f81b6001600160801b68010000000000000000640100000000620100006010600460026000198c019081041790810417908104178881041790810417908104179081041790810417017e818283848586878898a8b8c8d8e8f929395969799a9b9d9e9faaeb6bedeeff0281900460ff039091015104600160ff1b909211020190565b60006119f5846001600160a01b03166120a7565b611a01575060016115c1565b600060606001600160a01b038616630a85bd0160e11b611a1f611521565b89888860405160240180856001600160a01b03166001600160a01b03168152602001846001600160a01b03166001600160a01b0316815260200183815260200180602001828103825283818151815260200191508051906020019080838360005b83811015611a98578181015183820152602001611a80565b50505050905090810190601f168015611ac55780820380516001836020036101000a031916815260200191505b5060408051601f198184030181529181526020820180516001600160e01b03166001600160e01b0319909a16999099178952518151919890975087965094509250829150849050835b60208310611b2d5780518252601f199092019160209182019101611b0e565b6001836020036101000a0380198251168184511680821785525050505050509050019150506000604051808303816000865af19150503d8060008114611b8f576040519150601f19603f3d011682016040523d82523d6000602084013e611b94565b606091505b509150915081611be557805115611bae5780518082602001fd5b60405162461bcd60e51b815260040180806020018281038252603281526020018061224d6032913960400191505060405180910390fd5b6000818060200190516020811015611bfc57600080fd5b50516001600160e01b031916630a85bd0160e11b1493506115c192505050565b6060808690506060869050606086905060608690506060869050606081518351855187518951010101016040519080825280601f01601f191660200182016040528015611c70576020820181803883390190505b509050806000805b8851811015611cc957888181518110611c8d57fe5b602001015160f81c60f81b838380600101945081518110611caa57fe5b60200101906001600160f81b031916908160001a905350600101611c78565b5060005b8751811015611d1e57878181518110611ce257fe5b602001015160f81c60f81b838380600101945081518110611cff57fe5b60200101906001600160f81b031916908160001a905350600101611ccd565b5060005b8651811015611d7357868181518110611d3757fe5b602001015160f81c60f81b838380600101945081518110611d5457fe5b60200101906001600160f81b031916908160001a905350600101611d22565b5060005b8551811015611dc857858181518110611d8c57fe5b602001015160f81c60f81b838380600101945081518110611da957fe5b60200101906001600160f81b031916908160001a905350600101611d77565b5060005b8451811015611e1d57848181518110611de157fe5b602001015160f81c60f81b838380600101945081518110611dfe57fe5b60200101906001600160f81b031916908160001a905350600101611dcc565b50909d9c50505050505050505050505050565b826001600160a01b0316611e4382610dd3565b6001600160a01b031614611e885760405162461bcd60e51b81526004018080602001828103825260298152602001806123ac6029913960400191505060405180910390fd5b6001600160a01b038216611ecd5760405162461bcd60e51b81526004018080602001828103825260248152602001806122a56024913960400191505060405180910390fd5b611ed6816120e0565b6001600160a01b0383166000908152601c60205260409020611ef79061211b565b6001600160a01b0382166000908152601c60205260409020611f1890612132565b6000818152601a602052604080822080546001600160a01b0319166001600160a01b0386811691821790925591518493918716917fddf252ad1be2c89b69c2b068fc378daa952ba7f163c4a11628f55a4df523b3ef91a4505050565b6001600160a01b0382166000908152601e6020526040812054611f9e90600163ffffffff61213b16565b6000838152601f6020526040902054909150808214612039576001600160a01b0384166000908152601e60205260408120805484908110611fdb57fe5b9060005260206000200154905080601e6000876001600160a01b03166001600160a01b03168152602001908152602001600020838154811061201957fe5b6000918252602080832090910192909255918252601f9052604090208190555b6001600160a01b0384166000908152601e6020526040902080549061206290600019830161220f565b5050505050565b6001600160a01b039091166000908152601e602081815260408084208054868652601f84529185208290559282526001810183559183529091200155565b6000813f7fc5d2460186f7233c927e7db2dcc703c0e500b653ca82273b7bfad8045d85a4708181148015906115c1575050151592915050565b6000818152601b60205260409020546001600160a01b031615611501576000908152601b6020526040902080546001600160a01b0319169055565b805461212e90600163ffffffff61213b16565b9055565b80546001019055565b600061175d83836040518060400160405280601e81526020017f536166654d6174683a207375627472616374696f6e206f766572666c6f770000815250600081848411156122075760405162461bcd60e51b81526004018080602001828103825283818151815260200191508051906020019080838360005b838110156121cc5781810151838201526020016121b4565b50505050905090810190601f1680156121f95780820380516001836020036101000a031916815260200191505b509250505060405180910390fd5b505050900390565b815481835581811115610bb157600083815260209020610bb19181019083016109d791905b808211156122485760008155600101612234565b509056fe4552433732313a207472616e7366657220746f206e6f6e20455243373231526563656976657220696d706c656d656e7465724f776e61626c653a206e6577206f776e657220697320746865207a65726f20616464726573734552433732313a207472616e7366657220746f20746865207a65726f20616464726573734552433732313a206f70657261746f7220717565727920666f72206e6f6e6578697374656e7420746f6b656e4552433732313a20617070726f76652063616c6c6572206973206e6f74206f776e6572206e6f7220617070726f76656420666f7220616c6c4552433732313a2062616c616e636520717565727920666f7220746865207a65726f20616464726573734552433732313a206f776e657220717565727920666f72206e6f6e6578697374656e7420746f6b656e4552433732313a20617070726f76656420717565727920666f72206e6f6e6578697374656e7420746f6b656e4552433732313a207472616e73666572206f6620746f6b656e2074686174206973206e6f74206f776e4552433732313a20617070726f76616c20746f2063757272656e74206f776e65724552433732313a207472616e736665722063616c6c6572206973206e6f74206f776e6572206e6f7220617070726f766564a265627a7a72305820afcb1e56dbade0b1373fa2e571b16c75942a96bec754fd3fa3af03824dccbec764736f6c63430005090032",
  "source": "pragma solidity ^0.5.0;\n\nimport \"./CryptozUniverse.sol\";\nimport \"../node_modules/@openzeppelin/contracts/token/ERC721/ERC721Enumerable.sol\";\nimport \"./Strings.sol\";\n\n/*\ninterface ERC165 {\n /// @notice Query if a contract implements an interface\n /// @param interfaceID The interface identifier, as\n ///  specified in ERC-165\n /// @dev Interface identification is specified in\n ///  ERC-165. This function uses less than 30,000 gas.\n /// @return `true` if the contract implements `interfaceID`\n ///  and `interfaceID` is not 0xffffffff, `false` otherwise\n function supportsInterface(bytes4 interfaceID) external view returns (bool);\n}\n*/\n\n/**\n * @title Full ERC721 Token\n * This implementation includes all the required and some optional functionality of the ERC721 standard\n * Moreover, it includes approve all functionality using operator terminology\n * @dev see https://github.com/ethereum/EIPs/blob/master/EIPS/eip-721.md\n */\ncontract CryptozCard is CryptozUniverse, ERC721Enumerable {\n    \n  // Token name\n  string internal name_ = \"Cryptoz Cards\";\n\n  // Token symbol\n  string internal symbol_ = \"Cryptoz\";\n\n  // Mapping from owner to list of owned token IDs\n  mapping(address => uint256[]) internal ownedTokens;\n\n  // Mapping from token ID to index of the owner tokens list\n  mapping(uint256 => uint256) internal ownedTokensIndex;\n\n  // Array with all token ids, used for enumeration\n  uint256[] internal allTokens;\n\n  // Mapping from token id to position in the allTokens array\n  mapping(uint256 => uint256) internal allTokensIndex;\n\n  // Optional mapping for token URIs\n  mapping(uint256 => string) internal tokenURIs;\n  \n  //Track all tokens by rarity\n  uint[7] public tokensByRarity = [0,0,0,0,0,0,0]; //[rarity] = total\n\n  /*CRYPTOZ Overrides*/\n\n  //Event Logs\n  event LogCardCreated(address indexed owner, uint indexed cardTokenId, uint editionNumber, uint indexed cardTypeId, uint8 rarity, uint CzxpGained);\n  event SacrificeCardEvent(address indexed owner, uint indexed cardTokenId, uint indexed cardTypeId, uint CzxpGained);\n\n  // Track ownership of Card Type purchases from store to enforce 1 type per person once\n  mapping (address => mapping(uint => bool)) public cardTypesOwned; //    [address][CardTypeId] = bool\n\n  /**\n   * @dev Gets the token name\n   * @return string representing the token name\n   */\n  function name() external view returns (string memory _name) {\n    return name_;\n  }\n\n  /**\n   * @dev Gets the token symbol\n   * @return string representing the token symbol\n   */\n  function symbol() external view returns (string memory _symbol) {\n    return symbol_;\n  }\n\n  /**\n   * @dev Returns an URI for a given token ID\n   * @dev Throws if the token ID does not exist. May return an empty string.\n   * @param _tokenId uint256 ID of the token to query\n   */\n  function tokenURI(uint256 _tokenId) external view returns (string memory) {\n    return Strings.strConcat(\n        baseTokenURI,\n        Strings.uint2str(_tokenId)\n    );\n  }\n\n  /**\n   * @dev Gets the token ID at a given index of the tokens list of the requested owner\n   * @param _owner address owning the tokens list to be accessed\n   * @param _index uint256 representing the index to be accessed of the requested tokens list\n   * @return uint256 token ID at the given index of the tokens list owned by the requested address\n   */\n  function tokenOfOwnerByIndex(\n    address _owner,\n    uint256 _index\n  )\n    public\n    view\n    returns (uint256)\n  {\n    require(_index < balanceOf(_owner));\n    return ownedTokens[_owner][_index];\n  }\n\n  /**\n   * @dev Gets the total amount of tokens stored by the contract\n   * @return uint256 representing the total amount of tokens\n   */\n  function totalSupply() public view returns (uint256) {\n    return allTokens.length;\n  }\n\n  /**\n   * @dev Gets the token ID at a given index of all the tokens in this contract\n   * @dev Reverts if the index is greater or equal to the total number of tokens\n   * @param _index uint256 representing the index to be accessed of the tokens list\n   * @return uint256 token ID at the given index of the tokens list\n   */\n  function tokenByIndex(uint256 _index) public view returns (uint256) {\n    require(_index < totalSupply());\n    return allTokens[_index];\n  }\n\n  /**\n   * @dev Internal function to set the token URI for a given token\n   * @dev Reverts if the token ID does not exist\n   * @param _tokenId uint256 ID of the token to set its URI\n   * @param _uri string URI to assign\n   */\n  function _setTokenURI(uint256 _tokenId, string memory _uri) internal {\n    require(_exists(_tokenId));\n    tokenURIs[_tokenId] = _uri;\n  }\n\n  /**\n   * @dev Internal function to mint a new token\n   * @dev Reverts if the given token ID already exists\n   * @param _to address the beneficiary that will own the minted token\n   * @param _tokenId uint256 ID of the token to be minted by the msg.sender\n   */\n  function _mint(address _to, uint256 _tokenId) internal {\n    super._mint(_to, _tokenId);\n\n    allTokensIndex[_tokenId] = allTokens.length;\n    allTokens.push(_tokenId);\n  }\n\n  /**\n   * @dev Internal function to burn a specific token\n   * @dev Reverts if the token does not exist\n   * @param _owner owner of the token to burn\n   * @param _tokenId uint256 ID of the token being burned by the msg.sender\n   */\n  function _burn(address _owner, uint256 _tokenId) internal {\n    \n    super._burn(_owner, _tokenId);\n\n    // Clear metadata (if any)\n    if (bytes(tokenURIs[_tokenId]).length != 0) {\n      delete tokenURIs[_tokenId];\n    }\n\n    // Reorg all tokens array\n    uint256 tokenIndex = allTokensIndex[_tokenId];\n    uint256 lastTokenIndex = allTokens.length.sub(1);\n    uint256 lastToken = allTokens[lastTokenIndex];\n\n    allTokens[tokenIndex] = lastToken;\n    allTokens[lastTokenIndex] = 0;\n\n    allTokens.length--;\n    allTokensIndex[_tokenId] = 0;\n    allTokensIndex[lastToken] = tokenIndex;\n\n    //track rarity totals\n    tokensByRarity[rarity[Cards[_tokenId].cardTypeId]] = tokensByRarity[rarity[Cards[_tokenId].cardTypeId]] - 1;\n\n    // Gain czxp for sacrificing card\n    uint256 sacrificeCzxp = allCardTypes[Cards[_tokenId].cardTypeId].sacrificeCzxp;\n    awardCzxp(msg.sender,sacrificeCzxp);\n    \n    emit SacrificeCardEvent(msg.sender, _tokenId, Cards[_tokenId].cardTypeId, sacrificeCzxp);\n\n    //remove from universe\n    delete Cards[_tokenId];\n  }\n\n    /*CRYPTOZ Overrides */\n\n    function _transferFrom(address from, address to, uint256 tokenId) internal {\n        super._transferFrom(from, to, tokenId);\n    }\n    \n    \n\n    /**\n     *  Public method to allow file transfer, we call our internal function\n     */\n    function transferFrom(address from, address to, uint256 tokenId) public {\n        require(_isApprovedOrOwner(msg.sender, tokenId));\n        \n        //Lets track the card transfers\n        //Cards[tokenId].transferCount.add(1);\n        Cards[tokenId].transferCount += 1;\n        \n        _transferFrom(from, to, tokenId);\n    }\n\n    /**\n    *   Create the Card for the owner\n    */\n    function _createCard(uint32 _cardTypeId, address _owner, uint czxpGained) internal returns (uint){\n        //make sure we have a definition for this card\n        require(allCardTypes[_cardTypeId].cardTypeId == _cardTypeId);\n\n        //Increment edition number\n        cardTypeToEdition[_cardTypeId] = cardTypeToEdition[_cardTypeId].add(1);\n\n        //Create the card!\n        Card memory _tempCard = Card({\n            cardTypeId:_cardTypeId,\n            editionNumber:cardTypeToEdition[_cardTypeId],\n            transferCount:0\n        });\n\n        //add to the universe and get the ID\n        uint256 _newCardId = Cards.push(_tempCard) - 1;\n\n        //Give the ERC721 Card\n        _mint(_owner,_newCardId);\n\n        //Set the Metadata for this new token\n        _setTokenURI(_newCardId, baseTokenURI);\n        \n        //track rarity\n        uint8 _temp_rarity = rarity[_cardTypeId];\n        tokensByRarity[_temp_rarity] = tokensByRarity[_temp_rarity] + 1;\n        \n        //Emit card created owner,tokenId,Edition of Token,Card type,czxp gained\n        emit LogCardCreated(_owner, _newCardId, cardTypeToEdition[_cardTypeId], _cardTypeId, rarity[_cardTypeId], czxpGained);\n        \n        return _newCardId;\n    }\n    \n\n    //Get a list of all the CardIDs( tokenIDs ) this user owns\n    function tokensOfOwner(address _owner) external view returns(uint256[] memory ownerTokens) {\n        return _tokensOfOwner(_owner);\n    /**\n        uint256 tokenCount = balanceOf(_owner);\n\n        if (tokenCount == 0) {\n            // Return an empty array\n            return new uint256[](0);\n        } else {\n            uint256[] memory result = new uint256[](tokenCount);\n            uint256 totalCards = totalSupply();\n            uint256 resultIndex = 0;\n\n            // We count on the fact that all cats have IDs starting at 1 and increasing\n            // sequentially up to the totalCard count.\n            uint256 cardId;\n\n            for (cardId = 1; cardId <= totalCards; cardId++) {\n                if (_tokenOwner[cardId] == _owner) {\n                    result[resultIndex] = cardId;\n                    resultIndex++;\n                }\n            }\n\n            return result;\n        }\n        **/\n    }\n    \n    //Get total tokens by rarity. diamond,platinum,epic,rare,uncommon,common\n    function getTokensByRarity() external view returns(uint,uint,uint,uint,uint,uint) {\n        return(tokensByRarity[1],tokensByRarity[2],tokensByRarity[3],tokensByRarity[4],tokensByRarity[5],tokensByRarity[6]);\n    }\n    \n    //Get the info about the card\n    function getOwnedCard(uint256 _tokenId) public view returns(uint32, uint, uint) {\n        require(_exists(_tokenId));\n        return (Cards[_tokenId].cardTypeId,Cards[_tokenId].editionNumber,Cards[_tokenId].transferCount);\n    }\n}\n",
  "sourcePath": "/home/rprice/Downloads/cryptoz.cards/contracts/CryptozCard.sol",
  "compiler": {
    "name": "solc",
    "version": "0.5.9+commit.e560f70d.Emscripten.clang"
  },
  "schemaVersion": "3.0.19",
  "updatedAt": "2020-10-24T21:40:23.934Z",
  "devdoc": {
    "details": "see https://github.com/ethereum/EIPs/blob/master/EIPS/eip-721.md",
    "methods": {
      "approve(address,uint256)": {
        "details": "Approves another address to transfer the given token ID The zero address indicates there is no approved address. There can only be one approved address per token at a given time. Can only be called by the token owner or an approved operator.",
        "params": {
          "to": "address to be approved for the given token ID",
          "tokenId": "uint256 ID of the token to be approved"
        }
      },
      "balanceOf(address)": {
        "details": "Gets the balance of the specified address.",
        "params": {
          "owner": "address to query the balance of"
        },
        "return": "uint256 representing the amount owned by the passed address"
      },
      "getApproved(uint256)": {
        "details": "Gets the approved address for a token ID, or zero if no address set Reverts if the token ID does not exist.",
        "params": {
          "tokenId": "uint256 ID of the token to query the approval of"
        },
        "return": "address currently approved for the given token ID"
      },
      "isApprovedForAll(address,address)": {
        "details": "Tells whether an operator is approved by a given owner.",
        "params": {
          "operator": "operator address which you want to query the approval of",
          "owner": "owner address which you want to query the approval of"
        },
        "return": "bool whether the given operator is approved by the given owner"
      },
      "isOwner()": {
        "details": "Returns true if the caller is the current owner."
      },
      "name()": {
        "details": "Gets the token name",
        "return": "string representing the token name"
      },
      "owner()": {
        "details": "Returns the address of the current owner."
      },
      "ownerOf(uint256)": {
        "details": "Gets the owner of the specified token ID.",
        "params": {
          "tokenId": "uint256 ID of the token to query the owner of"
        },
        "return": "address currently marked as the owner of the given token ID"
      },
      "renounceOwnership()": {
        "details": "Leaves the contract without owner. It will not be possible to call `onlyOwner` functions anymore. Can only be called by the current owner.     * NOTE: Renouncing ownership will leave the contract without an owner, thereby removing any functionality that is only available to the owner."
      },
      "safeTransferFrom(address,address,uint256)": {
        "details": "Safely transfers the ownership of a given token ID to another address If the target address is a contract, it must implement {IERC721Receiver-onERC721Received}, which is called upon a safe transfer, and return the magic value `bytes4(keccak256(\"onERC721Received(address,address,uint256,bytes)\"))`; otherwise, the transfer is reverted. Requires the msg.sender to be the owner, approved, or operator",
        "params": {
          "from": "current owner of the token",
          "to": "address to receive the ownership of the given token ID",
          "tokenId": "uint256 ID of the token to be transferred"
        }
      },
      "safeTransferFrom(address,address,uint256,bytes)": {
        "details": "Safely transfers the ownership of a given token ID to another address If the target address is a contract, it must implement {IERC721Receiver-onERC721Received}, which is called upon a safe transfer, and return the magic value `bytes4(keccak256(\"onERC721Received(address,address,uint256,bytes)\"))`; otherwise, the transfer is reverted. Requires the _msgSender() to be the owner, approved, or operator",
        "params": {
          "_data": "bytes data to send along with a safe transfer check",
          "from": "current owner of the token",
          "to": "address to receive the ownership of the given token ID",
          "tokenId": "uint256 ID of the token to be transferred"
        }
      },
      "setApprovalForAll(address,bool)": {
        "details": "Sets or unsets the approval of a given operator An operator is allowed to transfer all tokens of the sender on their behalf.",
        "params": {
          "approved": "representing the status of the approval to be set",
          "to": "operator address to set the approval"
        }
      },
      "supportsInterface(bytes4)": {
        "details": "See {IERC165-supportsInterface}.     * Time complexity O(1), guaranteed to always use less than 30 000 gas."
      },
      "symbol()": {
        "details": "Gets the token symbol",
        "return": "string representing the token symbol"
      },
      "tokenByIndex(uint256)": {
        "details": "Gets the token ID at a given index of all the tokens in this contractReverts if the index is greater or equal to the total number of tokens",
        "params": {
          "_index": "uint256 representing the index to be accessed of the tokens list"
        },
        "return": "uint256 token ID at the given index of the tokens list"
      },
      "tokenOfOwnerByIndex(address,uint256)": {
        "details": "Gets the token ID at a given index of the tokens list of the requested owner",
        "params": {
          "_index": "uint256 representing the index to be accessed of the requested tokens list",
          "_owner": "address owning the tokens list to be accessed"
        },
        "return": "uint256 token ID at the given index of the tokens list owned by the requested address"
      },
      "tokenURI(uint256)": {
        "details": "Returns an URI for a given token IDThrows if the token ID does not exist. May return an empty string.",
        "params": {
          "_tokenId": "uint256 ID of the token to query"
        }
      },
      "totalSupply()": {
        "details": "Gets the total amount of tokens stored by the contract",
        "return": "uint256 representing the total amount of tokens"
      },
      "transferOwnership(address)": {
        "details": "Transfers ownership of the contract to a new account (`newOwner`). Can only be called by the current owner."
      }
    },
    "title": "Full ERC721 Token This implementation includes all the required and some optional functionality of the ERC721 standard Moreover, it includes approve all functionality using operator terminology"
  },
  "userdoc": {
    "methods": {
      "transferFrom(address,address,uint256)": {
        "notice": "Public method to allow file transfer, we call our internal function"
      }
    }
  }
}