{
  "contractName": "CzxpToken",
  "abi": [
    {
      "constant": true,
      "inputs": [],
      "name": "name",
      "outputs": [
        {
          "name": "",
          "type": "string"
        }
      ],
      "payable": false,
      "stateMutability": "view",
      "type": "function"
    },
    {
      "constant": true,
      "inputs": [],
      "name": "TGEcomplete",
      "outputs": [
        {
          "name": "",
          "type": "bool"
        }
      ],
      "payable": false,
      "stateMutability": "view",
      "type": "function"
    },
    {
      "constant": false,
      "inputs": [
        {
          "name": "spender",
          "type": "address"
        },
        {
          "name": "amount",
          "type": "uint256"
        }
      ],
      "name": "approve",
      "outputs": [
        {
          "name": "",
          "type": "bool"
        }
      ],
      "payable": false,
      "stateMutability": "nonpayable",
      "type": "function"
    },
    {
      "constant": true,
      "inputs": [],
      "name": "totalSupply",
      "outputs": [
        {
          "name": "",
          "type": "uint256"
        }
      ],
      "payable": false,
      "stateMutability": "view",
      "type": "function"
    },
    {
      "constant": false,
      "inputs": [
        {
          "name": "sender",
          "type": "address"
        },
        {
          "name": "recipient",
          "type": "address"
        },
        {
          "name": "amount",
          "type": "uint256"
        }
      ],
      "name": "transferFrom",
      "outputs": [
        {
          "name": "",
          "type": "bool"
        }
      ],
      "payable": false,
      "stateMutability": "nonpayable",
      "type": "function"
    },
    {
      "constant": true,
      "inputs": [],
      "name": "decimals",
      "outputs": [
        {
          "name": "",
          "type": "uint8"
        }
      ],
      "payable": false,
      "stateMutability": "view",
      "type": "function"
    },
    {
      "constant": false,
      "inputs": [
        {
          "name": "spender",
          "type": "address"
        },
        {
          "name": "addedValue",
          "type": "uint256"
        }
      ],
      "name": "increaseAllowance",
      "outputs": [
        {
          "name": "",
          "type": "bool"
        }
      ],
      "payable": false,
      "stateMutability": "nonpayable",
      "type": "function"
    },
    {
      "constant": true,
      "inputs": [
        {
          "name": "account",
          "type": "address"
        }
      ],
      "name": "balanceOf",
      "outputs": [
        {
          "name": "",
          "type": "uint256"
        }
      ],
      "payable": false,
      "stateMutability": "view",
      "type": "function"
    },
    {
      "constant": false,
      "inputs": [],
      "name": "renounceOwnership",
      "outputs": [],
      "payable": false,
      "stateMutability": "nonpayable",
      "type": "function"
    },
    {
      "constant": true,
      "inputs": [],
      "name": "isTGE",
      "outputs": [
        {
          "name": "",
          "type": "bool"
        }
      ],
      "payable": false,
      "stateMutability": "view",
      "type": "function"
    },
    {
      "constant": true,
      "inputs": [],
      "name": "owner",
      "outputs": [
        {
          "name": "",
          "type": "address"
        }
      ],
      "payable": false,
      "stateMutability": "view",
      "type": "function"
    },
    {
      "constant": true,
      "inputs": [],
      "name": "isOwner",
      "outputs": [
        {
          "name": "",
          "type": "bool"
        }
      ],
      "payable": false,
      "stateMutability": "view",
      "type": "function"
    },
    {
      "constant": true,
      "inputs": [],
      "name": "symbol",
      "outputs": [
        {
          "name": "",
          "type": "string"
        }
      ],
      "payable": false,
      "stateMutability": "view",
      "type": "function"
    },
    {
      "constant": false,
      "inputs": [
        {
          "name": "spender",
          "type": "address"
        },
        {
          "name": "subtractedValue",
          "type": "uint256"
        }
      ],
      "name": "decreaseAllowance",
      "outputs": [
        {
          "name": "",
          "type": "bool"
        }
      ],
      "payable": false,
      "stateMutability": "nonpayable",
      "type": "function"
    },
    {
      "constant": false,
      "inputs": [
        {
          "name": "recipient",
          "type": "address"
        },
        {
          "name": "amount",
          "type": "uint256"
        }
      ],
      "name": "transfer",
      "outputs": [
        {
          "name": "",
          "type": "bool"
        }
      ],
      "payable": false,
      "stateMutability": "nonpayable",
      "type": "function"
    },
    {
      "constant": true,
      "inputs": [
        {
          "name": "",
          "type": "uint256"
        }
      ],
      "name": "lockedWallets",
      "outputs": [
        {
          "name": "",
          "type": "address"
        }
      ],
      "payable": false,
      "stateMutability": "view",
      "type": "function"
    },
    {
      "constant": true,
      "inputs": [
        {
          "name": "owner",
          "type": "address"
        },
        {
          "name": "spender",
          "type": "address"
        }
      ],
      "name": "allowance",
      "outputs": [
        {
          "name": "",
          "type": "uint256"
        }
      ],
      "payable": false,
      "stateMutability": "view",
      "type": "function"
    },
    {
      "constant": false,
      "inputs": [
        {
          "name": "newOwner",
          "type": "address"
        }
      ],
      "name": "transferOwnership",
      "outputs": [],
      "payable": false,
      "stateMutability": "nonpayable",
      "type": "function"
    },
    {
      "payable": true,
      "stateMutability": "payable",
      "type": "fallback"
    },
    {
      "anonymous": false,
      "inputs": [
        {
          "indexed": true,
          "name": "from",
          "type": "address"
        },
        {
          "indexed": true,
          "name": "to",
          "type": "address"
        },
        {
          "indexed": false,
          "name": "value",
          "type": "uint256"
        }
      ],
      "name": "Transfer",
      "type": "event"
    },
    {
      "anonymous": false,
      "inputs": [
        {
          "indexed": true,
          "name": "owner",
          "type": "address"
        },
        {
          "indexed": true,
          "name": "spender",
          "type": "address"
        },
        {
          "indexed": false,
          "name": "value",
          "type": "uint256"
        }
      ],
      "name": "Approval",
      "type": "event"
    },
    {
      "anonymous": false,
      "inputs": [
        {
          "indexed": true,
          "name": "previousOwner",
          "type": "address"
        },
        {
          "indexed": true,
          "name": "newOwner",
          "type": "address"
        }
      ],
      "name": "OwnershipTransferred",
      "type": "event"
    },
    {
      "constant": false,
      "inputs": [
        {
          "name": "_cryptozContract",
          "type": "address"
        }
      ],
      "name": "setCryptozContract",
      "outputs": [],
      "payable": false,
      "stateMutability": "nonpayable",
      "type": "function"
    },
    {
      "constant": true,
      "inputs": [],
      "name": "getCrypozContractAddress",
      "outputs": [
        {
          "name": "",
          "type": "address"
        }
      ],
      "payable": false,
      "stateMutability": "view",
      "type": "function"
    },
    {
      "constant": false,
      "inputs": [],
      "name": "flipTGE",
      "outputs": [
        {
          "name": "",
          "type": "bool"
        }
      ],
      "payable": false,
      "stateMutability": "nonpayable",
      "type": "function"
    },
    {
      "constant": false,
      "inputs": [
        {
          "name": "_to",
          "type": "address"
        },
        {
          "name": "_amount",
          "type": "uint256"
        }
      ],
      "name": "awardCzxp",
      "outputs": [],
      "payable": false,
      "stateMutability": "nonpayable",
      "type": "function"
    },
    {
      "constant": true,
      "inputs": [
        {
          "name": "_beneficiary",
          "type": "address"
        }
      ],
      "name": "getUserContribution",
      "outputs": [
        {
          "name": "",
          "type": "uint256"
        }
      ],
      "payable": false,
      "stateMutability": "view",
      "type": "function"
    },
    {
      "constant": false,
      "inputs": [],
      "name": "withdraw",
      "outputs": [
        {
          "name": "",
          "type": "bool"
        }
      ],
      "payable": false,
      "stateMutability": "nonpayable",
      "type": "function"
    }
  ],
  "bytecode": "0x61012060405273dd3d015d0a541244699d7776222443538557523c608090815273e701424800efedd679b60d9a49aaf9488547441d60a0527369cfabad3678789fe33d3beec5d4c759ec24595a60c05273bc95419d9d6f61dd718c73754b0b0afade11c70360e05273651e58d0fadcdc4f61e8c7e7a5d6559c6c372fd06101005262000090906004906005620001aa565b506040805180820190915260128082527f43727970746f7a20655850657269656e636500000000000000000000000000006020909201918252620000d79160069162000214565b506040805180820190915260048082527f435a58500000000000000000000000000000000000000000000000000000000060209092019182526200011e9160079162000214565b506008805460ff19169055600a805461ffff19169055670de0b6b3a7640000600b556000620001556001600160e01b03620001a516565b600080546001600160a01b0319166001600160a01b0383169081178255604051929350917f8be0079c531659141344cd1fd0a4f28419497f9722a3daafe3b4186f6b6457e0908290a350620002d9565b335b90565b82805482825590600052602060002090810192821562000202579160200282015b828111156200020257825182546001600160a01b0319166001600160a01b03909116178255602090920191600190910190620001cb565b506200021092915062000295565b5090565b828054600181600116156101000203166002900490600052602060002090601f016020900481019282601f106200025757805160ff191683800117855562000287565b8280016001018555821562000287579182015b82811115620002875782518255916020019190600101906200026a565b5062000210929150620002bc565b620001a791905b80821115620002105780546001600160a01b03191681556001016200029c565b620001a791905b80821115620002105760008155600101620002c3565b61138d80620002e96000396000f3fe60806040526004361061014b5760003560e01c8063715018a6116100b6578063a9059cbb1161006f578063a9059cbb14610569578063b0b79b55146105a2578063bb8b2b47146105b7578063c41570bd146105ea578063dd62ed3e14610614578063f2fde38b1461064f5761014b565b8063715018a6146104ab57806383eb7d29146104c05780638da5cb5b146104d55780638f32d59b1461050657806395d89b411461051b578063a457c2d7146105305761014b565b806323b872dd1161010857806323b872dd14610383578063313ce567146103c657806339509351146103f15780633ccfd60b1461042a57806360fa67671461043f57806370a08231146104785761014b565b806306fdde031461022657806307e8963c146102b0578063095ea7b3146102d9578063119ff9381461031257806311bfa6991461032757806318160ddd1461035c575b600a5460ff1661015a57600080fd5b3361016457600080fd5b6509184e72a00034101561017757600080fd5b600b5433600090815260096020526040902054111561019557600080fd5b600b5433600090815260096020526040812054909134909101106101ce5750600b543360009081526009602052604090205490036101d1565b50345b600081116101de57600080fd5b336000908152600960205260409020546101fe908263ffffffff61068216565b336000818152600960205260409020919091556102239061021e836106e3565b6106ef565b50005b34801561023257600080fd5b5061023b6107e1565b6040805160208082528351818301528351919283929083019185019080838360005b8381101561027557818101518382015260200161025d565b50505050905090810190601f1680156102a25780820380516001836020036101000a031916815260200191505b509250505060405180910390f35b3480156102bc57600080fd5b506102c561086f565b604080519115158252519081900360200190f35b3480156102e557600080fd5b506102c5600480360360408110156102fc57600080fd5b506001600160a01b03813516906020013561087d565b34801561031e57600080fd5b506102c561089a565b34801561033357600080fd5b5061035a6004803603602081101561034a57600080fd5b50356001600160a01b0316610932565b005b34801561036857600080fd5b506103716109ae565b60408051918252519081900360200190f35b34801561038f57600080fd5b506102c5600480360360608110156103a657600080fd5b506001600160a01b038135811691602081013590911690604001356109b4565b3480156103d257600080fd5b506103db610a41565b6040805160ff9092168252519081900360200190f35b3480156103fd57600080fd5b506102c56004803603604081101561041457600080fd5b506001600160a01b038135169060200135610a4a565b34801561043657600080fd5b506102c5610a9e565b34801561044b57600080fd5b5061035a6004803603604081101561046257600080fd5b506001600160a01b038135169060200135610b1c565b34801561048457600080fd5b506103716004803603602081101561049b57600080fd5b50356001600160a01b0316610b61565b3480156104b757600080fd5b5061035a610b7c565b3480156104cc57600080fd5b506102c5610c0d565b3480156104e157600080fd5b506104ea610c16565b604080516001600160a01b039092168252519081900360200190f35b34801561051257600080fd5b506102c5610c25565b34801561052757600080fd5b5061023b610c49565b34801561053c57600080fd5b506102c56004803603604081101561055357600080fd5b506001600160a01b038135169060200135610ca4565b34801561057557600080fd5b506102c56004803603604081101561058c57600080fd5b506001600160a01b038135169060200135610d12565b3480156105ae57600080fd5b506104ea610d26565b3480156105c357600080fd5b50610371600480360360208110156105da57600080fd5b50356001600160a01b0316610d35565b3480156105f657600080fd5b506104ea6004803603602081101561060d57600080fd5b5035610d50565b34801561062057600080fd5b506103716004803603604081101561063757600080fd5b506001600160a01b0381358116916020013516610d77565b34801561065b57600080fd5b5061035a6004803603602081101561067257600080fd5b50356001600160a01b0316610da2565b6000828201838110156106dc576040805162461bcd60e51b815260206004820152601b60248201527f536166654d6174683a206164646974696f6e206f766572666c6f770000000000604482015290519081900360640190fd5b9392505050565b6509184e72a000900490565b6001600160a01b03821661074a576040805162461bcd60e51b815260206004820152601f60248201527f45524332303a206d696e7420746f20746865207a65726f206164647265737300604482015290519081900360640190fd5b60035461075d908263ffffffff61068216565b6003556001600160a01b038216600090815260016020526040902054610789908263ffffffff61068216565b6001600160a01b03831660008181526001602090815260408083209490945583518581529351929391927fddf252ad1be2c89b69c2b068fc378daa952ba7f163c4a11628f55a4df523b3ef9281900390910190a35050565b6006805460408051602060026001851615610100026000190190941693909304601f810184900484028201840190925281815292918301828280156108675780601f1061083c57610100808354040283529160200191610867565b820191906000526020600020905b81548152906001019060200180831161084a57829003601f168201915b505050505081565b600a54610100900460ff1681565b600061089161088a610df5565b8484610df9565b50600192915050565b60006108a4610c25565b6108e3576040805162461bcd60e51b815260206004820181905260248201526000805160206112cb833981519152604482015290519081900360640190fd5b600a54610100900460ff16156108f857600080fd5b600a5460ff1661091c57600a805460ff19166001179055610917610ee5565b61092c565b600a805461ffff19166101001790555b50600190565b61093a610c25565b610979576040805162461bcd60e51b815260206004820181905260248201526000805160206112cb833981519152604482015290519081900360640190fd5b6001600160a01b03811661098c57600080fd5b600c80546001600160a01b0319166001600160a01b0392909216919091179055565b60035490565b60006109c1848484610f7c565b610a37846109cd610df5565b610a32856040518060600160405280602881526020016112a3602891396001600160a01b038a16600090815260026020526040812090610a0b610df5565b6001600160a01b03168152602081019190915260400160002054919063ffffffff6110da16565b610df9565b5060019392505050565b60085460ff1681565b6000610891610a57610df5565b84610a328560026000610a68610df5565b6001600160a01b03908116825260208083019390935260409182016000908120918c16815292529020549063ffffffff61068216565b6000610aa8610c25565b610ae7576040805162461bcd60e51b815260206004820181905260248201526000805160206112cb833981519152604482015290519081900360640190fd5b6040513390303180156108fc02916000818181858888f19350505050158015610b14573d6000803e3d6000fd5b506001905090565b600c546001600160a01b03163314610b3357600080fd5b6001600160a01b038216610b4657600080fd5b60008111610b5357600080fd5b610b5d82826106ef565b5050565b6001600160a01b031660009081526001602052604090205490565b610b84610c25565b610bc3576040805162461bcd60e51b815260206004820181905260248201526000805160206112cb833981519152604482015290519081900360640190fd5b600080546040516001600160a01b03909116907f8be0079c531659141344cd1fd0a4f28419497f9722a3daafe3b4186f6b6457e0908390a3600080546001600160a01b0319169055565b600a5460ff1681565b6000546001600160a01b031690565b600080546001600160a01b0316610c3a610df5565b6001600160a01b031614905090565b6007805460408051602060026001851615610100026000190190941693909304601f810184900484028201840190925281815292918301828280156108675780601f1061083c57610100808354040283529160200191610867565b6000610891610cb1610df5565b84610a32856040518060600160405280602581526020016113346025913960026000610cdb610df5565b6001600160a01b03908116825260208083019390935260409182016000908120918d1681529252902054919063ffffffff6110da16565b6000610891610d1f610df5565b8484610f7c565b600c546001600160a01b031690565b6001600160a01b031660009081526009602052604090205490565b60058181548110610d5d57fe5b6000918252602090912001546001600160a01b0316905081565b6001600160a01b03918216600090815260026020908152604080832093909416825291909152205490565b610daa610c25565b610de9576040805162461bcd60e51b815260206004820181905260248201526000805160206112cb833981519152604482015290519081900360640190fd5b610df281611171565b50565b3390565b6001600160a01b038316610e3e5760405162461bcd60e51b81526004018080602001828103825260248152602001806113106024913960400191505060405180910390fd5b6001600160a01b038216610e835760405162461bcd60e51b815260040180806020018281038252602281526020018061125b6022913960400191505060405180910390fd5b6001600160a01b03808416600081815260026020908152604080832094871680845294825291829020859055815185815291517f8c5be1e5ebec7d5bd14f71427d1e84f3dd0314c0f7b2291e5b200ac8c7c3b9259281900390910190a3505050565b600a5460ff16610ef457600080fd5b60005b60045460ff82161015610df257600b546009600060048460ff1681548110610f1b57fe5b60009182526020808320909101546001600160a01b0316835282019290925260400190205560048054610f74919060ff8416908110610f5657fe5b6000918252602090912001546001600160a01b0316620186a06106ef565b600101610ef7565b6001600160a01b038316610fc15760405162461bcd60e51b81526004018080602001828103825260258152602001806112eb6025913960400191505060405180910390fd5b6001600160a01b0382166110065760405162461bcd60e51b81526004018080602001828103825260238152602001806112126023913960400191505060405180910390fd5b6110498160405180606001604052806026815260200161127d602691396001600160a01b038616600090815260016020526040902054919063ffffffff6110da16565b6001600160a01b03808516600090815260016020526040808220939093559084168152205461107e908263ffffffff61068216565b6001600160a01b0380841660008181526001602090815260409182902094909455805185815290519193928716927fddf252ad1be2c89b69c2b068fc378daa952ba7f163c4a11628f55a4df523b3ef92918290030190a3505050565b600081848411156111695760405162461bcd60e51b81526004018080602001828103825283818151815260200191508051906020019080838360005b8381101561112e578181015183820152602001611116565b50505050905090810190601f16801561115b5780820380516001836020036101000a031916815260200191505b509250505060405180910390fd5b505050900390565b6001600160a01b0381166111b65760405162461bcd60e51b81526004018080602001828103825260268152602001806112356026913960400191505060405180910390fd5b600080546040516001600160a01b03808516939216917f8be0079c531659141344cd1fd0a4f28419497f9722a3daafe3b4186f6b6457e091a3600080546001600160a01b0319166001600160a01b039290921691909117905556fe45524332303a207472616e7366657220746f20746865207a65726f20616464726573734f776e61626c653a206e6577206f776e657220697320746865207a65726f206164647265737345524332303a20617070726f766520746f20746865207a65726f206164647265737345524332303a207472616e7366657220616d6f756e7420657863656564732062616c616e636545524332303a207472616e7366657220616d6f756e74206578636565647320616c6c6f77616e63654f776e61626c653a2063616c6c6572206973206e6f7420746865206f776e657245524332303a207472616e736665722066726f6d20746865207a65726f206164647265737345524332303a20617070726f76652066726f6d20746865207a65726f206164647265737345524332303a2064656372656173656420616c6c6f77616e63652062656c6f77207a65726fa265627a7a72305820444b213d3bd4455a60ecaae52f9f00b2ffc7256e878da92f65b70bd97f59ab3864736f6c63430005090032",
  "source": "pragma solidity ^0.5.0;\n\n/******************************************\n\nOur Matra our Motto for coding The Cryptoz Universe.\n\n      Fail EARLY and Fail LOUD !!!!!!!\n\n1.    First - Check all pre-conditions\n2.    Then  - make changes to contract state\n3.    Final - interact with other contracts\n\nPull funds over pushing them\nPlatform limits like max of 1023 loop interations.\n\nall Events start with Log\n\n******************************************/\n\nimport \"../node_modules/@openzeppelin/contracts/ownership/Ownable.sol\";\nimport \"../node_modules/@openzeppelin/contracts/token/ERC20/ERC20.sol\";\n\ncontract CzxpToken is Ownable,ERC20 {\n\n//1. Condition\n//2. Effects\n//3.Interaction\n    \n    /*\n    * We accept payment for the token generation event only\n    * Rules:\n    *   Founders-pre:         500000\n    *   Airdrop-max :        1000000\n    *   TGE - max   :        5000000\n    *   start is    :  March 31,2018\n    *   end is      : April 21, 2018\n    *   min         :     0.0001 ETH\n    *   max         :          1 ETH\n    *   max wallets :             50\n    */\n\n\n\n// Advisor+team wallets = 7\n    address[] advisors = [0xdd3D015D0a541244699d7776222443538557523c,\n         0xE701424800EFeDD679B60D9A49aaf9488547441D,\n         0x69cfAbaD3678789FE33d3BEEc5d4c759Ec24595A,\n         0xBc95419D9D6f61dd718c73754B0B0aFAde11c703,\n         0x651E58D0fADcdc4f61E8C7e7a5D6559c6c372FD0\n    ];\n    address[] public lockedWallets;\n\n// Public variables of the token\n    string public name          = \"Cryptoz eXPerience\";\n    string public symbol        = \"CZXP\";\n    uint8  public decimals       = 0;\n    \n//Storage\n    // ??????\n    //mapping (address => mapping (address => uint256)) public allowance;\n    \n    // Owner of account approves the transfer of an amount to another account\n    //mapping(address => mapping (address => uint256)) allowed;\n    \n    //supporters\n    mapping (address => uint256) contributions;    // ETH contributed per address\n\n\n//TGE restrictions\n    //Token Generation event\n    bool public isTGE = false;\n    bool public TGEcomplete = false;\n    uint256 maxCap = 1000000000000000000;\n    \n//Our external cryptozContract\n    address private cryptozContract;\n    \n    modifier checkTGE(){\n        require(isTGE);\n        _;\n    }\n    \n    modifier onlyAuthorizedContract(){\n        require(msg.sender == cryptozContract);\n        _;\n    }\n\n    \n    function setCryptozContract(address _cryptozContract) public onlyOwner{\n        require(_cryptozContract != address(0x0));\n        cryptozContract = _cryptozContract;\n    }\n    \n    function getCrypozContractAddress() public view returns(address){\n        return cryptozContract;\n    }\n\n    /*\n    *   Make sure we accept payment only during TGE\n    */\n    function() payable checkTGE external {\n        require(msg.sender != address(0));\n        //We dont offer less than 1 czxp\n        require(msg.value >= 0.00001 ether);\n        \n        //Check contributor is under the cap\n        require(contributions[msg.sender] <= maxCap);\n        \n        //if contribution+balance is >= cap, refund the difference\n        uint allowedContribution = 0;\n        if((msg.value+contributions[msg.sender]) >= maxCap){\n            uint refund = (msg.value + contributions[msg.sender]) - maxCap;\n            allowedContribution = maxCap - contributions[msg.sender];\n        //msg.sender.transfer(refund); // IS this safe ????\n            refund = 0;//just in case\n        }else{\n            allowedContribution = msg.value;\n        }\n        \n        //sanity ??\n        require(allowedContribution > 0);\n        \n        //Finally increment the contributor\n        contributions[msg.sender] = contributions[msg.sender].add(allowedContribution);\n        \n        //all good ?  give tokens\n        _mint(msg.sender, convertWeiToCZXP(allowedContribution));\n    }\n    \n    /**\n     *  One time event to give token allocations to our advisors ONCE when TGE is activated\n     */\n     \n    function mintAdvisorTokens() internal checkTGE {\n        \n        \n        //100K to each advisor, update to maxed out\n        for(uint8 i=0; i < advisors.length; i++){\n            contributions[advisors[i]] = maxCap;\n            _mint(advisors[i], 100000);\n        }\n    }\n    \n    /**\n     *  Turn on TGE and then lock it forever when turned off\n     */\n     \n    function flipTGE() public onlyOwner returns(bool) {\n        require(!TGEcomplete);\n        \n        if(!isTGE){\n            isTGE = true;\n            mintAdvisorTokens();\n        }else{\n            isTGE = false;\n            TGEcomplete = true;\n        }\n        return true;\n    }\n    \n   \n   /**\n    * Our base conversion rate for the TGE\n    */\n    function convertWeiToCZXP(uint weiToConvert) pure internal returns (uint) {\n        // 1 czxp = 10000000000000 wei;\n        return weiToConvert/10000000000000;\n    }\n    \n    /**\n     *  Called in from our ERC721 contract actions\n     *\n     */\n     function awardCzxp(address _to, uint256 _amount) public onlyAuthorizedContract {\n         require(_to != address(0));\n         require(_amount > 0);\n         \n         _mint(_to, _amount);\n     }\n    \n    /**\n    * @dev Returns the amount contributed so far by a sepecific user.\n    * @param _beneficiary Address of contributor\n    * @return User contribution so far\n    */\n    function getUserContribution(address _beneficiary) public view returns (uint256) {\n        return contributions[_beneficiary];\n    }\n    \n       \n   /**\n    * Withdraw balance to wallet\n    */\n   function withdraw() public onlyOwner returns(bool) {\n      msg.sender.transfer(address(this).balance);\n      return true;\n   }\n\n}",
  "sourcePath": "/home/rprice/Downloads/cryptoz.cards/contracts/CZXPToken.sol",
  "compiler": {
    "name": "solc",
    "version": "0.5.9+commit.e560f70d.Emscripten.clang"
  },
  "schemaVersion": "3.0.19",
  "updatedAt": "2020-11-21T04:04:57.276Z",
  "networkType": "ethereum",
  "devdoc": {
    "methods": {
      "allowance(address,address)": {
        "details": "See {IERC20-allowance}."
      },
      "approve(address,uint256)": {
        "details": "See {IERC20-approve}.     * Requirements:     * - `spender` cannot be the zero address."
      },
      "balanceOf(address)": {
        "details": "See {IERC20-balanceOf}."
      },
      "decreaseAllowance(address,uint256)": {
        "details": "Atomically decreases the allowance granted to `spender` by the caller.     * This is an alternative to {approve} that can be used as a mitigation for problems described in {IERC20-approve}.     * Emits an {Approval} event indicating the updated allowance.     * Requirements:     * - `spender` cannot be the zero address. - `spender` must have allowance for the caller of at least `subtractedValue`."
      },
      "getUserContribution(address)": {
        "details": "Returns the amount contributed so far by a sepecific user.",
        "params": {
          "_beneficiary": "Address of contributor"
        },
        "return": "User contribution so far"
      },
      "increaseAllowance(address,uint256)": {
        "details": "Atomically increases the allowance granted to `spender` by the caller.     * This is an alternative to {approve} that can be used as a mitigation for problems described in {IERC20-approve}.     * Emits an {Approval} event indicating the updated allowance.     * Requirements:     * - `spender` cannot be the zero address."
      },
      "isOwner()": {
        "details": "Returns true if the caller is the current owner."
      },
      "owner()": {
        "details": "Returns the address of the current owner."
      },
      "renounceOwnership()": {
        "details": "Leaves the contract without owner. It will not be possible to call `onlyOwner` functions anymore. Can only be called by the current owner.     * NOTE: Renouncing ownership will leave the contract without an owner, thereby removing any functionality that is only available to the owner."
      },
      "totalSupply()": {
        "details": "See {IERC20-totalSupply}."
      },
      "transfer(address,uint256)": {
        "details": "See {IERC20-transfer}.     * Requirements:     * - `recipient` cannot be the zero address. - the caller must have a balance of at least `amount`."
      },
      "transferFrom(address,address,uint256)": {
        "details": "See {IERC20-transferFrom}.     * Emits an {Approval} event indicating the updated allowance. This is not required by the EIP. See the note at the beginning of {ERC20};     * Requirements: - `sender` and `recipient` cannot be the zero address. - `sender` must have a balance of at least `amount`. - the caller must have allowance for `sender`'s tokens of at least `amount`."
      },
      "transferOwnership(address)": {
        "details": "Transfers ownership of the contract to a new account (`newOwner`). Can only be called by the current owner."
      }
    }
  },
  "userdoc": {
    "methods": {
      "awardCzxp(address,uint256)": {
        "notice": "Called in from our ERC721 contract actions     "
      },
      "flipTGE()": {
        "notice": "Turn on TGE and then lock it forever when turned off"
      },
      "withdraw()": {
        "notice": "Withdraw balance to wallet"
      }
    }
  }
}