{
  "contractName": "CzxpToken",
  "abi": [
    {
      "constant": true,
      "inputs": [],
      "name": "name",
      "outputs": [
        {
          "name": "",
          "type": "string"
        }
      ],
      "payable": false,
      "stateMutability": "view",
      "type": "function"
    },
    {
      "constant": true,
      "inputs": [],
      "name": "TGEcomplete",
      "outputs": [
        {
          "name": "",
          "type": "bool"
        }
      ],
      "payable": false,
      "stateMutability": "view",
      "type": "function"
    },
    {
      "constant": false,
      "inputs": [
        {
          "name": "spender",
          "type": "address"
        },
        {
          "name": "value",
          "type": "uint256"
        }
      ],
      "name": "approve",
      "outputs": [
        {
          "name": "",
          "type": "bool"
        }
      ],
      "payable": false,
      "stateMutability": "nonpayable",
      "type": "function"
    },
    {
      "constant": true,
      "inputs": [],
      "name": "totalSupply",
      "outputs": [
        {
          "name": "",
          "type": "uint256"
        }
      ],
      "payable": false,
      "stateMutability": "view",
      "type": "function"
    },
    {
      "constant": false,
      "inputs": [
        {
          "name": "from",
          "type": "address"
        },
        {
          "name": "to",
          "type": "address"
        },
        {
          "name": "value",
          "type": "uint256"
        }
      ],
      "name": "transferFrom",
      "outputs": [
        {
          "name": "",
          "type": "bool"
        }
      ],
      "payable": false,
      "stateMutability": "nonpayable",
      "type": "function"
    },
    {
      "constant": true,
      "inputs": [],
      "name": "decimals",
      "outputs": [
        {
          "name": "",
          "type": "uint8"
        }
      ],
      "payable": false,
      "stateMutability": "view",
      "type": "function"
    },
    {
      "constant": false,
      "inputs": [
        {
          "name": "spender",
          "type": "address"
        },
        {
          "name": "addedValue",
          "type": "uint256"
        }
      ],
      "name": "increaseAllowance",
      "outputs": [
        {
          "name": "",
          "type": "bool"
        }
      ],
      "payable": false,
      "stateMutability": "nonpayable",
      "type": "function"
    },
    {
      "constant": true,
      "inputs": [
        {
          "name": "owner",
          "type": "address"
        }
      ],
      "name": "balanceOf",
      "outputs": [
        {
          "name": "",
          "type": "uint256"
        }
      ],
      "payable": false,
      "stateMutability": "view",
      "type": "function"
    },
    {
      "constant": false,
      "inputs": [],
      "name": "renounceOwnership",
      "outputs": [],
      "payable": false,
      "stateMutability": "nonpayable",
      "type": "function"
    },
    {
      "constant": true,
      "inputs": [],
      "name": "isTGE",
      "outputs": [
        {
          "name": "",
          "type": "bool"
        }
      ],
      "payable": false,
      "stateMutability": "view",
      "type": "function"
    },
    {
      "constant": true,
      "inputs": [],
      "name": "owner",
      "outputs": [
        {
          "name": "",
          "type": "address"
        }
      ],
      "payable": false,
      "stateMutability": "view",
      "type": "function"
    },
    {
      "constant": true,
      "inputs": [],
      "name": "isOwner",
      "outputs": [
        {
          "name": "",
          "type": "bool"
        }
      ],
      "payable": false,
      "stateMutability": "view",
      "type": "function"
    },
    {
      "constant": true,
      "inputs": [],
      "name": "symbol",
      "outputs": [
        {
          "name": "",
          "type": "string"
        }
      ],
      "payable": false,
      "stateMutability": "view",
      "type": "function"
    },
    {
      "constant": false,
      "inputs": [
        {
          "name": "spender",
          "type": "address"
        },
        {
          "name": "subtractedValue",
          "type": "uint256"
        }
      ],
      "name": "decreaseAllowance",
      "outputs": [
        {
          "name": "",
          "type": "bool"
        }
      ],
      "payable": false,
      "stateMutability": "nonpayable",
      "type": "function"
    },
    {
      "constant": false,
      "inputs": [
        {
          "name": "to",
          "type": "address"
        },
        {
          "name": "value",
          "type": "uint256"
        }
      ],
      "name": "transfer",
      "outputs": [
        {
          "name": "",
          "type": "bool"
        }
      ],
      "payable": false,
      "stateMutability": "nonpayable",
      "type": "function"
    },
    {
      "constant": true,
      "inputs": [
        {
          "name": "",
          "type": "uint256"
        }
      ],
      "name": "lockedWallets",
      "outputs": [
        {
          "name": "",
          "type": "address"
        }
      ],
      "payable": false,
      "stateMutability": "view",
      "type": "function"
    },
    {
      "constant": true,
      "inputs": [
        {
          "name": "owner",
          "type": "address"
        },
        {
          "name": "spender",
          "type": "address"
        }
      ],
      "name": "allowance",
      "outputs": [
        {
          "name": "",
          "type": "uint256"
        }
      ],
      "payable": false,
      "stateMutability": "view",
      "type": "function"
    },
    {
      "constant": false,
      "inputs": [
        {
          "name": "newOwner",
          "type": "address"
        }
      ],
      "name": "transferOwnership",
      "outputs": [],
      "payable": false,
      "stateMutability": "nonpayable",
      "type": "function"
    },
    {
      "payable": true,
      "stateMutability": "payable",
      "type": "fallback"
    },
    {
      "anonymous": false,
      "inputs": [
        {
          "indexed": true,
          "name": "from",
          "type": "address"
        },
        {
          "indexed": true,
          "name": "to",
          "type": "address"
        },
        {
          "indexed": false,
          "name": "value",
          "type": "uint256"
        }
      ],
      "name": "Transfer",
      "type": "event"
    },
    {
      "anonymous": false,
      "inputs": [
        {
          "indexed": true,
          "name": "owner",
          "type": "address"
        },
        {
          "indexed": true,
          "name": "spender",
          "type": "address"
        },
        {
          "indexed": false,
          "name": "value",
          "type": "uint256"
        }
      ],
      "name": "Approval",
      "type": "event"
    },
    {
      "anonymous": false,
      "inputs": [
        {
          "indexed": true,
          "name": "previousOwner",
          "type": "address"
        },
        {
          "indexed": true,
          "name": "newOwner",
          "type": "address"
        }
      ],
      "name": "OwnershipTransferred",
      "type": "event"
    },
    {
      "constant": false,
      "inputs": [
        {
          "name": "_cryptozContract",
          "type": "address"
        }
      ],
      "name": "setCryptozContract",
      "outputs": [],
      "payable": false,
      "stateMutability": "nonpayable",
      "type": "function"
    },
    {
      "constant": true,
      "inputs": [],
      "name": "getCrypozContractAddress",
      "outputs": [
        {
          "name": "",
          "type": "address"
        }
      ],
      "payable": false,
      "stateMutability": "view",
      "type": "function"
    },
    {
      "constant": false,
      "inputs": [],
      "name": "flipTGE",
      "outputs": [
        {
          "name": "",
          "type": "bool"
        }
      ],
      "payable": false,
      "stateMutability": "nonpayable",
      "type": "function"
    },
    {
      "constant": false,
      "inputs": [
        {
          "name": "_to",
          "type": "address"
        },
        {
          "name": "_amount",
          "type": "uint256"
        }
      ],
      "name": "awardCzxp",
      "outputs": [],
      "payable": false,
      "stateMutability": "nonpayable",
      "type": "function"
    },
    {
      "constant": true,
      "inputs": [
        {
          "name": "_beneficiary",
          "type": "address"
        }
      ],
      "name": "getUserContribution",
      "outputs": [
        {
          "name": "",
          "type": "uint256"
        }
      ],
      "payable": false,
      "stateMutability": "view",
      "type": "function"
    },
    {
      "constant": false,
      "inputs": [],
      "name": "withdraw",
      "outputs": [],
      "payable": false,
      "stateMutability": "nonpayable",
      "type": "function"
    },
    {
      "constant": false,
      "inputs": [],
      "name": "killSwitch",
      "outputs": [],
      "payable": false,
      "stateMutability": "nonpayable",
      "type": "function"
    }
  ],
  "bytecode": "0x6080604052604051806060016040528073ca35b7d915458ef540ade6068dfe2f44e8fa733c73ffffffffffffffffffffffffffffffffffffffff1673ffffffffffffffffffffffffffffffffffffffff1681526020017314723a09acff6d2a60dcdf7aa4aff308fddc160c73ffffffffffffffffffffffffffffffffffffffff1673ffffffffffffffffffffffffffffffffffffffff16815260200173583031d1113ad414f02576bd6afabfb30214022573ffffffffffffffffffffffffffffffffffffffff1673ffffffffffffffffffffffffffffffffffffffff168152506004906003620000f1929190620002ae565b506040518060400160405280601281526020017f43727970746f7a20655850657269656e63650000000000000000000000000000815250600690805190602001906200013f9291906200033d565b506040518060400160405280600481526020017f435a585000000000000000000000000000000000000000000000000000000000815250600790805190602001906200018d9291906200033d565b506000600860006101000a81548160ff021916908360ff1602179055506000600b60006101000a81548160ff0219169083151502179055506000600b60016101000a81548160ff021916908315150217905550670de0b6b3a7640000600c55336000806101000a81548173ffffffffffffffffffffffffffffffffffffffff021916908373ffffffffffffffffffffffffffffffffffffffff1602179055506000809054906101000a900473ffffffffffffffffffffffffffffffffffffffff1673ffffffffffffffffffffffffffffffffffffffff16600073ffffffffffffffffffffffffffffffffffffffff167f8be0079c531659141344cd1fd0a4f28419497f9722a3daafe3b4186f6b6457e060405160405180910390a362000432565b8280548282559060005260206000209081019282156200032a579160200282015b82811115620003295782518260006101000a81548173ffffffffffffffffffffffffffffffffffffffff021916908373ffffffffffffffffffffffffffffffffffffffff16021790555091602001919060010190620002cf565b5b509050620003399190620003c4565b5090565b828054600181600116156101000203166002900490600052602060002090601f016020900481019282601f106200038057805160ff1916838001178555620003b1565b82800160010185558215620003b1579182015b82811115620003b057825182559160200191906001019062000393565b5b509050620003c091906200040a565b5090565b6200040791905b808211156200040357600081816101000a81549073ffffffffffffffffffffffffffffffffffffffff021916905550600101620003cb565b5090565b90565b6200042f91905b808211156200042b57600081600090555060010162000411565b5090565b90565b611c7680620004426000396000f3fe6080604052600436106101665760003560e01c8063715018a6116100d1578063a9059cbb1161008a578063bb8b2b4711610064578063bb8b2b4714610aa0578063c41570bd14610b05578063dd62ed3e14610b80578063f2fde38b14610c0557610166565b8063a9059cbb146109bf578063ada1469814610a32578063b0b79b5514610a4957610166565b8063715018a6146107f057806383eb7d29146108075780638da5cb5b146108365780638f32d59b1461088d57806395d89b41146108bc578063a457c2d71461094c57610166565b806323b872dd1161012357806323b872dd146105e2578063313ce5671461067557806339509351146106a65780633ccfd60b1461071957806360fa67671461073057806370a082311461078b57610166565b806306fdde031461040557806307e8963c14610495578063095ea7b3146104c4578063119ff9381461053757806311bfa6991461056657806318160ddd146105b7575b600b60009054906101000a900460ff1661017f57600080fd5b600073ffffffffffffffffffffffffffffffffffffffff163373ffffffffffffffffffffffffffffffffffffffff1614156101b957600080fd5b6509184e72a0003410156101cc57600080fd5b600c54600a60003373ffffffffffffffffffffffffffffffffffffffff1673ffffffffffffffffffffffffffffffffffffffff16815260200190815260200160002054111561021a57600080fd5b6000809050600c54600a60003373ffffffffffffffffffffffffffffffffffffffff1673ffffffffffffffffffffffffffffffffffffffff1681526020019081526020016000205434011061034a576000600c54600a60003373ffffffffffffffffffffffffffffffffffffffff1673ffffffffffffffffffffffffffffffffffffffff168152602001908152602001600020543401039050600a60003373ffffffffffffffffffffffffffffffffffffffff1673ffffffffffffffffffffffffffffffffffffffff16815260200190815260200160002054600c540391503373ffffffffffffffffffffffffffffffffffffffff166108fc829081150290604051600060405180830381858888f1935050505015801561033f573d6000803e3d6000fd5b50600090505061034e565b3490505b6000811161035b57600080fd5b6103ad81600a60003373ffffffffffffffffffffffffffffffffffffffff1673ffffffffffffffffffffffffffffffffffffffff16815260200190815260200160002054610c5690919063ffffffff16565b600a60003373ffffffffffffffffffffffffffffffffffffffff1673ffffffffffffffffffffffffffffffffffffffff16815260200190815260200160002081905550610402336103fd83610c75565b610c8e565b50005b34801561041157600080fd5b5061041a610de2565b6040518080602001828103825283818151815260200191508051906020019080838360005b8381101561045a57808201518184015260208101905061043f565b50505050905090810190601f1680156104875780820380516001836020036101000a031916815260200191505b509250505060405180910390f35b3480156104a157600080fd5b506104aa610e80565b604051808215151515815260200191505060405180910390f35b3480156104d057600080fd5b5061051d600480360360408110156104e757600080fd5b81019080803573ffffffffffffffffffffffffffffffffffffffff16906020019092919080359060200190929190505050610e93565b604051808215151515815260200191505060405180910390f35b34801561054357600080fd5b5061054c610eaa565b604051808215151515815260200191505060405180910390f35b34801561057257600080fd5b506105b56004803603602081101561058957600080fd5b81019080803573ffffffffffffffffffffffffffffffffffffffff169060200190929190505050610f51565b005b3480156105c357600080fd5b506105cc610fe0565b6040518082815260200191505060405180910390f35b3480156105ee57600080fd5b5061065b6004803603606081101561060557600080fd5b81019080803573ffffffffffffffffffffffffffffffffffffffff169060200190929190803573ffffffffffffffffffffffffffffffffffffffff16906020019092919080359060200190929190505050610fea565b604051808215151515815260200191505060405180910390f35b34801561068157600080fd5b5061068a61109b565b604051808260ff1660ff16815260200191505060405180910390f35b3480156106b257600080fd5b506106ff600480360360408110156106c957600080fd5b81019080803573ffffffffffffffffffffffffffffffffffffffff169060200190929190803590602001909291905050506110ae565b604051808215151515815260200191505060405180910390f35b34801561072557600080fd5b5061072e611153565b005b34801561073c57600080fd5b506107896004803603604081101561075357600080fd5b81019080803573ffffffffffffffffffffffffffffffffffffffff169060200190929190803590602001909291905050506111c4565b005b34801561079757600080fd5b506107da600480360360208110156107ae57600080fd5b81019080803573ffffffffffffffffffffffffffffffffffffffff169060200190929190505050611273565b6040518082815260200191505060405180910390f35b3480156107fc57600080fd5b506108056112bc565b005b34801561081357600080fd5b5061081c61138c565b604051808215151515815260200191505060405180910390f35b34801561084257600080fd5b5061084b61139f565b604051808273ffffffffffffffffffffffffffffffffffffffff1673ffffffffffffffffffffffffffffffffffffffff16815260200191505060405180910390f35b34801561089957600080fd5b506108a26113c8565b604051808215151515815260200191505060405180910390f35b3480156108c857600080fd5b506108d161141f565b6040518080602001828103825283818151815260200191508051906020019080838360005b838110156109115780820151818401526020810190506108f6565b50505050905090810190601f16801561093e5780820380516001836020036101000a031916815260200191505b509250505060405180910390f35b34801561095857600080fd5b506109a56004803603604081101561096f57600080fd5b81019080803573ffffffffffffffffffffffffffffffffffffffff169060200190929190803590602001909291905050506114bd565b604051808215151515815260200191505060405180910390f35b3480156109cb57600080fd5b50610a18600480360360408110156109e257600080fd5b81019080803573ffffffffffffffffffffffffffffffffffffffff16906020019092919080359060200190929190505050611562565b604051808215151515815260200191505060405180910390f35b348015610a3e57600080fd5b50610a47611579565b005b348015610a5557600080fd5b50610a5e6115a3565b604051808273ffffffffffffffffffffffffffffffffffffffff1673ffffffffffffffffffffffffffffffffffffffff16815260200191505060405180910390f35b348015610aac57600080fd5b50610aef60048036036020811015610ac357600080fd5b81019080803573ffffffffffffffffffffffffffffffffffffffff1690602001909291905050506115cd565b6040518082815260200191505060405180910390f35b348015610b1157600080fd5b50610b3e60048036036020811015610b2857600080fd5b8101908080359060200190929190505050611616565b604051808273ffffffffffffffffffffffffffffffffffffffff1673ffffffffffffffffffffffffffffffffffffffff16815260200191505060405180910390f35b348015610b8c57600080fd5b50610bef60048036036040811015610ba357600080fd5b81019080803573ffffffffffffffffffffffffffffffffffffffff169060200190929190803573ffffffffffffffffffffffffffffffffffffffff169060200190929190505050611652565b6040518082815260200191505060405180910390f35b348015610c1157600080fd5b50610c5460048036036020811015610c2857600080fd5b81019080803573ffffffffffffffffffffffffffffffffffffffff1690602001909291905050506116d9565b005b600080828401905083811015610c6b57600080fd5b8091505092915050565b60006509184e72a0008281610c8657fe5b049050919050565b600073ffffffffffffffffffffffffffffffffffffffff168273ffffffffffffffffffffffffffffffffffffffff161415610cc857600080fd5b610cdd81600354610c5690919063ffffffff16565b600381905550610d3581600160008573ffffffffffffffffffffffffffffffffffffffff1673ffffffffffffffffffffffffffffffffffffffff16815260200190815260200160002054610c5690919063ffffffff16565b600160008473ffffffffffffffffffffffffffffffffffffffff1673ffffffffffffffffffffffffffffffffffffffff168152602001908152602001600020819055508173ffffffffffffffffffffffffffffffffffffffff16600073ffffffffffffffffffffffffffffffffffffffff167fddf252ad1be2c89b69c2b068fc378daa952ba7f163c4a11628f55a4df523b3ef836040518082815260200191505060405180910390a35050565b60068054600181600116156101000203166002900480601f016020809104026020016040519081016040528092919081815260200182805460018160011615610100020316600290048015610e785780601f10610e4d57610100808354040283529160200191610e78565b820191906000526020600020905b815481529060010190602001808311610e5b57829003601f168201915b505050505081565b600b60019054906101000a900460ff1681565b6000610ea03384846116f6565b6001905092915050565b6000610eb46113c8565b610ebd57600080fd5b600b60019054906101000a900460ff1615610ed757600080fd5b600b60009054906101000a900460ff16610f13576001600b60006101000a81548160ff021916908315150217905550610f0e611855565b610f4a565b6000600b60006101000a81548160ff0219169083151502179055506001600b60016101000a81548160ff0219169083151502179055505b6001905090565b610f596113c8565b610f6257600080fd5b600073ffffffffffffffffffffffffffffffffffffffff168173ffffffffffffffffffffffffffffffffffffffff161415610f9c57600080fd5b80600d60006101000a81548173ffffffffffffffffffffffffffffffffffffffff021916908373ffffffffffffffffffffffffffffffffffffffff16021790555050565b6000600354905090565b6000610ff784848461195b565b611090843361108b85600260008a73ffffffffffffffffffffffffffffffffffffffff1673ffffffffffffffffffffffffffffffffffffffff16815260200190815260200160002060003373ffffffffffffffffffffffffffffffffffffffff1673ffffffffffffffffffffffffffffffffffffffff16815260200190815260200160002054611b2990919063ffffffff16565b6116f6565b600190509392505050565b600860009054906101000a900460ff1681565b6000611149338461114485600260003373ffffffffffffffffffffffffffffffffffffffff1673ffffffffffffffffffffffffffffffffffffffff16815260200190815260200160002060008973ffffffffffffffffffffffffffffffffffffffff1673ffffffffffffffffffffffffffffffffffffffff16815260200190815260200160002054610c5690919063ffffffff16565b6116f6565b6001905092915050565b61115b6113c8565b61116457600080fd5b3373ffffffffffffffffffffffffffffffffffffffff166108fc3073ffffffffffffffffffffffffffffffffffffffff16319081150290604051600060405180830381858888f193505050501580156111c1573d6000803e3d6000fd5b50565b600d60009054906101000a900473ffffffffffffffffffffffffffffffffffffffff1673ffffffffffffffffffffffffffffffffffffffff163373ffffffffffffffffffffffffffffffffffffffff161461121e57600080fd5b600073ffffffffffffffffffffffffffffffffffffffff168273ffffffffffffffffffffffffffffffffffffffff16141561125857600080fd5b6000811161126557600080fd5b61126f8282610c8e565b5050565b6000600160008373ffffffffffffffffffffffffffffffffffffffff1673ffffffffffffffffffffffffffffffffffffffff168152602001908152602001600020549050919050565b6112c46113c8565b6112cd57600080fd5b600073ffffffffffffffffffffffffffffffffffffffff166000809054906101000a900473ffffffffffffffffffffffffffffffffffffffff1673ffffffffffffffffffffffffffffffffffffffff167f8be0079c531659141344cd1fd0a4f28419497f9722a3daafe3b4186f6b6457e060405160405180910390a360008060006101000a81548173ffffffffffffffffffffffffffffffffffffffff021916908373ffffffffffffffffffffffffffffffffffffffff160217905550565b600b60009054906101000a900460ff1681565b60008060009054906101000a900473ffffffffffffffffffffffffffffffffffffffff16905090565b60008060009054906101000a900473ffffffffffffffffffffffffffffffffffffffff1673ffffffffffffffffffffffffffffffffffffffff163373ffffffffffffffffffffffffffffffffffffffff1614905090565b60078054600181600116156101000203166002900480601f0160208091040260200160405190810160405280929190818152602001828054600181600116156101000203166002900480156114b55780601f1061148a576101008083540402835291602001916114b5565b820191906000526020600020905b81548152906001019060200180831161149857829003601f168201915b505050505081565b6000611558338461155385600260003373ffffffffffffffffffffffffffffffffffffffff1673ffffffffffffffffffffffffffffffffffffffff16815260200190815260200160002060008973ffffffffffffffffffffffffffffffffffffffff1673ffffffffffffffffffffffffffffffffffffffff16815260200190815260200160002054611b2990919063ffffffff16565b6116f6565b6001905092915050565b600061156f33848461195b565b6001905092915050565b6115816113c8565b61158a57600080fd5b3373ffffffffffffffffffffffffffffffffffffffff16ff5b6000600d60009054906101000a900473ffffffffffffffffffffffffffffffffffffffff16905090565b6000600a60008373ffffffffffffffffffffffffffffffffffffffff1673ffffffffffffffffffffffffffffffffffffffff168152602001908152602001600020549050919050565b6005818154811061162357fe5b906000526020600020016000915054906101000a900473ffffffffffffffffffffffffffffffffffffffff1681565b6000600260008473ffffffffffffffffffffffffffffffffffffffff1673ffffffffffffffffffffffffffffffffffffffff16815260200190815260200160002060008373ffffffffffffffffffffffffffffffffffffffff1673ffffffffffffffffffffffffffffffffffffffff16815260200190815260200160002054905092915050565b6116e16113c8565b6116ea57600080fd5b6116f381611b49565b50565b600073ffffffffffffffffffffffffffffffffffffffff168273ffffffffffffffffffffffffffffffffffffffff16141561173057600080fd5b600073ffffffffffffffffffffffffffffffffffffffff168373ffffffffffffffffffffffffffffffffffffffff16141561176a57600080fd5b80600260008573ffffffffffffffffffffffffffffffffffffffff1673ffffffffffffffffffffffffffffffffffffffff16815260200190815260200160002060008473ffffffffffffffffffffffffffffffffffffffff1673ffffffffffffffffffffffffffffffffffffffff168152602001908152602001600020819055508173ffffffffffffffffffffffffffffffffffffffff168373ffffffffffffffffffffffffffffffffffffffff167f8c5be1e5ebec7d5bd14f71427d1e84f3dd0314c0f7b2291e5b200ac8c7c3b925836040518082815260200191505060405180910390a3505050565b600b60009054906101000a900460ff1661186e57600080fd5b60008090505b6004805490508160ff16101561195857600c54600a600060048460ff168154811061189b57fe5b9060005260206000200160009054906101000a900473ffffffffffffffffffffffffffffffffffffffff1673ffffffffffffffffffffffffffffffffffffffff1673ffffffffffffffffffffffffffffffffffffffff1681526020019081526020016000208190555061194b60048260ff168154811061191757fe5b9060005260206000200160009054906101000a900473ffffffffffffffffffffffffffffffffffffffff16620186a0610c8e565b8080600101915050611874565b50565b600073ffffffffffffffffffffffffffffffffffffffff168273ffffffffffffffffffffffffffffffffffffffff16141561199557600080fd5b6119e781600160008673ffffffffffffffffffffffffffffffffffffffff1673ffffffffffffffffffffffffffffffffffffffff16815260200190815260200160002054611b2990919063ffffffff16565b600160008573ffffffffffffffffffffffffffffffffffffffff1673ffffffffffffffffffffffffffffffffffffffff16815260200190815260200160002081905550611a7c81600160008573ffffffffffffffffffffffffffffffffffffffff1673ffffffffffffffffffffffffffffffffffffffff16815260200190815260200160002054610c5690919063ffffffff16565b600160008473ffffffffffffffffffffffffffffffffffffffff1673ffffffffffffffffffffffffffffffffffffffff168152602001908152602001600020819055508173ffffffffffffffffffffffffffffffffffffffff168373ffffffffffffffffffffffffffffffffffffffff167fddf252ad1be2c89b69c2b068fc378daa952ba7f163c4a11628f55a4df523b3ef836040518082815260200191505060405180910390a3505050565b600082821115611b3857600080fd5b600082840390508091505092915050565b600073ffffffffffffffffffffffffffffffffffffffff168173ffffffffffffffffffffffffffffffffffffffff161415611b8357600080fd5b8073ffffffffffffffffffffffffffffffffffffffff166000809054906101000a900473ffffffffffffffffffffffffffffffffffffffff1673ffffffffffffffffffffffffffffffffffffffff167f8be0079c531659141344cd1fd0a4f28419497f9722a3daafe3b4186f6b6457e060405160405180910390a3806000806101000a81548173ffffffffffffffffffffffffffffffffffffffff021916908373ffffffffffffffffffffffffffffffffffffffff1602179055505056fea265627a7a72305820053af7447ae4d1bb40362d42ae3946ed77f266f12fbad6a8b4d0c8620c5390c964736f6c63430005090032",
  "source": "pragma solidity ^0.5.9;\n\n/******************************************\n\nOur Matra our Motto for coding The Cryptoz Universe.\n\n      Fail EARLY and Fail LOUD !!!!!!!\n\n1.    First - Check all pre-conditions\n2.    Then  - make changes to contract state\n3.    Final - interact with other contracts\n\nPull funds over pushing them\nPlatform limits like max of 1023 loop interations.\n\nall Events start with Log\n\n******************************************/\n\nimport \"openzeppelin-solidity/contracts/ownership/Ownable.sol\";\nimport \"openzeppelin-solidity/contracts/token/ERC20/ERC20.sol\";\n\ncontract CzxpToken is Ownable,ERC20 {\n\n//1. Condition\n//2. Effects\n//3.Interaction\n    \n    /*\n    * We accept payment for the token generation event only\n    * Rules:\n    *   Founders-pre:         500000\n    *   Airdrop-max :        1000000\n    *   TGE - max   :        5000000\n    *   start is    :  March 31,2018\n    *   end is      : April 21, 2018\n    *   min         :     0.0001 ETH\n    *   max         :          1 ETH\n    *   max wallets :             50\n    */\n\n\n\n// Advisor+team wallets = 7\n    address[] advisors = [0xCA35b7d915458EF540aDe6068dFe2F44E8fa733c,\n                            0x14723A09ACff6D2A60DcdF7aA4AFf308FDDC160C,\n                            0x583031D1113aD414F02576BD6afaBfb302140225\n                        ];\n    address[] public lockedWallets;\n\n// Public variables of the token\n    string public name          = \"Cryptoz eXPerience\";\n    string public symbol        = \"CZXP\";\n    uint8  public decimals       = 0;\n    \n//Storage\n    // ??????\n    //mapping (address => mapping (address => uint256)) public allowance;\n    \n    // Owner of account approves the transfer of an amount to another account\n    mapping(address => mapping (address => uint256)) allowed;\n    \n    //supporters\n    mapping (address => uint256) contributions;    // ETH contributed per address\n\n\n//TGE restrictions\n    //Token Generation event\n    bool public isTGE = false;\n    bool public TGEcomplete = false;\n    uint256 maxCap = 1000000000000000000;\n    \n//Our external cryptozContract\n    address private cryptozContract;\n    \n    modifier checkTGE(){\n        require(isTGE);\n        _;\n    }\n    \n    modifier onlyAuthorizedContract(){\n        require(msg.sender == cryptozContract);\n        _;\n    }\n\n    \n    function setCryptozContract(address _cryptozContract) public onlyOwner{\n        require(_cryptozContract != address(0x0));\n        cryptozContract = _cryptozContract;\n    }\n    \n    function getCrypozContractAddress() public view returns(address){\n        return cryptozContract;\n    }\n\n    /*\n    *   Make sure we accept payment only during TGE\n    */\n    function() payable checkTGE external {\n        require(msg.sender != address(0));\n        //We dont offer less than 1 czxp\n        require(msg.value >= 0.00001 ether);\n        \n        //Check contributor is under the cap\n        require(contributions[msg.sender] <= maxCap);\n        \n        //if contribution+balance is >= cap, refund the difference\n        uint allowedContribution = 0;\n        if((msg.value+contributions[msg.sender]) >= maxCap){\n            uint refund = (msg.value + contributions[msg.sender]) - maxCap;\n            allowedContribution = maxCap - contributions[msg.sender];\n            msg.sender.transfer(refund); // IS this safe ????\n            refund = 0;//just in case\n        }else{\n            allowedContribution = msg.value;\n        }\n        \n        //sanity ??\n        require(allowedContribution > 0);\n        \n        //Finally increment the contributor\n        contributions[msg.sender] = contributions[msg.sender].add(allowedContribution);\n        \n        //all good ?  give tokens\n        _mint(msg.sender, convertWeiToCZXP(allowedContribution));\n    }\n    \n    /**\n     *  One time event to give token allocations to our advisors ONCE when TGE is activated\n     */\n     \n    function mintAdvisorTokens() internal checkTGE {\n        \n        \n        //100K to each advisor, update to maxed out\n        for(uint8 i=0; i < advisors.length; i++){\n            contributions[advisors[i]] = maxCap;\n            _mint(advisors[i], 100000);\n        }\n    }\n    \n    /**\n     *  Turn on TGE March 31,2018 and then lock it forever when turned off April 21,2018\n     */\n     \n    function flipTGE() public onlyOwner returns(bool) {\n        require(!TGEcomplete);\n        \n        if(!isTGE){\n            isTGE = true;\n            mintAdvisorTokens();\n        }else{\n            isTGE = false;\n            TGEcomplete = true;\n        }\n        return true;\n    }\n    \n   \n   /**\n    * Our base conversion rate for the TGE\n    */\n    function convertWeiToCZXP(uint weiToConvert) pure internal returns (uint) {\n        // 1 czxp = 10000000000000 wei;\n        return weiToConvert/10000000000000;\n    }\n    \n    /**\n     *  Called in from our ERC721 contract actions\n     *\n     */\n     function awardCzxp(address _to, uint256 _amount) public onlyAuthorizedContract {\n         require(_to != address(0));\n         require(_amount > 0);\n         \n         _mint(_to, _amount);\n     }\n    \n    /**\n    * @dev Returns the amount contributed so far by a sepecific user.\n    * @param _beneficiary Address of contributor\n    * @return User contribution so far\n    */\n    function getUserContribution(address _beneficiary) public view returns (uint256) {\n        return contributions[_beneficiary];\n    }\n    \n       \n   /**\n    * Withdraw balance to wallet\n    */\n   function withdraw() public onlyOwner {\n      msg.sender.transfer(address(this).balance);\n   }\n\n//REMOVE FOR LIVE LAUNCH !!\n\n    function killSwitch() public onlyOwner {\n      selfdestruct(msg.sender);\n    }\n}",
  "sourcePath": "/home/rprice/Downloads/cryptoz.cards/contracts/CZXPToken.sol",
  "compiler": {
    "name": "solc",
    "version": "0.5.9+commit.e560f70d.Emscripten.clang"
  },
  "schemaVersion": "3.0.11",
  "updatedAt": "2019-09-20T00:44:22.402Z",
  "devdoc": {
    "methods": {
      "allowance(address,address)": {
        "details": "Function to check the amount of tokens that an owner allowed to a spender.",
        "params": {
          "owner": "address The address which owns the funds.",
          "spender": "address The address which will spend the funds."
        },
        "return": "A uint256 specifying the amount of tokens still available for the spender."
      },
      "approve(address,uint256)": {
        "details": "Approve the passed address to spend the specified amount of tokens on behalf of msg.sender. Beware that changing an allowance with this method brings the risk that someone may use both the old and the new allowance by unfortunate transaction ordering. One possible solution to mitigate this race condition is to first reduce the spender's allowance to 0 and set the desired value afterwards: https://github.com/ethereum/EIPs/issues/20#issuecomment-263524729",
        "params": {
          "spender": "The address which will spend the funds.",
          "value": "The amount of tokens to be spent."
        }
      },
      "balanceOf(address)": {
        "details": "Gets the balance of the specified address.",
        "params": {
          "owner": "The address to query the balance of."
        },
        "return": "A uint256 representing the amount owned by the passed address."
      },
      "decreaseAllowance(address,uint256)": {
        "details": "Decrease the amount of tokens that an owner allowed to a spender. approve should be called when _allowed[msg.sender][spender] == 0. To decrement allowed value is better to use this function to avoid 2 calls (and wait until the first transaction is mined) From MonolithDAO Token.sol Emits an Approval event.",
        "params": {
          "spender": "The address which will spend the funds.",
          "subtractedValue": "The amount of tokens to decrease the allowance by."
        }
      },
      "getUserContribution(address)": {
        "details": "Returns the amount contributed so far by a sepecific user.",
        "params": {
          "_beneficiary": "Address of contributor"
        },
        "return": "User contribution so far"
      },
      "increaseAllowance(address,uint256)": {
        "details": "Increase the amount of tokens that an owner allowed to a spender. approve should be called when _allowed[msg.sender][spender] == 0. To increment allowed value is better to use this function to avoid 2 calls (and wait until the first transaction is mined) From MonolithDAO Token.sol Emits an Approval event.",
        "params": {
          "addedValue": "The amount of tokens to increase the allowance by.",
          "spender": "The address which will spend the funds."
        }
      },
      "isOwner()": {
        "return": "true if `msg.sender` is the owner of the contract."
      },
      "owner()": {
        "return": "the address of the owner."
      },
      "renounceOwnership()": {
        "details": "Allows the current owner to relinquish control of the contract. It will not be possible to call the functions with the `onlyOwner` modifier anymore."
      },
      "totalSupply()": {
        "details": "Total number of tokens in existence"
      },
      "transfer(address,uint256)": {
        "details": "Transfer token to a specified address",
        "params": {
          "to": "The address to transfer to.",
          "value": "The amount to be transferred."
        }
      },
      "transferFrom(address,address,uint256)": {
        "details": "Transfer tokens from one address to another. Note that while this function emits an Approval event, this is not required as per the specification, and other compliant implementations may not emit the event.",
        "params": {
          "from": "address The address which you want to send tokens from",
          "to": "address The address which you want to transfer to",
          "value": "uint256 the amount of tokens to be transferred"
        }
      },
      "transferOwnership(address)": {
        "details": "Allows the current owner to transfer control of the contract to a newOwner.",
        "params": {
          "newOwner": "The address to transfer ownership to."
        }
      }
    }
  },
  "userdoc": {
    "methods": {
      "awardCzxp(address,uint256)": {
        "notice": "Called in from our ERC721 contract actions     "
      },
      "flipTGE()": {
        "notice": "Turn on TGE March 31,2018 and then lock it forever when turned off April 21,2018"
      },
      "renounceOwnership()": {
        "notice": "Renouncing ownership will leave the contract without an owner, thereby removing any functionality that is only available to the owner."
      },
      "withdraw()": {
        "notice": "Withdraw balance to wallet"
      }
    }
  }
}