{
  "contractName": "CzxpToken",
  "abi": [
    {
      "constant": true,
      "inputs": [],
      "name": "name",
      "outputs": [
        {
          "name": "",
          "type": "string"
        }
      ],
      "payable": false,
      "stateMutability": "view",
      "type": "function"
    },
    {
      "constant": true,
      "inputs": [],
      "name": "TGEcomplete",
      "outputs": [
        {
          "name": "",
          "type": "bool"
        }
      ],
      "payable": false,
      "stateMutability": "view",
      "type": "function"
    },
    {
      "constant": false,
      "inputs": [
        {
          "name": "spender",
          "type": "address"
        },
        {
          "name": "amount",
          "type": "uint256"
        }
      ],
      "name": "approve",
      "outputs": [
        {
          "name": "",
          "type": "bool"
        }
      ],
      "payable": false,
      "stateMutability": "nonpayable",
      "type": "function"
    },
    {
      "constant": true,
      "inputs": [],
      "name": "totalSupply",
      "outputs": [
        {
          "name": "",
          "type": "uint256"
        }
      ],
      "payable": false,
      "stateMutability": "view",
      "type": "function"
    },
    {
      "constant": false,
      "inputs": [
        {
          "name": "sender",
          "type": "address"
        },
        {
          "name": "recipient",
          "type": "address"
        },
        {
          "name": "amount",
          "type": "uint256"
        }
      ],
      "name": "transferFrom",
      "outputs": [
        {
          "name": "",
          "type": "bool"
        }
      ],
      "payable": false,
      "stateMutability": "nonpayable",
      "type": "function"
    },
    {
      "constant": true,
      "inputs": [],
      "name": "decimals",
      "outputs": [
        {
          "name": "",
          "type": "uint8"
        }
      ],
      "payable": false,
      "stateMutability": "view",
      "type": "function"
    },
    {
      "constant": false,
      "inputs": [
        {
          "name": "spender",
          "type": "address"
        },
        {
          "name": "addedValue",
          "type": "uint256"
        }
      ],
      "name": "increaseAllowance",
      "outputs": [
        {
          "name": "",
          "type": "bool"
        }
      ],
      "payable": false,
      "stateMutability": "nonpayable",
      "type": "function"
    },
    {
      "constant": true,
      "inputs": [
        {
          "name": "",
          "type": "address"
        }
      ],
      "name": "contributions",
      "outputs": [
        {
          "name": "",
          "type": "uint256"
        }
      ],
      "payable": false,
      "stateMutability": "view",
      "type": "function"
    },
    {
      "constant": true,
      "inputs": [
        {
          "name": "account",
          "type": "address"
        }
      ],
      "name": "balanceOf",
      "outputs": [
        {
          "name": "",
          "type": "uint256"
        }
      ],
      "payable": false,
      "stateMutability": "view",
      "type": "function"
    },
    {
      "constant": false,
      "inputs": [],
      "name": "renounceOwnership",
      "outputs": [],
      "payable": false,
      "stateMutability": "nonpayable",
      "type": "function"
    },
    {
      "constant": true,
      "inputs": [],
      "name": "isTGE",
      "outputs": [
        {
          "name": "",
          "type": "bool"
        }
      ],
      "payable": false,
      "stateMutability": "view",
      "type": "function"
    },
    {
      "constant": true,
      "inputs": [],
      "name": "owner",
      "outputs": [
        {
          "name": "",
          "type": "address"
        }
      ],
      "payable": false,
      "stateMutability": "view",
      "type": "function"
    },
    {
      "constant": true,
      "inputs": [],
      "name": "isOwner",
      "outputs": [
        {
          "name": "",
          "type": "bool"
        }
      ],
      "payable": false,
      "stateMutability": "view",
      "type": "function"
    },
    {
      "constant": true,
      "inputs": [],
      "name": "symbol",
      "outputs": [
        {
          "name": "",
          "type": "string"
        }
      ],
      "payable": false,
      "stateMutability": "view",
      "type": "function"
    },
    {
      "constant": false,
      "inputs": [
        {
          "name": "spender",
          "type": "address"
        },
        {
          "name": "subtractedValue",
          "type": "uint256"
        }
      ],
      "name": "decreaseAllowance",
      "outputs": [
        {
          "name": "",
          "type": "bool"
        }
      ],
      "payable": false,
      "stateMutability": "nonpayable",
      "type": "function"
    },
    {
      "constant": false,
      "inputs": [
        {
          "name": "recipient",
          "type": "address"
        },
        {
          "name": "amount",
          "type": "uint256"
        }
      ],
      "name": "transfer",
      "outputs": [
        {
          "name": "",
          "type": "bool"
        }
      ],
      "payable": false,
      "stateMutability": "nonpayable",
      "type": "function"
    },
    {
      "constant": true,
      "inputs": [
        {
          "name": "owner",
          "type": "address"
        },
        {
          "name": "spender",
          "type": "address"
        }
      ],
      "name": "allowance",
      "outputs": [
        {
          "name": "",
          "type": "uint256"
        }
      ],
      "payable": false,
      "stateMutability": "view",
      "type": "function"
    },
    {
      "constant": false,
      "inputs": [
        {
          "name": "newOwner",
          "type": "address"
        }
      ],
      "name": "transferOwnership",
      "outputs": [],
      "payable": false,
      "stateMutability": "nonpayable",
      "type": "function"
    },
    {
      "constant": true,
      "inputs": [],
      "name": "walletCounter",
      "outputs": [
        {
          "name": "",
          "type": "uint8"
        }
      ],
      "payable": false,
      "stateMutability": "view",
      "type": "function"
    },
    {
      "payable": false,
      "stateMutability": "nonpayable",
      "type": "fallback"
    },
    {
      "anonymous": false,
      "inputs": [
        {
          "indexed": true,
          "name": "from",
          "type": "address"
        },
        {
          "indexed": true,
          "name": "to",
          "type": "address"
        },
        {
          "indexed": false,
          "name": "value",
          "type": "uint256"
        }
      ],
      "name": "Transfer",
      "type": "event"
    },
    {
      "anonymous": false,
      "inputs": [
        {
          "indexed": true,
          "name": "owner",
          "type": "address"
        },
        {
          "indexed": true,
          "name": "spender",
          "type": "address"
        },
        {
          "indexed": false,
          "name": "value",
          "type": "uint256"
        }
      ],
      "name": "Approval",
      "type": "event"
    },
    {
      "anonymous": false,
      "inputs": [
        {
          "indexed": true,
          "name": "previousOwner",
          "type": "address"
        },
        {
          "indexed": true,
          "name": "newOwner",
          "type": "address"
        }
      ],
      "name": "OwnershipTransferred",
      "type": "event"
    },
    {
      "constant": false,
      "inputs": [
        {
          "name": "_cryptozContract",
          "type": "address"
        }
      ],
      "name": "setCryptozContract",
      "outputs": [],
      "payable": false,
      "stateMutability": "nonpayable",
      "type": "function"
    },
    {
      "constant": true,
      "inputs": [],
      "name": "getCrypozContractAddress",
      "outputs": [
        {
          "name": "",
          "type": "address"
        }
      ],
      "payable": false,
      "stateMutability": "view",
      "type": "function"
    },
    {
      "constant": false,
      "inputs": [],
      "name": "buy",
      "outputs": [],
      "payable": true,
      "stateMutability": "payable",
      "type": "function"
    },
    {
      "constant": false,
      "inputs": [],
      "name": "flipTGE",
      "outputs": [
        {
          "name": "",
          "type": "bool"
        }
      ],
      "payable": false,
      "stateMutability": "nonpayable",
      "type": "function"
    },
    {
      "constant": false,
      "inputs": [
        {
          "name": "_to",
          "type": "address"
        },
        {
          "name": "_amount",
          "type": "uint256"
        }
      ],
      "name": "awardCzxp",
      "outputs": [],
      "payable": false,
      "stateMutability": "nonpayable",
      "type": "function"
    },
    {
      "constant": false,
      "inputs": [
        {
          "name": "_wallet",
          "type": "address"
        },
        {
          "name": "_amount",
          "type": "uint256"
        }
      ],
      "name": "burnCzxp",
      "outputs": [],
      "payable": false,
      "stateMutability": "nonpayable",
      "type": "function"
    },
    {
      "constant": true,
      "inputs": [
        {
          "name": "_beneficiary",
          "type": "address"
        }
      ],
      "name": "getUserContribution",
      "outputs": [
        {
          "name": "",
          "type": "uint256"
        }
      ],
      "payable": false,
      "stateMutability": "view",
      "type": "function"
    },
    {
      "constant": false,
      "inputs": [],
      "name": "withdraw",
      "outputs": [
        {
          "name": "",
          "type": "bool"
        }
      ],
      "payable": false,
      "stateMutability": "nonpayable",
      "type": "function"
    }
  ],
  "bytecode": "0x6101206040527280a77b44ce03e6d762c913bea46e5e6a84b0e7608090815273dd3d015d0a541244699d7776222443538557523c60a05273bc95419d9d6f61dd718c73754b0b0afade11c70360c05273e701424800efedd679b60d9a49aaf9488547441d60e052734b01629a1baf82d8ab62726776b1332539e51cec610100526200008f906004906005620001ab565b506040805180820190915260128082527f43727970746f7a20655850657269656e636500000000000000000000000000006020909201918252620000d69160059162000215565b506040805180820190915260048082527f435a58500000000000000000000000000000000000000000000000000000000060209092019182526200011d9160069162000215565b506007805461ffff19908116909155600980549091169055670de0b6b3a7640000600a556000620001566001600160e01b03620001a616565b600080546001600160a01b0319166001600160a01b0383169081178255604051929350917f8be0079c531659141344cd1fd0a4f28419497f9722a3daafe3b4186f6b6457e0908290a350620002da565b335b90565b82805482825590600052602060002090810192821562000203579160200282015b828111156200020357825182546001600160a01b0319166001600160a01b03909116178255602090920191600190910190620001cc565b506200021192915062000296565b5090565b828054600181600116156101000203166002900490600052602060002090601f016020900481019282601f106200025857805160ff191683800117855562000288565b8280016001018555821562000288579182015b82811115620002885782518255916020019190600101906200026b565b5062000211929150620002bd565b620001a891905b80821115620002115780546001600160a01b03191681556001016200029d565b620001a891905b80821115620002115760008155600101620002c4565b61179280620002ea6000396000f3fe60806040526004361061019c5760003560e01c806370a08231116100ec578063a6f2ae3a1161008a578063bb8b2b4711610064578063bb8b2b47146105b3578063dd62ed3e146105e6578063f2fde38b14610621578063f64d7060146106545761019c565b8063a6f2ae3a1461055d578063a9059cbb14610565578063b0b79b551461059e5761019c565b80638da5cb5b116100c65780638da5cb5b146104c95780638f32d59b146104fa57806395d89b411461050f578063a457c2d7146105245761019c565b806370a082311461046c578063715018a61461049f57806383eb7d29146104b45761019c565b806323b872dd11610159578063395093511161013357806339509351146103b25780633ccfd60b146103eb57806342e94c901461040057806360fa6767146104335761019c565b806323b872dd1461030b5780632ea5c42a1461034e578063313ce567146103875761019c565b806306fdde03146101ae57806307e8963c14610238578063095ea7b314610261578063119ff9381461029a57806311bfa699146102af57806318160ddd146102e4575b3480156101a857600080fd5b50600080fd5b3480156101ba57600080fd5b506101c3610669565b6040805160208082528351818301528351919283929083019185019080838360005b838110156101fd5781810151838201526020016101e5565b50505050905090810190601f16801561022a5780820380516001836020036101000a031916815260200191505b509250505060405180910390f35b34801561024457600080fd5b5061024d6106f7565b604080519115158252519081900360200190f35b34801561026d57600080fd5b5061024d6004803603604081101561028457600080fd5b506001600160a01b038135169060200135610705565b3480156102a657600080fd5b5061024d610722565b3480156102bb57600080fd5b506102e2600480360360208110156102d257600080fd5b50356001600160a01b03166107ba565b005b3480156102f057600080fd5b506102f9610836565b60408051918252519081900360200190f35b34801561031757600080fd5b5061024d6004803603606081101561032e57600080fd5b506001600160a01b0381358116916020810135909116906040013561083c565b34801561035a57600080fd5b506102e26004803603604081101561037157600080fd5b506001600160a01b0381351690602001356108c9565b34801561039357600080fd5b5061039c610940565b6040805160ff9092168252519081900360200190f35b3480156103be57600080fd5b5061024d600480360360408110156103d557600080fd5b506001600160a01b038135169060200135610949565b3480156103f757600080fd5b5061024d61099d565b34801561040c57600080fd5b506102f96004803603602081101561042357600080fd5b50356001600160a01b0316610a1b565b34801561043f57600080fd5b506102e26004803603604081101561045657600080fd5b506001600160a01b038135169060200135610a2d565b34801561047857600080fd5b506102f96004803603602081101561048f57600080fd5b50356001600160a01b0316610aa0565b3480156104ab57600080fd5b506102e2610abb565b3480156104c057600080fd5b5061024d610b4c565b3480156104d557600080fd5b506104de610b55565b604080516001600160a01b039092168252519081900360200190f35b34801561050657600080fd5b5061024d610b64565b34801561051b57600080fd5b506101c3610b88565b34801561053057600080fd5b5061024d6004803603604081101561054757600080fd5b506001600160a01b038135169060200135610be3565b6102e2610c51565b34801561057157600080fd5b5061024d6004803603604081101561058857600080fd5b506001600160a01b038135169060200135610ddc565b3480156105aa57600080fd5b506104de610df0565b3480156105bf57600080fd5b506102f9600480360360208110156105d657600080fd5b50356001600160a01b0316610dff565b3480156105f257600080fd5b506102f96004803603604081101561060957600080fd5b506001600160a01b0381358116916020013516610e1a565b34801561062d57600080fd5b506102e26004803603602081101561064457600080fd5b50356001600160a01b0316610e45565b34801561066057600080fd5b5061039c610e95565b6005805460408051602060026001851615610100026000190190941693909304601f810184900484028201840190925281815292918301828280156106ef5780601f106106c4576101008083540402835291602001916106ef565b820191906000526020600020905b8154815290600101906020018083116106d257829003601f168201915b505050505081565b600954610100900460ff1681565b6000610719610712610ea3565b8484610ea7565b50600192915050565b600061072c610b64565b61076b576040805162461bcd60e51b81526020600482018190526024820152600080516020611661833981519152604482015290519081900360640190fd5b600954610100900460ff161561078057600080fd5b60095460ff166107a4576009805460ff1916600117905561079f610f93565b6107b4565b6009805461ffff19166101001790555b50600190565b6107c2610b64565b610801576040805162461bcd60e51b81526020600482018190526024820152600080516020611661833981519152604482015290519081900360640190fd5b6001600160a01b03811661081457600080fd5b600b80546001600160a01b0319166001600160a01b0392909216919091179055565b60035490565b600061084984848461102a565b6108bf84610855610ea3565b6108ba85604051806060016040528060288152602001611639602891396001600160a01b038a16600090815260026020526040812090610893610ea3565b6001600160a01b03168152602081019190915260400160002054919063ffffffff61118816565b610ea7565b5060019392505050565b600b546001600160a01b031633146109125760405162461bcd60e51b81526004018080602001828103825260258152602001806117146025913960400191505060405180910390fd5b6001600160a01b03821661092557600080fd5b6000811161093257600080fd5b61093c828261121f565b5050565b60075460ff1681565b6000610719610956610ea3565b846108ba8560026000610967610ea3565b6001600160a01b03908116825260208083019390935260409182016000908120918c16815292529020549063ffffffff61131b16565b60006109a7610b64565b6109e6576040805162461bcd60e51b81526020600482018190526024820152600080516020611661833981519152604482015290519081900360640190fd5b6040513390303180156108fc02916000818181858888f19350505050158015610a13573d6000803e3d6000fd5b506001905090565b60086020526000908152604090205481565b600b546001600160a01b03163314610a765760405162461bcd60e51b81526004018080602001828103825260258152602001806117146025913960400191505060405180910390fd5b6001600160a01b038216610a8957600080fd5b60008111610a9657600080fd5b61093c828261137c565b6001600160a01b031660009081526001602052604090205490565b610ac3610b64565b610b02576040805162461bcd60e51b81526020600482018190526024820152600080516020611661833981519152604482015290519081900360640190fd5b600080546040516001600160a01b03909116907f8be0079c531659141344cd1fd0a4f28419497f9722a3daafe3b4186f6b6457e0908390a3600080546001600160a01b0319169055565b60095460ff1681565b6000546001600160a01b031690565b600080546001600160a01b0316610b79610ea3565b6001600160a01b031614905090565b6006805460408051602060026001851615610100026000190190941693909304601f810184900484028201840190925281815292918301828280156106ef5780601f106106c4576101008083540402835291602001916106ef565b6000610719610bf0610ea3565b846108ba856040518060600160405280602581526020016117396025913960026000610c1a610ea3565b6001600160a01b03908116825260208083019390935260409182016000908120918d1681529252902054919063ffffffff61118816565b60095460ff16610c6057600080fd5b600754606561010090910460ff1610610c7857600080fd5b33610c8257600080fd5b6509184e72a000341015610cc75760405162461bcd60e51b81526004018080602001828103825260298152602001806116eb6029913960400191505060405180910390fd5b600a54336000908152600860205260409020541115610d175760405162461bcd60e51b81526004018080602001828103825260298152602001806116106029913960400191505060405180910390fd5b600a543360009081526008602052604081205490913490910110610d505750600a54336000908152600860205260409020549003610d53565b50345b60008111610d6057600080fd5b33600090815260086020526040902054610d94576007805460ff61010080830482166001019091160261ff00199091161790555b33600090815260086020526040902054610db4908263ffffffff61131b16565b33600081815260086020526040902091909155610dd990610dd48361146e565b61137c565b50565b6000610719610de9610ea3565b848461102a565b600b546001600160a01b031690565b6001600160a01b031660009081526008602052604090205490565b6001600160a01b03918216600090815260026020908152604080832093909416825291909152205490565b610e4d610b64565b610e8c576040805162461bcd60e51b81526020600482018190526024820152600080516020611661833981519152604482015290519081900360640190fd5b610dd98161147a565b600754610100900460ff1681565b3390565b6001600160a01b038316610eec5760405162461bcd60e51b81526004018080602001828103825260248152602001806116c76024913960400191505060405180910390fd5b6001600160a01b038216610f315760405162461bcd60e51b81526004018080602001828103825260228152602001806115c86022913960400191505060405180910390fd5b6001600160a01b03808416600081815260026020908152604080832094871680845294825291829020859055815185815291517f8c5be1e5ebec7d5bd14f71427d1e84f3dd0314c0f7b2291e5b200ac8c7c3b9259281900390910190a3505050565b60095460ff16610fa257600080fd5b60005b60045460ff82161015610dd957600a546008600060048460ff1681548110610fc957fe5b60009182526020808320909101546001600160a01b0316835282019290925260400190205560048054611022919060ff841690811061100457fe5b6000918252602090912001546001600160a01b031662030d4061137c565b600101610fa5565b6001600160a01b03831661106f5760405162461bcd60e51b81526004018080602001828103825260258152602001806116a26025913960400191505060405180910390fd5b6001600160a01b0382166110b45760405162461bcd60e51b815260040180806020018281038252602381526020018061155d6023913960400191505060405180910390fd5b6110f7816040518060600160405280602681526020016115ea602691396001600160a01b038616600090815260016020526040902054919063ffffffff61118816565b6001600160a01b03808516600090815260016020526040808220939093559084168152205461112c908263ffffffff61131b16565b6001600160a01b0380841660008181526001602090815260409182902094909455805185815290519193928716927fddf252ad1be2c89b69c2b068fc378daa952ba7f163c4a11628f55a4df523b3ef92918290030190a3505050565b600081848411156112175760405162461bcd60e51b81526004018080602001828103825283818151815260200191508051906020019080838360005b838110156111dc5781810151838201526020016111c4565b50505050905090810190601f1680156112095780820380516001836020036101000a031916815260200191505b509250505060405180910390fd5b505050900390565b6001600160a01b0382166112645760405162461bcd60e51b81526004018080602001828103825260218152602001806116816021913960400191505060405180910390fd5b6112a781604051806060016040528060228152602001611580602291396001600160a01b038516600090815260016020526040902054919063ffffffff61118816565b6001600160a01b0383166000908152600160205260409020556003546112d3908263ffffffff61151a16565b6003556040805182815290516000916001600160a01b038516917fddf252ad1be2c89b69c2b068fc378daa952ba7f163c4a11628f55a4df523b3ef9181900360200190a35050565b600082820183811015611375576040805162461bcd60e51b815260206004820152601b60248201527f536166654d6174683a206164646974696f6e206f766572666c6f770000000000604482015290519081900360640190fd5b9392505050565b6001600160a01b0382166113d7576040805162461bcd60e51b815260206004820152601f60248201527f45524332303a206d696e7420746f20746865207a65726f206164647265737300604482015290519081900360640190fd5b6003546113ea908263ffffffff61131b16565b6003556001600160a01b038216600090815260016020526040902054611416908263ffffffff61131b16565b6001600160a01b03831660008181526001602090815260408083209490945583518581529351929391927fddf252ad1be2c89b69c2b068fc378daa952ba7f163c4a11628f55a4df523b3ef9281900390910190a35050565b6509184e72a000900490565b6001600160a01b0381166114bf5760405162461bcd60e51b81526004018080602001828103825260268152602001806115a26026913960400191505060405180910390fd5b600080546040516001600160a01b03808516939216917f8be0079c531659141344cd1fd0a4f28419497f9722a3daafe3b4186f6b6457e091a3600080546001600160a01b0319166001600160a01b0392909216919091179055565b600061137583836040518060400160405280601e81526020017f536166654d6174683a207375627472616374696f6e206f766572666c6f77000081525061118856fe45524332303a207472616e7366657220746f20746865207a65726f206164647265737345524332303a206275726e20616d6f756e7420657863656564732062616c616e63654f776e61626c653a206e6577206f776e657220697320746865207a65726f206164647265737345524332303a20617070726f766520746f20746865207a65726f206164647265737345524332303a207472616e7366657220616d6f756e7420657863656564732062616c616e6365436f6e747269627574696f6e206973206f76657220746865206d6178696d756d206f6620312045544845524332303a207472616e7366657220616d6f756e74206578636565647320616c6c6f77616e63654f776e61626c653a2063616c6c6572206973206e6f7420746865206f776e657245524332303a206275726e2066726f6d20746865207a65726f206164647265737345524332303a207472616e736665722066726f6d20746865207a65726f206164647265737345524332303a20617070726f76652066726f6d20746865207a65726f2061646472657373436f6e747269627574696f6e206d7573742062652067726561746572207468616e20302e303030303143616c6c6572206e6f7420617574686f72697a656420666f72207468697320616374696f6e45524332303a2064656372656173656420616c6c6f77616e63652062656c6f77207a65726fa265627a7a72305820d9f6b6615a52097caad798d0e65aa8c6245300e5d9635ba2831d216ac7e2001964736f6c63430005090032",
  "source": "pragma solidity ^0.5.0;\n\n/******************************************\n\nOur Matra our Motto for coding The Cryptoz Universe.\n\n      Fail EARLY and Fail LOUD !!!!!!!\n\n1.    First - Check all pre-conditions\n2.    Then  - make changes to contract state\n3.    Final - interact with other contracts\n\nPull funds over pushing them\nPlatform limits like max of 1023 loop interations.\n\nall Events start with Log\n\n******************************************/\n\nimport \"../node_modules/@openzeppelin/contracts/ownership/Ownable.sol\";\nimport \"../node_modules/@openzeppelin/contracts/token/ERC20/ERC20.sol\";\n\ncontract CzxpToken is Ownable,ERC20 {\n\n//1. Condition\n//2. Effects\n//3.Interaction\n    \n    /*\n    * We accept payment for the token generation event only\n    * Rules:\n    *   Founders-pre:        1200000\n    *   TGE - max   :        5000000\n    *   start is    :    Dec 19,2020\n    *   end is      : April 21, 2021\n    *   min         :     0.0001 ETH\n    *   max         :          1 ETH\n    *   max wallets :             50\n    */\n\n\n\n// Advisor+team wallets = 7\n    address[] advisors = [\n         0x0080A77b44cE03e6D762C913bEA46e5E6A84b0e7, //Josh\n         0xdd3D015D0a541244699d7776222443538557523c, //Dev2\n         0xBc95419D9D6f61dd718c73754B0B0aFAde11c703, //Dev3\n         0xE701424800EFeDD679B60D9A49aaf9488547441D, //Michael\n         0x4b01629a1bAf82D8aB62726776b1332539E51cEc  //Ryan\n    ];\n\n// Public variables of the token\n    string public name          = \"Cryptoz eXPerience\";\n    string public symbol        = \"CZXP\";\n    uint8  public decimals      = 0;\n    uint8 public walletCounter  = 0;\n    \n//Storage\n    //supporters\n    mapping (address => uint256) public contributions;    // ETH contributed per address\n\n//TGE restrictions\n    //Token Generation event\n    bool public isTGE = false;\n    bool public TGEcomplete = false;\n    uint256 maxCap = 1000000000000000000;\n    \n//Our external cryptozContract\n    address private cryptozContract;\n    \n    //MODIFIERS\n    modifier checkTGE(){\n        require(isTGE);\n        _;\n    }\n    \n    modifier onlyAuthorizedContract(){\n        require(msg.sender == cryptozContract,\"Caller not authorized for this action\");\n        _;\n    }\n    \n    // ALL FUNCTIONS\n    function() external {\n        revert();\n    }\n\n    \n    function setCryptozContract(address _cryptozContract) public onlyOwner{\n        require(_cryptozContract != address(0x0));\n        cryptozContract = _cryptozContract;\n    }\n    \n    function getCrypozContractAddress() public view returns(address){\n        return cryptozContract;\n    }\n\n    /*\n    *   Make sure we accept payment only during TGE\n    */\n    function buy() payable checkTGE external {\n        require(walletCounter < 101);\n        require(msg.sender != address(0));\n        \n        //We dont offer less than 1 czxp\n        require(msg.value >= 0.00001 ether,\"Contribution must be greater than 0.00001\");\n        \n        //Check contributor is under the cap\n        require(contributions[msg.sender] <= maxCap,\"Contribution is over the maximum of 1 ETH\");\n        \n        //if contribution+balance is >= cap, refund the difference\n        uint allowedContribution = 0;\n        if((msg.value+contributions[msg.sender]) >= maxCap){\n            uint refund = (msg.value + contributions[msg.sender]) - maxCap;\n            allowedContribution = maxCap - contributions[msg.sender];\n        //msg.sender.transfer(refund); // IS this safe ????\n            refund = 0;//just in case\n        }else{\n            allowedContribution = msg.value;\n        }\n        \n        //sanity ??\n        require(allowedContribution > 0);\n        \n        //track total wallets\n        if(contributions[msg.sender] == 0) {\n            walletCounter++;\n        }\n        \n        //Finally increment the contributor\n        contributions[msg.sender] = contributions[msg.sender].add(allowedContribution);\n        \n        //all good ?  give tokens\n        _mint(msg.sender, convertWeiToCZXP(allowedContribution));\n    }\n    \n    /**\n     *  One time event to give token allocations to our advisors ONCE when TGE is activated\n     */\n     \n    function mintAdvisorTokens() internal checkTGE {\n        \n        \n        //100K to each advisor, update to maxed out\n        for(uint8 i=0; i < advisors.length; i++){\n            contributions[advisors[i]] = maxCap;\n            _mint(advisors[i], 200000);\n        }\n    }\n    \n    /**\n     *  Turn on TGE and then lock it forever when turned off\n     */\n     \n    function flipTGE() public onlyOwner returns(bool) {\n        require(!TGEcomplete);\n        \n        if(!isTGE){\n            isTGE = true;\n            mintAdvisorTokens();\n        }else{\n            isTGE = false;\n            TGEcomplete = true;\n        }\n        return true;\n    }\n    \n   \n   /**\n    * Our base conversion rate for the TGE\n    */\n    function convertWeiToCZXP(uint weiToConvert) pure internal returns (uint) {\n        // 1 czxp = 10000000000000 wei;\n        return weiToConvert/10000000000000;\n    }\n    \n    /**\n     *  Called in from our ERC721 contract actions\n     *\n     */\n     function awardCzxp(address _to, uint256 _amount) public onlyAuthorizedContract {\n         require(_to != address(0));\n         require(_amount > 0);\n         \n         _mint(_to, _amount);\n     }\n     \n    /**\n     *  Called in from our ERC721 contract actions\n     *\n     */\n     function burnCzxp(address _wallet, uint256 _amount) public onlyAuthorizedContract {\n         require(_wallet != address(0));\n         require(_amount > 0);\n         \n         _burn(_wallet, _amount);\n     }\n    \n    /**\n    * @dev Returns the amount contributed so far by a sepecific user.\n    * @param _beneficiary Address of contributor\n    * @return User contribution so far\n    */\n    function getUserContribution(address _beneficiary) public view returns (uint256) {\n        return contributions[_beneficiary];\n    }\n    \n       \n   /**\n    * Withdraw balance to wallet\n    */\n   function withdraw() public onlyOwner returns(bool) {\n      msg.sender.transfer(address(this).balance);\n      return true;\n   }\n\n}",
  "sourcePath": "/home/rprice/Downloads/cryptoz.cards/contracts/CZXPToken.sol",
  "compiler": {
    "name": "solc",
    "version": "0.5.9+commit.e560f70d.Emscripten.clang"
  },
  "schemaVersion": "3.2.2",
  "updatedAt": "2020-12-10T03:12:31.202Z",
  "networkType": "ethereum",
  "devdoc": {
    "methods": {
      "allowance(address,address)": {
        "details": "See {IERC20-allowance}."
      },
      "approve(address,uint256)": {
        "details": "See {IERC20-approve}.     * Requirements:     * - `spender` cannot be the zero address."
      },
      "balanceOf(address)": {
        "details": "See {IERC20-balanceOf}."
      },
      "decreaseAllowance(address,uint256)": {
        "details": "Atomically decreases the allowance granted to `spender` by the caller.     * This is an alternative to {approve} that can be used as a mitigation for problems described in {IERC20-approve}.     * Emits an {Approval} event indicating the updated allowance.     * Requirements:     * - `spender` cannot be the zero address. - `spender` must have allowance for the caller of at least `subtractedValue`."
      },
      "getUserContribution(address)": {
        "details": "Returns the amount contributed so far by a sepecific user.",
        "params": {
          "_beneficiary": "Address of contributor"
        },
        "return": "User contribution so far"
      },
      "increaseAllowance(address,uint256)": {
        "details": "Atomically increases the allowance granted to `spender` by the caller.     * This is an alternative to {approve} that can be used as a mitigation for problems described in {IERC20-approve}.     * Emits an {Approval} event indicating the updated allowance.     * Requirements:     * - `spender` cannot be the zero address."
      },
      "isOwner()": {
        "details": "Returns true if the caller is the current owner."
      },
      "owner()": {
        "details": "Returns the address of the current owner."
      },
      "renounceOwnership()": {
        "details": "Leaves the contract without owner. It will not be possible to call `onlyOwner` functions anymore. Can only be called by the current owner.     * NOTE: Renouncing ownership will leave the contract without an owner, thereby removing any functionality that is only available to the owner."
      },
      "totalSupply()": {
        "details": "See {IERC20-totalSupply}."
      },
      "transfer(address,uint256)": {
        "details": "See {IERC20-transfer}.     * Requirements:     * - `recipient` cannot be the zero address. - the caller must have a balance of at least `amount`."
      },
      "transferFrom(address,address,uint256)": {
        "details": "See {IERC20-transferFrom}.     * Emits an {Approval} event indicating the updated allowance. This is not required by the EIP. See the note at the beginning of {ERC20};     * Requirements: - `sender` and `recipient` cannot be the zero address. - `sender` must have a balance of at least `amount`. - the caller must have allowance for `sender`'s tokens of at least `amount`."
      },
      "transferOwnership(address)": {
        "details": "Transfers ownership of the contract to a new account (`newOwner`). Can only be called by the current owner."
      }
    }
  },
  "userdoc": {
    "methods": {
      "awardCzxp(address,uint256)": {
        "notice": "Called in from our ERC721 contract actions     "
      },
      "burnCzxp(address,uint256)": {
        "notice": "Called in from our ERC721 contract actions     "
      },
      "flipTGE()": {
        "notice": "Turn on TGE and then lock it forever when turned off"
      },
      "withdraw()": {
        "notice": "Withdraw balance to wallet"
      }
    }
  }
}