{
  "contractName": "TestTime",
  "abi": [
    {
      "constant": true,
      "inputs": [
        {
          "name": "",
          "type": "address"
        }
      ],
      "name": "nextCardsPull",
      "outputs": [
        {
          "name": "",
          "type": "uint256"
        }
      ],
      "payable": false,
      "stateMutability": "view",
      "type": "function"
    },
    {
      "constant": true,
      "inputs": [
        {
          "name": "",
          "type": "address"
        }
      ],
      "name": "ownerBoosters",
      "outputs": [
        {
          "name": "",
          "type": "uint256"
        }
      ],
      "payable": false,
      "stateMutability": "view",
      "type": "function"
    },
    {
      "inputs": [],
      "payable": false,
      "stateMutability": "nonpayable",
      "type": "constructor"
    },
    {
      "constant": true,
      "inputs": [],
      "name": "getTimeStamp",
      "outputs": [
        {
          "name": "",
          "type": "uint256"
        }
      ],
      "payable": false,
      "stateMutability": "view",
      "type": "function"
    },
    {
      "constant": true,
      "inputs": [],
      "name": "getNow",
      "outputs": [
        {
          "name": "",
          "type": "uint256"
        }
      ],
      "payable": false,
      "stateMutability": "view",
      "type": "function"
    },
    {
      "constant": false,
      "inputs": [],
      "name": "getMinuteBooster",
      "outputs": [
        {
          "name": "",
          "type": "bool"
        }
      ],
      "payable": false,
      "stateMutability": "nonpayable",
      "type": "function"
    }
  ],
  "bytecode": "0x608060405234801561001057600080fd5b50603c42016000803373ffffffffffffffffffffffffffffffffffffffff1673ffffffffffffffffffffffffffffffffffffffff168152602001908152602001600020819055506102c2806100666000396000f3fe608060405234801561001057600080fd5b50600436106100575760003560e01c8063bbe4fd501461005c578063c262cf181461007a578063da235b22146100d2578063f8769dc4146100f0578063ffaab19e14610112575b600080fd5b61006461016a565b6040518082815260200191505060405180910390f35b6100bc6004803603602081101561009057600080fd5b81019080803573ffffffffffffffffffffffffffffffffffffffff169060200190929190505050610172565b6040518082815260200191505060405180910390f35b6100da61018a565b6040518082815260200191505060405180910390f35b6100f8610192565b604051808215151515815260200191505060405180910390f35b6101546004803603602081101561012857600080fd5b81019080803573ffffffffffffffffffffffffffffffffffffffff16906020019092919050505061027e565b6040518082815260200191505060405180910390f35b600042905090565b60006020528060005260406000206000915090505481565b600042905090565b60008060003373ffffffffffffffffffffffffffffffffffffffff1673ffffffffffffffffffffffffffffffffffffffff16815260200190815260200160002054421061027657603c42016000803373ffffffffffffffffffffffffffffffffffffffff1673ffffffffffffffffffffffffffffffffffffffff168152602001908152602001600020819055506003600160003373ffffffffffffffffffffffffffffffffffffffff1673ffffffffffffffffffffffffffffffffffffffff168152602001908152602001600020600082825401925050819055506001905061027b565b600090505b90565b6001602052806000526040600020600091509050548156fea165627a7a723058202968f35484ef4e5d766a5c55f3658d8f3f7f0cb68088d60b8f2d238913616b350029",
  "source": "pragma solidity ^0.5.0;\n\ncontract TestTime {\n    \n    mapping(address => uint) public nextCardsPull; //address to timestamp\n    mapping(address => uint) public ownerBoosters; //total Boosters owned\n    \n    \n    constructor() public {\n        nextCardsPull[msg.sender] = now + 1 minutes;\n    }\n    \n    function getTimeStamp() public view returns (uint){\n       return block.timestamp;\n    }\n    \n    function getNow() public view returns (uint){\n        return now;\n    }\n    \n    //every minute the address can pull\n    function getMinuteBooster() public returns (bool){\n        if(now >= nextCardsPull[msg.sender]){\n            //update the lastpull value\n            nextCardsPull[msg.sender] = now + 1 minutes;\n            ownerBoosters[msg.sender] += 3;\n            return true;\n        }\n        return false;\n    }\n    \n}",
  "sourcePath": "/home/rprice/Downloads/cryptoz.cards/contracts/TestDailyBooster.sol",
  "compiler": {
    "name": "solc",
    "version": "0.5.8+commit.23d335f2.Emscripten.clang"
  },
  "schemaVersion": "3.0.17",
  "updatedAt": "2019-11-06T01:54:47.811Z",
  "devdoc": {
    "methods": {}
  },
  "userdoc": {
    "methods": {}
  }
}