{
  "contractName": "TestTime",
  "abi": [
    {
      "constant": true,
      "inputs": [
        {
          "name": "",
          "type": "address"
        }
      ],
      "name": "nextCardsPull",
      "outputs": [
        {
          "name": "",
          "type": "uint256"
        }
      ],
      "payable": false,
      "stateMutability": "view",
      "type": "function"
    },
    {
      "constant": true,
      "inputs": [
        {
          "name": "",
          "type": "address"
        }
      ],
      "name": "ownerBoosters",
      "outputs": [
        {
          "name": "",
          "type": "uint256"
        }
      ],
      "payable": false,
      "stateMutability": "view",
      "type": "function"
    },
    {
      "inputs": [],
      "payable": false,
      "stateMutability": "nonpayable",
      "type": "constructor"
    },
    {
      "constant": true,
      "inputs": [],
      "name": "getTimeStamp",
      "outputs": [
        {
          "name": "",
          "type": "uint256"
        }
      ],
      "payable": false,
      "stateMutability": "view",
      "type": "function"
    },
    {
      "constant": true,
      "inputs": [],
      "name": "getNow",
      "outputs": [
        {
          "name": "",
          "type": "uint256"
        }
      ],
      "payable": false,
      "stateMutability": "view",
      "type": "function"
    },
    {
      "constant": false,
      "inputs": [],
      "name": "getMinuteBooster",
      "outputs": [
        {
          "name": "",
          "type": "bool"
        }
      ],
      "payable": false,
      "stateMutability": "nonpayable",
      "type": "function"
    }
  ],
  "bytecode": "0x608060405234801561001057600080fd5b50603c42016000803373ffffffffffffffffffffffffffffffffffffffff1673ffffffffffffffffffffffffffffffffffffffff168152602001908152602001600020819055506102ff806100666000396000f30060806040526004361061006d576000357c0100000000000000000000000000000000000000000000000000000000900463ffffffff168063bbe4fd5014610072578063c262cf181461009d578063da235b22146100f4578063f8769dc41461011f578063ffaab19e1461014e575b600080fd5b34801561007e57600080fd5b506100876101a5565b6040518082815260200191505060405180910390f35b3480156100a957600080fd5b506100de600480360381019080803573ffffffffffffffffffffffffffffffffffffffff1690602001909291905050506101ad565b6040518082815260200191505060405180910390f35b34801561010057600080fd5b506101096101c5565b6040518082815260200191505060405180910390f35b34801561012b57600080fd5b506101346101cd565b604051808215151515815260200191505060405180910390f35b34801561015a57600080fd5b5061018f600480360381019080803573ffffffffffffffffffffffffffffffffffffffff1690602001909291905050506102bb565b6040518082815260200191505060405180910390f35b600042905090565b60006020528060005260406000206000915090505481565b600042905090565b60008060003373ffffffffffffffffffffffffffffffffffffffff1673ffffffffffffffffffffffffffffffffffffffff16815260200190815260200160002054421015156102b357603c42016000803373ffffffffffffffffffffffffffffffffffffffff1673ffffffffffffffffffffffffffffffffffffffff168152602001908152602001600020819055506003600160003373ffffffffffffffffffffffffffffffffffffffff1673ffffffffffffffffffffffffffffffffffffffff16815260200190815260200160002060008282540192505081905550600190506102b8565b600090505b90565b600160205280600052604060002060009150905054815600a165627a7a72305820282521d2a6495b0e167bb8fbeb2f0fef6a0d3fab1b9c5090a577f313878582520029",
  "source": "pragma solidity ^0.4.24;\n\ncontract TestTime {\n    \n    mapping(address => uint) public nextCardsPull; //address to timestamp\n    mapping(address => uint) public ownerBoosters; //total Boosters owned\n    \n    \n    constructor() public {\n        nextCardsPull[msg.sender] = now + 1 minutes;\n    }\n    \n    function getTimeStamp() public view returns (uint){\n       return block.timestamp;\n    }\n    \n    function getNow() public view returns (uint){\n        return now;\n    }\n    \n    //every minute the address can pull\n    function getMinuteBooster() public returns (bool){\n        if(now >= nextCardsPull[msg.sender]){\n            //update the lastpull value\n            nextCardsPull[msg.sender] = now + 1 minutes;\n            ownerBoosters[msg.sender] += 3;\n            return true;\n        }\n        return false;\n    }\n    \n}",
  "sourcePath": "/home/rprice/Downloads/cryptoz.cards/contracts/TestDailyBooster.sol",
  "compiler": {
    "name": "solc",
    "version": "0.4.24+commit.e67f0147.Emscripten.clang"
  },
  "schemaVersion": "2.0.1",
  "updatedAt": "2019-03-06T21:51:56.924Z"
}