{
  "contractName": "Zoombies",
  "abi": [
    {
      "inputs": [
        {
          "internalType": "address",
          "name": "_zoomTokenContract",
          "type": "address"
        }
      ],
      "stateMutability": "nonpayable",
      "type": "constructor"
    },
    {
      "anonymous": false,
      "inputs": [
        {
          "indexed": true,
          "internalType": "address",
          "name": "owner",
          "type": "address"
        },
        {
          "indexed": true,
          "internalType": "address",
          "name": "approved",
          "type": "address"
        },
        {
          "indexed": true,
          "internalType": "uint256",
          "name": "tokenId",
          "type": "uint256"
        }
      ],
      "name": "Approval",
      "type": "event"
    },
    {
      "anonymous": false,
      "inputs": [
        {
          "indexed": true,
          "internalType": "address",
          "name": "owner",
          "type": "address"
        },
        {
          "indexed": true,
          "internalType": "address",
          "name": "operator",
          "type": "address"
        },
        {
          "indexed": false,
          "internalType": "bool",
          "name": "approved",
          "type": "bool"
        }
      ],
      "name": "ApprovalForAll",
      "type": "event"
    },
    {
      "anonymous": false,
      "inputs": [
        {
          "indexed": true,
          "internalType": "address",
          "name": "buyer",
          "type": "address"
        },
        {
          "indexed": false,
          "internalType": "uint256",
          "name": "tokenId",
          "type": "uint256"
        },
        {
          "indexed": true,
          "internalType": "uint32",
          "name": "cardTypeId",
          "type": "uint32"
        },
        {
          "indexed": false,
          "internalType": "uint256",
          "name": "editionNumber",
          "type": "uint256"
        }
      ],
      "name": "LogCardMinted",
      "type": "event"
    },
    {
      "anonymous": false,
      "inputs": [
        {
          "indexed": true,
          "internalType": "uint32",
          "name": "cardTypeId",
          "type": "uint32"
        },
        {
          "indexed": false,
          "internalType": "string",
          "name": "cardName",
          "type": "string"
        },
        {
          "indexed": false,
          "internalType": "uint256",
          "name": "editionTotal",
          "type": "uint256"
        }
      ],
      "name": "LogCardTypeLoaded",
      "type": "event"
    },
    {
      "anonymous": false,
      "inputs": [
        {
          "indexed": false,
          "internalType": "address",
          "name": "player",
          "type": "address"
        },
        {
          "indexed": false,
          "internalType": "uint256",
          "name": "newBoosterBalance",
          "type": "uint256"
        }
      ],
      "name": "LogDailyReward",
      "type": "event"
    },
    {
      "anonymous": false,
      "inputs": [
        {
          "indexed": true,
          "internalType": "address",
          "name": "buyer",
          "type": "address"
        },
        {
          "indexed": false,
          "internalType": "uint8",
          "name": "rarity",
          "type": "uint8"
        }
      ],
      "name": "LogPackOpened",
      "type": "event"
    },
    {
      "anonymous": false,
      "inputs": [
        {
          "indexed": false,
          "internalType": "address",
          "name": "winner",
          "type": "address"
        },
        {
          "indexed": false,
          "internalType": "uint256",
          "name": "boostersAwarded",
          "type": "uint256"
        }
      ],
      "name": "LogRewardBoosters",
      "type": "event"
    },
    {
      "anonymous": false,
      "inputs": [
        {
          "indexed": false,
          "internalType": "address",
          "name": "owner",
          "type": "address"
        },
        {
          "indexed": false,
          "internalType": "uint256",
          "name": "tokenId",
          "type": "uint256"
        },
        {
          "indexed": false,
          "internalType": "uint16",
          "name": "cardTypeId",
          "type": "uint16"
        },
        {
          "indexed": false,
          "internalType": "uint256",
          "name": "zoomGained",
          "type": "uint256"
        }
      ],
      "name": "LogSacrificeNFT",
      "type": "event"
    },
    {
      "anonymous": false,
      "inputs": [
        {
          "indexed": false,
          "internalType": "address",
          "name": "sponsor",
          "type": "address"
        },
        {
          "indexed": false,
          "internalType": "address",
          "name": "affiliate",
          "type": "address"
        }
      ],
      "name": "LogSponsorLinked",
      "type": "event"
    },
    {
      "anonymous": false,
      "inputs": [
        {
          "indexed": false,
          "internalType": "address",
          "name": "sponsor",
          "type": "address"
        },
        {
          "indexed": false,
          "internalType": "address",
          "name": "affiliate",
          "type": "address"
        },
        {
          "indexed": false,
          "internalType": "uint256",
          "name": "zoomReward",
          "type": "uint256"
        }
      ],
      "name": "LogSponsorReward",
      "type": "event"
    },
    {
      "anonymous": false,
      "inputs": [
        {
          "indexed": true,
          "internalType": "address",
          "name": "previousOwner",
          "type": "address"
        },
        {
          "indexed": true,
          "internalType": "address",
          "name": "newOwner",
          "type": "address"
        }
      ],
      "name": "OwnershipTransferred",
      "type": "event"
    },
    {
      "anonymous": false,
      "inputs": [
        {
          "indexed": false,
          "internalType": "address",
          "name": "account",
          "type": "address"
        }
      ],
      "name": "Paused",
      "type": "event"
    },
    {
      "anonymous": false,
      "inputs": [
        {
          "indexed": false,
          "internalType": "uint16",
          "name": "drop",
          "type": "uint16"
        },
        {
          "indexed": false,
          "internalType": "uint16",
          "name": "epic",
          "type": "uint16"
        },
        {
          "indexed": false,
          "internalType": "uint16",
          "name": "rare",
          "type": "uint16"
        },
        {
          "indexed": false,
          "internalType": "uint16",
          "name": "uncommon",
          "type": "uint16"
        },
        {
          "indexed": false,
          "internalType": "uint16",
          "name": "common",
          "type": "uint16"
        }
      ],
      "name": "Probs",
      "type": "event"
    },
    {
      "anonymous": false,
      "inputs": [
        {
          "indexed": true,
          "internalType": "address",
          "name": "from",
          "type": "address"
        },
        {
          "indexed": true,
          "internalType": "address",
          "name": "to",
          "type": "address"
        },
        {
          "indexed": true,
          "internalType": "uint256",
          "name": "tokenId",
          "type": "uint256"
        }
      ],
      "name": "Transfer",
      "type": "event"
    },
    {
      "anonymous": false,
      "inputs": [
        {
          "indexed": false,
          "internalType": "address",
          "name": "account",
          "type": "address"
        }
      ],
      "name": "Unpaused",
      "type": "event"
    },
    {
      "inputs": [],
      "name": "MAX_CARD_TYPES",
      "outputs": [
        {
          "internalType": "uint16",
          "name": "",
          "type": "uint16"
        }
      ],
      "stateMutability": "view",
      "type": "function",
      "constant": true
    },
    {
      "inputs": [],
      "name": "ZOOM_BASE_COST",
      "outputs": [
        {
          "internalType": "uint256",
          "name": "",
          "type": "uint256"
        }
      ],
      "stateMutability": "view",
      "type": "function",
      "constant": true
    },
    {
      "inputs": [
        {
          "internalType": "uint8",
          "name": "",
          "type": "uint8"
        },
        {
          "internalType": "uint256",
          "name": "",
          "type": "uint256"
        }
      ],
      "name": "allBoosterCardIds",
      "outputs": [
        {
          "internalType": "uint16",
          "name": "",
          "type": "uint16"
        }
      ],
      "stateMutability": "view",
      "type": "function",
      "constant": true
    },
    {
      "inputs": [
        {
          "internalType": "uint16",
          "name": "",
          "type": "uint16"
        }
      ],
      "name": "allCardTypes",
      "outputs": [
        {
          "internalType": "uint16",
          "name": "cardTypeId",
          "type": "uint16"
        },
        {
          "internalType": "string",
          "name": "name",
          "type": "string"
        },
        {
          "internalType": "string",
          "name": "set",
          "type": "string"
        },
        {
          "internalType": "uint8",
          "name": "assetType",
          "type": "uint8"
        },
        {
          "internalType": "uint8",
          "name": "notStoreOrBonus",
          "type": "uint8"
        },
        {
          "internalType": "uint8",
          "name": "rarity",
          "type": "uint8"
        },
        {
          "internalType": "uint16",
          "name": "totalAvailable",
          "type": "uint16"
        },
        {
          "internalType": "uint256",
          "name": "weiCost",
          "type": "uint256"
        },
        {
          "internalType": "uint256",
          "name": "buyZoom",
          "type": "uint256"
        },
        {
          "internalType": "uint256",
          "name": "sacrificeZoom",
          "type": "uint256"
        },
        {
          "internalType": "uint256",
          "name": "unlockZoom",
          "type": "uint256"
        },
        {
          "internalType": "uint8",
          "name": "cardLevel",
          "type": "uint8"
        }
      ],
      "stateMutability": "view",
      "type": "function",
      "constant": true
    },
    {
      "inputs": [
        {
          "internalType": "address",
          "name": "to",
          "type": "address"
        },
        {
          "internalType": "uint256",
          "name": "tokenId",
          "type": "uint256"
        }
      ],
      "name": "approve",
      "outputs": [],
      "stateMutability": "nonpayable",
      "type": "function"
    },
    {
      "inputs": [
        {
          "internalType": "address",
          "name": "owner",
          "type": "address"
        }
      ],
      "name": "balanceOf",
      "outputs": [
        {
          "internalType": "uint256",
          "name": "",
          "type": "uint256"
        }
      ],
      "stateMutability": "view",
      "type": "function",
      "constant": true
    },
    {
      "inputs": [
        {
          "internalType": "address",
          "name": "",
          "type": "address"
        }
      ],
      "name": "boosterCreditsOwned",
      "outputs": [
        {
          "internalType": "uint256",
          "name": "",
          "type": "uint256"
        }
      ],
      "stateMutability": "view",
      "type": "function",
      "constant": true
    },
    {
      "inputs": [
        {
          "internalType": "uint256",
          "name": "tokenId",
          "type": "uint256"
        }
      ],
      "name": "burn",
      "outputs": [],
      "stateMutability": "nonpayable",
      "type": "function"
    },
    {
      "inputs": [
        {
          "internalType": "uint256",
          "name": "zoomWager",
          "type": "uint256"
        }
      ],
      "name": "burnAndBoost",
      "outputs": [
        {
          "internalType": "uint16[7]",
          "name": "",
          "type": "uint16[7]"
        }
      ],
      "stateMutability": "nonpayable",
      "type": "function"
    },
    {
      "inputs": [
        {
          "internalType": "uint16",
          "name": "",
          "type": "uint16"
        }
      ],
      "name": "cardTypeToEdition",
      "outputs": [
        {
          "internalType": "uint256",
          "name": "",
          "type": "uint256"
        }
      ],
      "stateMutability": "view",
      "type": "function",
      "constant": true
    },
    {
      "inputs": [
        {
          "internalType": "address",
          "name": "",
          "type": "address"
        },
        {
          "internalType": "uint16",
          "name": "",
          "type": "uint16"
        }
      ],
      "name": "cardTypesOwned",
      "outputs": [
        {
          "internalType": "bool",
          "name": "",
          "type": "bool"
        }
      ],
      "stateMutability": "view",
      "type": "function",
      "constant": true
    },
    {
      "inputs": [
        {
          "internalType": "uint256",
          "name": "tokenId",
          "type": "uint256"
        }
      ],
      "name": "getApproved",
      "outputs": [
        {
          "internalType": "address",
          "name": "",
          "type": "address"
        }
      ],
      "stateMutability": "view",
      "type": "function",
      "constant": true
    },
    {
      "inputs": [
        {
          "internalType": "uint256",
          "name": "wager",
          "type": "uint256"
        }
      ],
      "name": "getLambda",
      "outputs": [
        {
          "internalType": "uint256",
          "name": "",
          "type": "uint256"
        }
      ],
      "stateMutability": "nonpayable",
      "type": "function"
    },
    {
      "inputs": [
        {
          "internalType": "uint256",
          "name": "_tokenId",
          "type": "uint256"
        }
      ],
      "name": "getNFTData",
      "outputs": [
        {
          "internalType": "uint16",
          "name": "",
          "type": "uint16"
        },
        {
          "internalType": "uint256",
          "name": "",
          "type": "uint256"
        }
      ],
      "stateMutability": "view",
      "type": "function",
      "constant": true
    },
    {
      "inputs": [
        {
          "internalType": "uint256",
          "name": "wager",
          "type": "uint256"
        }
      ],
      "name": "getProbs",
      "outputs": [
        {
          "internalType": "uint16",
          "name": "",
          "type": "uint16"
        },
        {
          "internalType": "uint16",
          "name": "",
          "type": "uint16"
        },
        {
          "internalType": "uint16",
          "name": "",
          "type": "uint16"
        },
        {
          "internalType": "uint16",
          "name": "",
          "type": "uint16"
        }
      ],
      "stateMutability": "nonpayable",
      "type": "function"
    },
    {
      "inputs": [],
      "name": "getTokensByRarity",
      "outputs": [
        {
          "internalType": "uint256",
          "name": "",
          "type": "uint256"
        },
        {
          "internalType": "uint256",
          "name": "",
          "type": "uint256"
        },
        {
          "internalType": "uint256",
          "name": "",
          "type": "uint256"
        },
        {
          "internalType": "uint256",
          "name": "",
          "type": "uint256"
        },
        {
          "internalType": "uint256",
          "name": "",
          "type": "uint256"
        },
        {
          "internalType": "uint256",
          "name": "",
          "type": "uint256"
        }
      ],
      "stateMutability": "view",
      "type": "function",
      "constant": true
    },
    {
      "inputs": [
        {
          "internalType": "address",
          "name": "owner",
          "type": "address"
        },
        {
          "internalType": "address",
          "name": "operator",
          "type": "address"
        }
      ],
      "name": "isApprovedForAll",
      "outputs": [
        {
          "internalType": "bool",
          "name": "",
          "type": "bool"
        }
      ],
      "stateMutability": "view",
      "type": "function",
      "constant": true
    },
    {
      "inputs": [
        {
          "internalType": "uint16",
          "name": "_cardTypeId",
          "type": "uint16"
        },
        {
          "internalType": "string",
          "name": "_name",
          "type": "string"
        },
        {
          "internalType": "string",
          "name": "_set",
          "type": "string"
        },
        {
          "internalType": "uint8",
          "name": "_assetType",
          "type": "uint8"
        },
        {
          "internalType": "uint8",
          "name": "_notStoreOrBonus",
          "type": "uint8"
        },
        {
          "internalType": "uint8",
          "name": "_rarity",
          "type": "uint8"
        },
        {
          "internalType": "uint16",
          "name": "_totalAvailable",
          "type": "uint16"
        },
        {
          "internalType": "uint256",
          "name": "_weiCost",
          "type": "uint256"
        },
        {
          "internalType": "uint256",
          "name": "_buyZoom",
          "type": "uint256"
        },
        {
          "internalType": "uint256",
          "name": "_sacrificeZoom",
          "type": "uint256"
        },
        {
          "internalType": "uint256",
          "name": "_unlockZoom",
          "type": "uint256"
        },
        {
          "internalType": "uint8",
          "name": "_cardLevel",
          "type": "uint8"
        }
      ],
      "name": "loadNewCardType",
      "outputs": [],
      "stateMutability": "nonpayable",
      "type": "function"
    },
    {
      "inputs": [],
      "name": "maxBoostersRewards",
      "outputs": [
        {
          "internalType": "uint16",
          "name": "",
          "type": "uint16"
        }
      ],
      "stateMutability": "view",
      "type": "function",
      "constant": true
    },
    {
      "inputs": [],
      "name": "name",
      "outputs": [
        {
          "internalType": "string",
          "name": "",
          "type": "string"
        }
      ],
      "stateMutability": "view",
      "type": "function",
      "constant": true
    },
    {
      "inputs": [
        {
          "internalType": "uint256",
          "name": "",
          "type": "uint256"
        }
      ],
      "name": "nfts",
      "outputs": [
        {
          "internalType": "uint16",
          "name": "cardTypeId",
          "type": "uint16"
        },
        {
          "internalType": "uint256",
          "name": "editionNumber",
          "type": "uint256"
        }
      ],
      "stateMutability": "view",
      "type": "function",
      "constant": true
    },
    {
      "inputs": [],
      "name": "owner",
      "outputs": [
        {
          "internalType": "address",
          "name": "",
          "type": "address"
        }
      ],
      "stateMutability": "view",
      "type": "function",
      "constant": true
    },
    {
      "inputs": [
        {
          "internalType": "uint256",
          "name": "tokenId",
          "type": "uint256"
        }
      ],
      "name": "ownerOf",
      "outputs": [
        {
          "internalType": "address",
          "name": "",
          "type": "address"
        }
      ],
      "stateMutability": "view",
      "type": "function",
      "constant": true
    },
    {
      "inputs": [],
      "name": "paused",
      "outputs": [
        {
          "internalType": "bool",
          "name": "",
          "type": "bool"
        }
      ],
      "stateMutability": "view",
      "type": "function",
      "constant": true
    },
    {
      "inputs": [],
      "name": "renounceOwnership",
      "outputs": [],
      "stateMutability": "nonpayable",
      "type": "function"
    },
    {
      "inputs": [
        {
          "internalType": "address",
          "name": "from",
          "type": "address"
        },
        {
          "internalType": "address",
          "name": "to",
          "type": "address"
        },
        {
          "internalType": "uint256",
          "name": "tokenId",
          "type": "uint256"
        }
      ],
      "name": "safeTransferFrom",
      "outputs": [],
      "stateMutability": "nonpayable",
      "type": "function"
    },
    {
      "inputs": [
        {
          "internalType": "address",
          "name": "from",
          "type": "address"
        },
        {
          "internalType": "address",
          "name": "to",
          "type": "address"
        },
        {
          "internalType": "uint256",
          "name": "tokenId",
          "type": "uint256"
        },
        {
          "internalType": "bytes",
          "name": "_data",
          "type": "bytes"
        }
      ],
      "name": "safeTransferFrom",
      "outputs": [],
      "stateMutability": "nonpayable",
      "type": "function"
    },
    {
      "inputs": [
        {
          "internalType": "address",
          "name": "operator",
          "type": "address"
        },
        {
          "internalType": "bool",
          "name": "approved",
          "type": "bool"
        }
      ],
      "name": "setApprovalForAll",
      "outputs": [],
      "stateMutability": "nonpayable",
      "type": "function"
    },
    {
      "inputs": [
        {
          "internalType": "uint16",
          "name": "_cardTypeId",
          "type": "uint16"
        },
        {
          "internalType": "uint256",
          "name": "_hoursFromNow",
          "type": "uint256"
        }
      ],
      "name": "setStoreRelease",
      "outputs": [],
      "stateMutability": "nonpayable",
      "type": "function"
    },
    {
      "inputs": [
        {
          "internalType": "address",
          "name": "",
          "type": "address"
        }
      ],
      "name": "sponsors",
      "outputs": [
        {
          "internalType": "address",
          "name": "",
          "type": "address"
        }
      ],
      "stateMutability": "view",
      "type": "function",
      "constant": true
    },
    {
      "inputs": [
        {
          "internalType": "uint16",
          "name": "",
          "type": "uint16"
        }
      ],
      "name": "storeReleaseTime",
      "outputs": [
        {
          "internalType": "uint256",
          "name": "",
          "type": "uint256"
        }
      ],
      "stateMutability": "view",
      "type": "function",
      "constant": true
    },
    {
      "inputs": [],
      "name": "symbol",
      "outputs": [
        {
          "internalType": "string",
          "name": "",
          "type": "string"
        }
      ],
      "stateMutability": "view",
      "type": "function",
      "constant": true
    },
    {
      "inputs": [
        {
          "internalType": "uint256",
          "name": "index",
          "type": "uint256"
        }
      ],
      "name": "tokenByIndex",
      "outputs": [
        {
          "internalType": "uint256",
          "name": "",
          "type": "uint256"
        }
      ],
      "stateMutability": "view",
      "type": "function",
      "constant": true
    },
    {
      "inputs": [
        {
          "internalType": "address",
          "name": "owner",
          "type": "address"
        },
        {
          "internalType": "uint256",
          "name": "index",
          "type": "uint256"
        }
      ],
      "name": "tokenOfOwnerByIndex",
      "outputs": [
        {
          "internalType": "uint256",
          "name": "",
          "type": "uint256"
        }
      ],
      "stateMutability": "view",
      "type": "function",
      "constant": true
    },
    {
      "inputs": [
        {
          "internalType": "uint256",
          "name": "tokenId",
          "type": "uint256"
        }
      ],
      "name": "tokenURI",
      "outputs": [
        {
          "internalType": "string",
          "name": "",
          "type": "string"
        }
      ],
      "stateMutability": "view",
      "type": "function",
      "constant": true
    },
    {
      "inputs": [
        {
          "internalType": "uint256",
          "name": "",
          "type": "uint256"
        }
      ],
      "name": "tokensByRarity",
      "outputs": [
        {
          "internalType": "uint256",
          "name": "",
          "type": "uint256"
        }
      ],
      "stateMutability": "view",
      "type": "function",
      "constant": true
    },
    {
      "inputs": [],
      "name": "totalBoostersRewarded",
      "outputs": [
        {
          "internalType": "uint16",
          "name": "",
          "type": "uint16"
        }
      ],
      "stateMutability": "view",
      "type": "function",
      "constant": true
    },
    {
      "inputs": [],
      "name": "totalCardTypes",
      "outputs": [
        {
          "internalType": "uint16",
          "name": "",
          "type": "uint16"
        }
      ],
      "stateMutability": "view",
      "type": "function",
      "constant": true
    },
    {
      "inputs": [],
      "name": "totalSupply",
      "outputs": [
        {
          "internalType": "uint256",
          "name": "",
          "type": "uint256"
        }
      ],
      "stateMutability": "view",
      "type": "function",
      "constant": true
    },
    {
      "inputs": [
        {
          "internalType": "address",
          "name": "from",
          "type": "address"
        },
        {
          "internalType": "address",
          "name": "to",
          "type": "address"
        },
        {
          "internalType": "uint256",
          "name": "tokenId",
          "type": "uint256"
        }
      ],
      "name": "transferFrom",
      "outputs": [],
      "stateMutability": "nonpayable",
      "type": "function"
    },
    {
      "inputs": [
        {
          "internalType": "address",
          "name": "newOwner",
          "type": "address"
        }
      ],
      "name": "transferOwnership",
      "outputs": [],
      "stateMutability": "nonpayable",
      "type": "function"
    },
    {
      "inputs": [],
      "name": "weiCostOfBooster",
      "outputs": [
        {
          "internalType": "uint256",
          "name": "",
          "type": "uint256"
        }
      ],
      "stateMutability": "view",
      "type": "function",
      "constant": true
    },
    {
      "inputs": [],
      "name": "zoomGainedPerBoosterCredit",
      "outputs": [
        {
          "internalType": "uint256",
          "name": "",
          "type": "uint256"
        }
      ],
      "stateMutability": "view",
      "type": "function",
      "constant": true
    },
    {
      "inputs": [],
      "name": "zoomTokenContract",
      "outputs": [
        {
          "internalType": "address",
          "name": "",
          "type": "address"
        }
      ],
      "stateMutability": "view",
      "type": "function",
      "constant": true
    },
    {
      "inputs": [
        {
          "internalType": "uint16",
          "name": "_cardTypeId",
          "type": "uint16"
        }
      ],
      "name": "buyCard",
      "outputs": [],
      "stateMutability": "payable",
      "type": "function",
      "payable": true
    },
    {
      "inputs": [
        {
          "internalType": "uint16",
          "name": "_cardTypeId",
          "type": "uint16"
        }
      ],
      "name": "getFreeCard",
      "outputs": [],
      "stateMutability": "payable",
      "type": "function",
      "payable": true
    },
    {
      "inputs": [
        {
          "internalType": "uint256[]",
          "name": "_tokenIds",
          "type": "uint256[]"
        }
      ],
      "name": "sacrificeNFTs",
      "outputs": [],
      "stateMutability": "nonpayable",
      "type": "function"
    },
    {
      "inputs": [
        {
          "internalType": "address",
          "name": "_player",
          "type": "address"
        }
      ],
      "name": "getBonusBoosters",
      "outputs": [],
      "stateMutability": "nonpayable",
      "type": "function"
    },
    {
      "inputs": [
        {
          "internalType": "address",
          "name": "_mySponsor",
          "type": "address"
        }
      ],
      "name": "linkMySponsor",
      "outputs": [],
      "stateMutability": "nonpayable",
      "type": "function"
    },
    {
      "inputs": [
        {
          "internalType": "uint256",
          "name": "_amount",
          "type": "uint256"
        }
      ],
      "name": "buyBoosterCredits",
      "outputs": [
        {
          "internalType": "bool",
          "name": "",
          "type": "bool"
        }
      ],
      "stateMutability": "payable",
      "type": "function",
      "payable": true
    },
    {
      "inputs": [],
      "name": "buyBoosterAndMintNFT",
      "outputs": [
        {
          "internalType": "bool",
          "name": "",
          "type": "bool"
        }
      ],
      "stateMutability": "payable",
      "type": "function",
      "payable": true
    },
    {
      "inputs": [
        {
          "internalType": "uint256",
          "name": "zoomWager",
          "type": "uint256"
        }
      ],
      "name": "mintBoosterNFT",
      "outputs": [
        {
          "internalType": "bool",
          "name": "",
          "type": "bool"
        }
      ],
      "stateMutability": "nonpayable",
      "type": "function"
    },
    {
      "inputs": [
        {
          "internalType": "address",
          "name": "_winner",
          "type": "address"
        },
        {
          "internalType": "uint8",
          "name": "_amount",
          "type": "uint8"
        }
      ],
      "name": "awardBoosterCredits",
      "outputs": [
        {
          "internalType": "bool",
          "name": "",
          "type": "bool"
        }
      ],
      "stateMutability": "nonpayable",
      "type": "function"
    },
    {
      "inputs": [
        {
          "internalType": "bytes4",
          "name": "interfaceId",
          "type": "bytes4"
        }
      ],
      "name": "supportsInterface",
      "outputs": [
        {
          "internalType": "bool",
          "name": "",
          "type": "bool"
        }
      ],
      "stateMutability": "view",
      "type": "function",
      "constant": true
    },
    {
      "inputs": [
        {
          "internalType": "address",
          "name": "_player",
          "type": "address"
        }
      ],
      "name": "getTimeToDailyBonus",
      "outputs": [
        {
          "internalType": "uint256",
          "name": "timeStamp",
          "type": "uint256"
        }
      ],
      "stateMutability": "view",
      "type": "function",
      "constant": true
    },
    {
      "inputs": [],
      "name": "withdraw",
      "outputs": [
        {
          "internalType": "bool",
          "name": "",
          "type": "bool"
        }
      ],
      "stateMutability": "nonpayable",
      "type": "function"
    }
  ],
  "bytecode": "0x600e805461ffff191690556101606040526000608081815260a082905260c082905260e0829052610100829052610120829052610140919091526200004990601090600762000206565b506003601a55655af3107a40006020556101f46021556022805463ffffffff191661c3501790553480156200007d57600080fd5b506040516200544438038062005444833981016040819052620000a091620002e2565b60408051808201825260088152675a6f6f6d6269657360c01b6020808301918252835180850190945260078452665a6f6f6d62696560c81b908401528151919291620000ef916000916200024e565b508051620001059060019060208401906200024e565b505050620001226200011c620001b060201b60201c565b620001b4565b600a805460ff60a01b191690556001600160a01b0381166200014357600080fd5b60408051808201909152601b8082527f68747470733a2f2f7a6f6f6d626965732e776f726c642f6e66742f000000000060209092019182526200018991601c916200024e565b50600b80546001600160a01b0319166001600160a01b03929092169190911790556200034f565b3390565b600a80546001600160a01b038381166001600160a01b0319831681179093556040519116919082907f8be0079c531659141344cd1fd0a4f28419497f9722a3daafe3b4186f6b6457e090600090a35050565b82600781019282156200023c579160200282015b828111156200023c578251829060ff169055916020019190600101906200021a565b506200024a929150620002cb565b5090565b8280546200025c9062000312565b90600052602060002090601f0160209004810192826200028057600085556200023c565b82601f106200029b57805160ff19168380011785556200023c565b828001600101855582156200023c579182015b828111156200023c578251825591602001919060010190620002ae565b5b808211156200024a5760008155600101620002cc565b600060208284031215620002f4578081fd5b81516001600160a01b03811681146200030b578182fd5b9392505050565b600181811c908216806200032757607f821691505b602082108114156200034957634e487b7160e01b600052602260045260246000fd5b50919050565b6150e5806200035f6000396000f3fe60806040526004361061036b5760003560e01c8063715018a6116101c6578063c87b56dd116100f7578063ef73cc6611610095578063f6856f181161006f578063f6856f1814610aec578063f8ae951114610b0d578063f902803514610b2d578063f93a0b3414610b4057600080fd5b8063ef73cc6614610a7f578063f2fde38b14610a9f578063f34d700714610abf57600080fd5b8063d67f37d2116100d1578063d67f37d2146109d2578063d7272116146109eb578063e985e9c514610a23578063ed6ae3b814610a6c57600080fd5b8063c87b56dd1461095c578063cc99b5cd1461097c578063d35590c21461099c57600080fd5b8063a22cb46511610164578063afa615411161013e578063afa61541146108c8578063b7e357a614610914578063b86709ca1461091c578063b88d4fde1461093c57600080fd5b8063a22cb4651461085a578063ae4cf4921461087a578063aec29b8b1461088d57600080fd5b80638da5cb5b116101a05780638da5cb5b146107e7578063912fdfcb1461080557806395d89b4114610825578063993011d91461083a57600080fd5b8063715018a6146107645780637a93696a146107795780638adb70861461079957600080fd5b806323b872dd116102a05780634d3e2e5e1161023e5780635c975abb116102185780635c975abb146106d85780636352211e146106f75780636501139a1461071757806370a082311461074457600080fd5b80634d3e2e5e1461066b5780634f6ccce71461068b57806350a59fa0146106ab57600080fd5b80632f745c591161027a5780632f745c59146105f65780633ccfd60b1461061657806342842e0e1461062b57806342966c681461064b57600080fd5b806323b872dd1461057b578063265aa6211461059b5780632895b051146105d657600080fd5b80630ef635091161030d57806316f73cde116102e757806316f73cde1461050357806318160ddd1461053057806318b51885146105455780631db18cf91461056557600080fd5b80630ef635091461049f57806312a1bf58146104cd57806314cec02f146104ed57600080fd5b8063073024481161034957806307302448146103eb578063081812fc1461040d578063095ea7b3146104455780630ad4c4f41461046557600080fd5b806301ffc9a71461037057806303666a85146103a557806306fdde03146103c9575b600080fd5b34801561037c57600080fd5b5061039061038b3660046148fb565b610b5b565b60405190151581526020015b60405180910390f35b3480156103b157600080fd5b506103bb60215481565b60405190815260200161039c565b3480156103d557600080fd5b506103de610b6c565b60405161039c9190614b77565b3480156103f757600080fd5b5061040b61040636600461469e565b610bfe565b005b34801561041957600080fd5b5061042d610428366004614a5f565b610d2b565b6040516001600160a01b03909116815260200161039c565b34801561045157600080fd5b5061040b610460366004614801565b610dc0565b34801561047157600080fd5b50610485610480366004614a5f565b610ed6565b6040805161ffff909316835260208301919091520161039c565b3480156104ab57600080fd5b50600e546104ba9061ffff1681565b60405161ffff909116815260200161039c565b3480156104d957600080fd5b5061040b6104e8366004614853565b610f1a565b3480156104f957600080fd5b506104ba61138881565b34801561050f57600080fd5b506103bb61051e366004614933565b600f6020526000908152604090205481565b34801561053c57600080fd5b506008546103bb565b34801561055157600080fd5b50600b5461042d906001600160a01b031681565b34801561057157600080fd5b506103bb60205481565b34801561058757600080fd5b5061040b6105963660046146ea565b611197565b3480156105a757600080fd5b506104856105b6366004614a5f565b6019602052600090815260409020805460019091015461ffff9091169082565b3480156105e257600080fd5b506103bb6105f1366004614a5f565b6111c9565b34801561060257600080fd5b506103bb610611366004614801565b6113a8565b34801561062257600080fd5b5061039061143e565b34801561063757600080fd5b5061040b6106463660046146ea565b61149f565b34801561065757600080fd5b5061040b610666366004614a5f565b6114ba565b34801561067757600080fd5b506103bb610686366004614a5f565b611534565b34801561069757600080fd5b506103bb6106a6366004614a5f565b61154b565b3480156106b757600080fd5b506106cb6106c6366004614a5f565b6115ec565b60405161039c9190614b42565b3480156106e457600080fd5b50600a54600160a01b900460ff16610390565b34801561070357600080fd5b5061042d610712366004614a5f565b611692565b34801561072357600080fd5b506103bb61073236600461469e565b601f6020526000908152604090205481565b34801561075057600080fd5b506103bb61075f36600461469e565b611709565b34801561077057600080fd5b5061040b611790565b34801561078557600080fd5b50610390610794366004614a5f565b6117c6565b3480156107a557600080fd5b506107b96107b4366004614a5f565b61192d565b6040805161ffff9586168152938516602085015291841691830191909152909116606082015260800161039c565b3480156107f357600080fd5b50600a546001600160a01b031661042d565b34801561081157600080fd5b5061040b61082036600461469e565b611c3c565b34801561083157600080fd5b506103de611d8d565b34801561084657600080fd5b5061039061085536600461482a565b611d9c565b34801561086657600080fd5b5061040b61087536600461479e565b611f16565b61040b610888366004614933565b611fdb565b34801561089957600080fd5b506103906108a83660046147d8565b601760209081526000928352604080842090915290825290205460ff1681565b3480156108d457600080fd5b50601154601254601354601454601554601654604080519687526020870195909552938501929092526060840152608083015260a082015260c00161039c565b610390612366565b34801561092857600080fd5b5061040b610937366004614a44565b612450565b34801561094857600080fd5b5061040b610957366004614725565b612610565b34801561096857600080fd5b506103de610977366004614a5f565b612648565b34801561098857600080fd5b5061040b61099736600461494d565b612722565b3480156109a857600080fd5b5061042d6109b736600461469e565b601d602052600090815260409020546001600160a01b031681565b3480156109de57600080fd5b506103bb64e8d4a5100081565b3480156109f757600080fd5b50610a0b610a06366004614933565b612c0d565b60405161039c9c9b9a99989796959493929190614d29565b348015610a2f57600080fd5b50610390610a3e3660046146b8565b6001600160a01b03918216600090815260056020908152604080832093909416825291909152205460ff1690565b61040b610a7a366004614933565b612d8c565b348015610a8b57600080fd5b506104ba610a9a366004614a8f565b6130ff565b348015610aab57600080fd5b5061040b610aba36600461469e565b613146565b348015610acb57600080fd5b506103bb610ada366004614933565b60186020526000908152604090205481565b348015610af857600080fd5b506022546104ba9062010000900461ffff1681565b348015610b1957600080fd5b506103bb610b2836600461469e565b6131de565b610390610b3b366004614a5f565b613227565b348015610b4c57600080fd5b506022546104ba9061ffff1681565b6000610b66826132f1565b92915050565b606060008054610b7b90614fab565b80601f0160208091040260200160405190810160405280929190818152602001828054610ba790614fab565b8015610bf45780601f10610bc957610100808354040283529160200191610bf4565b820191906000526020600020905b815481529060010190602001808311610bd757829003601f168201915b5050505050905090565b610c07816131de565b421015610c6f5760405162461bcd60e51b815260206004820152602b60248201527f43616e277420636c61696d206265666f72652074696d6520746f20636c61696d60448201526a206e65787420626f6e757360a81b60648201526084015b60405180910390fd5b610c7b42617080614e0c565b6001600160a01b0382166000908152601e6020526040902055610c9f33600a613316565b610ca9600a61339c565b6001600160a01b0381166000908152601f60205260408120805460029290610cd2908490614e0c565b90915550506001600160a01b0381166000818152601f6020908152604091829020548251938452908301527fdea0c85af515c9fffcca886846213edc28206526b243af2f064b6962032ce185910160405180910390a150565b6000818152600260205260408120546001600160a01b0316610da45760405162461bcd60e51b815260206004820152602c60248201527f4552433732313a20617070726f76656420717565727920666f72206e6f6e657860448201526b34b9ba32b73a103a37b5b2b760a11b6064820152608401610c66565b506000908152600460205260409020546001600160a01b031690565b6000610dcb82611692565b9050806001600160a01b0316836001600160a01b03161415610e395760405162461bcd60e51b815260206004820152602160248201527f4552433732313a20617070726f76616c20746f2063757272656e74206f776e656044820152603960f91b6064820152608401610c66565b336001600160a01b0382161480610e555750610e558133610a3e565b610ec75760405162461bcd60e51b815260206004820152603860248201527f4552433732313a20617070726f76652063616c6c6572206973206e6f74206f7760448201527f6e6572206e6f7220617070726f76656420666f7220616c6c00000000000000006064820152608401610c66565b610ed18383613454565b505050565b60008181526002602052604081205481906001600160a01b0316610ef957600080fd5b50506000908152601960205260409020805460019091015461ffff90911691565b61010081511115610f935760405162461bcd60e51b815260206004820152603b60248201527f4c697374206f6620746f6b656e7320746f20736163726966696365206d75737460448201527f206265206c657373207468616e2032353720617420612074696d6500000000006064820152608401610c66565b6000805b825181101561117f57610fd0838281518110610fc357634e487b7160e01b600052603260045260246000fd5b60200260200101516114ba565b600060196000858481518110610ff657634e487b7160e01b600052603260045260246000fd5b602090810291909101810151825281810192909252604090810160009081205461ffff16808252600c909352206003015490915060019060109062010000900460ff166007811061105757634e487b7160e01b600052603260045260246000fd5b0160008282546110679190614f68565b909155505061ffff81166000908152600c602052604090206006015461108d9084614e0c565b9250601960008584815181106110b357634e487b7160e01b600052603260045260246000fd5b60209081029190910181015182528101919091526040016000908120805461ffff19168155600101557f892362fdae2aa1fec0517f70658abd25f4ea8757b1b0675bce3c84a2425b80b83385848151811061111e57634e487b7160e01b600052603260045260246000fd5b60209081029190910181015161ffff85166000818152600c84526040908190206006015481516001600160a01b0390961686529385019290925290830152606082015260800160405180910390a1508061117781615008565b915050610f97565b5061118a3382613316565b6111938161339c565b5050565b6111a2335b826134c2565b6111be5760405162461bcd60e51b8152600401610c6690614cd8565b610ed18383836135b9565b6000806113a16111e36905c19521635a6848000085614e24565b604080517ff8f9cbfae6cc78fbefe7cdc3a1793dfcf4f0e8bbd8cec470b6a28a7a5a3e1efd81527ff5ecf1b3e9debc68e1d9cfabc5997135bfb7a7a3938b7b606b5b4b3f2f1f0ffe60208201527ff6e4ed9ff2d6b458eadcdf97bd91692de2d4da8fd2d0ac50c6ae9a8272523616818301527fc8c0b887b0a8a4489c948c7f847c6125746c645c544c444038302820181008ff60608201527ff7cae577eec2a03cf3bad76fb589591debb2dd67e0aa9834bea6925f6a4a2e0e60808201527fe39ed557db96902cd38ed14fad815115c786af479b7e8324736353433727170760a08201527fc976c13bb96e881cb166a933a55e490d9d56952b8d4e801485467d236242260660c08201527f753a6d1b65325d0c552a4d1345224105391a310b29122104190a11030902010060e0820152610100808201909252600160f81b6001600160801b68010000000000000000640100000000620100006010600460026000198c019081041790810417908104178881041790810417908104179081041790810417017e818283848586878898a8b8c8d8e8f929395969799a9b9d9e9faaeb6bedeeff0281900460ff039091015104600160ff1b909211020190565b9392505050565b60006113b383611709565b82106114155760405162461bcd60e51b815260206004820152602b60248201527f455243373231456e756d657261626c653a206f776e657220696e646578206f7560448201526a74206f6620626f756e647360a81b6064820152608401610c66565b506001600160a01b03919091166000908152600660209081526040808320938352929052205490565b600a546000906001600160a01b0316331461146b5760405162461bcd60e51b8152600401610c6690614ca3565b60405133904780156108fc02916000818181858888f19350505050158015611497573d6000803e3d6000fd5b506001905090565b610ed183838360405180602001604052806000815250612610565b6114c33361119c565b6115285760405162461bcd60e51b815260206004820152603060248201527f4552433732314275726e61626c653a2063616c6c6572206973206e6f74206f7760448201526f1b995c881b9bdc88185c1c1c9bdd995960821b6064820152608401610c66565b61153181613764565b50565b6010816007811061154457600080fd5b0154905081565b600061155660085490565b82106115b95760405162461bcd60e51b815260206004820152602c60248201527f455243373231456e756d657261626c653a20676c6f62616c20696e646578206f60448201526b7574206f6620626f756e647360a01b6064820152608401610c66565b600882815481106115da57634e487b7160e01b600052603260045260246000fd5b90600052602060002001549050919050565b6115f4614518565b8161163a5750506040805160e08101825260008082526020820181905291810191909152600160608201526101f46080820152610dac60a082015261271060c082015290565b6000806000806116498661192d565b6040805160e0810182526000808252602082018190529181019190915261ffff9182166060820152918116608083015291821660a0820152911660c08201529695505050505050565b6000818152600260205260408120546001600160a01b031680610b665760405162461bcd60e51b815260206004820152602960248201527f4552433732313a206f776e657220717565727920666f72206e6f6e657869737460448201526832b73a103a37b5b2b760b91b6064820152608401610c66565b60006001600160a01b0382166117745760405162461bcd60e51b815260206004820152602a60248201527f4552433732313a2062616c616e636520717565727920666f7220746865207a65604482015269726f206164647265737360b01b6064820152608401610c66565b506001600160a01b031660009081526003602052604090205490565b600a546001600160a01b031633146117ba5760405162461bcd60e51b8152600401610c6690614ca3565b6117c4600061380b565b565b336000908152601f60205260408120546118225760405162461bcd60e51b815260206004820152601860248201527f4e6f20426f6f737465722063726564697473206f776e656400000000000000006044820152606401610c66565b8115806118415750620f4240821015801561184157506301312d008211155b61189b5760405162461bcd60e51b815260206004820152602560248201527f5761676572206d7573742062652030206f72206265747765656e207468616e20604482015264312d32304d60d81b6064820152608401610c66565b336000908152601f602052604081208054600192906118bb908490614f68565b90915550600090506118cc8361385d565b90505b6118d881613adf565b6118eb576118e581613adf565b506118cf565b6040805160ff83168152905133917f9110cd00ebf5075b22eead1dbb6c4f4c5b7bd329bc646333c004dfb9e8c21f0b919081900360200190a250600192915050565b604080516080808201835260018083526002602080850182905260038587015260046060808701919091528651948501875292845283015260069382019390935260189281019290925260009182918291829190611989614536565b611991614536565b60005b6004811015611a51578381600481106119bd57634e487b7160e01b600052603260045260246000fd5b602002015160ff166119ce8b6111c9565b8683600481106119ee57634e487b7160e01b600052603260045260246000fd5b60200201516119fc8d6111c9565b611a069190614e7b565b611a109190614e24565b611a1a9190614e24565b838260048110611a3a57634e487b7160e01b600052603260045260246000fd5b602002015280611a4981615008565b915050611994565b5060608201516040830151602084015184516000939291611a7191614e0c565b611a7b9190614e0c565b611a859190614e0c565b905060005b6004811015611b0f5781848260048110611ab457634e487b7160e01b600052603260045260246000fd5b6020020151611ac590612710614f26565b611acf9190614e24565b838260048110611aef57634e487b7160e01b600052603260045260246000fd5b61ffff909216602092909202015280611b0781615008565b915050611a8a565b507f381a6d79bd88ded71c69cb326547122c85cb8f40100c82484b23bfde594f1e4d6000610fa08460036020020151611b489190614f45565b6040850151610fa090611b5d90612710614f45565b611b679190614f45565b60208601516105dc90611b7c90612710614f45565b611b869190614f45565b8651611b9490612710614f45565b6040805161ffff96871681529486166020860152928516848401529084166060840152909216608082015290519081900360a00190a18151611bd890612710614f45565b60208301516105dc90611bed90612710614f45565b611bf79190614f45565b6040840151610fa090611c0c90612710614f45565b611c169190614f45565b6060850151611c2890610fa090614f45565b985098509850985050505050509193509193565b6001600160a01b038116611c925760405162461bcd60e51b815260206004820152601b60248201527f53656e6420612076616c69642073706f6e736f722077616c6c657400000000006044820152606401610c66565b336000908152601d60205260409020546001600160a01b031615611d025760405162461bcd60e51b815260206004820152602160248201527f596f75206861766520616c7265616479206c696e6b656420612073706f6e736f6044820152603960f91b6064820152608401610c66565b336001600160a01b0382161415611d5b5760405162461bcd60e51b815260206004820152601b60248201527f596f752063616e6e6f742073706f6e736f7220796f757273656c6600000000006044820152606401610c66565b336000908152601d6020526040902080546001600160a01b0319166001600160a01b0383161790556111936002613adf565b606060018054610b7b90614fab565b600a546000906001600160a01b03163314611dc95760405162461bcd60e51b8152600401610c6690614ca3565b60225461ffff80821691611de89160ff86169162010000900416614def565b61ffff161115611e505760405162461bcd60e51b815260206004820152602d60248201527f52656163686564206d61782e206e756d626572206f6620426f6f73746572206360448201526c7265646974207265776172647360981b6064820152608401610c66565b8160ff16602260028282829054906101000a900461ffff16611e729190614def565b92506101000a81548161ffff021916908361ffff1602179055508160ff16601f6000856001600160a01b03166001600160a01b031681526020019081526020016000206000828254611ec49190614e0c565b9091555050604080516001600160a01b038516815260ff841660208201527f0db7c2749c43f1a3f16904833bf2cf21b6f6e675613def2bd07ec6b2de65bf8b910160405180910390a150600192915050565b6001600160a01b038216331415611f6f5760405162461bcd60e51b815260206004820152601960248201527f4552433732313a20617070726f766520746f2063616c6c6572000000000000006044820152606401610c66565b3360008181526005602090815260408083206001600160a01b03871680855290835292819020805460ff191686151590811790915590519081529192917f17307eab39ab6107e8899845ad3d59bd9653f200f220920489ca2b5937696c31910160405180910390a35050565b61ffff8082166000908152600c60205260409020541661203d5760405162461bcd60e51b815260206004820152601b60248201527f43617264207479706520494420646f6573206e6f7420657869737400000000006044820152606401610c66565b61ffff81166000908152600c6020526040902060030154610100900460ff16156120795760405162461bcd60e51b8152600401610c6690614c1f565b61ffff81166000908152600f60205260409020544210156120dc5760405162461bcd60e51b815260206004820152601b60248201527f43617264206e6f742072656c65617365642066726f6d2073686f7000000000006044820152606401610c66565b61ffff81166000908152601860205260409020546120fb906001614e0c565b61ffff8083166000908152600c6020526040902060030154630100000090041610156121395760405162461bcd60e51b8152600401610c6690614bdc565b33600090815260176020908152604080832061ffff8516845290915290205460ff16156121785760405162461bcd60e51b8152600401610c6690614c62565b61ffff81166000908152600c60205260409020600401543410156121f65760405162461bcd60e51b815260206004820152602f60248201527f596f752068617665206e6f74207061696420656e6f756768204d4f565220746f60448201526e206d696e742074686973207479706560881b6064820152608401610c66565b600b546000906001600160a01b03166370a08231336040516001600160e01b031960e084901b1681526001600160a01b03909116600482015260240160206040518083038186803b15801561224a57600080fd5b505afa15801561225e573d6000803e3d6000fd5b505050506040513d601f19601f820116820180604052508101906122829190614a77565b61ffff83166000908152600c602052604090206007015490915081108015906122c0575061ffff82166000908152600c602052604090206004015434145b806122eb575061ffff82166000908152600c60205260409020600401546122e8906003614f26565b34145b61235d5760405162461bcd60e51b815260206004820152603d60248201527f596f7520646f206e6f74206861766520746865207265717569726564205a6f6f60448201527f6d2062616c616e6365204f72204d4f5652202b6571756976616c656e740000006064820152608401610c66565b61119382613bdd565b60006020543410156123cd5760405162461bcd60e51b815260206004820152602a60248201527f436f737420746f2062757920616e64206d696e74206120426f6f73746572204e604482015269465420697320302e303160b01b6064820152608401610c66565b6123d933602154613316565b6123e460215461339c565b60006123f0600061385d565b90505b6123fc81613adf565b61240f5761240981613adf565b506123f3565b6040805160ff83168152905133917f9110cd00ebf5075b22eead1dbb6c4f4c5b7bd329bc646333c004dfb9e8c21f0b919081900360200190a2600191505090565b600a546001600160a01b0316331461247a5760405162461bcd60e51b8152600401610c6690614ca3565b61ffff8083166000818152600c6020526040902054909116146124ea5760405162461bcd60e51b815260206004820152602260248201527f546869732063617264547970654964206973206e6f7420646566696e65642079604482015261195d60f21b6064820152608401610c66565b61088e8111156125625760405162461bcd60e51b815260206004820152603960248201527f686f75727346726f6d4e6f77206d757374206265206120706f7369746976652060448201527f6e756d62657220616e64206c657373207468616e2032313930000000000000006064820152608401610c66565b61ffff82166000908152600f60205260409020544211156125df5760405162461bcd60e51b815260206004820152603160248201527f43616e206f6e6c79206368616e67652072656c656173652074696d6573206f6e60448201527020556e72656c656173656420636172647360781b6064820152608401610c66565b6125eb81610e10614f26565b6125f59042614e0c565b61ffff9092166000908152600f602052604090209190915550565b61261a33836134c2565b6126365760405162461bcd60e51b8152600401610c6690614cd8565b61264284848484613d7b565b50505050565b6000818152600260205260409020546060906001600160a01b03166126c75760405162461bcd60e51b815260206004820152602f60248201527f4552433732314d657461646174613a2055524920717565727920666f72206e6f60448201526e3732bc34b9ba32b73a103a37b5b2b760891b6064820152608401610c66565b60006126d1613dae565b905060008151116126f157604051806020016040528060008152506113a1565b806126fb84613dbd565b60405160200161270c929190614ad6565b6040516020818303038152906040529392505050565b600a546001600160a01b0316331461274c5760405162461bcd60e51b8152600401610c6690614ca3565b600e5461138861ffff90911611156127b15760405162461bcd60e51b815260206004820152602260248201527f4d6178696d756d206f6620353030302063617264205479706573207265616368604482015261195960f21b6064820152608401610c66565b61ffff808d166000908152600c602052604090205416156128315760405162461bcd60e51b815260206004820152603460248201527f4e6f7420616c6c6f77656420746f2075706461746520616e206578697374696e604482015273339031b0b9322a3cb832903232b334b734ba37b760611b6064820152608401610c66565b60ff8816158015612846575060018661ffff16105b156128a25760405162461bcd60e51b815260206004820152602660248201527f496e2073746f7265207479706573206d757374206265206c696d6974656420656044820152653234ba34b7b760d11b6064820152608401610c66565b60008860ff161180156128b55750600085115b1561290c5760405162461bcd60e51b815260206004820152602160248201527f426f6f737465722f426f6e7573206d6179204e4f542068617665206120636f736044820152601d60fa1b6064820152608401610c66565b61ffff8c166000818152600c60209081526040909120805461ffff191690921782558c5161294092600101918e0190614554565b5061ffff8c166000908152600c602090815260409091208b5161296b926002909201918d0190614554565b5088600c60008e61ffff1661ffff16815260200190815260200160002060030160006101000a81548160ff021916908360ff16021790555087600c60008e61ffff1661ffff16815260200190815260200160002060030160016101000a81548160ff021916908360ff16021790555086600c60008e61ffff1661ffff16815260200190815260200160002060030160026101000a81548160ff021916908360ff16021790555085600c60008e61ffff1661ffff16815260200190815260200160002060030160036101000a81548161ffff021916908361ffff16021790555084600c60008e61ffff1661ffff1681526020019081526020016000206004018190555083600c60008e61ffff1661ffff1681526020019081526020016000206005018190555082600c60008e61ffff1661ffff1681526020019081526020016000206006018190555081600c60008e61ffff1661ffff1681526020019081526020016000206007018190555080600c60008e61ffff1661ffff16815260200190815260200160002060080160006101000a81548160ff021916908360ff160217905550600e600081819054906101000a900461ffff1680929190612b2d90614fe6565b91906101000a81548161ffff021916908361ffff1602179055505060008860ff161115612bd657600d60008860ff1660ff1681526020019081526020016000208c90806001815401808255809150506001900390600052602060002090601091828204019190066002029091909190916101000a81548161ffff021916908361ffff16021790555042600f60008e61ffff1661ffff168152602001908152602001600020819055505b60ff8816612bff57612bea42610258614e0c565b61ffff8d166000908152600f60205260409020555b505050505050505050505050565b600c602052600090815260409020805460018201805461ffff9092169291612c3490614fab565b80601f0160208091040260200160405190810160405280929190818152602001828054612c6090614fab565b8015612cad5780601f10612c8257610100808354040283529160200191612cad565b820191906000526020600020905b815481529060010190602001808311612c9057829003601f168201915b505050505090806002018054612cc290614fab565b80601f0160208091040260200160405190810160405280929190818152602001828054612cee90614fab565b8015612d3b5780601f10612d1057610100808354040283529160200191612d3b565b820191906000526020600020905b815481529060010190602001808311612d1e57829003601f168201915b50505060038401546004850154600586015460068701546007880154600890980154969760ff808616986101008704821698506201000087048216975061ffff63010000009097049690961695168c565b61ffff8082166000908152600c602052604090205416612dee5760405162461bcd60e51b815260206004820152601b60248201527f43617264207479706520494420646f6573206e6f7420657869737400000000006044820152606401610c66565b61ffff81166000908152600c6020526040902060030154610100900460ff1615612e2a5760405162461bcd60e51b8152600401610c6690614c1f565b61ffff81166000908152600f6020526040902054421015612e8d5760405162461bcd60e51b815260206004820152601b60248201527f43617264206e6f742072656c65617365642066726f6d2073686f7000000000006044820152606401610c66565b61ffff8116600090815260186020526040902054612eac906001614e0c565b61ffff8083166000908152600c602052604090206003015463010000009004161015612eea5760405162461bcd60e51b8152600401610c6690614bdc565b33600090815260176020908152604080832061ffff8516845290915290205460ff1615612f295760405162461bcd60e51b8152600401610c6690614c62565b61ffff81166000908152600c602052604090206004015415612f9c5760405162461bcd60e51b815260206004820152602660248201527f596f752061726520617474656d7074696e6720746f206d696e7420612070616960448201526564207479706560d01b6064820152608401610c66565b600b546000906001600160a01b03166370a08231336040516001600160e01b031960e084901b1681526001600160a01b03909116600482015260240160206040518083038186803b158015612ff057600080fd5b505afa158015613004573d6000803e3d6000fd5b505050506040513d601f19601f820116820180604052508101906130289190614a77565b61ffff83166000908152600c60205260408120600701549192509061304e90600a614f26565b61305d9064e8d4a51000614f26565b61ffff84166000908152600c60205260409020600701549091508210158061308457508034145b6130f65760405162461bcd60e51b815260206004820152603c60248201527f596f7520646f206e6f74206861766520746865207265717569726564205a6f6f60448201527f6d2062616c616e6365204f72204d4f5652206571756976616c656e74000000006064820152608401610c66565b610ed183613bdd565b600d602052816000526040600020818154811061311b57600080fd5b9060005260206000209060109182820401919006600202915091509054906101000a900461ffff1681565b600a546001600160a01b031633146131705760405162461bcd60e51b8152600401610c6690614ca3565b6001600160a01b0381166131d55760405162461bcd60e51b815260206004820152602660248201527f4f776e61626c653a206e6577206f776e657220697320746865207a65726f206160448201526564647265737360d01b6064820152608401610c66565b6115318161380b565b6001600160a01b0381166000908152601e602052604081205461320657610b66600242614f68565b506001600160a01b03166000908152601e602052604090205490565b919050565b6000816020546132379190614f26565b3410156132975760405162461bcd60e51b815260206004820152602860248201527f436f737420746f20627579203120426f6f73746572204e46542063726564697460448201526720697320302e303160c01b6064820152608401610c66565b336000908152601f6020526040812080548492906132b6908490614e0c565b909155506132d3905033836021546132ce9190614f26565b613316565b6132e9826021546132e49190614f26565b61339c565b506001919050565b60006001600160e01b0319821663780e9d6360e01b1480610b665750610b6682613ed7565b600b546001600160a01b03166321af68898361333a84670de0b6b3a7640000614f26565b6040516001600160e01b031960e085901b1681526001600160a01b0390921660048301526024820152604401600060405180830381600087803b15801561338057600080fd5b505af1158015613394573d6000803e3d6000fd5b505050505050565b336000908152601d60205260409020546001600160a01b0316156115315760006133c7600583614e24565b9050806133d2575060015b336000908152601d60205260409020546133f5906001600160a01b031682613316565b336000818152601d60209081526040918290205482516001600160a01b0391909116815290810192909252818101839052517e3da85d6058444eca57e3b88be14c734f4f239affe28b7629966e318de2a90e9181900360600190a15050565b600081815260046020526040902080546001600160a01b0319166001600160a01b038416908117909155819061348982611692565b6001600160a01b03167f8c5be1e5ebec7d5bd14f71427d1e84f3dd0314c0f7b2291e5b200ac8c7c3b92560405160405180910390a45050565b6000818152600260205260408120546001600160a01b031661353b5760405162461bcd60e51b815260206004820152602c60248201527f4552433732313a206f70657261746f7220717565727920666f72206e6f6e657860448201526b34b9ba32b73a103a37b5b2b760a11b6064820152608401610c66565b600061354683611692565b9050806001600160a01b0316846001600160a01b031614806135815750836001600160a01b031661357684610d2b565b6001600160a01b0316145b806135b157506001600160a01b0380821660009081526005602090815260408083209388168352929052205460ff165b949350505050565b826001600160a01b03166135cc82611692565b6001600160a01b0316146136345760405162461bcd60e51b815260206004820152602960248201527f4552433732313a207472616e73666572206f6620746f6b656e2074686174206960448201526839903737ba1037bbb760b91b6064820152608401610c66565b6001600160a01b0382166136965760405162461bcd60e51b8152602060048201526024808201527f4552433732313a207472616e7366657220746f20746865207a65726f206164646044820152637265737360e01b6064820152608401610c66565b6136a1838383613f27565b6136ac600082613454565b6001600160a01b03831660009081526003602052604081208054600192906136d5908490614f68565b90915550506001600160a01b0382166000908152600360205260408120805460019290613703908490614e0c565b909155505060008181526002602052604080822080546001600160a01b0319166001600160a01b0386811691821790925591518493918716917fddf252ad1be2c89b69c2b068fc378daa952ba7f163c4a11628f55a4df523b3ef91a4505050565b600061376f82611692565b905061377d81600084613f27565b613788600083613454565b6001600160a01b03811660009081526003602052604081208054600192906137b1908490614f68565b909155505060008281526002602052604080822080546001600160a01b0319169055518391906001600160a01b038416907fddf252ad1be2c89b69c2b068fc378daa952ba7f163c4a11628f55a4df523b3ef908390a45050565b600a80546001600160a01b038381166001600160a01b0319831681179093556040519116919082907f8be0079c531659141344cd1fd0a4f28419497f9722a3daafe3b4186f6b6457e090600090a35050565b60006605dc0000000bb88211156138dc5760405162461bcd60e51b815260206004820152603c60248201527f596f75206d757374207761676572206c657373207468616e207468652075707060448201527f6572206c696d6974206f662031363439323637343431363637303030000000006064820152608401610c66565b6138ee82670de0b6b3a7640000614f26565b600b549092506000906001600160a01b03166370a08231336040516001600160e01b031960e084901b1681526001600160a01b03909116600482015260240160206040518083038186803b15801561394557600080fd5b505afa158015613959573d6000803e3d6000fd5b505050506040513d601f19601f8201168201806040525081019061397d9190614a77565b9050828110156139e25760405162461bcd60e51b815260206004820152602a60248201527f596f7520646f204e6f74206861766520656e6f756768205a4f4f4d20666f72206044820152693a3434b9903bb0b3b2b960b11b6064820152608401610c66565b8215613a5b57600b546001600160a01b03166336ec0dd6336040516001600160e01b031960e084901b1681526001600160a01b03909116600482015260248101869052604401600060405180830381600087803b158015613a4257600080fd5b505af1158015613a56573d6000803e3d6000fd5b505050505b6000613a68612710613f7f565b90506000613a75856115ec565b905060025b60078160ff161015613ad357818160ff1660078110613aa957634e487b7160e01b600052603260045260246000fd5b602002015161ffff168311613ac15795945050505050565b80613acb81615023565b915050613a7a565b50600695945050505050565b60ff81166000908152600d60205260408120548190613afd90613f7f565b60ff84166000908152600d602052604081208054929350909183908110613b3457634e487b7160e01b600052603260045260246000fd5b60009182526020808320601083040154600f9092166002026101000a90910461ffff908116808452600c909252604090922060030154909250630100000090041615801590613bbb575061ffff8082166000908152600c6020908152604080832060030154601890925290912054630100000090910490911690613bb9906001614e0c565b115b15613bca575060009392505050565b613bd381613bdd565b5060019392505050565b33600081815260176020908152604080832061ffff861684528252808320805460ff19166001179055600c909152902060050154613c1b9190613316565b61ffff81166000908152600c6020526040902060050154613c3b9061339c565b61ffff81166000908152601860205260408120805460019290613c5f908490614e0c565b9091555050601b805460010190556000613c78601b5490565b9050613c843382613ffe565b60408051808201825261ffff84811680835260008181526018602090815285822054818601908152878352601982528683208651815461ffff1916961695909517855551600194850155918152600c909152929092206003015490919060109062010000900460ff1660078110613d0b57634e487b7160e01b600052603260045260246000fd5b016000828254613d1b9190614e0c565b9091555050805161ffff16336001600160a01b03167f36e996ba214404b0a557ef87433cf92f99d6f4e07c2ca5b7cf72a95d7ac7f09f848460200151604051613d6e929190918252602082015260400190565b60405180910390a3505050565b613d868484846135b9565b613d9284848484614018565b6126425760405162461bcd60e51b8152600401610c6690614b8a565b6060601c8054610b7b90614fab565b606081613de15750506040805180820190915260018152600360fc1b602082015290565b8160005b8115613e0b5780613df581615008565b9150613e049050600a83614e24565b9150613de5565b60008167ffffffffffffffff811115613e3457634e487b7160e01b600052604160045260246000fd5b6040519080825280601f01601f191660200182016040528015613e5e576020820181803683370190505b5090505b84156135b157613e73600183614f68565b9150613e80600a86615043565b613e8b906030614e0c565b60f81b818381518110613eae57634e487b7160e01b600052603260045260246000fd5b60200101906001600160f81b031916908160001a905350613ed0600a86614e24565b9450613e62565b60006001600160e01b031982166380ac58cd60e01b1480613f0857506001600160e01b03198216635b5e139f60e01b145b80610b6657506301ffc9a760e01b6001600160e01b0319831614610b66565b600a54600160a01b900460ff1615613f745760405162461bcd60e51b815260206004820152601060248201526f14185d5cd8589b194e881c185d5cd95960821b6044820152606401610c66565b610ed1838383614125565b600080824233601a54604051602001613fbd9392919092835260609190911b6bffffffffffffffffffffffff19166020830152603482015260540190565b6040516020818303038152906040528051906020012060001c613fe09190615043565b601a80549192506000613ff283615008565b90915550909392505050565b6111938282604051806020016040528060008152506141dd565b60006001600160a01b0384163b1561411a57604051630a85bd0160e11b81526001600160a01b0385169063150b7a029061405c903390899088908890600401614b05565b602060405180830381600087803b15801561407657600080fd5b505af19250505080156140a6575060408051601f3d908101601f191682019092526140a391810190614917565b60015b614100573d8080156140d4576040519150601f19603f3d011682016040523d82523d6000602084013e6140d9565b606091505b5080516140f85760405162461bcd60e51b8152600401610c6690614b8a565b805181602001fd5b6001600160e01b031916630a85bd0160e11b1490506135b1565b506001949350505050565b6001600160a01b0383166141805761417b81600880546000838152600960205260408120829055600182018355919091527ff3f7a9fe364faab93b216da50a3214154f22a0a2b415b23a84c8169e8b636ee30155565b6141a3565b816001600160a01b0316836001600160a01b0316146141a3576141a38382614210565b6001600160a01b0382166141ba57610ed1816142ad565b826001600160a01b0316826001600160a01b031614610ed157610ed18282614386565b6141e783836143ca565b6141f46000848484614018565b610ed15760405162461bcd60e51b8152600401610c6690614b8a565b6000600161421d84611709565b6142279190614f68565b60008381526007602052604090205490915080821461427a576001600160a01b03841660009081526006602090815260408083208584528252808320548484528184208190558352600790915290208190555b5060009182526007602090815260408084208490556001600160a01b039094168352600681528383209183525290812055565b6008546000906142bf90600190614f68565b600083815260096020526040812054600880549394509092849081106142f557634e487b7160e01b600052603260045260246000fd5b90600052602060002001549050806008838154811061432457634e487b7160e01b600052603260045260246000fd5b600091825260208083209091019290925582815260099091526040808220849055858252812055600880548061436a57634e487b7160e01b600052603160045260246000fd5b6001900381819060005260206000200160009055905550505050565b600061439183611709565b6001600160a01b039093166000908152600660209081526040808320868452825280832085905593825260079052919091209190915550565b6001600160a01b0382166144205760405162461bcd60e51b815260206004820181905260248201527f4552433732313a206d696e7420746f20746865207a65726f20616464726573736044820152606401610c66565b6000818152600260205260409020546001600160a01b0316156144855760405162461bcd60e51b815260206004820152601c60248201527f4552433732313a20746f6b656e20616c7265616479206d696e746564000000006044820152606401610c66565b61449160008383613f27565b6001600160a01b03821660009081526003602052604081208054600192906144ba908490614e0c565b909155505060008181526002602052604080822080546001600160a01b0319166001600160a01b03861690811790915590518392907fddf252ad1be2c89b69c2b068fc378daa952ba7f163c4a11628f55a4df523b3ef908290a45050565b6040518060e001604052806007906020820280368337509192915050565b60405180608001604052806004906020820280368337509192915050565b82805461456090614fab565b90600052602060002090601f01602090048101928261458257600085556145c8565b82601f1061459b57805160ff19168380011785556145c8565b828001600101855582156145c8579182015b828111156145c85782518255916020019190600101906145ad565b506145d49291506145d8565b5090565b5b808211156145d457600081556001016145d9565b600067ffffffffffffffff83111561460757614607615083565b61461a601f8401601f1916602001614dbe565b905082815283838301111561462e57600080fd5b828260208301376000602084830101529392505050565b80356001600160a01b038116811461322257600080fd5b600082601f83011261466c578081fd5b6113a1838335602085016145ed565b803561ffff8116811461322257600080fd5b803560ff8116811461322257600080fd5b6000602082840312156146af578081fd5b6113a182614645565b600080604083850312156146ca578081fd5b6146d383614645565b91506146e160208401614645565b90509250929050565b6000806000606084860312156146fe578081fd5b61470784614645565b925061471560208501614645565b9150604084013590509250925092565b6000806000806080858703121561473a578081fd5b61474385614645565b935061475160208601614645565b925060408501359150606085013567ffffffffffffffff811115614773578182fd5b8501601f81018713614783578182fd5b614792878235602084016145ed565b91505092959194509250565b600080604083850312156147b0578182fd5b6147b983614645565b9150602083013580151581146147cd578182fd5b809150509250929050565b600080604083850312156147ea578182fd5b6147f383614645565b91506146e16020840161467b565b60008060408385031215614813578182fd5b61481c83614645565b946020939093013593505050565b6000806040838503121561483c578182fd5b61484583614645565b91506146e16020840161468d565b60006020808385031215614865578182fd5b823567ffffffffffffffff8082111561487c578384fd5b818501915085601f83011261488f578384fd5b8135818111156148a1576148a1615083565b8060051b91506148b2848301614dbe565b8181528481019084860184860187018a10156148cc578788fd5b8795505b838610156148ee5780358352600195909501949186019186016148d0565b5098975050505050505050565b60006020828403121561490c578081fd5b81356113a181615099565b600060208284031215614928578081fd5b81516113a181615099565b600060208284031215614944578081fd5b6113a18261467b565b6000806000806000806000806000806000806101808d8f03121561496f57898afd5b6149788d61467b565b9b5067ffffffffffffffff60208e0135111561499257898afd5b6149a28e60208f01358f0161465c565b9a5067ffffffffffffffff60408e013511156149bc57898afd5b6149cc8e60408f01358f0161465c565b99506149da60608e0161468d565b98506149e860808e0161468d565b97506149f660a08e0161468d565b9650614a0460c08e0161467b565b955060e08d013594506101008d013593506101208d013592506101408d01359150614a326101608e0161468d565b90509295989b509295989b509295989b565b60008060408385031215614a56578182fd5b61481c8361467b565b600060208284031215614a70578081fd5b5035919050565b600060208284031215614a88578081fd5b5051919050565b60008060408385031215614aa1578182fd5b61481c8361468d565b60008151808452614ac2816020860160208601614f7f565b601f01601f19169290920160200192915050565b60008351614ae8818460208801614f7f565b835190830190614afc818360208801614f7f565b01949350505050565b6001600160a01b0385811682528416602082015260408101839052608060608201819052600090614b3890830184614aaa565b9695505050505050565b60e08101818360005b6007811015614b6e57815161ffff16835260209283019290910190600101614b4b565b50505092915050565b6020815260006113a16020830184614aaa565b60208082526032908201527f4552433732313a207472616e7366657220746f206e6f6e20455243373231526560408201527131b2b4bb32b91034b6b83632b6b2b73a32b960711b606082015260800190565b60208082526023908201527f416c6c206f662074686573652063617264732068617665206265656e206d696e6040820152621d195960ea1b606082015260800190565b60208082526023908201527f4f6e6c792063617264732066726f6d2073746f72652063616e206265206d696e6040820152621d195960ea1b606082015260800190565b60208082526021908201527f596f75206861766520616c7265616479206d696e7465642074686973207479706040820152606560f81b606082015260800190565b6020808252818101527f4f776e61626c653a2063616c6c6572206973206e6f7420746865206f776e6572604082015260600190565b60208082526031908201527f4552433732313a207472616e736665722063616c6c6572206973206e6f74206f6040820152701ddb995c881b9bdc88185c1c1c9bdd9959607a1b606082015260800190565b600061ffff808f1683526101806020840152614d4961018084018f614aaa565b8381036040850152614d5b818f614aaa565b92505060ff8c16606084015260ff8b16608084015260ff8a1660a084015280891660c0840152508660e0830152856101008301528461012083015283610140830152614dad61016083018460ff169052565b9d9c50505050505050505050505050565b604051601f8201601f1916810167ffffffffffffffff81118282101715614de757614de7615083565b604052919050565b600061ffff808316818516808303821115614afc57614afc615057565b60008219821115614e1f57614e1f615057565b500190565b600082614e3357614e3361506d565b500490565b600181815b80851115614e73578160001904821115614e5957614e59615057565b80851615614e6657918102915b93841c9390800290614e3d565b509250929050565b60006113a160ff841683600082614e9457506001610b66565b81614ea157506000610b66565b8160018114614eb75760028114614ec157614edd565b6001915050610b66565b60ff841115614ed257614ed2615057565b50506001821b610b66565b5060208310610133831016604e8410600b8410161715614f00575081810a610b66565b614f0a8383614e38565b8060001904821115614f1e57614f1e615057565b029392505050565b6000816000190483118215151615614f4057614f40615057565b500290565b600061ffff83811690831681811015614f6057614f60615057565b039392505050565b600082821015614f7a57614f7a615057565b500390565b60005b83811015614f9a578181015183820152602001614f82565b838111156126425750506000910152565b600181811c90821680614fbf57607f821691505b60208210811415614fe057634e487b7160e01b600052602260045260246000fd5b50919050565b600061ffff80831681811415614ffe57614ffe615057565b6001019392505050565b600060001982141561501c5761501c615057565b5060010190565b600060ff821660ff81141561503a5761503a615057565b60010192915050565b6000826150525761505261506d565b500690565b634e487b7160e01b600052601160045260246000fd5b634e487b7160e01b600052601260045260246000fd5b634e487b7160e01b600052604160045260246000fd5b6001600160e01b03198116811461153157600080fdfea2646970667358221220017de1301a29081bc872803091601d419f9c459899f8db508acb5ea4db13e40764736f6c63430008040033",
  "immutableReferences": {},
  "source": "// SPDX-License-Identifier: MIT\npragma solidity ^0.8.4;\n\nimport \"./ZoombiesUniverse.sol\";\nimport \"@openzeppelin/contracts/token/ERC721/ERC721.sol\";\nimport \"@openzeppelin/contracts/token/ERC721/extensions/ERC721Burnable.sol\";\nimport \"@openzeppelin/contracts/utils/Counters.sol\";\n\n\ncontract Zoombies is ERC721, ERC721Burnable, ZoombiesUniverse {\n    using Counters for Counters.Counter;\n\n    Counters.Counter private _tokenIdCounter;\n    string private _baseTokenURI;\n\n    //Tracking affiliate sponsors\n    mapping(address => address) public sponsors; // 1 sponsor have many affiliates, but only 1 sponsor, returns sponsor\n\n    //Track the timestamps for users to get their daily pull\n    mapping(address => uint256) private timeToCardsPull; //address to timestamp\n\n    //Tracking booster pack count ownership. These are NOT tokens, Player can mint a random NFT\n    mapping (address => uint256) public boosterCreditsOwned;\n\n    uint public weiCostOfBooster = 100000000000000;\n    uint256 public zoomGainedPerBoosterCredit = 500;\n\n    uint16 public maxBoostersRewards = 50000;\n    uint16 public totalBoostersRewarded = 0;\n\n    //Event Logs\n    event LogCardTypeLoaded(uint32 indexed cardTypeId, string cardName, uint editionTotal);\n    event LogCardMinted(address indexed buyer, uint tokenId, uint32 indexed cardTypeId, uint editionNumber);\n    event LogPackOpened(address indexed buyer, uint8 rarity);\n    event LogSponsorLinked(address sponsor, address affiliate);\n    event LogSponsorReward(address sponsor, address affiliate, uint zoomReward);\n    event LogDailyReward(address player, uint newBoosterBalance);\n    event LogRewardBoosters(address winner, uint boostersAwarded);\n    event LogSacrificeNFT(address owner, uint256 tokenId, uint16 cardTypeId, uint256 zoomGained);\n\n    constructor(address _zoomTokenContract)\n    ERC721(\"Zoombies\", \"Zoombie\") {\n        require(_zoomTokenContract != address(0x0));\n        _baseTokenURI = \"https://zoombies.world/nft/\";\n        zoomTokenContract = _zoomTokenContract;\n    }\n\n    function buyCard(uint16 _cardTypeId) external payable {\n        require(allCardTypes[_cardTypeId].cardTypeId != 0, \"Card type ID does not exist\");\n        require(allCardTypes[_cardTypeId].notStoreOrBonus == 0, \"Only cards from store can be minted\");\n        require(block.timestamp >= storeReleaseTime[_cardTypeId], \"Card not released from shop\");\n        require(allCardTypes[_cardTypeId].totalAvailable >= (cardTypeToEdition[_cardTypeId]+1),\n        \"All of these cards have been minted\");\n        require(cardTypesOwned[_msgSender()][_cardTypeId] == false, \"You have already minted this type\");\n        require(msg.value >= allCardTypes[_cardTypeId].weiCost, \"You have not paid enough MOVR to mint this type\");\n        uint zoom = ZoomToken(zoomTokenContract).balanceOf(_msgSender());\n\n        require(zoom >= allCardTypes[_cardTypeId].unlockZoom &&\n        msg.value == allCardTypes[_cardTypeId].weiCost || msg.value == allCardTypes[_cardTypeId].weiCost*3,\n        \"You do not have the required Zoom balance Or MOVR +equivalent\");\n\n        //ALL CLEAR ???????? mint new card\n        mintZoombieNFT(_cardTypeId);\n    }\n\n    function getFreeCard(uint16 _cardTypeId) external payable {\n        require(allCardTypes[_cardTypeId].cardTypeId != 0, \"Card type ID does not exist\");\n        require(allCardTypes[_cardTypeId].notStoreOrBonus == 0, \"Only cards from store can be minted\");\n        require(block.timestamp >= storeReleaseTime[_cardTypeId], \"Card not released from shop\");\n        require(allCardTypes[_cardTypeId].totalAvailable >= (cardTypeToEdition[_cardTypeId]+1),\n        \"All of these cards have been minted\");\n        require(cardTypesOwned[_msgSender()][_cardTypeId] == false, \"You have already minted this type\");\n        require(allCardTypes[_cardTypeId].weiCost == 0, \"You are attempting to mint a paid type\");\n        uint myZooms = ZoomToken(zoomTokenContract).balanceOf(_msgSender());\n        uint zoomCost = ZOOM_BASE_COST * (10 * allCardTypes[_cardTypeId].unlockZoom);\n        require(myZooms >= allCardTypes[_cardTypeId].unlockZoom || msg.value == zoomCost,\n        \"You do not have the required Zoom balance Or MOVR equivalent\");\n\n        //ALL CLEAR ???????? claim and mint new card\n        mintZoombieNFT(_cardTypeId);\n    }\n\n    function sacrificeNFTs(uint256[] memory _tokenIds) external {\n\n        require(_tokenIds.length <= 256, \"List of tokens to sacrifice must be less than 257 at a time\");\n\n        uint256 sacZoom = 0;\n        for (uint i=0; i < _tokenIds.length; i++) {\n            burn(_tokenIds[i]); //ensure owner before we roll other data\n\n            uint16 _tempCTiD = nfts[_tokenIds[i]].cardTypeId;\n            tokensByRarity[allCardTypes[_tempCTiD].rarity] -= 1;\n            sacZoom += allCardTypes[_tempCTiD].sacrificeZoom;\n            delete (nfts[_tokenIds[i]]);\n            emit LogSacrificeNFT(_msgSender(), _tokenIds[i], _tempCTiD, allCardTypes[_tempCTiD].sacrificeZoom);\n        }\n\n        awardZoom(_msgSender(), sacZoom);\n        rewardAffiliate(sacZoom);\n    }\n\n    //every 8 hours, the address can get 2 free booster cards\n    function getBonusBoosters(address _player) external {\n        require(block.timestamp >= getTimeToDailyBonus(_player), \"Can't claim before time to claim next bonus\");\n\n        //Stop re-entrancy, update the lastpull value\n        timeToCardsPull[_player] = block.timestamp + 8 hours;\n\n        //Let the world award our friend\n        awardZoom(_msgSender(), 10);\n        //reward the sponsor\n        rewardAffiliate(10);\n\n        // add the boosters and emit event\n        boosterCreditsOwned[_player] += 2;\n        emit LogDailyReward(_player, boosterCreditsOwned[_player]);\n    }\n\n    function linkMySponsor(address _mySponsor) external {\n        require(_mySponsor != address(0), \"Send a valid sponsor wallet\");\n        require(sponsors[_msgSender()] == address(0), \"You have already linked a sponsor\");\n        require(_msgSender() != _mySponsor, \"You cannot sponsor yourself\");\n\n        //All clear?  stop re-entrancy, set the association\n        sponsors[_msgSender()] = _mySponsor;\n\n        //Mint the Platinum Sponsor Card\n        pullCard(2);\n    }\n\n    function buyBoosterCredits(uint _amount) external payable returns(bool) {\n        require(msg.value >= (weiCostOfBooster * _amount), \"Cost to buy 1 Booster NFT credit is 0.01\");\n\n        //All good increase the number owned\n        boosterCreditsOwned[_msgSender()] += _amount;\n\n        //Award czxp for booster\n        awardZoom(_msgSender(), (zoomGainedPerBoosterCredit * _amount));\n        rewardAffiliate(zoomGainedPerBoosterCredit * _amount);\n\n        return true;\n    }\n\n    function buyBoosterAndMintNFT() external payable returns(bool) {\n        require(msg.value >= weiCostOfBooster, \"Cost to buy and mint a Booster NFT is 0.01\");\n\n        //Award zoom per pack\n        awardZoom(_msgSender(), zoomGainedPerBoosterCredit);\n        rewardAffiliate(zoomGainedPerBoosterCredit);\n\n        //Pull the card\n        uint8 rarity = getRarity(0);\n        while (pullCard(rarity) == false) {\n            pullCard(rarity);\n        }\n\n        //Send a log event\n        emit LogPackOpened(_msgSender(), rarity);\n        return true;\n    }\n\n    function mintBoosterNFT(uint zoomWager) external returns(bool) {\n        require(boosterCreditsOwned[_msgSender()] > 0, \"No Booster credits owned\");\n        require(zoomWager == 0 || zoomWager >= 1000000 && zoomWager <= 20000000, \"Wager must be 0 or between than 1-20M\");\n\n        //STOP re-entrancy , decrement number of credits\n        boosterCreditsOwned[_msgSender()] -= 1;\n\n        //Pull the card\n        uint8 rarity = getRarity(zoomWager);\n        while (pullCard(rarity) == false) {\n            pullCard(rarity);\n        }\n\n        //Send a log event\n        emit LogPackOpened(_msgSender(), rarity);\n        return true;\n    }\n\n    function awardBoosterCredits(address _winner, uint8 _amount) external onlyOwner returns(bool) {\n\n        //Check max. for Universe\n        require((totalBoostersRewarded + _amount) <= maxBoostersRewards,\n        \"Reached max. number of Booster credit rewards\");\n\n        totalBoostersRewarded += _amount;\n        boosterCreditsOwned[_winner] += _amount;\n        emit LogRewardBoosters(_winner, _amount);\n        return true;\n    }\n\n    function supportsInterface(bytes4 interfaceId)\n        public\n        view\n        override(ERC721, ERC721Enumerable)\n        returns (bool)\n    {\n        return super.supportsInterface(interfaceId);\n    }\n\n    function getTimeToDailyBonus(address _player) public view returns(uint256 timeStamp) {\n\n        //check if address exists\n        if (timeToCardsPull[_player] == 0) {\n            return block.timestamp - 2 seconds;\n        }else {\n            return timeToCardsPull[_player];\n        }\n    }\n\n    /**\n     * Withdraw balance to wallet\n     */\n    function withdraw() public onlyOwner returns(bool) {\n        payable(_msgSender()).transfer(address(this).balance);\n        return true;\n    }\n\n    function _baseURI() internal view virtual override returns (string memory) {\n        return _baseTokenURI;\n    }\n\n    function _beforeTokenTransfer(address from, address to, uint256 tokenId)\n        internal\n        whenNotPaused\n        override(ERC721, ERC721Enumerable)\n    {\n        super._beforeTokenTransfer(from, to, tokenId);\n    }\n\n//Private\n    function pullCard(uint8 _rarity) private returns (bool) {\n\n        //Get a random number for the card to pull\n        uint256 rand = selectRandom(allBoosterCardIds[_rarity].length);\n\n        //hit up the cardTypes\n        uint16 _pulledId = allBoosterCardIds[_rarity][rand];\n        if\n            (allCardTypes[_pulledId].totalAvailable > 0 && //test for limited edition boosters\n            (cardTypeToEdition[_pulledId]+1) > allCardTypes[_pulledId].totalAvailable) {\n                return false;\n            }\n\n        //Give the player this cardType\n        mintZoombieNFT(_pulledId);\n        return true;\n    }\n\n    function mintZoombieNFT(uint16 _cardTypeId) private {\n        //Stop re-entrancy, Track the type of card puchased for this owner, so they cant buy again\n        cardTypesOwned[_msgSender()][_cardTypeId] = true;\n\n        //Let the world award our friend\n        awardZoom(_msgSender(), allCardTypes[_cardTypeId].buyZoom);\n        //reward the sponsor\n        rewardAffiliate(allCardTypes[_cardTypeId].buyZoom);\n\n        cardTypeToEdition[_cardTypeId] += 1;\n\n        _tokenIdCounter.increment();\n        uint256 _newTokenId = _tokenIdCounter.current();\n\n        //now mint the NFT\n        _safeMint(_msgSender(), _newTokenId);\n\n        //Create the NFT data on chain!\n        NFTdata memory _tempCard = NFTdata({\n            cardTypeId:_cardTypeId,\n            editionNumber:cardTypeToEdition[_cardTypeId]\n        });\n        nfts[_newTokenId] = _tempCard;\n\n        tokensByRarity[allCardTypes[_cardTypeId].rarity] += 1;\n\n        emit LogCardMinted(_msgSender(), _newTokenId, _tempCard.cardTypeId, _tempCard.editionNumber);\n    }\n\n    /**\n     * We always pay our affiliates 20% of the zoom commission\n     */\n    function rewardAffiliate(uint _totalZoom) private {\n        //first check if the caller has a sponsor\n        if (sponsors[_msgSender()] != address(0)) {\n            uint reward = _totalZoom / 5;\n            if (reward == 0) {\n                reward = 1;\n            }\n            awardZoom(sponsors[_msgSender()], reward);\n            emit LogSponsorReward(sponsors[_msgSender()], _msgSender(), reward);\n        }\n    }\n}\n",
  "sourcePath": "/home/ryanpricelondon/Zoombies/contracts/Zoombies.sol",
  "compiler": {
    "name": "solc",
    "version": "0.8.4+commit.c7e474f2.Emscripten.clang"
  },
  "schemaVersion": "3.4.0",
  "updatedAt": "2021-08-19T17:28:24.552Z",
  "networkType": "ethereum",
  "devdoc": {
    "kind": "dev",
    "methods": {
      "approve(address,uint256)": {
        "details": "See {IERC721-approve}."
      },
      "balanceOf(address)": {
        "details": "See {IERC721-balanceOf}."
      },
      "burn(uint256)": {
        "details": "Burns `tokenId`. See {ERC721-_burn}. Requirements: - The caller must own `tokenId` or be an approved operator."
      },
      "getApproved(uint256)": {
        "details": "See {IERC721-getApproved}."
      },
      "isApprovedForAll(address,address)": {
        "details": "See {IERC721-isApprovedForAll}."
      },
      "name()": {
        "details": "See {IERC721Metadata-name}."
      },
      "owner()": {
        "details": "Returns the address of the current owner."
      },
      "ownerOf(uint256)": {
        "details": "See {IERC721-ownerOf}."
      },
      "paused()": {
        "details": "Returns true if the contract is paused, and false otherwise."
      },
      "renounceOwnership()": {
        "details": "Leaves the contract without owner. It will not be possible to call `onlyOwner` functions anymore. Can only be called by the current owner. NOTE: Renouncing ownership will leave the contract without an owner, thereby removing any functionality that is only available to the owner."
      },
      "safeTransferFrom(address,address,uint256)": {
        "details": "See {IERC721-safeTransferFrom}."
      },
      "safeTransferFrom(address,address,uint256,bytes)": {
        "details": "See {IERC721-safeTransferFrom}."
      },
      "setApprovalForAll(address,bool)": {
        "details": "See {IERC721-setApprovalForAll}."
      },
      "symbol()": {
        "details": "See {IERC721Metadata-symbol}."
      },
      "tokenByIndex(uint256)": {
        "details": "See {IERC721Enumerable-tokenByIndex}."
      },
      "tokenOfOwnerByIndex(address,uint256)": {
        "details": "See {IERC721Enumerable-tokenOfOwnerByIndex}."
      },
      "tokenURI(uint256)": {
        "details": "See {IERC721Metadata-tokenURI}."
      },
      "totalSupply()": {
        "details": "See {IERC721Enumerable-totalSupply}."
      },
      "transferFrom(address,address,uint256)": {
        "details": "See {IERC721-transferFrom}."
      },
      "transferOwnership(address)": {
        "details": "Transfers ownership of the contract to a new account (`newOwner`). Can only be called by the current owner."
      }
    },
    "version": 1
  },
  "userdoc": {
    "kind": "user",
    "methods": {
      "withdraw()": {
        "notice": "Withdraw balance to wallet"
      }
    },
    "version": 1
  }
}