{
  "contractName": "Zoombies",
  "abi": [
    {
      "inputs": [
        {
          "internalType": "address",
          "name": "_zoomTokenContract",
          "type": "address"
        }
      ],
      "stateMutability": "nonpayable",
      "type": "constructor"
    },
    {
      "anonymous": false,
      "inputs": [
        {
          "indexed": true,
          "internalType": "address",
          "name": "owner",
          "type": "address"
        },
        {
          "indexed": true,
          "internalType": "address",
          "name": "approved",
          "type": "address"
        },
        {
          "indexed": true,
          "internalType": "uint256",
          "name": "tokenId",
          "type": "uint256"
        }
      ],
      "name": "Approval",
      "type": "event"
    },
    {
      "anonymous": false,
      "inputs": [
        {
          "indexed": true,
          "internalType": "address",
          "name": "owner",
          "type": "address"
        },
        {
          "indexed": true,
          "internalType": "address",
          "name": "operator",
          "type": "address"
        },
        {
          "indexed": false,
          "internalType": "bool",
          "name": "approved",
          "type": "bool"
        }
      ],
      "name": "ApprovalForAll",
      "type": "event"
    },
    {
      "anonymous": false,
      "inputs": [
        {
          "indexed": true,
          "internalType": "address",
          "name": "buyer",
          "type": "address"
        },
        {
          "indexed": false,
          "internalType": "uint256",
          "name": "tokenId",
          "type": "uint256"
        },
        {
          "indexed": true,
          "internalType": "uint32",
          "name": "cardTypeId",
          "type": "uint32"
        },
        {
          "indexed": false,
          "internalType": "uint256",
          "name": "editionNumber",
          "type": "uint256"
        }
      ],
      "name": "LogCardMinted",
      "type": "event"
    },
    {
      "anonymous": false,
      "inputs": [
        {
          "indexed": true,
          "internalType": "uint32",
          "name": "cardTypeId",
          "type": "uint32"
        },
        {
          "indexed": false,
          "internalType": "string",
          "name": "cardName",
          "type": "string"
        },
        {
          "indexed": false,
          "internalType": "uint256",
          "name": "editionTotal",
          "type": "uint256"
        }
      ],
      "name": "LogCardTypeLoaded",
      "type": "event"
    },
    {
      "anonymous": false,
      "inputs": [
        {
          "indexed": false,
          "internalType": "address",
          "name": "player",
          "type": "address"
        },
        {
          "indexed": false,
          "internalType": "uint256",
          "name": "newBoosterBalance",
          "type": "uint256"
        }
      ],
      "name": "LogDailyReward",
      "type": "event"
    },
    {
      "anonymous": false,
      "inputs": [
        {
          "indexed": true,
          "internalType": "address",
          "name": "buyer",
          "type": "address"
        },
        {
          "indexed": false,
          "internalType": "uint8",
          "name": "rarity",
          "type": "uint8"
        }
      ],
      "name": "LogPackOpened",
      "type": "event"
    },
    {
      "anonymous": false,
      "inputs": [
        {
          "indexed": false,
          "internalType": "address",
          "name": "winner",
          "type": "address"
        },
        {
          "indexed": false,
          "internalType": "uint256",
          "name": "boostersAwarded",
          "type": "uint256"
        }
      ],
      "name": "LogRewardBoosters",
      "type": "event"
    },
    {
      "anonymous": false,
      "inputs": [
        {
          "indexed": false,
          "internalType": "address",
          "name": "owner",
          "type": "address"
        },
        {
          "indexed": false,
          "internalType": "uint256",
          "name": "tokenId",
          "type": "uint256"
        },
        {
          "indexed": false,
          "internalType": "uint16",
          "name": "cardTypeId",
          "type": "uint16"
        },
        {
          "indexed": false,
          "internalType": "uint256",
          "name": "zoomGained",
          "type": "uint256"
        }
      ],
      "name": "LogSacrificeNFT",
      "type": "event"
    },
    {
      "anonymous": false,
      "inputs": [
        {
          "indexed": false,
          "internalType": "address",
          "name": "sponsor",
          "type": "address"
        },
        {
          "indexed": false,
          "internalType": "address",
          "name": "affiliate",
          "type": "address"
        }
      ],
      "name": "LogSponsorLinked",
      "type": "event"
    },
    {
      "anonymous": false,
      "inputs": [
        {
          "indexed": false,
          "internalType": "address",
          "name": "sponsor",
          "type": "address"
        },
        {
          "indexed": false,
          "internalType": "address",
          "name": "affiliate",
          "type": "address"
        },
        {
          "indexed": false,
          "internalType": "uint256",
          "name": "zoomReward",
          "type": "uint256"
        }
      ],
      "name": "LogSponsorReward",
      "type": "event"
    },
    {
      "anonymous": false,
      "inputs": [
        {
          "indexed": true,
          "internalType": "address",
          "name": "previousOwner",
          "type": "address"
        },
        {
          "indexed": true,
          "internalType": "address",
          "name": "newOwner",
          "type": "address"
        }
      ],
      "name": "OwnershipTransferred",
      "type": "event"
    },
    {
      "anonymous": false,
      "inputs": [
        {
          "indexed": false,
          "internalType": "address",
          "name": "account",
          "type": "address"
        }
      ],
      "name": "Paused",
      "type": "event"
    },
    {
      "anonymous": false,
      "inputs": [
        {
          "indexed": true,
          "internalType": "address",
          "name": "from",
          "type": "address"
        },
        {
          "indexed": true,
          "internalType": "address",
          "name": "to",
          "type": "address"
        },
        {
          "indexed": true,
          "internalType": "uint256",
          "name": "tokenId",
          "type": "uint256"
        }
      ],
      "name": "Transfer",
      "type": "event"
    },
    {
      "anonymous": false,
      "inputs": [
        {
          "indexed": false,
          "internalType": "address",
          "name": "account",
          "type": "address"
        }
      ],
      "name": "Unpaused",
      "type": "event"
    },
    {
      "inputs": [
        {
          "internalType": "uint256",
          "name": "",
          "type": "uint256"
        }
      ],
      "name": "NFTs",
      "outputs": [
        {
          "internalType": "uint16",
          "name": "cardTypeId",
          "type": "uint16"
        },
        {
          "internalType": "uint256",
          "name": "editionNumber",
          "type": "uint256"
        }
      ],
      "stateMutability": "view",
      "type": "function",
      "constant": true
    },
    {
      "inputs": [
        {
          "internalType": "uint8",
          "name": "",
          "type": "uint8"
        },
        {
          "internalType": "uint256",
          "name": "",
          "type": "uint256"
        }
      ],
      "name": "allBoosterCardIds",
      "outputs": [
        {
          "internalType": "uint16",
          "name": "",
          "type": "uint16"
        }
      ],
      "stateMutability": "view",
      "type": "function",
      "constant": true
    },
    {
      "inputs": [
        {
          "internalType": "uint16",
          "name": "",
          "type": "uint16"
        }
      ],
      "name": "allCardTypes",
      "outputs": [
        {
          "internalType": "uint16",
          "name": "cardTypeId",
          "type": "uint16"
        },
        {
          "internalType": "string",
          "name": "name",
          "type": "string"
        },
        {
          "internalType": "string",
          "name": "set",
          "type": "string"
        },
        {
          "internalType": "uint8",
          "name": "assetType",
          "type": "uint8"
        },
        {
          "internalType": "uint8",
          "name": "notStoreOrBonus",
          "type": "uint8"
        },
        {
          "internalType": "uint8",
          "name": "rarity",
          "type": "uint8"
        },
        {
          "internalType": "uint16",
          "name": "totalAvailable",
          "type": "uint16"
        },
        {
          "internalType": "uint256",
          "name": "weiCost",
          "type": "uint256"
        },
        {
          "internalType": "uint256",
          "name": "buyZoom",
          "type": "uint256"
        },
        {
          "internalType": "uint256",
          "name": "sacrificeZoom",
          "type": "uint256"
        },
        {
          "internalType": "uint256",
          "name": "unlockZoom",
          "type": "uint256"
        },
        {
          "internalType": "uint8",
          "name": "cardLevel",
          "type": "uint8"
        }
      ],
      "stateMutability": "view",
      "type": "function",
      "constant": true
    },
    {
      "inputs": [
        {
          "internalType": "address",
          "name": "to",
          "type": "address"
        },
        {
          "internalType": "uint256",
          "name": "tokenId",
          "type": "uint256"
        }
      ],
      "name": "approve",
      "outputs": [],
      "stateMutability": "nonpayable",
      "type": "function"
    },
    {
      "inputs": [
        {
          "internalType": "address",
          "name": "owner",
          "type": "address"
        }
      ],
      "name": "balanceOf",
      "outputs": [
        {
          "internalType": "uint256",
          "name": "",
          "type": "uint256"
        }
      ],
      "stateMutability": "view",
      "type": "function",
      "constant": true
    },
    {
      "inputs": [
        {
          "internalType": "address",
          "name": "",
          "type": "address"
        }
      ],
      "name": "boosterCreditsOwned",
      "outputs": [
        {
          "internalType": "uint256",
          "name": "",
          "type": "uint256"
        }
      ],
      "stateMutability": "view",
      "type": "function",
      "constant": true
    },
    {
      "inputs": [
        {
          "internalType": "uint256",
          "name": "tokenId",
          "type": "uint256"
        }
      ],
      "name": "burn",
      "outputs": [],
      "stateMutability": "nonpayable",
      "type": "function"
    },
    {
      "inputs": [
        {
          "internalType": "uint16",
          "name": "",
          "type": "uint16"
        }
      ],
      "name": "cardTypeToEdition",
      "outputs": [
        {
          "internalType": "uint256",
          "name": "",
          "type": "uint256"
        }
      ],
      "stateMutability": "view",
      "type": "function",
      "constant": true
    },
    {
      "inputs": [
        {
          "internalType": "address",
          "name": "",
          "type": "address"
        },
        {
          "internalType": "uint16",
          "name": "",
          "type": "uint16"
        }
      ],
      "name": "cardTypesOwned",
      "outputs": [
        {
          "internalType": "bool",
          "name": "",
          "type": "bool"
        }
      ],
      "stateMutability": "view",
      "type": "function",
      "constant": true
    },
    {
      "inputs": [
        {
          "internalType": "uint256",
          "name": "tokenId",
          "type": "uint256"
        }
      ],
      "name": "getApproved",
      "outputs": [
        {
          "internalType": "address",
          "name": "",
          "type": "address"
        }
      ],
      "stateMutability": "view",
      "type": "function",
      "constant": true
    },
    {
      "inputs": [
        {
          "internalType": "uint256",
          "name": "_tokenId",
          "type": "uint256"
        }
      ],
      "name": "getNFTData",
      "outputs": [
        {
          "internalType": "uint16",
          "name": "",
          "type": "uint16"
        },
        {
          "internalType": "uint256",
          "name": "",
          "type": "uint256"
        }
      ],
      "stateMutability": "view",
      "type": "function",
      "constant": true
    },
    {
      "inputs": [],
      "name": "getTokensByRarity",
      "outputs": [
        {
          "internalType": "uint256",
          "name": "",
          "type": "uint256"
        },
        {
          "internalType": "uint256",
          "name": "",
          "type": "uint256"
        },
        {
          "internalType": "uint256",
          "name": "",
          "type": "uint256"
        },
        {
          "internalType": "uint256",
          "name": "",
          "type": "uint256"
        },
        {
          "internalType": "uint256",
          "name": "",
          "type": "uint256"
        },
        {
          "internalType": "uint256",
          "name": "",
          "type": "uint256"
        }
      ],
      "stateMutability": "view",
      "type": "function",
      "constant": true
    },
    {
      "inputs": [
        {
          "internalType": "address",
          "name": "owner",
          "type": "address"
        },
        {
          "internalType": "address",
          "name": "operator",
          "type": "address"
        }
      ],
      "name": "isApprovedForAll",
      "outputs": [
        {
          "internalType": "bool",
          "name": "",
          "type": "bool"
        }
      ],
      "stateMutability": "view",
      "type": "function",
      "constant": true
    },
    {
      "inputs": [
        {
          "internalType": "uint16",
          "name": "_cardTypeId",
          "type": "uint16"
        },
        {
          "internalType": "string",
          "name": "_name",
          "type": "string"
        },
        {
          "internalType": "string",
          "name": "_set",
          "type": "string"
        },
        {
          "internalType": "uint8",
          "name": "_assetType",
          "type": "uint8"
        },
        {
          "internalType": "uint8",
          "name": "_notStoreOrBonus",
          "type": "uint8"
        },
        {
          "internalType": "uint8",
          "name": "_rarity",
          "type": "uint8"
        },
        {
          "internalType": "uint16",
          "name": "_totalAvailable",
          "type": "uint16"
        },
        {
          "internalType": "uint256",
          "name": "_weiCost",
          "type": "uint256"
        },
        {
          "internalType": "uint256",
          "name": "_buyZoom",
          "type": "uint256"
        },
        {
          "internalType": "uint256",
          "name": "_sacrificeZoom",
          "type": "uint256"
        },
        {
          "internalType": "uint256",
          "name": "_unlockZoom",
          "type": "uint256"
        },
        {
          "internalType": "uint8",
          "name": "_cardLevel",
          "type": "uint8"
        }
      ],
      "name": "loadNewCardType",
      "outputs": [],
      "stateMutability": "nonpayable",
      "type": "function"
    },
    {
      "inputs": [],
      "name": "maxBoostersRewards",
      "outputs": [
        {
          "internalType": "uint16",
          "name": "",
          "type": "uint16"
        }
      ],
      "stateMutability": "view",
      "type": "function",
      "constant": true
    },
    {
      "inputs": [],
      "name": "maxCardTypes",
      "outputs": [
        {
          "internalType": "uint16",
          "name": "",
          "type": "uint16"
        }
      ],
      "stateMutability": "view",
      "type": "function",
      "constant": true
    },
    {
      "inputs": [],
      "name": "name",
      "outputs": [
        {
          "internalType": "string",
          "name": "",
          "type": "string"
        }
      ],
      "stateMutability": "view",
      "type": "function",
      "constant": true
    },
    {
      "inputs": [],
      "name": "owner",
      "outputs": [
        {
          "internalType": "address",
          "name": "",
          "type": "address"
        }
      ],
      "stateMutability": "view",
      "type": "function",
      "constant": true
    },
    {
      "inputs": [
        {
          "internalType": "uint256",
          "name": "tokenId",
          "type": "uint256"
        }
      ],
      "name": "ownerOf",
      "outputs": [
        {
          "internalType": "address",
          "name": "",
          "type": "address"
        }
      ],
      "stateMutability": "view",
      "type": "function",
      "constant": true
    },
    {
      "inputs": [],
      "name": "paused",
      "outputs": [
        {
          "internalType": "bool",
          "name": "",
          "type": "bool"
        }
      ],
      "stateMutability": "view",
      "type": "function",
      "constant": true
    },
    {
      "inputs": [],
      "name": "renounceOwnership",
      "outputs": [],
      "stateMutability": "nonpayable",
      "type": "function"
    },
    {
      "inputs": [
        {
          "internalType": "address",
          "name": "from",
          "type": "address"
        },
        {
          "internalType": "address",
          "name": "to",
          "type": "address"
        },
        {
          "internalType": "uint256",
          "name": "tokenId",
          "type": "uint256"
        }
      ],
      "name": "safeTransferFrom",
      "outputs": [],
      "stateMutability": "nonpayable",
      "type": "function"
    },
    {
      "inputs": [
        {
          "internalType": "address",
          "name": "from",
          "type": "address"
        },
        {
          "internalType": "address",
          "name": "to",
          "type": "address"
        },
        {
          "internalType": "uint256",
          "name": "tokenId",
          "type": "uint256"
        },
        {
          "internalType": "bytes",
          "name": "_data",
          "type": "bytes"
        }
      ],
      "name": "safeTransferFrom",
      "outputs": [],
      "stateMutability": "nonpayable",
      "type": "function"
    },
    {
      "inputs": [
        {
          "internalType": "address",
          "name": "operator",
          "type": "address"
        },
        {
          "internalType": "bool",
          "name": "approved",
          "type": "bool"
        }
      ],
      "name": "setApprovalForAll",
      "outputs": [],
      "stateMutability": "nonpayable",
      "type": "function"
    },
    {
      "inputs": [
        {
          "internalType": "uint16",
          "name": "_cardTypeId",
          "type": "uint16"
        },
        {
          "internalType": "uint256",
          "name": "_hoursFromNow",
          "type": "uint256"
        }
      ],
      "name": "setStoreRelease",
      "outputs": [],
      "stateMutability": "nonpayable",
      "type": "function"
    },
    {
      "inputs": [
        {
          "internalType": "address",
          "name": "",
          "type": "address"
        }
      ],
      "name": "sponsors",
      "outputs": [
        {
          "internalType": "address",
          "name": "",
          "type": "address"
        }
      ],
      "stateMutability": "view",
      "type": "function",
      "constant": true
    },
    {
      "inputs": [
        {
          "internalType": "uint16",
          "name": "",
          "type": "uint16"
        }
      ],
      "name": "storeReleaseTime",
      "outputs": [
        {
          "internalType": "uint256",
          "name": "",
          "type": "uint256"
        }
      ],
      "stateMutability": "view",
      "type": "function",
      "constant": true
    },
    {
      "inputs": [],
      "name": "symbol",
      "outputs": [
        {
          "internalType": "string",
          "name": "",
          "type": "string"
        }
      ],
      "stateMutability": "view",
      "type": "function",
      "constant": true
    },
    {
      "inputs": [
        {
          "internalType": "uint256",
          "name": "index",
          "type": "uint256"
        }
      ],
      "name": "tokenByIndex",
      "outputs": [
        {
          "internalType": "uint256",
          "name": "",
          "type": "uint256"
        }
      ],
      "stateMutability": "view",
      "type": "function",
      "constant": true
    },
    {
      "inputs": [
        {
          "internalType": "address",
          "name": "owner",
          "type": "address"
        },
        {
          "internalType": "uint256",
          "name": "index",
          "type": "uint256"
        }
      ],
      "name": "tokenOfOwnerByIndex",
      "outputs": [
        {
          "internalType": "uint256",
          "name": "",
          "type": "uint256"
        }
      ],
      "stateMutability": "view",
      "type": "function",
      "constant": true
    },
    {
      "inputs": [
        {
          "internalType": "uint256",
          "name": "tokenId",
          "type": "uint256"
        }
      ],
      "name": "tokenURI",
      "outputs": [
        {
          "internalType": "string",
          "name": "",
          "type": "string"
        }
      ],
      "stateMutability": "view",
      "type": "function",
      "constant": true
    },
    {
      "inputs": [
        {
          "internalType": "uint256",
          "name": "",
          "type": "uint256"
        }
      ],
      "name": "tokensByRarity",
      "outputs": [
        {
          "internalType": "uint256",
          "name": "",
          "type": "uint256"
        }
      ],
      "stateMutability": "view",
      "type": "function",
      "constant": true
    },
    {
      "inputs": [],
      "name": "totalBoostersRewarded",
      "outputs": [
        {
          "internalType": "uint16",
          "name": "",
          "type": "uint16"
        }
      ],
      "stateMutability": "view",
      "type": "function",
      "constant": true
    },
    {
      "inputs": [],
      "name": "totalCardTypes",
      "outputs": [
        {
          "internalType": "uint16",
          "name": "",
          "type": "uint16"
        }
      ],
      "stateMutability": "view",
      "type": "function",
      "constant": true
    },
    {
      "inputs": [],
      "name": "totalSupply",
      "outputs": [
        {
          "internalType": "uint256",
          "name": "",
          "type": "uint256"
        }
      ],
      "stateMutability": "view",
      "type": "function",
      "constant": true
    },
    {
      "inputs": [
        {
          "internalType": "address",
          "name": "from",
          "type": "address"
        },
        {
          "internalType": "address",
          "name": "to",
          "type": "address"
        },
        {
          "internalType": "uint256",
          "name": "tokenId",
          "type": "uint256"
        }
      ],
      "name": "transferFrom",
      "outputs": [],
      "stateMutability": "nonpayable",
      "type": "function"
    },
    {
      "inputs": [
        {
          "internalType": "address",
          "name": "newOwner",
          "type": "address"
        }
      ],
      "name": "transferOwnership",
      "outputs": [],
      "stateMutability": "nonpayable",
      "type": "function"
    },
    {
      "inputs": [],
      "name": "weiCostOfBooster",
      "outputs": [
        {
          "internalType": "uint256",
          "name": "",
          "type": "uint256"
        }
      ],
      "stateMutability": "view",
      "type": "function",
      "constant": true
    },
    {
      "inputs": [],
      "name": "zoomBaseCost",
      "outputs": [
        {
          "internalType": "uint256",
          "name": "",
          "type": "uint256"
        }
      ],
      "stateMutability": "view",
      "type": "function",
      "constant": true
    },
    {
      "inputs": [],
      "name": "zoomGainedPerBoosterCredit",
      "outputs": [
        {
          "internalType": "uint256",
          "name": "",
          "type": "uint256"
        }
      ],
      "stateMutability": "view",
      "type": "function",
      "constant": true
    },
    {
      "inputs": [],
      "name": "zoomTokenContract",
      "outputs": [
        {
          "internalType": "address",
          "name": "",
          "type": "address"
        }
      ],
      "stateMutability": "view",
      "type": "function",
      "constant": true
    },
    {
      "inputs": [
        {
          "internalType": "bytes4",
          "name": "interfaceId",
          "type": "bytes4"
        }
      ],
      "name": "supportsInterface",
      "outputs": [
        {
          "internalType": "bool",
          "name": "",
          "type": "bool"
        }
      ],
      "stateMutability": "view",
      "type": "function",
      "constant": true
    },
    {
      "inputs": [
        {
          "internalType": "uint16",
          "name": "_cardTypeId",
          "type": "uint16"
        }
      ],
      "name": "buyCard",
      "outputs": [],
      "stateMutability": "payable",
      "type": "function",
      "payable": true
    },
    {
      "inputs": [
        {
          "internalType": "uint16",
          "name": "_cardTypeId",
          "type": "uint16"
        }
      ],
      "name": "getFreeCard",
      "outputs": [],
      "stateMutability": "payable",
      "type": "function",
      "payable": true
    },
    {
      "inputs": [
        {
          "internalType": "uint256[]",
          "name": "_tokenIds",
          "type": "uint256[]"
        }
      ],
      "name": "sacrificeNFTs",
      "outputs": [],
      "stateMutability": "nonpayable",
      "type": "function"
    },
    {
      "inputs": [
        {
          "internalType": "address",
          "name": "_player",
          "type": "address"
        }
      ],
      "name": "getBonusBoosters",
      "outputs": [],
      "stateMutability": "nonpayable",
      "type": "function"
    },
    {
      "inputs": [
        {
          "internalType": "address",
          "name": "_player",
          "type": "address"
        }
      ],
      "name": "getTimeToDailyBonus",
      "outputs": [
        {
          "internalType": "uint256",
          "name": "timeStamp",
          "type": "uint256"
        }
      ],
      "stateMutability": "view",
      "type": "function",
      "constant": true
    },
    {
      "inputs": [
        {
          "internalType": "address",
          "name": "_mySponsor",
          "type": "address"
        }
      ],
      "name": "linkMySponsor",
      "outputs": [],
      "stateMutability": "nonpayable",
      "type": "function"
    },
    {
      "inputs": [
        {
          "internalType": "uint256",
          "name": "_amount",
          "type": "uint256"
        }
      ],
      "name": "buyBoosterCredits",
      "outputs": [
        {
          "internalType": "bool",
          "name": "",
          "type": "bool"
        }
      ],
      "stateMutability": "payable",
      "type": "function",
      "payable": true
    },
    {
      "inputs": [],
      "name": "buyBoosterAndMintNFT",
      "outputs": [
        {
          "internalType": "bool",
          "name": "",
          "type": "bool"
        }
      ],
      "stateMutability": "payable",
      "type": "function",
      "payable": true
    },
    {
      "inputs": [
        {
          "internalType": "uint256",
          "name": "zoomWager",
          "type": "uint256"
        }
      ],
      "name": "mintBoosterNFT",
      "outputs": [
        {
          "internalType": "bool",
          "name": "",
          "type": "bool"
        }
      ],
      "stateMutability": "nonpayable",
      "type": "function"
    },
    {
      "inputs": [
        {
          "internalType": "address",
          "name": "_winner",
          "type": "address"
        },
        {
          "internalType": "uint8",
          "name": "_amount",
          "type": "uint8"
        }
      ],
      "name": "awardBoosterCredits",
      "outputs": [
        {
          "internalType": "bool",
          "name": "",
          "type": "bool"
        }
      ],
      "stateMutability": "nonpayable",
      "type": "function"
    },
    {
      "inputs": [],
      "name": "withdraw",
      "outputs": [
        {
          "internalType": "bool",
          "name": "",
          "type": "bool"
        }
      ],
      "stateMutability": "nonpayable",
      "type": "function"
    }
  ],
  "bytecode": "0x600e805461ffff191690556101606040526000608081815260a082905260c082905260e08290526101008290526101208290526101409190915262000049906010906007620001f9565b506003601a55655af3107a400060205560dc6021556022805463ffffffff191661c3501790553480156200007c57600080fd5b5060405162005094380380620050948339810160408190526200009f91620002d5565b60408051808201825260088152675a6f6f6d6269657360c01b6020808301918252835180850190945260078452665a6f6f6d62696560c81b908401528151919291620000ee9160009162000241565b5080516200010490600190602084019062000241565b505050600062000119620001f560201b60201c565b600a80546001600160a01b0319166001600160a01b038316908117909155604051919250906000907f8be0079c531659141344cd1fd0a4f28419497f9722a3daafe3b4186f6b6457e0908290a350600a805460ff60a01b191690556001600160a01b0381166200018857600080fd5b60408051808201909152601b8082527f68747470733a2f2f7a6f6f6d626965732e776f726c642f6e66742f00000000006020909201918252620001ce91601c9162000241565b50600b80546001600160a01b0319166001600160a01b039290921691909117905562000342565b3390565b82600781019282156200022f579160200282015b828111156200022f578251829060ff169055916020019190600101906200020d565b506200023d929150620002be565b5090565b8280546200024f9062000305565b90600052602060002090601f0160209004810192826200027357600085556200022f565b82601f106200028e57805160ff19168380011785556200022f565b828001600101855582156200022f579182015b828111156200022f578251825591602001919060010190620002a1565b5b808211156200023d5760008155600101620002bf565b600060208284031215620002e7578081fd5b81516001600160a01b0381168114620002fe578182fd5b9392505050565b600181811c908216806200031a57607f821691505b602082108114156200033c57634e487b7160e01b600052602260045260246000fd5b50919050565b614d4280620003526000396000f3fe60806040526004361061031a5760003560e01c8063715018a6116101ab578063b88d4fde116100f7578063ef73cc6611610095578063f6856f181161006f578063f6856f1814610a00578063f8ae951114610a21578063f902803514610a41578063f93a0b3414610a5457600080fd5b8063ef73cc6614610993578063f2fde38b146109b3578063f34d7007146109d357600080fd5b8063d35590c2116100d1578063d35590c2146108c9578063d7272116146108ff578063e985e9c514610937578063ed6ae3b81461098057600080fd5b8063b88d4fde14610869578063c87b56dd14610889578063cc99b5cd146108a957600080fd5b8063a22cb46511610164578063aec29b8b1161013e578063aec29b8b146107ba578063afa61541146107f5578063b7e357a614610841578063b86709ca1461084957600080fd5b8063a22cb4651461074c578063a3c0b95b1461076c578063ae4cf492146107a757600080fd5b8063715018a6146106a45780637a93696a146106b95780638da5cb5b146106d9578063912fdfcb146106f757806395d89b4114610717578063993011d91461072c57600080fd5b806323b872dd1161026a5780634d3e2e5e116102235780636258cb16116101fd5780636258cb161461061e5780636352211e146106375780636501139a1461065757806370a082311461068457600080fd5b80634d3e2e5e146105bf5780634f6ccce7146105df5780635c975abb146105ff57600080fd5b806323b872dd146105145780632f745c591461053457806333d87d73146105545780633ccfd60b1461056a57806342842e0e1461057f57806342966c681461059f57600080fd5b80630ad4c4f4116102d757806316f73cde116102b157806316f73cde1461049c57806318160ddd146104c957806318b51885146104de5780631db18cf9146104fe57600080fd5b80630ad4c4f4146104145780630ef635091461044e57806312a1bf581461047c57600080fd5b806301ffc9a71461031f57806303666a851461035457806306fdde0314610378578063073024481461039a578063081812fc146103bc578063095ea7b3146103f4575b600080fd5b34801561032b57600080fd5b5061033f61033a3660046145b0565b610a6f565b60405190151581526020015b60405180910390f35b34801561036057600080fd5b5061036a60215481565b60405190815260200161034b565b34801561038457600080fd5b5061038d610a80565b60405161034b91906147f7565b3480156103a657600080fd5b506103ba6103b5366004614353565b610b12565b005b3480156103c857600080fd5b506103dc6103d7366004614714565b610c5a565b6040516001600160a01b03909116815260200161034b565b34801561040057600080fd5b506103ba61040f3660046144b6565b610cef565b34801561042057600080fd5b5061043461042f366004614714565b610e05565b6040805161ffff909316835260208301919091520161034b565b34801561045a57600080fd5b50600e546104699061ffff1681565b60405161ffff909116815260200161034b565b34801561048857600080fd5b506103ba610497366004614508565b610e49565b3480156104a857600080fd5b5061036a6104b73660046145e8565b600f6020526000908152604090205481565b3480156104d557600080fd5b5060085461036a565b3480156104ea57600080fd5b50600b546103dc906001600160a01b031681565b34801561050a57600080fd5b5061036a60205481565b34801561052057600080fd5b506103ba61052f36600461439f565b6110c6565b34801561054057600080fd5b5061036a61054f3660046144b6565b6110f8565b34801561056057600080fd5b5061046961138881565b34801561057657600080fd5b5061033f61118e565b34801561058b57600080fd5b506103ba61059a36600461439f565b6111ef565b3480156105ab57600080fd5b506103ba6105ba366004614714565b61120a565b3480156105cb57600080fd5b5061036a6105da366004614714565b611284565b3480156105eb57600080fd5b5061036a6105fa366004614714565b61129b565b34801561060b57600080fd5b50600a54600160a01b900460ff1661033f565b34801561062a57600080fd5b5061036a64174876e80081565b34801561064357600080fd5b506103dc610652366004614714565b61133c565b34801561066357600080fd5b5061036a610672366004614353565b601f6020526000908152604090205481565b34801561069057600080fd5b5061036a61069f366004614353565b6113b3565b3480156106b057600080fd5b506103ba61143a565b3480156106c557600080fd5b5061033f6106d4366004614714565b6114ae565b3480156106e557600080fd5b50600a546001600160a01b03166103dc565b34801561070357600080fd5b506103ba610712366004614353565b611607565b34801561072357600080fd5b5061038d61176f565b34801561073857600080fd5b5061033f6107473660046144df565b61177e565b34801561075857600080fd5b506103ba610767366004614453565b6118f8565b34801561077857600080fd5b50610434610787366004614714565b6019602052600090815260409020805460019091015461ffff9091169082565b6103ba6107b53660046145e8565b6119bd565b3480156107c657600080fd5b5061033f6107d536600461448d565b601760209081526000928352604080842090915290825290205460ff1681565b34801561080157600080fd5b50601154601254601354601454601554601654604080519687526020870195909552938501929092526060840152608083015260a082015260c00161034b565b61033f611d3c565b34801561085557600080fd5b506103ba6108643660046146f9565b611e26565b34801561087557600080fd5b506103ba6108843660046143da565b611fe6565b34801561089557600080fd5b5061038d6108a4366004614714565b61201e565b3480156108b557600080fd5b506103ba6108c4366004614602565b6120f9565b3480156108d557600080fd5b506103dc6108e4366004614353565b601d602052600090815260409020546001600160a01b031681565b34801561090b57600080fd5b5061091f61091a3660046145e8565b6125e4565b60405161034b9c9b9a999897969594939291906149a9565b34801561094357600080fd5b5061033f61095236600461436d565b6001600160a01b03918216600090815260056020908152604080832093909416825291909152205460ff1690565b6103ba61098e3660046145e8565b612763565b34801561099f57600080fd5b506104696109ae366004614744565b612973565b3480156109bf57600080fd5b506103ba6109ce366004614353565b6129ba565b3480156109df57600080fd5b5061036a6109ee3660046145e8565b60186020526000908152604090205481565b348015610a0c57600080fd5b506022546104699062010000900461ffff1681565b348015610a2d57600080fd5b5061036a610a3c366004614353565b612aa5565b61033f610a4f366004614714565b612aee565b348015610a6057600080fd5b506022546104699061ffff1681565b6000610a7a82612bae565b92915050565b606060008054610a8f90614c08565b80601f0160208091040260200160405190810160405280929190818152602001828054610abb90614c08565b8015610b085780601f10610add57610100808354040283529160200191610b08565b820191906000526020600020905b815481529060010190602001808311610aeb57829003601f168201915b5050505050905090565b610b1b81612aa5565b421015610b835760405162461bcd60e51b815260206004820152602b60248201527f43616e277420636c61696d206265666f72652074696d6520746f20636c61696d60448201526a206e65787420626f6e757360a81b60648201526084015b60405180910390fd5b610b8f42617080614a8c565b6001600160a01b0382166000908152601e6020526040902055602154610bc1908290610bbc906002614ba6565b612bd3565b610bd86021546002610bd39190614ba6565b612c3d565b6001600160a01b0381166000908152601f60205260408120805460029290610c01908490614a8c565b90915550506001600160a01b0381166000818152601f6020908152604091829020548251938452908301527fdea0c85af515c9fffcca886846213edc28206526b243af2f064b6962032ce185910160405180910390a150565b6000818152600260205260408120546001600160a01b0316610cd35760405162461bcd60e51b815260206004820152602c60248201527f4552433732313a20617070726f76656420717565727920666f72206e6f6e657860448201526b34b9ba32b73a103a37b5b2b760a11b6064820152608401610b7a565b506000908152600460205260409020546001600160a01b031690565b6000610cfa8261133c565b9050806001600160a01b0316836001600160a01b03161415610d685760405162461bcd60e51b815260206004820152602160248201527f4552433732313a20617070726f76616c20746f2063757272656e74206f776e656044820152603960f91b6064820152608401610b7a565b336001600160a01b0382161480610d845750610d848133610952565b610df65760405162461bcd60e51b815260206004820152603860248201527f4552433732313a20617070726f76652063616c6c6572206973206e6f74206f7760448201527f6e6572206e6f7220617070726f76656420666f7220616c6c00000000000000006064820152608401610b7a565b610e008383612cf5565b505050565b60008181526002602052604081205481906001600160a01b0316610e2857600080fd5b50506000908152601960205260409020805460019091015461ffff90911691565b61010081511115610ec25760405162461bcd60e51b815260206004820152603b60248201527f4c697374206f6620746f6b656e7320746f20736163726966696365206d75737460448201527f206265206c657373207468616e2032353720617420612074696d6500000000006064820152608401610b7a565b6000805b82518110156110ae57610eff838281518110610ef257634e487b7160e01b600052603260045260246000fd5b602002602001015161120a565b600060196000858481518110610f2557634e487b7160e01b600052603260045260246000fd5b602090810291909101810151825281810192909252604090810160009081205461ffff16808252600c909352206003015490915060019060109062010000900460ff1660078110610f8657634e487b7160e01b600052603260045260246000fd5b016000828254610f969190614bc5565b909155505061ffff81166000908152600c6020526040902060060154610fbc9084614a8c565b925060196000858481518110610fe257634e487b7160e01b600052603260045260246000fd5b60209081029190910181015182528101919091526040016000908120805461ffff19168155600101557f892362fdae2aa1fec0517f70658abd25f4ea8757b1b0675bce3c84a2425b80b83385848151811061104d57634e487b7160e01b600052603260045260246000fd5b60209081029190910181015161ffff85166000818152600c84526040908190206006015481516001600160a01b0390961686529385019290925290830152606082015260800160405180910390a150806110a681614c65565b915050610ec6565b506110b93382612bd3565b6110c281612c3d565b5050565b6110d1335b82612d63565b6110ed5760405162461bcd60e51b8152600401610b7a90614958565b610e00838383612e5a565b6000611103836113b3565b82106111655760405162461bcd60e51b815260206004820152602b60248201527f455243373231456e756d657261626c653a206f776e657220696e646578206f7560448201526a74206f6620626f756e647360a81b6064820152608401610b7a565b506001600160a01b03919091166000908152600660209081526040808320938352929052205490565b600a546000906001600160a01b031633146111bb5760405162461bcd60e51b8152600401610b7a90614923565b60405133904780156108fc02916000818181858888f193505050501580156111e7573d6000803e3d6000fd5b506001905090565b610e0083838360405180602001604052806000815250611fe6565b611213336110cb565b6112785760405162461bcd60e51b815260206004820152603060248201527f4552433732314275726e61626c653a2063616c6c6572206973206e6f74206f7760448201526f1b995c881b9bdc88185c1c1c9bdd995960821b6064820152608401610b7a565b61128181613005565b50565b6010816007811061129457600080fd5b0154905081565b60006112a660085490565b82106113095760405162461bcd60e51b815260206004820152602c60248201527f455243373231456e756d657261626c653a20676c6f62616c20696e646578206f60448201526b7574206f6620626f756e647360a01b6064820152608401610b7a565b6008828154811061132a57634e487b7160e01b600052603260045260246000fd5b90600052602060002001549050919050565b6000818152600260205260408120546001600160a01b031680610a7a5760405162461bcd60e51b815260206004820152602960248201527f4552433732313a206f776e657220717565727920666f72206e6f6e657869737460448201526832b73a103a37b5b2b760b91b6064820152608401610b7a565b60006001600160a01b03821661141e5760405162461bcd60e51b815260206004820152602a60248201527f4552433732313a2062616c616e636520717565727920666f7220746865207a65604482015269726f206164647265737360b01b6064820152608401610b7a565b506001600160a01b031660009081526003602052604090205490565b600a546001600160a01b031633146114645760405162461bcd60e51b8152600401610b7a90614923565b600a546040516000916001600160a01b0316907f8be0079c531659141344cd1fd0a4f28419497f9722a3daafe3b4186f6b6457e0908390a3600a80546001600160a01b0319169055565b336000908152601f602052604081205461150a5760405162461bcd60e51b815260206004820152601860248201527f4e6f20426f6f737465722063726564697473206f776e656400000000000000006044820152606401610b7a565b81158061151a5750620f42408210155b6115755760405162461bcd60e51b815260206004820152602660248201527f5761676572206d7573742062652030206f7220686967686572207468616e203160448201526503030303030360d41b6064820152608401610b7a565b336000908152601f60205260408120805460019290611595908490614bc5565b90915550600090506115a6836130ac565b90505b6115b281613319565b6115c5576115bf81613319565b506115a9565b6040805160ff83168152905133917f9110cd00ebf5075b22eead1dbb6c4f4c5b7bd329bc646333c004dfb9e8c21f0b919081900360200190a250600192915050565b6001600160a01b03811661165d5760405162461bcd60e51b815260206004820152601b60248201527f53656e6420612076616c69642073706f6e736f722077616c6c657400000000006044820152606401610b7a565b336000908152601d60205260409020546001600160a01b0316156116cd5760405162461bcd60e51b815260206004820152602160248201527f596f75206861766520616c7265616479206c696e6b656420612073706f6e736f6044820152603960f91b6064820152608401610b7a565b336001600160a01b03821614156117265760405162461bcd60e51b815260206004820152601b60248201527f596f752063616e6e6f742073706f6e736f7220796f757273656c6600000000006044820152606401610b7a565b336000818152601d6020526040902080546001600160a01b0319166001600160a01b03841617905561175a906101f4612bd3565b6117656101f4612c3d565b6110c26002613319565b606060018054610a8f90614c08565b600a546000906001600160a01b031633146117ab5760405162461bcd60e51b8152600401610b7a90614923565b60225461ffff808216916117ca9160ff86169162010000900416614a6f565b61ffff1611156118325760405162461bcd60e51b815260206004820152602d60248201527f52656163686564206d61782e206e756d626572206f6620426f6f73746572206360448201526c7265646974207265776172647360981b6064820152608401610b7a565b8160ff16602260028282829054906101000a900461ffff166118549190614a6f565b92506101000a81548161ffff021916908361ffff1602179055508160ff16601f6000856001600160a01b03166001600160a01b0316815260200190815260200160002060008282546118a69190614a8c565b9091555050604080516001600160a01b038516815260ff841660208201527f0db7c2749c43f1a3f16904833bf2cf21b6f6e675613def2bd07ec6b2de65bf8b910160405180910390a150600192915050565b6001600160a01b0382163314156119515760405162461bcd60e51b815260206004820152601960248201527f4552433732313a20617070726f766520746f2063616c6c6572000000000000006044820152606401610b7a565b3360008181526005602090815260408083206001600160a01b03871680855290835292819020805460ff191686151590811790915590519081529192917f17307eab39ab6107e8899845ad3d59bd9653f200f220920489ca2b5937696c31910160405180910390a35050565b61ffff8082166000908152600c602052604090205416611a1f5760405162461bcd60e51b815260206004820152601b60248201527f43617264207479706520494420646f6573206e6f7420657869737400000000006044820152606401610b7a565b61ffff81166000908152600c6020526040902060030154610100900460ff1615611a5b5760405162461bcd60e51b8152600401610b7a9061489f565b61ffff81166000908152600f6020526040902054421015611abe5760405162461bcd60e51b815260206004820152601b60248201527f43617264206e6f742072656c65617365642066726f6d2073686f7000000000006044820152606401610b7a565b61ffff8116600090815260186020526040902054611add906001614a8c565b61ffff8083166000908152600c602052604090206003015463010000009004161015611b1b5760405162461bcd60e51b8152600401610b7a9061485c565b33600090815260176020908152604080832061ffff8516845290915290205460ff1615611b5a5760405162461bcd60e51b8152600401610b7a906148e2565b61ffff81166000908152600c6020526040902060040154341015611bd85760405162461bcd60e51b815260206004820152602f60248201527f596f752068617665206e6f74207061696420656e6f756768204d4f565220746f60448201526e206d696e742074686973207479706560881b6064820152608401610b7a565b600b546000906001600160a01b03166370a08231336040516001600160e01b031960e084901b1681526001600160a01b03909116600482015260240160206040518083038186803b158015611c2c57600080fd5b505afa158015611c40573d6000803e3d6000fd5b505050506040513d601f19601f82011682018060405250810190611c64919061472c565b61ffff83166000908152600c602052604081206007015491925090611c8a90600a614ba6565b611c999064174876e800614ba6565b61ffff84166000908152600c602052604090206007015490915082101580611cc15750803410155b611d335760405162461bcd60e51b815260206004820152603d60248201527f596f7520646f206e6f74206861766520746865207265717569726564205a6f6f60448201527f6d2062616c616e6365204f72204d4f5652202b6571756976616c656e740000006064820152608401610b7a565b610e0083613417565b6000602054341015611da35760405162461bcd60e51b815260206004820152602a60248201527f436f737420746f2062757920616e64206d696e74206120426f6f73746572204e604482015269465420697320302e303160b01b6064820152608401610b7a565b611daf33602154612bd3565b611dba602154612c3d565b6000611dc660006130ac565b90505b611dd281613319565b611de557611ddf81613319565b50611dc9565b6040805160ff83168152905133917f9110cd00ebf5075b22eead1dbb6c4f4c5b7bd329bc646333c004dfb9e8c21f0b919081900360200190a2600191505090565b600a546001600160a01b03163314611e505760405162461bcd60e51b8152600401610b7a90614923565b61ffff8083166000818152600c602052604090205490911614611ec05760405162461bcd60e51b815260206004820152602260248201527f546869732063617264547970654964206973206e6f7420646566696e65642079604482015261195d60f21b6064820152608401610b7a565b61088e811115611f385760405162461bcd60e51b815260206004820152603960248201527f686f75727346726f6d4e6f77206d757374206265206120706f7369746976652060448201527f6e756d62657220616e64206c657373207468616e2032313930000000000000006064820152608401610b7a565b61ffff82166000908152600f6020526040902054421115611fb55760405162461bcd60e51b815260206004820152603160248201527f43616e206f6e6c79206368616e67652072656c656173652074696d6573206f6e60448201527020556e72656c656173656420636172647360781b6064820152608401610b7a565b611fc181610e10614ba6565b611fcb9042614a8c565b61ffff9092166000908152600f602052604090209190915550565b611ff03383612d63565b61200c5760405162461bcd60e51b8152600401610b7a90614958565b612018848484846135a6565b50505050565b6000818152600260205260409020546060906001600160a01b031661209d5760405162461bcd60e51b815260206004820152602f60248201527f4552433732314d657461646174613a2055524920717565727920666f72206e6f60448201526e3732bc34b9ba32b73a103a37b5b2b760891b6064820152608401610b7a565b60006120a76135d9565b905060008151116120c757604051806020016040528060008152506120f2565b806120d1846135e8565b6040516020016120e292919061478b565b6040516020818303038152906040525b9392505050565b600a546001600160a01b031633146121235760405162461bcd60e51b8152600401610b7a90614923565b600e5461138861ffff90911611156121885760405162461bcd60e51b815260206004820152602260248201527f4d6178696d756d206f6620353030302063617264205479706573207265616368604482015261195960f21b6064820152608401610b7a565b61ffff808d166000908152600c602052604090205416156122085760405162461bcd60e51b815260206004820152603460248201527f4e6f7420616c6c6f77656420746f2075706461746520616e206578697374696e604482015273339031b0b9322a3cb832903232b334b734ba37b760611b6064820152608401610b7a565b60ff881615801561221d575060018661ffff16105b156122795760405162461bcd60e51b815260206004820152602660248201527f496e2073746f7265207479706573206d757374206265206c696d6974656420656044820152653234ba34b7b760d11b6064820152608401610b7a565b60008860ff1611801561228c5750600085115b156122e35760405162461bcd60e51b815260206004820152602160248201527f426f6f737465722f426f6e7573206d6179204e4f542068617665206120636f736044820152601d60fa1b6064820152608401610b7a565b61ffff8c166000818152600c60209081526040909120805461ffff191690921782558c5161231792600101918e01906141cd565b5061ffff8c166000908152600c602090815260409091208b51612342926002909201918d01906141cd565b5088600c60008e61ffff1661ffff16815260200190815260200160002060030160006101000a81548160ff021916908360ff16021790555087600c60008e61ffff1661ffff16815260200190815260200160002060030160016101000a81548160ff021916908360ff16021790555086600c60008e61ffff1661ffff16815260200190815260200160002060030160026101000a81548160ff021916908360ff16021790555085600c60008e61ffff1661ffff16815260200190815260200160002060030160036101000a81548161ffff021916908361ffff16021790555084600c60008e61ffff1661ffff1681526020019081526020016000206004018190555083600c60008e61ffff1661ffff1681526020019081526020016000206005018190555082600c60008e61ffff1661ffff1681526020019081526020016000206006018190555081600c60008e61ffff1661ffff1681526020019081526020016000206007018190555080600c60008e61ffff1661ffff16815260200190815260200160002060080160006101000a81548160ff021916908360ff160217905550600e600081819054906101000a900461ffff168092919061250490614c43565b91906101000a81548161ffff021916908361ffff1602179055505060008860ff1611156125ad57600d60008860ff1660ff1681526020019081526020016000208c90806001815401808255809150506001900390600052602060002090601091828204019190066002029091909190916101000a81548161ffff021916908361ffff16021790555042600f60008e61ffff1661ffff168152602001908152602001600020819055505b60ff88166125d6576125c142610258614a8c565b61ffff8d166000908152600f60205260409020555b505050505050505050505050565b600c602052600090815260409020805460018201805461ffff909216929161260b90614c08565b80601f016020809104026020016040519081016040528092919081815260200182805461263790614c08565b80156126845780601f1061265957610100808354040283529160200191612684565b820191906000526020600020905b81548152906001019060200180831161266757829003601f168201915b50505050509080600201805461269990614c08565b80601f01602080910402602001604051908101604052809291908181526020018280546126c590614c08565b80156127125780601f106126e757610100808354040283529160200191612712565b820191906000526020600020905b8154815290600101906020018083116126f557829003601f168201915b50505060038401546004850154600586015460068701546007880154600890980154969760ff808616986101008704821698506201000087048216975061ffff63010000009097049690961695168c565b61ffff8082166000908152600c6020526040902054166127c55760405162461bcd60e51b815260206004820152601b60248201527f43617264207479706520494420646f6573206e6f7420657869737400000000006044820152606401610b7a565b61ffff81166000908152600c6020526040902060030154610100900460ff16156128015760405162461bcd60e51b8152600401610b7a9061489f565b61ffff81166000908152600f60205260409020544210156128645760405162461bcd60e51b815260206004820152601b60248201527f43617264206e6f742072656c65617365642066726f6d2073686f7000000000006044820152606401610b7a565b61ffff8116600090815260186020526040902054612883906001614a8c565b61ffff8083166000908152600c6020526040902060030154630100000090041610156128c15760405162461bcd60e51b8152600401610b7a9061485c565b33600090815260176020908152604080832061ffff8516845290915290205460ff16156129005760405162461bcd60e51b8152600401610b7a906148e2565b61ffff81166000908152600c602052604090206004015415611bd85760405162461bcd60e51b815260206004820152602660248201527f596f752061726520617474656d7074696e6720746f206d696e7420612070616960448201526564207479706560d01b6064820152608401610b7a565b600d602052816000526040600020818154811061298f57600080fd5b9060005260206000209060109182820401919006600202915091509054906101000a900461ffff1681565b600a546001600160a01b031633146129e45760405162461bcd60e51b8152600401610b7a90614923565b6001600160a01b038116612a495760405162461bcd60e51b815260206004820152602660248201527f4f776e61626c653a206e6577206f776e657220697320746865207a65726f206160448201526564647265737360d01b6064820152608401610b7a565b600a546040516001600160a01b038084169216907f8be0079c531659141344cd1fd0a4f28419497f9722a3daafe3b4186f6b6457e090600090a3600a80546001600160a01b0319166001600160a01b0392909216919091179055565b6001600160a01b0381166000908152601e6020526040812054612acd57610a7a600242614bc5565b506001600160a01b03166000908152601e602052604090205490565b919050565b600081602054612afe9190614ba6565b341015612b5e5760405162461bcd60e51b815260206004820152602860248201527f436f737420746f20627579203120426f6f73746572204e46542063726564697460448201526720697320302e303160c01b6064820152608401610b7a565b336000908152601f602052604081208054849290612b7d908490614a8c565b90915550612b9590503383602154610bbc9190614ba6565b612ba682602154610bd39190614ba6565b506001919050565b60006001600160e01b0319821663780e9d6360e01b1480610a7a5750610a7a82613702565b600b546040516321af688960e01b81526001600160a01b03848116600483015260248201849052909116906321af688990604401600060405180830381600087803b158015612c2157600080fd5b505af1158015612c35573d6000803e3d6000fd5b505050505050565b336000908152601d60205260409020546001600160a01b031615611281576000612c68600583614aa4565b905080612c73575060015b336000908152601d6020526040902054612c96906001600160a01b031682612bd3565b336000818152601d60209081526040918290205482516001600160a01b0391909116815290810192909252818101839052517e3da85d6058444eca57e3b88be14c734f4f239affe28b7629966e318de2a90e9181900360600190a15050565b600081815260046020526040902080546001600160a01b0319166001600160a01b0384169081179091558190612d2a8261133c565b6001600160a01b03167f8c5be1e5ebec7d5bd14f71427d1e84f3dd0314c0f7b2291e5b200ac8c7c3b92560405160405180910390a45050565b6000818152600260205260408120546001600160a01b0316612ddc5760405162461bcd60e51b815260206004820152602c60248201527f4552433732313a206f70657261746f7220717565727920666f72206e6f6e657860448201526b34b9ba32b73a103a37b5b2b760a11b6064820152608401610b7a565b6000612de78361133c565b9050806001600160a01b0316846001600160a01b03161480612e225750836001600160a01b0316612e1784610c5a565b6001600160a01b0316145b80612e5257506001600160a01b0380821660009081526005602090815260408083209388168352929052205460ff165b949350505050565b826001600160a01b0316612e6d8261133c565b6001600160a01b031614612ed55760405162461bcd60e51b815260206004820152602960248201527f4552433732313a207472616e73666572206f6620746f6b656e2074686174206960448201526839903737ba1037bbb760b91b6064820152608401610b7a565b6001600160a01b038216612f375760405162461bcd60e51b8152602060048201526024808201527f4552433732313a207472616e7366657220746f20746865207a65726f206164646044820152637265737360e01b6064820152608401610b7a565b612f42838383613752565b612f4d600082612cf5565b6001600160a01b0383166000908152600360205260408120805460019290612f76908490614bc5565b90915550506001600160a01b0382166000908152600360205260408120805460019290612fa4908490614a8c565b909155505060008181526002602052604080822080546001600160a01b0319166001600160a01b0386811691821790925591518493918716917fddf252ad1be2c89b69c2b068fc378daa952ba7f163c4a11628f55a4df523b3ef91a4505050565b60006130108261133c565b905061301e81600084613752565b613029600083612cf5565b6001600160a01b0381166000908152600360205260408120805460019290613052908490614bc5565b909155505060008281526002602052604080822080546001600160a01b0319169055518391906001600160a01b038416907fddf252ad1be2c89b69c2b068fc378daa952ba7f163c4a11628f55a4df523b3ef908390a45050565b60006605dc0000000bb882111561312b5760405162461bcd60e51b815260206004820152603c60248201527f596f75206d757374207761676572206c657373207468616e207468652075707060448201527f6572206c696d6974206f662031363439323637343431363637303030000000006064820152608401610b7a565b600b546000906001600160a01b03166370a08231336040516001600160e01b031960e084901b1681526001600160a01b03909116600482015260240160206040518083038186803b15801561317f57600080fd5b505afa158015613193573d6000803e3d6000fd5b505050506040513d601f19601f820116820180604052508101906131b7919061472c565b90508281101561321c5760405162461bcd60e51b815260206004820152602a60248201527f596f7520646f204e6f74206861766520656e6f756768205a4f4f4d20666f72206044820152693a3434b9903bb0b3b2b960b11b6064820152608401610b7a565b821561329557600b546001600160a01b03166336ec0dd6336040516001600160e01b031960e084901b1681526001600160a01b03909116600482015260248101869052604401600060405180830381600087803b15801561327c57600080fd5b505af1158015613290573d6000803e3d6000fd5b505050505b60006132a26127106137aa565b905060006132af85613829565b905060025b60078160ff16101561330d57818160ff16600781106132e357634e487b7160e01b600052603260045260246000fd5b602002015161ffff1683116132fb5795945050505050565b8061330581614c80565b9150506132b4565b50600695945050505050565b60ff81166000908152600d60205260408120548190613337906137aa565b60ff84166000908152600d60205260408120805492935090918390811061336e57634e487b7160e01b600052603260045260246000fd5b60009182526020808320601083040154600f9092166002026101000a90910461ffff908116808452600c9092526040909220600301549092506301000000900416158015906133f5575061ffff8082166000908152600c60209081526040808320600301546018909252909120546301000000909104909116906133f3906001614a8c565b115b15613404575060009392505050565b61340d81613417565b5060019392505050565b33600081815260176020908152604080832061ffff861684528252808320805460ff19166001179055600c9091529020600501546134559190612bd3565b61ffff81166000908152600c602052604090206005015461347590612c3d565b61ffff81166000908152601860205260408120805460019290613499908490614a8c565b9091555050601b8054600101905560006134b2601b5490565b90506134be33826138cf565b60408051808201825261ffff8481168083526000908152601860209081528482205481850190815286835260198252918590208451815461ffff191694169384178155915160019092018290558451868152908101919091529192909133917f36e996ba214404b0a557ef87433cf92f99d6f4e07c2ca5b7cf72a95d7ac7f09f910160405180910390a361ffff83166000908152600c602052604090206003015460019060109062010000900460ff166007811061358c57634e487b7160e01b600052603260045260246000fd5b01600082825461359c9190614a8c565b9091555050505050565b6135b1848484612e5a565b6135bd848484846138e9565b6120185760405162461bcd60e51b8152600401610b7a9061480a565b6060601c8054610a8f90614c08565b60608161360c5750506040805180820190915260018152600360fc1b602082015290565b8160005b8115613636578061362081614c65565b915061362f9050600a83614aa4565b9150613610565b60008167ffffffffffffffff81111561365f57634e487b7160e01b600052604160045260246000fd5b6040519080825280601f01601f191660200182016040528015613689576020820181803683370190505b5090505b8415612e525761369e600183614bc5565b91506136ab600a86614ca0565b6136b6906030614a8c565b60f81b8183815181106136d957634e487b7160e01b600052603260045260246000fd5b60200101906001600160f81b031916908160001a9053506136fb600a86614aa4565b945061368d565b60006001600160e01b031982166380ac58cd60e01b148061373357506001600160e01b03198216635b5e139f60e01b145b80610a7a57506301ffc9a760e01b6001600160e01b0319831614610a7a565b600a54600160a01b900460ff161561379f5760405162461bcd60e51b815260206004820152601060248201526f14185d5cd8589b194e881c185d5cd95960821b6044820152606401610b7a565b610e008383836139f6565b600080824233601a546040516020016137e89392919092835260609190911b6bffffffffffffffffffffffff19166020830152603482015260540190565b6040516020818303038152906040528051906020012060001c61380b9190614ca0565b601a8054919250600061381d83614c65565b90915550909392505050565b613831614251565b816138775750506040805160e08101825260008082526020820181905291810191909152600160608201526101f46080820152610dac60a082015261271060c082015290565b60008060008061388686613aae565b6040805160e0810182526000808252602082018190529181019190915261ffff9182166060820152918116608083015291821660a0820152911660c08201529695505050505050565b6110c2828260405180602001604052806000815250613cc1565b60006001600160a01b0384163b156139eb57604051630a85bd0160e11b81526001600160a01b0385169063150b7a029061392d9033908990889088906004016147ba565b602060405180830381600087803b15801561394757600080fd5b505af1925050508015613977575060408051601f3d908101601f19168201909252613974918101906145cc565b60015b6139d1573d8080156139a5576040519150601f19603f3d011682016040523d82523d6000602084013e6139aa565b606091505b5080516139c95760405162461bcd60e51b8152600401610b7a9061480a565b805181602001fd5b6001600160e01b031916630a85bd0160e11b149050612e52565b506001949350505050565b6001600160a01b038316613a5157613a4c81600880546000838152600960205260408120829055600182018355919091527ff3f7a9fe364faab93b216da50a3214154f22a0a2b415b23a84c8169e8b636ee30155565b613a74565b816001600160a01b0316836001600160a01b031614613a7457613a748382613cf4565b6001600160a01b038216613a8b57610e0081613d91565b826001600160a01b0316826001600160a01b031614610e0057610e008282613e6a565b604080516080808201835260018083526002602080850182905260038587015260046060808701919091528651948501875292845283015260069382019390935260189281019290925260009182918291829190613b0a61426f565b613b1261426f565b60005b6004811015613bdd57838160048110613b3e57634e487b7160e01b600052603260045260246000fd5b602002015160ff16613b4f8b613eae565b868360048110613b6f57634e487b7160e01b600052603260045260246000fd5b6020020151613b7d8d613eae565b613b879190614afb565b613b919190614aa4565b613b9b9190614aa4565b613ba6906064614ba6565b838260048110613bc657634e487b7160e01b600052603260045260246000fd5b602002015280613bd581614c65565b915050613b15565b5060608201516040830151602084015184516000939291613bfd91614a8c565b613c079190614a8c565b613c119190614a8c565b905060005b6004811015613c9b5781848260048110613c4057634e487b7160e01b600052603260045260246000fd5b6020020151613c5190612710614ba6565b613c5b9190614aa4565b838260048110613c7b57634e487b7160e01b600052603260045260246000fd5b61ffff909216602092909202015280613c9381614c65565b915050613c16565b5050805160208201516040830151606090930151919b909a509198509650945050505050565b613ccb838361407f565b613cd860008484846138e9565b610e005760405162461bcd60e51b8152600401610b7a9061480a565b60006001613d01846113b3565b613d0b9190614bc5565b600083815260076020526040902054909150808214613d5e576001600160a01b03841660009081526006602090815260408083208584528252808320548484528184208190558352600790915290208190555b5060009182526007602090815260408084208490556001600160a01b039094168352600681528383209183525290812055565b600854600090613da390600190614bc5565b60008381526009602052604081205460088054939450909284908110613dd957634e487b7160e01b600052603260045260246000fd5b906000526020600020015490508060088381548110613e0857634e487b7160e01b600052603260045260246000fd5b6000918252602080832090910192909255828152600990915260408082208490558582528120556008805480613e4e57634e487b7160e01b600052603160045260246000fd5b6001900381819060005260206000200160009055905550505050565b6000613e75836113b3565b6001600160a01b039093166000908152600660209081526040808320868452825280832085905593825260079052919091209190915550565b6000806120f2613ec1620425cc85614aa4565b604080517ff8f9cbfae6cc78fbefe7cdc3a1793dfcf4f0e8bbd8cec470b6a28a7a5a3e1efd81527ff5ecf1b3e9debc68e1d9cfabc5997135bfb7a7a3938b7b606b5b4b3f2f1f0ffe60208201527ff6e4ed9ff2d6b458eadcdf97bd91692de2d4da8fd2d0ac50c6ae9a8272523616818301527fc8c0b887b0a8a4489c948c7f847c6125746c645c544c444038302820181008ff60608201527ff7cae577eec2a03cf3bad76fb589591debb2dd67e0aa9834bea6925f6a4a2e0e60808201527fe39ed557db96902cd38ed14fad815115c786af479b7e8324736353433727170760a08201527fc976c13bb96e881cb166a933a55e490d9d56952b8d4e801485467d236242260660c08201527f753a6d1b65325d0c552a4d1345224105391a310b29122104190a11030902010060e0820152610100808201909252600160f81b6001600160801b68010000000000000000640100000000620100006010600460026000198c019081041790810417908104178881041790810417908104179081041790810417017e818283848586878898a8b8c8d8e8f929395969799a9b9d9e9faaeb6bedeeff0281900460ff039091015104600160ff1b909211020190565b6001600160a01b0382166140d55760405162461bcd60e51b815260206004820181905260248201527f4552433732313a206d696e7420746f20746865207a65726f20616464726573736044820152606401610b7a565b6000818152600260205260409020546001600160a01b03161561413a5760405162461bcd60e51b815260206004820152601c60248201527f4552433732313a20746f6b656e20616c7265616479206d696e746564000000006044820152606401610b7a565b61414660008383613752565b6001600160a01b038216600090815260036020526040812080546001929061416f908490614a8c565b909155505060008181526002602052604080822080546001600160a01b0319166001600160a01b03861690811790915590518392907fddf252ad1be2c89b69c2b068fc378daa952ba7f163c4a11628f55a4df523b3ef908290a45050565b8280546141d990614c08565b90600052602060002090601f0160209004810192826141fb5760008555614241565b82601f1061421457805160ff1916838001178555614241565b82800160010185558215614241579182015b82811115614241578251825591602001919060010190614226565b5061424d92915061428d565b5090565b6040518060e001604052806007906020820280368337509192915050565b60405180608001604052806004906020820280368337509192915050565b5b8082111561424d576000815560010161428e565b600067ffffffffffffffff8311156142bc576142bc614ce0565b6142cf601f8401601f1916602001614a3e565b90508281528383830111156142e357600080fd5b828260208301376000602084830101529392505050565b80356001600160a01b0381168114612ae957600080fd5b600082601f830112614321578081fd5b6120f2838335602085016142a2565b803561ffff81168114612ae957600080fd5b803560ff81168114612ae957600080fd5b600060208284031215614364578081fd5b6120f2826142fa565b6000806040838503121561437f578081fd5b614388836142fa565b9150614396602084016142fa565b90509250929050565b6000806000606084860312156143b3578081fd5b6143bc846142fa565b92506143ca602085016142fa565b9150604084013590509250925092565b600080600080608085870312156143ef578081fd5b6143f8856142fa565b9350614406602086016142fa565b925060408501359150606085013567ffffffffffffffff811115614428578182fd5b8501601f81018713614438578182fd5b614447878235602084016142a2565b91505092959194509250565b60008060408385031215614465578182fd5b61446e836142fa565b915060208301358015158114614482578182fd5b809150509250929050565b6000806040838503121561449f578182fd5b6144a8836142fa565b915061439660208401614330565b600080604083850312156144c8578182fd5b6144d1836142fa565b946020939093013593505050565b600080604083850312156144f1578182fd5b6144fa836142fa565b915061439660208401614342565b6000602080838503121561451a578182fd5b823567ffffffffffffffff80821115614531578384fd5b818501915085601f830112614544578384fd5b81358181111561455657614556614ce0565b8060051b9150614567848301614a3e565b8181528481019084860184860187018a1015614581578788fd5b8795505b838610156145a3578035835260019590950194918601918601614585565b5098975050505050505050565b6000602082840312156145c1578081fd5b81356120f281614cf6565b6000602082840312156145dd578081fd5b81516120f281614cf6565b6000602082840312156145f9578081fd5b6120f282614330565b6000806000806000806000806000806000806101808d8f03121561462457898afd5b61462d8d614330565b9b5067ffffffffffffffff60208e0135111561464757898afd5b6146578e60208f01358f01614311565b9a5067ffffffffffffffff60408e0135111561467157898afd5b6146818e60408f01358f01614311565b995061468f60608e01614342565b985061469d60808e01614342565b97506146ab60a08e01614342565b96506146b960c08e01614330565b955060e08d013594506101008d013593506101208d013592506101408d013591506146e76101608e01614342565b90509295989b509295989b509295989b565b6000806040838503121561470b578182fd5b6144d183614330565b600060208284031215614725578081fd5b5035919050565b60006020828403121561473d578081fd5b5051919050565b60008060408385031215614756578182fd5b6144d183614342565b60008151808452614777816020860160208601614bdc565b601f01601f19169290920160200192915050565b6000835161479d818460208801614bdc565b8351908301906147b1818360208801614bdc565b01949350505050565b6001600160a01b03858116825284166020820152604081018390526080606082018190526000906147ed9083018461475f565b9695505050505050565b6020815260006120f2602083018461475f565b60208082526032908201527f4552433732313a207472616e7366657220746f206e6f6e20455243373231526560408201527131b2b4bb32b91034b6b83632b6b2b73a32b960711b606082015260800190565b60208082526023908201527f416c6c206f662074686573652063617264732068617665206265656e206d696e6040820152621d195960ea1b606082015260800190565b60208082526023908201527f4f6e6c792063617264732066726f6d2073746f72652063616e206265206d696e6040820152621d195960ea1b606082015260800190565b60208082526021908201527f596f75206861766520616c7265616479206d696e7465642074686973207479706040820152606560f81b606082015260800190565b6020808252818101527f4f776e61626c653a2063616c6c6572206973206e6f7420746865206f776e6572604082015260600190565b60208082526031908201527f4552433732313a207472616e736665722063616c6c6572206973206e6f74206f6040820152701ddb995c881b9bdc88185c1c1c9bdd9959607a1b606082015260800190565b600061ffff808f16835261018060208401526149c961018084018f61475f565b83810360408501526149db818f61475f565b92505060ff8c16606084015260ff8b16608084015260ff8a1660a084015280891660c0840152508660e0830152856101008301528461012083015283610140830152614a2d61016083018460ff169052565b9d9c50505050505050505050505050565b604051601f8201601f1916810167ffffffffffffffff81118282101715614a6757614a67614ce0565b604052919050565b600061ffff8083168185168083038211156147b1576147b1614cb4565b60008219821115614a9f57614a9f614cb4565b500190565b600082614ab357614ab3614cca565b500490565b600181815b80851115614af3578160001904821115614ad957614ad9614cb4565b80851615614ae657918102915b93841c9390800290614abd565b509250929050565b60006120f260ff841683600082614b1457506001610a7a565b81614b2157506000610a7a565b8160018114614b375760028114614b4157614b5d565b6001915050610a7a565b60ff841115614b5257614b52614cb4565b50506001821b610a7a565b5060208310610133831016604e8410600b8410161715614b80575081810a610a7a565b614b8a8383614ab8565b8060001904821115614b9e57614b9e614cb4565b029392505050565b6000816000190483118215151615614bc057614bc0614cb4565b500290565b600082821015614bd757614bd7614cb4565b500390565b60005b83811015614bf7578181015183820152602001614bdf565b838111156120185750506000910152565b600181811c90821680614c1c57607f821691505b60208210811415614c3d57634e487b7160e01b600052602260045260246000fd5b50919050565b600061ffff80831681811415614c5b57614c5b614cb4565b6001019392505050565b6000600019821415614c7957614c79614cb4565b5060010190565b600060ff821660ff811415614c9757614c97614cb4565b60010192915050565b600082614caf57614caf614cca565b500690565b634e487b7160e01b600052601160045260246000fd5b634e487b7160e01b600052601260045260246000fd5b634e487b7160e01b600052604160045260246000fd5b6001600160e01b03198116811461128157600080fdfea2646970667358221220cd2ba505899bf1d2a6b5e828485df578967063f8c3baf437c20155d0399b89a164736f6c63430008040033",
  "immutableReferences": {},
  "source": "// SPDX-License-Identifier: MIT\npragma solidity ^0.8.4;\n\nimport \"./ZoomToken.sol\";\nimport \"./ZoombiesUniverse.sol\";\nimport \"@openzeppelin/contracts/token/ERC721/ERC721.sol\";\nimport \"@openzeppelin/contracts/token/ERC721/extensions/ERC721Burnable.sol\";\nimport \"@openzeppelin/contracts/utils/Counters.sol\";\n\ncontract Zoombies is ERC721, ERC721Burnable, ZoombiesUniverse {\n    using Counters for Counters.Counter;\n\n    Counters.Counter private _tokenIdCounter;\n    string private _baseTokenURI;\n\n    //Tracking affiliate sponsors\n    mapping(address => address) public sponsors; // 1 sponsor can have many affiliates, but only 1 sponsor, returns sponsor\n\n    //Track the timestamps for users to get their daily pull\n    mapping(address => uint256) private timeToCardsPull; //address to timestamp\n\n    //Tracking booster pack count ownership. These are NOT tokens, Player can mint a random NFT\n    mapping (address => uint256) public boosterCreditsOwned;\n\n    uint public weiCostOfBooster = 100000000000000;\n    uint256 public zoomGainedPerBoosterCredit = 220;\n\n    uint16 public maxBoostersRewards = 50000;\n    uint16 public totalBoostersRewarded = 0;\n\n    //Event Logs\n    event LogCardTypeLoaded(uint32 indexed cardTypeId, string cardName, uint editionTotal);\n    event LogCardMinted(address indexed buyer, uint tokenId, uint32 indexed cardTypeId, uint editionNumber);\n    event LogPackOpened(address indexed buyer, uint8 rarity);\n    event LogSponsorLinked(address sponsor, address affiliate);\n    event LogSponsorReward(address sponsor, address affiliate, uint zoomReward);\n    event LogDailyReward(address player, uint newBoosterBalance);\n    event LogRewardBoosters(address winner, uint boostersAwarded);\n    event LogSacrificeNFT(address owner, uint256 tokenId, uint16 cardTypeId, uint256 zoomGained);\n\n    constructor(address _zoomTokenContract)\n    ERC721(\"Zoombies\", \"Zoombie\")\n    {\n      require(_zoomTokenContract != address(0x0));\n      _baseTokenURI = 'https://zoombies.world/nft/';\n      zoomTokenContract = _zoomTokenContract;\n    }\n\n    function _baseURI() internal view virtual override returns (string memory) {\n        return _baseTokenURI;\n    }\n\n    function _beforeTokenTransfer(address from, address to, uint256 tokenId)\n        internal\n        whenNotPaused\n        override(ERC721, ERC721Enumerable)\n    {\n        super._beforeTokenTransfer(from, to, tokenId);\n    }\n\n    function supportsInterface(bytes4 interfaceId)\n        public\n        view\n        override(ERC721, ERC721Enumerable)\n        returns (bool)\n    {\n        return super.supportsInterface(interfaceId);\n    }\n\n    function buyCard(uint16 _cardTypeId) external payable {\n      require(allCardTypes[_cardTypeId].cardTypeId != 0, \"Card type ID does not exist\");\n      require(allCardTypes[_cardTypeId].notStoreOrBonus == 0, \"Only cards from store can be minted\");\n      require(block.timestamp >= storeReleaseTime[_cardTypeId], \"Card not released from shop\");\n      require(allCardTypes[_cardTypeId].totalAvailable >= (cardTypeToEdition[_cardTypeId]+1), \"All of these cards have been minted\");\n      require(cardTypesOwned[_msgSender()][_cardTypeId] == false, \"You have already minted this type\");\n      require(msg.value >= allCardTypes[_cardTypeId].weiCost , \"You have not paid enough MOVR to mint this type\");\n      uint zoom = ZoomToken(zoomTokenContract).balanceOf(_msgSender());\n      uint zoomCost = zoomBaseCost * (10*allCardTypes[_cardTypeId].unlockZoom);\n      require(zoom >= allCardTypes[_cardTypeId].unlockZoom || msg.value >= zoomCost, \"You do not have the required Zoom balance Or MOVR +equivalent\");\n\n      //ALL CLEAR ???????? mint new card\n      mintZoombieNFT(_cardTypeId);\n    }\n\n    function getFreeCard(uint16 _cardTypeId) external payable {\n      require(allCardTypes[_cardTypeId].cardTypeId != 0, \"Card type ID does not exist\");\n      require(allCardTypes[_cardTypeId].notStoreOrBonus == 0, \"Only cards from store can be minted\");\n      require(block.timestamp >= storeReleaseTime[_cardTypeId], \"Card not released from shop\");\n      require(allCardTypes[_cardTypeId].totalAvailable >= (cardTypeToEdition[_cardTypeId]+1), \"All of these cards have been minted\");\n      require(cardTypesOwned[_msgSender()][_cardTypeId] == false, \"You have already minted this type\");\n      require(allCardTypes[_cardTypeId].weiCost == 0, \"You are attempting to mint a paid type\");\n      uint myZooms = ZoomToken(zoomTokenContract).balanceOf(_msgSender());\n      uint zoomCost = zoomBaseCost * (10*allCardTypes[_cardTypeId].unlockZoom);\n      require(myZooms >= allCardTypes[_cardTypeId].unlockZoom || msg.value >= zoomCost, \"You do not have the required Zoom balance Or MOVR +equivalent\");\n\n      //ALL CLEAR ???????? claim and mint new card\n      mintZoombieNFT(_cardTypeId);\n    }\n\n    function sacrificeNFTs(uint256[] memory _tokenIds) external {\n\n      require(_tokenIds.length <= 256, 'List of tokens to sacrifice must be less than 257 at a time');\n\n      uint256 sacZoom = 0;\n      for(uint i=0; i < _tokenIds.length; i++){\n        burn(_tokenIds[i]); //ensure owner before we roll other data\n\n        uint16 _tempCTiD = NFTs[_tokenIds[i]].cardTypeId;\n        tokensByRarity[allCardTypes[_tempCTiD].rarity] -= 1;\n        sacZoom += allCardTypes[_tempCTiD].sacrificeZoom;\n        delete(NFTs[_tokenIds[i]]);\n        emit LogSacrificeNFT(_msgSender(), _tokenIds[i], _tempCTiD, allCardTypes[_tempCTiD].sacrificeZoom);\n      }\n\n      awardZoom(_msgSender(), sacZoom);\n      rewardAffiliate(sacZoom);\n    }\n\n    //every 8 hours, the address can get 2 free booster cards\n    function getBonusBoosters(address _player) external {\n        require(block.timestamp >= getTimeToDailyBonus(_player), \"Can't claim before time to claim next bonus\");\n\n        //Stop re-entrancy, update the lastpull value\n        timeToCardsPull[_player] = block.timestamp + 8 hours;\n\n        awardZoom(_player, zoomGainedPerBoosterCredit * 2);\n        rewardAffiliate(zoomGainedPerBoosterCredit * 2);\n\n        // add the boosters and emit event\n        boosterCreditsOwned[_player] += 2;\n        emit LogDailyReward(_player, boosterCreditsOwned[_player]);\n    }\n\n    function getTimeToDailyBonus(address _player) public view returns(uint256 timeStamp){\n\n        //check if address exists\n        if(timeToCardsPull[_player] == 0){\n            return block.timestamp - 2 seconds;\n        }else{\n            return timeToCardsPull[_player];\n        }\n    }\n\n    function linkMySponsor(address _mySponsor) external {\n        require(_mySponsor != address(0), \"Send a valid sponsor wallet\");\n        require(sponsors[_msgSender()] == address(0), \"You have already linked a sponsor\");\n        require(_msgSender() != _mySponsor, \"You cannot sponsor yourself\");\n\n        //All clear?  stop re-entrancy, set the association\n        sponsors[_msgSender()] = _mySponsor;\n\n        awardZoom(_msgSender(), 500);\n        rewardAffiliate(500);\n\n        //Mint the Platinum Sponsor Card\n        pullCard(2);\n    }\n\n    function buyBoosterCredits(uint _amount) payable external returns(bool) {\n        require(msg.value >= (weiCostOfBooster * _amount), \"Cost to buy 1 Booster NFT credit is 0.01\");\n\n        //All good increase the number owned\n        boosterCreditsOwned[_msgSender()] += _amount;\n\n        //Award czxp for booster\n        awardZoom(_msgSender(), (zoomGainedPerBoosterCredit * _amount));\n        rewardAffiliate(zoomGainedPerBoosterCredit * _amount);\n\n        return true;\n    }\n\n    function buyBoosterAndMintNFT() payable external returns(bool) {\n        require(msg.value >= weiCostOfBooster, \"Cost to buy and mint a Booster NFT is 0.01\");\n\n        //Award zoom per pack\n        awardZoom(_msgSender(), zoomGainedPerBoosterCredit);\n        rewardAffiliate(zoomGainedPerBoosterCredit);\n\n        //Pull the card\n        uint8 rarity = getRarity(0);\n        while(pullCard(rarity) == false){\n          pullCard(rarity);\n        }\n\n        //Send a log event\n        emit LogPackOpened(_msgSender(), rarity);\n        return true;\n    }\n\n    function mintBoosterNFT(uint zoomWager) external returns(bool) {\n        require(boosterCreditsOwned[_msgSender()] > 0, \"No Booster credits owned\");\n        require(zoomWager == 0 || zoomWager >= 1000000, \"Wager must be 0 or higher than 1000000\");\n\n        //STOP re-entrancy , decrement number of credits\n        boosterCreditsOwned[_msgSender()] -= 1;\n\n        //Pull the card\n        uint8 rarity = getRarity(zoomWager);\n        while(pullCard(rarity) == false){\n          pullCard(rarity);\n        }\n\n        //Send a log event\n        emit LogPackOpened(_msgSender(), rarity);\n        return true;\n    }\n\n    function awardBoosterCredits(address _winner, uint8 _amount) external onlyOwner returns(bool) {\n\n        //Check max. for Universe\n        require((totalBoostersRewarded + _amount) <= maxBoostersRewards, \"Reached max. number of Booster credit rewards\");\n\n        totalBoostersRewarded += _amount;\n        boosterCreditsOwned[_winner] += _amount;\n        emit LogRewardBoosters(_winner, _amount);\n        return true;\n    }\n\n//Private\n\n    function pullCard(uint8 _rarity) private returns (bool) {\n\n        //Get a random number for the card to pull\n        uint256 rand = selectRandom(allBoosterCardIds[_rarity].length);\n\n        //hit up the cardTypes\n        uint16 _pulledId = allBoosterCardIds[_rarity][rand];\n        if(allCardTypes[_pulledId].totalAvailable > 0  && //test for limited edition boosters\n           (cardTypeToEdition[_pulledId]+1) > allCardTypes[_pulledId].totalAvailable)\n           {\n             return false;\n        }\n\n        //Give the player this cardType\n        mintZoombieNFT(_pulledId);\n        return true;\n    }\n\n\n    function mintZoombieNFT(uint16 _cardTypeId) private {\n      //Stop re-entrancy, Track the type of card puchased for this owner, so they cant buy again\n      cardTypesOwned[_msgSender()][_cardTypeId] = true;\n\n      //Let the world award our friend\n      awardZoom(_msgSender(), allCardTypes[_cardTypeId].buyZoom);\n      //reward the sponsor\n      rewardAffiliate(allCardTypes[_cardTypeId].buyZoom);\n\n      cardTypeToEdition[_cardTypeId] += 1;\n\n      _tokenIdCounter.increment();\n      uint256 _newTokenId = _tokenIdCounter.current();\n\n      //now mint the NFT\n      _safeMint(_msgSender(), _newTokenId);\n\n      //Create the NFT data on chain!\n      NFTdata memory _tempCard = NFTdata({\n          cardTypeId:_cardTypeId,\n          editionNumber:cardTypeToEdition[_cardTypeId]\n      });\n      NFTs[_newTokenId] = _tempCard;\n\n      emit LogCardMinted(_msgSender(), _newTokenId, _tempCard.cardTypeId, _tempCard.editionNumber);\n\n      tokensByRarity[allCardTypes[_cardTypeId].rarity] += 1;\n    }\n\n    /**\n     * We always pay our affiliates 20% of the zoom commission\n     */\n     function rewardAffiliate(uint _totalZoom) private  {\n         //first check if the caller has a sponsor\n         if(sponsors[_msgSender()] != address(0)){\n             uint reward = _totalZoom / 5;\n             if(reward == 0){\n                 reward = 1;\n             }\n             awardZoom(sponsors[_msgSender()], reward);\n             emit LogSponsorReward(sponsors[_msgSender()], _msgSender(), reward);\n         }\n     }\n\n     /**\n      * Withdraw balance to wallet\n      */\n     function withdraw() public onlyOwner returns(bool) {\n        payable(_msgSender()).transfer(address(this).balance);\n        return true;\n     }\n\n}\n",
  "sourcePath": "/home/ryanpricelondon/zoombies/contracts/Zoombies.sol",
  "compiler": {
    "name": "solc",
    "version": "0.8.4+commit.c7e474f2.Emscripten.clang"
  },
  "schemaVersion": "3.4.0",
  "updatedAt": "2021-08-05T20:21:58.066Z",
  "networkType": "ethereum",
  "devdoc": {
    "kind": "dev",
    "methods": {
      "approve(address,uint256)": {
        "details": "See {IERC721-approve}."
      },
      "balanceOf(address)": {
        "details": "See {IERC721-balanceOf}."
      },
      "burn(uint256)": {
        "details": "Burns `tokenId`. See {ERC721-_burn}. Requirements: - The caller must own `tokenId` or be an approved operator."
      },
      "getApproved(uint256)": {
        "details": "See {IERC721-getApproved}."
      },
      "isApprovedForAll(address,address)": {
        "details": "See {IERC721-isApprovedForAll}."
      },
      "name()": {
        "details": "See {IERC721Metadata-name}."
      },
      "owner()": {
        "details": "Returns the address of the current owner."
      },
      "ownerOf(uint256)": {
        "details": "See {IERC721-ownerOf}."
      },
      "paused()": {
        "details": "Returns true if the contract is paused, and false otherwise."
      },
      "renounceOwnership()": {
        "details": "Leaves the contract without owner. It will not be possible to call `onlyOwner` functions anymore. Can only be called by the current owner. NOTE: Renouncing ownership will leave the contract without an owner, thereby removing any functionality that is only available to the owner."
      },
      "safeTransferFrom(address,address,uint256)": {
        "details": "See {IERC721-safeTransferFrom}."
      },
      "safeTransferFrom(address,address,uint256,bytes)": {
        "details": "See {IERC721-safeTransferFrom}."
      },
      "setApprovalForAll(address,bool)": {
        "details": "See {IERC721-setApprovalForAll}."
      },
      "symbol()": {
        "details": "See {IERC721Metadata-symbol}."
      },
      "tokenByIndex(uint256)": {
        "details": "See {IERC721Enumerable-tokenByIndex}."
      },
      "tokenOfOwnerByIndex(address,uint256)": {
        "details": "See {IERC721Enumerable-tokenOfOwnerByIndex}."
      },
      "tokenURI(uint256)": {
        "details": "See {IERC721Metadata-tokenURI}."
      },
      "totalSupply()": {
        "details": "See {IERC721Enumerable-totalSupply}."
      },
      "transferFrom(address,address,uint256)": {
        "details": "See {IERC721-transferFrom}."
      },
      "transferOwnership(address)": {
        "details": "Transfers ownership of the contract to a new account (`newOwner`). Can only be called by the current owner."
      }
    },
    "version": 1
  },
  "userdoc": {
    "kind": "user",
    "methods": {
      "withdraw()": {
        "notice": "Withdraw balance to wallet"
      }
    },
    "version": 1
  }
}