{
  "contractName": "ZoomToken",
  "abi": [
    {
      "inputs": [],
      "stateMutability": "nonpayable",
      "type": "constructor"
    },
    {
      "anonymous": false,
      "inputs": [
        {
          "indexed": true,
          "internalType": "address",
          "name": "owner",
          "type": "address"
        },
        {
          "indexed": true,
          "internalType": "address",
          "name": "spender",
          "type": "address"
        },
        {
          "indexed": false,
          "internalType": "uint256",
          "name": "value",
          "type": "uint256"
        }
      ],
      "name": "Approval",
      "type": "event"
    },
    {
      "anonymous": false,
      "inputs": [
        {
          "indexed": true,
          "internalType": "address",
          "name": "previousOwner",
          "type": "address"
        },
        {
          "indexed": true,
          "internalType": "address",
          "name": "newOwner",
          "type": "address"
        }
      ],
      "name": "OwnershipTransferred",
      "type": "event"
    },
    {
      "anonymous": false,
      "inputs": [
        {
          "indexed": false,
          "internalType": "address",
          "name": "account",
          "type": "address"
        }
      ],
      "name": "Paused",
      "type": "event"
    },
    {
      "anonymous": false,
      "inputs": [
        {
          "indexed": true,
          "internalType": "address",
          "name": "from",
          "type": "address"
        },
        {
          "indexed": true,
          "internalType": "address",
          "name": "to",
          "type": "address"
        },
        {
          "indexed": false,
          "internalType": "uint256",
          "name": "value",
          "type": "uint256"
        }
      ],
      "name": "Transfer",
      "type": "event"
    },
    {
      "anonymous": false,
      "inputs": [
        {
          "indexed": false,
          "internalType": "address",
          "name": "account",
          "type": "address"
        }
      ],
      "name": "Unpaused",
      "type": "event"
    },
    {
      "inputs": [],
      "name": "DOMAIN_SEPARATOR",
      "outputs": [
        {
          "internalType": "bytes32",
          "name": "",
          "type": "bytes32"
        }
      ],
      "stateMutability": "view",
      "type": "function",
      "constant": true
    },
    {
      "inputs": [
        {
          "internalType": "address",
          "name": "owner",
          "type": "address"
        },
        {
          "internalType": "address",
          "name": "spender",
          "type": "address"
        }
      ],
      "name": "allowance",
      "outputs": [
        {
          "internalType": "uint256",
          "name": "",
          "type": "uint256"
        }
      ],
      "stateMutability": "view",
      "type": "function",
      "constant": true
    },
    {
      "inputs": [
        {
          "internalType": "address",
          "name": "spender",
          "type": "address"
        },
        {
          "internalType": "uint256",
          "name": "amount",
          "type": "uint256"
        }
      ],
      "name": "approve",
      "outputs": [
        {
          "internalType": "bool",
          "name": "",
          "type": "bool"
        }
      ],
      "stateMutability": "nonpayable",
      "type": "function"
    },
    {
      "inputs": [
        {
          "internalType": "address",
          "name": "account",
          "type": "address"
        }
      ],
      "name": "balanceOf",
      "outputs": [
        {
          "internalType": "uint256",
          "name": "",
          "type": "uint256"
        }
      ],
      "stateMutability": "view",
      "type": "function",
      "constant": true
    },
    {
      "inputs": [
        {
          "internalType": "uint256",
          "name": "amount",
          "type": "uint256"
        }
      ],
      "name": "burn",
      "outputs": [],
      "stateMutability": "nonpayable",
      "type": "function"
    },
    {
      "inputs": [
        {
          "internalType": "address",
          "name": "account",
          "type": "address"
        },
        {
          "internalType": "uint256",
          "name": "amount",
          "type": "uint256"
        }
      ],
      "name": "burnFrom",
      "outputs": [],
      "stateMutability": "nonpayable",
      "type": "function"
    },
    {
      "inputs": [
        {
          "internalType": "address",
          "name": "",
          "type": "address"
        }
      ],
      "name": "contributions",
      "outputs": [
        {
          "internalType": "uint256",
          "name": "",
          "type": "uint256"
        }
      ],
      "stateMutability": "view",
      "type": "function",
      "constant": true
    },
    {
      "inputs": [],
      "name": "decimals",
      "outputs": [
        {
          "internalType": "uint8",
          "name": "",
          "type": "uint8"
        }
      ],
      "stateMutability": "view",
      "type": "function",
      "constant": true
    },
    {
      "inputs": [
        {
          "internalType": "address",
          "name": "spender",
          "type": "address"
        },
        {
          "internalType": "uint256",
          "name": "subtractedValue",
          "type": "uint256"
        }
      ],
      "name": "decreaseAllowance",
      "outputs": [
        {
          "internalType": "bool",
          "name": "",
          "type": "bool"
        }
      ],
      "stateMutability": "nonpayable",
      "type": "function"
    },
    {
      "inputs": [
        {
          "internalType": "address",
          "name": "spender",
          "type": "address"
        },
        {
          "internalType": "uint256",
          "name": "addedValue",
          "type": "uint256"
        }
      ],
      "name": "increaseAllowance",
      "outputs": [
        {
          "internalType": "bool",
          "name": "",
          "type": "bool"
        }
      ],
      "stateMutability": "nonpayable",
      "type": "function"
    },
    {
      "inputs": [],
      "name": "name",
      "outputs": [
        {
          "internalType": "string",
          "name": "",
          "type": "string"
        }
      ],
      "stateMutability": "view",
      "type": "function",
      "constant": true
    },
    {
      "inputs": [
        {
          "internalType": "address",
          "name": "owner",
          "type": "address"
        }
      ],
      "name": "nonces",
      "outputs": [
        {
          "internalType": "uint256",
          "name": "",
          "type": "uint256"
        }
      ],
      "stateMutability": "view",
      "type": "function",
      "constant": true
    },
    {
      "inputs": [],
      "name": "owner",
      "outputs": [
        {
          "internalType": "address",
          "name": "",
          "type": "address"
        }
      ],
      "stateMutability": "view",
      "type": "function",
      "constant": true
    },
    {
      "inputs": [],
      "name": "paused",
      "outputs": [
        {
          "internalType": "bool",
          "name": "",
          "type": "bool"
        }
      ],
      "stateMutability": "view",
      "type": "function",
      "constant": true
    },
    {
      "inputs": [
        {
          "internalType": "address",
          "name": "owner",
          "type": "address"
        },
        {
          "internalType": "address",
          "name": "spender",
          "type": "address"
        },
        {
          "internalType": "uint256",
          "name": "value",
          "type": "uint256"
        },
        {
          "internalType": "uint256",
          "name": "deadline",
          "type": "uint256"
        },
        {
          "internalType": "uint8",
          "name": "v",
          "type": "uint8"
        },
        {
          "internalType": "bytes32",
          "name": "r",
          "type": "bytes32"
        },
        {
          "internalType": "bytes32",
          "name": "s",
          "type": "bytes32"
        }
      ],
      "name": "permit",
      "outputs": [],
      "stateMutability": "nonpayable",
      "type": "function"
    },
    {
      "inputs": [],
      "name": "renounceOwnership",
      "outputs": [],
      "stateMutability": "nonpayable",
      "type": "function"
    },
    {
      "inputs": [],
      "name": "symbol",
      "outputs": [
        {
          "internalType": "string",
          "name": "",
          "type": "string"
        }
      ],
      "stateMutability": "view",
      "type": "function",
      "constant": true
    },
    {
      "inputs": [],
      "name": "totalContributors",
      "outputs": [
        {
          "internalType": "uint8",
          "name": "",
          "type": "uint8"
        }
      ],
      "stateMutability": "view",
      "type": "function",
      "constant": true
    },
    {
      "inputs": [],
      "name": "totalSupply",
      "outputs": [
        {
          "internalType": "uint256",
          "name": "",
          "type": "uint256"
        }
      ],
      "stateMutability": "view",
      "type": "function",
      "constant": true
    },
    {
      "inputs": [
        {
          "internalType": "address",
          "name": "recipient",
          "type": "address"
        },
        {
          "internalType": "uint256",
          "name": "amount",
          "type": "uint256"
        }
      ],
      "name": "transfer",
      "outputs": [
        {
          "internalType": "bool",
          "name": "",
          "type": "bool"
        }
      ],
      "stateMutability": "nonpayable",
      "type": "function"
    },
    {
      "inputs": [
        {
          "internalType": "address",
          "name": "sender",
          "type": "address"
        },
        {
          "internalType": "address",
          "name": "recipient",
          "type": "address"
        },
        {
          "internalType": "uint256",
          "name": "amount",
          "type": "uint256"
        }
      ],
      "name": "transferFrom",
      "outputs": [
        {
          "internalType": "bool",
          "name": "",
          "type": "bool"
        }
      ],
      "stateMutability": "nonpayable",
      "type": "function"
    },
    {
      "inputs": [
        {
          "internalType": "address",
          "name": "newOwner",
          "type": "address"
        }
      ],
      "name": "transferOwnership",
      "outputs": [],
      "stateMutability": "nonpayable",
      "type": "function"
    },
    {
      "inputs": [],
      "name": "zoombiesContract",
      "outputs": [
        {
          "internalType": "address",
          "name": "",
          "type": "address"
        }
      ],
      "stateMutability": "view",
      "type": "function",
      "constant": true
    },
    {
      "inputs": [],
      "name": "pause",
      "outputs": [],
      "stateMutability": "nonpayable",
      "type": "function"
    },
    {
      "inputs": [],
      "name": "unpause",
      "outputs": [],
      "stateMutability": "nonpayable",
      "type": "function"
    },
    {
      "inputs": [
        {
          "internalType": "address",
          "name": "_zoombiesContract",
          "type": "address"
        }
      ],
      "name": "setZoombiesContract",
      "outputs": [],
      "stateMutability": "nonpayable",
      "type": "function"
    },
    {
      "inputs": [
        {
          "internalType": "address",
          "name": "_to",
          "type": "address"
        },
        {
          "internalType": "uint256",
          "name": "_amount",
          "type": "uint256"
        }
      ],
      "name": "awardZoom",
      "outputs": [],
      "stateMutability": "nonpayable",
      "type": "function"
    },
    {
      "inputs": [
        {
          "internalType": "address",
          "name": "_wallet",
          "type": "address"
        },
        {
          "internalType": "uint256",
          "name": "_amount",
          "type": "uint256"
        }
      ],
      "name": "burnZoom",
      "outputs": [],
      "stateMutability": "nonpayable",
      "type": "function"
    },
    {
      "inputs": [],
      "name": "buy",
      "outputs": [],
      "stateMutability": "payable",
      "type": "function",
      "payable": true
    },
    {
      "inputs": [],
      "name": "withdraw",
      "outputs": [
        {
          "internalType": "bool",
          "name": "",
          "type": "bool"
        }
      ],
      "stateMutability": "nonpayable",
      "type": "function"
    }
  ],
  "bytecode": "0x6101406040527f6e71edae12b1b97f4d1f60370fef10105fa2faae0126114a169c64845d6126c9610120526007805460ff60a01b1916606360a01b1790553480156200004a57600080fd5b50604051806040016040528060098152602001682d37b7b6aa37b5b2b760b91b81525080604051806040016040528060018152602001603160f81b815250604051806040016040528060098152602001682d37b7b6aa37b5b2b760b91b815250604051806040016040528060048152602001635a4f4f4d60e01b8152508160039080519060200190620000df9291906200033f565b508051620000f59060049060208401906200033f565b5050600580546001600160a81b0319163361010081029190911790915560405190915081906000907f8be0079c531659141344cd1fd0a4f28419497f9722a3daafe3b4186f6b6457e0908290a350815160209283012081519183019190912060c082815260e08290524660a0818152604080517f8b73c3c69bb8fe3d512ecc4cf759cc79239f7b179b0ffacaa9a75d522b39400f8189018190528183019790975260608101959095526080808601939093523085830152805180860390920182529390920190925280519301929092209091526101005250620001dd33633b9aca00620001e3565b62000447565b6001600160a01b0382166200023f5760405162461bcd60e51b815260206004820152601f60248201527f45524332303a206d696e7420746f20746865207a65726f20616464726573730060448201526064015b60405180910390fd5b6200024d60008383620002da565b8060026000828254620002619190620003e5565b90915550506001600160a01b0382166000908152602081905260408120805483929062000290908490620003e5565b90915550506040518181526001600160a01b038316906000907fddf252ad1be2c89b69c2b068fc378daa952ba7f163c4a11628f55a4df523b3ef9060200160405180910390a35050565b60055460ff1615620003225760405162461bcd60e51b815260206004820152601060248201526f14185d5cd8589b194e881c185d5cd95960821b604482015260640162000236565b6200033a8383836200033a60201b620009ca1760201c565b505050565b8280546200034d906200040a565b90600052602060002090601f016020900481019282620003715760008555620003bc565b82601f106200038c57805160ff1916838001178555620003bc565b82800160010185558215620003bc579182015b82811115620003bc5782518255916020019190600101906200039f565b50620003ca929150620003ce565b5090565b5b80821115620003ca5760008155600101620003cf565b600082198211156200040557634e487b7160e01b81526011600452602481fd5b500190565b600181811c908216806200041f57607f821691505b602082108114156200044157634e487b7160e01b600052602260045260246000fd5b50919050565b60805160a05160c05160e0516101005161012051611c92620004976000396000610da3015260006113f80152600061144701526000611422015260006113a6015260006113cf0152611c926000f3fe6080604052600436106101cd5760003560e01c806370a08231116100f757806395d89b4111610095578063d505accf11610064578063d505accf1461050c578063dd62ed3e1461052c578063f251fc8c14610572578063f2fde38b1461059357600080fd5b806395d89b41146104af578063a457c2d7146104c4578063a6f2ae3a146104e4578063a9059cbb146104ec57600080fd5b80637ecebe00116100d15780637ecebe0014610437578063807dadef146104575780638456cb59146104775780638da5cb5b1461048c57600080fd5b806370a08231146103cc578063715018a61461040257806379cc67901461041757600080fd5b80633644e5151161016f5780633f4ba83a1161013e5780633f4ba83a1461035257806342966c681461036757806342e94c90146103875780635c975abb146103b457600080fd5b80633644e515146102e857806336ec0dd6146102fd578063395093511461031d5780633ccfd60b1461033d57600080fd5b806318160ddd116101ab57806318160ddd1461026557806321af68891461028457806323b872dd146102a6578063313ce567146102c657600080fd5b806306fdde03146101d2578063095ea7b3146101fd5780630c3f4e891461022d575b600080fd5b3480156101de57600080fd5b506101e76105b3565b6040516101f49190611ad0565b60405180910390f35b34801561020957600080fd5b5061021d610218366004611a8f565b610645565b60405190151581526020016101f4565b34801561023957600080fd5b5060075461024d906001600160a01b031681565b6040516001600160a01b0390911681526020016101f4565b34801561027157600080fd5b506002545b6040519081526020016101f4565b34801561029057600080fd5b506102a461029f366004611a8f565b61065b565b005b3480156102b257600080fd5b5061021d6102c13660046119e3565b6106c5565b3480156102d257600080fd5b5060125b60405160ff90911681526020016101f4565b3480156102f457600080fd5b50610276610776565b34801561030957600080fd5b506102a4610318366004611a8f565b610785565b34801561032957600080fd5b5061021d610338366004611a8f565b6107e2565b34801561034957600080fd5b5061021d610819565b34801561035e57600080fd5b506102a4610880565b34801561037357600080fd5b506102a4610382366004611ab8565b6108ba565b34801561039357600080fd5b506102766103a2366004611990565b60086020526000908152604090205481565b3480156103c057600080fd5b5060055460ff1661021d565b3480156103d857600080fd5b506102766103e7366004611990565b6001600160a01b031660009081526020819052604090205490565b34801561040e57600080fd5b506102a46108c7565b34801561042357600080fd5b506102a4610432366004611a8f565b610947565b34801561044357600080fd5b50610276610452366004611990565b6109cf565b34801561046357600080fd5b506102a4610472366004611990565b6109ef565b34801561048357600080fd5b506102a4610a54565b34801561049857600080fd5b5060055461010090046001600160a01b031661024d565b3480156104bb57600080fd5b506101e7610a8c565b3480156104d057600080fd5b5061021d6104df366004611a8f565b610a9b565b6102a4610b36565b3480156104f857600080fd5b5061021d610507366004611a8f565b610d42565b34801561051857600080fd5b506102a4610527366004611a1e565b610d4f565b34801561053857600080fd5b506102766105473660046119b1565b6001600160a01b03918216600090815260016020908152604080832093909416825291909152205490565b34801561057e57600080fd5b506007546102d690600160a01b900460ff1681565b34801561059f57600080fd5b506102a46105ae366004611990565b610eb3565b6060600380546105c290611c11565b80601f01602080910402602001604051908101604052809291908181526020018280546105ee90611c11565b801561063b5780601f106106105761010080835404028352916020019161063b565b820191906000526020600020905b81548152906001019060200180831161061e57829003601f168201915b5050505050905090565b6000610652338484610faf565b50600192915050565b6007546001600160a01b0316336001600160a01b0316146106975760405162461bcd60e51b815260040161068e90611b58565b60405180910390fd5b6001600160a01b0382166106aa57600080fd5b600081116106b757600080fd5b6106c182826110d4565b5050565b60006106d28484846111bf565b6001600160a01b0384166000908152600160209081526040808320338452909152902054828110156107575760405162461bcd60e51b815260206004820152602860248201527f45524332303a207472616e7366657220616d6f756e74206578636565647320616044820152676c6c6f77616e636560c01b606482015260840161068e565b61076b85336107668685611bfa565b610faf565b506001949350505050565b60006107806113a2565b905090565b6007546001600160a01b0316336001600160a01b0316146107b85760405162461bcd60e51b815260040161068e90611b58565b6001600160a01b0382166107cb57600080fd5b600081116107d857600080fd5b6106c18282611495565b3360008181526001602090815260408083206001600160a01b03871684529091528120549091610652918590610766908690611b9d565b6005546000906001600160a01b0361010090910416331461084c5760405162461bcd60e51b815260040161068e90611b23565b60405133904780156108fc02916000818181858888f19350505050158015610878573d6000803e3d6000fd5b506001905090565b6005546001600160a01b036101009091041633146108b05760405162461bcd60e51b815260040161068e90611b23565b6108b86115f0565b565b6108c43382611495565b50565b6005546001600160a01b036101009091041633146108f75760405162461bcd60e51b815260040161068e90611b23565b60055460405160009161010090046001600160a01b0316907f8be0079c531659141344cd1fd0a4f28419497f9722a3daafe3b4186f6b6457e0908390a360058054610100600160a81b0319169055565b60006109538333610547565b9050818110156109b15760405162461bcd60e51b8152602060048201526024808201527f45524332303a206275726e20616d6f756e74206578636565647320616c6c6f77604482015263616e636560e01b606482015260840161068e565b6109c083336107668585611bfa565b6109ca8383611495565b505050565b6001600160a01b0381166000908152600660205260408120545b92915050565b6005546001600160a01b03610100909104163314610a1f5760405162461bcd60e51b815260040161068e90611b23565b6001600160a01b038116610a3257600080fd5b600780546001600160a01b0319166001600160a01b0392909216919091179055565b6005546001600160a01b03610100909104163314610a845760405162461bcd60e51b815260040161068e90611b23565b6108b8611683565b6060600480546105c290611c11565b3360009081526001602090815260408083206001600160a01b038616845290915281205482811015610b1d5760405162461bcd60e51b815260206004820152602560248201527f45524332303a2064656372656173656420616c6c6f77616e63652062656c6f77604482015264207a65726f60d81b606482015260840161068e565b610b2c33856107668685611bfa565b5060019392505050565b64e8d4a510003410158015610b535750678ac7230489e800003411155b610bb65760405162461bcd60e51b815260206004820152602e60248201527f436f6e747269627574696f6e206d757374206265206265747765656e20302e3060448201526d0303030303120616e642031302e360941b606482015260840161068e565b6007546064600160a01b90910460ff1610801590610be1575033600090815260086020526040902054155b15610c3c5760405162461bcd60e51b815260206004820152602560248201527f4d6178696d756d20636f6e7472696275746f727320686173206265656e2072656044820152641858da195960da1b606482015260840161068e565b33600090815260086020526040902054678ac7230489e8000090610c61903490611b9d565b1115610cc45760405162461bcd60e51b815260206004820152602c60248201527f4d6178696d756d20636f6e747269627574696f6e207265616368656420666f7260448201526b081d1a1a5cc81dd85b1b195d60a21b606482015260840161068e565b33600090815260086020526040902054610d0b57600754610cf090600160a01b900460ff166001611bb5565b600760146101000a81548160ff021916908360ff1602179055505b3360009081526008602052604081208054349290610d2a908490611b9d565b909155506108b8905033610d3d346116fe565b6110d4565b60006106523384846111bf565b83421115610d9f5760405162461bcd60e51b815260206004820152601d60248201527f45524332305065726d69743a206578706972656420646561646c696e65000000604482015260640161068e565b60007f0000000000000000000000000000000000000000000000000000000000000000888888610dce8c61170f565b6040805160208101969096526001600160a01b0394851690860152929091166060840152608083015260a082015260c0810186905260e0016040516020818303038152906040528051906020012090506000610e2982611737565b90506000610e3982878787611785565b9050896001600160a01b0316816001600160a01b031614610e9c5760405162461bcd60e51b815260206004820152601e60248201527f45524332305065726d69743a20696e76616c6964207369676e61747572650000604482015260640161068e565b610ea78a8a8a610faf565b50505050505050505050565b6005546001600160a01b03610100909104163314610ee35760405162461bcd60e51b815260040161068e90611b23565b6001600160a01b038116610f485760405162461bcd60e51b815260206004820152602660248201527f4f776e61626c653a206e6577206f776e657220697320746865207a65726f206160448201526564647265737360d01b606482015260840161068e565b6005546040516001600160a01b0380841692610100900416907f8be0079c531659141344cd1fd0a4f28419497f9722a3daafe3b4186f6b6457e090600090a3600580546001600160a01b0390921661010002610100600160a81b0319909216919091179055565b6001600160a01b0383166110115760405162461bcd60e51b8152602060048201526024808201527f45524332303a20617070726f76652066726f6d20746865207a65726f206164646044820152637265737360e01b606482015260840161068e565b6001600160a01b0382166110725760405162461bcd60e51b815260206004820152602260248201527f45524332303a20617070726f766520746f20746865207a65726f206164647265604482015261737360f01b606482015260840161068e565b6001600160a01b0383811660008181526001602090815260408083209487168084529482529182902085905590518481527f8c5be1e5ebec7d5bd14f71427d1e84f3dd0314c0f7b2291e5b200ac8c7c3b92591015b60405180910390a3505050565b6001600160a01b03821661112a5760405162461bcd60e51b815260206004820152601f60248201527f45524332303a206d696e7420746f20746865207a65726f206164647265737300604482015260640161068e565b6111366000838361192e565b80600260008282546111489190611b9d565b90915550506001600160a01b03821660009081526020819052604081208054839290611175908490611b9d565b90915550506040518181526001600160a01b038316906000907fddf252ad1be2c89b69c2b068fc378daa952ba7f163c4a11628f55a4df523b3ef9060200160405180910390a35050565b6001600160a01b0383166112235760405162461bcd60e51b815260206004820152602560248201527f45524332303a207472616e736665722066726f6d20746865207a65726f206164604482015264647265737360d81b606482015260840161068e565b6001600160a01b0382166112855760405162461bcd60e51b815260206004820152602360248201527f45524332303a207472616e7366657220746f20746865207a65726f206164647260448201526265737360e81b606482015260840161068e565b61129083838361192e565b6001600160a01b038316600090815260208190526040902054818110156113085760405162461bcd60e51b815260206004820152602660248201527f45524332303a207472616e7366657220616d6f756e7420657863656564732062604482015265616c616e636560d01b606482015260840161068e565b6113128282611bfa565b6001600160a01b038086166000908152602081905260408082209390935590851681529081208054849290611348908490611b9d565b92505081905550826001600160a01b0316846001600160a01b03167fddf252ad1be2c89b69c2b068fc378daa952ba7f163c4a11628f55a4df523b3ef8460405161139491815260200190565b60405180910390a350505050565b60007f00000000000000000000000000000000000000000000000000000000000000004614156113f157507f000000000000000000000000000000000000000000000000000000000000000090565b50604080517f00000000000000000000000000000000000000000000000000000000000000006020808301919091527f0000000000000000000000000000000000000000000000000000000000000000828401527f000000000000000000000000000000000000000000000000000000000000000060608301524660808301523060a0808401919091528351808403909101815260c0909201909252805191012090565b6001600160a01b0382166114f55760405162461bcd60e51b815260206004820152602160248201527f45524332303a206275726e2066726f6d20746865207a65726f206164647265736044820152607360f81b606482015260840161068e565b6115018260008361192e565b6001600160a01b038216600090815260208190526040902054818110156115755760405162461bcd60e51b815260206004820152602260248201527f45524332303a206275726e20616d6f756e7420657863656564732062616c616e604482015261636560f01b606482015260840161068e565b61157f8282611bfa565b6001600160a01b038416600090815260208190526040812091909155600280548492906115ad908490611bfa565b90915550506040518281526000906001600160a01b038516907fddf252ad1be2c89b69c2b068fc378daa952ba7f163c4a11628f55a4df523b3ef906020016110c7565b60055460ff166116395760405162461bcd60e51b815260206004820152601460248201527314185d5cd8589b194e881b9bdd081c185d5cd95960621b604482015260640161068e565b6005805460ff191690557f5db9ee0a495bf2e6ff9c91a7834c1ba4fdd244a5e8aa4e537bd38aeae4b073aa335b6040516001600160a01b03909116815260200160405180910390a1565b60055460ff16156116c95760405162461bcd60e51b815260206004820152601060248201526f14185d5cd8589b194e881c185d5cd95960821b604482015260640161068e565b6005805460ff191660011790557f62e78cea01bee320cd4e420270b5ea74000d11b0c9f74754ebdbfc544b05a2586116663390565b60006109e964e8d4a5100083611bda565b6001600160a01b03811660009081526006602052604090208054600181018255905b50919050565b60006109e96117446113a2565b8360405161190160f01b6020820152602281018390526042810182905260009060620160405160208183030381529060405280519060200120905092915050565b60007f7fffffffffffffffffffffffffffffff5d576e7357a4501ddfe92f46681b20a08211156118025760405162461bcd60e51b815260206004820152602260248201527f45434453413a20696e76616c6964207369676e6174757265202773272076616c604482015261756560f01b606482015260840161068e565b8360ff16601b148061181757508360ff16601c145b61186e5760405162461bcd60e51b815260206004820152602260248201527f45434453413a20696e76616c6964207369676e6174757265202776272076616c604482015261756560f01b606482015260840161068e565b6040805160008082526020820180845288905260ff871692820192909252606081018590526080810184905260019060a0016020604051602081039080840390855afa1580156118c2573d6000803e3d6000fd5b5050604051601f1901519150506001600160a01b0381166119255760405162461bcd60e51b815260206004820152601860248201527f45434453413a20696e76616c6964207369676e61747572650000000000000000604482015260640161068e565b95945050505050565b60055460ff16156109ca5760405162461bcd60e51b815260206004820152601060248201526f14185d5cd8589b194e881c185d5cd95960821b604482015260640161068e565b80356001600160a01b038116811461198b57600080fd5b919050565b6000602082840312156119a1578081fd5b6119aa82611974565b9392505050565b600080604083850312156119c3578081fd5b6119cc83611974565b91506119da60208401611974565b90509250929050565b6000806000606084860312156119f7578081fd5b611a0084611974565b9250611a0e60208501611974565b9150604084013590509250925092565b600080600080600080600060e0888a031215611a38578283fd5b611a4188611974565b9650611a4f60208901611974565b95506040880135945060608801359350608088013560ff81168114611a72578384fd5b9699959850939692959460a0840135945060c09093013592915050565b60008060408385031215611aa1578182fd5b611aaa83611974565b946020939093013593505050565b600060208284031215611ac9578081fd5b5035919050565b6000602080835283518082850152825b81811015611afc57858101830151858201604001528201611ae0565b81811115611b0d5783604083870101525b50601f01601f1916929092016040019392505050565b6020808252818101527f4f776e61626c653a2063616c6c6572206973206e6f7420746865206f776e6572604082015260600190565b60208082526025908201527f43616c6c6572206e6f7420617574686f72697a656420666f722074686973206160408201526431ba34b7b760d91b606082015260800190565b60008219821115611bb057611bb0611c46565b500190565b600060ff821660ff84168060ff03821115611bd257611bd2611c46565b019392505050565b600082611bf557634e487b7160e01b81526012600452602481fd5b500490565b600082821015611c0c57611c0c611c46565b500390565b600181811c90821680611c2557607f821691505b6020821081141561173157634e487b7160e01b600052602260045260246000fd5b634e487b7160e01b600052601160045260246000fdfea2646970667358221220ecca4bab3900cb7d5fce0f44d3f5cc8bf9468589be000911723287bb82f9eeed64736f6c63430008040033",
  "immutableReferences": {
    "2978": [
      {
        "length": 32,
        "start": 3491
      }
    ],
    "5266": [
      {
        "length": 32,
        "start": 5071
      }
    ],
    "5268": [
      {
        "length": 32,
        "start": 5030
      }
    ],
    "5270": [
      {
        "length": 32,
        "start": 5154
      }
    ],
    "5272": [
      {
        "length": 32,
        "start": 5191
      }
    ],
    "5274": [
      {
        "length": 32,
        "start": 5112
      }
    ]
  },
  "source": "// SPDX-License-Identifier: MIT\npragma solidity ^0.8.4;\n\nimport \"@openzeppelin/contracts/token/ERC20/ERC20.sol\";\nimport \"@openzeppelin/contracts/token/ERC20/extensions/ERC20Burnable.sol\";\nimport \"@openzeppelin/contracts/security/Pausable.sol\";\nimport \"@openzeppelin/contracts/access/Ownable.sol\";\nimport \"@openzeppelin/contracts/token/ERC20/extensions/draft-ERC20Permit.sol\";\n\ncontract ZoomToken is ERC20, ERC20Burnable, Pausable, Ownable, ERC20Permit {\n    constructor() ERC20(\"ZoomToken\", \"ZOOM\") ERC20Permit(\"ZoomToken\") {\n      //Mint Liquidity provider tokens\n      _mint(msg.sender, 1000000000); // 1 Bil Zoom\n    }\n\n    uint8 constant maxWallets = 100;\n    uint256 constant maxContribution = 10000000000000000000; // 10 MOVR\n    address public zoombiesContract;\n    //uint8 public totalContributors = 0; //LIVE\n    uint8 public totalContributors = 99; // DELETE THIS !\n\n    //Storage\n      //supporters\n    mapping (address => uint256) public contributions;    // MOVR contributed per address\n\n    modifier onlyAuthorizedContract(){\n        require(_msgSender() == zoombiesContract,\"Caller not authorized for this action\");\n        _;\n    }\n\n    function pause() public onlyOwner {\n        _pause();\n    }\n\n    function unpause() public onlyOwner {\n        _unpause();\n    }\n\n    function _beforeTokenTransfer(address from, address to, uint256 amount)\n        internal\n        whenNotPaused\n        override\n    {\n        super._beforeTokenTransfer(from, to, amount);\n    }\n\n    function setZoombiesContract(address _zoombiesContract) public onlyOwner{\n        require(_zoombiesContract != address(0x0));\n        zoombiesContract = _zoombiesContract;\n    }\n\n    /**\n     *  Called in from our ERC721 contract actions\n     */\n     function awardZoom(address _to, uint256 _amount) public onlyAuthorizedContract {\n         require(_to != address(0));\n         require(_amount > 0);\n\n         _mint(_to, _amount);\n     }\n\n    /**\n     *  Called in from our ERC721 contract actions\n     */\n     function burnZoom(address _wallet, uint256 _amount) public onlyAuthorizedContract {\n         require(_wallet != address(0));\n         require(_amount > 0);\n\n         _burn(_wallet, _amount);\n     }\n\n     /**\n      * Our base conversion rate for the TGE\n      */\n      function convertWeiToZoom(uint weiToConvert) pure internal returns (uint) {\n          // 1 ZOOM = 1000000000000 wei;\n          return weiToConvert/1000000000000;\n      }\n\n     //Available only during TGE\n     function buy() external payable {\n       //require(totalContributors <= maxWallets, \"Maximum number of contributors has been reached\");\n       require(msg.value >= 0.000001 ether && msg.value <= 10.0 ether,\"Contribution must be between 0.000001 and 10.0\");\n\n       if(totalContributors >= maxWallets && contributions[_msgSender()] == 0){\n         revert(\"Maximum contributors has been reached\");\n       }\n\n       if((contributions[_msgSender()]+msg.value) > maxContribution){\n         revert(\"Maximum contribution reached for this wallet\");\n       }\n\n       //All clear ?\n\n       if(contributions[_msgSender()] == 0){\n         totalContributors = totalContributors + 1;\n       }\n       //track total contributions per wallet\n       contributions[_msgSender()] += msg.value;\n\n       _mint(_msgSender(), convertWeiToZoom(msg.value));\n     }\n\n    /**\n     * Withdraw balance to wallet\n     */\n    function withdraw() public onlyOwner returns(bool) {\n       payable(_msgSender()).transfer(address(this).balance);\n       return true;\n    }\n}\n",
  "sourcePath": "/home/ryanpricelondon/zoombies/contracts/ZoomToken.sol",
  "compiler": {
    "name": "solc",
    "version": "0.8.4+commit.c7e474f2.Emscripten.clang"
  },
  "schemaVersion": "3.4.0",
  "updatedAt": "2021-06-22T18:03:51.616Z",
  "networkType": "ethereum",
  "devdoc": {
    "kind": "dev",
    "methods": {
      "DOMAIN_SEPARATOR()": {
        "details": "See {IERC20Permit-DOMAIN_SEPARATOR}."
      },
      "allowance(address,address)": {
        "details": "See {IERC20-allowance}."
      },
      "approve(address,uint256)": {
        "details": "See {IERC20-approve}. Requirements: - `spender` cannot be the zero address."
      },
      "balanceOf(address)": {
        "details": "See {IERC20-balanceOf}."
      },
      "burn(uint256)": {
        "details": "Destroys `amount` tokens from the caller. See {ERC20-_burn}."
      },
      "burnFrom(address,uint256)": {
        "details": "Destroys `amount` tokens from `account`, deducting from the caller's allowance. See {ERC20-_burn} and {ERC20-allowance}. Requirements: - the caller must have allowance for ``accounts``'s tokens of at least `amount`."
      },
      "decimals()": {
        "details": "Returns the number of decimals used to get its user representation. For example, if `decimals` equals `2`, a balance of `505` tokens should be displayed to a user as `5,05` (`505 / 10 ** 2`). Tokens usually opt for a value of 18, imitating the relationship between Ether and Wei. This is the value {ERC20} uses, unless this function is overridden; NOTE: This information is only used for _display_ purposes: it in no way affects any of the arithmetic of the contract, including {IERC20-balanceOf} and {IERC20-transfer}."
      },
      "decreaseAllowance(address,uint256)": {
        "details": "Atomically decreases the allowance granted to `spender` by the caller. This is an alternative to {approve} that can be used as a mitigation for problems described in {IERC20-approve}. Emits an {Approval} event indicating the updated allowance. Requirements: - `spender` cannot be the zero address. - `spender` must have allowance for the caller of at least `subtractedValue`."
      },
      "increaseAllowance(address,uint256)": {
        "details": "Atomically increases the allowance granted to `spender` by the caller. This is an alternative to {approve} that can be used as a mitigation for problems described in {IERC20-approve}. Emits an {Approval} event indicating the updated allowance. Requirements: - `spender` cannot be the zero address."
      },
      "name()": {
        "details": "Returns the name of the token."
      },
      "nonces(address)": {
        "details": "See {IERC20Permit-nonces}."
      },
      "owner()": {
        "details": "Returns the address of the current owner."
      },
      "paused()": {
        "details": "Returns true if the contract is paused, and false otherwise."
      },
      "permit(address,address,uint256,uint256,uint8,bytes32,bytes32)": {
        "details": "See {IERC20Permit-permit}."
      },
      "renounceOwnership()": {
        "details": "Leaves the contract without owner. It will not be possible to call `onlyOwner` functions anymore. Can only be called by the current owner. NOTE: Renouncing ownership will leave the contract without an owner, thereby removing any functionality that is only available to the owner."
      },
      "symbol()": {
        "details": "Returns the symbol of the token, usually a shorter version of the name."
      },
      "totalSupply()": {
        "details": "See {IERC20-totalSupply}."
      },
      "transfer(address,uint256)": {
        "details": "See {IERC20-transfer}. Requirements: - `recipient` cannot be the zero address. - the caller must have a balance of at least `amount`."
      },
      "transferFrom(address,address,uint256)": {
        "details": "See {IERC20-transferFrom}. Emits an {Approval} event indicating the updated allowance. This is not required by the EIP. See the note at the beginning of {ERC20}. Requirements: - `sender` and `recipient` cannot be the zero address. - `sender` must have a balance of at least `amount`. - the caller must have allowance for ``sender``'s tokens of at least `amount`."
      },
      "transferOwnership(address)": {
        "details": "Transfers ownership of the contract to a new account (`newOwner`). Can only be called by the current owner."
      }
    },
    "version": 1
  },
  "userdoc": {
    "kind": "user",
    "methods": {
      "awardZoom(address,uint256)": {
        "notice": "Called in from our ERC721 contract actions"
      },
      "burnZoom(address,uint256)": {
        "notice": "Called in from our ERC721 contract actions"
      },
      "withdraw()": {
        "notice": "Withdraw balance to wallet"
      }
    },
    "version": 1
  }
}