{
  "contractName": "Zoombies",
  "abi": [
    {
      "inputs": [
        {
          "internalType": "address",
          "name": "_zoomTokenContract",
          "type": "address"
        }
      ],
      "stateMutability": "nonpayable",
      "type": "constructor"
    },
    {
      "anonymous": false,
      "inputs": [
        {
          "indexed": true,
          "internalType": "address",
          "name": "owner",
          "type": "address"
        },
        {
          "indexed": true,
          "internalType": "address",
          "name": "approved",
          "type": "address"
        },
        {
          "indexed": true,
          "internalType": "uint256",
          "name": "tokenId",
          "type": "uint256"
        }
      ],
      "name": "Approval",
      "type": "event"
    },
    {
      "anonymous": false,
      "inputs": [
        {
          "indexed": true,
          "internalType": "address",
          "name": "owner",
          "type": "address"
        },
        {
          "indexed": true,
          "internalType": "address",
          "name": "operator",
          "type": "address"
        },
        {
          "indexed": false,
          "internalType": "bool",
          "name": "approved",
          "type": "bool"
        }
      ],
      "name": "ApprovalForAll",
      "type": "event"
    },
    {
      "anonymous": false,
      "inputs": [
        {
          "indexed": true,
          "internalType": "address",
          "name": "buyer",
          "type": "address"
        },
        {
          "indexed": false,
          "internalType": "uint256",
          "name": "tokenId",
          "type": "uint256"
        },
        {
          "indexed": true,
          "internalType": "uint32",
          "name": "cardTypeId",
          "type": "uint32"
        },
        {
          "indexed": false,
          "internalType": "uint256",
          "name": "editionNumber",
          "type": "uint256"
        }
      ],
      "name": "LogCardMinted",
      "type": "event"
    },
    {
      "anonymous": false,
      "inputs": [
        {
          "indexed": true,
          "internalType": "uint32",
          "name": "cardTypeId",
          "type": "uint32"
        },
        {
          "indexed": false,
          "internalType": "string",
          "name": "cardName",
          "type": "string"
        },
        {
          "indexed": false,
          "internalType": "uint256",
          "name": "editionTotal",
          "type": "uint256"
        }
      ],
      "name": "LogCardTypeLoaded",
      "type": "event"
    },
    {
      "anonymous": false,
      "inputs": [
        {
          "indexed": false,
          "internalType": "address",
          "name": "player",
          "type": "address"
        },
        {
          "indexed": false,
          "internalType": "uint256",
          "name": "newBoosterBalance",
          "type": "uint256"
        }
      ],
      "name": "LogDailyReward",
      "type": "event"
    },
    {
      "anonymous": false,
      "inputs": [
        {
          "indexed": true,
          "internalType": "address",
          "name": "buyer",
          "type": "address"
        },
        {
          "indexed": false,
          "internalType": "uint8",
          "name": "rarity",
          "type": "uint8"
        }
      ],
      "name": "LogPackOpened",
      "type": "event"
    },
    {
      "anonymous": false,
      "inputs": [
        {
          "indexed": false,
          "internalType": "address",
          "name": "winner",
          "type": "address"
        },
        {
          "indexed": false,
          "internalType": "uint256",
          "name": "boostersAwarded",
          "type": "uint256"
        }
      ],
      "name": "LogRewardBoosters",
      "type": "event"
    },
    {
      "anonymous": false,
      "inputs": [
        {
          "indexed": false,
          "internalType": "address",
          "name": "owner",
          "type": "address"
        },
        {
          "indexed": false,
          "internalType": "uint256",
          "name": "tokenId",
          "type": "uint256"
        },
        {
          "indexed": false,
          "internalType": "uint16",
          "name": "cardTypeId",
          "type": "uint16"
        },
        {
          "indexed": false,
          "internalType": "uint256",
          "name": "zoomGained",
          "type": "uint256"
        }
      ],
      "name": "LogSacrificeNFT",
      "type": "event"
    },
    {
      "anonymous": false,
      "inputs": [
        {
          "indexed": false,
          "internalType": "address",
          "name": "sponsor",
          "type": "address"
        },
        {
          "indexed": false,
          "internalType": "address",
          "name": "affiliate",
          "type": "address"
        }
      ],
      "name": "LogSponsorLinked",
      "type": "event"
    },
    {
      "anonymous": false,
      "inputs": [
        {
          "indexed": false,
          "internalType": "address",
          "name": "sponsor",
          "type": "address"
        },
        {
          "indexed": false,
          "internalType": "address",
          "name": "affiliate",
          "type": "address"
        },
        {
          "indexed": false,
          "internalType": "uint256",
          "name": "zoomReward",
          "type": "uint256"
        }
      ],
      "name": "LogSponsorReward",
      "type": "event"
    },
    {
      "anonymous": false,
      "inputs": [
        {
          "indexed": true,
          "internalType": "address",
          "name": "previousOwner",
          "type": "address"
        },
        {
          "indexed": true,
          "internalType": "address",
          "name": "newOwner",
          "type": "address"
        }
      ],
      "name": "OwnershipTransferred",
      "type": "event"
    },
    {
      "anonymous": false,
      "inputs": [
        {
          "indexed": false,
          "internalType": "address",
          "name": "account",
          "type": "address"
        }
      ],
      "name": "Paused",
      "type": "event"
    },
    {
      "anonymous": false,
      "inputs": [
        {
          "indexed": true,
          "internalType": "address",
          "name": "from",
          "type": "address"
        },
        {
          "indexed": true,
          "internalType": "address",
          "name": "to",
          "type": "address"
        },
        {
          "indexed": true,
          "internalType": "uint256",
          "name": "tokenId",
          "type": "uint256"
        }
      ],
      "name": "Transfer",
      "type": "event"
    },
    {
      "anonymous": false,
      "inputs": [
        {
          "indexed": false,
          "internalType": "address",
          "name": "account",
          "type": "address"
        }
      ],
      "name": "Unpaused",
      "type": "event"
    },
    {
      "inputs": [],
      "name": "MAX_CARD_TYPES",
      "outputs": [
        {
          "internalType": "uint16",
          "name": "",
          "type": "uint16"
        }
      ],
      "stateMutability": "view",
      "type": "function",
      "constant": true
    },
    {
      "inputs": [],
      "name": "ZOOM_BASE_COST",
      "outputs": [
        {
          "internalType": "uint256",
          "name": "",
          "type": "uint256"
        }
      ],
      "stateMutability": "view",
      "type": "function",
      "constant": true
    },
    {
      "inputs": [
        {
          "internalType": "uint8",
          "name": "",
          "type": "uint8"
        },
        {
          "internalType": "uint256",
          "name": "",
          "type": "uint256"
        }
      ],
      "name": "allBoosterCardIds",
      "outputs": [
        {
          "internalType": "uint16",
          "name": "",
          "type": "uint16"
        }
      ],
      "stateMutability": "view",
      "type": "function",
      "constant": true
    },
    {
      "inputs": [
        {
          "internalType": "uint16",
          "name": "",
          "type": "uint16"
        }
      ],
      "name": "allCardTypes",
      "outputs": [
        {
          "internalType": "uint16",
          "name": "cardTypeId",
          "type": "uint16"
        },
        {
          "internalType": "string",
          "name": "name",
          "type": "string"
        },
        {
          "internalType": "string",
          "name": "set",
          "type": "string"
        },
        {
          "internalType": "uint8",
          "name": "assetType",
          "type": "uint8"
        },
        {
          "internalType": "uint8",
          "name": "notStoreOrBonus",
          "type": "uint8"
        },
        {
          "internalType": "uint8",
          "name": "rarity",
          "type": "uint8"
        },
        {
          "internalType": "uint16",
          "name": "totalAvailable",
          "type": "uint16"
        },
        {
          "internalType": "uint256",
          "name": "weiCost",
          "type": "uint256"
        },
        {
          "internalType": "uint256",
          "name": "buyZoom",
          "type": "uint256"
        },
        {
          "internalType": "uint256",
          "name": "sacrificeZoom",
          "type": "uint256"
        },
        {
          "internalType": "uint256",
          "name": "unlockZoom",
          "type": "uint256"
        },
        {
          "internalType": "uint8",
          "name": "cardLevel",
          "type": "uint8"
        }
      ],
      "stateMutability": "view",
      "type": "function",
      "constant": true
    },
    {
      "inputs": [
        {
          "internalType": "address",
          "name": "to",
          "type": "address"
        },
        {
          "internalType": "uint256",
          "name": "tokenId",
          "type": "uint256"
        }
      ],
      "name": "approve",
      "outputs": [],
      "stateMutability": "nonpayable",
      "type": "function"
    },
    {
      "inputs": [
        {
          "internalType": "address",
          "name": "owner",
          "type": "address"
        }
      ],
      "name": "balanceOf",
      "outputs": [
        {
          "internalType": "uint256",
          "name": "",
          "type": "uint256"
        }
      ],
      "stateMutability": "view",
      "type": "function",
      "constant": true
    },
    {
      "inputs": [
        {
          "internalType": "address",
          "name": "",
          "type": "address"
        }
      ],
      "name": "boosterCreditsOwned",
      "outputs": [
        {
          "internalType": "uint256",
          "name": "",
          "type": "uint256"
        }
      ],
      "stateMutability": "view",
      "type": "function",
      "constant": true
    },
    {
      "inputs": [
        {
          "internalType": "uint256",
          "name": "tokenId",
          "type": "uint256"
        }
      ],
      "name": "burn",
      "outputs": [],
      "stateMutability": "nonpayable",
      "type": "function"
    },
    {
      "inputs": [
        {
          "internalType": "uint16",
          "name": "",
          "type": "uint16"
        }
      ],
      "name": "cardTypeToEdition",
      "outputs": [
        {
          "internalType": "uint256",
          "name": "",
          "type": "uint256"
        }
      ],
      "stateMutability": "view",
      "type": "function",
      "constant": true
    },
    {
      "inputs": [
        {
          "internalType": "address",
          "name": "",
          "type": "address"
        },
        {
          "internalType": "uint16",
          "name": "",
          "type": "uint16"
        }
      ],
      "name": "cardTypesOwned",
      "outputs": [
        {
          "internalType": "bool",
          "name": "",
          "type": "bool"
        }
      ],
      "stateMutability": "view",
      "type": "function",
      "constant": true
    },
    {
      "inputs": [
        {
          "internalType": "uint256",
          "name": "tokenId",
          "type": "uint256"
        }
      ],
      "name": "getApproved",
      "outputs": [
        {
          "internalType": "address",
          "name": "",
          "type": "address"
        }
      ],
      "stateMutability": "view",
      "type": "function",
      "constant": true
    },
    {
      "inputs": [
        {
          "internalType": "uint256",
          "name": "_tokenId",
          "type": "uint256"
        }
      ],
      "name": "getNFTData",
      "outputs": [
        {
          "internalType": "uint16",
          "name": "",
          "type": "uint16"
        },
        {
          "internalType": "uint256",
          "name": "",
          "type": "uint256"
        }
      ],
      "stateMutability": "view",
      "type": "function",
      "constant": true
    },
    {
      "inputs": [],
      "name": "getTokensByRarity",
      "outputs": [
        {
          "internalType": "uint256",
          "name": "",
          "type": "uint256"
        },
        {
          "internalType": "uint256",
          "name": "",
          "type": "uint256"
        },
        {
          "internalType": "uint256",
          "name": "",
          "type": "uint256"
        },
        {
          "internalType": "uint256",
          "name": "",
          "type": "uint256"
        },
        {
          "internalType": "uint256",
          "name": "",
          "type": "uint256"
        },
        {
          "internalType": "uint256",
          "name": "",
          "type": "uint256"
        }
      ],
      "stateMutability": "view",
      "type": "function",
      "constant": true
    },
    {
      "inputs": [
        {
          "internalType": "address",
          "name": "owner",
          "type": "address"
        },
        {
          "internalType": "address",
          "name": "operator",
          "type": "address"
        }
      ],
      "name": "isApprovedForAll",
      "outputs": [
        {
          "internalType": "bool",
          "name": "",
          "type": "bool"
        }
      ],
      "stateMutability": "view",
      "type": "function",
      "constant": true
    },
    {
      "inputs": [
        {
          "internalType": "uint16",
          "name": "_cardTypeId",
          "type": "uint16"
        },
        {
          "internalType": "string",
          "name": "_name",
          "type": "string"
        },
        {
          "internalType": "string",
          "name": "_set",
          "type": "string"
        },
        {
          "internalType": "uint8",
          "name": "_assetType",
          "type": "uint8"
        },
        {
          "internalType": "uint8",
          "name": "_notStoreOrBonus",
          "type": "uint8"
        },
        {
          "internalType": "uint8",
          "name": "_rarity",
          "type": "uint8"
        },
        {
          "internalType": "uint16",
          "name": "_totalAvailable",
          "type": "uint16"
        },
        {
          "internalType": "uint256",
          "name": "_weiCost",
          "type": "uint256"
        },
        {
          "internalType": "uint256",
          "name": "_buyZoom",
          "type": "uint256"
        },
        {
          "internalType": "uint256",
          "name": "_sacrificeZoom",
          "type": "uint256"
        },
        {
          "internalType": "uint256",
          "name": "_unlockZoom",
          "type": "uint256"
        },
        {
          "internalType": "uint8",
          "name": "_cardLevel",
          "type": "uint8"
        }
      ],
      "name": "loadNewCardType",
      "outputs": [],
      "stateMutability": "nonpayable",
      "type": "function"
    },
    {
      "inputs": [],
      "name": "maxBoostersRewards",
      "outputs": [
        {
          "internalType": "uint16",
          "name": "",
          "type": "uint16"
        }
      ],
      "stateMutability": "view",
      "type": "function",
      "constant": true
    },
    {
      "inputs": [],
      "name": "name",
      "outputs": [
        {
          "internalType": "string",
          "name": "",
          "type": "string"
        }
      ],
      "stateMutability": "view",
      "type": "function",
      "constant": true
    },
    {
      "inputs": [
        {
          "internalType": "uint256",
          "name": "",
          "type": "uint256"
        }
      ],
      "name": "nfts",
      "outputs": [
        {
          "internalType": "uint16",
          "name": "cardTypeId",
          "type": "uint16"
        },
        {
          "internalType": "uint256",
          "name": "editionNumber",
          "type": "uint256"
        }
      ],
      "stateMutability": "view",
      "type": "function",
      "constant": true
    },
    {
      "inputs": [],
      "name": "owner",
      "outputs": [
        {
          "internalType": "address",
          "name": "",
          "type": "address"
        }
      ],
      "stateMutability": "view",
      "type": "function",
      "constant": true
    },
    {
      "inputs": [
        {
          "internalType": "uint256",
          "name": "tokenId",
          "type": "uint256"
        }
      ],
      "name": "ownerOf",
      "outputs": [
        {
          "internalType": "address",
          "name": "",
          "type": "address"
        }
      ],
      "stateMutability": "view",
      "type": "function",
      "constant": true
    },
    {
      "inputs": [],
      "name": "paused",
      "outputs": [
        {
          "internalType": "bool",
          "name": "",
          "type": "bool"
        }
      ],
      "stateMutability": "view",
      "type": "function",
      "constant": true
    },
    {
      "inputs": [],
      "name": "renounceOwnership",
      "outputs": [],
      "stateMutability": "nonpayable",
      "type": "function"
    },
    {
      "inputs": [
        {
          "internalType": "address",
          "name": "from",
          "type": "address"
        },
        {
          "internalType": "address",
          "name": "to",
          "type": "address"
        },
        {
          "internalType": "uint256",
          "name": "tokenId",
          "type": "uint256"
        }
      ],
      "name": "safeTransferFrom",
      "outputs": [],
      "stateMutability": "nonpayable",
      "type": "function"
    },
    {
      "inputs": [
        {
          "internalType": "address",
          "name": "from",
          "type": "address"
        },
        {
          "internalType": "address",
          "name": "to",
          "type": "address"
        },
        {
          "internalType": "uint256",
          "name": "tokenId",
          "type": "uint256"
        },
        {
          "internalType": "bytes",
          "name": "_data",
          "type": "bytes"
        }
      ],
      "name": "safeTransferFrom",
      "outputs": [],
      "stateMutability": "nonpayable",
      "type": "function"
    },
    {
      "inputs": [
        {
          "internalType": "address",
          "name": "operator",
          "type": "address"
        },
        {
          "internalType": "bool",
          "name": "approved",
          "type": "bool"
        }
      ],
      "name": "setApprovalForAll",
      "outputs": [],
      "stateMutability": "nonpayable",
      "type": "function"
    },
    {
      "inputs": [
        {
          "internalType": "uint16",
          "name": "_cardTypeId",
          "type": "uint16"
        },
        {
          "internalType": "uint256",
          "name": "_hoursFromNow",
          "type": "uint256"
        }
      ],
      "name": "setStoreRelease",
      "outputs": [],
      "stateMutability": "nonpayable",
      "type": "function"
    },
    {
      "inputs": [
        {
          "internalType": "address",
          "name": "",
          "type": "address"
        }
      ],
      "name": "sponsors",
      "outputs": [
        {
          "internalType": "address",
          "name": "",
          "type": "address"
        }
      ],
      "stateMutability": "view",
      "type": "function",
      "constant": true
    },
    {
      "inputs": [
        {
          "internalType": "uint16",
          "name": "",
          "type": "uint16"
        }
      ],
      "name": "storeReleaseTime",
      "outputs": [
        {
          "internalType": "uint256",
          "name": "",
          "type": "uint256"
        }
      ],
      "stateMutability": "view",
      "type": "function",
      "constant": true
    },
    {
      "inputs": [],
      "name": "symbol",
      "outputs": [
        {
          "internalType": "string",
          "name": "",
          "type": "string"
        }
      ],
      "stateMutability": "view",
      "type": "function",
      "constant": true
    },
    {
      "inputs": [
        {
          "internalType": "uint256",
          "name": "index",
          "type": "uint256"
        }
      ],
      "name": "tokenByIndex",
      "outputs": [
        {
          "internalType": "uint256",
          "name": "",
          "type": "uint256"
        }
      ],
      "stateMutability": "view",
      "type": "function",
      "constant": true
    },
    {
      "inputs": [
        {
          "internalType": "address",
          "name": "owner",
          "type": "address"
        },
        {
          "internalType": "uint256",
          "name": "index",
          "type": "uint256"
        }
      ],
      "name": "tokenOfOwnerByIndex",
      "outputs": [
        {
          "internalType": "uint256",
          "name": "",
          "type": "uint256"
        }
      ],
      "stateMutability": "view",
      "type": "function",
      "constant": true
    },
    {
      "inputs": [
        {
          "internalType": "uint256",
          "name": "tokenId",
          "type": "uint256"
        }
      ],
      "name": "tokenURI",
      "outputs": [
        {
          "internalType": "string",
          "name": "",
          "type": "string"
        }
      ],
      "stateMutability": "view",
      "type": "function",
      "constant": true
    },
    {
      "inputs": [
        {
          "internalType": "uint256",
          "name": "",
          "type": "uint256"
        }
      ],
      "name": "tokensByRarity",
      "outputs": [
        {
          "internalType": "uint256",
          "name": "",
          "type": "uint256"
        }
      ],
      "stateMutability": "view",
      "type": "function",
      "constant": true
    },
    {
      "inputs": [],
      "name": "totalBoostersRewarded",
      "outputs": [
        {
          "internalType": "uint16",
          "name": "",
          "type": "uint16"
        }
      ],
      "stateMutability": "view",
      "type": "function",
      "constant": true
    },
    {
      "inputs": [],
      "name": "totalCardTypes",
      "outputs": [
        {
          "internalType": "uint16",
          "name": "",
          "type": "uint16"
        }
      ],
      "stateMutability": "view",
      "type": "function",
      "constant": true
    },
    {
      "inputs": [],
      "name": "totalSupply",
      "outputs": [
        {
          "internalType": "uint256",
          "name": "",
          "type": "uint256"
        }
      ],
      "stateMutability": "view",
      "type": "function",
      "constant": true
    },
    {
      "inputs": [
        {
          "internalType": "address",
          "name": "from",
          "type": "address"
        },
        {
          "internalType": "address",
          "name": "to",
          "type": "address"
        },
        {
          "internalType": "uint256",
          "name": "tokenId",
          "type": "uint256"
        }
      ],
      "name": "transferFrom",
      "outputs": [],
      "stateMutability": "nonpayable",
      "type": "function"
    },
    {
      "inputs": [
        {
          "internalType": "address",
          "name": "newOwner",
          "type": "address"
        }
      ],
      "name": "transferOwnership",
      "outputs": [],
      "stateMutability": "nonpayable",
      "type": "function"
    },
    {
      "inputs": [],
      "name": "weiCostOfBooster",
      "outputs": [
        {
          "internalType": "uint256",
          "name": "",
          "type": "uint256"
        }
      ],
      "stateMutability": "view",
      "type": "function",
      "constant": true
    },
    {
      "inputs": [],
      "name": "zoomGainedPerBoosterCredit",
      "outputs": [
        {
          "internalType": "uint256",
          "name": "",
          "type": "uint256"
        }
      ],
      "stateMutability": "view",
      "type": "function",
      "constant": true
    },
    {
      "inputs": [],
      "name": "zoomTokenContract",
      "outputs": [
        {
          "internalType": "address",
          "name": "",
          "type": "address"
        }
      ],
      "stateMutability": "view",
      "type": "function",
      "constant": true
    },
    {
      "inputs": [
        {
          "internalType": "uint16",
          "name": "_cardTypeId",
          "type": "uint16"
        }
      ],
      "name": "buyCard",
      "outputs": [],
      "stateMutability": "payable",
      "type": "function",
      "payable": true
    },
    {
      "inputs": [
        {
          "internalType": "uint16",
          "name": "_cardTypeId",
          "type": "uint16"
        }
      ],
      "name": "getFreeCard",
      "outputs": [],
      "stateMutability": "payable",
      "type": "function",
      "payable": true
    },
    {
      "inputs": [
        {
          "internalType": "uint256[]",
          "name": "_tokenIds",
          "type": "uint256[]"
        }
      ],
      "name": "sacrificeNFTs",
      "outputs": [],
      "stateMutability": "nonpayable",
      "type": "function"
    },
    {
      "inputs": [
        {
          "internalType": "address",
          "name": "_player",
          "type": "address"
        }
      ],
      "name": "getBonusBoosters",
      "outputs": [],
      "stateMutability": "nonpayable",
      "type": "function"
    },
    {
      "inputs": [
        {
          "internalType": "address",
          "name": "_mySponsor",
          "type": "address"
        }
      ],
      "name": "linkMySponsor",
      "outputs": [],
      "stateMutability": "nonpayable",
      "type": "function"
    },
    {
      "inputs": [
        {
          "internalType": "uint256",
          "name": "_amount",
          "type": "uint256"
        }
      ],
      "name": "buyBoosterCredits",
      "outputs": [
        {
          "internalType": "bool",
          "name": "",
          "type": "bool"
        }
      ],
      "stateMutability": "payable",
      "type": "function",
      "payable": true
    },
    {
      "inputs": [],
      "name": "buyBoosterAndMintNFT",
      "outputs": [
        {
          "internalType": "bool",
          "name": "",
          "type": "bool"
        }
      ],
      "stateMutability": "payable",
      "type": "function",
      "payable": true
    },
    {
      "inputs": [
        {
          "internalType": "uint256",
          "name": "zoomWager",
          "type": "uint256"
        }
      ],
      "name": "mintBoosterNFT",
      "outputs": [
        {
          "internalType": "bool",
          "name": "",
          "type": "bool"
        }
      ],
      "stateMutability": "nonpayable",
      "type": "function"
    },
    {
      "inputs": [
        {
          "internalType": "address",
          "name": "_winner",
          "type": "address"
        },
        {
          "internalType": "uint8",
          "name": "_amount",
          "type": "uint8"
        }
      ],
      "name": "awardBoosterCredits",
      "outputs": [
        {
          "internalType": "bool",
          "name": "",
          "type": "bool"
        }
      ],
      "stateMutability": "nonpayable",
      "type": "function"
    },
    {
      "inputs": [
        {
          "internalType": "bytes4",
          "name": "interfaceId",
          "type": "bytes4"
        }
      ],
      "name": "supportsInterface",
      "outputs": [
        {
          "internalType": "bool",
          "name": "",
          "type": "bool"
        }
      ],
      "stateMutability": "view",
      "type": "function",
      "constant": true
    },
    {
      "inputs": [
        {
          "internalType": "address",
          "name": "_player",
          "type": "address"
        }
      ],
      "name": "getTimeToDailyBonus",
      "outputs": [
        {
          "internalType": "uint256",
          "name": "timeStamp",
          "type": "uint256"
        }
      ],
      "stateMutability": "view",
      "type": "function",
      "constant": true
    },
    {
      "inputs": [],
      "name": "withdraw",
      "outputs": [
        {
          "internalType": "bool",
          "name": "",
          "type": "bool"
        }
      ],
      "stateMutability": "nonpayable",
      "type": "function"
    }
  ],
  "bytecode": "0x600e805461ffff191690556101606040526000608081815260a082905260c082905260e0829052610100829052610120829052610140919091526200004990601090600762000206565b506003601a55655af3107a40006020556101f46021556022805463ffffffff191661c3501790553480156200007d57600080fd5b50604051620051c1380380620051c1833981016040819052620000a091620002e2565b60408051808201825260088152675a6f6f6d6269657360c01b6020808301918252835180850190945260078452665a6f6f6d62696560c81b908401528151919291620000ef916000916200024e565b508051620001059060019060208401906200024e565b505050620001226200011c620001b060201b60201c565b620001b4565b600a805460ff60a01b191690556001600160a01b0381166200014357600080fd5b60408051808201909152601b8082527f68747470733a2f2f7a6f6f6d626965732e776f726c642f6e66742f000000000060209092019182526200018991601c916200024e565b50600b80546001600160a01b0319166001600160a01b03929092169190911790556200034f565b3390565b600a80546001600160a01b038381166001600160a01b0319831681179093556040519116919082907f8be0079c531659141344cd1fd0a4f28419497f9722a3daafe3b4186f6b6457e090600090a35050565b82600781019282156200023c579160200282015b828111156200023c578251829060ff169055916020019190600101906200021a565b506200024a929150620002cb565b5090565b8280546200025c9062000312565b90600052602060002090601f0160209004810192826200028057600085556200023c565b82601f106200029b57805160ff19168380011785556200023c565b828001600101855582156200023c579182015b828111156200023c578251825591602001919060010190620002ae565b5b808211156200024a5760008155600101620002cc565b600060208284031215620002f4578081fd5b81516001600160a01b03811681146200030b578182fd5b9392505050565b600181811c908216806200032757607f821691505b602082108114156200034957634e487b7160e01b600052602260045260246000fd5b50919050565b614e62806200035f6000396000f3fe60806040526004361061031a5760003560e01c8063715018a6116101ab578063c87b56dd116100f7578063ef73cc6611610095578063f6856f181161006f578063f6856f1814610a00578063f8ae951114610a21578063f902803514610a41578063f93a0b3414610a5457600080fd5b8063ef73cc6614610993578063f2fde38b146109b3578063f34d7007146109d357600080fd5b8063d67f37d2116100d1578063d67f37d2146108e6578063d7272116146108ff578063e985e9c514610937578063ed6ae3b81461098057600080fd5b8063c87b56dd14610870578063cc99b5cd14610890578063d35590c2146108b057600080fd5b8063a22cb46511610164578063afa615411161013e578063afa61541146107dc578063b7e357a614610828578063b86709ca14610830578063b88d4fde1461085057600080fd5b8063a22cb4651461076e578063ae4cf4921461078e578063aec29b8b146107a157600080fd5b8063715018a6146106c65780637a93696a146106db5780638da5cb5b146106fb578063912fdfcb1461071957806395d89b4114610739578063993011d91461074e57600080fd5b80631db18cf91161026a57806342966c68116102235780635c975abb116101fd5780635c975abb1461063a5780636352211e146106595780636501139a1461067957806370a08231146106a657600080fd5b806342966c68146105da5780634d3e2e5e146105fa5780634f6ccce71461061a57600080fd5b80631db18cf91461051457806323b872dd1461052a578063265aa6211461054a5780632f745c59146105855780633ccfd60b146105a557806342842e0e146105ba57600080fd5b80630ad4c4f4116102d757806314cec02f116102b157806314cec02f1461049c57806316f73cde146104b257806318160ddd146104df57806318b51885146104f457600080fd5b80630ad4c4f4146104145780630ef635091461044e57806312a1bf581461047c57600080fd5b806301ffc9a71461031f57806303666a851461035457806306fdde0314610378578063073024481461039a578063081812fc146103bc578063095ea7b3146103f4575b600080fd5b34801561032b57600080fd5b5061033f61033a3660046146cf565b610a6f565b60405190151581526020015b60405180910390f35b34801561036057600080fd5b5061036a60215481565b60405190815260200161034b565b34801561038457600080fd5b5061038d610a80565b60405161034b9190614916565b3480156103a657600080fd5b506103ba6103b5366004614472565b610b12565b005b3480156103c857600080fd5b506103dc6103d7366004614833565b610c1f565b6040516001600160a01b03909116815260200161034b565b34801561040057600080fd5b506103ba61040f3660046145d5565b610cb4565b34801561042057600080fd5b5061043461042f366004614833565b610dca565b6040805161ffff909316835260208301919091520161034b565b34801561045a57600080fd5b50600e546104699061ffff1681565b60405161ffff909116815260200161034b565b34801561048857600080fd5b506103ba610497366004614627565b610e0e565b3480156104a857600080fd5b5061046961138881565b3480156104be57600080fd5b5061036a6104cd366004614707565b600f6020526000908152604090205481565b3480156104eb57600080fd5b5060085461036a565b34801561050057600080fd5b50600b546103dc906001600160a01b031681565b34801561052057600080fd5b5061036a60205481565b34801561053657600080fd5b506103ba6105453660046144be565b61108b565b34801561055657600080fd5b50610434610565366004614833565b6019602052600090815260409020805460019091015461ffff9091169082565b34801561059157600080fd5b5061036a6105a03660046145d5565b6110bd565b3480156105b157600080fd5b5061033f611153565b3480156105c657600080fd5b506103ba6105d53660046144be565b6111b4565b3480156105e657600080fd5b506103ba6105f5366004614833565b6111cf565b34801561060657600080fd5b5061036a610615366004614833565b611249565b34801561062657600080fd5b5061036a610635366004614833565b611260565b34801561064657600080fd5b50600a54600160a01b900460ff1661033f565b34801561066557600080fd5b506103dc610674366004614833565b611301565b34801561068557600080fd5b5061036a610694366004614472565b601f6020526000908152604090205481565b3480156106b257600080fd5b5061036a6106c1366004614472565b611378565b3480156106d257600080fd5b506103ba6113ff565b3480156106e757600080fd5b5061033f6106f6366004614833565b611435565b34801561070757600080fd5b50600a546001600160a01b03166103dc565b34801561072557600080fd5b506103ba610734366004614472565b61158e565b34801561074557600080fd5b5061038d6116df565b34801561075a57600080fd5b5061033f6107693660046145fe565b6116ee565b34801561077a57600080fd5b506103ba610789366004614572565b611868565b6103ba61079c366004614707565b61192d565b3480156107ad57600080fd5b5061033f6107bc3660046145ac565b601760209081526000928352604080842090915290825290205460ff1681565b3480156107e857600080fd5b50601154601254601354601454601554601654604080519687526020870195909552938501929092526060840152608083015260a082015260c00161034b565b61033f611ccc565b34801561083c57600080fd5b506103ba61084b366004614818565b611db6565b34801561085c57600080fd5b506103ba61086b3660046144f9565b611f76565b34801561087c57600080fd5b5061038d61088b366004614833565b611fae565b34801561089c57600080fd5b506103ba6108ab366004614721565b612089565b3480156108bc57600080fd5b506103dc6108cb366004614472565b601d602052600090815260409020546001600160a01b031681565b3480156108f257600080fd5b5061036a64e8d4a5100081565b34801561090b57600080fd5b5061091f61091a366004614707565b612574565b60405161034b9c9b9a99989796959493929190614ac8565b34801561094357600080fd5b5061033f61095236600461448c565b6001600160a01b03918216600090815260056020908152604080832093909416825291909152205460ff1690565b6103ba61098e366004614707565b6126f3565b34801561099f57600080fd5b506104696109ae366004614863565b612a5e565b3480156109bf57600080fd5b506103ba6109ce366004614472565b612aa5565b3480156109df57600080fd5b5061036a6109ee366004614707565b60186020526000908152604090205481565b348015610a0c57600080fd5b506022546104699062010000900461ffff1681565b348015610a2d57600080fd5b5061036a610a3c366004614472565b612b3d565b61033f610a4f366004614833565b612b86565b348015610a6057600080fd5b506022546104699061ffff1681565b6000610a7a82612c50565b92915050565b606060008054610a8f90614d28565b80601f0160208091040260200160405190810160405280929190818152602001828054610abb90614d28565b8015610b085780601f10610add57610100808354040283529160200191610b08565b820191906000526020600020905b815481529060010190602001808311610aeb57829003601f168201915b5050505050905090565b610b1b81612b3d565b421015610b835760405162461bcd60e51b815260206004820152602b60248201527f43616e277420636c61696d206265666f72652074696d6520746f20636c61696d60448201526a206e65787420626f6e757360a81b60648201526084015b60405180910390fd5b610b8f42617080614bac565b6001600160a01b0382166000908152601e6020908152604080832093909355601f9052908120805460029290610bc6908490614bac565b90915550506001600160a01b0381166000818152601f6020908152604091829020548251938452908301527fdea0c85af515c9fffcca886846213edc28206526b243af2f064b6962032ce185910160405180910390a150565b6000818152600260205260408120546001600160a01b0316610c985760405162461bcd60e51b815260206004820152602c60248201527f4552433732313a20617070726f76656420717565727920666f72206e6f6e657860448201526b34b9ba32b73a103a37b5b2b760a11b6064820152608401610b7a565b506000908152600460205260409020546001600160a01b031690565b6000610cbf82611301565b9050806001600160a01b0316836001600160a01b03161415610d2d5760405162461bcd60e51b815260206004820152602160248201527f4552433732313a20617070726f76616c20746f2063757272656e74206f776e656044820152603960f91b6064820152608401610b7a565b336001600160a01b0382161480610d495750610d498133610952565b610dbb5760405162461bcd60e51b815260206004820152603860248201527f4552433732313a20617070726f76652063616c6c6572206973206e6f74206f7760448201527f6e6572206e6f7220617070726f76656420666f7220616c6c00000000000000006064820152608401610b7a565b610dc58383612c75565b505050565b60008181526002602052604081205481906001600160a01b0316610ded57600080fd5b50506000908152601960205260409020805460019091015461ffff90911691565b61010081511115610e875760405162461bcd60e51b815260206004820152603b60248201527f4c697374206f6620746f6b656e7320746f20736163726966696365206d75737460448201527f206265206c657373207468616e2032353720617420612074696d6500000000006064820152608401610b7a565b6000805b825181101561107357610ec4838281518110610eb757634e487b7160e01b600052603260045260246000fd5b60200260200101516111cf565b600060196000858481518110610eea57634e487b7160e01b600052603260045260246000fd5b602090810291909101810151825281810192909252604090810160009081205461ffff16808252600c909352206003015490915060019060109062010000900460ff1660078110610f4b57634e487b7160e01b600052603260045260246000fd5b016000828254610f5b9190614ce5565b909155505061ffff81166000908152600c6020526040902060060154610f819084614bac565b925060196000858481518110610fa757634e487b7160e01b600052603260045260246000fd5b60209081029190910181015182528101919091526040016000908120805461ffff19168155600101557f892362fdae2aa1fec0517f70658abd25f4ea8757b1b0675bce3c84a2425b80b83385848151811061101257634e487b7160e01b600052603260045260246000fd5b60209081029190910181015161ffff85166000818152600c84526040908190206006015481516001600160a01b0390961686529385019290925290830152606082015260800160405180910390a1508061106b81614d85565b915050610e8b565b5061107e3382612ce3565b61108781612d69565b5050565b611096335b82612e21565b6110b25760405162461bcd60e51b8152600401610b7a90614a77565b610dc5838383612f18565b60006110c883611378565b821061112a5760405162461bcd60e51b815260206004820152602b60248201527f455243373231456e756d657261626c653a206f776e657220696e646578206f7560448201526a74206f6620626f756e647360a81b6064820152608401610b7a565b506001600160a01b03919091166000908152600660209081526040808320938352929052205490565b600a546000906001600160a01b031633146111805760405162461bcd60e51b8152600401610b7a90614a42565b60405133904780156108fc02916000818181858888f193505050501580156111ac573d6000803e3d6000fd5b506001905090565b610dc583838360405180602001604052806000815250611f76565b6111d833611090565b61123d5760405162461bcd60e51b815260206004820152603060248201527f4552433732314275726e61626c653a2063616c6c6572206973206e6f74206f7760448201526f1b995c881b9bdc88185c1c1c9bdd995960821b6064820152608401610b7a565b611246816130c3565b50565b6010816007811061125957600080fd5b0154905081565b600061126b60085490565b82106112ce5760405162461bcd60e51b815260206004820152602c60248201527f455243373231456e756d657261626c653a20676c6f62616c20696e646578206f60448201526b7574206f6620626f756e647360a01b6064820152608401610b7a565b600882815481106112ef57634e487b7160e01b600052603260045260246000fd5b90600052602060002001549050919050565b6000818152600260205260408120546001600160a01b031680610a7a5760405162461bcd60e51b815260206004820152602960248201527f4552433732313a206f776e657220717565727920666f72206e6f6e657869737460448201526832b73a103a37b5b2b760b91b6064820152608401610b7a565b60006001600160a01b0382166113e35760405162461bcd60e51b815260206004820152602a60248201527f4552433732313a2062616c616e636520717565727920666f7220746865207a65604482015269726f206164647265737360b01b6064820152608401610b7a565b506001600160a01b031660009081526003602052604090205490565b600a546001600160a01b031633146114295760405162461bcd60e51b8152600401610b7a90614a42565b611433600061316a565b565b336000908152601f60205260408120546114915760405162461bcd60e51b815260206004820152601860248201527f4e6f20426f6f737465722063726564697473206f776e656400000000000000006044820152606401610b7a565b8115806114a15750620f42408210155b6114fc5760405162461bcd60e51b815260206004820152602660248201527f5761676572206d7573742062652030206f7220686967686572207468616e203160448201526503030303030360d41b6064820152608401610b7a565b336000908152601f6020526040812080546001929061151c908490614ce5565b909155506000905061152d836131bc565b90505b61153981613429565b61154c5761154681613429565b50611530565b6040805160ff83168152905133917f9110cd00ebf5075b22eead1dbb6c4f4c5b7bd329bc646333c004dfb9e8c21f0b919081900360200190a250600192915050565b6001600160a01b0381166115e45760405162461bcd60e51b815260206004820152601b60248201527f53656e6420612076616c69642073706f6e736f722077616c6c657400000000006044820152606401610b7a565b336000908152601d60205260409020546001600160a01b0316156116545760405162461bcd60e51b815260206004820152602160248201527f596f75206861766520616c7265616479206c696e6b656420612073706f6e736f6044820152603960f91b6064820152608401610b7a565b336001600160a01b03821614156116ad5760405162461bcd60e51b815260206004820152601b60248201527f596f752063616e6e6f742073706f6e736f7220796f757273656c6600000000006044820152606401610b7a565b336000908152601d6020526040902080546001600160a01b0319166001600160a01b0383161790556110876002613429565b606060018054610a8f90614d28565b600a546000906001600160a01b0316331461171b5760405162461bcd60e51b8152600401610b7a90614a42565b60225461ffff8082169161173a9160ff86169162010000900416614b8f565b61ffff1611156117a25760405162461bcd60e51b815260206004820152602d60248201527f52656163686564206d61782e206e756d626572206f6620426f6f73746572206360448201526c7265646974207265776172647360981b6064820152608401610b7a565b8160ff16602260028282829054906101000a900461ffff166117c49190614b8f565b92506101000a81548161ffff021916908361ffff1602179055508160ff16601f6000856001600160a01b03166001600160a01b0316815260200190815260200160002060008282546118169190614bac565b9091555050604080516001600160a01b038516815260ff841660208201527f0db7c2749c43f1a3f16904833bf2cf21b6f6e675613def2bd07ec6b2de65bf8b910160405180910390a150600192915050565b6001600160a01b0382163314156118c15760405162461bcd60e51b815260206004820152601960248201527f4552433732313a20617070726f766520746f2063616c6c6572000000000000006044820152606401610b7a565b3360008181526005602090815260408083206001600160a01b03871680855290835292819020805460ff191686151590811790915590519081529192917f17307eab39ab6107e8899845ad3d59bd9653f200f220920489ca2b5937696c31910160405180910390a35050565b61ffff8082166000908152600c60205260409020541661198f5760405162461bcd60e51b815260206004820152601b60248201527f43617264207479706520494420646f6573206e6f7420657869737400000000006044820152606401610b7a565b61ffff81166000908152600c6020526040902060030154610100900460ff16156119cb5760405162461bcd60e51b8152600401610b7a906149be565b61ffff81166000908152600f6020526040902054421015611a2e5760405162461bcd60e51b815260206004820152601b60248201527f43617264206e6f742072656c65617365642066726f6d2073686f7000000000006044820152606401610b7a565b61ffff8116600090815260186020526040902054611a4d906001614bac565b61ffff8083166000908152600c602052604090206003015463010000009004161015611a8b5760405162461bcd60e51b8152600401610b7a9061497b565b33600090815260176020908152604080832061ffff8516845290915290205460ff1615611aca5760405162461bcd60e51b8152600401610b7a90614a01565b61ffff81166000908152600c6020526040902060040154341015611b485760405162461bcd60e51b815260206004820152602f60248201527f596f752068617665206e6f74207061696420656e6f756768204d4f565220746f60448201526e206d696e742074686973207479706560881b6064820152608401610b7a565b600b546000906001600160a01b03166370a08231336040516001600160e01b031960e084901b1681526001600160a01b03909116600482015260240160206040518083038186803b158015611b9c57600080fd5b505afa158015611bb0573d6000803e3d6000fd5b505050506040513d601f19601f82011682018060405250810190611bd4919061484b565b61ffff83166000908152600c602052604081206007015491925090611bfa906064614cc6565b611c099064e8d4a51000614cc6565b61ffff84166000908152600c60205260409020600701549091508210801590611c47575061ffff83166000908152600c602052604090206004015434145b80611c5157508034145b611cc35760405162461bcd60e51b815260206004820152603d60248201527f596f7520646f206e6f74206861766520746865207265717569726564205a6f6f60448201527f6d2062616c616e6365204f72204d4f5652202b6571756976616c656e740000006064820152608401610b7a565b610dc583613527565b6000602054341015611d335760405162461bcd60e51b815260206004820152602a60248201527f436f737420746f2062757920616e64206d696e74206120426f6f73746572204e604482015269465420697320302e303160b01b6064820152608401610b7a565b611d3f33602154612ce3565b611d4a602154612d69565b6000611d5660006131bc565b90505b611d6281613429565b611d7557611d6f81613429565b50611d59565b6040805160ff83168152905133917f9110cd00ebf5075b22eead1dbb6c4f4c5b7bd329bc646333c004dfb9e8c21f0b919081900360200190a2600191505090565b600a546001600160a01b03163314611de05760405162461bcd60e51b8152600401610b7a90614a42565b61ffff8083166000818152600c602052604090205490911614611e505760405162461bcd60e51b815260206004820152602260248201527f546869732063617264547970654964206973206e6f7420646566696e65642079604482015261195d60f21b6064820152608401610b7a565b61088e811115611ec85760405162461bcd60e51b815260206004820152603960248201527f686f75727346726f6d4e6f77206d757374206265206120706f7369746976652060448201527f6e756d62657220616e64206c657373207468616e2032313930000000000000006064820152608401610b7a565b61ffff82166000908152600f6020526040902054421115611f455760405162461bcd60e51b815260206004820152603160248201527f43616e206f6e6c79206368616e67652072656c656173652074696d6573206f6e60448201527020556e72656c656173656420636172647360781b6064820152608401610b7a565b611f5181610e10614cc6565b611f5b9042614bac565b61ffff9092166000908152600f602052604090209190915550565b611f803383612e21565b611f9c5760405162461bcd60e51b8152600401610b7a90614a77565b611fa8848484846136c5565b50505050565b6000818152600260205260409020546060906001600160a01b031661202d5760405162461bcd60e51b815260206004820152602f60248201527f4552433732314d657461646174613a2055524920717565727920666f72206e6f60448201526e3732bc34b9ba32b73a103a37b5b2b760891b6064820152608401610b7a565b60006120376136f8565b905060008151116120575760405180602001604052806000815250612082565b8061206184613707565b6040516020016120729291906148aa565b6040516020818303038152906040525b9392505050565b600a546001600160a01b031633146120b35760405162461bcd60e51b8152600401610b7a90614a42565b600e5461138861ffff90911611156121185760405162461bcd60e51b815260206004820152602260248201527f4d6178696d756d206f6620353030302063617264205479706573207265616368604482015261195960f21b6064820152608401610b7a565b61ffff808d166000908152600c602052604090205416156121985760405162461bcd60e51b815260206004820152603460248201527f4e6f7420616c6c6f77656420746f2075706461746520616e206578697374696e604482015273339031b0b9322a3cb832903232b334b734ba37b760611b6064820152608401610b7a565b60ff88161580156121ad575060018661ffff16105b156122095760405162461bcd60e51b815260206004820152602660248201527f496e2073746f7265207479706573206d757374206265206c696d6974656420656044820152653234ba34b7b760d11b6064820152608401610b7a565b60008860ff1611801561221c5750600085115b156122735760405162461bcd60e51b815260206004820152602160248201527f426f6f737465722f426f6e7573206d6179204e4f542068617665206120636f736044820152601d60fa1b6064820152608401610b7a565b61ffff8c166000818152600c60209081526040909120805461ffff191690921782558c516122a792600101918e01906142ec565b5061ffff8c166000908152600c602090815260409091208b516122d2926002909201918d01906142ec565b5088600c60008e61ffff1661ffff16815260200190815260200160002060030160006101000a81548160ff021916908360ff16021790555087600c60008e61ffff1661ffff16815260200190815260200160002060030160016101000a81548160ff021916908360ff16021790555086600c60008e61ffff1661ffff16815260200190815260200160002060030160026101000a81548160ff021916908360ff16021790555085600c60008e61ffff1661ffff16815260200190815260200160002060030160036101000a81548161ffff021916908361ffff16021790555084600c60008e61ffff1661ffff1681526020019081526020016000206004018190555083600c60008e61ffff1661ffff1681526020019081526020016000206005018190555082600c60008e61ffff1661ffff1681526020019081526020016000206006018190555081600c60008e61ffff1661ffff1681526020019081526020016000206007018190555080600c60008e61ffff1661ffff16815260200190815260200160002060080160006101000a81548160ff021916908360ff160217905550600e600081819054906101000a900461ffff168092919061249490614d63565b91906101000a81548161ffff021916908361ffff1602179055505060008860ff16111561253d57600d60008860ff1660ff1681526020019081526020016000208c90806001815401808255809150506001900390600052602060002090601091828204019190066002029091909190916101000a81548161ffff021916908361ffff16021790555042600f60008e61ffff1661ffff168152602001908152602001600020819055505b60ff88166125665761255142610258614bac565b61ffff8d166000908152600f60205260409020555b505050505050505050505050565b600c602052600090815260409020805460018201805461ffff909216929161259b90614d28565b80601f01602080910402602001604051908101604052809291908181526020018280546125c790614d28565b80156126145780601f106125e957610100808354040283529160200191612614565b820191906000526020600020905b8154815290600101906020018083116125f757829003601f168201915b50505050509080600201805461262990614d28565b80601f016020809104026020016040519081016040528092919081815260200182805461265590614d28565b80156126a25780601f10612677576101008083540402835291602001916126a2565b820191906000526020600020905b81548152906001019060200180831161268557829003601f168201915b50505060038401546004850154600586015460068701546007880154600890980154969760ff808616986101008704821698506201000087048216975061ffff63010000009097049690961695168c565b61ffff8082166000908152600c6020526040902054166127555760405162461bcd60e51b815260206004820152601b60248201527f43617264207479706520494420646f6573206e6f7420657869737400000000006044820152606401610b7a565b61ffff81166000908152600c6020526040902060030154610100900460ff16156127915760405162461bcd60e51b8152600401610b7a906149be565b61ffff81166000908152600f60205260409020544210156127f45760405162461bcd60e51b815260206004820152601b60248201527f43617264206e6f742072656c65617365642066726f6d2073686f7000000000006044820152606401610b7a565b61ffff8116600090815260186020526040902054612813906001614bac565b61ffff8083166000908152600c6020526040902060030154630100000090041610156128515760405162461bcd60e51b8152600401610b7a9061497b565b33600090815260176020908152604080832061ffff8516845290915290205460ff16156128905760405162461bcd60e51b8152600401610b7a90614a01565b61ffff81166000908152600c6020526040902060040154156129035760405162461bcd60e51b815260206004820152602660248201527f596f752061726520617474656d7074696e6720746f206d696e7420612070616960448201526564207479706560d01b6064820152608401610b7a565b600b546000906001600160a01b03166370a08231336040516001600160e01b031960e084901b1681526001600160a01b03909116600482015260240160206040518083038186803b15801561295757600080fd5b505afa15801561296b573d6000803e3d6000fd5b505050506040513d601f19601f8201168201806040525081019061298f919061484b565b61ffff83166000908152600c6020526040812060070154919250906129b590600a614cc6565b6129c49064e8d4a51000614cc6565b61ffff84166000908152600c6020526040902060070154909150821015806129ec5750803410155b611cc35760405162461bcd60e51b815260206004820152603c60248201527f596f7520646f206e6f74206861766520746865207265717569726564205a6f6f60448201527f6d2062616c616e6365204f72204d4f5652206571756976616c656e74000000006064820152608401610b7a565b600d6020528160005260406000208181548110612a7a57600080fd5b9060005260206000209060109182820401919006600202915091509054906101000a900461ffff1681565b600a546001600160a01b03163314612acf5760405162461bcd60e51b8152600401610b7a90614a42565b6001600160a01b038116612b345760405162461bcd60e51b815260206004820152602660248201527f4f776e61626c653a206e6577206f776e657220697320746865207a65726f206160448201526564647265737360d01b6064820152608401610b7a565b6112468161316a565b6001600160a01b0381166000908152601e6020526040812054612b6557610a7a600242614ce5565b506001600160a01b03166000908152601e602052604090205490565b919050565b600081602054612b969190614cc6565b341015612bf65760405162461bcd60e51b815260206004820152602860248201527f436f737420746f20627579203120426f6f73746572204e46542063726564697460448201526720697320302e303160c01b6064820152608401610b7a565b336000908152601f602052604081208054849290612c15908490614bac565b90915550612c3290503383602154612c2d9190614cc6565b612ce3565b612c4882602154612c439190614cc6565b612d69565b506001919050565b60006001600160e01b0319821663780e9d6360e01b1480610a7a5750610a7a82613821565b600081815260046020526040902080546001600160a01b0319166001600160a01b0384169081179091558190612caa82611301565b6001600160a01b03167f8c5be1e5ebec7d5bd14f71427d1e84f3dd0314c0f7b2291e5b200ac8c7c3b92560405160405180910390a45050565b600b546001600160a01b03166321af688983612d0784670de0b6b3a7640000614cc6565b6040516001600160e01b031960e085901b1681526001600160a01b0390921660048301526024820152604401600060405180830381600087803b158015612d4d57600080fd5b505af1158015612d61573d6000803e3d6000fd5b505050505050565b336000908152601d60205260409020546001600160a01b031615611246576000612d94600583614bc4565b905080612d9f575060015b336000908152601d6020526040902054612dc2906001600160a01b031682612ce3565b336000818152601d60209081526040918290205482516001600160a01b0391909116815290810192909252818101839052517e3da85d6058444eca57e3b88be14c734f4f239affe28b7629966e318de2a90e9181900360600190a15050565b6000818152600260205260408120546001600160a01b0316612e9a5760405162461bcd60e51b815260206004820152602c60248201527f4552433732313a206f70657261746f7220717565727920666f72206e6f6e657860448201526b34b9ba32b73a103a37b5b2b760a11b6064820152608401610b7a565b6000612ea583611301565b9050806001600160a01b0316846001600160a01b03161480612ee05750836001600160a01b0316612ed584610c1f565b6001600160a01b0316145b80612f1057506001600160a01b0380821660009081526005602090815260408083209388168352929052205460ff165b949350505050565b826001600160a01b0316612f2b82611301565b6001600160a01b031614612f935760405162461bcd60e51b815260206004820152602960248201527f4552433732313a207472616e73666572206f6620746f6b656e2074686174206960448201526839903737ba1037bbb760b91b6064820152608401610b7a565b6001600160a01b038216612ff55760405162461bcd60e51b8152602060048201526024808201527f4552433732313a207472616e7366657220746f20746865207a65726f206164646044820152637265737360e01b6064820152608401610b7a565b613000838383613871565b61300b600082612c75565b6001600160a01b0383166000908152600360205260408120805460019290613034908490614ce5565b90915550506001600160a01b0382166000908152600360205260408120805460019290613062908490614bac565b909155505060008181526002602052604080822080546001600160a01b0319166001600160a01b0386811691821790925591518493918716917fddf252ad1be2c89b69c2b068fc378daa952ba7f163c4a11628f55a4df523b3ef91a4505050565b60006130ce82611301565b90506130dc81600084613871565b6130e7600083612c75565b6001600160a01b0381166000908152600360205260408120805460019290613110908490614ce5565b909155505060008281526002602052604080822080546001600160a01b0319169055518391906001600160a01b038416907fddf252ad1be2c89b69c2b068fc378daa952ba7f163c4a11628f55a4df523b3ef908390a45050565b600a80546001600160a01b038381166001600160a01b0319831681179093556040519116919082907f8be0079c531659141344cd1fd0a4f28419497f9722a3daafe3b4186f6b6457e090600090a35050565b60006605dc0000000bb882111561323b5760405162461bcd60e51b815260206004820152603c60248201527f596f75206d757374207761676572206c657373207468616e207468652075707060448201527f6572206c696d6974206f662031363439323637343431363637303030000000006064820152608401610b7a565b600b546000906001600160a01b03166370a08231336040516001600160e01b031960e084901b1681526001600160a01b03909116600482015260240160206040518083038186803b15801561328f57600080fd5b505afa1580156132a3573d6000803e3d6000fd5b505050506040513d601f19601f820116820180604052508101906132c7919061484b565b90508281101561332c5760405162461bcd60e51b815260206004820152602a60248201527f596f7520646f204e6f74206861766520656e6f756768205a4f4f4d20666f72206044820152693a3434b9903bb0b3b2b960b11b6064820152608401610b7a565b82156133a557600b546001600160a01b03166336ec0dd6336040516001600160e01b031960e084901b1681526001600160a01b03909116600482015260248101869052604401600060405180830381600087803b15801561338c57600080fd5b505af11580156133a0573d6000803e3d6000fd5b505050505b60006133b26127106138c9565b905060006133bf85613948565b905060025b60078160ff16101561341d57818160ff16600781106133f357634e487b7160e01b600052603260045260246000fd5b602002015161ffff16831161340b5795945050505050565b8061341581614da0565b9150506133c4565b50600695945050505050565b60ff81166000908152600d60205260408120548190613447906138c9565b60ff84166000908152600d60205260408120805492935090918390811061347e57634e487b7160e01b600052603260045260246000fd5b60009182526020808320601083040154600f9092166002026101000a90910461ffff908116808452600c909252604090922060030154909250630100000090041615801590613505575061ffff8082166000908152600c6020908152604080832060030154601890925290912054630100000090910490911690613503906001614bac565b115b15613514575060009392505050565b61351d81613527565b5060019392505050565b33600081815260176020908152604080832061ffff861684528252808320805460ff19166001179055600c9091529020600501546135659190612ce3565b61ffff81166000908152600c602052604090206005015461358590612d69565b61ffff811660009081526018602052604081208054600192906135a9908490614bac565b9091555050601b8054600101905560006135c2601b5490565b90506135ce33826139ee565b60408051808201825261ffff84811680835260008181526018602090815285822054818601908152878352601982528683208651815461ffff1916961695909517855551600194850155918152600c909152929092206003015490919060109062010000900460ff166007811061365557634e487b7160e01b600052603260045260246000fd5b0160008282546136659190614bac565b9091555050805161ffff16336001600160a01b03167f36e996ba214404b0a557ef87433cf92f99d6f4e07c2ca5b7cf72a95d7ac7f09f8484602001516040516136b8929190918252602082015260400190565b60405180910390a3505050565b6136d0848484612f18565b6136dc84848484613a08565b611fa85760405162461bcd60e51b8152600401610b7a90614929565b6060601c8054610a8f90614d28565b60608161372b5750506040805180820190915260018152600360fc1b602082015290565b8160005b8115613755578061373f81614d85565b915061374e9050600a83614bc4565b915061372f565b60008167ffffffffffffffff81111561377e57634e487b7160e01b600052604160045260246000fd5b6040519080825280601f01601f1916602001820160405280156137a8576020820181803683370190505b5090505b8415612f10576137bd600183614ce5565b91506137ca600a86614dc0565b6137d5906030614bac565b60f81b8183815181106137f857634e487b7160e01b600052603260045260246000fd5b60200101906001600160f81b031916908160001a90535061381a600a86614bc4565b94506137ac565b60006001600160e01b031982166380ac58cd60e01b148061385257506001600160e01b03198216635b5e139f60e01b145b80610a7a57506301ffc9a760e01b6001600160e01b0319831614610a7a565b600a54600160a01b900460ff16156138be5760405162461bcd60e51b815260206004820152601060248201526f14185d5cd8589b194e881c185d5cd95960821b6044820152606401610b7a565b610dc5838383613b15565b600080824233601a546040516020016139079392919092835260609190911b6bffffffffffffffffffffffff19166020830152603482015260540190565b6040516020818303038152906040528051906020012060001c61392a9190614dc0565b601a8054919250600061393c83614d85565b90915550909392505050565b613950614370565b816139965750506040805160e08101825260008082526020820181905291810191909152600160608201526101f46080820152610dac60a082015261271060c082015290565b6000806000806139a586613bcd565b6040805160e0810182526000808252602082018190529181019190915261ffff9182166060820152918116608083015291821660a0820152911660c08201529695505050505050565b611087828260405180602001604052806000815250613de0565b60006001600160a01b0384163b15613b0a57604051630a85bd0160e11b81526001600160a01b0385169063150b7a0290613a4c9033908990889088906004016148d9565b602060405180830381600087803b158015613a6657600080fd5b505af1925050508015613a96575060408051601f3d908101601f19168201909252613a93918101906146eb565b60015b613af0573d808015613ac4576040519150601f19603f3d011682016040523d82523d6000602084013e613ac9565b606091505b508051613ae85760405162461bcd60e51b8152600401610b7a90614929565b805181602001fd5b6001600160e01b031916630a85bd0160e11b149050612f10565b506001949350505050565b6001600160a01b038316613b7057613b6b81600880546000838152600960205260408120829055600182018355919091527ff3f7a9fe364faab93b216da50a3214154f22a0a2b415b23a84c8169e8b636ee30155565b613b93565b816001600160a01b0316836001600160a01b031614613b9357613b938382613e13565b6001600160a01b038216613baa57610dc581613eb0565b826001600160a01b0316826001600160a01b031614610dc557610dc58282613f89565b604080516080808201835260018083526002602080850182905260038587015260046060808701919091528651948501875292845283015260069382019390935260189281019290925260009182918291829190613c2961438e565b613c3161438e565b60005b6004811015613cfc57838160048110613c5d57634e487b7160e01b600052603260045260246000fd5b602002015160ff16613c6e8b613fcd565b868360048110613c8e57634e487b7160e01b600052603260045260246000fd5b6020020151613c9c8d613fcd565b613ca69190614c1b565b613cb09190614bc4565b613cba9190614bc4565b613cc5906064614cc6565b838260048110613ce557634e487b7160e01b600052603260045260246000fd5b602002015280613cf481614d85565b915050613c34565b5060608201516040830151602084015184516000939291613d1c91614bac565b613d269190614bac565b613d309190614bac565b905060005b6004811015613dba5781848260048110613d5f57634e487b7160e01b600052603260045260246000fd5b6020020151613d7090612710614cc6565b613d7a9190614bc4565b838260048110613d9a57634e487b7160e01b600052603260045260246000fd5b61ffff909216602092909202015280613db281614d85565b915050613d35565b5050805160208201516040830151606090930151919b909a509198509650945050505050565b613dea838361419e565b613df76000848484613a08565b610dc55760405162461bcd60e51b8152600401610b7a90614929565b60006001613e2084611378565b613e2a9190614ce5565b600083815260076020526040902054909150808214613e7d576001600160a01b03841660009081526006602090815260408083208584528252808320548484528184208190558352600790915290208190555b5060009182526007602090815260408084208490556001600160a01b039094168352600681528383209183525290812055565b600854600090613ec290600190614ce5565b60008381526009602052604081205460088054939450909284908110613ef857634e487b7160e01b600052603260045260246000fd5b906000526020600020015490508060088381548110613f2757634e487b7160e01b600052603260045260246000fd5b6000918252602080832090910192909255828152600990915260408082208490558582528120556008805480613f6d57634e487b7160e01b600052603160045260246000fd5b6001900381819060005260206000200160009055905550505050565b6000613f9483611378565b6001600160a01b039093166000908152600660209081526040808320868452825280832085905593825260079052919091209190915550565b600080612082613fe0620425cc85614bc4565b604080517ff8f9cbfae6cc78fbefe7cdc3a1793dfcf4f0e8bbd8cec470b6a28a7a5a3e1efd81527ff5ecf1b3e9debc68e1d9cfabc5997135bfb7a7a3938b7b606b5b4b3f2f1f0ffe60208201527ff6e4ed9ff2d6b458eadcdf97bd91692de2d4da8fd2d0ac50c6ae9a8272523616818301527fc8c0b887b0a8a4489c948c7f847c6125746c645c544c444038302820181008ff60608201527ff7cae577eec2a03cf3bad76fb589591debb2dd67e0aa9834bea6925f6a4a2e0e60808201527fe39ed557db96902cd38ed14fad815115c786af479b7e8324736353433727170760a08201527fc976c13bb96e881cb166a933a55e490d9d56952b8d4e801485467d236242260660c08201527f753a6d1b65325d0c552a4d1345224105391a310b29122104190a11030902010060e0820152610100808201909252600160f81b6001600160801b68010000000000000000640100000000620100006010600460026000198c019081041790810417908104178881041790810417908104179081041790810417017e818283848586878898a8b8c8d8e8f929395969799a9b9d9e9faaeb6bedeeff0281900460ff039091015104600160ff1b909211020190565b6001600160a01b0382166141f45760405162461bcd60e51b815260206004820181905260248201527f4552433732313a206d696e7420746f20746865207a65726f20616464726573736044820152606401610b7a565b6000818152600260205260409020546001600160a01b0316156142595760405162461bcd60e51b815260206004820152601c60248201527f4552433732313a20746f6b656e20616c7265616479206d696e746564000000006044820152606401610b7a565b61426560008383613871565b6001600160a01b038216600090815260036020526040812080546001929061428e908490614bac565b909155505060008181526002602052604080822080546001600160a01b0319166001600160a01b03861690811790915590518392907fddf252ad1be2c89b69c2b068fc378daa952ba7f163c4a11628f55a4df523b3ef908290a45050565b8280546142f890614d28565b90600052602060002090601f01602090048101928261431a5760008555614360565b82601f1061433357805160ff1916838001178555614360565b82800160010185558215614360579182015b82811115614360578251825591602001919060010190614345565b5061436c9291506143ac565b5090565b6040518060e001604052806007906020820280368337509192915050565b60405180608001604052806004906020820280368337509192915050565b5b8082111561436c57600081556001016143ad565b600067ffffffffffffffff8311156143db576143db614e00565b6143ee601f8401601f1916602001614b5e565b905082815283838301111561440257600080fd5b828260208301376000602084830101529392505050565b80356001600160a01b0381168114612b8157600080fd5b600082601f830112614440578081fd5b612082838335602085016143c1565b803561ffff81168114612b8157600080fd5b803560ff81168114612b8157600080fd5b600060208284031215614483578081fd5b61208282614419565b6000806040838503121561449e578081fd5b6144a783614419565b91506144b560208401614419565b90509250929050565b6000806000606084860312156144d2578081fd5b6144db84614419565b92506144e960208501614419565b9150604084013590509250925092565b6000806000806080858703121561450e578081fd5b61451785614419565b935061452560208601614419565b925060408501359150606085013567ffffffffffffffff811115614547578182fd5b8501601f81018713614557578182fd5b614566878235602084016143c1565b91505092959194509250565b60008060408385031215614584578182fd5b61458d83614419565b9150602083013580151581146145a1578182fd5b809150509250929050565b600080604083850312156145be578182fd5b6145c783614419565b91506144b56020840161444f565b600080604083850312156145e7578182fd5b6145f083614419565b946020939093013593505050565b60008060408385031215614610578182fd5b61461983614419565b91506144b560208401614461565b60006020808385031215614639578182fd5b823567ffffffffffffffff80821115614650578384fd5b818501915085601f830112614663578384fd5b81358181111561467557614675614e00565b8060051b9150614686848301614b5e565b8181528481019084860184860187018a10156146a0578788fd5b8795505b838610156146c25780358352600195909501949186019186016146a4565b5098975050505050505050565b6000602082840312156146e0578081fd5b813561208281614e16565b6000602082840312156146fc578081fd5b815161208281614e16565b600060208284031215614718578081fd5b6120828261444f565b6000806000806000806000806000806000806101808d8f03121561474357898afd5b61474c8d61444f565b9b5067ffffffffffffffff60208e0135111561476657898afd5b6147768e60208f01358f01614430565b9a5067ffffffffffffffff60408e0135111561479057898afd5b6147a08e60408f01358f01614430565b99506147ae60608e01614461565b98506147bc60808e01614461565b97506147ca60a08e01614461565b96506147d860c08e0161444f565b955060e08d013594506101008d013593506101208d013592506101408d013591506148066101608e01614461565b90509295989b509295989b509295989b565b6000806040838503121561482a578182fd5b6145f08361444f565b600060208284031215614844578081fd5b5035919050565b60006020828403121561485c578081fd5b5051919050565b60008060408385031215614875578182fd5b6145f083614461565b60008151808452614896816020860160208601614cfc565b601f01601f19169290920160200192915050565b600083516148bc818460208801614cfc565b8351908301906148d0818360208801614cfc565b01949350505050565b6001600160a01b038581168252841660208201526040810183905260806060820181905260009061490c9083018461487e565b9695505050505050565b602081526000612082602083018461487e565b60208082526032908201527f4552433732313a207472616e7366657220746f206e6f6e20455243373231526560408201527131b2b4bb32b91034b6b83632b6b2b73a32b960711b606082015260800190565b60208082526023908201527f416c6c206f662074686573652063617264732068617665206265656e206d696e6040820152621d195960ea1b606082015260800190565b60208082526023908201527f4f6e6c792063617264732066726f6d2073746f72652063616e206265206d696e6040820152621d195960ea1b606082015260800190565b60208082526021908201527f596f75206861766520616c7265616479206d696e7465642074686973207479706040820152606560f81b606082015260800190565b6020808252818101527f4f776e61626c653a2063616c6c6572206973206e6f7420746865206f776e6572604082015260600190565b60208082526031908201527f4552433732313a207472616e736665722063616c6c6572206973206e6f74206f6040820152701ddb995c881b9bdc88185c1c1c9bdd9959607a1b606082015260800190565b600061018061ffff8f168352806020840152614ae68184018f61487e565b90508281036040840152614afa818e61487e565b91505060ff8b16606083015260ff8a16608083015260ff891660a083015261ffff881660c08301528660e0830152856101008301528461012083015283610140830152614b4d61016083018460ff169052565b9d9c50505050505050505050505050565b604051601f8201601f1916810167ffffffffffffffff81118282101715614b8757614b87614e00565b604052919050565b600061ffff8083168185168083038211156148d0576148d0614dd4565b60008219821115614bbf57614bbf614dd4565b500190565b600082614bd357614bd3614dea565b500490565b600181815b80851115614c13578160001904821115614bf957614bf9614dd4565b80851615614c0657918102915b93841c9390800290614bdd565b509250929050565b600061208260ff841683600082614c3457506001610a7a565b81614c4157506000610a7a565b8160018114614c575760028114614c6157614c7d565b6001915050610a7a565b60ff841115614c7257614c72614dd4565b50506001821b610a7a565b5060208310610133831016604e8410600b8410161715614ca0575081810a610a7a565b614caa8383614bd8565b8060001904821115614cbe57614cbe614dd4565b029392505050565b6000816000190483118215151615614ce057614ce0614dd4565b500290565b600082821015614cf757614cf7614dd4565b500390565b60005b83811015614d17578181015183820152602001614cff565b83811115611fa85750506000910152565b600181811c90821680614d3c57607f821691505b60208210811415614d5d57634e487b7160e01b600052602260045260246000fd5b50919050565b600061ffff80831681811415614d7b57614d7b614dd4565b6001019392505050565b6000600019821415614d9957614d99614dd4565b5060010190565b600060ff821660ff811415614db757614db7614dd4565b60010192915050565b600082614dcf57614dcf614dea565b500690565b634e487b7160e01b600052601160045260246000fd5b634e487b7160e01b600052601260045260246000fd5b634e487b7160e01b600052604160045260246000fd5b6001600160e01b03198116811461124657600080fdfea2646970667358221220f2ed9417b5a27d3169fea06b8f5baf316964aeb20a57e5891bf64e35b3c5c63364736f6c63430008040033",
  "immutableReferences": {},
  "source": "// SPDX-License-Identifier: MIT\npragma solidity ^0.8.4;\n\nimport \"./ZoombiesUniverse.sol\";\nimport \"@openzeppelin/contracts/token/ERC721/ERC721.sol\";\nimport \"@openzeppelin/contracts/token/ERC721/extensions/ERC721Burnable.sol\";\nimport \"@openzeppelin/contracts/utils/Counters.sol\";\n\n\ncontract Zoombies is ERC721, ERC721Burnable, ZoombiesUniverse {\n    using Counters for Counters.Counter;\n\n    Counters.Counter private _tokenIdCounter;\n    string private _baseTokenURI;\n\n    //Tracking affiliate sponsors\n    mapping(address => address) public sponsors; // 1 sponsor have many affiliates, but only 1 sponsor, returns sponsor\n\n    //Track the timestamps for users to get their daily pull\n    mapping(address => uint256) private timeToCardsPull; //address to timestamp\n\n    //Tracking booster pack count ownership. These are NOT tokens, Player can mint a random NFT\n    mapping (address => uint256) public boosterCreditsOwned;\n\n    uint public weiCostOfBooster = 100000000000000;\n    uint256 public zoomGainedPerBoosterCredit = 500;\n\n    uint16 public maxBoostersRewards = 50000;\n    uint16 public totalBoostersRewarded = 0;\n\n    //Event Logs\n    event LogCardTypeLoaded(uint32 indexed cardTypeId, string cardName, uint editionTotal);\n    event LogCardMinted(address indexed buyer, uint tokenId, uint32 indexed cardTypeId, uint editionNumber);\n    event LogPackOpened(address indexed buyer, uint8 rarity);\n    event LogSponsorLinked(address sponsor, address affiliate);\n    event LogSponsorReward(address sponsor, address affiliate, uint zoomReward);\n    event LogDailyReward(address player, uint newBoosterBalance);\n    event LogRewardBoosters(address winner, uint boostersAwarded);\n    event LogSacrificeNFT(address owner, uint256 tokenId, uint16 cardTypeId, uint256 zoomGained);\n\n    constructor(address _zoomTokenContract)\n    ERC721(\"Zoombies\", \"Zoombie\") {\n        require(_zoomTokenContract != address(0x0));\n        _baseTokenURI = \"https://zoombies.world/nft/\";\n        zoomTokenContract = _zoomTokenContract;\n    }\n\n    function buyCard(uint16 _cardTypeId) external payable {\n        require(allCardTypes[_cardTypeId].cardTypeId != 0, \"Card type ID does not exist\");\n        require(allCardTypes[_cardTypeId].notStoreOrBonus == 0, \"Only cards from store can be minted\");\n        require(block.timestamp >= storeReleaseTime[_cardTypeId], \"Card not released from shop\");\n        require(allCardTypes[_cardTypeId].totalAvailable >= (cardTypeToEdition[_cardTypeId]+1),\n        \"All of these cards have been minted\");\n        require(cardTypesOwned[_msgSender()][_cardTypeId] == false, \"You have already minted this type\");\n        require(msg.value >= allCardTypes[_cardTypeId].weiCost, \"You have not paid enough MOVR to mint this type\");\n        uint zoom = ZoomToken(zoomTokenContract).balanceOf(_msgSender());\n        uint zoomCost = ZOOM_BASE_COST * (100*allCardTypes[_cardTypeId].unlockZoom);\n\n        require(zoom >= allCardTypes[_cardTypeId].unlockZoom &&\n        msg.value == allCardTypes[_cardTypeId].weiCost || msg.value == zoomCost,\n        \"You do not have the required Zoom balance Or MOVR +equivalent\");\n\n        //ALL CLEAR ???????? mint new card\n        mintZoombieNFT(_cardTypeId);\n    }\n\n    function getFreeCard(uint16 _cardTypeId) external payable {\n        require(allCardTypes[_cardTypeId].cardTypeId != 0, \"Card type ID does not exist\");\n        require(allCardTypes[_cardTypeId].notStoreOrBonus == 0, \"Only cards from store can be minted\");\n        require(block.timestamp >= storeReleaseTime[_cardTypeId], \"Card not released from shop\");\n        require(allCardTypes[_cardTypeId].totalAvailable >= (cardTypeToEdition[_cardTypeId]+1),\n        \"All of these cards have been minted\");\n        require(cardTypesOwned[_msgSender()][_cardTypeId] == false, \"You have already minted this type\");\n        require(allCardTypes[_cardTypeId].weiCost == 0, \"You are attempting to mint a paid type\");\n        uint myZooms = ZoomToken(zoomTokenContract).balanceOf(_msgSender());\n        uint zoomCost = ZOOM_BASE_COST * (10*allCardTypes[_cardTypeId].unlockZoom);\n        require(myZooms >= allCardTypes[_cardTypeId].unlockZoom || msg.value >= zoomCost,\n        \"You do not have the required Zoom balance Or MOVR equivalent\");\n\n        //ALL CLEAR ???????? claim and mint new card\n        mintZoombieNFT(_cardTypeId);\n    }\n\n    function sacrificeNFTs(uint256[] memory _tokenIds) external {\n\n        require(_tokenIds.length <= 256, \"List of tokens to sacrifice must be less than 257 at a time\");\n\n        uint256 sacZoom = 0;\n        for (uint i=0; i < _tokenIds.length; i++) {\n            burn(_tokenIds[i]); //ensure owner before we roll other data\n\n            uint16 _tempCTiD = nfts[_tokenIds[i]].cardTypeId;\n            tokensByRarity[allCardTypes[_tempCTiD].rarity] -= 1;\n            sacZoom += allCardTypes[_tempCTiD].sacrificeZoom;\n            delete (nfts[_tokenIds[i]]);\n            emit LogSacrificeNFT(_msgSender(), _tokenIds[i], _tempCTiD, allCardTypes[_tempCTiD].sacrificeZoom);\n        }\n\n        awardZoom(_msgSender(), sacZoom);\n        rewardAffiliate(sacZoom);\n    }\n\n    //every 8 hours, the address can get 2 free booster cards\n    function getBonusBoosters(address _player) external {\n        require(block.timestamp >= getTimeToDailyBonus(_player), \"Can't claim before time to claim next bonus\");\n\n        //Stop re-entrancy, update the lastpull value\n        timeToCardsPull[_player] = block.timestamp + 8 hours;\n\n        // add the boosters and emit event\n        boosterCreditsOwned[_player] += 2;\n        emit LogDailyReward(_player, boosterCreditsOwned[_player]);\n    }\n\n    function linkMySponsor(address _mySponsor) external {\n        require(_mySponsor != address(0), \"Send a valid sponsor wallet\");\n        require(sponsors[_msgSender()] == address(0), \"You have already linked a sponsor\");\n        require(_msgSender() != _mySponsor, \"You cannot sponsor yourself\");\n\n        //All clear?  stop re-entrancy, set the association\n        sponsors[_msgSender()] = _mySponsor;\n\n        //Mint the Platinum Sponsor Card\n        pullCard(2);\n    }\n\n    function buyBoosterCredits(uint _amount) external payable returns(bool) {\n        require(msg.value >= (weiCostOfBooster * _amount), \"Cost to buy 1 Booster NFT credit is 0.01\");\n\n        //All good increase the number owned\n        boosterCreditsOwned[_msgSender()] += _amount;\n\n        //Award czxp for booster\n        awardZoom(_msgSender(), (zoomGainedPerBoosterCredit * _amount));\n        rewardAffiliate(zoomGainedPerBoosterCredit * _amount);\n\n        return true;\n    }\n\n    function buyBoosterAndMintNFT() external payable returns(bool) {\n        require(msg.value >= weiCostOfBooster, \"Cost to buy and mint a Booster NFT is 0.01\");\n\n        //Award zoom per pack\n        awardZoom(_msgSender(), zoomGainedPerBoosterCredit);\n        rewardAffiliate(zoomGainedPerBoosterCredit);\n\n        //Pull the card\n        uint8 rarity = getRarity(0);\n        while (pullCard(rarity) == false) {\n            pullCard(rarity);\n        }\n\n        //Send a log event\n        emit LogPackOpened(_msgSender(), rarity);\n        return true;\n    }\n\n    function mintBoosterNFT(uint zoomWager) external returns(bool) {\n        require(boosterCreditsOwned[_msgSender()] > 0, \"No Booster credits owned\");\n        require(zoomWager == 0 || zoomWager >= 1000000, \"Wager must be 0 or higher than 1000000\");\n\n        //STOP re-entrancy , decrement number of credits\n        boosterCreditsOwned[_msgSender()] -= 1;\n\n        //Pull the card\n        uint8 rarity = getRarity(zoomWager);\n        while (pullCard(rarity) == false) {\n            pullCard(rarity);\n        }\n\n        //Send a log event\n        emit LogPackOpened(_msgSender(), rarity);\n        return true;\n    }\n\n    function awardBoosterCredits(address _winner, uint8 _amount) external onlyOwner returns(bool) {\n\n        //Check max. for Universe\n        require((totalBoostersRewarded + _amount) <= maxBoostersRewards,\n        \"Reached max. number of Booster credit rewards\");\n\n        totalBoostersRewarded += _amount;\n        boosterCreditsOwned[_winner] += _amount;\n        emit LogRewardBoosters(_winner, _amount);\n        return true;\n    }\n\n    function supportsInterface(bytes4 interfaceId)\n        public\n        view\n        override(ERC721, ERC721Enumerable)\n        returns (bool)\n    {\n        return super.supportsInterface(interfaceId);\n    }\n\n    function getTimeToDailyBonus(address _player) public view returns(uint256 timeStamp) {\n\n        //check if address exists\n        if (timeToCardsPull[_player] == 0) {\n            return block.timestamp - 2 seconds;\n        }else {\n            return timeToCardsPull[_player];\n        }\n    }\n\n    /**\n     * Withdraw balance to wallet\n     */\n    function withdraw() public onlyOwner returns(bool) {\n        payable(_msgSender()).transfer(address(this).balance);\n        return true;\n    }\n\n    function _baseURI() internal view virtual override returns (string memory) {\n        return _baseTokenURI;\n    }\n\n    function _beforeTokenTransfer(address from, address to, uint256 tokenId)\n        internal\n        whenNotPaused\n        override(ERC721, ERC721Enumerable)\n    {\n        super._beforeTokenTransfer(from, to, tokenId);\n    }\n\n//Private\n    function pullCard(uint8 _rarity) private returns (bool) {\n\n        //Get a random number for the card to pull\n        uint256 rand = selectRandom(allBoosterCardIds[_rarity].length);\n\n        //hit up the cardTypes\n        uint16 _pulledId = allBoosterCardIds[_rarity][rand];\n        if\n            (allCardTypes[_pulledId].totalAvailable > 0 && //test for limited edition boosters\n            (cardTypeToEdition[_pulledId]+1) > allCardTypes[_pulledId].totalAvailable) {\n                return false;\n            }\n\n        //Give the player this cardType\n        mintZoombieNFT(_pulledId);\n        return true;\n    }\n\n    function mintZoombieNFT(uint16 _cardTypeId) private {\n        //Stop re-entrancy, Track the type of card puchased for this owner, so they cant buy again\n        cardTypesOwned[_msgSender()][_cardTypeId] = true;\n\n        //Let the world award our friend\n        awardZoom(_msgSender(), allCardTypes[_cardTypeId].buyZoom);\n        //reward the sponsor\n        rewardAffiliate(allCardTypes[_cardTypeId].buyZoom);\n\n        cardTypeToEdition[_cardTypeId] += 1;\n\n        _tokenIdCounter.increment();\n        uint256 _newTokenId = _tokenIdCounter.current();\n\n        //now mint the NFT\n        _safeMint(_msgSender(), _newTokenId);\n\n        //Create the NFT data on chain!\n        NFTdata memory _tempCard = NFTdata({\n            cardTypeId:_cardTypeId,\n            editionNumber:cardTypeToEdition[_cardTypeId]\n        });\n        nfts[_newTokenId] = _tempCard;\n\n        tokensByRarity[allCardTypes[_cardTypeId].rarity] += 1;\n\n        emit LogCardMinted(_msgSender(), _newTokenId, _tempCard.cardTypeId, _tempCard.editionNumber);\n    }\n\n    /**\n     * We always pay our affiliates 20% of the zoom commission\n     */\n    function rewardAffiliate(uint _totalZoom) private {\n        //first check if the caller has a sponsor\n        if (sponsors[_msgSender()] != address(0)) {\n            uint reward = _totalZoom / 5;\n            if (reward == 0) {\n                reward = 1;\n            }\n            awardZoom(sponsors[_msgSender()], reward);\n            emit LogSponsorReward(sponsors[_msgSender()], _msgSender(), reward);\n        }\n    }\n}\n",
  "sourcePath": "/home/ryanpricelondon/Zoombies/contracts/Zoombies.sol",
  "compiler": {
    "name": "solc",
    "version": "0.8.4+commit.c7e474f2.Emscripten.clang"
  },
  "schemaVersion": "3.4.0",
  "updatedAt": "2021-08-13T22:17:46.059Z",
  "networkType": "ethereum",
  "devdoc": {
    "kind": "dev",
    "methods": {
      "approve(address,uint256)": {
        "details": "See {IERC721-approve}."
      },
      "balanceOf(address)": {
        "details": "See {IERC721-balanceOf}."
      },
      "burn(uint256)": {
        "details": "Burns `tokenId`. See {ERC721-_burn}. Requirements: - The caller must own `tokenId` or be an approved operator."
      },
      "getApproved(uint256)": {
        "details": "See {IERC721-getApproved}."
      },
      "isApprovedForAll(address,address)": {
        "details": "See {IERC721-isApprovedForAll}."
      },
      "name()": {
        "details": "See {IERC721Metadata-name}."
      },
      "owner()": {
        "details": "Returns the address of the current owner."
      },
      "ownerOf(uint256)": {
        "details": "See {IERC721-ownerOf}."
      },
      "paused()": {
        "details": "Returns true if the contract is paused, and false otherwise."
      },
      "renounceOwnership()": {
        "details": "Leaves the contract without owner. It will not be possible to call `onlyOwner` functions anymore. Can only be called by the current owner. NOTE: Renouncing ownership will leave the contract without an owner, thereby removing any functionality that is only available to the owner."
      },
      "safeTransferFrom(address,address,uint256)": {
        "details": "See {IERC721-safeTransferFrom}."
      },
      "safeTransferFrom(address,address,uint256,bytes)": {
        "details": "See {IERC721-safeTransferFrom}."
      },
      "setApprovalForAll(address,bool)": {
        "details": "See {IERC721-setApprovalForAll}."
      },
      "symbol()": {
        "details": "See {IERC721Metadata-symbol}."
      },
      "tokenByIndex(uint256)": {
        "details": "See {IERC721Enumerable-tokenByIndex}."
      },
      "tokenOfOwnerByIndex(address,uint256)": {
        "details": "See {IERC721Enumerable-tokenOfOwnerByIndex}."
      },
      "tokenURI(uint256)": {
        "details": "See {IERC721Metadata-tokenURI}."
      },
      "totalSupply()": {
        "details": "See {IERC721Enumerable-totalSupply}."
      },
      "transferFrom(address,address,uint256)": {
        "details": "See {IERC721-transferFrom}."
      },
      "transferOwnership(address)": {
        "details": "Transfers ownership of the contract to a new account (`newOwner`). Can only be called by the current owner."
      }
    },
    "version": 1
  },
  "userdoc": {
    "kind": "user",
    "methods": {
      "withdraw()": {
        "notice": "Withdraw balance to wallet"
      }
    },
    "version": 1
  }
}