{
  "contractName": "Zoombies",
  "abi": [
    {
      "inputs": [
        {
          "internalType": "address",
          "name": "_zoomTokenContract",
          "type": "address"
        }
      ],
      "stateMutability": "nonpayable",
      "type": "constructor"
    },
    {
      "anonymous": false,
      "inputs": [
        {
          "indexed": true,
          "internalType": "address",
          "name": "owner",
          "type": "address"
        },
        {
          "indexed": true,
          "internalType": "address",
          "name": "approved",
          "type": "address"
        },
        {
          "indexed": true,
          "internalType": "uint256",
          "name": "tokenId",
          "type": "uint256"
        }
      ],
      "name": "Approval",
      "type": "event"
    },
    {
      "anonymous": false,
      "inputs": [
        {
          "indexed": true,
          "internalType": "address",
          "name": "owner",
          "type": "address"
        },
        {
          "indexed": true,
          "internalType": "address",
          "name": "operator",
          "type": "address"
        },
        {
          "indexed": false,
          "internalType": "bool",
          "name": "approved",
          "type": "bool"
        }
      ],
      "name": "ApprovalForAll",
      "type": "event"
    },
    {
      "anonymous": false,
      "inputs": [
        {
          "indexed": true,
          "internalType": "address",
          "name": "buyer",
          "type": "address"
        },
        {
          "indexed": false,
          "internalType": "uint256",
          "name": "tokenId",
          "type": "uint256"
        },
        {
          "indexed": true,
          "internalType": "uint32",
          "name": "cardTypeId",
          "type": "uint32"
        },
        {
          "indexed": false,
          "internalType": "uint256",
          "name": "editionNumber",
          "type": "uint256"
        }
      ],
      "name": "LogCardMinted",
      "type": "event"
    },
    {
      "anonymous": false,
      "inputs": [
        {
          "indexed": true,
          "internalType": "uint32",
          "name": "cardTypeId",
          "type": "uint32"
        },
        {
          "indexed": false,
          "internalType": "string",
          "name": "cardName",
          "type": "string"
        },
        {
          "indexed": false,
          "internalType": "uint256",
          "name": "editionTotal",
          "type": "uint256"
        }
      ],
      "name": "LogCardTypeLoaded",
      "type": "event"
    },
    {
      "anonymous": false,
      "inputs": [
        {
          "indexed": false,
          "internalType": "address",
          "name": "player",
          "type": "address"
        },
        {
          "indexed": false,
          "internalType": "uint256",
          "name": "newBoosterBalance",
          "type": "uint256"
        }
      ],
      "name": "LogDailyReward",
      "type": "event"
    },
    {
      "anonymous": false,
      "inputs": [
        {
          "indexed": true,
          "internalType": "address",
          "name": "buyer",
          "type": "address"
        },
        {
          "indexed": false,
          "internalType": "uint8",
          "name": "rarity",
          "type": "uint8"
        }
      ],
      "name": "LogPackOpened",
      "type": "event"
    },
    {
      "anonymous": false,
      "inputs": [
        {
          "indexed": false,
          "internalType": "address",
          "name": "winner",
          "type": "address"
        },
        {
          "indexed": false,
          "internalType": "uint256",
          "name": "boostersAwarded",
          "type": "uint256"
        }
      ],
      "name": "LogRewardBoosters",
      "type": "event"
    },
    {
      "anonymous": false,
      "inputs": [
        {
          "indexed": false,
          "internalType": "address",
          "name": "owner",
          "type": "address"
        },
        {
          "indexed": false,
          "internalType": "uint256",
          "name": "tokenId",
          "type": "uint256"
        },
        {
          "indexed": false,
          "internalType": "uint16",
          "name": "cardTypeId",
          "type": "uint16"
        },
        {
          "indexed": false,
          "internalType": "uint256",
          "name": "zoomGained",
          "type": "uint256"
        }
      ],
      "name": "LogSacrificeNFT",
      "type": "event"
    },
    {
      "anonymous": false,
      "inputs": [
        {
          "indexed": false,
          "internalType": "address",
          "name": "sponsor",
          "type": "address"
        },
        {
          "indexed": false,
          "internalType": "address",
          "name": "affiliate",
          "type": "address"
        }
      ],
      "name": "LogSponsorLinked",
      "type": "event"
    },
    {
      "anonymous": false,
      "inputs": [
        {
          "indexed": false,
          "internalType": "address",
          "name": "sponsor",
          "type": "address"
        },
        {
          "indexed": false,
          "internalType": "address",
          "name": "affiliate",
          "type": "address"
        },
        {
          "indexed": false,
          "internalType": "uint256",
          "name": "zoomReward",
          "type": "uint256"
        }
      ],
      "name": "LogSponsorReward",
      "type": "event"
    },
    {
      "anonymous": false,
      "inputs": [
        {
          "indexed": true,
          "internalType": "address",
          "name": "previousOwner",
          "type": "address"
        },
        {
          "indexed": true,
          "internalType": "address",
          "name": "newOwner",
          "type": "address"
        }
      ],
      "name": "OwnershipTransferred",
      "type": "event"
    },
    {
      "anonymous": false,
      "inputs": [
        {
          "indexed": false,
          "internalType": "address",
          "name": "account",
          "type": "address"
        }
      ],
      "name": "Paused",
      "type": "event"
    },
    {
      "anonymous": false,
      "inputs": [
        {
          "indexed": true,
          "internalType": "address",
          "name": "from",
          "type": "address"
        },
        {
          "indexed": true,
          "internalType": "address",
          "name": "to",
          "type": "address"
        },
        {
          "indexed": true,
          "internalType": "uint256",
          "name": "tokenId",
          "type": "uint256"
        }
      ],
      "name": "Transfer",
      "type": "event"
    },
    {
      "anonymous": false,
      "inputs": [
        {
          "indexed": false,
          "internalType": "address",
          "name": "account",
          "type": "address"
        }
      ],
      "name": "Unpaused",
      "type": "event"
    },
    {
      "inputs": [
        {
          "internalType": "uint256",
          "name": "",
          "type": "uint256"
        }
      ],
      "name": "NFTs",
      "outputs": [
        {
          "internalType": "uint16",
          "name": "cardTypeId",
          "type": "uint16"
        },
        {
          "internalType": "uint256",
          "name": "editionNumber",
          "type": "uint256"
        }
      ],
      "stateMutability": "view",
      "type": "function",
      "constant": true
    },
    {
      "inputs": [
        {
          "internalType": "uint8",
          "name": "",
          "type": "uint8"
        },
        {
          "internalType": "uint256",
          "name": "",
          "type": "uint256"
        }
      ],
      "name": "allBoosterCardIds",
      "outputs": [
        {
          "internalType": "uint16",
          "name": "",
          "type": "uint16"
        }
      ],
      "stateMutability": "view",
      "type": "function",
      "constant": true
    },
    {
      "inputs": [
        {
          "internalType": "uint16",
          "name": "",
          "type": "uint16"
        }
      ],
      "name": "allCardTypes",
      "outputs": [
        {
          "internalType": "uint16",
          "name": "cardTypeId",
          "type": "uint16"
        },
        {
          "internalType": "string",
          "name": "name",
          "type": "string"
        },
        {
          "internalType": "string",
          "name": "set",
          "type": "string"
        },
        {
          "internalType": "uint8",
          "name": "assetType",
          "type": "uint8"
        },
        {
          "internalType": "uint8",
          "name": "notStoreOrBonus",
          "type": "uint8"
        },
        {
          "internalType": "uint8",
          "name": "rarity",
          "type": "uint8"
        },
        {
          "internalType": "uint16",
          "name": "totalAvailable",
          "type": "uint16"
        },
        {
          "internalType": "uint256",
          "name": "weiCost",
          "type": "uint256"
        },
        {
          "internalType": "uint256",
          "name": "buyZoom",
          "type": "uint256"
        },
        {
          "internalType": "uint256",
          "name": "sacrificeZoom",
          "type": "uint256"
        },
        {
          "internalType": "uint256",
          "name": "unlockZoom",
          "type": "uint256"
        },
        {
          "internalType": "uint8",
          "name": "cardLevel",
          "type": "uint8"
        }
      ],
      "stateMutability": "view",
      "type": "function",
      "constant": true
    },
    {
      "inputs": [
        {
          "internalType": "address",
          "name": "to",
          "type": "address"
        },
        {
          "internalType": "uint256",
          "name": "tokenId",
          "type": "uint256"
        }
      ],
      "name": "approve",
      "outputs": [],
      "stateMutability": "nonpayable",
      "type": "function"
    },
    {
      "inputs": [
        {
          "internalType": "address",
          "name": "owner",
          "type": "address"
        }
      ],
      "name": "balanceOf",
      "outputs": [
        {
          "internalType": "uint256",
          "name": "",
          "type": "uint256"
        }
      ],
      "stateMutability": "view",
      "type": "function",
      "constant": true
    },
    {
      "inputs": [
        {
          "internalType": "address",
          "name": "",
          "type": "address"
        }
      ],
      "name": "boosterCreditsOwned",
      "outputs": [
        {
          "internalType": "uint256",
          "name": "",
          "type": "uint256"
        }
      ],
      "stateMutability": "view",
      "type": "function",
      "constant": true
    },
    {
      "inputs": [
        {
          "internalType": "uint256",
          "name": "tokenId",
          "type": "uint256"
        }
      ],
      "name": "burn",
      "outputs": [],
      "stateMutability": "nonpayable",
      "type": "function"
    },
    {
      "inputs": [
        {
          "internalType": "uint16",
          "name": "",
          "type": "uint16"
        }
      ],
      "name": "cardTypeToEdition",
      "outputs": [
        {
          "internalType": "uint256",
          "name": "",
          "type": "uint256"
        }
      ],
      "stateMutability": "view",
      "type": "function",
      "constant": true
    },
    {
      "inputs": [
        {
          "internalType": "address",
          "name": "",
          "type": "address"
        },
        {
          "internalType": "uint16",
          "name": "",
          "type": "uint16"
        }
      ],
      "name": "cardTypesOwned",
      "outputs": [
        {
          "internalType": "bool",
          "name": "",
          "type": "bool"
        }
      ],
      "stateMutability": "view",
      "type": "function",
      "constant": true
    },
    {
      "inputs": [
        {
          "internalType": "uint256",
          "name": "tokenId",
          "type": "uint256"
        }
      ],
      "name": "getApproved",
      "outputs": [
        {
          "internalType": "address",
          "name": "",
          "type": "address"
        }
      ],
      "stateMutability": "view",
      "type": "function",
      "constant": true
    },
    {
      "inputs": [
        {
          "internalType": "uint256",
          "name": "_tokenId",
          "type": "uint256"
        }
      ],
      "name": "getNFTData",
      "outputs": [
        {
          "internalType": "uint16",
          "name": "",
          "type": "uint16"
        },
        {
          "internalType": "uint256",
          "name": "",
          "type": "uint256"
        }
      ],
      "stateMutability": "view",
      "type": "function",
      "constant": true
    },
    {
      "inputs": [],
      "name": "getTokensByRarity",
      "outputs": [
        {
          "internalType": "uint256",
          "name": "",
          "type": "uint256"
        },
        {
          "internalType": "uint256",
          "name": "",
          "type": "uint256"
        },
        {
          "internalType": "uint256",
          "name": "",
          "type": "uint256"
        },
        {
          "internalType": "uint256",
          "name": "",
          "type": "uint256"
        },
        {
          "internalType": "uint256",
          "name": "",
          "type": "uint256"
        },
        {
          "internalType": "uint256",
          "name": "",
          "type": "uint256"
        }
      ],
      "stateMutability": "view",
      "type": "function",
      "constant": true
    },
    {
      "inputs": [
        {
          "internalType": "address",
          "name": "owner",
          "type": "address"
        },
        {
          "internalType": "address",
          "name": "operator",
          "type": "address"
        }
      ],
      "name": "isApprovedForAll",
      "outputs": [
        {
          "internalType": "bool",
          "name": "",
          "type": "bool"
        }
      ],
      "stateMutability": "view",
      "type": "function",
      "constant": true
    },
    {
      "inputs": [
        {
          "internalType": "uint16",
          "name": "_cardTypeId",
          "type": "uint16"
        },
        {
          "internalType": "string",
          "name": "_name",
          "type": "string"
        },
        {
          "internalType": "string",
          "name": "_set",
          "type": "string"
        },
        {
          "internalType": "uint8",
          "name": "_assetType",
          "type": "uint8"
        },
        {
          "internalType": "uint8",
          "name": "_notStoreOrBonus",
          "type": "uint8"
        },
        {
          "internalType": "uint8",
          "name": "_rarity",
          "type": "uint8"
        },
        {
          "internalType": "uint16",
          "name": "_totalAvailable",
          "type": "uint16"
        },
        {
          "internalType": "uint256",
          "name": "_weiCost",
          "type": "uint256"
        },
        {
          "internalType": "uint256",
          "name": "_buyZoom",
          "type": "uint256"
        },
        {
          "internalType": "uint256",
          "name": "_sacrificeZoom",
          "type": "uint256"
        },
        {
          "internalType": "uint256",
          "name": "_unlockZoom",
          "type": "uint256"
        },
        {
          "internalType": "uint8",
          "name": "_cardLevel",
          "type": "uint8"
        }
      ],
      "name": "loadNewCardType",
      "outputs": [],
      "stateMutability": "nonpayable",
      "type": "function"
    },
    {
      "inputs": [],
      "name": "maxBoostersRewards",
      "outputs": [
        {
          "internalType": "uint16",
          "name": "",
          "type": "uint16"
        }
      ],
      "stateMutability": "view",
      "type": "function",
      "constant": true
    },
    {
      "inputs": [],
      "name": "maxCardTypes",
      "outputs": [
        {
          "internalType": "uint16",
          "name": "",
          "type": "uint16"
        }
      ],
      "stateMutability": "view",
      "type": "function",
      "constant": true
    },
    {
      "inputs": [],
      "name": "name",
      "outputs": [
        {
          "internalType": "string",
          "name": "",
          "type": "string"
        }
      ],
      "stateMutability": "view",
      "type": "function",
      "constant": true
    },
    {
      "inputs": [],
      "name": "owner",
      "outputs": [
        {
          "internalType": "address",
          "name": "",
          "type": "address"
        }
      ],
      "stateMutability": "view",
      "type": "function",
      "constant": true
    },
    {
      "inputs": [
        {
          "internalType": "uint256",
          "name": "tokenId",
          "type": "uint256"
        }
      ],
      "name": "ownerOf",
      "outputs": [
        {
          "internalType": "address",
          "name": "",
          "type": "address"
        }
      ],
      "stateMutability": "view",
      "type": "function",
      "constant": true
    },
    {
      "inputs": [],
      "name": "paused",
      "outputs": [
        {
          "internalType": "bool",
          "name": "",
          "type": "bool"
        }
      ],
      "stateMutability": "view",
      "type": "function",
      "constant": true
    },
    {
      "inputs": [],
      "name": "renounceOwnership",
      "outputs": [],
      "stateMutability": "nonpayable",
      "type": "function"
    },
    {
      "inputs": [
        {
          "internalType": "address",
          "name": "from",
          "type": "address"
        },
        {
          "internalType": "address",
          "name": "to",
          "type": "address"
        },
        {
          "internalType": "uint256",
          "name": "tokenId",
          "type": "uint256"
        }
      ],
      "name": "safeTransferFrom",
      "outputs": [],
      "stateMutability": "nonpayable",
      "type": "function"
    },
    {
      "inputs": [
        {
          "internalType": "address",
          "name": "from",
          "type": "address"
        },
        {
          "internalType": "address",
          "name": "to",
          "type": "address"
        },
        {
          "internalType": "uint256",
          "name": "tokenId",
          "type": "uint256"
        },
        {
          "internalType": "bytes",
          "name": "_data",
          "type": "bytes"
        }
      ],
      "name": "safeTransferFrom",
      "outputs": [],
      "stateMutability": "nonpayable",
      "type": "function"
    },
    {
      "inputs": [
        {
          "internalType": "address",
          "name": "operator",
          "type": "address"
        },
        {
          "internalType": "bool",
          "name": "approved",
          "type": "bool"
        }
      ],
      "name": "setApprovalForAll",
      "outputs": [],
      "stateMutability": "nonpayable",
      "type": "function"
    },
    {
      "inputs": [
        {
          "internalType": "uint16",
          "name": "_cardTypeId",
          "type": "uint16"
        },
        {
          "internalType": "uint256",
          "name": "_hoursFromNow",
          "type": "uint256"
        }
      ],
      "name": "setStoreRelease",
      "outputs": [],
      "stateMutability": "nonpayable",
      "type": "function"
    },
    {
      "inputs": [
        {
          "internalType": "address",
          "name": "",
          "type": "address"
        }
      ],
      "name": "sponsors",
      "outputs": [
        {
          "internalType": "address",
          "name": "",
          "type": "address"
        }
      ],
      "stateMutability": "view",
      "type": "function",
      "constant": true
    },
    {
      "inputs": [
        {
          "internalType": "uint16",
          "name": "",
          "type": "uint16"
        }
      ],
      "name": "storeReleaseTime",
      "outputs": [
        {
          "internalType": "uint256",
          "name": "",
          "type": "uint256"
        }
      ],
      "stateMutability": "view",
      "type": "function",
      "constant": true
    },
    {
      "inputs": [],
      "name": "symbol",
      "outputs": [
        {
          "internalType": "string",
          "name": "",
          "type": "string"
        }
      ],
      "stateMutability": "view",
      "type": "function",
      "constant": true
    },
    {
      "inputs": [
        {
          "internalType": "uint256",
          "name": "index",
          "type": "uint256"
        }
      ],
      "name": "tokenByIndex",
      "outputs": [
        {
          "internalType": "uint256",
          "name": "",
          "type": "uint256"
        }
      ],
      "stateMutability": "view",
      "type": "function",
      "constant": true
    },
    {
      "inputs": [
        {
          "internalType": "address",
          "name": "owner",
          "type": "address"
        },
        {
          "internalType": "uint256",
          "name": "index",
          "type": "uint256"
        }
      ],
      "name": "tokenOfOwnerByIndex",
      "outputs": [
        {
          "internalType": "uint256",
          "name": "",
          "type": "uint256"
        }
      ],
      "stateMutability": "view",
      "type": "function",
      "constant": true
    },
    {
      "inputs": [
        {
          "internalType": "uint256",
          "name": "tokenId",
          "type": "uint256"
        }
      ],
      "name": "tokenURI",
      "outputs": [
        {
          "internalType": "string",
          "name": "",
          "type": "string"
        }
      ],
      "stateMutability": "view",
      "type": "function",
      "constant": true
    },
    {
      "inputs": [
        {
          "internalType": "uint256",
          "name": "",
          "type": "uint256"
        }
      ],
      "name": "tokensByRarity",
      "outputs": [
        {
          "internalType": "uint256",
          "name": "",
          "type": "uint256"
        }
      ],
      "stateMutability": "view",
      "type": "function",
      "constant": true
    },
    {
      "inputs": [],
      "name": "totalBoostersRewarded",
      "outputs": [
        {
          "internalType": "uint16",
          "name": "",
          "type": "uint16"
        }
      ],
      "stateMutability": "view",
      "type": "function",
      "constant": true
    },
    {
      "inputs": [],
      "name": "totalCardTypes",
      "outputs": [
        {
          "internalType": "uint16",
          "name": "",
          "type": "uint16"
        }
      ],
      "stateMutability": "view",
      "type": "function",
      "constant": true
    },
    {
      "inputs": [],
      "name": "totalSupply",
      "outputs": [
        {
          "internalType": "uint256",
          "name": "",
          "type": "uint256"
        }
      ],
      "stateMutability": "view",
      "type": "function",
      "constant": true
    },
    {
      "inputs": [
        {
          "internalType": "address",
          "name": "from",
          "type": "address"
        },
        {
          "internalType": "address",
          "name": "to",
          "type": "address"
        },
        {
          "internalType": "uint256",
          "name": "tokenId",
          "type": "uint256"
        }
      ],
      "name": "transferFrom",
      "outputs": [],
      "stateMutability": "nonpayable",
      "type": "function"
    },
    {
      "inputs": [
        {
          "internalType": "address",
          "name": "newOwner",
          "type": "address"
        }
      ],
      "name": "transferOwnership",
      "outputs": [],
      "stateMutability": "nonpayable",
      "type": "function"
    },
    {
      "inputs": [],
      "name": "weiCostOfBooster",
      "outputs": [
        {
          "internalType": "uint256",
          "name": "",
          "type": "uint256"
        }
      ],
      "stateMutability": "view",
      "type": "function",
      "constant": true
    },
    {
      "inputs": [],
      "name": "zoomBaseCost",
      "outputs": [
        {
          "internalType": "uint256",
          "name": "",
          "type": "uint256"
        }
      ],
      "stateMutability": "view",
      "type": "function",
      "constant": true
    },
    {
      "inputs": [],
      "name": "zoomGainedPerBoosterCredit",
      "outputs": [
        {
          "internalType": "uint256",
          "name": "",
          "type": "uint256"
        }
      ],
      "stateMutability": "view",
      "type": "function",
      "constant": true
    },
    {
      "inputs": [],
      "name": "zoomTokenContract",
      "outputs": [
        {
          "internalType": "address",
          "name": "",
          "type": "address"
        }
      ],
      "stateMutability": "view",
      "type": "function",
      "constant": true
    },
    {
      "inputs": [
        {
          "internalType": "bytes4",
          "name": "interfaceId",
          "type": "bytes4"
        }
      ],
      "name": "supportsInterface",
      "outputs": [
        {
          "internalType": "bool",
          "name": "",
          "type": "bool"
        }
      ],
      "stateMutability": "view",
      "type": "function",
      "constant": true
    },
    {
      "inputs": [
        {
          "internalType": "uint16",
          "name": "_cardTypeId",
          "type": "uint16"
        }
      ],
      "name": "buyCard",
      "outputs": [],
      "stateMutability": "payable",
      "type": "function",
      "payable": true
    },
    {
      "inputs": [
        {
          "internalType": "uint16",
          "name": "_cardTypeId",
          "type": "uint16"
        }
      ],
      "name": "getFreeCard",
      "outputs": [],
      "stateMutability": "payable",
      "type": "function",
      "payable": true
    },
    {
      "inputs": [
        {
          "internalType": "uint256[]",
          "name": "_tokenIds",
          "type": "uint256[]"
        }
      ],
      "name": "sacrificeNFTs",
      "outputs": [],
      "stateMutability": "nonpayable",
      "type": "function"
    },
    {
      "inputs": [
        {
          "internalType": "address",
          "name": "_player",
          "type": "address"
        }
      ],
      "name": "getBonusBoosters",
      "outputs": [],
      "stateMutability": "nonpayable",
      "type": "function"
    },
    {
      "inputs": [
        {
          "internalType": "address",
          "name": "_player",
          "type": "address"
        }
      ],
      "name": "getTimeToDailyBonus",
      "outputs": [
        {
          "internalType": "uint256",
          "name": "timeStamp",
          "type": "uint256"
        }
      ],
      "stateMutability": "view",
      "type": "function",
      "constant": true
    },
    {
      "inputs": [
        {
          "internalType": "address",
          "name": "_mySponsor",
          "type": "address"
        }
      ],
      "name": "linkMySponsor",
      "outputs": [],
      "stateMutability": "nonpayable",
      "type": "function"
    },
    {
      "inputs": [
        {
          "internalType": "uint256",
          "name": "_amount",
          "type": "uint256"
        }
      ],
      "name": "buyBoosterCredits",
      "outputs": [
        {
          "internalType": "bool",
          "name": "",
          "type": "bool"
        }
      ],
      "stateMutability": "payable",
      "type": "function",
      "payable": true
    },
    {
      "inputs": [],
      "name": "buyBoosterAndMintNFT",
      "outputs": [
        {
          "internalType": "bool",
          "name": "",
          "type": "bool"
        }
      ],
      "stateMutability": "payable",
      "type": "function",
      "payable": true
    },
    {
      "inputs": [
        {
          "internalType": "uint256",
          "name": "zoomWager",
          "type": "uint256"
        }
      ],
      "name": "mintBoosterNFT",
      "outputs": [
        {
          "internalType": "bool",
          "name": "",
          "type": "bool"
        }
      ],
      "stateMutability": "nonpayable",
      "type": "function"
    },
    {
      "inputs": [
        {
          "internalType": "address",
          "name": "_winner",
          "type": "address"
        },
        {
          "internalType": "uint8",
          "name": "_amount",
          "type": "uint8"
        }
      ],
      "name": "awardBoosterCredits",
      "outputs": [
        {
          "internalType": "bool",
          "name": "",
          "type": "bool"
        }
      ],
      "stateMutability": "nonpayable",
      "type": "function"
    },
    {
      "inputs": [],
      "name": "withdraw",
      "outputs": [
        {
          "internalType": "bool",
          "name": "",
          "type": "bool"
        }
      ],
      "stateMutability": "nonpayable",
      "type": "function"
    }
  ],
  "bytecode": "0x600e805461ffff191690556101606040526000608081815260a082905260c082905260e08290526101008290526101208290526101409190915262000049906010906007620001fa565b506003601a5566071afd498d000060205560786021556022805463ffffffff191661c3501790553480156200007d57600080fd5b506040516200514238038062005142833981016040819052620000a091620002d6565b60408051808201825260088152675a6f6f6d6269657360c01b6020808301918252835180850190945260078452665a6f6f6d62696560c81b908401528151919291620000ef9160009162000242565b5080516200010590600190602084019062000242565b50505060006200011a620001f660201b60201c565b600a80546001600160a01b0319166001600160a01b038316908117909155604051919250906000907f8be0079c531659141344cd1fd0a4f28419497f9722a3daafe3b4186f6b6457e0908290a350600a805460ff60a01b191690556001600160a01b0381166200018957600080fd5b60408051808201909152601b8082527f68747470733a2f2f7a6f6f6d626965732e776f726c642f6e66742f00000000006020909201918252620001cf91601c9162000242565b50600b80546001600160a01b0319166001600160a01b039290921691909117905562000343565b3390565b826007810192821562000230579160200282015b8281111562000230578251829060ff169055916020019190600101906200020e565b506200023e929150620002bf565b5090565b828054620002509062000306565b90600052602060002090601f01602090048101928262000274576000855562000230565b82601f106200028f57805160ff191683800117855562000230565b8280016001018555821562000230579182015b8281111562000230578251825591602001919060010190620002a2565b5b808211156200023e5760008155600101620002c0565b600060208284031215620002e8578081fd5b81516001600160a01b0381168114620002ff578182fd5b9392505050565b600181811c908216806200031b57607f821691505b602082108114156200033d57634e487b7160e01b600052602260045260246000fd5b50919050565b614def80620003536000396000f3fe60806040526004361061031a5760003560e01c8063715018a6116101ab578063b88d4fde116100f7578063ef73cc6611610095578063f6856f181161006f578063f6856f1814610a00578063f8ae951114610a21578063f902803514610a41578063f93a0b3414610a5457600080fd5b8063ef73cc6614610993578063f2fde38b146109b3578063f34d7007146109d357600080fd5b8063d35590c2116100d1578063d35590c2146108c9578063d7272116146108ff578063e985e9c514610937578063ed6ae3b81461098057600080fd5b8063b88d4fde14610869578063c87b56dd14610889578063cc99b5cd146108a957600080fd5b8063a22cb46511610164578063aec29b8b1161013e578063aec29b8b146107ba578063afa61541146107f5578063b7e357a614610841578063b86709ca1461084957600080fd5b8063a22cb4651461074c578063a3c0b95b1461076c578063ae4cf492146107a757600080fd5b8063715018a6146106a45780637a93696a146106b95780638da5cb5b146106d9578063912fdfcb146106f757806395d89b4114610717578063993011d91461072c57600080fd5b806323b872dd1161026a5780634d3e2e5e116102235780636258cb16116101fd5780636258cb161461061e5780636352211e146106375780636501139a1461065757806370a082311461068457600080fd5b80634d3e2e5e146105bf5780634f6ccce7146105df5780635c975abb146105ff57600080fd5b806323b872dd146105145780632f745c591461053457806333d87d73146105545780633ccfd60b1461056a57806342842e0e1461057f57806342966c681461059f57600080fd5b80630ad4c4f4116102d757806316f73cde116102b157806316f73cde1461049c57806318160ddd146104c957806318b51885146104de5780631db18cf9146104fe57600080fd5b80630ad4c4f4146104145780630ef635091461044e57806312a1bf581461047c57600080fd5b806301ffc9a71461031f57806303666a851461035457806306fdde0314610378578063073024481461039a578063081812fc146103bc578063095ea7b3146103f4575b600080fd5b34801561032b57600080fd5b5061033f61033a36600461465d565b610a6f565b60405190151581526020015b60405180910390f35b34801561036057600080fd5b5061036a60215481565b60405190815260200161034b565b34801561038457600080fd5b5061038d610a80565b60405161034b91906148a4565b3480156103a657600080fd5b506103ba6103b5366004614400565b610b12565b005b3480156103c857600080fd5b506103dc6103d73660046147c1565b610c34565b6040516001600160a01b03909116815260200161034b565b34801561040057600080fd5b506103ba61040f366004614563565b610cc9565b34801561042057600080fd5b5061043461042f3660046147c1565b610ddf565b6040805161ffff909316835260208301919091520161034b565b34801561045a57600080fd5b50600e546104699061ffff1681565b60405161ffff909116815260200161034b565b34801561048857600080fd5b506103ba6104973660046145b5565b610e23565b3480156104a857600080fd5b5061036a6104b7366004614695565b600f6020526000908152604090205481565b3480156104d557600080fd5b5060085461036a565b3480156104ea57600080fd5b50600b546103dc906001600160a01b031681565b34801561050a57600080fd5b5061036a60205481565b34801561052057600080fd5b506103ba61052f36600461444c565b61109f565b34801561054057600080fd5b5061036a61054f366004614563565b6110d1565b34801561056057600080fd5b5061046961138881565b34801561057657600080fd5b5061033f611167565b34801561058b57600080fd5b506103ba61059a36600461444c565b6111c8565b3480156105ab57600080fd5b506103ba6105ba3660046147c1565b6111e3565b3480156105cb57600080fd5b5061036a6105da3660046147c1565b61125d565b3480156105eb57600080fd5b5061036a6105fa3660046147c1565b611274565b34801561060b57600080fd5b50600a54600160a01b900460ff1661033f565b34801561062a57600080fd5b5061036a64174876e80081565b34801561064357600080fd5b506103dc6106523660046147c1565b611315565b34801561066357600080fd5b5061036a610672366004614400565b601f6020526000908152604090205481565b34801561069057600080fd5b5061036a61069f366004614400565b61138c565b3480156106b057600080fd5b506103ba611413565b3480156106c557600080fd5b5061033f6106d43660046147c1565b611487565b3480156106e557600080fd5b50600a546001600160a01b03166103dc565b34801561070357600080fd5b506103ba610712366004614400565b6115e0565b34801561072357600080fd5b5061038d611731565b34801561073857600080fd5b5061033f61074736600461458c565b611740565b34801561075857600080fd5b506103ba610767366004614500565b6118ba565b34801561077857600080fd5b506104346107873660046147c1565b6019602052600090815260409020805460019091015461ffff9091169082565b6103ba6107b5366004614695565b61197f565b3480156107c657600080fd5b5061033f6107d536600461453a565b601760209081526000928352604080842090915290825290205460ff1681565b34801561080157600080fd5b50601154601254601354601454601554601654604080519687526020870195909552938501929092526060840152608083015260a082015260c00161034b565b61033f611cd6565b34801561085557600080fd5b506103ba6108643660046147a6565b611dbd565b34801561087557600080fd5b506103ba610884366004614487565b611f03565b34801561089557600080fd5b5061038d6108a43660046147c1565b611f3b565b3480156108b557600080fd5b506103ba6108c43660046146af565b612016565b3480156108d557600080fd5b506103dc6108e4366004614400565b601d602052600090815260409020546001600160a01b031681565b34801561090b57600080fd5b5061091f61091a366004614695565b612501565b60405161034b9c9b9a99989796959493929190614a56565b34801561094357600080fd5b5061033f61095236600461441a565b6001600160a01b03918216600090815260056020908152604080832093909416825291909152205460ff1690565b6103ba61098e366004614695565b612680565b34801561099f57600080fd5b506104696109ae3660046147f1565b6129f4565b3480156109bf57600080fd5b506103ba6109ce366004614400565b612a3b565b3480156109df57600080fd5b5061036a6109ee366004614695565b60186020526000908152604090205481565b348015610a0c57600080fd5b506022546104699062010000900461ffff1681565b348015610a2d57600080fd5b5061036a610a3c366004614400565b612b26565b61033f610a4f3660046147c1565b612b6f565b348015610a6057600080fd5b506022546104699061ffff1681565b6000610a7a82612c28565b92915050565b606060008054610a8f90614cb5565b80601f0160208091040260200160405190810160405280929190818152602001828054610abb90614cb5565b8015610b085780601f10610add57610100808354040283529160200191610b08565b820191906000526020600020905b815481529060010190602001808311610aeb57829003601f168201915b5050505050905090565b610b1b81612b26565b4211610b825760405162461bcd60e51b815260206004820152602b60248201527f43616e277420636c61696d206265666f72652074696d6520746f20636c61696d60448201526a206e65787420626f6e757360a81b60648201526084015b60405180910390fd5b610b8e42617080614b39565b6001600160a01b0382166000908152601e6020526040902055610bb2816078612c4d565b6001600160a01b0381166000908152601f60205260408120805460029290610bdb908490614b39565b90915550506001600160a01b0381166000818152601f6020908152604091829020548251938452908301527fdea0c85af515c9fffcca886846213edc28206526b243af2f064b6962032ce185910160405180910390a150565b6000818152600260205260408120546001600160a01b0316610cad5760405162461bcd60e51b815260206004820152602c60248201527f4552433732313a20617070726f76656420717565727920666f72206e6f6e657860448201526b34b9ba32b73a103a37b5b2b760a11b6064820152608401610b79565b506000908152600460205260409020546001600160a01b031690565b6000610cd482611315565b9050806001600160a01b0316836001600160a01b03161415610d425760405162461bcd60e51b815260206004820152602160248201527f4552433732313a20617070726f76616c20746f2063757272656e74206f776e656044820152603960f91b6064820152608401610b79565b336001600160a01b0382161480610d5e5750610d5e8133610952565b610dd05760405162461bcd60e51b815260206004820152603860248201527f4552433732313a20617070726f76652063616c6c6572206973206e6f74206f7760448201527f6e6572206e6f7220617070726f76656420666f7220616c6c00000000000000006064820152608401610b79565b610dda8383612cb7565b505050565b60008181526002602052604081205481906001600160a01b0316610e0257600080fd5b50506000908152601960205260409020805460019091015461ffff90911691565b60ff81511115610e9b5760405162461bcd60e51b815260206004820152603b60248201527f4c697374206f6620746f6b656e7320746f20736163726966696365206d75737460448201527f206265206c657373207468616e2032353520617420612074696d6500000000006064820152608401610b79565b6000805b825181101561108757610ed8838281518110610ecb57634e487b7160e01b600052603260045260246000fd5b60200260200101516111e3565b600060196000858481518110610efe57634e487b7160e01b600052603260045260246000fd5b602090810291909101810151825281810192909252604090810160009081205461ffff16808252600c909352206003015490915060019060109062010000900460ff1660078110610f5f57634e487b7160e01b600052603260045260246000fd5b016000828254610f6f9190614c72565b909155505061ffff81166000908152600c6020526040902060060154610f959084614b39565b925060196000858481518110610fbb57634e487b7160e01b600052603260045260246000fd5b60209081029190910181015182528101919091526040016000908120805461ffff19168155600101557f892362fdae2aa1fec0517f70658abd25f4ea8757b1b0675bce3c84a2425b80b83385848151811061102657634e487b7160e01b600052603260045260246000fd5b60209081029190910181015161ffff85166000818152600c84526040908190206006015481516001600160a01b0390961686529385019290925290830152606082015260800160405180910390a1508061107f81614d12565b915050610e9f565b506110923382612c4d565b61109b81612d25565b5050565b6110aa335b82612ddd565b6110c65760405162461bcd60e51b8152600401610b7990614a05565b610dda838383612ed4565b60006110dc8361138c565b821061113e5760405162461bcd60e51b815260206004820152602b60248201527f455243373231456e756d657261626c653a206f776e657220696e646578206f7560448201526a74206f6620626f756e647360a81b6064820152608401610b79565b506001600160a01b03919091166000908152600660209081526040808320938352929052205490565b600a546000906001600160a01b031633146111945760405162461bcd60e51b8152600401610b79906149d0565b60405133904780156108fc02916000818181858888f193505050501580156111c0573d6000803e3d6000fd5b506001905090565b610dda83838360405180602001604052806000815250611f03565b6111ec336110a4565b6112515760405162461bcd60e51b815260206004820152603060248201527f4552433732314275726e61626c653a2063616c6c6572206973206e6f74206f7760448201526f1b995c881b9bdc88185c1c1c9bdd995960821b6064820152608401610b79565b61125a8161307f565b50565b6010816007811061126d57600080fd5b0154905081565b600061127f60085490565b82106112e25760405162461bcd60e51b815260206004820152602c60248201527f455243373231456e756d657261626c653a20676c6f62616c20696e646578206f60448201526b7574206f6620626f756e647360a01b6064820152608401610b79565b6008828154811061130357634e487b7160e01b600052603260045260246000fd5b90600052602060002001549050919050565b6000818152600260205260408120546001600160a01b031680610a7a5760405162461bcd60e51b815260206004820152602960248201527f4552433732313a206f776e657220717565727920666f72206e6f6e657869737460448201526832b73a103a37b5b2b760b91b6064820152608401610b79565b60006001600160a01b0382166113f75760405162461bcd60e51b815260206004820152602a60248201527f4552433732313a2062616c616e636520717565727920666f7220746865207a65604482015269726f206164647265737360b01b6064820152608401610b79565b506001600160a01b031660009081526003602052604090205490565b600a546001600160a01b0316331461143d5760405162461bcd60e51b8152600401610b79906149d0565b600a546040516000916001600160a01b0316907f8be0079c531659141344cd1fd0a4f28419497f9722a3daafe3b4186f6b6457e0908390a3600a80546001600160a01b0319169055565b336000908152601f60205260408120546114e35760405162461bcd60e51b815260206004820152601860248201527f4e6f20426f6f737465722063726564697473206f776e656400000000000000006044820152606401610b79565b8115806114f357506227ac408210155b61154e5760405162461bcd60e51b815260206004820152602660248201527f5761676572206d7573742062652030206f7220686967686572207468616e203260448201526503630303030360d41b6064820152608401610b79565b336000908152601f6020526040812080546001929061156e908490614c72565b909155506000905061157f83613126565b90505b61158b81613393565b61159e5761159881613393565b50611582565b6040805160ff83168152905133917f9110cd00ebf5075b22eead1dbb6c4f4c5b7bd329bc646333c004dfb9e8c21f0b919081900360200190a250600192915050565b6001600160a01b0381166116365760405162461bcd60e51b815260206004820152601b60248201527f53656e6420612076616c69642073706f6e736f722077616c6c657400000000006044820152606401610b79565b336000908152601d60205260409020546001600160a01b0316156116a65760405162461bcd60e51b815260206004820152602160248201527f596f75206861766520616c7265616479206c696e6b656420612073706f6e736f6044820152603960f91b6064820152608401610b79565b336001600160a01b03821614156116ff5760405162461bcd60e51b815260206004820152601b60248201527f596f752063616e6e6f742073706f6e736f7220796f757273656c6600000000006044820152606401610b79565b336000908152601d6020526040902080546001600160a01b0319166001600160a01b03831617905561109b6002613393565b606060018054610a8f90614cb5565b600a546000906001600160a01b0316331461176d5760405162461bcd60e51b8152600401610b79906149d0565b60225461ffff8082169161178c9160ff86169162010000900416614b1c565b61ffff1611156117f45760405162461bcd60e51b815260206004820152602d60248201527f52656163686564206d61782e206e756d626572206f6620426f6f73746572206360448201526c7265646974207265776172647360981b6064820152608401610b79565b8160ff16602260028282829054906101000a900461ffff166118169190614b1c565b92506101000a81548161ffff021916908361ffff1602179055508160ff16601f6000856001600160a01b03166001600160a01b0316815260200190815260200160002060008282546118689190614b39565b9091555050604080516001600160a01b038516815260ff841660208201527f0db7c2749c43f1a3f16904833bf2cf21b6f6e675613def2bd07ec6b2de65bf8b910160405180910390a150600192915050565b6001600160a01b0382163314156119135760405162461bcd60e51b815260206004820152601960248201527f4552433732313a20617070726f766520746f2063616c6c6572000000000000006044820152606401610b79565b3360008181526005602090815260408083206001600160a01b03871680855290835292819020805460ff191686151590811790915590519081529192917f17307eab39ab6107e8899845ad3d59bd9653f200f220920489ca2b5937696c31910160405180910390a35050565b61ffff8082166000908152600c6020526040902054166119e15760405162461bcd60e51b815260206004820152601b60248201527f43617264207479706520494420646f6573206e6f7420657869737400000000006044820152606401610b79565b61ffff81166000908152600c6020526040902060030154610100900460ff1615611a1d5760405162461bcd60e51b8152600401610b799061494c565b61ffff81166000908152600f6020526040902054421015611a805760405162461bcd60e51b815260206004820152601b60248201527f43617264206e6f742072656c65617365642066726f6d2073686f7000000000006044820152606401610b79565b61ffff8116600090815260186020526040902054611a9f906001614b39565b61ffff8083166000908152600c602052604090206003015463010000009004161015611add5760405162461bcd60e51b8152600401610b7990614909565b33600090815260176020908152604080832061ffff8516845290915290205460ff1615611b1c5760405162461bcd60e51b8152600401610b799061498f565b61ffff81166000908152600c6020526040902060040154341015611b9a5760405162461bcd60e51b815260206004820152602f60248201527f596f752068617665206e6f74207061696420656e6f756768204d4f565220746f60448201526e206d696e742074686973207479706560881b6064820152608401610b79565b600b546000906001600160a01b03166370a08231336040516001600160e01b031960e084901b1681526001600160a01b03909116600482015260240160206040518083038186803b158015611bee57600080fd5b505afa158015611c02573d6000803e3d6000fd5b505050506040513d601f19601f82011682018060405250810190611c2691906147d9565b61ffff83166000908152600c602052604090206007015490915081101580611c6f575061ffff82166000908152600c6020526040902060040154611c6b906002614c53565b3410155b611ccd5760405162461bcd60e51b815260206004820152602960248201527f596f7520646f206e6f74206861766520746865207265717569726564205a6f6f6044820152686d2062616c616e636560b81b6064820152608401610b79565b61109b82613491565b6000602054341015611d3a5760405162461bcd60e51b815260206004820152602760248201527f436f737420746f2062757920616e64206d696e74206120626f6f7374657220696044820152663990181718181960c91b6064820152608401610b79565b611d4633602154612c4d565b611d51602154612d25565b6000611d5d6000613126565b90505b611d6981613393565b611d7c57611d7681613393565b50611d60565b6040805160ff83168152905133917f9110cd00ebf5075b22eead1dbb6c4f4c5b7bd329bc646333c004dfb9e8c21f0b919081900360200190a2600191505090565b600a546001600160a01b03163314611de75760405162461bcd60e51b8152600401610b79906149d0565b61ffff8083166000818152600c602052604090205490911614611e575760405162461bcd60e51b815260206004820152602260248201527f546869732063617264547970654964206973206e6f7420646566696e65642079604482015261195d60f21b6064820152608401610b79565b61ffff82166000908152600f602052604090205415611ed25760405162461bcd60e51b815260206004820152603160248201527f43616e206f6e6c79206368616e67652072656c656173652074696d6573206f6e60448201527020556e72656c656173656420636172647360781b6064820152608401610b79565b611ede81610e10614c53565b611ee89042614b39565b61ffff9092166000908152600f602052604090209190915550565b611f0d3383612ddd565b611f295760405162461bcd60e51b8152600401610b7990614a05565b611f3584848484613646565b50505050565b6000818152600260205260409020546060906001600160a01b0316611fba5760405162461bcd60e51b815260206004820152602f60248201527f4552433732314d657461646174613a2055524920717565727920666f72206e6f60448201526e3732bc34b9ba32b73a103a37b5b2b760891b6064820152608401610b79565b6000611fc4613679565b90506000815111611fe4576040518060200160405280600081525061200f565b80611fee84613688565b604051602001611fff929190614838565b6040516020818303038152906040525b9392505050565b600a546001600160a01b031633146120405760405162461bcd60e51b8152600401610b79906149d0565b600e5461138861ffff90911611156120a55760405162461bcd60e51b815260206004820152602260248201527f4d6178696d756d206f6620353030302063617264205479706573207265616368604482015261195960f21b6064820152608401610b79565b61ffff808d166000908152600c602052604090205416156121255760405162461bcd60e51b815260206004820152603460248201527f4e6f7420616c6c6f77656420746f2075706461746520616e206578697374696e604482015273339031b0b9322a3cb832903232b334b734ba37b760611b6064820152608401610b79565b60ff881615801561213a575060018661ffff16105b156121965760405162461bcd60e51b815260206004820152602660248201527f496e2073746f7265207479706573206d757374206265206c696d6974656420656044820152653234ba34b7b760d11b6064820152608401610b79565b60008860ff161180156121a95750600085115b156122005760405162461bcd60e51b815260206004820152602160248201527f426f6f737465722f426f6e7573206d6179204e4f542068617665206120636f736044820152601d60fa1b6064820152608401610b79565b61ffff8c166000818152600c60209081526040909120805461ffff191690921782558c5161223492600101918e019061427a565b5061ffff8c166000908152600c602090815260409091208b5161225f926002909201918d019061427a565b5088600c60008e61ffff1661ffff16815260200190815260200160002060030160006101000a81548160ff021916908360ff16021790555087600c60008e61ffff1661ffff16815260200190815260200160002060030160016101000a81548160ff021916908360ff16021790555086600c60008e61ffff1661ffff16815260200190815260200160002060030160026101000a81548160ff021916908360ff16021790555085600c60008e61ffff1661ffff16815260200190815260200160002060030160036101000a81548161ffff021916908361ffff16021790555084600c60008e61ffff1661ffff1681526020019081526020016000206004018190555083600c60008e61ffff1661ffff1681526020019081526020016000206005018190555082600c60008e61ffff1661ffff1681526020019081526020016000206006018190555081600c60008e61ffff1661ffff1681526020019081526020016000206007018190555080600c60008e61ffff1661ffff16815260200190815260200160002060080160006101000a81548160ff021916908360ff160217905550600e600081819054906101000a900461ffff168092919061242190614cf0565b91906101000a81548161ffff021916908361ffff1602179055505060008860ff1611156124ca57600d60008860ff1660ff1681526020019081526020016000208c90806001815401808255809150506001900390600052602060002090601091828204019190066002029091909190916101000a81548161ffff021916908361ffff16021790555042600f60008e61ffff1661ffff168152602001908152602001600020819055505b60ff88166124f3576124de42610258614b39565b61ffff8d166000908152600f60205260409020555b505050505050505050505050565b600c602052600090815260409020805460018201805461ffff909216929161252890614cb5565b80601f016020809104026020016040519081016040528092919081815260200182805461255490614cb5565b80156125a15780601f10612576576101008083540402835291602001916125a1565b820191906000526020600020905b81548152906001019060200180831161258457829003601f168201915b5050505050908060020180546125b690614cb5565b80601f01602080910402602001604051908101604052809291908181526020018280546125e290614cb5565b801561262f5780601f106126045761010080835404028352916020019161262f565b820191906000526020600020905b81548152906001019060200180831161261257829003601f168201915b50505060038401546004850154600586015460068701546007880154600890980154969760ff808616986101008704821698506201000087048216975061ffff63010000009097049690961695168c565b61ffff8082166000908152600c6020526040902054166126e25760405162461bcd60e51b815260206004820152601b60248201527f43617264207479706520494420646f6573206e6f7420657869737400000000006044820152606401610b79565b61ffff81166000908152600c6020526040902060030154610100900460ff161561271e5760405162461bcd60e51b8152600401610b799061494c565b61ffff81166000908152600f60205260409020544210156127815760405162461bcd60e51b815260206004820152601b60248201527f43617264206e6f742072656c65617365642066726f6d2073686f7000000000006044820152606401610b79565b61ffff81166000908152601860205260409020546127a0906001614b39565b61ffff8083166000908152600c6020526040902060030154630100000090041610156127de5760405162461bcd60e51b8152600401610b7990614909565b33600090815260176020908152604080832061ffff8516845290915290205460ff161561281d5760405162461bcd60e51b8152600401610b799061498f565b61ffff81166000908152600c6020526040902060040154156128905760405162461bcd60e51b815260206004820152602660248201527f596f752061726520617474656d7074696e6720746f206d696e7420612070616960448201526564207479706560d01b6064820152608401610b79565b600b546000906001600160a01b03166370a08231336040516001600160e01b031960e084901b1681526001600160a01b03909116600482015260240160206040518083038186803b1580156128e457600080fd5b505afa1580156128f8573d6000803e3d6000fd5b505050506040513d601f19601f8201168201806040525081019061291c91906147d9565b61ffff83166000908152600c60205260408120600701549192509061294290600a614c53565b6129519064174876e800614c53565b61ffff84166000908152600c6020526040902060070154909150821015806129795750803410155b6129eb5760405162461bcd60e51b815260206004820152603960248201527f596f7520646f206e6f74206861766520746865207265717569726564205a6f6f60448201527f6d2062616c616e6365204f72204d4f5652207061796d656e74000000000000006064820152608401610b79565b610dda83613491565b600d6020528160005260406000208181548110612a1057600080fd5b9060005260206000209060109182820401919006600202915091509054906101000a900461ffff1681565b600a546001600160a01b03163314612a655760405162461bcd60e51b8152600401610b79906149d0565b6001600160a01b038116612aca5760405162461bcd60e51b815260206004820152602660248201527f4f776e61626c653a206e6577206f776e657220697320746865207a65726f206160448201526564647265737360d01b6064820152608401610b79565b600a546040516001600160a01b038084169216907f8be0079c531659141344cd1fd0a4f28419497f9722a3daafe3b4186f6b6457e090600090a3600a80546001600160a01b0319166001600160a01b0392909216919091179055565b6001600160a01b0381166000908152601e6020526040812054612b4e57610a7a600242614c72565b506001600160a01b03166000908152601e602052604090205490565b919050565b600081602054612b7f9190614c53565b341015612bce5760405162461bcd60e51b815260206004820152601d60248201527f436f737420746f2062757920312063726564697420697320302e3030320000006044820152606401610b79565b336000908152601f602052604081208054849290612bed908490614b39565b90915550612c0a90503383602154612c059190614c53565b612c4d565b612c2082602154612c1b9190614c53565b612d25565b506001919050565b60006001600160e01b0319821663780e9d6360e01b1480610a7a5750610a7a826137a2565b600b546040516321af688960e01b81526001600160a01b03848116600483015260248201849052909116906321af688990604401600060405180830381600087803b158015612c9b57600080fd5b505af1158015612caf573d6000803e3d6000fd5b505050505050565b600081815260046020526040902080546001600160a01b0319166001600160a01b0384169081179091558190612cec82611315565b6001600160a01b03167f8c5be1e5ebec7d5bd14f71427d1e84f3dd0314c0f7b2291e5b200ac8c7c3b92560405160405180910390a45050565b336000908152601d60205260409020546001600160a01b03161561125a576000612d50601483614b51565b905080612d5b575060015b336000908152601d6020526040902054612d7e906001600160a01b031682612c4d565b336000818152601d60209081526040918290205482516001600160a01b0391909116815290810192909252818101839052517e3da85d6058444eca57e3b88be14c734f4f239affe28b7629966e318de2a90e9181900360600190a15050565b6000818152600260205260408120546001600160a01b0316612e565760405162461bcd60e51b815260206004820152602c60248201527f4552433732313a206f70657261746f7220717565727920666f72206e6f6e657860448201526b34b9ba32b73a103a37b5b2b760a11b6064820152608401610b79565b6000612e6183611315565b9050806001600160a01b0316846001600160a01b03161480612e9c5750836001600160a01b0316612e9184610c34565b6001600160a01b0316145b80612ecc57506001600160a01b0380821660009081526005602090815260408083209388168352929052205460ff165b949350505050565b826001600160a01b0316612ee782611315565b6001600160a01b031614612f4f5760405162461bcd60e51b815260206004820152602960248201527f4552433732313a207472616e73666572206f6620746f6b656e2074686174206960448201526839903737ba1037bbb760b91b6064820152608401610b79565b6001600160a01b038216612fb15760405162461bcd60e51b8152602060048201526024808201527f4552433732313a207472616e7366657220746f20746865207a65726f206164646044820152637265737360e01b6064820152608401610b79565b612fbc8383836137f2565b612fc7600082612cb7565b6001600160a01b0383166000908152600360205260408120805460019290612ff0908490614c72565b90915550506001600160a01b038216600090815260036020526040812080546001929061301e908490614b39565b909155505060008181526002602052604080822080546001600160a01b0319166001600160a01b0386811691821790925591518493918716917fddf252ad1be2c89b69c2b068fc378daa952ba7f163c4a11628f55a4df523b3ef91a4505050565b600061308a82611315565b9050613098816000846137f2565b6130a3600083612cb7565b6001600160a01b03811660009081526003602052604081208054600192906130cc908490614c72565b909155505060008281526002602052604080822080546001600160a01b0319169055518391906001600160a01b038416907fddf252ad1be2c89b69c2b068fc378daa952ba7f163c4a11628f55a4df523b3ef908390a45050565b60006605dc0000000bb88211156131a55760405162461bcd60e51b815260206004820152603c60248201527f596f75206d757374207761676572206c657373207468616e207468652075707060448201527f6572206c696d6974206f662031363439323637343431363637303030000000006064820152608401610b79565b600b546000906001600160a01b03166370a08231336040516001600160e01b031960e084901b1681526001600160a01b03909116600482015260240160206040518083038186803b1580156131f957600080fd5b505afa15801561320d573d6000803e3d6000fd5b505050506040513d601f19601f8201168201806040525081019061323191906147d9565b9050828110156132965760405162461bcd60e51b815260206004820152602a60248201527f596f7520646f204e6f74206861766520656e6f756768205a4f4f4d20666f72206044820152693a3434b9903bb0b3b2b960b11b6064820152608401610b79565b821561330f57600b546001600160a01b03166336ec0dd6336040516001600160e01b031960e084901b1681526001600160a01b03909116600482015260248101869052604401600060405180830381600087803b1580156132f657600080fd5b505af115801561330a573d6000803e3d6000fd5b505050505b600061331c61271061384a565b90506000613329856138c9565b905060025b60078160ff16101561338757818160ff166007811061335d57634e487b7160e01b600052603260045260246000fd5b602002015161ffff1683116133755795945050505050565b8061337f81614d2d565b91505061332e565b50600695945050505050565b60ff81166000908152600d602052604081205481906133b19061384a565b60ff84166000908152600d6020526040812080549293509091839081106133e857634e487b7160e01b600052603260045260246000fd5b60009182526020808320601083040154600f9092166002026101000a90910461ffff908116808452600c90925260409092206003015490925063010000009004161580159061346f575061ffff8082166000908152600c602090815260408083206003015460189092529091205463010000009091049091169061346d906001614b39565b115b1561347e575060009392505050565b61348781613491565b5060019392505050565b33600081815260176020908152604080832061ffff861684528252808320805460ff19166001179055600c9091529020600501546134cf9190612c4d565b61ffff81166000908152600c60205260409020600501546134ef90612d25565b61ffff81166000908152601860205260408120805460019290613513908490614b39565b90915550613525905033601b5461396f565b60408051808201825261ffff8316808252600090815260186020908152928120549282019290925290819060199061355c601b5490565b81526020808201929092526040016000208251815461ffff191661ffff9182161782559290910151600190910155815116336001600160a01b03167f36e996ba214404b0a557ef87433cf92f99d6f4e07c2ca5b7cf72a95d7ac7f09f6135c1601b5490565b60208086015160408051938452918301520160405180910390a36135e9601b80546001019055565b61ffff82166000908152600c602052604090206003015460019060109062010000900460ff166007811061362d57634e487b7160e01b600052603260045260246000fd5b01600082825461363d9190614b39565b90915550505050565b613651848484612ed4565b61365d84848484613989565b611f355760405162461bcd60e51b8152600401610b79906148b7565b6060601c8054610a8f90614cb5565b6060816136ac5750506040805180820190915260018152600360fc1b602082015290565b8160005b81156136d657806136c081614d12565b91506136cf9050600a83614b51565b91506136b0565b60008167ffffffffffffffff8111156136ff57634e487b7160e01b600052604160045260246000fd5b6040519080825280601f01601f191660200182016040528015613729576020820181803683370190505b5090505b8415612ecc5761373e600183614c72565b915061374b600a86614d4d565b613756906030614b39565b60f81b81838151811061377957634e487b7160e01b600052603260045260246000fd5b60200101906001600160f81b031916908160001a90535061379b600a86614b51565b945061372d565b60006001600160e01b031982166380ac58cd60e01b14806137d357506001600160e01b03198216635b5e139f60e01b145b80610a7a57506301ffc9a760e01b6001600160e01b0319831614610a7a565b600a54600160a01b900460ff161561383f5760405162461bcd60e51b815260206004820152601060248201526f14185d5cd8589b194e881c185d5cd95960821b6044820152606401610b79565b610dda838383613a96565b600080824233601a546040516020016138889392919092835260609190911b6bffffffffffffffffffffffff19166020830152603482015260540190565b6040516020818303038152906040528051906020012060001c6138ab9190614d4d565b601a805491925060006138bd83614d12565b90915550909392505050565b6138d16142fe565b816139175750506040805160e08101825260008082526020820181905291810191909152600160608201526101f46080820152610dac60a082015261271060c082015290565b60008060008061392686613b4e565b6040805160e0810182526000808252602082018190529181019190915261ffff9182166060820152918116608083015291821660a0820152911660c08201529695505050505050565b61109b828260405180602001604052806000815250613d61565b60006001600160a01b0384163b15613a8b57604051630a85bd0160e11b81526001600160a01b0385169063150b7a02906139cd903390899088908890600401614867565b602060405180830381600087803b1580156139e757600080fd5b505af1925050508015613a17575060408051601f3d908101601f19168201909252613a1491810190614679565b60015b613a71573d808015613a45576040519150601f19603f3d011682016040523d82523d6000602084013e613a4a565b606091505b508051613a695760405162461bcd60e51b8152600401610b79906148b7565b805181602001fd5b6001600160e01b031916630a85bd0160e11b149050612ecc565b506001949350505050565b6001600160a01b038316613af157613aec81600880546000838152600960205260408120829055600182018355919091527ff3f7a9fe364faab93b216da50a3214154f22a0a2b415b23a84c8169e8b636ee30155565b613b14565b816001600160a01b0316836001600160a01b031614613b1457613b148382613d94565b6001600160a01b038216613b2b57610dda81613e31565b826001600160a01b0316826001600160a01b031614610dda57610dda8282613f0a565b604080516080808201835260018083526002602080850182905260038587015260046060808701919091528651948501875292845283015260069382019390935260189281019290925260009182918291829190613baa61431c565b613bb261431c565b60005b6004811015613c7d57838160048110613bde57634e487b7160e01b600052603260045260246000fd5b602002015160ff16613bef8b613f4e565b868360048110613c0f57634e487b7160e01b600052603260045260246000fd5b6020020151613c1d8d613f4e565b613c279190614ba8565b613c319190614b51565b613c3b9190614b51565b613c46906064614c53565b838260048110613c6657634e487b7160e01b600052603260045260246000fd5b602002015280613c7581614d12565b915050613bb5565b5060608201516040830151602084015184516000939291613c9d91614b39565b613ca79190614b39565b613cb19190614b39565b905060005b6004811015613d3b5781848260048110613ce057634e487b7160e01b600052603260045260246000fd5b6020020151613cf190612710614c53565b613cfb9190614b51565b838260048110613d1b57634e487b7160e01b600052603260045260246000fd5b61ffff909216602092909202015280613d3381614d12565b915050613cb6565b5050805160208201516040830151606090930151919b909a509198509650945050505050565b613d6b838361412c565b613d786000848484613989565b610dda5760405162461bcd60e51b8152600401610b79906148b7565b60006001613da18461138c565b613dab9190614c72565b600083815260076020526040902054909150808214613dfe576001600160a01b03841660009081526006602090815260408083208584528252808320548484528184208190558352600790915290208190555b5060009182526007602090815260408084208490556001600160a01b039094168352600681528383209183525290812055565b600854600090613e4390600190614c72565b60008381526009602052604081205460088054939450909284908110613e7957634e487b7160e01b600052603260045260246000fd5b906000526020600020015490508060088381548110613ea857634e487b7160e01b600052603260045260246000fd5b6000918252602080832090910192909255828152600990915260408082208490558582528120556008805480613eee57634e487b7160e01b600052603160045260246000fd5b6001900381819060005260206000200160009055905550505050565b6000613f158361138c565b6001600160a01b039093166000908152600660209081526040808320868452825280832085905593825260079052919091209190915550565b60008061411f613f61620445c085614b51565b604080517ff8f9cbfae6cc78fbefe7cdc3a1793dfcf4f0e8bbd8cec470b6a28a7a5a3e1efd81527ff5ecf1b3e9debc68e1d9cfabc5997135bfb7a7a3938b7b606b5b4b3f2f1f0ffe60208201527ff6e4ed9ff2d6b458eadcdf97bd91692de2d4da8fd2d0ac50c6ae9a8272523616818301527fc8c0b887b0a8a4489c948c7f847c6125746c645c544c444038302820181008ff60608201527ff7cae577eec2a03cf3bad76fb589591debb2dd67e0aa9834bea6925f6a4a2e0e60808201527fe39ed557db96902cd38ed14fad815115c786af479b7e8324736353433727170760a08201527fc976c13bb96e881cb166a933a55e490d9d56952b8d4e801485467d236242260660c08201527f753a6d1b65325d0c552a4d1345224105391a310b29122104190a11030902010060e0820152610100808201909252600160f81b6001600160801b68010000000000000000640100000000620100006010600460026000198c019081041790810417908104178881041790810417908104179081041790810417017e818283848586878898a8b8c8d8e8f929395969799a9b9d9e9faaeb6bedeeff0281900460ff039091015104600160ff1b909211020190565b905061200f600482614b51565b6001600160a01b0382166141825760405162461bcd60e51b815260206004820181905260248201527f4552433732313a206d696e7420746f20746865207a65726f20616464726573736044820152606401610b79565b6000818152600260205260409020546001600160a01b0316156141e75760405162461bcd60e51b815260206004820152601c60248201527f4552433732313a20746f6b656e20616c7265616479206d696e746564000000006044820152606401610b79565b6141f3600083836137f2565b6001600160a01b038216600090815260036020526040812080546001929061421c908490614b39565b909155505060008181526002602052604080822080546001600160a01b0319166001600160a01b03861690811790915590518392907fddf252ad1be2c89b69c2b068fc378daa952ba7f163c4a11628f55a4df523b3ef908290a45050565b82805461428690614cb5565b90600052602060002090601f0160209004810192826142a857600085556142ee565b82601f106142c157805160ff19168380011785556142ee565b828001600101855582156142ee579182015b828111156142ee5782518255916020019190600101906142d3565b506142fa92915061433a565b5090565b6040518060e001604052806007906020820280368337509192915050565b60405180608001604052806004906020820280368337509192915050565b5b808211156142fa576000815560010161433b565b600067ffffffffffffffff83111561436957614369614d8d565b61437c601f8401601f1916602001614aeb565b905082815283838301111561439057600080fd5b828260208301376000602084830101529392505050565b80356001600160a01b0381168114612b6a57600080fd5b600082601f8301126143ce578081fd5b61200f8383356020850161434f565b803561ffff81168114612b6a57600080fd5b803560ff81168114612b6a57600080fd5b600060208284031215614411578081fd5b61200f826143a7565b6000806040838503121561442c578081fd5b614435836143a7565b9150614443602084016143a7565b90509250929050565b600080600060608486031215614460578081fd5b614469846143a7565b9250614477602085016143a7565b9150604084013590509250925092565b6000806000806080858703121561449c578081fd5b6144a5856143a7565b93506144b3602086016143a7565b925060408501359150606085013567ffffffffffffffff8111156144d5578182fd5b8501601f810187136144e5578182fd5b6144f48782356020840161434f565b91505092959194509250565b60008060408385031215614512578182fd5b61451b836143a7565b91506020830135801515811461452f578182fd5b809150509250929050565b6000806040838503121561454c578182fd5b614555836143a7565b9150614443602084016143dd565b60008060408385031215614575578182fd5b61457e836143a7565b946020939093013593505050565b6000806040838503121561459e578182fd5b6145a7836143a7565b9150614443602084016143ef565b600060208083850312156145c7578182fd5b823567ffffffffffffffff808211156145de578384fd5b818501915085601f8301126145f1578384fd5b81358181111561460357614603614d8d565b8060051b9150614614848301614aeb565b8181528481019084860184860187018a101561462e578788fd5b8795505b83861015614650578035835260019590950194918601918601614632565b5098975050505050505050565b60006020828403121561466e578081fd5b813561200f81614da3565b60006020828403121561468a578081fd5b815161200f81614da3565b6000602082840312156146a6578081fd5b61200f826143dd565b6000806000806000806000806000806000806101808d8f0312156146d157898afd5b6146da8d6143dd565b9b5067ffffffffffffffff60208e013511156146f457898afd5b6147048e60208f01358f016143be565b9a5067ffffffffffffffff60408e0135111561471e57898afd5b61472e8e60408f01358f016143be565b995061473c60608e016143ef565b985061474a60808e016143ef565b975061475860a08e016143ef565b965061476660c08e016143dd565b955060e08d013594506101008d013593506101208d013592506101408d013591506147946101608e016143ef565b90509295989b509295989b509295989b565b600080604083850312156147b8578182fd5b61457e836143dd565b6000602082840312156147d2578081fd5b5035919050565b6000602082840312156147ea578081fd5b5051919050565b60008060408385031215614803578182fd5b61457e836143ef565b60008151808452614824816020860160208601614c89565b601f01601f19169290920160200192915050565b6000835161484a818460208801614c89565b83519083019061485e818360208801614c89565b01949350505050565b6001600160a01b038581168252841660208201526040810183905260806060820181905260009061489a9083018461480c565b9695505050505050565b60208152600061200f602083018461480c565b60208082526032908201527f4552433732313a207472616e7366657220746f206e6f6e20455243373231526560408201527131b2b4bb32b91034b6b83632b6b2b73a32b960711b606082015260800190565b60208082526023908201527f416c6c206f662074686573652063617264732068617665206265656e206d696e6040820152621d195960ea1b606082015260800190565b60208082526023908201527f4f6e6c792063617264732066726f6d2073746f72652063616e206265206d696e6040820152621d195960ea1b606082015260800190565b60208082526021908201527f596f75206861766520616c7265616479206d696e7465642074686973207479706040820152606560f81b606082015260800190565b6020808252818101527f4f776e61626c653a2063616c6c6572206973206e6f7420746865206f776e6572604082015260600190565b60208082526031908201527f4552433732313a207472616e736665722063616c6c6572206973206e6f74206f6040820152701ddb995c881b9bdc88185c1c1c9bdd9959607a1b606082015260800190565b600061ffff808f1683526101806020840152614a7661018084018f61480c565b8381036040850152614a88818f61480c565b92505060ff8c16606084015260ff8b16608084015260ff8a1660a084015280891660c0840152508660e0830152856101008301528461012083015283610140830152614ada61016083018460ff169052565b9d9c50505050505050505050505050565b604051601f8201601f1916810167ffffffffffffffff81118282101715614b1457614b14614d8d565b604052919050565b600061ffff80831681851680830382111561485e5761485e614d61565b60008219821115614b4c57614b4c614d61565b500190565b600082614b6057614b60614d77565b500490565b600181815b80851115614ba0578160001904821115614b8657614b86614d61565b80851615614b9357918102915b93841c9390800290614b6a565b509250929050565b600061200f60ff841683600082614bc157506001610a7a565b81614bce57506000610a7a565b8160018114614be45760028114614bee57614c0a565b6001915050610a7a565b60ff841115614bff57614bff614d61565b50506001821b610a7a565b5060208310610133831016604e8410600b8410161715614c2d575081810a610a7a565b614c378383614b65565b8060001904821115614c4b57614c4b614d61565b029392505050565b6000816000190483118215151615614c6d57614c6d614d61565b500290565b600082821015614c8457614c84614d61565b500390565b60005b83811015614ca4578181015183820152602001614c8c565b83811115611f355750506000910152565b600181811c90821680614cc957607f821691505b60208210811415614cea57634e487b7160e01b600052602260045260246000fd5b50919050565b600061ffff80831681811415614d0857614d08614d61565b6001019392505050565b6000600019821415614d2657614d26614d61565b5060010190565b600060ff821660ff811415614d4457614d44614d61565b60010192915050565b600082614d5c57614d5c614d77565b500690565b634e487b7160e01b600052601160045260246000fd5b634e487b7160e01b600052601260045260246000fd5b634e487b7160e01b600052604160045260246000fd5b6001600160e01b03198116811461125a57600080fdfea26469706673582212203b51d6e7f0a344a987a08ecbc261330e575d523f0cdc8b45d15fa0ee008e584664736f6c63430008040033",
  "immutableReferences": {},
  "source": "// SPDX-License-Identifier: MIT\npragma solidity ^0.8.4;\n\nimport \"./ZoomToken.sol\";\nimport \"./ZoombiesUniverse.sol\";\nimport \"@openzeppelin/contracts/token/ERC721/ERC721.sol\";\nimport \"@openzeppelin/contracts/token/ERC721/extensions/ERC721Burnable.sol\";\nimport \"@openzeppelin/contracts/utils/Counters.sol\";\n\ncontract Zoombies is ERC721, ERC721Burnable, ZoombiesUniverse {\n    using Counters for Counters.Counter;\n\n    Counters.Counter private _tokenIdCounter;\n    string private _baseTokenURI;\n\n    //Tracking affiliate sponsors\n    mapping(address => address) public sponsors; // 1 sponsor can have many affiliates, but only 1 sponsor, returns sponsor\n\n    //Track the timestamps for users to get their daily pull\n    mapping(address => uint256) private timeToCardsPull; //address to timestamp\n\n    //Tracking booster pack count ownership. These are NOT tokens, Player can mint a random NFT\n    mapping (address => uint256) public boosterCreditsOwned;\n\n    uint public weiCostOfBooster = 2000000000000000;\n    uint256 public zoomGainedPerBoosterCredit = 120;\n\n    uint16 public maxBoostersRewards = 50000;\n    uint16 public totalBoostersRewarded = 0;\n\n    //Event Logs\n    event LogCardTypeLoaded(uint32 indexed cardTypeId, string cardName, uint editionTotal);\n    event LogCardMinted(address indexed buyer, uint tokenId, uint32 indexed cardTypeId, uint editionNumber);\n    event LogPackOpened(address indexed buyer, uint8 rarity);\n    event LogSponsorLinked(address sponsor, address affiliate);\n    event LogSponsorReward(address sponsor, address affiliate, uint zoomReward);\n    event LogDailyReward(address player, uint newBoosterBalance);\n    event LogRewardBoosters(address winner, uint boostersAwarded);\n    event LogSacrificeNFT(address owner, uint256 tokenId, uint16 cardTypeId, uint256 zoomGained);\n\n    constructor(address _zoomTokenContract)\n    ERC721(\"Zoombies\", \"Zoombie\")\n    {\n      require(_zoomTokenContract != address(0x0));\n      _baseTokenURI = 'https://zoombies.world/nft/';\n      zoomTokenContract = _zoomTokenContract;\n    }\n\n    function _baseURI() internal view virtual override returns (string memory) {\n        return _baseTokenURI;\n    }\n\n    function _beforeTokenTransfer(address from, address to, uint256 tokenId)\n        internal\n        whenNotPaused\n        override(ERC721, ERC721Enumerable)\n    {\n        super._beforeTokenTransfer(from, to, tokenId);\n    }\n\n    function supportsInterface(bytes4 interfaceId)\n        public\n        view\n        override(ERC721, ERC721Enumerable)\n        returns (bool)\n    {\n        return super.supportsInterface(interfaceId);\n    }\n\n    function buyCard(uint16 _cardTypeId) external payable {\n      require(allCardTypes[_cardTypeId].cardTypeId != 0, \"Card type ID does not exist\");\n      require(allCardTypes[_cardTypeId].notStoreOrBonus == 0, \"Only cards from store can be minted\");\n      require(block.timestamp >= storeReleaseTime[_cardTypeId], \"Card not released from shop\");\n      require(allCardTypes[_cardTypeId].totalAvailable >= (cardTypeToEdition[_cardTypeId]+1), \"All of these cards have been minted\");\n      require(cardTypesOwned[_msgSender()][_cardTypeId] == false, \"You have already minted this type\");\n      require(msg.value >= allCardTypes[_cardTypeId].weiCost , \"You have not paid enough MOVR to mint this type\");\n      uint zoom = ZoomToken(zoomTokenContract).balanceOf(_msgSender());\n      require(zoom >= allCardTypes[_cardTypeId].unlockZoom || msg.value >= (allCardTypes[_cardTypeId].weiCost*2), \"You do not have the required Zoom balance\");\n\n      //ALL CLEAR ???????? mint new card\n      mintZoombieNFT(_cardTypeId);\n    }\n\n    function getFreeCard(uint16 _cardTypeId) external payable {\n      require(allCardTypes[_cardTypeId].cardTypeId != 0, \"Card type ID does not exist\");\n      require(allCardTypes[_cardTypeId].notStoreOrBonus == 0, \"Only cards from store can be minted\");\n      require(block.timestamp >= storeReleaseTime[_cardTypeId], \"Card not released from shop\");\n      require(allCardTypes[_cardTypeId].totalAvailable >= (cardTypeToEdition[_cardTypeId]+1), \"All of these cards have been minted\");\n      require(cardTypesOwned[_msgSender()][_cardTypeId] == false, \"You have already minted this type\");\n      require(allCardTypes[_cardTypeId].weiCost == 0, \"You are attempting to mint a paid type\");\n      uint myZooms = ZoomToken(zoomTokenContract).balanceOf(_msgSender());\n      uint zoomCost = zoomBaseCost * (10*allCardTypes[_cardTypeId].unlockZoom);\n      require(myZooms >= allCardTypes[_cardTypeId].unlockZoom || msg.value >= zoomCost, \"You do not have the required Zoom balance Or MOVR payment\");\n\n      //ALL CLEAR ???????? claim and mint new card\n      mintZoombieNFT(_cardTypeId);\n    }\n\n    function sacrificeNFTs(uint256[] memory _tokenIds) external {\n\n      require(_tokenIds.length <= 255, 'List of tokens to sacrifice must be less than 255 at a time');\n\n      uint256 sacZoom = 0;\n      for(uint i=0; i < _tokenIds.length; i++){\n        burn(_tokenIds[i]); //ensure owner before we roll other data\n\n        uint16 _tempCTiD = NFTs[_tokenIds[i]].cardTypeId;\n        tokensByRarity[allCardTypes[_tempCTiD].rarity] -= 1;\n        sacZoom += allCardTypes[_tempCTiD].sacrificeZoom;\n        delete(NFTs[_tokenIds[i]]);\n        emit LogSacrificeNFT(_msgSender(), _tokenIds[i], _tempCTiD, allCardTypes[_tempCTiD].sacrificeZoom);\n      }\n\n      awardZoom(_msgSender(), sacZoom);\n      rewardAffiliate(sacZoom);\n    }\n\n    //every 8 hours, the address can get 2 free booster cards\n    function getBonusBoosters(address _player) external {\n        require(block.timestamp > getTimeToDailyBonus(_player), \"Can't claim before time to claim next bonus\");\n\n        //Stop re-entrancy, update the lastpull value\n        timeToCardsPull[_player] = block.timestamp + 8 hours;\n\n        awardZoom(_player, 120);\n\n        // add the boosters and emit event\n        boosterCreditsOwned[_player] += 2;\n        emit LogDailyReward(_player, boosterCreditsOwned[_player]);\n    }\n\n    function getTimeToDailyBonus(address _player) public view returns(uint256 timeStamp){\n\n        //check if address exists\n        if(timeToCardsPull[_player] == 0){\n            return block.timestamp - 2 seconds;\n        }else{\n            return timeToCardsPull[_player];\n        }\n    }\n\n    function linkMySponsor(address _mySponsor) external {\n        require(_mySponsor != address(0), \"Send a valid sponsor wallet\");\n        require(sponsors[_msgSender()] == address(0), \"You have already linked a sponsor\");\n        require(_msgSender() != _mySponsor, \"You cannot sponsor yourself\");\n\n        //All clear?  stop re-entrancy, set the association\n        sponsors[_msgSender()] = _mySponsor;\n\n        //Mint the Platinum Sponsor Card\n        pullCard(2);\n    }\n\n    function buyBoosterCredits(uint _amount) payable external returns(bool) {\n\n        // is there enough wei sent 1 pack = 0.002 ?\n        require(msg.value >= (weiCostOfBooster * _amount), \"Cost to buy 1 credit is 0.002\");\n\n        //All good increase the number owned\n        boosterCreditsOwned[_msgSender()] += _amount;\n\n        //Award czxp for booster\n        awardZoom(_msgSender(), (zoomGainedPerBoosterCredit * _amount));\n\n        rewardAffiliate(zoomGainedPerBoosterCredit * _amount);\n\n        return true;\n    }\n\n    function buyBoosterAndMintNFT() payable external returns(bool) {\n        require(msg.value >= weiCostOfBooster, \"Cost to buy and mint a booster is 0.002\");\n\n        //Award zoom per pack\n        awardZoom(_msgSender(), zoomGainedPerBoosterCredit);\n\n        rewardAffiliate(zoomGainedPerBoosterCredit);\n\n        //Pull the card\n        uint8 rarity = getRarity(0);\n        while(pullCard(rarity) == false){\n          pullCard(rarity);\n        }\n\n        //Send a log event\n        emit LogPackOpened(_msgSender(), rarity);\n        return true;\n    }\n\n    function mintBoosterNFT(uint zoomWager) external returns(bool) {\n        require(boosterCreditsOwned[_msgSender()] > 0, \"No Booster credits owned\");\n        require(zoomWager == 0 || zoomWager >= 2600000, \"Wager must be 0 or higher than 2600000\");\n\n        //STOP re-entrancy , decrement number of packs\n        boosterCreditsOwned[_msgSender()] -= 1;\n\n        //Pull the card\n        uint8 rarity = getRarity(zoomWager);\n        while(pullCard(rarity) == false){\n          pullCard(rarity);\n        }\n\n        //Send a log event\n        emit LogPackOpened(_msgSender(), rarity);\n        return true;\n    }\n\n    function awardBoosterCredits(address _winner, uint8 _amount) external onlyOwner returns(bool) {\n\n        //Check max. for Universe\n        require((totalBoostersRewarded + _amount) <= maxBoostersRewards, \"Reached max. number of Booster credit rewards\");\n\n        totalBoostersRewarded += _amount;\n        boosterCreditsOwned[_winner] += _amount;\n        emit LogRewardBoosters(_winner, _amount);\n        return true;\n    }\n\n//Private\n\n    function pullCard(uint8 _rarity) private returns (bool) {\n\n        //Get a random number for the card to pull\n        uint256 rand = selectRandom(allBoosterCardIds[_rarity].length);\n\n        //hit up the cardTypes\n        uint16 _pulledId = allBoosterCardIds[_rarity][rand];\n        if(allCardTypes[_pulledId].totalAvailable > 0  && //test for limited edition boosters\n           (cardTypeToEdition[_pulledId]+1) > allCardTypes[_pulledId].totalAvailable)\n           {\n             return false;\n        }\n\n        //Give the player this cardType\n        mintZoombieNFT(_pulledId);\n        return true;\n    }\n\n\n    function mintZoombieNFT(uint16 _cardTypeId) private {\n      //Stop re-entrancy, Track the type of card puchased for this owner, so they cant buy again\n      cardTypesOwned[_msgSender()][_cardTypeId] = true;\n\n      //Let the world award our friend\n      awardZoom(_msgSender(), allCardTypes[_cardTypeId].buyZoom);\n\n      //reward the sponsor\n      rewardAffiliate(allCardTypes[_cardTypeId].buyZoom);\n\n      cardTypeToEdition[_cardTypeId] += 1;\n\n      //now mint the NFT\n      _safeMint(_msgSender(), _tokenIdCounter.current());\n\n      //Create the NFT data on chain!\n      NFTdata memory _tempCard = NFTdata({\n          cardTypeId:_cardTypeId,\n          editionNumber:cardTypeToEdition[_cardTypeId]\n      });\n      NFTs[_tokenIdCounter.current()] = _tempCard;\n\n      emit LogCardMinted(_msgSender(), _tokenIdCounter.current(), _tempCard.cardTypeId, _tempCard.editionNumber);\n\n      _tokenIdCounter.increment();\n      tokensByRarity[allCardTypes[_cardTypeId].rarity] += 1;\n    }\n\n    /**\n     * We always pay our affiliates 20% of the zoom\n     */\n     function rewardAffiliate(uint _totalZoom) private  {\n         //first check if the caller has a sponsor\n         if(sponsors[_msgSender()] != address(0)){\n             uint reward = _totalZoom / 20;\n             if(reward == 0){\n                 reward = 1;\n             }\n             awardZoom(sponsors[_msgSender()], reward);\n             emit LogSponsorReward(sponsors[_msgSender()], _msgSender(), reward);\n         }\n     }\n\n     /**\n      * Withdraw balance to wallet\n      */\n     function withdraw() public onlyOwner returns(bool) {\n        payable(_msgSender()).transfer(address(this).balance);\n        return true;\n     }\n\n}\n",
  "sourcePath": "/home/ryanpricelondon/zoombies/contracts/Zoombies.sol",
  "compiler": {
    "name": "solc",
    "version": "0.8.4+commit.c7e474f2.Emscripten.clang"
  },
  "schemaVersion": "3.4.0",
  "updatedAt": "2021-07-14T19:39:19.189Z",
  "networkType": "ethereum",
  "devdoc": {
    "kind": "dev",
    "methods": {
      "approve(address,uint256)": {
        "details": "See {IERC721-approve}."
      },
      "balanceOf(address)": {
        "details": "See {IERC721-balanceOf}."
      },
      "burn(uint256)": {
        "details": "Burns `tokenId`. See {ERC721-_burn}. Requirements: - The caller must own `tokenId` or be an approved operator."
      },
      "getApproved(uint256)": {
        "details": "See {IERC721-getApproved}."
      },
      "isApprovedForAll(address,address)": {
        "details": "See {IERC721-isApprovedForAll}."
      },
      "name()": {
        "details": "See {IERC721Metadata-name}."
      },
      "owner()": {
        "details": "Returns the address of the current owner."
      },
      "ownerOf(uint256)": {
        "details": "See {IERC721-ownerOf}."
      },
      "paused()": {
        "details": "Returns true if the contract is paused, and false otherwise."
      },
      "renounceOwnership()": {
        "details": "Leaves the contract without owner. It will not be possible to call `onlyOwner` functions anymore. Can only be called by the current owner. NOTE: Renouncing ownership will leave the contract without an owner, thereby removing any functionality that is only available to the owner."
      },
      "safeTransferFrom(address,address,uint256)": {
        "details": "See {IERC721-safeTransferFrom}."
      },
      "safeTransferFrom(address,address,uint256,bytes)": {
        "details": "See {IERC721-safeTransferFrom}."
      },
      "setApprovalForAll(address,bool)": {
        "details": "See {IERC721-setApprovalForAll}."
      },
      "symbol()": {
        "details": "See {IERC721Metadata-symbol}."
      },
      "tokenByIndex(uint256)": {
        "details": "See {IERC721Enumerable-tokenByIndex}."
      },
      "tokenOfOwnerByIndex(address,uint256)": {
        "details": "See {IERC721Enumerable-tokenOfOwnerByIndex}."
      },
      "tokenURI(uint256)": {
        "details": "See {IERC721Metadata-tokenURI}."
      },
      "totalSupply()": {
        "details": "See {IERC721Enumerable-totalSupply}."
      },
      "transferFrom(address,address,uint256)": {
        "details": "See {IERC721-transferFrom}."
      },
      "transferOwnership(address)": {
        "details": "Transfers ownership of the contract to a new account (`newOwner`). Can only be called by the current owner."
      }
    },
    "version": 1
  },
  "userdoc": {
    "kind": "user",
    "methods": {
      "withdraw()": {
        "notice": "Withdraw balance to wallet"
      }
    },
    "version": 1
  }
}